{
	"DividendPayingToken.sol": {
		"DividendPayingToken": {
			"abi": [
				{
					"inputs": [
						{
							"internalType": "string",
							"name": "_name",
							"type": "string"
						},
						{
							"internalType": "string",
							"name": "_symbol",
							"type": "string"
						}
					],
					"stateMutability": "nonpayable",
					"type": "constructor"
				},
				{
					"anonymous": false,
					"inputs": [
						{
							"indexed": true,
							"internalType": "address",
							"name": "owner",
							"type": "address"
						},
						{
							"indexed": true,
							"internalType": "address",
							"name": "spender",
							"type": "address"
						},
						{
							"indexed": false,
							"internalType": "uint256",
							"name": "value",
							"type": "uint256"
						}
					],
					"name": "Approval",
					"type": "event"
				},
				{
					"anonymous": false,
					"inputs": [
						{
							"indexed": true,
							"internalType": "address",
							"name": "to",
							"type": "address"
						},
						{
							"indexed": false,
							"internalType": "uint256",
							"name": "weiAmount",
							"type": "uint256"
						}
					],
					"name": "DividendWithdrawn",
					"type": "event"
				},
				{
					"anonymous": false,
					"inputs": [
						{
							"indexed": true,
							"internalType": "address",
							"name": "from",
							"type": "address"
						},
						{
							"indexed": false,
							"internalType": "uint256",
							"name": "weiAmount",
							"type": "uint256"
						}
					],
					"name": "DividendsDistributed",
					"type": "event"
				},
				{
					"anonymous": false,
					"inputs": [
						{
							"indexed": true,
							"internalType": "address",
							"name": "previousOwner",
							"type": "address"
						},
						{
							"indexed": true,
							"internalType": "address",
							"name": "newOwner",
							"type": "address"
						}
					],
					"name": "OwnershipTransferred",
					"type": "event"
				},
				{
					"anonymous": false,
					"inputs": [
						{
							"indexed": true,
							"internalType": "address",
							"name": "from",
							"type": "address"
						},
						{
							"indexed": true,
							"internalType": "address",
							"name": "to",
							"type": "address"
						},
						{
							"indexed": false,
							"internalType": "uint256",
							"name": "value",
							"type": "uint256"
						}
					],
					"name": "Transfer",
					"type": "event"
				},
				{
					"inputs": [],
					"name": "CAKE",
					"outputs": [
						{
							"internalType": "address",
							"name": "",
							"type": "address"
						}
					],
					"stateMutability": "view",
					"type": "function"
				},
				{
					"inputs": [
						{
							"internalType": "address",
							"name": "_owner",
							"type": "address"
						}
					],
					"name": "accumulativeDividendOf",
					"outputs": [
						{
							"internalType": "uint256",
							"name": "",
							"type": "uint256"
						}
					],
					"stateMutability": "view",
					"type": "function"
				},
				{
					"inputs": [
						{
							"internalType": "address",
							"name": "owner",
							"type": "address"
						},
						{
							"internalType": "address",
							"name": "spender",
							"type": "address"
						}
					],
					"name": "allowance",
					"outputs": [
						{
							"internalType": "uint256",
							"name": "",
							"type": "uint256"
						}
					],
					"stateMutability": "view",
					"type": "function"
				},
				{
					"inputs": [
						{
							"internalType": "address",
							"name": "spender",
							"type": "address"
						},
						{
							"internalType": "uint256",
							"name": "amount",
							"type": "uint256"
						}
					],
					"name": "approve",
					"outputs": [
						{
							"internalType": "bool",
							"name": "",
							"type": "bool"
						}
					],
					"stateMutability": "nonpayable",
					"type": "function"
				},
				{
					"inputs": [
						{
							"internalType": "address",
							"name": "account",
							"type": "address"
						}
					],
					"name": "balanceOf",
					"outputs": [
						{
							"internalType": "uint256",
							"name": "",
							"type": "uint256"
						}
					],
					"stateMutability": "view",
					"type": "function"
				},
				{
					"inputs": [],
					"name": "decimals",
					"outputs": [
						{
							"internalType": "uint8",
							"name": "",
							"type": "uint8"
						}
					],
					"stateMutability": "view",
					"type": "function"
				},
				{
					"inputs": [
						{
							"internalType": "address",
							"name": "spender",
							"type": "address"
						},
						{
							"internalType": "uint256",
							"name": "subtractedValue",
							"type": "uint256"
						}
					],
					"name": "decreaseAllowance",
					"outputs": [
						{
							"internalType": "bool",
							"name": "",
							"type": "bool"
						}
					],
					"stateMutability": "nonpayable",
					"type": "function"
				},
				{
					"inputs": [
						{
							"internalType": "uint256",
							"name": "amount",
							"type": "uint256"
						}
					],
					"name": "distributeCAKEDividends",
					"outputs": [],
					"stateMutability": "nonpayable",
					"type": "function"
				},
				{
					"inputs": [
						{
							"internalType": "address",
							"name": "_owner",
							"type": "address"
						}
					],
					"name": "dividendOf",
					"outputs": [
						{
							"internalType": "uint256",
							"name": "",
							"type": "uint256"
						}
					],
					"stateMutability": "view",
					"type": "function"
				},
				{
					"inputs": [
						{
							"internalType": "address",
							"name": "spender",
							"type": "address"
						},
						{
							"internalType": "uint256",
							"name": "addedValue",
							"type": "uint256"
						}
					],
					"name": "increaseAllowance",
					"outputs": [
						{
							"internalType": "bool",
							"name": "",
							"type": "bool"
						}
					],
					"stateMutability": "nonpayable",
					"type": "function"
				},
				{
					"inputs": [],
					"name": "name",
					"outputs": [
						{
							"internalType": "string",
							"name": "",
							"type": "string"
						}
					],
					"stateMutability": "view",
					"type": "function"
				},
				{
					"inputs": [],
					"name": "owner",
					"outputs": [
						{
							"internalType": "address",
							"name": "",
							"type": "address"
						}
					],
					"stateMutability": "view",
					"type": "function"
				},
				{
					"inputs": [],
					"name": "renounceOwnership",
					"outputs": [],
					"stateMutability": "nonpayable",
					"type": "function"
				},
				{
					"inputs": [],
					"name": "symbol",
					"outputs": [
						{
							"internalType": "string",
							"name": "",
							"type": "string"
						}
					],
					"stateMutability": "view",
					"type": "function"
				},
				{
					"inputs": [],
					"name": "totalDividendsDistributed",
					"outputs": [
						{
							"internalType": "uint256",
							"name": "",
							"type": "uint256"
						}
					],
					"stateMutability": "view",
					"type": "function"
				},
				{
					"inputs": [],
					"name": "totalSupply",
					"outputs": [
						{
							"internalType": "uint256",
							"name": "",
							"type": "uint256"
						}
					],
					"stateMutability": "view",
					"type": "function"
				},
				{
					"inputs": [
						{
							"internalType": "address",
							"name": "recipient",
							"type": "address"
						},
						{
							"internalType": "uint256",
							"name": "amount",
							"type": "uint256"
						}
					],
					"name": "transfer",
					"outputs": [
						{
							"internalType": "bool",
							"name": "",
							"type": "bool"
						}
					],
					"stateMutability": "nonpayable",
					"type": "function"
				},
				{
					"inputs": [
						{
							"internalType": "address",
							"name": "sender",
							"type": "address"
						},
						{
							"internalType": "address",
							"name": "recipient",
							"type": "address"
						},
						{
							"internalType": "uint256",
							"name": "amount",
							"type": "uint256"
						}
					],
					"name": "transferFrom",
					"outputs": [
						{
							"internalType": "bool",
							"name": "",
							"type": "bool"
						}
					],
					"stateMutability": "nonpayable",
					"type": "function"
				},
				{
					"inputs": [
						{
							"internalType": "address",
							"name": "newOwner",
							"type": "address"
						}
					],
					"name": "transferOwnership",
					"outputs": [],
					"stateMutability": "nonpayable",
					"type": "function"
				},
				{
					"inputs": [],
					"name": "withdrawDividend",
					"outputs": [],
					"stateMutability": "nonpayable",
					"type": "function"
				},
				{
					"inputs": [
						{
							"internalType": "address",
							"name": "_owner",
							"type": "address"
						}
					],
					"name": "withdrawableDividendOf",
					"outputs": [
						{
							"internalType": "uint256",
							"name": "",
							"type": "uint256"
						}
					],
					"stateMutability": "view",
					"type": "function"
				},
				{
					"inputs": [
						{
							"internalType": "address",
							"name": "_owner",
							"type": "address"
						}
					],
					"name": "withdrawnDividendOf",
					"outputs": [
						{
							"internalType": "uint256",
							"name": "",
							"type": "uint256"
						}
					],
					"stateMutability": "view",
					"type": "function"
				}
			],
			"devdoc": {
				"author": "Roger Wu (https://github.com/roger-wu)",
				"details": "A mintable ERC20 token that allows anyone to pay and distribute ether  to token holders as dividends and allows token holders to withdraw their dividends.  Reference: the source code of PoWH3D: https://etherscan.io/address/0xB3775fB83F7D12A36E0475aBdD1FCA35c091efBe#code",
				"kind": "dev",
				"methods": {
					"accumulativeDividendOf(address)": {
						"details": "accumulativeDividendOf(_owner) = withdrawableDividendOf(_owner) + withdrawnDividendOf(_owner) = (magnifiedDividendPerShare * balanceOf(_owner) + magnifiedDividendCorrections[_owner]) / magnitude",
						"params": {
							"_owner": "The address of a token holder."
						},
						"returns": {
							"_0": "The amount of dividend in wei that `_owner` has earned in total."
						}
					},
					"allowance(address,address)": {
						"details": "See {IERC20-allowance}."
					},
					"approve(address,uint256)": {
						"details": "See {IERC20-approve}. Requirements: - `spender` cannot be the zero address."
					},
					"balanceOf(address)": {
						"details": "See {IERC20-balanceOf}."
					},
					"decimals()": {
						"details": "Returns the number of decimals used to get its user representation. For example, if `decimals` equals `2`, a balance of `505` tokens should be displayed to a user as `5,05` (`505 / 10 ** 2`). Tokens usually opt for a value of 18, imitating the relationship between Ether and Wei. This is the value {ERC20} uses, unless this function is overridden; NOTE: This information is only used for _display_ purposes: it in no way affects any of the arithmetic of the contract, including {IERC20-balanceOf} and {IERC20-transfer}."
					},
					"decreaseAllowance(address,uint256)": {
						"details": "Atomically decreases the allowance granted to `spender` by the caller. This is an alternative to {approve} that can be used as a mitigation for problems described in {IERC20-approve}. Emits an {Approval} event indicating the updated allowance. Requirements: - `spender` cannot be the zero address. - `spender` must have allowance for the caller of at least `subtractedValue`."
					},
					"dividendOf(address)": {
						"params": {
							"_owner": "The address of a token holder."
						},
						"returns": {
							"_0": "The amount of dividend in wei that `_owner` can withdraw."
						}
					},
					"increaseAllowance(address,uint256)": {
						"details": "Atomically increases the allowance granted to `spender` by the caller. This is an alternative to {approve} that can be used as a mitigation for problems described in {IERC20-approve}. Emits an {Approval} event indicating the updated allowance. Requirements: - `spender` cannot be the zero address."
					},
					"name()": {
						"details": "Returns the name of the token."
					},
					"owner()": {
						"details": "Returns the address of the current owner."
					},
					"renounceOwnership()": {
						"details": "Leaves the contract without owner. It will not be possible to call `onlyOwner` functions anymore. Can only be called by the current owner. NOTE: Renouncing ownership will leave the contract without an owner, thereby removing any functionality that is only available to the owner."
					},
					"symbol()": {
						"details": "Returns the symbol of the token, usually a shorter version of the name."
					},
					"totalSupply()": {
						"details": "See {IERC20-totalSupply}."
					},
					"transfer(address,uint256)": {
						"details": "See {IERC20-transfer}. Requirements: - `recipient` cannot be the zero address. - the caller must have a balance of at least `amount`."
					},
					"transferFrom(address,address,uint256)": {
						"details": "See {IERC20-transferFrom}. Emits an {Approval} event indicating the updated allowance. This is not required by the EIP. See the note at the beginning of {ERC20}. Requirements: - `sender` and `recipient` cannot be the zero address. - `sender` must have a balance of at least `amount`. - the caller must have allowance for ``sender``'s tokens of at least `amount`."
					},
					"transferOwnership(address)": {
						"details": "Transfers ownership of the contract to a new account (`newOwner`). Can only be called by the current owner."
					},
					"withdrawDividend()": {
						"details": "It emits a `DividendWithdrawn` event if the amount of withdrawn ether is greater than 0."
					},
					"withdrawableDividendOf(address)": {
						"params": {
							"_owner": "The address of a token holder."
						},
						"returns": {
							"_0": "The amount of dividend in wei that `_owner` can withdraw."
						}
					},
					"withdrawnDividendOf(address)": {
						"params": {
							"_owner": "The address of a token holder."
						},
						"returns": {
							"_0": "The amount of dividend in wei that `_owner` has withdrawn."
						}
					}
				},
				"title": "Dividend-Paying Token",
				"version": 1
			},
			"evm": {
				"assembly": "    /* \"DividendPayingToken.sol\":658:7951  contract DividendPayingToken is ERC20, Ownable, DividendPayingTokenInterface, DividendPayingTokenOptionalInterface {... */\n  mstore(0x40, 0xa0)\n    /* \"DividendPayingToken.sol\":1099:1182  address public immutable CAKE = address(0xB6076C93701D6a07266c31066B298AeC6dd65c2d) */\n  mstore(0x80, 0xb6076c93701d6a07266c31066b298aec6dd65c2d000000000000000000000000)\n    /* \"DividendPayingToken.sol\":2613:2704  constructor(string memory _name, string memory _symbol) public ERC20(_name, _symbol) {... */\n  callvalue\n  dup1\n  iszero\n  tag_1\n  jumpi\n  0x00\n  dup1\n  revert\ntag_1:\n  pop\n  mload(0x40)\n  sub(codesize, bytecodeSize)\n  dup1\n  bytecodeSize\n  dup4\n  codecopy\n  dup2\n  dup2\n  add\n  0x40\n  mstore\n  0x40\n  dup2\n  lt\n  iszero\n  tag_2\n  jumpi\n  0x00\n  dup1\n  revert\ntag_2:\n  dup2\n  add\n  swap1\n  dup1\n  dup1\n  mload\n  mload(0x40)\n  swap4\n  swap3\n  swap2\n  swap1\n  dup5\n  0x0100000000\n  dup3\n  gt\n  iszero\n  tag_3\n  jumpi\n  0x00\n  dup1\n  revert\ntag_3:\n  swap1\n  dup4\n  add\n  swap1\n  0x20\n  dup3\n  add\n  dup6\n  dup2\n  gt\n  iszero\n  tag_4\n  jumpi\n  0x00\n  dup1\n  revert\ntag_4:\n  dup3\n  mload\n  0x0100000000\n  dup2\n  gt\n  dup3\n  dup3\n  add\n  dup9\n  lt\n  or\n  iszero\n  tag_5\n  jumpi\n  0x00\n  dup1\n  revert\ntag_5:\n  dup3\n  mstore\n  pop\n  dup2\n  mload\n  0x20\n  swap2\n  dup3\n  add\n  swap3\n  swap1\n  swap2\n  add\n  swap1\n  dup1\n  dup4\n  dup4\n  0x00\ntag_6:\n  dup4\n  dup2\n  lt\n  iszero\n  tag_8\n  jumpi\n  dup2\n  dup2\n  add\n  mload\n  dup4\n  dup3\n  add\n  mstore\n  0x20\n  add\n  jump(tag_6)\ntag_8:\n  pop\n  pop\n  pop\n  pop\n  swap1\n  pop\n  swap1\n  dup2\n  add\n  swap1\n  0x1f\n  and\n  dup1\n  iszero\n  tag_9\n  jumpi\n  dup1\n  dup3\n  sub\n  dup1\n  mload\n  0x01\n  dup4\n  0x20\n  sub\n  0x0100\n  exp\n  sub\n  not\n  and\n  dup2\n  mstore\n  0x20\n  add\n  swap2\n  pop\ntag_9:\n  pop\n  0x40\n  mstore\n  0x20\n  add\n  dup1\n  mload\n  mload(0x40)\n  swap4\n  swap3\n  swap2\n  swap1\n  dup5\n  0x0100000000\n  dup3\n  gt\n  iszero\n  tag_10\n  jumpi\n  0x00\n  dup1\n  revert\ntag_10:\n  swap1\n  dup4\n  add\n  swap1\n  0x20\n  dup3\n  add\n  dup6\n  dup2\n  gt\n  iszero\n  tag_11\n  jumpi\n  0x00\n  dup1\n  revert\ntag_11:\n  dup3\n  mload\n  0x0100000000\n  dup2\n  gt\n  dup3\n  dup3\n  add\n  dup9\n  lt\n  or\n  iszero\n  tag_12\n  jumpi\n  0x00\n  dup1\n  revert\ntag_12:\n  dup3\n  mstore\n  pop\n  dup2\n  mload\n  0x20\n  swap2\n  dup3\n  add\n  swap3\n  swap1\n  swap2\n  add\n  swap1\n  dup1\n  dup4\n  dup4\n  0x00\ntag_13:\n  dup4\n  dup2\n  lt\n  iszero\n  tag_15\n  jumpi\n  dup2\n  dup2\n  add\n  mload\n  dup4\n  dup3\n  add\n  mstore\n  0x20\n  add\n  jump(tag_13)\ntag_15:\n  pop\n  pop\n  pop\n  pop\n  swap1\n  pop\n  swap1\n  dup2\n  add\n  swap1\n  0x1f\n  and\n  dup1\n  iszero\n  tag_16\n  jumpi\n  dup1\n  dup3\n  sub\n  dup1\n  mload\n  0x01\n  dup4\n  0x20\n  sub\n  0x0100\n  exp\n  sub\n  not\n  and\n  dup2\n  mstore\n  0x20\n  add\n  swap2\n  pop\ntag_16:\n  pop\n  0x40\n  mstore\n  pop\n  pop\n    /* \"ERC20.sol\":2006:2019  _name = name_ */\n  dup3\n  mload\n    /* \"DividendPayingToken.sol\":2682:2687  _name */\n  dup4\n  swap2\n  pop\n    /* \"DividendPayingToken.sol\":2689:2696  _symbol */\n  dup3\n  swap1\n    /* \"ERC20.sol\":2006:2019  _name = name_ */\n  tag_21\n  swap1\n    /* \"ERC20.sol\":2006:2011  _name */\n  0x03\n  swap1\n    /* \"ERC20.sol\":2006:2019  _name = name_ */\n  0x20\n  dup6\n  add\n  swap1\n  tag_22\n  jump\t// in\ntag_21:\n  pop\n    /* \"ERC20.sol\":2029:2046  _symbol = symbol_ */\n  dup1\n  mload\n  tag_23\n  swap1\n    /* \"ERC20.sol\":2029:2036  _symbol */\n  0x04\n  swap1\n    /* \"ERC20.sol\":2029:2046  _symbol = symbol_ */\n  0x20\n  dup5\n  add\n  swap1\n  tag_22\n  jump\t// in\ntag_23:\n  pop\n    /* \"ERC20.sol\":1933:2053  constructor(string memory name_, string memory symbol_) public {... */\n  pop\n  pop\n    /* \"Ownable.sol\":372:389  address msgSender */\n  0x00\n    /* \"Ownable.sol\":392:404  _msgSender() */\n  tag_25\n    /* \"Ownable.sol\":392:402  _msgSender */\n  shl(0x20, tag_26)\n    /* \"Ownable.sol\":392:404  _msgSender() */\n  0x20\n  shr\n  jump\t// in\ntag_25:\n    /* \"Ownable.sol\":414:420  _owner */\n  0x05\n    /* \"Ownable.sol\":414:432  _owner = msgSender */\n  dup1\n  sload\n  not(sub(shl(0xa0, 0x01), 0x01))\n  and\n  sub(shl(0xa0, 0x01), 0x01)\n  dup4\n  and\n  swap1\n  dup2\n  or\n  swap1\n  swap2\n  sstore\n    /* \"Ownable.sol\":447:490  OwnershipTransferred(address(0), msgSender) */\n  mload(0x40)\n    /* \"Ownable.sol\":414:432  _owner = msgSender */\n  swap2\n  swap3\n  pop\n  swap1\n  0x00\n  swap1\n    /* \"Ownable.sol\":447:490  OwnershipTransferred(address(0), msgSender) */\n  0x8be0079c531659141344cd1fd0a4f28419497f9722a3daafe3b4186f6b6457e0\n  swap1\n  dup3\n  swap1\n  log3\n    /* \"Ownable.sol\":340:497  constructor () public {... */\n  pop\n    /* \"DividendPayingToken.sol\":2613:2704  constructor(string memory _name, string memory _symbol) public ERC20(_name, _symbol) {... */\n  pop\n  pop\n    /* \"DividendPayingToken.sol\":658:7951  contract DividendPayingToken is ERC20, Ownable, DividendPayingTokenInterface, DividendPayingTokenOptionalInterface {... */\n  jump(tag_28)\n    /* \"Context.sol\":586:682  function _msgSender() internal view virtual returns (address) {... */\ntag_26:\n    /* \"Context.sol\":665:675  msg.sender */\n  caller\n    /* \"Context.sol\":586:682  function _msgSender() internal view virtual returns (address) {... */\n  swap1\n  jump\t// out\n    /* \"DividendPayingToken.sol\":658:7951  contract DividendPayingToken is ERC20, Ownable, DividendPayingTokenInterface, DividendPayingTokenOptionalInterface {... */\ntag_22:\n  dup3\n  dup1\n  sload\n  0x01\n  dup2\n  0x01\n  and\n  iszero\n  0x0100\n  mul\n  sub\n  and\n  0x02\n  swap1\n  div\n  swap1\n  0x00\n  mstore\n  keccak256(0x00, 0x20)\n  swap1\n  0x1f\n  add\n  0x20\n  swap1\n  div\n  dup2\n  add\n  swap3\n  dup3\n  0x1f\n  lt\n  tag_31\n  jumpi\n  dup1\n  mload\n  not(0xff)\n  and\n  dup4\n  dup1\n  add\n  or\n  dup6\n  sstore\n  jump(tag_33)\ntag_31:\n  dup3\n  dup1\n  add\n  0x01\n  add\n  dup6\n  sstore\n  dup3\n  iszero\n  tag_33\n  jumpi\n  swap2\n  dup3\n  add\ntag_32:\n  dup3\n  dup2\n  gt\n  iszero\n  tag_33\n  jumpi\n  dup3\n  mload\n  dup3\n  sstore\n  swap2\n  0x20\n  add\n  swap2\n  swap1\n  0x01\n  add\n  swap1\n  jump(tag_32)\ntag_33:\n  pop\n  tag_34\n  swap3\n  swap2\n  pop\n  tag_35\n  jump\t// in\ntag_34:\n  pop\n  swap1\n  jump\t// out\ntag_35:\ntag_36:\n  dup1\n  dup3\n  gt\n  iszero\n  tag_34\n  jumpi\n  0x00\n  dup2\n  sstore\n  0x01\n  add\n  jump(tag_36)\ntag_28:\n  shr(0x60, mload(0x80))\n  codecopy(0x00, dataOffset(sub_0), dataSize(sub_0))\n  assignImmutable(\"0x6590fa52fa76f967656340b874bc9ca09733c2fddea9886210ebcbbceee04b35\")\n  return(0x00, dataSize(sub_0))\nstop\n\nsub_0: assembly {\n        /* \"DividendPayingToken.sol\":658:7951  contract DividendPayingToken is ERC20, Ownable, DividendPayingTokenInterface, DividendPayingTokenOptionalInterface {... */\n      mstore(0x40, 0x80)\n      callvalue\n      dup1\n      iszero\n      tag_1\n      jumpi\n      0x00\n      dup1\n      revert\n    tag_1:\n      pop\n      jumpi(tag_2, lt(calldatasize, 0x04))\n      shr(0xe0, calldataload(0x00))\n      dup1\n      0x85a6b3ae\n      gt\n      tag_25\n      jumpi\n      dup1\n      0xa8b9d240\n      gt\n      tag_26\n      jumpi\n      dup1\n      0xa8b9d240\n      eq\n      tag_19\n      jumpi\n      dup1\n      0xa9059cbb\n      eq\n      tag_20\n      jumpi\n      dup1\n      0xaafd847a\n      eq\n      tag_21\n      jumpi\n      dup1\n      0xba72a955\n      eq\n      tag_22\n      jumpi\n      dup1\n      0xdd62ed3e\n      eq\n      tag_23\n      jumpi\n      dup1\n      0xf2fde38b\n      eq\n      tag_24\n      jumpi\n      jump(tag_2)\n    tag_26:\n      dup1\n      0x85a6b3ae\n      eq\n      tag_14\n      jumpi\n      dup1\n      0x8da5cb5b\n      eq\n      tag_15\n      jumpi\n      dup1\n      0x91b89fba\n      eq\n      tag_16\n      jumpi\n      dup1\n      0x95d89b41\n      eq\n      tag_17\n      jumpi\n      dup1\n      0xa457c2d7\n      eq\n      tag_18\n      jumpi\n      jump(tag_2)\n    tag_25:\n      dup1\n      0x313ce567\n      gt\n      tag_27\n      jumpi\n      dup1\n      0x313ce567\n      eq\n      tag_8\n      jumpi\n      dup1\n      0x39509351\n      eq\n      tag_9\n      jumpi\n      dup1\n      0x4ca6ef28\n      eq\n      tag_10\n      jumpi\n      dup1\n      0x6a474002\n      eq\n      tag_11\n      jumpi\n      dup1\n      0x70a08231\n      eq\n      tag_12\n      jumpi\n      dup1\n      0x715018a6\n      eq\n      tag_13\n      jumpi\n      jump(tag_2)\n    tag_27:\n      dup1\n      0x06fdde03\n      eq\n      tag_3\n      jumpi\n      dup1\n      0x095ea7b3\n      eq\n      tag_4\n      jumpi\n      dup1\n      0x18160ddd\n      eq\n      tag_5\n      jumpi\n      dup1\n      0x23b872dd\n      eq\n      tag_6\n      jumpi\n      dup1\n      0x27ce0147\n      eq\n      tag_7\n      jumpi\n    tag_2:\n      0x00\n      dup1\n      revert\n        /* \"ERC20.sol\":2118:2216  function name() public view virtual override returns (string memory) {... */\n    tag_3:\n      tag_28\n      tag_29\n      jump\t// in\n    tag_28:\n      0x40\n      dup1\n      mload\n      0x20\n      dup1\n      dup3\n      mstore\n      dup4\n      mload\n      dup2\n      dup4\n      add\n      mstore\n      dup4\n      mload\n      swap2\n      swap3\n      dup4\n      swap3\n      swap1\n      dup4\n      add\n      swap2\n      dup6\n      add\n      swap1\n      dup1\n      dup4\n      dup4\n      0x00\n    tag_30:\n      dup4\n      dup2\n      lt\n      iszero\n      tag_32\n      jumpi\n      dup2\n      dup2\n      add\n      mload\n      dup4\n      dup3\n      add\n      mstore\n      0x20\n      add\n      jump(tag_30)\n    tag_32:\n      pop\n      pop\n      pop\n      pop\n      swap1\n      pop\n      swap1\n      dup2\n      add\n      swap1\n      0x1f\n      and\n      dup1\n      iszero\n      tag_33\n      jumpi\n      dup1\n      dup3\n      sub\n      dup1\n      mload\n      0x01\n      dup4\n      0x20\n      sub\n      0x0100\n      exp\n      sub\n      not\n      and\n      dup2\n      mstore\n      0x20\n      add\n      swap2\n      pop\n    tag_33:\n      pop\n      swap3\n      pop\n      pop\n      pop\n      mload(0x40)\n      dup1\n      swap2\n      sub\n      swap1\n      return\n        /* \"ERC20.sol\":4215:4381  function approve(address spender, uint256 amount) public virtual override returns (bool) {... */\n    tag_4:\n      tag_34\n      0x04\n      dup1\n      calldatasize\n      sub\n      0x40\n      dup2\n      lt\n      iszero\n      tag_35\n      jumpi\n      0x00\n      dup1\n      revert\n    tag_35:\n      pop\n      sub(shl(0xa0, 0x01), 0x01)\n      dup2\n      calldataload\n      and\n      swap1\n      0x20\n      add\n      calldataload\n      tag_36\n      jump\t// in\n    tag_34:\n      0x40\n      dup1\n      mload\n      swap2\n      iszero\n      iszero\n      dup3\n      mstore\n      mload\n      swap1\n      dup2\n      swap1\n      sub\n      0x20\n      add\n      swap1\n      return\n        /* \"ERC20.sol\":3206:3312  function totalSupply() public view virtual override returns (uint256) {... */\n    tag_5:\n      tag_37\n      tag_38\n      jump\t// in\n    tag_37:\n      0x40\n      dup1\n      mload\n      swap2\n      dup3\n      mstore\n      mload\n      swap1\n      dup2\n      swap1\n      sub\n      0x20\n      add\n      swap1\n      return\n        /* \"ERC20.sol\":4848:5195  function transferFrom(... */\n    tag_6:\n      tag_34\n      0x04\n      dup1\n      calldatasize\n      sub\n      0x60\n      dup2\n      lt\n      iszero\n      tag_40\n      jumpi\n      0x00\n      dup1\n      revert\n    tag_40:\n      pop\n      sub(shl(0xa0, 0x01), 0x01)\n      dup2\n      calldataload\n      dup2\n      and\n      swap2\n      0x20\n      dup2\n      add\n      calldataload\n      swap1\n      swap2\n      and\n      swap1\n      0x40\n      add\n      calldataload\n      tag_41\n      jump\t// in\n        /* \"DividendPayingToken.sol\":5587:5831  function accumulativeDividendOf(address _owner) public view override returns(uint256) {... */\n    tag_7:\n      tag_37\n      0x04\n      dup1\n      calldatasize\n      sub\n      0x20\n      dup2\n      lt\n      iszero\n      tag_43\n      jumpi\n      0x00\n      dup1\n      revert\n    tag_43:\n      pop\n      calldataload\n      sub(shl(0xa0, 0x01), 0x01)\n      and\n      tag_44\n      jump\t// in\n        /* \"ERC20.sol\":3055:3146  function decimals() public view virtual override returns (uint8) {... */\n    tag_8:\n      tag_45\n      tag_46\n      jump\t// in\n    tag_45:\n      0x40\n      dup1\n      mload\n      0xff\n      swap1\n      swap3\n      and\n      dup3\n      mstore\n      mload\n      swap1\n      dup2\n      swap1\n      sub\n      0x20\n      add\n      swap1\n      return\n        /* \"ERC20.sol\":5590:5805  function increaseAllowance(address spender, uint256 addedValue) public virtual returns (bool) {... */\n    tag_9:\n      tag_34\n      0x04\n      dup1\n      calldatasize\n      sub\n      0x40\n      dup2\n      lt\n      iszero\n      tag_48\n      jumpi\n      0x00\n      dup1\n      revert\n    tag_48:\n      pop\n      sub(shl(0xa0, 0x01), 0x01)\n      dup2\n      calldataload\n      and\n      swap1\n      0x20\n      add\n      calldataload\n      tag_49\n      jump\t// in\n        /* \"DividendPayingToken.sol\":1099:1182  address public immutable CAKE = address(0xB6076C93701D6a07266c31066B298AeC6dd65c2d) */\n    tag_10:\n      tag_50\n      tag_51\n      jump\t// in\n    tag_50:\n      0x40\n      dup1\n      mload\n      sub(shl(0xa0, 0x01), 0x01)\n      swap1\n      swap3\n      and\n      dup3\n      mstore\n      mload\n      swap1\n      dup2\n      swap1\n      sub\n      0x20\n      add\n      swap1\n      return\n        /* \"DividendPayingToken.sol\":3254:3352  function withdrawDividend() public virtual override {... */\n    tag_11:\n      tag_52\n      tag_53\n      jump\t// in\n    tag_52:\n      stop\n        /* \"ERC20.sol\":3370:3495  function balanceOf(address account) public view virtual override returns (uint256) {... */\n    tag_12:\n      tag_37\n      0x04\n      dup1\n      calldatasize\n      sub\n      0x20\n      dup2\n      lt\n      iszero\n      tag_55\n      jumpi\n      0x00\n      dup1\n      revert\n    tag_55:\n      pop\n      calldataload\n      sub(shl(0xa0, 0x01), 0x01)\n      and\n      tag_56\n      jump\t// in\n        /* \"Ownable.sol\":1196:1341  function renounceOwnership() public virtual onlyOwner {... */\n    tag_13:\n      tag_52\n      tag_58\n      jump\t// in\n        /* \"DividendPayingToken.sol\":2568:2608  uint256 public totalDividendsDistributed */\n    tag_14:\n      tag_37\n      tag_60\n      jump\t// in\n        /* \"Ownable.sol\":573:650  function owner() public view returns (address) {... */\n    tag_15:\n      tag_50\n      tag_62\n      jump\t// in\n        /* \"DividendPayingToken.sol\":4325:4447  function dividendOf(address _owner) public view override returns(uint256) {... */\n    tag_16:\n      tag_37\n      0x04\n      dup1\n      calldatasize\n      sub\n      0x20\n      dup2\n      lt\n      iszero\n      tag_64\n      jumpi\n      0x00\n      dup1\n      revert\n    tag_64:\n      pop\n      calldataload\n      sub(shl(0xa0, 0x01), 0x01)\n      and\n      tag_65\n      jump\t// in\n        /* \"ERC20.sol\":2329:2431  function symbol() public view virtual override returns (string memory) {... */\n    tag_17:\n      tag_28\n      tag_67\n      jump\t// in\n        /* \"ERC20.sol\":6292:6558  function decreaseAllowance(address spender, uint256 subtractedValue) public virtual returns (bool) {... */\n    tag_18:\n      tag_34\n      0x04\n      dup1\n      calldatasize\n      sub\n      0x40\n      dup2\n      lt\n      iszero\n      tag_73\n      jumpi\n      0x00\n      dup1\n      revert\n    tag_73:\n      pop\n      sub(shl(0xa0, 0x01), 0x01)\n      dup2\n      calldataload\n      and\n      swap1\n      0x20\n      add\n      calldataload\n      tag_74\n      jump\t// in\n        /* \"DividendPayingToken.sol\":4653:4819  function withdrawableDividendOf(address _owner) public view override returns(uint256) {... */\n    tag_19:\n      tag_37\n      0x04\n      dup1\n      calldatasize\n      sub\n      0x20\n      dup2\n      lt\n      iszero\n      tag_76\n      jumpi\n      0x00\n      dup1\n      revert\n    tag_76:\n      pop\n      calldataload\n      sub(shl(0xa0, 0x01), 0x01)\n      and\n      tag_77\n      jump\t// in\n        /* \"ERC20.sol\":3698:3870  function transfer(address recipient, uint256 amount) public virtual override returns (bool) {... */\n    tag_20:\n      tag_34\n      0x04\n      dup1\n      calldatasize\n      sub\n      0x40\n      dup2\n      lt\n      iszero\n      tag_79\n      jumpi\n      0x00\n      dup1\n      revert\n    tag_79:\n      pop\n      sub(shl(0xa0, 0x01), 0x01)\n      dup2\n      calldataload\n      and\n      swap1\n      0x20\n      add\n      calldataload\n      tag_80\n      jump\t// in\n        /* \"DividendPayingToken.sol\":5027:5154  function withdrawnDividendOf(address _owner) public view override returns(uint256) {... */\n    tag_21:\n      tag_37\n      0x04\n      dup1\n      calldatasize\n      sub\n      0x20\n      dup2\n      lt\n      iszero\n      tag_82\n      jumpi\n      0x00\n      dup1\n      revert\n    tag_82:\n      pop\n      calldataload\n      sub(shl(0xa0, 0x01), 0x01)\n      and\n      tag_83\n      jump\t// in\n        /* \"DividendPayingToken.sol\":2709:3089  function distributeCAKEDividends(uint256 amount) public onlyOwner{... */\n    tag_22:\n      tag_52\n      0x04\n      dup1\n      calldatasize\n      sub\n      0x20\n      dup2\n      lt\n      iszero\n      tag_85\n      jumpi\n      0x00\n      dup1\n      revert\n    tag_85:\n      pop\n      calldataload\n      tag_86\n      jump\t// in\n        /* \"ERC20.sol\":3928:4077  function allowance(address owner, address spender) public view virtual override returns (uint256) {... */\n    tag_23:\n      tag_37\n      0x04\n      dup1\n      calldatasize\n      sub\n      0x40\n      dup2\n      lt\n      iszero\n      tag_88\n      jumpi\n      0x00\n      dup1\n      revert\n    tag_88:\n      pop\n      sub(shl(0xa0, 0x01), 0x01)\n      dup2\n      calldataload\n      dup2\n      and\n      swap2\n      0x20\n      add\n      calldataload\n      and\n      tag_89\n      jump\t// in\n        /* \"Ownable.sol\":1490:1730  function transferOwnership(address newOwner) public virtual onlyOwner {... */\n    tag_24:\n      tag_52\n      0x04\n      dup1\n      calldatasize\n      sub\n      0x20\n      dup2\n      lt\n      iszero\n      tag_91\n      jumpi\n      0x00\n      dup1\n      revert\n    tag_91:\n      pop\n      calldataload\n      sub(shl(0xa0, 0x01), 0x01)\n      and\n      tag_92\n      jump\t// in\n        /* \"ERC20.sol\":2118:2216  function name() public view virtual override returns (string memory) {... */\n    tag_29:\n        /* \"ERC20.sol\":2204:2209  _name */\n      0x03\n        /* \"ERC20.sol\":2197:2209  return _name */\n      dup1\n      sload\n      0x40\n      dup1\n      mload\n      0x20\n      0x1f\n      0x02\n      not(0x00)\n      0x0100\n      0x01\n      dup9\n      and\n      iszero\n      mul\n      add\n      swap1\n      swap6\n      and\n      swap5\n      swap1\n      swap5\n      div\n      swap4\n      dup5\n      add\n      dup2\n      swap1\n      div\n      dup2\n      mul\n      dup3\n      add\n      dup2\n      add\n      swap1\n      swap3\n      mstore\n      dup3\n      dup2\n      mstore\n        /* \"ERC20.sol\":2172:2185  string memory */\n      0x60\n      swap4\n        /* \"ERC20.sol\":2197:2209  return _name */\n      swap1\n      swap3\n        /* \"ERC20.sol\":2204:2209  _name */\n      swap1\n      swap2\n        /* \"ERC20.sol\":2197:2209  return _name */\n      dup4\n      add\n        /* \"ERC20.sol\":2204:2209  _name */\n      dup3\n        /* \"ERC20.sol\":2197:2209  return _name */\n      dup3\n      dup1\n      iszero\n      tag_94\n      jumpi\n      dup1\n      0x1f\n      lt\n      tag_95\n      jumpi\n      0x0100\n      dup1\n      dup4\n      sload\n      div\n      mul\n      dup4\n      mstore\n      swap2\n      0x20\n      add\n      swap2\n      jump(tag_94)\n    tag_95:\n      dup3\n      add\n      swap2\n      swap1\n      0x00\n      mstore\n      keccak256(0x00, 0x20)\n      swap1\n    tag_96:\n      dup2\n      sload\n      dup2\n      mstore\n      swap1\n      0x01\n      add\n      swap1\n      0x20\n      add\n      dup1\n      dup4\n      gt\n      tag_96\n      jumpi\n      dup3\n      swap1\n      sub\n      0x1f\n      and\n      dup3\n      add\n      swap2\n    tag_94:\n      pop\n      pop\n      pop\n      pop\n      pop\n      swap1\n      pop\n        /* \"ERC20.sol\":2118:2216  function name() public view virtual override returns (string memory) {... */\n      swap1\n      jump\t// out\n        /* \"ERC20.sol\":4215:4381  function approve(address spender, uint256 amount) public virtual override returns (bool) {... */\n    tag_36:\n        /* \"ERC20.sol\":4298:4302  bool */\n      0x00\n        /* \"ERC20.sol\":4314:4353  _approve(_msgSender(), spender, amount) */\n      tag_98\n        /* \"ERC20.sol\":4323:4335  _msgSender() */\n      tag_99\n        /* \"ERC20.sol\":4323:4333  _msgSender */\n      tag_100\n        /* \"ERC20.sol\":4323:4335  _msgSender() */\n      jump\t// in\n    tag_99:\n        /* \"ERC20.sol\":4337:4344  spender */\n      dup5\n        /* \"ERC20.sol\":4346:4352  amount */\n      dup5\n        /* \"ERC20.sol\":4314:4322  _approve */\n      tag_101\n        /* \"ERC20.sol\":4314:4353  _approve(_msgSender(), spender, amount) */\n      jump\t// in\n    tag_98:\n      pop\n        /* \"ERC20.sol\":4370:4374  true */\n      0x01\n        /* \"ERC20.sol\":4215:4381  function approve(address spender, uint256 amount) public virtual override returns (bool) {... */\n    tag_97:\n      swap3\n      swap2\n      pop\n      pop\n      jump\t// out\n        /* \"ERC20.sol\":3206:3312  function totalSupply() public view virtual override returns (uint256) {... */\n    tag_38:\n        /* \"ERC20.sol\":3293:3305  _totalSupply */\n      sload(0x02)\n        /* \"ERC20.sol\":3206:3312  function totalSupply() public view virtual override returns (uint256) {... */\n      swap1\n      jump\t// out\n        /* \"ERC20.sol\":4848:5195  function transferFrom(... */\n    tag_41:\n        /* \"ERC20.sol\":4984:4988  bool */\n      0x00\n        /* \"ERC20.sol\":5000:5036  _transfer(sender, recipient, amount) */\n      tag_104\n        /* \"ERC20.sol\":5010:5016  sender */\n      dup5\n        /* \"ERC20.sol\":5018:5027  recipient */\n      dup5\n        /* \"ERC20.sol\":5029:5035  amount */\n      dup5\n        /* \"ERC20.sol\":5000:5009  _transfer */\n      tag_2\n        /* \"ERC20.sol\":5000:5036  _transfer(sender, recipient, amount) */\n      jump\t// in\n    tag_104:\n        /* \"ERC20.sol\":5046:5167  _approve(sender, _msgSender(), _allowances[sender][_msgSender()].sub(amount, \"ERC20: transfer amount exceeds allowance\")) */\n      tag_106\n        /* \"ERC20.sol\":5055:5061  sender */\n      dup5\n        /* \"ERC20.sol\":5063:5075  _msgSender() */\n      tag_107\n        /* \"ERC20.sol\":5063:5073  _msgSender */\n      tag_100\n        /* \"ERC20.sol\":5063:5075  _msgSender() */\n      jump\t// in\n    tag_107:\n        /* \"ERC20.sol\":5077:5166  _allowances[sender][_msgSender()].sub(amount, \"ERC20: transfer amount exceeds allowance\") */\n      tag_108\n        /* \"ERC20.sol\":5115:5121  amount */\n      dup6\n        /* \"ERC20.sol\":5077:5166  _allowances[sender][_msgSender()].sub(amount, \"ERC20: transfer amount exceeds allowance\") */\n      mload(0x40)\n      dup1\n      0x60\n      add\n      0x40\n      mstore\n      dup1\n      0x28\n      dup2\n      mstore\n      0x20\n      add\n      data_974d1b4421da69cc60b481194f0dad36a5bb4e23da810da7a7fb30cdba178330\n      0x28\n      swap2\n      codecopy\n      sub(shl(0xa0, 0x01), 0x01)\n        /* \"ERC20.sol\":5077:5096  _allowances[sender] */\n      dup11\n      and\n      0x00\n      swap1\n      dup2\n      mstore\n        /* \"ERC20.sol\":5077:5088  _allowances */\n      0x01\n        /* \"ERC20.sol\":5077:5096  _allowances[sender] */\n      0x20\n      mstore\n      0x40\n      dup2\n      keccak256\n      swap1\n        /* \"ERC20.sol\":5097:5109  _msgSender() */\n      tag_109\n        /* \"ERC20.sol\":5097:5107  _msgSender */\n      tag_100\n        /* \"ERC20.sol\":5097:5109  _msgSender() */\n      jump\t// in\n    tag_109:\n      sub(shl(0xa0, 0x01), 0x01)\n        /* \"ERC20.sol\":5077:5110  _allowances[sender][_msgSender()] */\n      and\n      dup2\n      mstore\n      0x20\n      dup2\n      add\n      swap2\n      swap1\n      swap2\n      mstore\n      0x40\n      add\n      0x00\n      keccak256\n      sload\n      swap2\n        /* \"ERC20.sol\":5077:5166  _allowances[sender][_msgSender()].sub(amount, \"ERC20: transfer amount exceeds allowance\") */\n      swap1\n        /* \"ERC20.sol\":5077:5114  _allowances[sender][_msgSender()].sub */\n      tag_110\n        /* \"ERC20.sol\":5077:5166  _allowances[sender][_msgSender()].sub(amount, \"ERC20: transfer amount exceeds allowance\") */\n      jump\t// in\n    tag_108:\n        /* \"ERC20.sol\":5046:5054  _approve */\n      tag_101\n        /* \"ERC20.sol\":5046:5167  _approve(sender, _msgSender(), _allowances[sender][_msgSender()].sub(amount, \"ERC20: transfer amount exceeds allowance\")) */\n      jump\t// in\n    tag_106:\n      pop\n        /* \"ERC20.sol\":5184:5188  true */\n      0x01\n        /* \"ERC20.sol\":4848:5195  function transferFrom(... */\n      swap4\n      swap3\n      pop\n      pop\n      pop\n      jump\t// out\n        /* \"DividendPayingToken.sol\":5587:5831  function accumulativeDividendOf(address _owner) public view override returns(uint256) {... */\n    tag_44:\n      sub(shl(0xa0, 0x01), 0x01)\n        /* \"DividendPayingToken.sol\":5761:5797  magnifiedDividendCorrections[_owner] */\n      dup2\n      and\n        /* \"DividendPayingToken.sol\":5664:5671  uint256 */\n      0x00\n        /* \"DividendPayingToken.sol\":5761:5797  magnifiedDividendCorrections[_owner] */\n      swap1\n      dup2\n      mstore\n        /* \"DividendPayingToken.sol\":5761:5789  magnifiedDividendCorrections */\n      0x07\n        /* \"DividendPayingToken.sol\":5761:5797  magnifiedDividendCorrections[_owner] */\n      0x20\n      mstore\n      0x40\n      dup2\n      keccak256\n      sload\n      shl(0x80, 0x01)\n        /* \"DividendPayingToken.sol\":1492:1498  2**128 */\n      swap1\n        /* \"DividendPayingToken.sol\":5686:5814  magnifiedDividendPerShare.mul(balanceOf(_owner)).toInt256Safe()... */\n      tag_112\n      swap1\n        /* \"DividendPayingToken.sol\":5686:5798  magnifiedDividendPerShare.mul(balanceOf(_owner)).toInt256Safe()... */\n      tag_113\n      swap1\n        /* \"DividendPayingToken.sol\":5686:5749  magnifiedDividendPerShare.mul(balanceOf(_owner)).toInt256Safe() */\n      tag_114\n        /* \"DividendPayingToken.sol\":5686:5734  magnifiedDividendPerShare.mul(balanceOf(_owner)) */\n      tag_115\n        /* \"DividendPayingToken.sol\":5716:5733  balanceOf(_owner) */\n      tag_116\n        /* \"DividendPayingToken.sol\":5790:5796  _owner */\n      dup9\n        /* \"DividendPayingToken.sol\":5716:5725  balanceOf */\n      tag_56\n        /* \"DividendPayingToken.sol\":5716:5733  balanceOf(_owner) */\n      jump\t// in\n    tag_116:\n        /* \"DividendPayingToken.sol\":5686:5711  magnifiedDividendPerShare */\n      sload(0x06)\n      swap1\n        /* \"DividendPayingToken.sol\":5686:5715  magnifiedDividendPerShare.mul */\n      tag_117\n        /* \"DividendPayingToken.sol\":5686:5734  magnifiedDividendPerShare.mul(balanceOf(_owner)) */\n      jump\t// in\n    tag_115:\n        /* \"DividendPayingToken.sol\":5686:5747  magnifiedDividendPerShare.mul(balanceOf(_owner)).toInt256Safe */\n      tag_118\n        /* \"DividendPayingToken.sol\":5686:5749  magnifiedDividendPerShare.mul(balanceOf(_owner)).toInt256Safe() */\n      jump\t// in\n    tag_114:\n        /* \"DividendPayingToken.sol\":5686:5760  magnifiedDividendPerShare.mul(balanceOf(_owner)).toInt256Safe()... */\n      swap1\n      tag_119\n        /* \"DividendPayingToken.sol\":5686:5798  magnifiedDividendPerShare.mul(balanceOf(_owner)).toInt256Safe()... */\n      jump\t// in\n    tag_113:\n        /* \"DividendPayingToken.sol\":5686:5812  magnifiedDividendPerShare.mul(balanceOf(_owner)).toInt256Safe()... */\n      tag_120\n        /* \"DividendPayingToken.sol\":5686:5814  magnifiedDividendPerShare.mul(balanceOf(_owner)).toInt256Safe()... */\n      jump\t// in\n    tag_112:\n        /* \"DividendPayingToken.sol\":5686:5826  magnifiedDividendPerShare.mul(balanceOf(_owner)).toInt256Safe()... */\n      dup2\n      tag_121\n      jumpi\n      invalid\n    tag_121:\n      div\n        /* \"DividendPayingToken.sol\":5679:5826  return magnifiedDividendPerShare.mul(balanceOf(_owner)).toInt256Safe()... */\n      swap1\n      pop\n        /* \"DividendPayingToken.sol\":5587:5831  function accumulativeDividendOf(address _owner) public view override returns(uint256) {... */\n    tag_111:\n      swap2\n      swap1\n      pop\n      jump\t// out\n        /* \"ERC20.sol\":3055:3146  function decimals() public view virtual override returns (uint8) {... */\n    tag_46:\n        /* \"ERC20.sol\":3137:3139  18 */\n      0x12\n        /* \"ERC20.sol\":3055:3146  function decimals() public view virtual override returns (uint8) {... */\n      swap1\n      jump\t// out\n        /* \"ERC20.sol\":5590:5805  function increaseAllowance(address spender, uint256 addedValue) public virtual returns (bool) {... */\n    tag_49:\n        /* \"ERC20.sol\":5678:5682  bool */\n      0x00\n        /* \"ERC20.sol\":5694:5777  _approve(_msgSender(), spender, _allowances[_msgSender()][spender].add(addedValue)) */\n      tag_98\n        /* \"ERC20.sol\":5703:5715  _msgSender() */\n      tag_125\n        /* \"ERC20.sol\":5703:5713  _msgSender */\n      tag_100\n        /* \"ERC20.sol\":5703:5715  _msgSender() */\n      jump\t// in\n    tag_125:\n        /* \"ERC20.sol\":5717:5724  spender */\n      dup5\n        /* \"ERC20.sol\":5726:5776  _allowances[_msgSender()][spender].add(addedValue) */\n      tag_108\n        /* \"ERC20.sol\":5765:5775  addedValue */\n      dup6\n        /* \"ERC20.sol\":5726:5737  _allowances */\n      0x01\n        /* \"ERC20.sol\":5726:5751  _allowances[_msgSender()] */\n      0x00\n        /* \"ERC20.sol\":5738:5750  _msgSender() */\n      tag_127\n        /* \"ERC20.sol\":5738:5748  _msgSender */\n      tag_100\n        /* \"ERC20.sol\":5738:5750  _msgSender() */\n      jump\t// in\n    tag_127:\n      sub(shl(0xa0, 0x01), 0x01)\n        /* \"ERC20.sol\":5726:5751  _allowances[_msgSender()] */\n      swap1\n      dup2\n      and\n      dup3\n      mstore\n      0x20\n      dup1\n      dup4\n      add\n      swap4\n      swap1\n      swap4\n      mstore\n      0x40\n      swap2\n      dup3\n      add\n      0x00\n      swap1\n      dup2\n      keccak256\n        /* \"ERC20.sol\":5726:5760  _allowances[_msgSender()][spender] */\n      swap2\n      dup13\n      and\n      dup2\n      mstore\n      swap3\n      mstore\n      swap1\n      keccak256\n      sload\n      swap1\n        /* \"ERC20.sol\":5726:5764  _allowances[_msgSender()][spender].add */\n      tag_128\n        /* \"ERC20.sol\":5726:5776  _allowances[_msgSender()][spender].add(addedValue) */\n      jump\t// in\n        /* \"DividendPayingToken.sol\":1099:1182  address public immutable CAKE = address(0xB6076C93701D6a07266c31066B298AeC6dd65c2d) */\n    tag_51:\n      immutable(\"0x6590fa52fa76f967656340b874bc9ca09733c2fddea9886210ebcbbceee04b35\")\n      dup2\n      jump\t// out\n        /* \"DividendPayingToken.sol\":3254:3352  function withdrawDividend() public virtual override {... */\n    tag_53:\n        /* \"DividendPayingToken.sol\":3312:3347  _withdrawDividendOfUser(msg.sender) */\n      tag_130\n        /* \"DividendPayingToken.sol\":3336:3346  msg.sender */\n      caller\n        /* \"DividendPayingToken.sol\":3312:3335  _withdrawDividendOfUser */\n      tag_131\n        /* \"DividendPayingToken.sol\":3312:3347  _withdrawDividendOfUser(msg.sender) */\n      jump\t// in\n    tag_130:\n      pop\n        /* \"DividendPayingToken.sol\":3254:3352  function withdrawDividend() public virtual override {... */\n      jump\t// out\n        /* \"ERC20.sol\":3370:3495  function balanceOf(address account) public view virtual override returns (uint256) {... */\n    tag_56:\n      sub(shl(0xa0, 0x01), 0x01)\n        /* \"ERC20.sol\":3470:3488  _balances[account] */\n      and\n        /* \"ERC20.sol\":3444:3451  uint256 */\n      0x00\n        /* \"ERC20.sol\":3470:3488  _balances[account] */\n      swap1\n      dup2\n      mstore\n      0x20\n      dup2\n      swap1\n      mstore\n      0x40\n      swap1\n      keccak256\n      sload\n      swap1\n        /* \"ERC20.sol\":3370:3495  function balanceOf(address account) public view virtual override returns (uint256) {... */\n      jump\t// out\n        /* \"Ownable.sol\":1196:1341  function renounceOwnership() public virtual onlyOwner {... */\n    tag_58:\n        /* \"Ownable.sol\":787:799  _msgSender() */\n      tag_134\n        /* \"Ownable.sol\":787:797  _msgSender */\n      tag_100\n        /* \"Ownable.sol\":787:799  _msgSender() */\n      jump\t// in\n    tag_134:\n        /* \"Ownable.sol\":777:783  _owner */\n      sload(0x05)\n      sub(shl(0xa0, 0x01), 0x01)\n      swap1\n      dup2\n      and\n        /* \"Ownable.sol\":777:799  _owner == _msgSender() */\n      swap2\n      and\n      eq\n        /* \"Ownable.sol\":769:836  require(_owner == _msgSender(), \"Ownable: caller is not the owner\") */\n      tag_135\n      jumpi\n      0x40\n      dup1\n      mload\n      shl(0xe5, 0x461bcd)\n      dup2\n      mstore\n      0x20\n      0x04\n      dup3\n      add\n      dup2\n      swap1\n      mstore\n      0x24\n      dup3\n      add\n      mstore\n      0x4f776e61626c653a2063616c6c6572206973206e6f7420746865206f776e6572\n      0x44\n      dup3\n      add\n      mstore\n      swap1\n      mload\n      swap1\n      dup2\n      swap1\n      sub\n      0x64\n      add\n      swap1\n      revert\n    tag_135:\n        /* \"Ownable.sol\":1286:1292  _owner */\n      sload(0x05)\n        /* \"Ownable.sol\":1265:1305  OwnershipTransferred(_owner, address(0)) */\n      mload(0x40)\n        /* \"Ownable.sol\":1302:1303  0 */\n      0x00\n      swap2\n      sub(shl(0xa0, 0x01), 0x01)\n        /* \"Ownable.sol\":1286:1292  _owner */\n      and\n      swap1\n        /* \"Ownable.sol\":1265:1305  OwnershipTransferred(_owner, address(0)) */\n      0x8be0079c531659141344cd1fd0a4f28419497f9722a3daafe3b4186f6b6457e0\n      swap1\n        /* \"Ownable.sol\":1302:1303  0 */\n      dup4\n      swap1\n        /* \"Ownable.sol\":1265:1305  OwnershipTransferred(_owner, address(0)) */\n      log3\n        /* \"Ownable.sol\":1315:1321  _owner */\n      0x05\n        /* \"Ownable.sol\":1315:1334  _owner = address(0) */\n      dup1\n      sload\n      not(sub(shl(0xa0, 0x01), 0x01))\n      and\n      swap1\n      sstore\n        /* \"Ownable.sol\":1196:1341  function renounceOwnership() public virtual onlyOwner {... */\n      jump\t// out\n        /* \"DividendPayingToken.sol\":2568:2608  uint256 public totalDividendsDistributed */\n    tag_60:\n      sload(0x09)\n      dup2\n      jump\t// out\n        /* \"Ownable.sol\":573:650  function owner() public view returns (address) {... */\n    tag_62:\n        /* \"Ownable.sol\":637:643  _owner */\n      and(sub(shl(0xa0, 0x01), 0x01), sload(0x05))\n        /* \"Ownable.sol\":573:650  function owner() public view returns (address) {... */\n      swap1\n      jump\t// out\n        /* \"DividendPayingToken.sol\":4325:4447  function dividendOf(address _owner) public view override returns(uint256) {... */\n    tag_65:\n        /* \"DividendPayingToken.sol\":4390:4397  uint256 */\n      0x00\n        /* \"DividendPayingToken.sol\":4412:4442  withdrawableDividendOf(_owner) */\n      tag_97\n        /* \"DividendPayingToken.sol\":4435:4441  _owner */\n      dup3\n        /* \"DividendPayingToken.sol\":4412:4434  withdrawableDividendOf */\n      tag_77\n        /* \"DividendPayingToken.sol\":4412:4442  withdrawableDividendOf(_owner) */\n      jump\t// in\n        /* \"ERC20.sol\":2329:2431  function symbol() public view virtual override returns (string memory) {... */\n    tag_67:\n        /* \"ERC20.sol\":2417:2424  _symbol */\n      0x04\n        /* \"ERC20.sol\":2410:2424  return _symbol */\n      dup1\n      sload\n      0x40\n      dup1\n      mload\n      0x20\n      0x1f\n      0x02\n      not(0x00)\n      0x0100\n      0x01\n      dup9\n      and\n      iszero\n      mul\n      add\n      swap1\n      swap6\n      and\n      swap5\n      swap1\n      swap5\n      div\n      swap4\n      dup5\n      add\n      dup2\n      swap1\n      div\n      dup2\n      mul\n      dup3\n      add\n      dup2\n      add\n      swap1\n      swap3\n      mstore\n      dup3\n      dup2\n      mstore\n        /* \"ERC20.sol\":2385:2398  string memory */\n      0x60\n      swap4\n        /* \"ERC20.sol\":2410:2424  return _symbol */\n      swap1\n      swap3\n        /* \"ERC20.sol\":2417:2424  _symbol */\n      swap1\n      swap2\n        /* \"ERC20.sol\":2410:2424  return _symbol */\n      dup4\n      add\n        /* \"ERC20.sol\":2417:2424  _symbol */\n      dup3\n        /* \"ERC20.sol\":2410:2424  return _symbol */\n      dup3\n      dup1\n      iszero\n      tag_94\n      jumpi\n      dup1\n      0x1f\n      lt\n      tag_95\n      jumpi\n      0x0100\n      dup1\n      dup4\n      sload\n      div\n      mul\n      dup4\n      mstore\n      swap2\n      0x20\n      add\n      swap2\n      jump(tag_94)\n        /* \"ERC20.sol\":6292:6558  function decreaseAllowance(address spender, uint256 subtractedValue) public virtual returns (bool) {... */\n    tag_74:\n        /* \"ERC20.sol\":6385:6389  bool */\n      0x00\n        /* \"ERC20.sol\":6401:6530  _approve(_msgSender(), spender, _allowances[_msgSender()][spender].sub(subtractedValue, \"ERC20: decreased allowance below zero\")) */\n      tag_98\n        /* \"ERC20.sol\":6410:6422  _msgSender() */\n      tag_146\n        /* \"ERC20.sol\":6410:6420  _msgSender */\n      tag_100\n        /* \"ERC20.sol\":6410:6422  _msgSender() */\n      jump\t// in\n    tag_146:\n        /* \"ERC20.sol\":6424:6431  spender */\n      dup5\n        /* \"ERC20.sol\":6433:6529  _allowances[_msgSender()][spender].sub(subtractedValue, \"ERC20: decreased allowance below zero\") */\n      tag_108\n        /* \"ERC20.sol\":6472:6487  subtractedValue */\n      dup6\n        /* \"ERC20.sol\":6433:6529  _allowances[_msgSender()][spender].sub(subtractedValue, \"ERC20: decreased allowance below zero\") */\n      mload(0x40)\n      dup1\n      0x60\n      add\n      0x40\n      mstore\n      dup1\n      0x25\n      dup2\n      mstore\n      0x20\n      add\n      data_f8b476f7d28209d77d4a4ac1fe36b9f8259aa1bb6bddfa6e89de7e51615cf8a8\n      0x25\n      swap2\n      codecopy\n        /* \"ERC20.sol\":6433:6444  _allowances */\n      0x01\n        /* \"ERC20.sol\":6433:6458  _allowances[_msgSender()] */\n      0x00\n        /* \"ERC20.sol\":6445:6457  _msgSender() */\n      tag_148\n        /* \"ERC20.sol\":6445:6455  _msgSender */\n      tag_100\n        /* \"ERC20.sol\":6445:6457  _msgSender() */\n      jump\t// in\n    tag_148:\n      sub(shl(0xa0, 0x01), 0x01)\n        /* \"ERC20.sol\":6433:6458  _allowances[_msgSender()] */\n      swap1\n      dup2\n      and\n      dup3\n      mstore\n      0x20\n      dup1\n      dup4\n      add\n      swap4\n      swap1\n      swap4\n      mstore\n      0x40\n      swap2\n      dup3\n      add\n      0x00\n      swap1\n      dup2\n      keccak256\n        /* \"ERC20.sol\":6433:6467  _allowances[_msgSender()][spender] */\n      swap2\n      dup14\n      and\n      dup2\n      mstore\n      swap3\n      mstore\n      swap1\n      keccak256\n      sload\n      swap2\n        /* \"ERC20.sol\":6433:6529  _allowances[_msgSender()][spender].sub(subtractedValue, \"ERC20: decreased allowance below zero\") */\n      swap1\n        /* \"ERC20.sol\":6433:6471  _allowances[_msgSender()][spender].sub */\n      tag_110\n        /* \"ERC20.sol\":6433:6529  _allowances[_msgSender()][spender].sub(subtractedValue, \"ERC20: decreased allowance below zero\") */\n      jump\t// in\n        /* \"DividendPayingToken.sol\":4653:4819  function withdrawableDividendOf(address _owner) public view override returns(uint256) {... */\n    tag_77:\n      sub(shl(0xa0, 0x01), 0x01)\n        /* \"DividendPayingToken.sol\":4787:4813  withdrawnDividends[_owner] */\n      dup2\n      and\n        /* \"DividendPayingToken.sol\":4730:4737  uint256 */\n      0x00\n        /* \"DividendPayingToken.sol\":4787:4813  withdrawnDividends[_owner] */\n      swap1\n      dup2\n      mstore\n        /* \"DividendPayingToken.sol\":4787:4805  withdrawnDividends */\n      0x08\n        /* \"DividendPayingToken.sol\":4787:4813  withdrawnDividends[_owner] */\n      0x20\n      mstore\n      0x40\n      dup2\n      keccak256\n      sload\n        /* \"DividendPayingToken.sol\":4752:4814  accumulativeDividendOf(_owner).sub(withdrawnDividends[_owner]) */\n      tag_97\n      swap1\n        /* \"DividendPayingToken.sol\":4752:4782  accumulativeDividendOf(_owner) */\n      tag_151\n        /* \"DividendPayingToken.sol\":4806:4812  _owner */\n      dup5\n        /* \"DividendPayingToken.sol\":4752:4774  accumulativeDividendOf */\n      tag_44\n        /* \"DividendPayingToken.sol\":4752:4782  accumulativeDividendOf(_owner) */\n      jump\t// in\n    tag_151:\n        /* \"DividendPayingToken.sol\":4752:4786  accumulativeDividendOf(_owner).sub */\n      swap1\n      tag_152\n        /* \"DividendPayingToken.sol\":4752:4814  accumulativeDividendOf(_owner).sub(withdrawnDividends[_owner]) */\n      jump\t// in\n        /* \"ERC20.sol\":3698:3870  function transfer(address recipient, uint256 amount) public virtual override returns (bool) {... */\n    tag_80:\n        /* \"ERC20.sol\":3784:3788  bool */\n      0x00\n        /* \"ERC20.sol\":3800:3842  _transfer(_msgSender(), recipient, amount) */\n      tag_98\n        /* \"ERC20.sol\":3810:3822  _msgSender() */\n      tag_155\n        /* \"ERC20.sol\":3810:3820  _msgSender */\n      tag_100\n        /* \"ERC20.sol\":3810:3822  _msgSender() */\n      jump\t// in\n    tag_155:\n        /* \"ERC20.sol\":3824:3833  recipient */\n      dup5\n        /* \"ERC20.sol\":3835:3841  amount */\n      dup5\n        /* \"ERC20.sol\":3800:3809  _transfer */\n      tag_2\n        /* \"ERC20.sol\":3800:3842  _transfer(_msgSender(), recipient, amount) */\n      jump\t// in\n        /* \"DividendPayingToken.sol\":5027:5154  function withdrawnDividendOf(address _owner) public view override returns(uint256) {... */\n    tag_83:\n      sub(shl(0xa0, 0x01), 0x01)\n        /* \"DividendPayingToken.sol\":5123:5149  withdrawnDividends[_owner] */\n      and\n        /* \"DividendPayingToken.sol\":5101:5108  uint256 */\n      0x00\n        /* \"DividendPayingToken.sol\":5123:5149  withdrawnDividends[_owner] */\n      swap1\n      dup2\n      mstore\n        /* \"DividendPayingToken.sol\":5123:5141  withdrawnDividends */\n      0x08\n        /* \"DividendPayingToken.sol\":5123:5149  withdrawnDividends[_owner] */\n      0x20\n      mstore\n      0x40\n      swap1\n      keccak256\n      sload\n      swap1\n        /* \"DividendPayingToken.sol\":5027:5154  function withdrawnDividendOf(address _owner) public view override returns(uint256) {... */\n      jump\t// out\n        /* \"DividendPayingToken.sol\":2709:3089  function distributeCAKEDividends(uint256 amount) public onlyOwner{... */\n    tag_86:\n        /* \"Ownable.sol\":787:799  _msgSender() */\n      tag_158\n        /* \"Ownable.sol\":787:797  _msgSender */\n      tag_100\n        /* \"Ownable.sol\":787:799  _msgSender() */\n      jump\t// in\n    tag_158:\n        /* \"Ownable.sol\":777:783  _owner */\n      sload(0x05)\n      sub(shl(0xa0, 0x01), 0x01)\n      swap1\n      dup2\n      and\n        /* \"Ownable.sol\":777:799  _owner == _msgSender() */\n      swap2\n      and\n      eq\n        /* \"Ownable.sol\":769:836  require(_owner == _msgSender(), \"Ownable: caller is not the owner\") */\n      tag_159\n      jumpi\n      0x40\n      dup1\n      mload\n      shl(0xe5, 0x461bcd)\n      dup2\n      mstore\n      0x20\n      0x04\n      dup3\n      add\n      dup2\n      swap1\n      mstore\n      0x24\n      dup3\n      add\n      mstore\n      0x4f776e61626c653a2063616c6c6572206973206e6f7420746865206f776e6572\n      0x44\n      dup3\n      add\n      mstore\n      swap1\n      mload\n      swap1\n      dup2\n      swap1\n      sub\n      0x64\n      add\n      swap1\n      revert\n    tag_159:\n        /* \"DividendPayingToken.sol\":2804:2805  0 */\n      0x00\n        /* \"DividendPayingToken.sol\":2788:2801  totalSupply() */\n      tag_161\n        /* \"DividendPayingToken.sol\":2788:2799  totalSupply */\n      tag_38\n        /* \"DividendPayingToken.sol\":2788:2801  totalSupply() */\n      jump\t// in\n    tag_161:\n        /* \"DividendPayingToken.sol\":2788:2805  totalSupply() > 0 */\n      gt\n        /* \"DividendPayingToken.sol\":2780:2806  require(totalSupply() > 0) */\n      tag_162\n      jumpi\n      0x00\n      dup1\n      revert\n    tag_162:\n        /* \"DividendPayingToken.sol\":2817:2827  amount > 0 */\n      dup1\n      iszero\n        /* \"DividendPayingToken.sol\":2813:3085  if (amount > 0) {... */\n      tag_130\n      jumpi\n        /* \"DividendPayingToken.sol\":2865:2951  magnifiedDividendPerShare.add(... */\n      tag_164\n        /* \"DividendPayingToken.sol\":2930:2943  totalSupply() */\n      tag_165\n        /* \"DividendPayingToken.sol\":2930:2941  totalSupply */\n      tag_38\n        /* \"DividendPayingToken.sol\":2930:2943  totalSupply() */\n      jump\t// in\n    tag_165:\n        /* \"DividendPayingToken.sol\":2904:2927  (amount).mul(magnitude) */\n      tag_166\n        /* \"DividendPayingToken.sol\":2905:2911  amount */\n      dup4\n      shl(0x80, 0x01)\n        /* \"DividendPayingToken.sol\":2904:2916  (amount).mul */\n      tag_117\n        /* \"DividendPayingToken.sol\":2904:2927  (amount).mul(magnitude) */\n      jump\t// in\n    tag_166:\n        /* \"DividendPayingToken.sol\":2904:2943  (amount).mul(magnitude) / totalSupply() */\n      dup2\n      tag_167\n      jumpi\n      invalid\n    tag_167:\n        /* \"DividendPayingToken.sol\":2865:2890  magnifiedDividendPerShare */\n      sload(0x06)\n      swap2\n        /* \"DividendPayingToken.sol\":2904:2943  (amount).mul(magnitude) / totalSupply() */\n      swap1\n      div\n        /* \"DividendPayingToken.sol\":2865:2894  magnifiedDividendPerShare.add */\n      tag_128\n        /* \"DividendPayingToken.sol\":2865:2951  magnifiedDividendPerShare.add(... */\n      jump\t// in\n    tag_164:\n        /* \"DividendPayingToken.sol\":2837:2862  magnifiedDividendPerShare */\n      0x06\n        /* \"DividendPayingToken.sol\":2837:2951  magnifiedDividendPerShare = magnifiedDividendPerShare.add(... */\n      sstore\n        /* \"DividendPayingToken.sol\":2964:3004  DividendsDistributed(msg.sender, amount) */\n      0x40\n      dup1\n      mload\n      dup3\n      dup2\n      mstore\n      swap1\n      mload\n        /* \"DividendPayingToken.sol\":2985:2995  msg.sender */\n      caller\n      swap2\n        /* \"DividendPayingToken.sol\":2964:3004  DividendsDistributed(msg.sender, amount) */\n      0xa493a9229478c3fcd73f66d2cdeb7f94fd0f341da924d1054236d78454116511\n      swap2\n      swap1\n      dup2\n      swap1\n      sub\n      0x20\n      add\n      swap1\n      log2\n        /* \"DividendPayingToken.sol\":3041:3066  totalDividendsDistributed */\n      sload(0x09)\n        /* \"DividendPayingToken.sol\":3041:3078  totalDividendsDistributed.add(amount) */\n      tag_168\n      swap1\n        /* \"DividendPayingToken.sol\":3071:3077  amount */\n      dup3\n        /* \"DividendPayingToken.sol\":3041:3070  totalDividendsDistributed.add */\n      tag_128\n        /* \"DividendPayingToken.sol\":3041:3078  totalDividendsDistributed.add(amount) */\n      jump\t// in\n    tag_168:\n        /* \"DividendPayingToken.sol\":3013:3038  totalDividendsDistributed */\n      0x09\n        /* \"DividendPayingToken.sol\":3013:3078  totalDividendsDistributed = totalDividendsDistributed.add(amount) */\n      sstore\n        /* \"DividendPayingToken.sol\":2709:3089  function distributeCAKEDividends(uint256 amount) public onlyOwner{... */\n      pop\n      jump\t// out\n        /* \"ERC20.sol\":3928:4077  function allowance(address owner, address spender) public view virtual override returns (uint256) {... */\n    tag_89:\n      sub(shl(0xa0, 0x01), 0x01)\n        /* \"ERC20.sol\":4043:4061  _allowances[owner] */\n      swap2\n      dup3\n      and\n        /* \"ERC20.sol\":4017:4024  uint256 */\n      0x00\n        /* \"ERC20.sol\":4043:4061  _allowances[owner] */\n      swap1\n      dup2\n      mstore\n        /* \"ERC20.sol\":4043:4054  _allowances */\n      0x01\n        /* \"ERC20.sol\":4043:4061  _allowances[owner] */\n      0x20\n      swap1\n      dup2\n      mstore\n      0x40\n      dup1\n      dup4\n      keccak256\n        /* \"ERC20.sol\":4043:4070  _allowances[owner][spender] */\n      swap4\n      swap1\n      swap5\n      and\n      dup3\n      mstore\n      swap2\n      swap1\n      swap2\n      mstore\n      keccak256\n      sload\n      swap1\n        /* \"ERC20.sol\":3928:4077  function allowance(address owner, address spender) public view virtual override returns (uint256) {... */\n      jump\t// out\n        /* \"Ownable.sol\":1490:1730  function transferOwnership(address newOwner) public virtual onlyOwner {... */\n    tag_92:\n        /* \"Ownable.sol\":787:799  _msgSender() */\n      tag_171\n        /* \"Ownable.sol\":787:797  _msgSender */\n      tag_100\n        /* \"Ownable.sol\":787:799  _msgSender() */\n      jump\t// in\n    tag_171:\n        /* \"Ownable.sol\":777:783  _owner */\n      sload(0x05)\n      sub(shl(0xa0, 0x01), 0x01)\n      swap1\n      dup2\n      and\n        /* \"Ownable.sol\":777:799  _owner == _msgSender() */\n      swap2\n      and\n      eq\n        /* \"Ownable.sol\":769:836  require(_owner == _msgSender(), \"Ownable: caller is not the owner\") */\n      tag_172\n      jumpi\n      0x40\n      dup1\n      mload\n      shl(0xe5, 0x461bcd)\n      dup2\n      mstore\n      0x20\n      0x04\n      dup3\n      add\n      dup2\n      swap1\n      mstore\n      0x24\n      dup3\n      add\n      mstore\n      0x4f776e61626c653a2063616c6c6572206973206e6f7420746865206f776e6572\n      0x44\n      dup3\n      add\n      mstore\n      swap1\n      mload\n      swap1\n      dup2\n      swap1\n      sub\n      0x64\n      add\n      swap1\n      revert\n    tag_172:\n      sub(shl(0xa0, 0x01), 0x01)\n        /* \"Ownable.sol\":1578:1600  newOwner != address(0) */\n      dup2\n      and\n        /* \"Ownable.sol\":1570:1643  require(newOwner != address(0), \"Ownable: new owner is the zero address\") */\n      tag_174\n      jumpi\n      mload(0x40)\n      shl(0xe5, 0x461bcd)\n      dup2\n      mstore\n      0x04\n      add\n      dup1\n      dup1\n      0x20\n      add\n      dup3\n      dup2\n      sub\n      dup3\n      mstore\n      0x26\n      dup2\n      mstore\n      0x20\n      add\n      dup1\n      data_245f15ff17f551913a7a18385165551503906a406f905ac1c2437281a7cd0cfe\n      0x26\n      swap2\n      codecopy\n      0x40\n      add\n      swap2\n      pop\n      pop\n      mload(0x40)\n      dup1\n      swap2\n      sub\n      swap1\n      revert\n    tag_174:\n        /* \"Ownable.sol\":1679:1685  _owner */\n      sload(0x05)\n        /* \"Ownable.sol\":1658:1696  OwnershipTransferred(_owner, newOwner) */\n      mload(0x40)\n      sub(shl(0xa0, 0x01), 0x01)\n      dup1\n      dup5\n      and\n      swap3\n        /* \"Ownable.sol\":1679:1685  _owner */\n      and\n      swap1\n        /* \"Ownable.sol\":1658:1696  OwnershipTransferred(_owner, newOwner) */\n      0x8be0079c531659141344cd1fd0a4f28419497f9722a3daafe3b4186f6b6457e0\n      swap1\n        /* \"Ownable.sol\":1679:1685  _owner */\n      0x00\n      swap1\n        /* \"Ownable.sol\":1658:1696  OwnershipTransferred(_owner, newOwner) */\n      log3\n        /* \"Ownable.sol\":1706:1712  _owner */\n      0x05\n        /* \"Ownable.sol\":1706:1723  _owner = newOwner */\n      dup1\n      sload\n      not(sub(shl(0xa0, 0x01), 0x01))\n      and\n      sub(shl(0xa0, 0x01), 0x01)\n      swap3\n      swap1\n      swap3\n      and\n      swap2\n      swap1\n      swap2\n      or\n      swap1\n      sstore\n        /* \"Ownable.sol\":1490:1730  function transferOwnership(address newOwner) public virtual onlyOwner {... */\n      jump\t// out\n        /* \"Context.sol\":586:682  function _msgSender() internal view virtual returns (address) {... */\n    tag_100:\n        /* \"Context.sol\":665:675  msg.sender */\n      caller\n        /* \"Context.sol\":586:682  function _msgSender() internal view virtual returns (address) {... */\n      swap1\n      jump\t// out\n        /* \"ERC20.sol\":9391:9761  function _approve(... */\n    tag_101:\n      sub(shl(0xa0, 0x01), 0x01)\n        /* \"ERC20.sol\":9522:9541  owner != address(0) */\n      dup4\n      and\n        /* \"ERC20.sol\":9514:9582  require(owner != address(0), \"ERC20: approve from the zero address\") */\n      tag_177\n      jumpi\n      mload(0x40)\n      shl(0xe5, 0x461bcd)\n      dup2\n      mstore\n      0x04\n      add\n      dup1\n      dup1\n      0x20\n      add\n      dup3\n      dup2\n      sub\n      dup3\n      mstore\n      0x24\n      dup2\n      mstore\n      0x20\n      add\n      dup1\n      data_c953f4879035ed60e766b34720f656aab5c697b141d924c283124ecedb91c208\n      0x24\n      swap2\n      codecopy\n      0x40\n      add\n      swap2\n      pop\n      pop\n      mload(0x40)\n      dup1\n      swap2\n      sub\n      swap1\n      revert\n    tag_177:\n      sub(shl(0xa0, 0x01), 0x01)\n        /* \"ERC20.sol\":9600:9621  spender != address(0) */\n      dup3\n      and\n        /* \"ERC20.sol\":9592:9660  require(spender != address(0), \"ERC20: approve to the zero address\") */\n      tag_178\n      jumpi\n      mload(0x40)\n      shl(0xe5, 0x461bcd)\n      dup2\n      mstore\n      0x04\n      add\n      dup1\n      dup1\n      0x20\n      add\n      dup3\n      dup2\n      sub\n      dup3\n      mstore\n      0x22\n      dup2\n      mstore\n      0x20\n      add\n      dup1\n      data_24883cc5fe64ace9d0df1893501ecb93c77180f0ff69cca79affb3c316dc8029\n      0x22\n      swap2\n      codecopy\n      0x40\n      add\n      swap2\n      pop\n      pop\n      mload(0x40)\n      dup1\n      swap2\n      sub\n      swap1\n      revert\n    tag_178:\n      sub(shl(0xa0, 0x01), 0x01)\n        /* \"ERC20.sol\":9671:9689  _allowances[owner] */\n      dup1\n      dup5\n      and\n      0x00\n      dup2\n      dup2\n      mstore\n        /* \"ERC20.sol\":9671:9682  _allowances */\n      0x01\n        /* \"ERC20.sol\":9671:9689  _allowances[owner] */\n      0x20\n      swap1\n      dup2\n      mstore\n      0x40\n      dup1\n      dup4\n      keccak256\n        /* \"ERC20.sol\":9671:9698  _allowances[owner][spender] */\n      swap5\n      dup8\n      and\n      dup1\n      dup5\n      mstore\n      swap5\n      dup3\n      mstore\n      swap2\n      dup3\n      swap1\n      keccak256\n        /* \"ERC20.sol\":9671:9707  _allowances[owner][spender] = amount */\n      dup6\n      swap1\n      sstore\n        /* \"ERC20.sol\":9722:9754  Approval(owner, spender, amount) */\n      dup2\n      mload\n      dup6\n      dup2\n      mstore\n      swap2\n      mload\n      0x8c5be1e5ebec7d5bd14f71427d1e84f3dd0314c0f7b2291e5b200ac8c7c3b925\n      swap3\n      dup2\n      swap1\n      sub\n      swap1\n      swap2\n      add\n      swap1\n      log3\n        /* \"ERC20.sol\":9391:9761  function _approve(... */\n      pop\n      pop\n      pop\n      jump\t// out\n        /* \"SafeMath.sol\":1182:1369  function sub(uint256 a, uint256 b, string memory errorMessage) internal pure returns (uint256) {... */\n    tag_110:\n        /* \"SafeMath.sol\":1268:1275  uint256 */\n      0x00\n        /* \"SafeMath.sol\":1303:1315  errorMessage */\n      dup2\n        /* \"SafeMath.sol\":1295:1301  b <= a */\n      dup5\n      dup5\n      gt\n      iszero\n        /* \"SafeMath.sol\":1287:1316  require(b <= a, errorMessage) */\n      tag_187\n      jumpi\n      mload(0x40)\n      shl(0xe5, 0x461bcd)\n      dup2\n      mstore\n      0x04\n      add\n      dup1\n      dup1\n      0x20\n      add\n      dup3\n      dup2\n      sub\n      dup3\n      mstore\n      dup4\n      dup2\n      dup2\n      mload\n      dup2\n      mstore\n      0x20\n      add\n      swap2\n      pop\n      dup1\n      mload\n      swap1\n      0x20\n      add\n      swap1\n      dup1\n      dup4\n      dup4\n      0x00\n    tag_188:\n      dup4\n      dup2\n      lt\n      iszero\n      tag_190\n      jumpi\n      dup2\n      dup2\n      add\n      mload\n      dup4\n      dup3\n      add\n      mstore\n      0x20\n      add\n      jump(tag_188)\n    tag_190:\n      pop\n      pop\n      pop\n      pop\n      swap1\n      pop\n      swap1\n      dup2\n      add\n      swap1\n      0x1f\n      and\n      dup1\n      iszero\n      tag_191\n      jumpi\n      dup1\n      dup3\n      sub\n      dup1\n      mload\n      0x01\n      dup4\n      0x20\n      sub\n      0x0100\n      exp\n      sub\n      not\n      and\n      dup2\n      mstore\n      0x20\n      add\n      swap2\n      pop\n    tag_191:\n      pop\n      swap3\n      pop\n      pop\n      pop\n      mload(0x40)\n      dup1\n      swap2\n      sub\n      swap1\n      revert\n    tag_187:\n      pop\n      pop\n      pop\n        /* \"SafeMath.sol\":1338:1343  a - b */\n      swap1\n      sub\n      swap1\n        /* \"SafeMath.sol\":1182:1369  function sub(uint256 a, uint256 b, string memory errorMessage) internal pure returns (uint256) {... */\n      jump\t// out\n        /* \"SafeMath.sol\":1616:2075  function mul(uint256 a, uint256 b) internal pure returns (uint256) {... */\n    tag_117:\n        /* \"SafeMath.sol\":1674:1681  uint256 */\n      0x00\n        /* \"SafeMath.sol\":1915:1921  a == 0 */\n      dup3\n        /* \"SafeMath.sol\":1911:1956  if (a == 0) {... */\n      tag_193\n      jumpi\n      pop\n        /* \"SafeMath.sol\":1944:1945  0 */\n      0x00\n        /* \"SafeMath.sol\":1937:1945  return 0 */\n      jump(tag_97)\n        /* \"SafeMath.sol\":1911:1956  if (a == 0) {... */\n    tag_193:\n        /* \"SafeMath.sol\":1978:1983  a * b */\n      dup3\n      dup3\n      mul\n        /* \"SafeMath.sol\":1982:1983  b */\n      dup3\n        /* \"SafeMath.sol\":1978:1979  a */\n      dup5\n        /* \"SafeMath.sol\":1978:1983  a * b */\n      dup3\n        /* \"SafeMath.sol\":1978:1979  a */\n      dup2\n        /* \"SafeMath.sol\":2001:2006  c / a */\n      tag_194\n      jumpi\n      invalid\n    tag_194:\n      div\n        /* \"SafeMath.sol\":2001:2011  c / a == b */\n      eq\n        /* \"SafeMath.sol\":1993:2049  require(c / a == b, \"SafeMath: multiplication overflow\") */\n      tag_195\n      jumpi\n      mload(0x40)\n      shl(0xe5, 0x461bcd)\n      dup2\n      mstore\n      0x04\n      add\n      dup1\n      dup1\n      0x20\n      add\n      dup3\n      dup2\n      sub\n      dup3\n      mstore\n      0x21\n      dup2\n      mstore\n      0x20\n      add\n      dup1\n      data_9113bb53c2876a3805b2c9242029423fc540a728243ce887ab24c82cf119fba3\n      0x21\n      swap2\n      codecopy\n      0x40\n      add\n      swap2\n      pop\n      pop\n      mload(0x40)\n      dup1\n      swap2\n      sub\n      swap1\n      revert\n    tag_195:\n        /* \"SafeMath.sol\":2067:2068  c */\n      swap4\n        /* \"SafeMath.sol\":1616:2075  function mul(uint256 a, uint256 b) internal pure returns (uint256) {... */\n      swap3\n      pop\n      pop\n      pop\n      jump\t// out\n        /* \"SafeMathUint.sol\":178:308  function toInt256Safe(uint256 a) internal pure returns (int256) {... */\n    tag_118:\n        /* \"SafeMathUint.sol\":234:240  int256 */\n      0x00\n        /* \"SafeMathUint.sol\":266:267  a */\n      dup2\n        /* \"SafeMathUint.sol\":282:288  b >= 0 */\n      dup2\n      dup2\n      slt\n      iszero\n        /* \"SafeMathUint.sol\":274:289  require(b >= 0) */\n      tag_97\n      jumpi\n      0x00\n      dup1\n      revert\n        /* \"SafeMathInt.sol\":2478:2650  function add(int256 a, int256 b) internal pure returns (int256) {... */\n    tag_119:\n        /* \"SafeMathInt.sol\":2534:2540  int256 */\n      0x00\n        /* \"SafeMathInt.sol\":2563:2568  a + b */\n      dup3\n      dup3\n      add\n        /* \"SafeMathInt.sol\":2587:2593  b >= 0 */\n      dup2\n      dup4\n      slt\n      dup1\n      iszero\n      swap1\n        /* \"SafeMathInt.sol\":2587:2603  b >= 0 && c >= a */\n      tag_199\n      jumpi\n      pop\n        /* \"SafeMathInt.sol\":2602:2603  a */\n      dup4\n        /* \"SafeMathInt.sol\":2597:2598  c */\n      dup2\n        /* \"SafeMathInt.sol\":2597:2603  c >= a */\n      slt\n      iszero\n        /* \"SafeMathInt.sol\":2587:2603  b >= 0 && c >= a */\n    tag_199:\n        /* \"SafeMathInt.sol\":2586:2624  (b >= 0 && c >= a) || (b < 0 && c < a) */\n      dup1\n      tag_201\n      jumpi\n      pop\n        /* \"SafeMathInt.sol\":2613:2614  0 */\n      0x00\n        /* \"SafeMathInt.sol\":2609:2610  b */\n      dup4\n        /* \"SafeMathInt.sol\":2609:2614  b < 0 */\n      slt\n        /* \"SafeMathInt.sol\":2609:2623  b < 0 && c < a */\n      dup1\n      iszero\n      tag_201\n      jumpi\n      pop\n        /* \"SafeMathInt.sol\":2622:2623  a */\n      dup4\n        /* \"SafeMathInt.sol\":2618:2619  c */\n      dup2\n        /* \"SafeMathInt.sol\":2618:2623  c < a */\n      slt\n        /* \"SafeMathInt.sol\":2609:2623  b < 0 && c < a */\n    tag_201:\n        /* \"SafeMathInt.sol\":2578:2625  require((b >= 0 && c >= a) || (b < 0 && c < a)) */\n      tag_195\n      jumpi\n      0x00\n      dup1\n      revert\n        /* \"SafeMathInt.sol\":2868:2992  function toUint256Safe(int256 a) internal pure returns (uint256) {... */\n    tag_120:\n        /* \"SafeMathInt.sol\":2924:2931  uint256 */\n      0x00\n        /* \"SafeMathInt.sol\":2956:2957  0 */\n      dup1\n        /* \"SafeMathInt.sol\":2951:2952  a */\n      dup3\n        /* \"SafeMathInt.sol\":2951:2957  a >= 0 */\n      slt\n      iszero\n        /* \"SafeMathInt.sol\":2943:2958  require(a >= 0) */\n      tag_204\n      jumpi\n      0x00\n      dup1\n      revert\n    tag_204:\n      pop\n        /* \"SafeMathInt.sol\":2983:2984  a */\n      swap1\n        /* \"SafeMathInt.sol\":2868:2992  function toUint256Safe(int256 a) internal pure returns (uint256) {... */\n      jump\t// out\n        /* \"SafeMath.sol\":310:486  function add(uint256 a, uint256 b) internal pure returns (uint256) {... */\n    tag_128:\n        /* \"SafeMath.sol\":368:375  uint256 */\n      0x00\n        /* \"SafeMath.sol\":399:404  a + b */\n      dup3\n      dup3\n      add\n        /* \"SafeMath.sol\":422:428  c >= a */\n      dup4\n      dup2\n      lt\n      iszero\n        /* \"SafeMath.sol\":414:460  require(c >= a, \"SafeMath: addition overflow\") */\n      tag_195\n      jumpi\n      0x40\n      dup1\n      mload\n      shl(0xe5, 0x461bcd)\n      dup2\n      mstore\n      0x20\n      0x04\n      dup3\n      add\n      mstore\n      0x1b\n      0x24\n      dup3\n      add\n      mstore\n      0x536166654d6174683a206164646974696f6e206f766572666c6f770000000000\n      0x44\n      dup3\n      add\n      mstore\n      swap1\n      mload\n      swap1\n      dup2\n      swap1\n      sub\n      0x64\n      add\n      swap1\n      revert\n        /* \"DividendPayingToken.sol\":3516:4118  function _withdrawDividendOfUser(address payable user) internal returns (uint256) {... */\n    tag_131:\n        /* \"DividendPayingToken.sol\":3589:3596  uint256 */\n      0x00\n        /* \"DividendPayingToken.sol\":3604:3633  uint256 _withdrawableDividend */\n      dup1\n        /* \"DividendPayingToken.sol\":3636:3664  withdrawableDividendOf(user) */\n      tag_208\n        /* \"DividendPayingToken.sol\":3659:3663  user */\n      dup4\n        /* \"DividendPayingToken.sol\":3636:3658  withdrawableDividendOf */\n      tag_77\n        /* \"DividendPayingToken.sol\":3636:3664  withdrawableDividendOf(user) */\n      jump\t// in\n    tag_208:\n        /* \"DividendPayingToken.sol\":3604:3664  uint256 _withdrawableDividend = withdrawableDividendOf(user) */\n      swap1\n      pop\n        /* \"DividendPayingToken.sol\":3674:3699  _withdrawableDividend > 0 */\n      dup1\n      iszero\n        /* \"DividendPayingToken.sol\":3670:4099  if (_withdrawableDividend > 0) {... */\n      tag_209\n      jumpi\n      sub(shl(0xa0, 0x01), 0x01)\n        /* \"DividendPayingToken.sol\":3736:3760  withdrawnDividends[user] */\n      dup4\n      and\n      0x00\n      swap1\n      dup2\n      mstore\n        /* \"DividendPayingToken.sol\":3736:3754  withdrawnDividends */\n      0x08\n        /* \"DividendPayingToken.sol\":3736:3760  withdrawnDividends[user] */\n      0x20\n      mstore\n      0x40\n      swap1\n      keccak256\n      sload\n        /* \"DividendPayingToken.sol\":3736:3787  withdrawnDividends[user].add(_withdrawableDividend) */\n      tag_210\n      swap1\n        /* \"DividendPayingToken.sol\":3765:3786  _withdrawableDividend */\n      dup3\n        /* \"DividendPayingToken.sol\":3736:3764  withdrawnDividends[user].add */\n      tag_128\n        /* \"DividendPayingToken.sol\":3736:3787  withdrawnDividends[user].add(_withdrawableDividend) */\n      jump\t// in\n    tag_210:\n      sub(shl(0xa0, 0x01), 0x01)\n        /* \"DividendPayingToken.sol\":3709:3733  withdrawnDividends[user] */\n      dup5\n      and\n      0x00\n      dup2\n      dup2\n      mstore\n        /* \"DividendPayingToken.sol\":3709:3727  withdrawnDividends */\n      0x08\n        /* \"DividendPayingToken.sol\":3709:3733  withdrawnDividends[user] */\n      0x20\n      swap1\n      dup2\n      mstore\n      0x40\n      swap2\n      dup3\n      swap1\n      keccak256\n        /* \"DividendPayingToken.sol\":3709:3787  withdrawnDividends[user] = withdrawnDividends[user].add(_withdrawableDividend) */\n      swap4\n      swap1\n      swap4\n      sstore\n        /* \"DividendPayingToken.sol\":3800:3846  DividendWithdrawn(user, _withdrawableDividend) */\n      dup1\n      mload\n      dup5\n      dup2\n      mstore\n      swap1\n      mload\n        /* \"DividendPayingToken.sol\":3709:3733  withdrawnDividends[user] */\n      swap2\n      swap3\n        /* \"DividendPayingToken.sol\":3800:3846  DividendWithdrawn(user, _withdrawableDividend) */\n      0xee503bee2bb6a87e57bc57db795f98137327401a0e7b7ce42e37926cc1a9ca4d\n      swap3\n      swap2\n      dup3\n      swap1\n      sub\n      add\n      swap1\n      log2\n        /* \"DividendPayingToken.sol\":3854:3866  bool success */\n      0x00\n        /* \"DividendPayingToken.sol\":3876:3880  CAKE */\n      immutable(\"0x6590fa52fa76f967656340b874bc9ca09733c2fddea9886210ebcbbceee04b35\")\n      sub(shl(0xa0, 0x01), 0x01)\n        /* \"DividendPayingToken.sol\":3869:3890  IERC20(CAKE).transfer */\n      and\n      0xa9059cbb\n        /* \"DividendPayingToken.sol\":3891:3895  user */\n      dup6\n        /* \"DividendPayingToken.sol\":3897:3918  _withdrawableDividend */\n      dup5\n        /* \"DividendPayingToken.sol\":3869:3919  IERC20(CAKE).transfer(user, _withdrawableDividend) */\n      mload(0x40)\n      dup4\n      0xffffffff\n      and\n      0xe0\n      shl\n      dup2\n      mstore\n      0x04\n      add\n      dup1\n      dup4\n      sub(shl(0xa0, 0x01), 0x01)\n      and\n      dup2\n      mstore\n      0x20\n      add\n      dup3\n      dup2\n      mstore\n      0x20\n      add\n      swap3\n      pop\n      pop\n      pop\n      0x20\n      mload(0x40)\n      dup1\n      dup4\n      sub\n      dup2\n      0x00\n      dup8\n      dup1\n      extcodesize\n      iszero\n      dup1\n      iszero\n      tag_211\n      jumpi\n      0x00\n      dup1\n      revert\n    tag_211:\n      pop\n      gas\n      call\n      iszero\n      dup1\n      iszero\n      tag_213\n      jumpi\n      returndatasize\n      0x00\n      dup1\n      returndatacopy\n      revert(0x00, returndatasize)\n    tag_213:\n      pop\n      pop\n      pop\n      pop\n      mload(0x40)\n      returndatasize\n      0x20\n      dup2\n      lt\n      iszero\n      tag_214\n      jumpi\n      0x00\n      dup1\n      revert\n    tag_214:\n      pop\n      mload\n      swap1\n      pop\n      dup1\n        /* \"DividendPayingToken.sol\":3928:4056  if(!success) {... */\n      tag_215\n      jumpi\n      sub(shl(0xa0, 0x01), 0x01)\n        /* \"DividendPayingToken.sol\":3978:4002  withdrawnDividends[user] */\n      dup5\n      and\n      0x00\n      swap1\n      dup2\n      mstore\n        /* \"DividendPayingToken.sol\":3978:3996  withdrawnDividends */\n      0x08\n        /* \"DividendPayingToken.sol\":3978:4002  withdrawnDividends[user] */\n      0x20\n      mstore\n      0x40\n      swap1\n      keccak256\n      sload\n        /* \"DividendPayingToken.sol\":3978:4029  withdrawnDividends[user].sub(_withdrawableDividend) */\n      tag_216\n      swap1\n        /* \"DividendPayingToken.sol\":4007:4028  _withdrawableDividend */\n      dup4\n        /* \"DividendPayingToken.sol\":3978:4006  withdrawnDividends[user].sub */\n      tag_152\n        /* \"DividendPayingToken.sol\":3978:4029  withdrawnDividends[user].sub(_withdrawableDividend) */\n      jump\t// in\n    tag_216:\n      sub(shl(0xa0, 0x01), 0x01)\n        /* \"DividendPayingToken.sol\":3951:3975  withdrawnDividends[user] */\n      dup6\n      and\n      0x00\n      swap1\n      dup2\n      mstore\n        /* \"DividendPayingToken.sol\":3951:3969  withdrawnDividends */\n      0x08\n        /* \"DividendPayingToken.sol\":3951:3975  withdrawnDividends[user] */\n      0x20\n      mstore\n      0x40\n      dup2\n      keccak256\n        /* \"DividendPayingToken.sol\":3951:4029  withdrawnDividends[user] = withdrawnDividends[user].sub(_withdrawableDividend) */\n      swap2\n      swap1\n      swap2\n      sstore\n        /* \"DividendPayingToken.sol\":3951:3975  withdrawnDividends[user] */\n      swap3\n      pop\n        /* \"DividendPayingToken.sol\":4039:4047  return 0 */\n      tag_111\n      swap2\n      pop\n      pop\n      jump\n        /* \"DividendPayingToken.sol\":3928:4056  if(!success) {... */\n    tag_215:\n      pop\n        /* \"DividendPayingToken.sol\":4071:4092  _withdrawableDividend */\n      swap1\n      pop\n        /* \"DividendPayingToken.sol\":4064:4092  return _withdrawableDividend */\n      jump(tag_111)\n        /* \"DividendPayingToken.sol\":3670:4099  if (_withdrawableDividend > 0) {... */\n    tag_209:\n      pop\n        /* \"DividendPayingToken.sol\":4112:4113  0 */\n      0x00\n      swap3\n        /* \"DividendPayingToken.sol\":3516:4118  function _withdrawDividendOfUser(address payable user) internal returns (uint256) {... */\n      swap2\n      pop\n      pop\n      jump\t// out\n        /* \"SafeMath.sol\":757:891  function sub(uint256 a, uint256 b) internal pure returns (uint256) {... */\n    tag_152:\n        /* \"SafeMath.sol\":815:822  uint256 */\n      0x00\n        /* \"SafeMath.sol\":841:884  sub(a, b, \"SafeMath: subtraction overflow\") */\n      tag_195\n        /* \"SafeMath.sol\":845:846  a */\n      dup4\n        /* \"SafeMath.sol\":848:849  b */\n      dup4\n        /* \"SafeMath.sol\":841:884  sub(a, b, \"SafeMath: subtraction overflow\") */\n      mload(0x40)\n      dup1\n      0x40\n      add\n      0x40\n      mstore\n      dup1\n      0x1e\n      dup2\n      mstore\n      0x20\n      add\n      0x536166654d6174683a207375627472616374696f6e206f766572666c6f770000\n      dup2\n      mstore\n      pop\n        /* \"SafeMath.sol\":841:844  sub */\n      tag_110\n        /* \"SafeMath.sol\":841:884  sub(a, b, \"SafeMath: subtraction overflow\") */\n      jump\t// in\n    stop\n    data_245f15ff17f551913a7a18385165551503906a406f905ac1c2437281a7cd0cfe 4f776e61626c653a206e6577206f776e657220697320746865207a65726f2061646472657373\n    data_24883cc5fe64ace9d0df1893501ecb93c77180f0ff69cca79affb3c316dc8029 45524332303a20617070726f766520746f20746865207a65726f2061646472657373\n    data_9113bb53c2876a3805b2c9242029423fc540a728243ce887ab24c82cf119fba3 536166654d6174683a206d756c7469706c69636174696f6e206f766572666c6f77\n    data_974d1b4421da69cc60b481194f0dad36a5bb4e23da810da7a7fb30cdba178330 45524332303a207472616e7366657220616d6f756e74206578636565647320616c6c6f77616e6365\n    data_c953f4879035ed60e766b34720f656aab5c697b141d924c283124ecedb91c208 45524332303a20617070726f76652066726f6d20746865207a65726f2061646472657373\n    data_f8b476f7d28209d77d4a4ac1fe36b9f8259aa1bb6bddfa6e89de7e51615cf8a8 45524332303a2064656372656173656420616c6c6f77616e63652062656c6f77207a65726f\n\n    auxdata: 0xa2646970667358221220cdb94a3db1dc48f602cbaaad09215396a86b5810d3ca0dcefbfc5fc9ed4fa45464736f6c634300060c0033\n}\n",
				"bytecode": {
					"linkReferences": {},
					"object": "60a06040527fb6076c93701d6a07266c31066b298aec6dd65c2d0000000000000000000000006080523480156200003557600080fd5b506040516200137238038062001372833981810160405260408110156200005b57600080fd5b81019080805160405193929190846401000000008211156200007c57600080fd5b9083019060208201858111156200009257600080fd5b8251640100000000811182820188101715620000ad57600080fd5b82525081516020918201929091019080838360005b83811015620000dc578181015183820152602001620000c2565b50505050905090810190601f1680156200010a5780820380516001836020036101000a031916815260200191505b50604052602001805160405193929190846401000000008211156200012e57600080fd5b9083019060208201858111156200014457600080fd5b82516401000000008111828201881017156200015f57600080fd5b82525081516020918201929091019080838360005b838110156200018e57818101518382015260200162000174565b50505050905090810190601f168015620001bc5780820380516001836020036101000a031916815260200191505b50604052505082518391508290620001dc90600390602085019062000261565b508051620001f290600490602084019062000261565b5050506000620002076200025d60201b60201c565b600580546001600160a01b0319166001600160a01b038316908117909155604051919250906000907f8be0079c531659141344cd1fd0a4f28419497f9722a3daafe3b4186f6b6457e0908290a3505050620002fd565b3390565b828054600181600116156101000203166002900490600052602060002090601f016020900481019282601f10620002a457805160ff1916838001178555620002d4565b82800160010185558215620002d4579182015b82811115620002d4578251825591602001919060010190620002b7565b50620002e2929150620002e6565b5090565b5b80821115620002e25760008155600101620002e7565b60805160601c61105262000320600039806106685280610dfe52506110526000f3fe608060405234801561001057600080fd5b50600436106101425760003560e01c806385a6b3ae116100b8578063a8b9d2401161007c578063a8b9d2401461038a578063a9059cbb146103b0578063aafd847a146103dc578063ba72a95514610402578063dd62ed3e1461041f578063f2fde38b1461044d57610142565b806385a6b3ae146103205780638da5cb5b1461032857806391b89fba1461033057806395d89b4114610356578063a457c2d71461035e57610142565b8063313ce5671161010a578063313ce5671461027a57806339509351146102985780634ca6ef28146102c45780636a474002146102e857806370a08231146102f2578063715018a61461031857610142565b806306fdde0314610147578063095ea7b3146101c457806318160ddd1461020457806323b872dd1461021e57806327ce014714610254575b600080fd5b61014f610473565b6040805160208082528351818301528351919283929083019185019080838360005b83811015610189578181015183820152602001610171565b50505050905090810190601f1680156101b65780820380516001836020036101000a031916815260200191505b509250505060405180910390f35b6101f0600480360360408110156101da57600080fd5b506001600160a01b038135169060200135610509565b604080519115158252519081900360200190f35b61020c610527565b60408051918252519081900360200190f35b6101f06004803603606081101561023457600080fd5b506001600160a01b0381358116916020810135909116906040013561052d565b61020c6004803603602081101561026a57600080fd5b50356001600160a01b03166105b4565b610282610613565b6040805160ff9092168252519081900360200190f35b6101f0600480360360408110156102ae57600080fd5b506001600160a01b038135169060200135610618565b6102cc610666565b604080516001600160a01b039092168252519081900360200190f35b6102f061068a565b005b61020c6004803603602081101561030857600080fd5b50356001600160a01b0316610696565b6102f06106b1565b61020c610765565b6102cc61076b565b61020c6004803603602081101561034657600080fd5b50356001600160a01b031661077a565b61014f610785565b6101f06004803603604081101561037457600080fd5b506001600160a01b0381351690602001356107e6565b61020c600480360360208110156103a057600080fd5b50356001600160a01b031661084e565b6101f0600480360360408110156103c657600080fd5b506001600160a01b03813516906020013561087a565b61020c600480360360208110156103f257600080fd5b50356001600160a01b031661088e565b6102f06004803603602081101561041857600080fd5b50356108a9565b61020c6004803603604081101561043557600080fd5b506001600160a01b03813581169160200135166109a4565b6102f06004803603602081101561046357600080fd5b50356001600160a01b03166109cf565b60038054604080516020601f60026000196101006001881615020190951694909404938401819004810282018101909252828152606093909290918301828280156104ff5780601f106104d4576101008083540402835291602001916104ff565b820191906000526020600020905b8154815290600101906020018083116104e257829003601f168201915b5050505050905090565b600061051d610516610ada565b8484610ade565b5060015b92915050565b60025490565b600061053a848484610142565b6105aa84610546610ada565b6105a585604051806060016040528060288152602001610fac602891396001600160a01b038a16600090815260016020526040812090610584610ada565b6001600160a01b031681526020810191909152604001600020549190610bca565b610ade565b5060019392505050565b6001600160a01b038116600090815260076020526040812054600160801b90610603906105fe906105f86105f36105ea88610696565b60065490610c61565b610cc1565b90610cd1565b610d04565b8161060a57fe5b0490505b919050565b601290565b600061051d610625610ada565b846105a58560016000610636610ada565b6001600160a01b03908116825260208083019390935260409182016000908120918c168152925290205490610d17565b7f000000000000000000000000000000000000000000000000000000000000000081565b61069333610d71565b50565b6001600160a01b031660009081526020819052604090205490565b6106b9610ada565b6005546001600160a01b0390811691161461071b576040805162461bcd60e51b815260206004820181905260248201527f4f776e61626c653a2063616c6c6572206973206e6f7420746865206f776e6572604482015290519081900360640190fd5b6005546040516000916001600160a01b0316907f8be0079c531659141344cd1fd0a4f28419497f9722a3daafe3b4186f6b6457e0908390a3600580546001600160a01b0319169055565b60095481565b6005546001600160a01b031690565b60006105218261084e565b60048054604080516020601f60026000196101006001881615020190951694909404938401819004810282018101909252828152606093909290918301828280156104ff5780601f106104d4576101008083540402835291602001916104ff565b600061051d6107f3610ada565b846105a585604051806060016040528060258152602001610ff8602591396001600061081d610ada565b6001600160a01b03908116825260208083019390935260409182016000908120918d16815292529020549190610bca565b6001600160a01b03811660009081526008602052604081205461052190610874846105b4565b90610f00565b600061051d610887610ada565b8484610142565b6001600160a01b031660009081526008602052604090205490565b6108b1610ada565b6005546001600160a01b03908116911614610913576040805162461bcd60e51b815260206004820181905260248201527f4f776e61626c653a2063616c6c6572206973206e6f7420746865206f776e6572604482015290519081900360640190fd5b600061091d610527565b1161092757600080fd5b801561069357610958610938610527565b61094683600160801b610c61565b8161094d57fe5b600654919004610d17565b60065560408051828152905133917fa493a9229478c3fcd73f66d2cdeb7f94fd0f341da924d1054236d78454116511919081900360200190a260095461099e9082610d17565b60095550565b6001600160a01b03918216600090815260016020908152604080832093909416825291909152205490565b6109d7610ada565b6005546001600160a01b03908116911614610a39576040805162461bcd60e51b815260206004820181905260248201527f4f776e61626c653a2063616c6c6572206973206e6f7420746865206f776e6572604482015290519081900360640190fd5b6001600160a01b038116610a7e5760405162461bcd60e51b8152600401808060200182810382526026815260200180610f436026913960400191505060405180910390fd5b6005546040516001600160a01b038084169216907f8be0079c531659141344cd1fd0a4f28419497f9722a3daafe3b4186f6b6457e090600090a3600580546001600160a01b0319166001600160a01b0392909216919091179055565b3390565b6001600160a01b038316610b235760405162461bcd60e51b8152600401808060200182810382526024815260200180610fd46024913960400191505060405180910390fd5b6001600160a01b038216610b685760405162461bcd60e51b8152600401808060200182810382526022815260200180610f696022913960400191505060405180910390fd5b6001600160a01b03808416600081815260016020908152604080832094871680845294825291829020859055815185815291517f8c5be1e5ebec7d5bd14f71427d1e84f3dd0314c0f7b2291e5b200ac8c7c3b9259281900390910190a3505050565b60008184841115610c595760405162461bcd60e51b81526004018080602001828103825283818151815260200191508051906020019080838360005b83811015610c1e578181015183820152602001610c06565b50505050905090810190601f168015610c4b5780820380516001836020036101000a031916815260200191505b509250505060405180910390fd5b505050900390565b600082610c7057506000610521565b82820282848281610c7d57fe5b0414610cba5760405162461bcd60e51b8152600401808060200182810382526021815260200180610f8b6021913960400191505060405180910390fd5b9392505050565b6000818181121561052157600080fd5b6000828201818312801590610ce65750838112155b80610cfb5750600083128015610cfb57508381125b610cba57600080fd5b600080821215610d1357600080fd5b5090565b600082820183811015610cba576040805162461bcd60e51b815260206004820152601b60248201527f536166654d6174683a206164646974696f6e206f766572666c6f770000000000604482015290519081900360640190fd5b600080610d7d8361084e565b90508015610ef7576001600160a01b038316600090815260086020526040902054610da89082610d17565b6001600160a01b038416600081815260086020908152604091829020939093558051848152905191927fee503bee2bb6a87e57bc57db795f98137327401a0e7b7ce42e37926cc1a9ca4d92918290030190a260007f00000000000000000000000000000000000000000000000000000000000000006001600160a01b031663a9059cbb85846040518363ffffffff1660e01b815260040180836001600160a01b0316815260200182815260200192505050602060405180830381600087803b158015610e7357600080fd5b505af1158015610e87573d6000803e3d6000fd5b505050506040513d6020811015610e9d57600080fd5b5051905080610eef576001600160a01b038416600090815260086020526040902054610ec99083610f00565b6001600160a01b038516600090815260086020526040812091909155925061060e915050565b50905061060e565b50600092915050565b6000610cba83836040518060400160405280601e81526020017f536166654d6174683a207375627472616374696f6e206f766572666c6f770000815250610bca56fe4f776e61626c653a206e6577206f776e657220697320746865207a65726f206164647265737345524332303a20617070726f766520746f20746865207a65726f2061646472657373536166654d6174683a206d756c7469706c69636174696f6e206f766572666c6f7745524332303a207472616e7366657220616d6f756e74206578636565647320616c6c6f77616e636545524332303a20617070726f76652066726f6d20746865207a65726f206164647265737345524332303a2064656372656173656420616c6c6f77616e63652062656c6f77207a65726fa2646970667358221220cdb94a3db1dc48f602cbaaad09215396a86b5810d3ca0dcefbfc5fc9ed4fa45464736f6c634300060c0033",
					"opcodes": "PUSH1 0xA0 PUSH1 0x40 MSTORE PUSH32 0xB6076C93701D6A07266C31066B298AEC6DD65C2D000000000000000000000000 PUSH1 0x80 MSTORE CALLVALUE DUP1 ISZERO PUSH3 0x35 JUMPI PUSH1 0x0 DUP1 REVERT JUMPDEST POP PUSH1 0x40 MLOAD PUSH3 0x1372 CODESIZE SUB DUP1 PUSH3 0x1372 DUP4 CODECOPY DUP2 DUP2 ADD PUSH1 0x40 MSTORE PUSH1 0x40 DUP2 LT ISZERO PUSH3 0x5B JUMPI PUSH1 0x0 DUP1 REVERT JUMPDEST DUP2 ADD SWAP1 DUP1 DUP1 MLOAD PUSH1 0x40 MLOAD SWAP4 SWAP3 SWAP2 SWAP1 DUP5 PUSH5 0x100000000 DUP3 GT ISZERO PUSH3 0x7C JUMPI PUSH1 0x0 DUP1 REVERT JUMPDEST SWAP1 DUP4 ADD SWAP1 PUSH1 0x20 DUP3 ADD DUP6 DUP2 GT ISZERO PUSH3 0x92 JUMPI PUSH1 0x0 DUP1 REVERT JUMPDEST DUP3 MLOAD PUSH5 0x100000000 DUP2 GT DUP3 DUP3 ADD DUP9 LT OR ISZERO PUSH3 0xAD JUMPI PUSH1 0x0 DUP1 REVERT JUMPDEST DUP3 MSTORE POP DUP2 MLOAD PUSH1 0x20 SWAP2 DUP3 ADD SWAP3 SWAP1 SWAP2 ADD SWAP1 DUP1 DUP4 DUP4 PUSH1 0x0 JUMPDEST DUP4 DUP2 LT ISZERO PUSH3 0xDC JUMPI DUP2 DUP2 ADD MLOAD DUP4 DUP3 ADD MSTORE PUSH1 0x20 ADD PUSH3 0xC2 JUMP JUMPDEST POP POP POP POP SWAP1 POP SWAP1 DUP2 ADD SWAP1 PUSH1 0x1F AND DUP1 ISZERO PUSH3 0x10A JUMPI DUP1 DUP3 SUB DUP1 MLOAD PUSH1 0x1 DUP4 PUSH1 0x20 SUB PUSH2 0x100 EXP SUB NOT AND DUP2 MSTORE PUSH1 0x20 ADD SWAP2 POP JUMPDEST POP PUSH1 0x40 MSTORE PUSH1 0x20 ADD DUP1 MLOAD PUSH1 0x40 MLOAD SWAP4 SWAP3 SWAP2 SWAP1 DUP5 PUSH5 0x100000000 DUP3 GT ISZERO PUSH3 0x12E JUMPI PUSH1 0x0 DUP1 REVERT JUMPDEST SWAP1 DUP4 ADD SWAP1 PUSH1 0x20 DUP3 ADD DUP6 DUP2 GT ISZERO PUSH3 0x144 JUMPI PUSH1 0x0 DUP1 REVERT JUMPDEST DUP3 MLOAD PUSH5 0x100000000 DUP2 GT DUP3 DUP3 ADD DUP9 LT OR ISZERO PUSH3 0x15F JUMPI PUSH1 0x0 DUP1 REVERT JUMPDEST DUP3 MSTORE POP DUP2 MLOAD PUSH1 0x20 SWAP2 DUP3 ADD SWAP3 SWAP1 SWAP2 ADD SWAP1 DUP1 DUP4 DUP4 PUSH1 0x0 JUMPDEST DUP4 DUP2 LT ISZERO PUSH3 0x18E JUMPI DUP2 DUP2 ADD MLOAD DUP4 DUP3 ADD MSTORE PUSH1 0x20 ADD PUSH3 0x174 JUMP JUMPDEST POP POP POP POP SWAP1 POP SWAP1 DUP2 ADD SWAP1 PUSH1 0x1F AND DUP1 ISZERO PUSH3 0x1BC JUMPI DUP1 DUP3 SUB DUP1 MLOAD PUSH1 0x1 DUP4 PUSH1 0x20 SUB PUSH2 0x100 EXP SUB NOT AND DUP2 MSTORE PUSH1 0x20 ADD SWAP2 POP JUMPDEST POP PUSH1 0x40 MSTORE POP POP DUP3 MLOAD DUP4 SWAP2 POP DUP3 SWAP1 PUSH3 0x1DC SWAP1 PUSH1 0x3 SWAP1 PUSH1 0x20 DUP6 ADD SWAP1 PUSH3 0x261 JUMP JUMPDEST POP DUP1 MLOAD PUSH3 0x1F2 SWAP1 PUSH1 0x4 SWAP1 PUSH1 0x20 DUP5 ADD SWAP1 PUSH3 0x261 JUMP JUMPDEST POP POP POP PUSH1 0x0 PUSH3 0x207 PUSH3 0x25D PUSH1 0x20 SHL PUSH1 0x20 SHR JUMP JUMPDEST PUSH1 0x5 DUP1 SLOAD PUSH1 0x1 PUSH1 0x1 PUSH1 0xA0 SHL SUB NOT AND PUSH1 0x1 PUSH1 0x1 PUSH1 0xA0 SHL SUB DUP4 AND SWAP1 DUP2 OR SWAP1 SWAP2 SSTORE PUSH1 0x40 MLOAD SWAP2 SWAP3 POP SWAP1 PUSH1 0x0 SWAP1 PUSH32 0x8BE0079C531659141344CD1FD0A4F28419497F9722A3DAAFE3B4186F6B6457E0 SWAP1 DUP3 SWAP1 LOG3 POP POP POP PUSH3 0x2FD JUMP JUMPDEST CALLER SWAP1 JUMP JUMPDEST DUP3 DUP1 SLOAD PUSH1 0x1 DUP2 PUSH1 0x1 AND ISZERO PUSH2 0x100 MUL SUB AND PUSH1 0x2 SWAP1 DIV SWAP1 PUSH1 0x0 MSTORE PUSH1 0x20 PUSH1 0x0 KECCAK256 SWAP1 PUSH1 0x1F ADD PUSH1 0x20 SWAP1 DIV DUP2 ADD SWAP3 DUP3 PUSH1 0x1F LT PUSH3 0x2A4 JUMPI DUP1 MLOAD PUSH1 0xFF NOT AND DUP4 DUP1 ADD OR DUP6 SSTORE PUSH3 0x2D4 JUMP JUMPDEST DUP3 DUP1 ADD PUSH1 0x1 ADD DUP6 SSTORE DUP3 ISZERO PUSH3 0x2D4 JUMPI SWAP2 DUP3 ADD JUMPDEST DUP3 DUP2 GT ISZERO PUSH3 0x2D4 JUMPI DUP3 MLOAD DUP3 SSTORE SWAP2 PUSH1 0x20 ADD SWAP2 SWAP1 PUSH1 0x1 ADD SWAP1 PUSH3 0x2B7 JUMP JUMPDEST POP PUSH3 0x2E2 SWAP3 SWAP2 POP PUSH3 0x2E6 JUMP JUMPDEST POP SWAP1 JUMP JUMPDEST JUMPDEST DUP1 DUP3 GT ISZERO PUSH3 0x2E2 JUMPI PUSH1 0x0 DUP2 SSTORE PUSH1 0x1 ADD PUSH3 0x2E7 JUMP JUMPDEST PUSH1 0x80 MLOAD PUSH1 0x60 SHR PUSH2 0x1052 PUSH3 0x320 PUSH1 0x0 CODECOPY DUP1 PUSH2 0x668 MSTORE DUP1 PUSH2 0xDFE MSTORE POP PUSH2 0x1052 PUSH1 0x0 RETURN INVALID PUSH1 0x80 PUSH1 0x40 MSTORE CALLVALUE DUP1 ISZERO PUSH2 0x10 JUMPI PUSH1 0x0 DUP1 REVERT JUMPDEST POP PUSH1 0x4 CALLDATASIZE LT PUSH2 0x142 JUMPI PUSH1 0x0 CALLDATALOAD PUSH1 0xE0 SHR DUP1 PUSH4 0x85A6B3AE GT PUSH2 0xB8 JUMPI DUP1 PUSH4 0xA8B9D240 GT PUSH2 0x7C JUMPI DUP1 PUSH4 0xA8B9D240 EQ PUSH2 0x38A JUMPI DUP1 PUSH4 0xA9059CBB EQ PUSH2 0x3B0 JUMPI DUP1 PUSH4 0xAAFD847A EQ PUSH2 0x3DC JUMPI DUP1 PUSH4 0xBA72A955 EQ PUSH2 0x402 JUMPI DUP1 PUSH4 0xDD62ED3E EQ PUSH2 0x41F JUMPI DUP1 PUSH4 0xF2FDE38B EQ PUSH2 0x44D JUMPI PUSH2 0x142 JUMP JUMPDEST DUP1 PUSH4 0x85A6B3AE EQ PUSH2 0x320 JUMPI DUP1 PUSH4 0x8DA5CB5B EQ PUSH2 0x328 JUMPI DUP1 PUSH4 0x91B89FBA EQ PUSH2 0x330 JUMPI DUP1 PUSH4 0x95D89B41 EQ PUSH2 0x356 JUMPI DUP1 PUSH4 0xA457C2D7 EQ PUSH2 0x35E JUMPI PUSH2 0x142 JUMP JUMPDEST DUP1 PUSH4 0x313CE567 GT PUSH2 0x10A JUMPI DUP1 PUSH4 0x313CE567 EQ PUSH2 0x27A JUMPI DUP1 PUSH4 0x39509351 EQ PUSH2 0x298 JUMPI DUP1 PUSH4 0x4CA6EF28 EQ PUSH2 0x2C4 JUMPI DUP1 PUSH4 0x6A474002 EQ PUSH2 0x2E8 JUMPI DUP1 PUSH4 0x70A08231 EQ PUSH2 0x2F2 JUMPI DUP1 PUSH4 0x715018A6 EQ PUSH2 0x318 JUMPI PUSH2 0x142 JUMP JUMPDEST DUP1 PUSH4 0x6FDDE03 EQ PUSH2 0x147 JUMPI DUP1 PUSH4 0x95EA7B3 EQ PUSH2 0x1C4 JUMPI DUP1 PUSH4 0x18160DDD EQ PUSH2 0x204 JUMPI DUP1 PUSH4 0x23B872DD EQ PUSH2 0x21E JUMPI DUP1 PUSH4 0x27CE0147 EQ PUSH2 0x254 JUMPI JUMPDEST PUSH1 0x0 DUP1 REVERT JUMPDEST PUSH2 0x14F PUSH2 0x473 JUMP JUMPDEST PUSH1 0x40 DUP1 MLOAD PUSH1 0x20 DUP1 DUP3 MSTORE DUP4 MLOAD DUP2 DUP4 ADD MSTORE DUP4 MLOAD SWAP2 SWAP3 DUP4 SWAP3 SWAP1 DUP4 ADD SWAP2 DUP6 ADD SWAP1 DUP1 DUP4 DUP4 PUSH1 0x0 JUMPDEST DUP4 DUP2 LT ISZERO PUSH2 0x189 JUMPI DUP2 DUP2 ADD MLOAD DUP4 DUP3 ADD MSTORE PUSH1 0x20 ADD PUSH2 0x171 JUMP JUMPDEST POP POP POP POP SWAP1 POP SWAP1 DUP2 ADD SWAP1 PUSH1 0x1F AND DUP1 ISZERO PUSH2 0x1B6 JUMPI DUP1 DUP3 SUB DUP1 MLOAD PUSH1 0x1 DUP4 PUSH1 0x20 SUB PUSH2 0x100 EXP SUB NOT AND DUP2 MSTORE PUSH1 0x20 ADD SWAP2 POP JUMPDEST POP SWAP3 POP POP POP PUSH1 0x40 MLOAD DUP1 SWAP2 SUB SWAP1 RETURN JUMPDEST PUSH2 0x1F0 PUSH1 0x4 DUP1 CALLDATASIZE SUB PUSH1 0x40 DUP2 LT ISZERO PUSH2 0x1DA JUMPI PUSH1 0x0 DUP1 REVERT JUMPDEST POP PUSH1 0x1 PUSH1 0x1 PUSH1 0xA0 SHL SUB DUP2 CALLDATALOAD AND SWAP1 PUSH1 0x20 ADD CALLDATALOAD PUSH2 0x509 JUMP JUMPDEST PUSH1 0x40 DUP1 MLOAD SWAP2 ISZERO ISZERO DUP3 MSTORE MLOAD SWAP1 DUP2 SWAP1 SUB PUSH1 0x20 ADD SWAP1 RETURN JUMPDEST PUSH2 0x20C PUSH2 0x527 JUMP JUMPDEST PUSH1 0x40 DUP1 MLOAD SWAP2 DUP3 MSTORE MLOAD SWAP1 DUP2 SWAP1 SUB PUSH1 0x20 ADD SWAP1 RETURN JUMPDEST PUSH2 0x1F0 PUSH1 0x4 DUP1 CALLDATASIZE SUB PUSH1 0x60 DUP2 LT ISZERO PUSH2 0x234 JUMPI PUSH1 0x0 DUP1 REVERT JUMPDEST POP PUSH1 0x1 PUSH1 0x1 PUSH1 0xA0 SHL SUB DUP2 CALLDATALOAD DUP2 AND SWAP2 PUSH1 0x20 DUP2 ADD CALLDATALOAD SWAP1 SWAP2 AND SWAP1 PUSH1 0x40 ADD CALLDATALOAD PUSH2 0x52D JUMP JUMPDEST PUSH2 0x20C PUSH1 0x4 DUP1 CALLDATASIZE SUB PUSH1 0x20 DUP2 LT ISZERO PUSH2 0x26A JUMPI PUSH1 0x0 DUP1 REVERT JUMPDEST POP CALLDATALOAD PUSH1 0x1 PUSH1 0x1 PUSH1 0xA0 SHL SUB AND PUSH2 0x5B4 JUMP JUMPDEST PUSH2 0x282 PUSH2 0x613 JUMP JUMPDEST PUSH1 0x40 DUP1 MLOAD PUSH1 0xFF SWAP1 SWAP3 AND DUP3 MSTORE MLOAD SWAP1 DUP2 SWAP1 SUB PUSH1 0x20 ADD SWAP1 RETURN JUMPDEST PUSH2 0x1F0 PUSH1 0x4 DUP1 CALLDATASIZE SUB PUSH1 0x40 DUP2 LT ISZERO PUSH2 0x2AE JUMPI PUSH1 0x0 DUP1 REVERT JUMPDEST POP PUSH1 0x1 PUSH1 0x1 PUSH1 0xA0 SHL SUB DUP2 CALLDATALOAD AND SWAP1 PUSH1 0x20 ADD CALLDATALOAD PUSH2 0x618 JUMP JUMPDEST PUSH2 0x2CC PUSH2 0x666 JUMP JUMPDEST PUSH1 0x40 DUP1 MLOAD PUSH1 0x1 PUSH1 0x1 PUSH1 0xA0 SHL SUB SWAP1 SWAP3 AND DUP3 MSTORE MLOAD SWAP1 DUP2 SWAP1 SUB PUSH1 0x20 ADD SWAP1 RETURN JUMPDEST PUSH2 0x2F0 PUSH2 0x68A JUMP JUMPDEST STOP JUMPDEST PUSH2 0x20C PUSH1 0x4 DUP1 CALLDATASIZE SUB PUSH1 0x20 DUP2 LT ISZERO PUSH2 0x308 JUMPI PUSH1 0x0 DUP1 REVERT JUMPDEST POP CALLDATALOAD PUSH1 0x1 PUSH1 0x1 PUSH1 0xA0 SHL SUB AND PUSH2 0x696 JUMP JUMPDEST PUSH2 0x2F0 PUSH2 0x6B1 JUMP JUMPDEST PUSH2 0x20C PUSH2 0x765 JUMP JUMPDEST PUSH2 0x2CC PUSH2 0x76B JUMP JUMPDEST PUSH2 0x20C PUSH1 0x4 DUP1 CALLDATASIZE SUB PUSH1 0x20 DUP2 LT ISZERO PUSH2 0x346 JUMPI PUSH1 0x0 DUP1 REVERT JUMPDEST POP CALLDATALOAD PUSH1 0x1 PUSH1 0x1 PUSH1 0xA0 SHL SUB AND PUSH2 0x77A JUMP JUMPDEST PUSH2 0x14F PUSH2 0x785 JUMP JUMPDEST PUSH2 0x1F0 PUSH1 0x4 DUP1 CALLDATASIZE SUB PUSH1 0x40 DUP2 LT ISZERO PUSH2 0x374 JUMPI PUSH1 0x0 DUP1 REVERT JUMPDEST POP PUSH1 0x1 PUSH1 0x1 PUSH1 0xA0 SHL SUB DUP2 CALLDATALOAD AND SWAP1 PUSH1 0x20 ADD CALLDATALOAD PUSH2 0x7E6 JUMP JUMPDEST PUSH2 0x20C PUSH1 0x4 DUP1 CALLDATASIZE SUB PUSH1 0x20 DUP2 LT ISZERO PUSH2 0x3A0 JUMPI PUSH1 0x0 DUP1 REVERT JUMPDEST POP CALLDATALOAD PUSH1 0x1 PUSH1 0x1 PUSH1 0xA0 SHL SUB AND PUSH2 0x84E JUMP JUMPDEST PUSH2 0x1F0 PUSH1 0x4 DUP1 CALLDATASIZE SUB PUSH1 0x40 DUP2 LT ISZERO PUSH2 0x3C6 JUMPI PUSH1 0x0 DUP1 REVERT JUMPDEST POP PUSH1 0x1 PUSH1 0x1 PUSH1 0xA0 SHL SUB DUP2 CALLDATALOAD AND SWAP1 PUSH1 0x20 ADD CALLDATALOAD PUSH2 0x87A JUMP JUMPDEST PUSH2 0x20C PUSH1 0x4 DUP1 CALLDATASIZE SUB PUSH1 0x20 DUP2 LT ISZERO PUSH2 0x3F2 JUMPI PUSH1 0x0 DUP1 REVERT JUMPDEST POP CALLDATALOAD PUSH1 0x1 PUSH1 0x1 PUSH1 0xA0 SHL SUB AND PUSH2 0x88E JUMP JUMPDEST PUSH2 0x2F0 PUSH1 0x4 DUP1 CALLDATASIZE SUB PUSH1 0x20 DUP2 LT ISZERO PUSH2 0x418 JUMPI PUSH1 0x0 DUP1 REVERT JUMPDEST POP CALLDATALOAD PUSH2 0x8A9 JUMP JUMPDEST PUSH2 0x20C PUSH1 0x4 DUP1 CALLDATASIZE SUB PUSH1 0x40 DUP2 LT ISZERO PUSH2 0x435 JUMPI PUSH1 0x0 DUP1 REVERT JUMPDEST POP PUSH1 0x1 PUSH1 0x1 PUSH1 0xA0 SHL SUB DUP2 CALLDATALOAD DUP2 AND SWAP2 PUSH1 0x20 ADD CALLDATALOAD AND PUSH2 0x9A4 JUMP JUMPDEST PUSH2 0x2F0 PUSH1 0x4 DUP1 CALLDATASIZE SUB PUSH1 0x20 DUP2 LT ISZERO PUSH2 0x463 JUMPI PUSH1 0x0 DUP1 REVERT JUMPDEST POP CALLDATALOAD PUSH1 0x1 PUSH1 0x1 PUSH1 0xA0 SHL SUB AND PUSH2 0x9CF JUMP JUMPDEST PUSH1 0x3 DUP1 SLOAD PUSH1 0x40 DUP1 MLOAD PUSH1 0x20 PUSH1 0x1F PUSH1 0x2 PUSH1 0x0 NOT PUSH2 0x100 PUSH1 0x1 DUP9 AND ISZERO MUL ADD SWAP1 SWAP6 AND SWAP5 SWAP1 SWAP5 DIV SWAP4 DUP5 ADD DUP2 SWAP1 DIV DUP2 MUL DUP3 ADD DUP2 ADD SWAP1 SWAP3 MSTORE DUP3 DUP2 MSTORE PUSH1 0x60 SWAP4 SWAP1 SWAP3 SWAP1 SWAP2 DUP4 ADD DUP3 DUP3 DUP1 ISZERO PUSH2 0x4FF JUMPI DUP1 PUSH1 0x1F LT PUSH2 0x4D4 JUMPI PUSH2 0x100 DUP1 DUP4 SLOAD DIV MUL DUP4 MSTORE SWAP2 PUSH1 0x20 ADD SWAP2 PUSH2 0x4FF JUMP JUMPDEST DUP3 ADD SWAP2 SWAP1 PUSH1 0x0 MSTORE PUSH1 0x20 PUSH1 0x0 KECCAK256 SWAP1 JUMPDEST DUP2 SLOAD DUP2 MSTORE SWAP1 PUSH1 0x1 ADD SWAP1 PUSH1 0x20 ADD DUP1 DUP4 GT PUSH2 0x4E2 JUMPI DUP3 SWAP1 SUB PUSH1 0x1F AND DUP3 ADD SWAP2 JUMPDEST POP POP POP POP POP SWAP1 POP SWAP1 JUMP JUMPDEST PUSH1 0x0 PUSH2 0x51D PUSH2 0x516 PUSH2 0xADA JUMP JUMPDEST DUP5 DUP5 PUSH2 0xADE JUMP JUMPDEST POP PUSH1 0x1 JUMPDEST SWAP3 SWAP2 POP POP JUMP JUMPDEST PUSH1 0x2 SLOAD SWAP1 JUMP JUMPDEST PUSH1 0x0 PUSH2 0x53A DUP5 DUP5 DUP5 PUSH2 0x142 JUMP JUMPDEST PUSH2 0x5AA DUP5 PUSH2 0x546 PUSH2 0xADA JUMP JUMPDEST PUSH2 0x5A5 DUP6 PUSH1 0x40 MLOAD DUP1 PUSH1 0x60 ADD PUSH1 0x40 MSTORE DUP1 PUSH1 0x28 DUP2 MSTORE PUSH1 0x20 ADD PUSH2 0xFAC PUSH1 0x28 SWAP2 CODECOPY PUSH1 0x1 PUSH1 0x1 PUSH1 0xA0 SHL SUB DUP11 AND PUSH1 0x0 SWAP1 DUP2 MSTORE PUSH1 0x1 PUSH1 0x20 MSTORE PUSH1 0x40 DUP2 KECCAK256 SWAP1 PUSH2 0x584 PUSH2 0xADA JUMP JUMPDEST PUSH1 0x1 PUSH1 0x1 PUSH1 0xA0 SHL SUB AND DUP2 MSTORE PUSH1 0x20 DUP2 ADD SWAP2 SWAP1 SWAP2 MSTORE PUSH1 0x40 ADD PUSH1 0x0 KECCAK256 SLOAD SWAP2 SWAP1 PUSH2 0xBCA JUMP JUMPDEST PUSH2 0xADE JUMP JUMPDEST POP PUSH1 0x1 SWAP4 SWAP3 POP POP POP JUMP JUMPDEST PUSH1 0x1 PUSH1 0x1 PUSH1 0xA0 SHL SUB DUP2 AND PUSH1 0x0 SWAP1 DUP2 MSTORE PUSH1 0x7 PUSH1 0x20 MSTORE PUSH1 0x40 DUP2 KECCAK256 SLOAD PUSH1 0x1 PUSH1 0x80 SHL SWAP1 PUSH2 0x603 SWAP1 PUSH2 0x5FE SWAP1 PUSH2 0x5F8 PUSH2 0x5F3 PUSH2 0x5EA DUP9 PUSH2 0x696 JUMP JUMPDEST PUSH1 0x6 SLOAD SWAP1 PUSH2 0xC61 JUMP JUMPDEST PUSH2 0xCC1 JUMP JUMPDEST SWAP1 PUSH2 0xCD1 JUMP JUMPDEST PUSH2 0xD04 JUMP JUMPDEST DUP2 PUSH2 0x60A JUMPI INVALID JUMPDEST DIV SWAP1 POP JUMPDEST SWAP2 SWAP1 POP JUMP JUMPDEST PUSH1 0x12 SWAP1 JUMP JUMPDEST PUSH1 0x0 PUSH2 0x51D PUSH2 0x625 PUSH2 0xADA JUMP JUMPDEST DUP5 PUSH2 0x5A5 DUP6 PUSH1 0x1 PUSH1 0x0 PUSH2 0x636 PUSH2 0xADA JUMP JUMPDEST PUSH1 0x1 PUSH1 0x1 PUSH1 0xA0 SHL SUB SWAP1 DUP2 AND DUP3 MSTORE PUSH1 0x20 DUP1 DUP4 ADD SWAP4 SWAP1 SWAP4 MSTORE PUSH1 0x40 SWAP2 DUP3 ADD PUSH1 0x0 SWAP1 DUP2 KECCAK256 SWAP2 DUP13 AND DUP2 MSTORE SWAP3 MSTORE SWAP1 KECCAK256 SLOAD SWAP1 PUSH2 0xD17 JUMP JUMPDEST PUSH32 0x0 DUP2 JUMP JUMPDEST PUSH2 0x693 CALLER PUSH2 0xD71 JUMP JUMPDEST POP JUMP JUMPDEST PUSH1 0x1 PUSH1 0x1 PUSH1 0xA0 SHL SUB AND PUSH1 0x0 SWAP1 DUP2 MSTORE PUSH1 0x20 DUP2 SWAP1 MSTORE PUSH1 0x40 SWAP1 KECCAK256 SLOAD SWAP1 JUMP JUMPDEST PUSH2 0x6B9 PUSH2 0xADA JUMP JUMPDEST PUSH1 0x5 SLOAD PUSH1 0x1 PUSH1 0x1 PUSH1 0xA0 SHL SUB SWAP1 DUP2 AND SWAP2 AND EQ PUSH2 0x71B JUMPI PUSH1 0x40 DUP1 MLOAD PUSH3 0x461BCD PUSH1 0xE5 SHL DUP2 MSTORE PUSH1 0x20 PUSH1 0x4 DUP3 ADD DUP2 SWAP1 MSTORE PUSH1 0x24 DUP3 ADD MSTORE PUSH32 0x4F776E61626C653A2063616C6C6572206973206E6F7420746865206F776E6572 PUSH1 0x44 DUP3 ADD MSTORE SWAP1 MLOAD SWAP1 DUP2 SWAP1 SUB PUSH1 0x64 ADD SWAP1 REVERT JUMPDEST PUSH1 0x5 SLOAD PUSH1 0x40 MLOAD PUSH1 0x0 SWAP2 PUSH1 0x1 PUSH1 0x1 PUSH1 0xA0 SHL SUB AND SWAP1 PUSH32 0x8BE0079C531659141344CD1FD0A4F28419497F9722A3DAAFE3B4186F6B6457E0 SWAP1 DUP4 SWAP1 LOG3 PUSH1 0x5 DUP1 SLOAD PUSH1 0x1 PUSH1 0x1 PUSH1 0xA0 SHL SUB NOT AND SWAP1 SSTORE JUMP JUMPDEST PUSH1 0x9 SLOAD DUP2 JUMP JUMPDEST PUSH1 0x5 SLOAD PUSH1 0x1 PUSH1 0x1 PUSH1 0xA0 SHL SUB AND SWAP1 JUMP JUMPDEST PUSH1 0x0 PUSH2 0x521 DUP3 PUSH2 0x84E JUMP JUMPDEST PUSH1 0x4 DUP1 SLOAD PUSH1 0x40 DUP1 MLOAD PUSH1 0x20 PUSH1 0x1F PUSH1 0x2 PUSH1 0x0 NOT PUSH2 0x100 PUSH1 0x1 DUP9 AND ISZERO MUL ADD SWAP1 SWAP6 AND SWAP5 SWAP1 SWAP5 DIV SWAP4 DUP5 ADD DUP2 SWAP1 DIV DUP2 MUL DUP3 ADD DUP2 ADD SWAP1 SWAP3 MSTORE DUP3 DUP2 MSTORE PUSH1 0x60 SWAP4 SWAP1 SWAP3 SWAP1 SWAP2 DUP4 ADD DUP3 DUP3 DUP1 ISZERO PUSH2 0x4FF JUMPI DUP1 PUSH1 0x1F LT PUSH2 0x4D4 JUMPI PUSH2 0x100 DUP1 DUP4 SLOAD DIV MUL DUP4 MSTORE SWAP2 PUSH1 0x20 ADD SWAP2 PUSH2 0x4FF JUMP JUMPDEST PUSH1 0x0 PUSH2 0x51D PUSH2 0x7F3 PUSH2 0xADA JUMP JUMPDEST DUP5 PUSH2 0x5A5 DUP6 PUSH1 0x40 MLOAD DUP1 PUSH1 0x60 ADD PUSH1 0x40 MSTORE DUP1 PUSH1 0x25 DUP2 MSTORE PUSH1 0x20 ADD PUSH2 0xFF8 PUSH1 0x25 SWAP2 CODECOPY PUSH1 0x1 PUSH1 0x0 PUSH2 0x81D PUSH2 0xADA JUMP JUMPDEST PUSH1 0x1 PUSH1 0x1 PUSH1 0xA0 SHL SUB SWAP1 DUP2 AND DUP3 MSTORE PUSH1 0x20 DUP1 DUP4 ADD SWAP4 SWAP1 SWAP4 MSTORE PUSH1 0x40 SWAP2 DUP3 ADD PUSH1 0x0 SWAP1 DUP2 KECCAK256 SWAP2 DUP14 AND DUP2 MSTORE SWAP3 MSTORE SWAP1 KECCAK256 SLOAD SWAP2 SWAP1 PUSH2 0xBCA JUMP JUMPDEST PUSH1 0x1 PUSH1 0x1 PUSH1 0xA0 SHL SUB DUP2 AND PUSH1 0x0 SWAP1 DUP2 MSTORE PUSH1 0x8 PUSH1 0x20 MSTORE PUSH1 0x40 DUP2 KECCAK256 SLOAD PUSH2 0x521 SWAP1 PUSH2 0x874 DUP5 PUSH2 0x5B4 JUMP JUMPDEST SWAP1 PUSH2 0xF00 JUMP JUMPDEST PUSH1 0x0 PUSH2 0x51D PUSH2 0x887 PUSH2 0xADA JUMP JUMPDEST DUP5 DUP5 PUSH2 0x142 JUMP JUMPDEST PUSH1 0x1 PUSH1 0x1 PUSH1 0xA0 SHL SUB AND PUSH1 0x0 SWAP1 DUP2 MSTORE PUSH1 0x8 PUSH1 0x20 MSTORE PUSH1 0x40 SWAP1 KECCAK256 SLOAD SWAP1 JUMP JUMPDEST PUSH2 0x8B1 PUSH2 0xADA JUMP JUMPDEST PUSH1 0x5 SLOAD PUSH1 0x1 PUSH1 0x1 PUSH1 0xA0 SHL SUB SWAP1 DUP2 AND SWAP2 AND EQ PUSH2 0x913 JUMPI PUSH1 0x40 DUP1 MLOAD PUSH3 0x461BCD PUSH1 0xE5 SHL DUP2 MSTORE PUSH1 0x20 PUSH1 0x4 DUP3 ADD DUP2 SWAP1 MSTORE PUSH1 0x24 DUP3 ADD MSTORE PUSH32 0x4F776E61626C653A2063616C6C6572206973206E6F7420746865206F776E6572 PUSH1 0x44 DUP3 ADD MSTORE SWAP1 MLOAD SWAP1 DUP2 SWAP1 SUB PUSH1 0x64 ADD SWAP1 REVERT JUMPDEST PUSH1 0x0 PUSH2 0x91D PUSH2 0x527 JUMP JUMPDEST GT PUSH2 0x927 JUMPI PUSH1 0x0 DUP1 REVERT JUMPDEST DUP1 ISZERO PUSH2 0x693 JUMPI PUSH2 0x958 PUSH2 0x938 PUSH2 0x527 JUMP JUMPDEST PUSH2 0x946 DUP4 PUSH1 0x1 PUSH1 0x80 SHL PUSH2 0xC61 JUMP JUMPDEST DUP2 PUSH2 0x94D JUMPI INVALID JUMPDEST PUSH1 0x6 SLOAD SWAP2 SWAP1 DIV PUSH2 0xD17 JUMP JUMPDEST PUSH1 0x6 SSTORE PUSH1 0x40 DUP1 MLOAD DUP3 DUP2 MSTORE SWAP1 MLOAD CALLER SWAP2 PUSH32 0xA493A9229478C3FCD73F66D2CDEB7F94FD0F341DA924D1054236D78454116511 SWAP2 SWAP1 DUP2 SWAP1 SUB PUSH1 0x20 ADD SWAP1 LOG2 PUSH1 0x9 SLOAD PUSH2 0x99E SWAP1 DUP3 PUSH2 0xD17 JUMP JUMPDEST PUSH1 0x9 SSTORE POP JUMP JUMPDEST PUSH1 0x1 PUSH1 0x1 PUSH1 0xA0 SHL SUB SWAP2 DUP3 AND PUSH1 0x0 SWAP1 DUP2 MSTORE PUSH1 0x1 PUSH1 0x20 SWAP1 DUP2 MSTORE PUSH1 0x40 DUP1 DUP4 KECCAK256 SWAP4 SWAP1 SWAP5 AND DUP3 MSTORE SWAP2 SWAP1 SWAP2 MSTORE KECCAK256 SLOAD SWAP1 JUMP JUMPDEST PUSH2 0x9D7 PUSH2 0xADA JUMP JUMPDEST PUSH1 0x5 SLOAD PUSH1 0x1 PUSH1 0x1 PUSH1 0xA0 SHL SUB SWAP1 DUP2 AND SWAP2 AND EQ PUSH2 0xA39 JUMPI PUSH1 0x40 DUP1 MLOAD PUSH3 0x461BCD PUSH1 0xE5 SHL DUP2 MSTORE PUSH1 0x20 PUSH1 0x4 DUP3 ADD DUP2 SWAP1 MSTORE PUSH1 0x24 DUP3 ADD MSTORE PUSH32 0x4F776E61626C653A2063616C6C6572206973206E6F7420746865206F776E6572 PUSH1 0x44 DUP3 ADD MSTORE SWAP1 MLOAD SWAP1 DUP2 SWAP1 SUB PUSH1 0x64 ADD SWAP1 REVERT JUMPDEST PUSH1 0x1 PUSH1 0x1 PUSH1 0xA0 SHL SUB DUP2 AND PUSH2 0xA7E JUMPI PUSH1 0x40 MLOAD PUSH3 0x461BCD PUSH1 0xE5 SHL DUP2 MSTORE PUSH1 0x4 ADD DUP1 DUP1 PUSH1 0x20 ADD DUP3 DUP2 SUB DUP3 MSTORE PUSH1 0x26 DUP2 MSTORE PUSH1 0x20 ADD DUP1 PUSH2 0xF43 PUSH1 0x26 SWAP2 CODECOPY PUSH1 0x40 ADD SWAP2 POP POP PUSH1 0x40 MLOAD DUP1 SWAP2 SUB SWAP1 REVERT JUMPDEST PUSH1 0x5 SLOAD PUSH1 0x40 MLOAD PUSH1 0x1 PUSH1 0x1 PUSH1 0xA0 SHL SUB DUP1 DUP5 AND SWAP3 AND SWAP1 PUSH32 0x8BE0079C531659141344CD1FD0A4F28419497F9722A3DAAFE3B4186F6B6457E0 SWAP1 PUSH1 0x0 SWAP1 LOG3 PUSH1 0x5 DUP1 SLOAD PUSH1 0x1 PUSH1 0x1 PUSH1 0xA0 SHL SUB NOT AND PUSH1 0x1 PUSH1 0x1 PUSH1 0xA0 SHL SUB SWAP3 SWAP1 SWAP3 AND SWAP2 SWAP1 SWAP2 OR SWAP1 SSTORE JUMP JUMPDEST CALLER SWAP1 JUMP JUMPDEST PUSH1 0x1 PUSH1 0x1 PUSH1 0xA0 SHL SUB DUP4 AND PUSH2 0xB23 JUMPI PUSH1 0x40 MLOAD PUSH3 0x461BCD PUSH1 0xE5 SHL DUP2 MSTORE PUSH1 0x4 ADD DUP1 DUP1 PUSH1 0x20 ADD DUP3 DUP2 SUB DUP3 MSTORE PUSH1 0x24 DUP2 MSTORE PUSH1 0x20 ADD DUP1 PUSH2 0xFD4 PUSH1 0x24 SWAP2 CODECOPY PUSH1 0x40 ADD SWAP2 POP POP PUSH1 0x40 MLOAD DUP1 SWAP2 SUB SWAP1 REVERT JUMPDEST PUSH1 0x1 PUSH1 0x1 PUSH1 0xA0 SHL SUB DUP3 AND PUSH2 0xB68 JUMPI PUSH1 0x40 MLOAD PUSH3 0x461BCD PUSH1 0xE5 SHL DUP2 MSTORE PUSH1 0x4 ADD DUP1 DUP1 PUSH1 0x20 ADD DUP3 DUP2 SUB DUP3 MSTORE PUSH1 0x22 DUP2 MSTORE PUSH1 0x20 ADD DUP1 PUSH2 0xF69 PUSH1 0x22 SWAP2 CODECOPY PUSH1 0x40 ADD SWAP2 POP POP PUSH1 0x40 MLOAD DUP1 SWAP2 SUB SWAP1 REVERT JUMPDEST PUSH1 0x1 PUSH1 0x1 PUSH1 0xA0 SHL SUB DUP1 DUP5 AND PUSH1 0x0 DUP2 DUP2 MSTORE PUSH1 0x1 PUSH1 0x20 SWAP1 DUP2 MSTORE PUSH1 0x40 DUP1 DUP4 KECCAK256 SWAP5 DUP8 AND DUP1 DUP5 MSTORE SWAP5 DUP3 MSTORE SWAP2 DUP3 SWAP1 KECCAK256 DUP6 SWAP1 SSTORE DUP2 MLOAD DUP6 DUP2 MSTORE SWAP2 MLOAD PUSH32 0x8C5BE1E5EBEC7D5BD14F71427D1E84F3DD0314C0F7B2291E5B200AC8C7C3B925 SWAP3 DUP2 SWAP1 SUB SWAP1 SWAP2 ADD SWAP1 LOG3 POP POP POP JUMP JUMPDEST PUSH1 0x0 DUP2 DUP5 DUP5 GT ISZERO PUSH2 0xC59 JUMPI PUSH1 0x40 MLOAD PUSH3 0x461BCD PUSH1 0xE5 SHL DUP2 MSTORE PUSH1 0x4 ADD DUP1 DUP1 PUSH1 0x20 ADD DUP3 DUP2 SUB DUP3 MSTORE DUP4 DUP2 DUP2 MLOAD DUP2 MSTORE PUSH1 0x20 ADD SWAP2 POP DUP1 MLOAD SWAP1 PUSH1 0x20 ADD SWAP1 DUP1 DUP4 DUP4 PUSH1 0x0 JUMPDEST DUP4 DUP2 LT ISZERO PUSH2 0xC1E JUMPI DUP2 DUP2 ADD MLOAD DUP4 DUP3 ADD MSTORE PUSH1 0x20 ADD PUSH2 0xC06 JUMP JUMPDEST POP POP POP POP SWAP1 POP SWAP1 DUP2 ADD SWAP1 PUSH1 0x1F AND DUP1 ISZERO PUSH2 0xC4B JUMPI DUP1 DUP3 SUB DUP1 MLOAD PUSH1 0x1 DUP4 PUSH1 0x20 SUB PUSH2 0x100 EXP SUB NOT AND DUP2 MSTORE PUSH1 0x20 ADD SWAP2 POP JUMPDEST POP SWAP3 POP POP POP PUSH1 0x40 MLOAD DUP1 SWAP2 SUB SWAP1 REVERT JUMPDEST POP POP POP SWAP1 SUB SWAP1 JUMP JUMPDEST PUSH1 0x0 DUP3 PUSH2 0xC70 JUMPI POP PUSH1 0x0 PUSH2 0x521 JUMP JUMPDEST DUP3 DUP3 MUL DUP3 DUP5 DUP3 DUP2 PUSH2 0xC7D JUMPI INVALID JUMPDEST DIV EQ PUSH2 0xCBA JUMPI PUSH1 0x40 MLOAD PUSH3 0x461BCD PUSH1 0xE5 SHL DUP2 MSTORE PUSH1 0x4 ADD DUP1 DUP1 PUSH1 0x20 ADD DUP3 DUP2 SUB DUP3 MSTORE PUSH1 0x21 DUP2 MSTORE PUSH1 0x20 ADD DUP1 PUSH2 0xF8B PUSH1 0x21 SWAP2 CODECOPY PUSH1 0x40 ADD SWAP2 POP POP PUSH1 0x40 MLOAD DUP1 SWAP2 SUB SWAP1 REVERT JUMPDEST SWAP4 SWAP3 POP POP POP JUMP JUMPDEST PUSH1 0x0 DUP2 DUP2 DUP2 SLT ISZERO PUSH2 0x521 JUMPI PUSH1 0x0 DUP1 REVERT JUMPDEST PUSH1 0x0 DUP3 DUP3 ADD DUP2 DUP4 SLT DUP1 ISZERO SWAP1 PUSH2 0xCE6 JUMPI POP DUP4 DUP2 SLT ISZERO JUMPDEST DUP1 PUSH2 0xCFB JUMPI POP PUSH1 0x0 DUP4 SLT DUP1 ISZERO PUSH2 0xCFB JUMPI POP DUP4 DUP2 SLT JUMPDEST PUSH2 0xCBA JUMPI PUSH1 0x0 DUP1 REVERT JUMPDEST PUSH1 0x0 DUP1 DUP3 SLT ISZERO PUSH2 0xD13 JUMPI PUSH1 0x0 DUP1 REVERT JUMPDEST POP SWAP1 JUMP JUMPDEST PUSH1 0x0 DUP3 DUP3 ADD DUP4 DUP2 LT ISZERO PUSH2 0xCBA JUMPI PUSH1 0x40 DUP1 MLOAD PUSH3 0x461BCD PUSH1 0xE5 SHL DUP2 MSTORE PUSH1 0x20 PUSH1 0x4 DUP3 ADD MSTORE PUSH1 0x1B PUSH1 0x24 DUP3 ADD MSTORE PUSH32 0x536166654D6174683A206164646974696F6E206F766572666C6F770000000000 PUSH1 0x44 DUP3 ADD MSTORE SWAP1 MLOAD SWAP1 DUP2 SWAP1 SUB PUSH1 0x64 ADD SWAP1 REVERT JUMPDEST PUSH1 0x0 DUP1 PUSH2 0xD7D DUP4 PUSH2 0x84E JUMP JUMPDEST SWAP1 POP DUP1 ISZERO PUSH2 0xEF7 JUMPI PUSH1 0x1 PUSH1 0x1 PUSH1 0xA0 SHL SUB DUP4 AND PUSH1 0x0 SWAP1 DUP2 MSTORE PUSH1 0x8 PUSH1 0x20 MSTORE PUSH1 0x40 SWAP1 KECCAK256 SLOAD PUSH2 0xDA8 SWAP1 DUP3 PUSH2 0xD17 JUMP JUMPDEST PUSH1 0x1 PUSH1 0x1 PUSH1 0xA0 SHL SUB DUP5 AND PUSH1 0x0 DUP2 DUP2 MSTORE PUSH1 0x8 PUSH1 0x20 SWAP1 DUP2 MSTORE PUSH1 0x40 SWAP2 DUP3 SWAP1 KECCAK256 SWAP4 SWAP1 SWAP4 SSTORE DUP1 MLOAD DUP5 DUP2 MSTORE SWAP1 MLOAD SWAP2 SWAP3 PUSH32 0xEE503BEE2BB6A87E57BC57DB795F98137327401A0E7B7CE42E37926CC1A9CA4D SWAP3 SWAP2 DUP3 SWAP1 SUB ADD SWAP1 LOG2 PUSH1 0x0 PUSH32 0x0 PUSH1 0x1 PUSH1 0x1 PUSH1 0xA0 SHL SUB AND PUSH4 0xA9059CBB DUP6 DUP5 PUSH1 0x40 MLOAD DUP4 PUSH4 0xFFFFFFFF AND PUSH1 0xE0 SHL DUP2 MSTORE PUSH1 0x4 ADD DUP1 DUP4 PUSH1 0x1 PUSH1 0x1 PUSH1 0xA0 SHL SUB AND DUP2 MSTORE PUSH1 0x20 ADD DUP3 DUP2 MSTORE PUSH1 0x20 ADD SWAP3 POP POP POP PUSH1 0x20 PUSH1 0x40 MLOAD DUP1 DUP4 SUB DUP2 PUSH1 0x0 DUP8 DUP1 EXTCODESIZE ISZERO DUP1 ISZERO PUSH2 0xE73 JUMPI PUSH1 0x0 DUP1 REVERT JUMPDEST POP GAS CALL ISZERO DUP1 ISZERO PUSH2 0xE87 JUMPI RETURNDATASIZE PUSH1 0x0 DUP1 RETURNDATACOPY RETURNDATASIZE PUSH1 0x0 REVERT JUMPDEST POP POP POP POP PUSH1 0x40 MLOAD RETURNDATASIZE PUSH1 0x20 DUP2 LT ISZERO PUSH2 0xE9D JUMPI PUSH1 0x0 DUP1 REVERT JUMPDEST POP MLOAD SWAP1 POP DUP1 PUSH2 0xEEF JUMPI PUSH1 0x1 PUSH1 0x1 PUSH1 0xA0 SHL SUB DUP5 AND PUSH1 0x0 SWAP1 DUP2 MSTORE PUSH1 0x8 PUSH1 0x20 MSTORE PUSH1 0x40 SWAP1 KECCAK256 SLOAD PUSH2 0xEC9 SWAP1 DUP4 PUSH2 0xF00 JUMP JUMPDEST PUSH1 0x1 PUSH1 0x1 PUSH1 0xA0 SHL SUB DUP6 AND PUSH1 0x0 SWAP1 DUP2 MSTORE PUSH1 0x8 PUSH1 0x20 MSTORE PUSH1 0x40 DUP2 KECCAK256 SWAP2 SWAP1 SWAP2 SSTORE SWAP3 POP PUSH2 0x60E SWAP2 POP POP JUMP JUMPDEST POP SWAP1 POP PUSH2 0x60E JUMP JUMPDEST POP PUSH1 0x0 SWAP3 SWAP2 POP POP JUMP JUMPDEST PUSH1 0x0 PUSH2 0xCBA DUP4 DUP4 PUSH1 0x40 MLOAD DUP1 PUSH1 0x40 ADD PUSH1 0x40 MSTORE DUP1 PUSH1 0x1E DUP2 MSTORE PUSH1 0x20 ADD PUSH32 0x536166654D6174683A207375627472616374696F6E206F766572666C6F770000 DUP2 MSTORE POP PUSH2 0xBCA JUMP INVALID 0x4F PUSH24 0x6E61626C653A206E6577206F776E65722069732074686520 PUSH27 0x65726F206164647265737345524332303A20617070726F76652074 PUSH16 0x20746865207A65726F20616464726573 PUSH20 0x536166654D6174683A206D756C7469706C696361 PUSH21 0x696F6E206F766572666C6F7745524332303A207472 PUSH2 0x6E73 PUSH7 0x657220616D6F75 PUSH15 0x74206578636565647320616C6C6F77 PUSH2 0x6E63 PUSH6 0x45524332303A KECCAK256 PUSH2 0x7070 PUSH19 0x6F76652066726F6D20746865207A65726F2061 PUSH5 0x6472657373 GASLIMIT MSTORE NUMBER ORIGIN ADDRESS GASPRICE KECCAK256 PUSH5 0x6563726561 PUSH20 0x656420616C6C6F77616E63652062656C6F77207A PUSH6 0x726FA2646970 PUSH7 0x7358221220CDB9 0x4A RETURNDATASIZE 0xB1 0xDC 0x48 0xF6 MUL 0xCB 0xAA 0xAD MULMOD 0x21 MSTORE8 SWAP7 0xA8 PUSH12 0x5810D3CA0DCEFBFC5FC9ED4F LOG4 SLOAD PUSH5 0x736F6C6343 STOP MOD 0xC STOP CALLER "
				},
				"gasEstimates": {
					"creation": {
						"codeDepositCost": "835600",
						"executionCost": "infinite",
						"totalCost": "infinite"
					},
					"external": {
						"CAKE()": "infinite",
						"accumulativeDividendOf(address)": "infinite",
						"allowance(address,address)": "1360",
						"approve(address,uint256)": "infinite",
						"balanceOf(address)": "1256",
						"decimals()": "230",
						"decreaseAllowance(address,uint256)": "infinite",
						"distributeCAKEDividends(uint256)": "infinite",
						"dividendOf(address)": "infinite",
						"increaseAllowance(address,uint256)": "infinite",
						"name()": "infinite",
						"owner()": "1082",
						"renounceOwnership()": "24334",
						"symbol()": "infinite",
						"totalDividendsDistributed()": "1021",
						"totalSupply()": "1066",
						"transfer(address,uint256)": "313",
						"transferFrom(address,address,uint256)": "360",
						"transferOwnership(address)": "infinite",
						"withdrawDividend()": "infinite",
						"withdrawableDividendOf(address)": "infinite",
						"withdrawnDividendOf(address)": "1208"
					},
					"internal": {
						"_burn(address,uint256)": "infinite",
						"_mint(address,uint256)": "infinite",
						"_setBalance(address,uint256)": "infinite",
						"_transfer(address,address,uint256)": "infinite",
						"_withdrawDividendOfUser(address payable)": "infinite"
					}
				},
				"methodIdentifiers": {
					"CAKE()": "4ca6ef28",
					"accumulativeDividendOf(address)": "27ce0147",
					"allowance(address,address)": "dd62ed3e",
					"approve(address,uint256)": "095ea7b3",
					"balanceOf(address)": "70a08231",
					"decimals()": "313ce567",
					"decreaseAllowance(address,uint256)": "a457c2d7",
					"distributeCAKEDividends(uint256)": "ba72a955",
					"dividendOf(address)": "91b89fba",
					"increaseAllowance(address,uint256)": "39509351",
					"name()": "06fdde03",
					"owner()": "8da5cb5b",
					"renounceOwnership()": "715018a6",
					"symbol()": "95d89b41",
					"totalDividendsDistributed()": "85a6b3ae",
					"totalSupply()": "18160ddd",
					"transfer(address,uint256)": "a9059cbb",
					"transferFrom(address,address,uint256)": "23b872dd",
					"transferOwnership(address)": "f2fde38b",
					"withdrawDividend()": "6a474002",
					"withdrawableDividendOf(address)": "a8b9d240",
					"withdrawnDividendOf(address)": "aafd847a"
				}
			},
			"storageLayout": {
				"storage": [
					{
						"astId": 526,
						"contract": "DividendPayingToken.sol:DividendPayingToken",
						"label": "_balances",
						"offset": 0,
						"slot": "0",
						"type": "t_mapping(t_address,t_uint256)"
					},
					{
						"astId": 532,
						"contract": "DividendPayingToken.sol:DividendPayingToken",
						"label": "_allowances",
						"offset": 0,
						"slot": "1",
						"type": "t_mapping(t_address,t_mapping(t_address,t_uint256))"
					},
					{
						"astId": 534,
						"contract": "DividendPayingToken.sol:DividendPayingToken",
						"label": "_totalSupply",
						"offset": 0,
						"slot": "2",
						"type": "t_uint256"
					},
					{
						"astId": 536,
						"contract": "DividendPayingToken.sol:DividendPayingToken",
						"label": "_name",
						"offset": 0,
						"slot": "3",
						"type": "t_string_storage"
					},
					{
						"astId": 538,
						"contract": "DividendPayingToken.sol:DividendPayingToken",
						"label": "_symbol",
						"offset": 0,
						"slot": "4",
						"type": "t_string_storage"
					},
					{
						"astId": 2659,
						"contract": "DividendPayingToken.sol:DividendPayingToken",
						"label": "_owner",
						"offset": 0,
						"slot": "5",
						"type": "t_address"
					},
					{
						"astId": 62,
						"contract": "DividendPayingToken.sol:DividendPayingToken",
						"label": "magnifiedDividendPerShare",
						"offset": 0,
						"slot": "6",
						"type": "t_uint256"
					},
					{
						"astId": 66,
						"contract": "DividendPayingToken.sol:DividendPayingToken",
						"label": "magnifiedDividendCorrections",
						"offset": 0,
						"slot": "7",
						"type": "t_mapping(t_address,t_int256)"
					},
					{
						"astId": 70,
						"contract": "DividendPayingToken.sol:DividendPayingToken",
						"label": "withdrawnDividends",
						"offset": 0,
						"slot": "8",
						"type": "t_mapping(t_address,t_uint256)"
					},
					{
						"astId": 72,
						"contract": "DividendPayingToken.sol:DividendPayingToken",
						"label": "totalDividendsDistributed",
						"offset": 0,
						"slot": "9",
						"type": "t_uint256"
					}
				],
				"types": {
					"t_address": {
						"encoding": "inplace",
						"label": "address",
						"numberOfBytes": "20"
					},
					"t_int256": {
						"encoding": "inplace",
						"label": "int256",
						"numberOfBytes": "32"
					},
					"t_mapping(t_address,t_int256)": {
						"encoding": "mapping",
						"key": "t_address",
						"label": "mapping(address => int256)",
						"numberOfBytes": "32",
						"value": "t_int256"
					},
					"t_mapping(t_address,t_mapping(t_address,t_uint256))": {
						"encoding": "mapping",
						"key": "t_address",
						"label": "mapping(address => mapping(address => uint256))",
						"numberOfBytes": "32",
						"value": "t_mapping(t_address,t_uint256)"
					},
					"t_mapping(t_address,t_uint256)": {
						"encoding": "mapping",
						"key": "t_address",
						"label": "mapping(address => uint256)",
						"numberOfBytes": "32",
						"value": "t_uint256"
					},
					"t_string_storage": {
						"encoding": "bytes",
						"label": "string",
						"numberOfBytes": "32"
					},
					"t_uint256": {
						"encoding": "inplace",
						"label": "uint256",
						"numberOfBytes": "32"
					}
				}
			},
			"userdoc": {
				"kind": "user",
				"methods": {
					"accumulativeDividendOf(address)": {
						"notice": "View the amount of dividend in wei that an address has earned in total."
					},
					"dividendOf(address)": {
						"notice": "View the amount of dividend in wei that an address can withdraw."
					},
					"withdrawDividend()": {
						"notice": "Withdraws the ether distributed to the sender."
					},
					"withdrawableDividendOf(address)": {
						"notice": "View the amount of dividend in wei that an address can withdraw."
					},
					"withdrawnDividendOf(address)": {
						"notice": "View the amount of dividend in wei that an address has withdrawn."
					}
				},
				"version": 1
			}
		}
	}
}