{
	"MONEYAVAXDividendTracker.sol": {
		"MONEYAVAXDividendTracker": {
			"abi": [
				{
					"inputs": [],
					"stateMutability": "nonpayable",
					"type": "constructor"
				},
				{
					"anonymous": false,
					"inputs": [
						{
							"indexed": true,
							"internalType": "address",
							"name": "owner",
							"type": "address"
						},
						{
							"indexed": true,
							"internalType": "address",
							"name": "spender",
							"type": "address"
						},
						{
							"indexed": false,
							"internalType": "uint256",
							"name": "value",
							"type": "uint256"
						}
					],
					"name": "Approval",
					"type": "event"
				},
				{
					"anonymous": false,
					"inputs": [
						{
							"indexed": true,
							"internalType": "address",
							"name": "account",
							"type": "address"
						},
						{
							"indexed": false,
							"internalType": "uint256",
							"name": "amount",
							"type": "uint256"
						},
						{
							"indexed": true,
							"internalType": "bool",
							"name": "automatic",
							"type": "bool"
						}
					],
					"name": "Claim",
					"type": "event"
				},
				{
					"anonymous": false,
					"inputs": [
						{
							"indexed": true,
							"internalType": "uint256",
							"name": "newValue",
							"type": "uint256"
						},
						{
							"indexed": true,
							"internalType": "uint256",
							"name": "oldValue",
							"type": "uint256"
						}
					],
					"name": "ClaimWaitUpdated",
					"type": "event"
				},
				{
					"anonymous": false,
					"inputs": [
						{
							"indexed": true,
							"internalType": "address",
							"name": "to",
							"type": "address"
						},
						{
							"indexed": false,
							"internalType": "uint256",
							"name": "weiAmount",
							"type": "uint256"
						}
					],
					"name": "DividendWithdrawn",
					"type": "event"
				},
				{
					"anonymous": false,
					"inputs": [
						{
							"indexed": true,
							"internalType": "address",
							"name": "from",
							"type": "address"
						},
						{
							"indexed": false,
							"internalType": "uint256",
							"name": "weiAmount",
							"type": "uint256"
						}
					],
					"name": "DividendsDistributed",
					"type": "event"
				},
				{
					"anonymous": false,
					"inputs": [
						{
							"indexed": true,
							"internalType": "address",
							"name": "account",
							"type": "address"
						}
					],
					"name": "ExcludeFromDividends",
					"type": "event"
				},
				{
					"anonymous": false,
					"inputs": [
						{
							"indexed": true,
							"internalType": "address",
							"name": "previousOwner",
							"type": "address"
						},
						{
							"indexed": true,
							"internalType": "address",
							"name": "newOwner",
							"type": "address"
						}
					],
					"name": "OwnershipTransferred",
					"type": "event"
				},
				{
					"anonymous": false,
					"inputs": [
						{
							"indexed": true,
							"internalType": "address",
							"name": "from",
							"type": "address"
						},
						{
							"indexed": true,
							"internalType": "address",
							"name": "to",
							"type": "address"
						},
						{
							"indexed": false,
							"internalType": "uint256",
							"name": "value",
							"type": "uint256"
						}
					],
					"name": "Transfer",
					"type": "event"
				},
				{
					"inputs": [],
					"name": "CAKE",
					"outputs": [
						{
							"internalType": "address",
							"name": "",
							"type": "address"
						}
					],
					"stateMutability": "view",
					"type": "function"
				},
				{
					"inputs": [
						{
							"internalType": "address",
							"name": "_owner",
							"type": "address"
						}
					],
					"name": "accumulativeDividendOf",
					"outputs": [
						{
							"internalType": "uint256",
							"name": "",
							"type": "uint256"
						}
					],
					"stateMutability": "view",
					"type": "function"
				},
				{
					"inputs": [
						{
							"internalType": "address",
							"name": "owner",
							"type": "address"
						},
						{
							"internalType": "address",
							"name": "spender",
							"type": "address"
						}
					],
					"name": "allowance",
					"outputs": [
						{
							"internalType": "uint256",
							"name": "",
							"type": "uint256"
						}
					],
					"stateMutability": "view",
					"type": "function"
				},
				{
					"inputs": [
						{
							"internalType": "address",
							"name": "spender",
							"type": "address"
						},
						{
							"internalType": "uint256",
							"name": "amount",
							"type": "uint256"
						}
					],
					"name": "approve",
					"outputs": [
						{
							"internalType": "bool",
							"name": "",
							"type": "bool"
						}
					],
					"stateMutability": "nonpayable",
					"type": "function"
				},
				{
					"inputs": [
						{
							"internalType": "address",
							"name": "account",
							"type": "address"
						}
					],
					"name": "balanceOf",
					"outputs": [
						{
							"internalType": "uint256",
							"name": "",
							"type": "uint256"
						}
					],
					"stateMutability": "view",
					"type": "function"
				},
				{
					"inputs": [],
					"name": "claimWait",
					"outputs": [
						{
							"internalType": "uint256",
							"name": "",
							"type": "uint256"
						}
					],
					"stateMutability": "view",
					"type": "function"
				},
				{
					"inputs": [],
					"name": "decimals",
					"outputs": [
						{
							"internalType": "uint8",
							"name": "",
							"type": "uint8"
						}
					],
					"stateMutability": "view",
					"type": "function"
				},
				{
					"inputs": [
						{
							"internalType": "address",
							"name": "spender",
							"type": "address"
						},
						{
							"internalType": "uint256",
							"name": "subtractedValue",
							"type": "uint256"
						}
					],
					"name": "decreaseAllowance",
					"outputs": [
						{
							"internalType": "bool",
							"name": "",
							"type": "bool"
						}
					],
					"stateMutability": "nonpayable",
					"type": "function"
				},
				{
					"inputs": [
						{
							"internalType": "uint256",
							"name": "amount",
							"type": "uint256"
						}
					],
					"name": "distributeCAKEDividends",
					"outputs": [],
					"stateMutability": "nonpayable",
					"type": "function"
				},
				{
					"inputs": [
						{
							"internalType": "address",
							"name": "_owner",
							"type": "address"
						}
					],
					"name": "dividendOf",
					"outputs": [
						{
							"internalType": "uint256",
							"name": "",
							"type": "uint256"
						}
					],
					"stateMutability": "view",
					"type": "function"
				},
				{
					"inputs": [
						{
							"internalType": "address",
							"name": "account",
							"type": "address"
						}
					],
					"name": "excludeFromDividends",
					"outputs": [],
					"stateMutability": "nonpayable",
					"type": "function"
				},
				{
					"inputs": [
						{
							"internalType": "address",
							"name": "",
							"type": "address"
						}
					],
					"name": "excludedFromDividends",
					"outputs": [
						{
							"internalType": "bool",
							"name": "",
							"type": "bool"
						}
					],
					"stateMutability": "view",
					"type": "function"
				},
				{
					"inputs": [
						{
							"internalType": "address",
							"name": "_account",
							"type": "address"
						}
					],
					"name": "getAccount",
					"outputs": [
						{
							"internalType": "address",
							"name": "account",
							"type": "address"
						},
						{
							"internalType": "int256",
							"name": "index",
							"type": "int256"
						},
						{
							"internalType": "int256",
							"name": "iterationsUntilProcessed",
							"type": "int256"
						},
						{
							"internalType": "uint256",
							"name": "withdrawableDividends",
							"type": "uint256"
						},
						{
							"internalType": "uint256",
							"name": "totalDividends",
							"type": "uint256"
						},
						{
							"internalType": "uint256",
							"name": "lastClaimTime",
							"type": "uint256"
						},
						{
							"internalType": "uint256",
							"name": "nextClaimTime",
							"type": "uint256"
						},
						{
							"internalType": "uint256",
							"name": "secondsUntilAutoClaimAvailable",
							"type": "uint256"
						}
					],
					"stateMutability": "view",
					"type": "function"
				},
				{
					"inputs": [
						{
							"internalType": "uint256",
							"name": "index",
							"type": "uint256"
						}
					],
					"name": "getAccountAtIndex",
					"outputs": [
						{
							"internalType": "address",
							"name": "",
							"type": "address"
						},
						{
							"internalType": "int256",
							"name": "",
							"type": "int256"
						},
						{
							"internalType": "int256",
							"name": "",
							"type": "int256"
						},
						{
							"internalType": "uint256",
							"name": "",
							"type": "uint256"
						},
						{
							"internalType": "uint256",
							"name": "",
							"type": "uint256"
						},
						{
							"internalType": "uint256",
							"name": "",
							"type": "uint256"
						},
						{
							"internalType": "uint256",
							"name": "",
							"type": "uint256"
						},
						{
							"internalType": "uint256",
							"name": "",
							"type": "uint256"
						}
					],
					"stateMutability": "view",
					"type": "function"
				},
				{
					"inputs": [],
					"name": "getLastProcessedIndex",
					"outputs": [
						{
							"internalType": "uint256",
							"name": "",
							"type": "uint256"
						}
					],
					"stateMutability": "view",
					"type": "function"
				},
				{
					"inputs": [],
					"name": "getNumberOfTokenHolders",
					"outputs": [
						{
							"internalType": "uint256",
							"name": "",
							"type": "uint256"
						}
					],
					"stateMutability": "view",
					"type": "function"
				},
				{
					"inputs": [
						{
							"internalType": "address",
							"name": "spender",
							"type": "address"
						},
						{
							"internalType": "uint256",
							"name": "addedValue",
							"type": "uint256"
						}
					],
					"name": "increaseAllowance",
					"outputs": [
						{
							"internalType": "bool",
							"name": "",
							"type": "bool"
						}
					],
					"stateMutability": "nonpayable",
					"type": "function"
				},
				{
					"inputs": [
						{
							"internalType": "address",
							"name": "",
							"type": "address"
						}
					],
					"name": "lastClaimTimes",
					"outputs": [
						{
							"internalType": "uint256",
							"name": "",
							"type": "uint256"
						}
					],
					"stateMutability": "view",
					"type": "function"
				},
				{
					"inputs": [],
					"name": "lastProcessedIndex",
					"outputs": [
						{
							"internalType": "uint256",
							"name": "",
							"type": "uint256"
						}
					],
					"stateMutability": "view",
					"type": "function"
				},
				{
					"inputs": [],
					"name": "minimumTokenBalanceForDividends",
					"outputs": [
						{
							"internalType": "uint256",
							"name": "",
							"type": "uint256"
						}
					],
					"stateMutability": "view",
					"type": "function"
				},
				{
					"inputs": [],
					"name": "name",
					"outputs": [
						{
							"internalType": "string",
							"name": "",
							"type": "string"
						}
					],
					"stateMutability": "view",
					"type": "function"
				},
				{
					"inputs": [],
					"name": "owner",
					"outputs": [
						{
							"internalType": "address",
							"name": "",
							"type": "address"
						}
					],
					"stateMutability": "view",
					"type": "function"
				},
				{
					"inputs": [
						{
							"internalType": "uint256",
							"name": "gas",
							"type": "uint256"
						}
					],
					"name": "process",
					"outputs": [
						{
							"internalType": "uint256",
							"name": "",
							"type": "uint256"
						},
						{
							"internalType": "uint256",
							"name": "",
							"type": "uint256"
						},
						{
							"internalType": "uint256",
							"name": "",
							"type": "uint256"
						}
					],
					"stateMutability": "nonpayable",
					"type": "function"
				},
				{
					"inputs": [
						{
							"internalType": "address payable",
							"name": "account",
							"type": "address"
						},
						{
							"internalType": "bool",
							"name": "automatic",
							"type": "bool"
						}
					],
					"name": "processAccount",
					"outputs": [
						{
							"internalType": "bool",
							"name": "",
							"type": "bool"
						}
					],
					"stateMutability": "nonpayable",
					"type": "function"
				},
				{
					"inputs": [],
					"name": "renounceOwnership",
					"outputs": [],
					"stateMutability": "nonpayable",
					"type": "function"
				},
				{
					"inputs": [
						{
							"internalType": "address payable",
							"name": "account",
							"type": "address"
						},
						{
							"internalType": "uint256",
							"name": "newBalance",
							"type": "uint256"
						}
					],
					"name": "setBalance",
					"outputs": [],
					"stateMutability": "nonpayable",
					"type": "function"
				},
				{
					"inputs": [],
					"name": "symbol",
					"outputs": [
						{
							"internalType": "string",
							"name": "",
							"type": "string"
						}
					],
					"stateMutability": "view",
					"type": "function"
				},
				{
					"inputs": [],
					"name": "totalDividendsDistributed",
					"outputs": [
						{
							"internalType": "uint256",
							"name": "",
							"type": "uint256"
						}
					],
					"stateMutability": "view",
					"type": "function"
				},
				{
					"inputs": [],
					"name": "totalSupply",
					"outputs": [
						{
							"internalType": "uint256",
							"name": "",
							"type": "uint256"
						}
					],
					"stateMutability": "view",
					"type": "function"
				},
				{
					"inputs": [
						{
							"internalType": "address",
							"name": "recipient",
							"type": "address"
						},
						{
							"internalType": "uint256",
							"name": "amount",
							"type": "uint256"
						}
					],
					"name": "transfer",
					"outputs": [
						{
							"internalType": "bool",
							"name": "",
							"type": "bool"
						}
					],
					"stateMutability": "nonpayable",
					"type": "function"
				},
				{
					"inputs": [
						{
							"internalType": "address",
							"name": "sender",
							"type": "address"
						},
						{
							"internalType": "address",
							"name": "recipient",
							"type": "address"
						},
						{
							"internalType": "uint256",
							"name": "amount",
							"type": "uint256"
						}
					],
					"name": "transferFrom",
					"outputs": [
						{
							"internalType": "bool",
							"name": "",
							"type": "bool"
						}
					],
					"stateMutability": "nonpayable",
					"type": "function"
				},
				{
					"inputs": [
						{
							"internalType": "address",
							"name": "newOwner",
							"type": "address"
						}
					],
					"name": "transferOwnership",
					"outputs": [],
					"stateMutability": "nonpayable",
					"type": "function"
				},
				{
					"inputs": [
						{
							"internalType": "uint256",
							"name": "newClaimWait",
							"type": "uint256"
						}
					],
					"name": "updateClaimWait",
					"outputs": [],
					"stateMutability": "nonpayable",
					"type": "function"
				},
				{
					"inputs": [],
					"name": "withdrawDividend",
					"outputs": [],
					"stateMutability": "nonpayable",
					"type": "function"
				},
				{
					"inputs": [
						{
							"internalType": "address",
							"name": "_owner",
							"type": "address"
						}
					],
					"name": "withdrawableDividendOf",
					"outputs": [
						{
							"internalType": "uint256",
							"name": "",
							"type": "uint256"
						}
					],
					"stateMutability": "view",
					"type": "function"
				},
				{
					"inputs": [
						{
							"internalType": "address",
							"name": "_owner",
							"type": "address"
						}
					],
					"name": "withdrawnDividendOf",
					"outputs": [
						{
							"internalType": "uint256",
							"name": "",
							"type": "uint256"
						}
					],
					"stateMutability": "view",
					"type": "function"
				}
			],
			"devdoc": {
				"kind": "dev",
				"methods": {
					"accumulativeDividendOf(address)": {
						"details": "accumulativeDividendOf(_owner) = withdrawableDividendOf(_owner) + withdrawnDividendOf(_owner) = (magnifiedDividendPerShare * balanceOf(_owner) + magnifiedDividendCorrections[_owner]) / magnitude",
						"params": {
							"_owner": "The address of a token holder."
						},
						"returns": {
							"_0": "The amount of dividend in wei that `_owner` has earned in total."
						}
					},
					"allowance(address,address)": {
						"details": "See {IERC20-allowance}."
					},
					"approve(address,uint256)": {
						"details": "See {IERC20-approve}. Requirements: - `spender` cannot be the zero address."
					},
					"balanceOf(address)": {
						"details": "See {IERC20-balanceOf}."
					},
					"decimals()": {
						"details": "Returns the number of decimals used to get its user representation. For example, if `decimals` equals `2`, a balance of `505` tokens should be displayed to a user as `5,05` (`505 / 10 ** 2`). Tokens usually opt for a value of 18, imitating the relationship between Ether and Wei. This is the value {ERC20} uses, unless this function is overridden; NOTE: This information is only used for _display_ purposes: it in no way affects any of the arithmetic of the contract, including {IERC20-balanceOf} and {IERC20-transfer}."
					},
					"decreaseAllowance(address,uint256)": {
						"details": "Atomically decreases the allowance granted to `spender` by the caller. This is an alternative to {approve} that can be used as a mitigation for problems described in {IERC20-approve}. Emits an {Approval} event indicating the updated allowance. Requirements: - `spender` cannot be the zero address. - `spender` must have allowance for the caller of at least `subtractedValue`."
					},
					"dividendOf(address)": {
						"params": {
							"_owner": "The address of a token holder."
						},
						"returns": {
							"_0": "The amount of dividend in wei that `_owner` can withdraw."
						}
					},
					"increaseAllowance(address,uint256)": {
						"details": "Atomically increases the allowance granted to `spender` by the caller. This is an alternative to {approve} that can be used as a mitigation for problems described in {IERC20-approve}. Emits an {Approval} event indicating the updated allowance. Requirements: - `spender` cannot be the zero address."
					},
					"name()": {
						"details": "Returns the name of the token."
					},
					"owner()": {
						"details": "Returns the address of the current owner."
					},
					"renounceOwnership()": {
						"details": "Leaves the contract without owner. It will not be possible to call `onlyOwner` functions anymore. Can only be called by the current owner. NOTE: Renouncing ownership will leave the contract without an owner, thereby removing any functionality that is only available to the owner."
					},
					"symbol()": {
						"details": "Returns the symbol of the token, usually a shorter version of the name."
					},
					"totalSupply()": {
						"details": "See {IERC20-totalSupply}."
					},
					"transfer(address,uint256)": {
						"details": "See {IERC20-transfer}. Requirements: - `recipient` cannot be the zero address. - the caller must have a balance of at least `amount`."
					},
					"transferFrom(address,address,uint256)": {
						"details": "See {IERC20-transferFrom}. Emits an {Approval} event indicating the updated allowance. This is not required by the EIP. See the note at the beginning of {ERC20}. Requirements: - `sender` and `recipient` cannot be the zero address. - `sender` must have a balance of at least `amount`. - the caller must have allowance for ``sender``'s tokens of at least `amount`."
					},
					"transferOwnership(address)": {
						"details": "Transfers ownership of the contract to a new account (`newOwner`). Can only be called by the current owner."
					},
					"withdrawDividend()": {
						"details": "It emits a `DividendWithdrawn` event if the amount of withdrawn ether is greater than 0."
					},
					"withdrawableDividendOf(address)": {
						"params": {
							"_owner": "The address of a token holder."
						},
						"returns": {
							"_0": "The amount of dividend in wei that `_owner` can withdraw."
						}
					},
					"withdrawnDividendOf(address)": {
						"params": {
							"_owner": "The address of a token holder."
						},
						"returns": {
							"_0": "The amount of dividend in wei that `_owner` has withdrawn."
						}
					}
				},
				"version": 1
			},
			"evm": {
				"assembly": "    /* \"MONEYAVAXDividendTracker.sol\":319:6790  contract MONEYAVAXDividendTracker is Ownable, DividendPayingToken {... */\n  mstore(0x40, 0xc0)\n    /* \"DividendPayingToken.sol\":1099:1182  address public immutable CAKE = address(0xB6076C93701D6a07266c31066B298AeC6dd65c2d) */\n  mstore(0x80, 0xb6076c93701d6a07266c31066b298aec6dd65c2d000000000000000000000000)\n    /* \"MONEYAVAXDividendTracker.sol\":1030:1248  constructor() public DividendPayingToken(\"MONEYAVAX_Dividen_Tracker\", \"MONEYAVAX_Dividend_Tracker\") {... */\n  callvalue\n  dup1\n  iszero\n  tag_1\n  jumpi\n  0x00\n  dup1\n  revert\ntag_1:\n  pop\n    /* \"DividendPayingToken.sol\":2613:2704  constructor(string memory _name, string memory _symbol) public ERC20(_name, _symbol) {... */\n  0x40\n  dup1\n  mload\n  dup1\n  dup3\n  add\n  dup3\n  mstore\n  0x19\n  dup2\n  mstore\n  0x4d4f4e4559415641585f4469766964656e5f547261636b657200000000000000\n  0x20\n  dup1\n  dup4\n  add\n  swap2\n  dup3\n  mstore\n  dup4\n  mload\n  dup1\n  dup6\n  add\n  swap1\n  swap5\n  mstore\n  0x1a\n  dup5\n  mstore\n  0x4d4f4e4559415641585f4469766964656e645f547261636b6572000000000000\n  swap1\n  dup5\n  add\n  mstore\n    /* \"ERC20.sol\":2006:2019  _name = name_ */\n  dup2\n  mload\n    /* \"DividendPayingToken.sol\":2613:2704  constructor(string memory _name, string memory _symbol) public ERC20(_name, _symbol) {... */\n  swap2\n  swap3\n  swap2\n  dup4\n  swap2\n  dup4\n  swap2\n    /* \"ERC20.sol\":2006:2019  _name = name_ */\n  tag_7\n  swap2\n    /* \"ERC20.sol\":2006:2011  _name */\n  0x03\n  swap2\n    /* \"ERC20.sol\":2006:2019  _name = name_ */\n  tag_8\n  jump\t// in\ntag_7:\n  pop\n    /* \"ERC20.sol\":2029:2046  _symbol = symbol_ */\n  dup1\n  mload\n  tag_9\n  swap1\n    /* \"ERC20.sol\":2029:2036  _symbol */\n  0x04\n  swap1\n    /* \"ERC20.sol\":2029:2046  _symbol = symbol_ */\n  0x20\n  dup5\n  add\n  swap1\n  tag_8\n  jump\t// in\ntag_9:\n  pop\n    /* \"ERC20.sol\":1933:2053  constructor(string memory name_, string memory symbol_) public {... */\n  pop\n  pop\n    /* \"Ownable.sol\":372:389  address msgSender */\n  0x00\n    /* \"Ownable.sol\":392:404  _msgSender() */\n  tag_11\n    /* \"Ownable.sol\":392:402  _msgSender */\n  shl(0x20, tag_12)\n    /* \"Ownable.sol\":392:404  _msgSender() */\n  0x20\n  shr\n  jump\t// in\ntag_11:\n    /* \"Ownable.sol\":414:420  _owner */\n  0x05\n    /* \"Ownable.sol\":414:432  _owner = msgSender */\n  dup1\n  sload\n  not(sub(shl(0xa0, 0x01), 0x01))\n  and\n  sub(shl(0xa0, 0x01), 0x01)\n  dup4\n  and\n  swap1\n  dup2\n  or\n  swap1\n  swap2\n  sstore\n    /* \"Ownable.sol\":447:490  OwnershipTransferred(address(0), msgSender) */\n  mload(0x40)\n    /* \"Ownable.sol\":414:432  _owner = msgSender */\n  swap2\n  swap3\n  pop\n  swap1\n  0x00\n  swap1\n    /* \"Ownable.sol\":447:490  OwnershipTransferred(address(0), msgSender) */\n  0x8be0079c531659141344cd1fd0a4f28419497f9722a3daafe3b4186f6b6457e0\n  swap1\n  dup3\n  swap1\n  log3\n  pop\n  pop\n    /* \"MONEYAVAXDividendTracker.sol\":1149:1153  3600 */\n  0x0e10\n    /* \"MONEYAVAXDividendTracker.sol\":1137:1146  claimWait */\n  0x11\n    /* \"MONEYAVAXDividendTracker.sol\":1137:1153  claimWait = 3600 */\n  sstore\n  pop\n    /* \"MONEYAVAXDividendTracker.sol\":1197:1214  200000 * (10**18) */\n  0x2a5a058fc295ed000000\n    /* \"MONEYAVAXDividendTracker.sol\":1163:1214  minimumTokenBalanceForDividends = 200000 * (10**18) */\n  0xa0\n  mstore\n    /* \"MONEYAVAXDividendTracker.sol\":319:6790  contract MONEYAVAXDividendTracker is Ownable, DividendPayingToken {... */\n  jump(tag_15)\n    /* \"Context.sol\":586:682  function _msgSender() internal view virtual returns (address) {... */\ntag_12:\n    /* \"Context.sol\":665:675  msg.sender */\n  caller\n    /* \"Context.sol\":586:682  function _msgSender() internal view virtual returns (address) {... */\n  swap1\n  jump\t// out\n    /* \"MONEYAVAXDividendTracker.sol\":319:6790  contract MONEYAVAXDividendTracker is Ownable, DividendPayingToken {... */\ntag_8:\n  dup3\n  dup1\n  sload\n  0x01\n  dup2\n  0x01\n  and\n  iszero\n  0x0100\n  mul\n  sub\n  and\n  0x02\n  swap1\n  div\n  swap1\n  0x00\n  mstore\n  keccak256(0x00, 0x20)\n  swap1\n  0x1f\n  add\n  0x20\n  swap1\n  div\n  dup2\n  add\n  swap3\n  dup3\n  0x1f\n  lt\n  tag_18\n  jumpi\n  dup1\n  mload\n  not(0xff)\n  and\n  dup4\n  dup1\n  add\n  or\n  dup6\n  sstore\n  jump(tag_20)\ntag_18:\n  dup3\n  dup1\n  add\n  0x01\n  add\n  dup6\n  sstore\n  dup3\n  iszero\n  tag_20\n  jumpi\n  swap2\n  dup3\n  add\ntag_19:\n  dup3\n  dup2\n  gt\n  iszero\n  tag_20\n  jumpi\n  dup3\n  mload\n  dup3\n  sstore\n  swap2\n  0x20\n  add\n  swap2\n  swap1\n  0x01\n  add\n  swap1\n  jump(tag_19)\ntag_20:\n  pop\n  tag_21\n  swap3\n  swap2\n  pop\n  tag_22\n  jump\t// in\ntag_21:\n  pop\n  swap1\n  jump\t// out\ntag_22:\ntag_23:\n  dup1\n  dup3\n  gt\n  iszero\n  tag_21\n  jumpi\n  0x00\n  dup2\n  sstore\n  0x01\n  add\n  jump(tag_23)\ntag_15:\n  shr(0x60, mload(0x80))\n  mload(0xa0)\n  codecopy(0x00, dataOffset(sub_0), dataSize(sub_0))\n  assignImmutable(\"0xd188a1da6d6dfc972f5d1614b9a5ea681202f643e26bdaa8898fb08d79dc84fc\")\n  assignImmutable(\"0x6590fa52fa76f967656340b874bc9ca09733c2fddea9886210ebcbbceee04b35\")\n  return(0x00, dataSize(sub_0))\nstop\n\nsub_0: assembly {\n        /* \"MONEYAVAXDividendTracker.sol\":319:6790  contract MONEYAVAXDividendTracker is Ownable, DividendPayingToken {... */\n      mstore(0x40, 0x80)\n      callvalue\n      dup1\n      iszero\n      tag_1\n      jumpi\n      0x00\n      dup1\n      revert\n    tag_1:\n      pop\n      jumpi(tag_2, lt(calldatasize, 0x04))\n      shr(0xe0, calldataload(0x00))\n      dup1\n      0x85a6b3ae\n      gt\n      tag_39\n      jumpi\n      dup1\n      0xbc4c4b37\n      gt\n      tag_40\n      jumpi\n      dup1\n      0xe7841ec0\n      gt\n      tag_41\n      jumpi\n      dup1\n      0xe7841ec0\n      eq\n      tag_34\n      jumpi\n      dup1\n      0xe98030c7\n      eq\n      tag_35\n      jumpi\n      dup1\n      0xf2fde38b\n      eq\n      tag_36\n      jumpi\n      dup1\n      0xfbcbc0f1\n      eq\n      tag_37\n      jumpi\n      dup1\n      0xffb2c479\n      eq\n      tag_38\n      jumpi\n      jump(tag_2)\n    tag_41:\n      dup1\n      0xbc4c4b37\n      eq\n      tag_30\n      jumpi\n      dup1\n      0xbe10b614\n      eq\n      tag_31\n      jumpi\n      dup1\n      0xdd62ed3e\n      eq\n      tag_32\n      jumpi\n      dup1\n      0xe30443bc\n      eq\n      tag_33\n      jumpi\n      jump(tag_2)\n    tag_40:\n      dup1\n      0xa457c2d7\n      gt\n      tag_42\n      jumpi\n      dup1\n      0xa457c2d7\n      eq\n      tag_25\n      jumpi\n      dup1\n      0xa8b9d240\n      eq\n      tag_26\n      jumpi\n      dup1\n      0xa9059cbb\n      eq\n      tag_27\n      jumpi\n      dup1\n      0xaafd847a\n      eq\n      tag_28\n      jumpi\n      dup1\n      0xba72a955\n      eq\n      tag_29\n      jumpi\n      jump(tag_2)\n    tag_42:\n      dup1\n      0x85a6b3ae\n      eq\n      tag_21\n      jumpi\n      dup1\n      0x8da5cb5b\n      eq\n      tag_22\n      jumpi\n      dup1\n      0x91b89fba\n      eq\n      tag_23\n      jumpi\n      dup1\n      0x95d89b41\n      eq\n      tag_24\n      jumpi\n      jump(tag_2)\n    tag_39:\n      dup1\n      0x31e79db0\n      gt\n      tag_43\n      jumpi\n      dup1\n      0x5183d6fd\n      gt\n      tag_44\n      jumpi\n      dup1\n      0x5183d6fd\n      eq\n      tag_16\n      jumpi\n      dup1\n      0x6a474002\n      eq\n      tag_17\n      jumpi\n      dup1\n      0x6f2789ec\n      eq\n      tag_18\n      jumpi\n      dup1\n      0x70a08231\n      eq\n      tag_19\n      jumpi\n      dup1\n      0x715018a6\n      eq\n      tag_20\n      jumpi\n      jump(tag_2)\n    tag_44:\n      dup1\n      0x31e79db0\n      eq\n      tag_12\n      jumpi\n      dup1\n      0x39509351\n      eq\n      tag_13\n      jumpi\n      dup1\n      0x4ca6ef28\n      eq\n      tag_14\n      jumpi\n      dup1\n      0x4e7b827f\n      eq\n      tag_15\n      jumpi\n      jump(tag_2)\n    tag_43:\n      dup1\n      0x226cfa3d\n      gt\n      tag_45\n      jumpi\n      dup1\n      0x226cfa3d\n      eq\n      tag_7\n      jumpi\n      dup1\n      0x23b872dd\n      eq\n      tag_8\n      jumpi\n      dup1\n      0x27ce0147\n      eq\n      tag_9\n      jumpi\n      dup1\n      0x3009a609\n      eq\n      tag_10\n      jumpi\n      dup1\n      0x313ce567\n      eq\n      tag_11\n      jumpi\n      jump(tag_2)\n    tag_45:\n      dup1\n      0x06fdde03\n      eq\n      tag_3\n      jumpi\n      dup1\n      0x095ea7b3\n      eq\n      tag_4\n      jumpi\n      dup1\n      0x09bbedde\n      eq\n      tag_5\n      jumpi\n      dup1\n      0x18160ddd\n      eq\n      tag_6\n      jumpi\n    tag_2:\n      0x00\n      dup1\n      revert\n        /* \"ERC20.sol\":2118:2216  function name() public view virtual override returns (string memory) {... */\n    tag_3:\n      tag_46\n      tag_47\n      jump\t// in\n    tag_46:\n      0x40\n      dup1\n      mload\n      0x20\n      dup1\n      dup3\n      mstore\n      dup4\n      mload\n      dup2\n      dup4\n      add\n      mstore\n      dup4\n      mload\n      swap2\n      swap3\n      dup4\n      swap3\n      swap1\n      dup4\n      add\n      swap2\n      dup6\n      add\n      swap1\n      dup1\n      dup4\n      dup4\n      0x00\n    tag_48:\n      dup4\n      dup2\n      lt\n      iszero\n      tag_50\n      jumpi\n      dup2\n      dup2\n      add\n      mload\n      dup4\n      dup3\n      add\n      mstore\n      0x20\n      add\n      jump(tag_48)\n    tag_50:\n      pop\n      pop\n      pop\n      pop\n      swap1\n      pop\n      swap1\n      dup2\n      add\n      swap1\n      0x1f\n      and\n      dup1\n      iszero\n      tag_51\n      jumpi\n      dup1\n      dup3\n      sub\n      dup1\n      mload\n      0x01\n      dup4\n      0x20\n      sub\n      0x0100\n      exp\n      sub\n      not\n      and\n      dup2\n      mstore\n      0x20\n      add\n      swap2\n      pop\n    tag_51:\n      pop\n      swap3\n      pop\n      pop\n      pop\n      mload(0x40)\n      dup1\n      swap2\n      sub\n      swap1\n      return\n        /* \"ERC20.sol\":4215:4381  function approve(address spender, uint256 amount) public virtual override returns (bool) {... */\n    tag_4:\n      tag_52\n      0x04\n      dup1\n      calldatasize\n      sub\n      0x40\n      dup2\n      lt\n      iszero\n      tag_53\n      jumpi\n      0x00\n      dup1\n      revert\n    tag_53:\n      pop\n      sub(shl(0xa0, 0x01), 0x01)\n      dup2\n      calldataload\n      and\n      swap1\n      0x20\n      add\n      calldataload\n      tag_54\n      jump\t// in\n    tag_52:\n      0x40\n      dup1\n      mload\n      swap2\n      iszero\n      iszero\n      dup3\n      mstore\n      mload\n      swap1\n      dup2\n      swap1\n      sub\n      0x20\n      add\n      swap1\n      return\n        /* \"MONEYAVAXDividendTracker.sol\":2422:2539  function getNumberOfTokenHolders() external view returns(uint256) {... */\n    tag_5:\n      tag_55\n      tag_56\n      jump\t// in\n    tag_55:\n      0x40\n      dup1\n      mload\n      swap2\n      dup3\n      mstore\n      mload\n      swap1\n      dup2\n      swap1\n      sub\n      0x20\n      add\n      swap1\n      return\n        /* \"ERC20.sol\":3206:3312  function totalSupply() public view virtual override returns (uint256) {... */\n    tag_6:\n      tag_55\n      tag_58\n      jump\t// in\n        /* \"MONEYAVAXDividendTracker.sol\":659:709  mapping (address => uint256) public lastClaimTimes */\n    tag_7:\n      tag_55\n      0x04\n      dup1\n      calldatasize\n      sub\n      0x20\n      dup2\n      lt\n      iszero\n      tag_60\n      jumpi\n      0x00\n      dup1\n      revert\n    tag_60:\n      pop\n      calldataload\n      sub(shl(0xa0, 0x01), 0x01)\n      and\n      tag_61\n      jump\t// in\n        /* \"ERC20.sol\":4848:5195  function transferFrom(... */\n    tag_8:\n      tag_52\n      0x04\n      dup1\n      calldatasize\n      sub\n      0x60\n      dup2\n      lt\n      iszero\n      tag_63\n      jumpi\n      0x00\n      dup1\n      revert\n    tag_63:\n      pop\n      sub(shl(0xa0, 0x01), 0x01)\n      dup2\n      calldataload\n      dup2\n      and\n      swap2\n      0x20\n      dup2\n      add\n      calldataload\n      swap1\n      swap2\n      and\n      swap1\n      0x40\n      add\n      calldataload\n      tag_64\n      jump\t// in\n        /* \"DividendPayingToken.sol\":5587:5831  function accumulativeDividendOf(address _owner) public view override returns(uint256) {... */\n    tag_9:\n      tag_55\n      0x04\n      dup1\n      calldatasize\n      sub\n      0x20\n      dup2\n      lt\n      iszero\n      tag_66\n      jumpi\n      0x00\n      dup1\n      revert\n    tag_66:\n      pop\n      calldataload\n      sub(shl(0xa0, 0x01), 0x01)\n      and\n      tag_67\n      jump\t// in\n        /* \"MONEYAVAXDividendTracker.sol\":558:591  uint256 public lastProcessedIndex */\n    tag_10:\n      tag_55\n      tag_69\n      jump\t// in\n        /* \"ERC20.sol\":3055:3146  function decimals() public view virtual override returns (uint8) {... */\n    tag_11:\n      tag_70\n      tag_71\n      jump\t// in\n    tag_70:\n      0x40\n      dup1\n      mload\n      0xff\n      swap1\n      swap3\n      and\n      dup3\n      mstore\n      mload\n      swap1\n      dup2\n      swap1\n      sub\n      0x20\n      add\n      swap1\n      return\n        /* \"MONEYAVAXDividendTracker.sol\":1603:1878  function excludeFromDividends(address account) external onlyOwner {... */\n    tag_12:\n      tag_72\n      0x04\n      dup1\n      calldatasize\n      sub\n      0x20\n      dup2\n      lt\n      iszero\n      tag_73\n      jumpi\n      0x00\n      dup1\n      revert\n    tag_73:\n      pop\n      calldataload\n      sub(shl(0xa0, 0x01), 0x01)\n      and\n      tag_74\n      jump\t// in\n    tag_72:\n      stop\n        /* \"ERC20.sol\":5590:5805  function increaseAllowance(address spender, uint256 addedValue) public virtual returns (bool) {... */\n    tag_13:\n      tag_52\n      0x04\n      dup1\n      calldatasize\n      sub\n      0x40\n      dup2\n      lt\n      iszero\n      tag_76\n      jumpi\n      0x00\n      dup1\n      revert\n    tag_76:\n      pop\n      sub(shl(0xa0, 0x01), 0x01)\n      dup2\n      calldataload\n      and\n      swap1\n      0x20\n      add\n      calldataload\n      tag_77\n      jump\t// in\n        /* \"DividendPayingToken.sol\":1099:1182  address public immutable CAKE = address(0xB6076C93701D6a07266c31066B298AeC6dd65c2d) */\n    tag_14:\n      tag_78\n      tag_79\n      jump\t// in\n    tag_78:\n      0x40\n      dup1\n      mload\n      sub(shl(0xa0, 0x01), 0x01)\n      swap1\n      swap3\n      and\n      dup3\n      mstore\n      mload\n      swap1\n      dup2\n      swap1\n      sub\n      0x20\n      add\n      swap1\n      return\n        /* \"MONEYAVAXDividendTracker.sol\":598:652  mapping (address => bool) public excludedFromDividends */\n    tag_15:\n      tag_52\n      0x04\n      dup1\n      calldatasize\n      sub\n      0x20\n      dup2\n      lt\n      iszero\n      tag_81\n      jumpi\n      0x00\n      dup1\n      revert\n    tag_81:\n      pop\n      calldataload\n      sub(shl(0xa0, 0x01), 0x01)\n      and\n      tag_82\n      jump\t// in\n        /* \"MONEYAVAXDividendTracker.sol\":4180:4668  function getAccountAtIndex(uint256 index)... */\n    tag_16:\n      tag_83\n      0x04\n      dup1\n      calldatasize\n      sub\n      0x20\n      dup2\n      lt\n      iszero\n      tag_84\n      jumpi\n      0x00\n      dup1\n      revert\n    tag_84:\n      pop\n      calldataload\n      tag_85\n      jump\t// in\n    tag_83:\n      0x40\n      dup1\n      mload\n      sub(shl(0xa0, 0x01), 0x01)\n      swap1\n      swap10\n      and\n      dup10\n      mstore\n      0x20\n      dup10\n      add\n      swap8\n      swap1\n      swap8\n      mstore\n      dup8\n      dup8\n      add\n      swap6\n      swap1\n      swap6\n      mstore\n      0x60\n      dup8\n      add\n      swap4\n      swap1\n      swap4\n      mstore\n      0x80\n      dup7\n      add\n      swap2\n      swap1\n      swap2\n      mstore\n      0xa0\n      dup6\n      add\n      mstore\n      0xc0\n      dup5\n      add\n      mstore\n      0xe0\n      dup4\n      add\n      mstore\n      mload\n      swap1\n      dup2\n      swap1\n      sub\n      0x0100\n      add\n      swap1\n      return\n        /* \"MONEYAVAXDividendTracker.sol\":1407:1597  function withdrawDividend() public override {... */\n    tag_17:\n      tag_72\n      tag_87\n      jump\t// in\n        /* \"MONEYAVAXDividendTracker.sol\":716:740  uint256 public claimWait */\n    tag_18:\n      tag_55\n      tag_89\n      jump\t// in\n        /* \"ERC20.sol\":3370:3495  function balanceOf(address account) public view virtual override returns (uint256) {... */\n    tag_19:\n      tag_55\n      0x04\n      dup1\n      calldatasize\n      sub\n      0x20\n      dup2\n      lt\n      iszero\n      tag_91\n      jumpi\n      0x00\n      dup1\n      revert\n    tag_91:\n      pop\n      calldataload\n      sub(shl(0xa0, 0x01), 0x01)\n      and\n      tag_92\n      jump\t// in\n        /* \"Ownable.sol\":1196:1341  function renounceOwnership() public virtual onlyOwner {... */\n    tag_20:\n      tag_72\n      tag_94\n      jump\t// in\n        /* \"DividendPayingToken.sol\":2568:2608  uint256 public totalDividendsDistributed */\n    tag_21:\n      tag_55\n      tag_96\n      jump\t// in\n        /* \"Ownable.sol\":573:650  function owner() public view returns (address) {... */\n    tag_22:\n      tag_78\n      tag_98\n      jump\t// in\n        /* \"DividendPayingToken.sol\":4325:4447  function dividendOf(address _owner) public view override returns(uint256) {... */\n    tag_23:\n      tag_55\n      0x04\n      dup1\n      calldatasize\n      sub\n      0x20\n      dup2\n      lt\n      iszero\n      tag_100\n      jumpi\n      0x00\n      dup1\n      revert\n    tag_100:\n      pop\n      calldataload\n      sub(shl(0xa0, 0x01), 0x01)\n      and\n      tag_101\n      jump\t// in\n        /* \"ERC20.sol\":2329:2431  function symbol() public view virtual override returns (string memory) {... */\n    tag_24:\n      tag_46\n      tag_103\n      jump\t// in\n        /* \"ERC20.sol\":6292:6558  function decreaseAllowance(address spender, uint256 subtractedValue) public virtual returns (bool) {... */\n    tag_25:\n      tag_52\n      0x04\n      dup1\n      calldatasize\n      sub\n      0x40\n      dup2\n      lt\n      iszero\n      tag_109\n      jumpi\n      0x00\n      dup1\n      revert\n    tag_109:\n      pop\n      sub(shl(0xa0, 0x01), 0x01)\n      dup2\n      calldataload\n      and\n      swap1\n      0x20\n      add\n      calldataload\n      tag_110\n      jump\t// in\n        /* \"DividendPayingToken.sol\":4653:4819  function withdrawableDividendOf(address _owner) public view override returns(uint256) {... */\n    tag_26:\n      tag_55\n      0x04\n      dup1\n      calldatasize\n      sub\n      0x20\n      dup2\n      lt\n      iszero\n      tag_112\n      jumpi\n      0x00\n      dup1\n      revert\n    tag_112:\n      pop\n      calldataload\n      sub(shl(0xa0, 0x01), 0x01)\n      and\n      tag_113\n      jump\t// in\n        /* \"ERC20.sol\":3698:3870  function transfer(address recipient, uint256 amount) public virtual override returns (bool) {... */\n    tag_27:\n      tag_52\n      0x04\n      dup1\n      calldatasize\n      sub\n      0x40\n      dup2\n      lt\n      iszero\n      tag_115\n      jumpi\n      0x00\n      dup1\n      revert\n    tag_115:\n      pop\n      sub(shl(0xa0, 0x01), 0x01)\n      dup2\n      calldataload\n      and\n      swap1\n      0x20\n      add\n      calldataload\n      tag_116\n      jump\t// in\n        /* \"DividendPayingToken.sol\":5027:5154  function withdrawnDividendOf(address _owner) public view override returns(uint256) {... */\n    tag_28:\n      tag_55\n      0x04\n      dup1\n      calldatasize\n      sub\n      0x20\n      dup2\n      lt\n      iszero\n      tag_118\n      jumpi\n      0x00\n      dup1\n      revert\n    tag_118:\n      pop\n      calldataload\n      sub(shl(0xa0, 0x01), 0x01)\n      and\n      tag_119\n      jump\t// in\n        /* \"DividendPayingToken.sol\":2709:3089  function distributeCAKEDividends(uint256 amount) public onlyOwner{... */\n    tag_29:\n      tag_72\n      0x04\n      dup1\n      calldatasize\n      sub\n      0x20\n      dup2\n      lt\n      iszero\n      tag_121\n      jumpi\n      0x00\n      dup1\n      revert\n    tag_121:\n      pop\n      calldataload\n      tag_122\n      jump\t// in\n        /* \"MONEYAVAXDividendTracker.sol\":6455:6788  function processAccount(address payable account, bool automatic) public onlyOwner returns (bool) {... */\n    tag_30:\n      tag_52\n      0x04\n      dup1\n      calldatasize\n      sub\n      0x40\n      dup2\n      lt\n      iszero\n      tag_124\n      jumpi\n      0x00\n      dup1\n      revert\n    tag_124:\n      pop\n      sub(shl(0xa0, 0x01), 0x01)\n      dup2\n      calldataload\n      and\n      swap1\n      0x20\n      add\n      calldataload\n      iszero\n      iszero\n      tag_125\n      jump\t// in\n        /* \"MONEYAVAXDividendTracker.sol\":746:802  uint256 public immutable minimumTokenBalanceForDividends */\n    tag_31:\n      tag_55\n      tag_127\n      jump\t// in\n        /* \"ERC20.sol\":3928:4077  function allowance(address owner, address spender) public view virtual override returns (uint256) {... */\n    tag_32:\n      tag_55\n      0x04\n      dup1\n      calldatasize\n      sub\n      0x40\n      dup2\n      lt\n      iszero\n      tag_129\n      jumpi\n      0x00\n      dup1\n      revert\n    tag_129:\n      pop\n      sub(shl(0xa0, 0x01), 0x01)\n      dup2\n      calldataload\n      dup2\n      and\n      swap2\n      0x20\n      add\n      calldataload\n      and\n      tag_130\n      jump\t// in\n        /* \"MONEYAVAXDividendTracker.sol\":4893:5338  function setBalance(address payable account, uint256 newBalance) external onlyOwner {... */\n    tag_33:\n      tag_72\n      0x04\n      dup1\n      calldatasize\n      sub\n      0x40\n      dup2\n      lt\n      iszero\n      tag_132\n      jumpi\n      0x00\n      dup1\n      revert\n    tag_132:\n      pop\n      sub(shl(0xa0, 0x01), 0x01)\n      dup2\n      calldataload\n      and\n      swap1\n      0x20\n      add\n      calldataload\n      tag_133\n      jump\t// in\n        /* \"MONEYAVAXDividendTracker.sol\":2313:2416  function getLastProcessedIndex() external view returns(uint256) {... */\n    tag_34:\n      tag_55\n      tag_135\n      jump\t// in\n        /* \"MONEYAVAXDividendTracker.sol\":1884:2307  function updateClaimWait(uint256 newClaimWait) external onlyOwner {... */\n    tag_35:\n      tag_72\n      0x04\n      dup1\n      calldatasize\n      sub\n      0x20\n      dup2\n      lt\n      iszero\n      tag_137\n      jumpi\n      0x00\n      dup1\n      revert\n    tag_137:\n      pop\n      calldataload\n      tag_138\n      jump\t// in\n        /* \"Ownable.sol\":1490:1730  function transferOwnership(address newOwner) public virtual onlyOwner {... */\n    tag_36:\n      tag_72\n      0x04\n      dup1\n      calldatasize\n      sub\n      0x20\n      dup2\n      lt\n      iszero\n      tag_140\n      jumpi\n      0x00\n      dup1\n      revert\n    tag_140:\n      pop\n      calldataload\n      sub(shl(0xa0, 0x01), 0x01)\n      and\n      tag_141\n      jump\t// in\n        /* \"MONEYAVAXDividendTracker.sol\":2547:4174  function getAccount(address _account)... */\n    tag_37:\n      tag_83\n      0x04\n      dup1\n      calldatasize\n      sub\n      0x20\n      dup2\n      lt\n      iszero\n      tag_143\n      jumpi\n      0x00\n      dup1\n      revert\n    tag_143:\n      pop\n      calldataload\n      sub(shl(0xa0, 0x01), 0x01)\n      and\n      tag_144\n      jump\t// in\n        /* \"MONEYAVAXDividendTracker.sol\":5344:6449  function process(uint256 gas) public returns (uint256, uint256, uint256) {... */\n    tag_38:\n      tag_145\n      0x04\n      dup1\n      calldatasize\n      sub\n      0x20\n      dup2\n      lt\n      iszero\n      tag_146\n      jumpi\n      0x00\n      dup1\n      revert\n    tag_146:\n      pop\n      calldataload\n      tag_147\n      jump\t// in\n    tag_145:\n      0x40\n      dup1\n      mload\n      swap4\n      dup5\n      mstore\n      0x20\n      dup5\n      add\n      swap3\n      swap1\n      swap3\n      mstore\n      dup3\n      dup3\n      add\n      mstore\n      mload\n      swap1\n      dup2\n      swap1\n      sub\n      0x60\n      add\n      swap1\n      return\n        /* \"ERC20.sol\":2118:2216  function name() public view virtual override returns (string memory) {... */\n    tag_47:\n        /* \"ERC20.sol\":2204:2209  _name */\n      0x03\n        /* \"ERC20.sol\":2197:2209  return _name */\n      dup1\n      sload\n      0x40\n      dup1\n      mload\n      0x20\n      0x1f\n      0x02\n      not(0x00)\n      0x0100\n      0x01\n      dup9\n      and\n      iszero\n      mul\n      add\n      swap1\n      swap6\n      and\n      swap5\n      swap1\n      swap5\n      div\n      swap4\n      dup5\n      add\n      dup2\n      swap1\n      div\n      dup2\n      mul\n      dup3\n      add\n      dup2\n      add\n      swap1\n      swap3\n      mstore\n      dup3\n      dup2\n      mstore\n        /* \"ERC20.sol\":2172:2185  string memory */\n      0x60\n      swap4\n        /* \"ERC20.sol\":2197:2209  return _name */\n      swap1\n      swap3\n        /* \"ERC20.sol\":2204:2209  _name */\n      swap1\n      swap2\n        /* \"ERC20.sol\":2197:2209  return _name */\n      dup4\n      add\n        /* \"ERC20.sol\":2204:2209  _name */\n      dup3\n        /* \"ERC20.sol\":2197:2209  return _name */\n      dup3\n      dup1\n      iszero\n      tag_149\n      jumpi\n      dup1\n      0x1f\n      lt\n      tag_150\n      jumpi\n      0x0100\n      dup1\n      dup4\n      sload\n      div\n      mul\n      dup4\n      mstore\n      swap2\n      0x20\n      add\n      swap2\n      jump(tag_149)\n    tag_150:\n      dup3\n      add\n      swap2\n      swap1\n      0x00\n      mstore\n      keccak256(0x00, 0x20)\n      swap1\n    tag_151:\n      dup2\n      sload\n      dup2\n      mstore\n      swap1\n      0x01\n      add\n      swap1\n      0x20\n      add\n      dup1\n      dup4\n      gt\n      tag_151\n      jumpi\n      dup3\n      swap1\n      sub\n      0x1f\n      and\n      dup3\n      add\n      swap2\n    tag_149:\n      pop\n      pop\n      pop\n      pop\n      pop\n      swap1\n      pop\n        /* \"ERC20.sol\":2118:2216  function name() public view virtual override returns (string memory) {... */\n      swap1\n      jump\t// out\n        /* \"ERC20.sol\":4215:4381  function approve(address spender, uint256 amount) public virtual override returns (bool) {... */\n    tag_54:\n        /* \"ERC20.sol\":4298:4302  bool */\n      0x00\n        /* \"ERC20.sol\":4314:4353  _approve(_msgSender(), spender, amount) */\n      tag_153\n        /* \"ERC20.sol\":4323:4335  _msgSender() */\n      tag_154\n        /* \"ERC20.sol\":4323:4333  _msgSender */\n      tag_155\n        /* \"ERC20.sol\":4323:4335  _msgSender() */\n      jump\t// in\n    tag_154:\n        /* \"ERC20.sol\":4337:4344  spender */\n      dup5\n        /* \"ERC20.sol\":4346:4352  amount */\n      dup5\n        /* \"ERC20.sol\":4314:4322  _approve */\n      tag_156\n        /* \"ERC20.sol\":4314:4353  _approve(_msgSender(), spender, amount) */\n      jump\t// in\n    tag_153:\n      pop\n        /* \"ERC20.sol\":4370:4374  true */\n      0x01\n        /* \"ERC20.sol\":4215:4381  function approve(address spender, uint256 amount) public virtual override returns (bool) {... */\n    tag_152:\n      swap3\n      swap2\n      pop\n      pop\n      jump\t// out\n        /* \"MONEYAVAXDividendTracker.sol\":2422:2539  function getNumberOfTokenHolders() external view returns(uint256) {... */\n    tag_56:\n        /* \"MONEYAVAXDividendTracker.sol\":2505:2520  tokenHoldersMap */\n      0x0a\n        /* \"MONEYAVAXDividendTracker.sol\":2505:2532  tokenHoldersMap.keys.length */\n      sload\n        /* \"MONEYAVAXDividendTracker.sol\":2422:2539  function getNumberOfTokenHolders() external view returns(uint256) {... */\n      swap1\n      jump\t// out\n        /* \"ERC20.sol\":3206:3312  function totalSupply() public view virtual override returns (uint256) {... */\n    tag_58:\n        /* \"ERC20.sol\":3293:3305  _totalSupply */\n      sload(0x02)\n        /* \"ERC20.sol\":3206:3312  function totalSupply() public view virtual override returns (uint256) {... */\n      swap1\n      jump\t// out\n        /* \"MONEYAVAXDividendTracker.sol\":659:709  mapping (address => uint256) public lastClaimTimes */\n    tag_61:\n      mstore(0x20, 0x10)\n      0x00\n      swap1\n      dup2\n      mstore\n      0x40\n      swap1\n      keccak256\n      sload\n      dup2\n      jump\t// out\n        /* \"ERC20.sol\":4848:5195  function transferFrom(... */\n    tag_64:\n        /* \"ERC20.sol\":4984:4988  bool */\n      0x00\n        /* \"ERC20.sol\":5000:5036  _transfer(sender, recipient, amount) */\n      tag_160\n        /* \"ERC20.sol\":5010:5016  sender */\n      dup5\n        /* \"ERC20.sol\":5018:5027  recipient */\n      dup5\n        /* \"ERC20.sol\":5029:5035  amount */\n      dup5\n        /* \"ERC20.sol\":5000:5009  _transfer */\n      tag_161\n        /* \"ERC20.sol\":5000:5036  _transfer(sender, recipient, amount) */\n      jump\t// in\n    tag_160:\n        /* \"ERC20.sol\":5046:5167  _approve(sender, _msgSender(), _allowances[sender][_msgSender()].sub(amount, \"ERC20: transfer amount exceeds allowance\")) */\n      tag_162\n        /* \"ERC20.sol\":5055:5061  sender */\n      dup5\n        /* \"ERC20.sol\":5063:5075  _msgSender() */\n      tag_163\n        /* \"ERC20.sol\":5063:5073  _msgSender */\n      tag_155\n        /* \"ERC20.sol\":5063:5075  _msgSender() */\n      jump\t// in\n    tag_163:\n        /* \"ERC20.sol\":5077:5166  _allowances[sender][_msgSender()].sub(amount, \"ERC20: transfer amount exceeds allowance\") */\n      tag_164\n        /* \"ERC20.sol\":5115:5121  amount */\n      dup6\n        /* \"ERC20.sol\":5077:5166  _allowances[sender][_msgSender()].sub(amount, \"ERC20: transfer amount exceeds allowance\") */\n      mload(0x40)\n      dup1\n      0x60\n      add\n      0x40\n      mstore\n      dup1\n      0x28\n      dup2\n      mstore\n      0x20\n      add\n      data_974d1b4421da69cc60b481194f0dad36a5bb4e23da810da7a7fb30cdba178330\n      0x28\n      swap2\n      codecopy\n      sub(shl(0xa0, 0x01), 0x01)\n        /* \"ERC20.sol\":5077:5096  _allowances[sender] */\n      dup11\n      and\n      0x00\n      swap1\n      dup2\n      mstore\n        /* \"ERC20.sol\":5077:5088  _allowances */\n      0x01\n        /* \"ERC20.sol\":5077:5096  _allowances[sender] */\n      0x20\n      mstore\n      0x40\n      dup2\n      keccak256\n      swap1\n        /* \"ERC20.sol\":5097:5109  _msgSender() */\n      tag_165\n        /* \"ERC20.sol\":5097:5107  _msgSender */\n      tag_155\n        /* \"ERC20.sol\":5097:5109  _msgSender() */\n      jump\t// in\n    tag_165:\n      sub(shl(0xa0, 0x01), 0x01)\n        /* \"ERC20.sol\":5077:5110  _allowances[sender][_msgSender()] */\n      and\n      dup2\n      mstore\n      0x20\n      dup2\n      add\n      swap2\n      swap1\n      swap2\n      mstore\n      0x40\n      add\n      0x00\n      keccak256\n      sload\n      swap2\n        /* \"ERC20.sol\":5077:5166  _allowances[sender][_msgSender()].sub(amount, \"ERC20: transfer amount exceeds allowance\") */\n      swap1\n        /* \"ERC20.sol\":5077:5114  _allowances[sender][_msgSender()].sub */\n      tag_166\n        /* \"ERC20.sol\":5077:5166  _allowances[sender][_msgSender()].sub(amount, \"ERC20: transfer amount exceeds allowance\") */\n      jump\t// in\n    tag_164:\n        /* \"ERC20.sol\":5046:5054  _approve */\n      tag_156\n        /* \"ERC20.sol\":5046:5167  _approve(sender, _msgSender(), _allowances[sender][_msgSender()].sub(amount, \"ERC20: transfer amount exceeds allowance\")) */\n      jump\t// in\n    tag_162:\n      pop\n        /* \"ERC20.sol\":5184:5188  true */\n      0x01\n        /* \"ERC20.sol\":4848:5195  function transferFrom(... */\n      swap4\n      swap3\n      pop\n      pop\n      pop\n      jump\t// out\n        /* \"DividendPayingToken.sol\":5587:5831  function accumulativeDividendOf(address _owner) public view override returns(uint256) {... */\n    tag_67:\n      sub(shl(0xa0, 0x01), 0x01)\n        /* \"DividendPayingToken.sol\":5761:5797  magnifiedDividendCorrections[_owner] */\n      dup2\n      and\n        /* \"DividendPayingToken.sol\":5664:5671  uint256 */\n      0x00\n        /* \"DividendPayingToken.sol\":5761:5797  magnifiedDividendCorrections[_owner] */\n      swap1\n      dup2\n      mstore\n        /* \"DividendPayingToken.sol\":5761:5789  magnifiedDividendCorrections */\n      0x07\n        /* \"DividendPayingToken.sol\":5761:5797  magnifiedDividendCorrections[_owner] */\n      0x20\n      mstore\n      0x40\n      dup2\n      keccak256\n      sload\n      shl(0x80, 0x01)\n        /* \"DividendPayingToken.sol\":1492:1498  2**128 */\n      swap1\n        /* \"DividendPayingToken.sol\":5686:5814  magnifiedDividendPerShare.mul(balanceOf(_owner)).toInt256Safe()... */\n      tag_168\n      swap1\n        /* \"DividendPayingToken.sol\":5686:5798  magnifiedDividendPerShare.mul(balanceOf(_owner)).toInt256Safe()... */\n      tag_169\n      swap1\n        /* \"DividendPayingToken.sol\":5686:5749  magnifiedDividendPerShare.mul(balanceOf(_owner)).toInt256Safe() */\n      tag_170\n        /* \"DividendPayingToken.sol\":5686:5734  magnifiedDividendPerShare.mul(balanceOf(_owner)) */\n      tag_171\n        /* \"DividendPayingToken.sol\":5716:5733  balanceOf(_owner) */\n      tag_172\n        /* \"DividendPayingToken.sol\":5790:5796  _owner */\n      dup9\n        /* \"DividendPayingToken.sol\":5716:5725  balanceOf */\n      tag_92\n        /* \"DividendPayingToken.sol\":5716:5733  balanceOf(_owner) */\n      jump\t// in\n    tag_172:\n        /* \"DividendPayingToken.sol\":5686:5711  magnifiedDividendPerShare */\n      sload(0x06)\n      swap1\n        /* \"DividendPayingToken.sol\":5686:5715  magnifiedDividendPerShare.mul */\n      tag_173\n        /* \"DividendPayingToken.sol\":5686:5734  magnifiedDividendPerShare.mul(balanceOf(_owner)) */\n      jump\t// in\n    tag_171:\n        /* \"DividendPayingToken.sol\":5686:5747  magnifiedDividendPerShare.mul(balanceOf(_owner)).toInt256Safe */\n      tag_174\n        /* \"DividendPayingToken.sol\":5686:5749  magnifiedDividendPerShare.mul(balanceOf(_owner)).toInt256Safe() */\n      jump\t// in\n    tag_170:\n        /* \"DividendPayingToken.sol\":5686:5760  magnifiedDividendPerShare.mul(balanceOf(_owner)).toInt256Safe()... */\n      swap1\n      tag_175\n        /* \"DividendPayingToken.sol\":5686:5798  magnifiedDividendPerShare.mul(balanceOf(_owner)).toInt256Safe()... */\n      jump\t// in\n    tag_169:\n        /* \"DividendPayingToken.sol\":5686:5812  magnifiedDividendPerShare.mul(balanceOf(_owner)).toInt256Safe()... */\n      tag_176\n        /* \"DividendPayingToken.sol\":5686:5814  magnifiedDividendPerShare.mul(balanceOf(_owner)).toInt256Safe()... */\n      jump\t// in\n    tag_168:\n        /* \"DividendPayingToken.sol\":5686:5826  magnifiedDividendPerShare.mul(balanceOf(_owner)).toInt256Safe()... */\n      dup2\n      tag_177\n      jumpi\n      invalid\n    tag_177:\n      div\n        /* \"DividendPayingToken.sol\":5679:5826  return magnifiedDividendPerShare.mul(balanceOf(_owner)).toInt256Safe()... */\n      swap1\n      pop\n        /* \"DividendPayingToken.sol\":5587:5831  function accumulativeDividendOf(address _owner) public view override returns(uint256) {... */\n    tag_167:\n      swap2\n      swap1\n      pop\n      jump\t// out\n        /* \"MONEYAVAXDividendTracker.sol\":558:591  uint256 public lastProcessedIndex */\n    tag_69:\n      sload(0x0e)\n      dup2\n      jump\t// out\n        /* \"ERC20.sol\":3055:3146  function decimals() public view virtual override returns (uint8) {... */\n    tag_71:\n        /* \"ERC20.sol\":3137:3139  18 */\n      0x12\n        /* \"ERC20.sol\":3055:3146  function decimals() public view virtual override returns (uint8) {... */\n      swap1\n      jump\t// out\n        /* \"MONEYAVAXDividendTracker.sol\":1603:1878  function excludeFromDividends(address account) external onlyOwner {... */\n    tag_74:\n        /* \"Ownable.sol\":787:799  _msgSender() */\n      tag_180\n        /* \"Ownable.sol\":787:797  _msgSender */\n      tag_155\n        /* \"Ownable.sol\":787:799  _msgSender() */\n      jump\t// in\n    tag_180:\n        /* \"Ownable.sol\":777:783  _owner */\n      sload(0x05)\n      sub(shl(0xa0, 0x01), 0x01)\n      swap1\n      dup2\n      and\n        /* \"Ownable.sol\":777:799  _owner == _msgSender() */\n      swap2\n      and\n      eq\n        /* \"Ownable.sol\":769:836  require(_owner == _msgSender(), \"Ownable: caller is not the owner\") */\n      tag_181\n      jumpi\n      0x40\n      dup1\n      mload\n      shl(0xe5, 0x461bcd)\n      dup2\n      mstore\n      0x20\n      0x04\n      dup3\n      add\n      dup2\n      swap1\n      mstore\n      0x24\n      dup3\n      add\n      mstore\n      0x00\n      dup1\n      mload\n      0x20\n      data_9924ebdf1add33d25d4ef888e16131f0a5687b0580a36c21b5c301a6c462effe\n      dup4\n      codecopy\n      dup2\n      mload\n      swap2\n      mstore\n      0x44\n      dup3\n      add\n      mstore\n      swap1\n      mload\n      swap1\n      dup2\n      swap1\n      sub\n      0x64\n      add\n      swap1\n      revert\n    tag_181:\n      sub(shl(0xa0, 0x01), 0x01)\n        /* \"MONEYAVAXDividendTracker.sol\":1685:1715  excludedFromDividends[account] */\n      dup2\n      and\n      0x00\n      swap1\n      dup2\n      mstore\n        /* \"MONEYAVAXDividendTracker.sol\":1685:1706  excludedFromDividends */\n      0x0f\n        /* \"MONEYAVAXDividendTracker.sol\":1685:1715  excludedFromDividends[account] */\n      0x20\n      mstore\n      0x40\n      swap1\n      keccak256\n      sload\n      0xff\n      and\n        /* \"MONEYAVAXDividendTracker.sol\":1684:1715  !excludedFromDividends[account] */\n      iszero\n        /* \"MONEYAVAXDividendTracker.sol\":1676:1716  require(!excludedFromDividends[account]) */\n      tag_183\n      jumpi\n      0x00\n      dup1\n      revert\n    tag_183:\n      sub(shl(0xa0, 0x01), 0x01)\n        /* \"MONEYAVAXDividendTracker.sol\":1723:1753  excludedFromDividends[account] */\n      dup2\n      and\n      0x00\n      swap1\n      dup2\n      mstore\n        /* \"MONEYAVAXDividendTracker.sol\":1723:1744  excludedFromDividends */\n      0x0f\n        /* \"MONEYAVAXDividendTracker.sol\":1723:1753  excludedFromDividends[account] */\n      0x20\n      mstore\n      0x40\n      dup2\n      keccak256\n        /* \"MONEYAVAXDividendTracker.sol\":1723:1760  excludedFromDividends[account] = true */\n      dup1\n      sload\n      not(0xff)\n      and\n        /* \"MONEYAVAXDividendTracker.sol\":1756:1760  true */\n      0x01\n        /* \"MONEYAVAXDividendTracker.sol\":1723:1760  excludedFromDividends[account] = true */\n      or\n      swap1\n      sstore\n        /* \"MONEYAVAXDividendTracker.sol\":1768:1791  _setBalance(account, 0) */\n      tag_184\n      swap1\n        /* \"MONEYAVAXDividendTracker.sol\":1745:1752  account */\n      dup3\n      swap1\n        /* \"MONEYAVAXDividendTracker.sol\":1768:1779  _setBalance */\n      tag_185\n        /* \"MONEYAVAXDividendTracker.sol\":1768:1791  _setBalance(account, 0) */\n      jump\t// in\n    tag_184:\n        /* \"MONEYAVAXDividendTracker.sol\":1798:1829  tokenHoldersMap.remove(account) */\n      0x40\n      dup1\n      mload\n      shl(0xe2, 0x131836e7)\n      dup2\n      mstore\n        /* \"MONEYAVAXDividendTracker.sol\":1798:1813  tokenHoldersMap */\n      0x0a\n        /* \"MONEYAVAXDividendTracker.sol\":1798:1829  tokenHoldersMap.remove(account) */\n      0x04\n      dup3\n      add\n      mstore\n      sub(shl(0xa0, 0x01), 0x01)\n      dup4\n      and\n      0x24\n      dup3\n      add\n      mstore\n      swap1\n      mload\n        /* \"MONEYAVAXDividendTracker.sol\":1798:1820  tokenHoldersMap.remove */\n      linkerSymbol(\"b5c84be7e522c98c303ad318c067b85931f000aa9a34df2830aaa4d6a5bd48d3\")\n      swap2\n      0x4c60db9c\n      swap2\n        /* \"MONEYAVAXDividendTracker.sol\":1798:1829  tokenHoldersMap.remove(account) */\n      0x44\n      dup1\n      dup4\n      add\n      swap3\n      0x00\n      swap3\n      swap2\n      swap1\n      dup3\n      swap1\n      sub\n      add\n      dup2\n        /* \"MONEYAVAXDividendTracker.sol\":1798:1820  tokenHoldersMap.remove */\n      dup7\n        /* \"MONEYAVAXDividendTracker.sol\":1798:1829  tokenHoldersMap.remove(account) */\n      dup1\n      extcodesize\n      iszero\n      dup1\n      iszero\n      tag_186\n      jumpi\n      0x00\n      dup1\n      revert\n    tag_186:\n      pop\n      gas\n      delegatecall\n      iszero\n      dup1\n      iszero\n      tag_188\n      jumpi\n      returndatasize\n      0x00\n      dup1\n      returndatacopy\n      revert(0x00, returndatasize)\n    tag_188:\n      pop\n      pop\n        /* \"MONEYAVAXDividendTracker.sol\":1842:1871  ExcludeFromDividends(account) */\n      mload(0x40)\n      sub(shl(0xa0, 0x01), 0x01)\n      dup5\n      and\n      swap3\n      pop\n      0xa878b31040b2e6d0a9a3d3361209db3908ba62014b0dca52adbaee451d128b25\n      swap2\n      pop\n      0x00\n      swap1\n      log2\n        /* \"MONEYAVAXDividendTracker.sol\":1603:1878  function excludeFromDividends(address account) external onlyOwner {... */\n      pop\n      jump\t// out\n        /* \"ERC20.sol\":5590:5805  function increaseAllowance(address spender, uint256 addedValue) public virtual returns (bool) {... */\n    tag_77:\n        /* \"ERC20.sol\":5678:5682  bool */\n      0x00\n        /* \"ERC20.sol\":5694:5777  _approve(_msgSender(), spender, _allowances[_msgSender()][spender].add(addedValue)) */\n      tag_153\n        /* \"ERC20.sol\":5703:5715  _msgSender() */\n      tag_191\n        /* \"ERC20.sol\":5703:5713  _msgSender */\n      tag_155\n        /* \"ERC20.sol\":5703:5715  _msgSender() */\n      jump\t// in\n    tag_191:\n        /* \"ERC20.sol\":5717:5724  spender */\n      dup5\n        /* \"ERC20.sol\":5726:5776  _allowances[_msgSender()][spender].add(addedValue) */\n      tag_164\n        /* \"ERC20.sol\":5765:5775  addedValue */\n      dup6\n        /* \"ERC20.sol\":5726:5737  _allowances */\n      0x01\n        /* \"ERC20.sol\":5726:5751  _allowances[_msgSender()] */\n      0x00\n        /* \"ERC20.sol\":5738:5750  _msgSender() */\n      tag_193\n        /* \"ERC20.sol\":5738:5748  _msgSender */\n      tag_155\n        /* \"ERC20.sol\":5738:5750  _msgSender() */\n      jump\t// in\n    tag_193:\n      sub(shl(0xa0, 0x01), 0x01)\n        /* \"ERC20.sol\":5726:5751  _allowances[_msgSender()] */\n      swap1\n      dup2\n      and\n      dup3\n      mstore\n      0x20\n      dup1\n      dup4\n      add\n      swap4\n      swap1\n      swap4\n      mstore\n      0x40\n      swap2\n      dup3\n      add\n      0x00\n      swap1\n      dup2\n      keccak256\n        /* \"ERC20.sol\":5726:5760  _allowances[_msgSender()][spender] */\n      swap2\n      dup13\n      and\n      dup2\n      mstore\n      swap3\n      mstore\n      swap1\n      keccak256\n      sload\n      swap1\n        /* \"ERC20.sol\":5726:5764  _allowances[_msgSender()][spender].add */\n      tag_194\n        /* \"ERC20.sol\":5726:5776  _allowances[_msgSender()][spender].add(addedValue) */\n      jump\t// in\n        /* \"DividendPayingToken.sol\":1099:1182  address public immutable CAKE = address(0xB6076C93701D6a07266c31066B298AeC6dd65c2d) */\n    tag_79:\n      immutable(\"0x6590fa52fa76f967656340b874bc9ca09733c2fddea9886210ebcbbceee04b35\")\n      dup2\n      jump\t// out\n        /* \"MONEYAVAXDividendTracker.sol\":598:652  mapping (address => bool) public excludedFromDividends */\n    tag_82:\n      mstore(0x20, 0x0f)\n      0x00\n      swap1\n      dup2\n      mstore\n      0x40\n      swap1\n      keccak256\n      sload\n      0xff\n      and\n      dup2\n      jump\t// out\n        /* \"MONEYAVAXDividendTracker.sol\":4180:4668  function getAccountAtIndex(uint256 index)... */\n    tag_85:\n        /* \"MONEYAVAXDividendTracker.sol\":4264:4271  address */\n      0x00\n        /* \"MONEYAVAXDividendTracker.sol\":4285:4291  int256 */\n      dup1\n        /* \"MONEYAVAXDividendTracker.sol\":4305:4311  int256 */\n      0x00\n        /* \"MONEYAVAXDividendTracker.sol\":4325:4332  uint256 */\n      dup1\n        /* \"MONEYAVAXDividendTracker.sol\":4346:4353  uint256 */\n      0x00\n        /* \"MONEYAVAXDividendTracker.sol\":4367:4374  uint256 */\n      dup1\n        /* \"MONEYAVAXDividendTracker.sol\":4388:4395  uint256 */\n      0x00\n        /* \"MONEYAVAXDividendTracker.sol\":4409:4416  uint256 */\n      dup1\n        /* \"MONEYAVAXDividendTracker.sol\":4437:4452  tokenHoldersMap */\n      0x0a\n        /* \"MONEYAVAXDividendTracker.sol\":4437:4457  tokenHoldersMap.size */\n      linkerSymbol(\"b5c84be7e522c98c303ad318c067b85931f000aa9a34df2830aaa4d6a5bd48d3\")\n      0xdeb3d896\n      swap1\n      swap2\n        /* \"MONEYAVAXDividendTracker.sol\":4437:4459  tokenHoldersMap.size() */\n      mload(0x40)\n      dup3\n      0xffffffff\n      and\n      0xe0\n      shl\n      dup2\n      mstore\n      0x04\n      add\n      dup1\n      dup3\n      dup2\n      mstore\n      0x20\n      add\n      swap2\n      pop\n      pop\n      0x20\n      mload(0x40)\n      dup1\n      dup4\n      sub\n      dup2\n      dup7\n      dup1\n      extcodesize\n      iszero\n      dup1\n      iszero\n      tag_196\n      jumpi\n      0x00\n      dup1\n      revert\n    tag_196:\n      pop\n      gas\n      delegatecall\n      iszero\n      dup1\n      iszero\n      tag_198\n      jumpi\n      returndatasize\n      0x00\n      dup1\n      returndatacopy\n      revert(0x00, returndatasize)\n    tag_198:\n      pop\n      pop\n      pop\n      pop\n      mload(0x40)\n      returndatasize\n      0x20\n      dup2\n      lt\n      iszero\n      tag_199\n      jumpi\n      0x00\n      dup1\n      revert\n    tag_199:\n      pop\n      mload\n        /* \"MONEYAVAXDividendTracker.sol\":4428:4459  index >= tokenHoldersMap.size() */\n      dup10\n      lt\n        /* \"MONEYAVAXDividendTracker.sol\":4425:4560  if(index >= tokenHoldersMap.size()) {... */\n      tag_200\n      jumpi\n      pop\n        /* \"MONEYAVAXDividendTracker.sol\":4483:4525  0x0000000000000000000000000000000000000000 */\n      0x00\n      swap7\n      pop\n      not(0x00)\n        /* \"MONEYAVAXDividendTracker.sol\":4527:4529  -1 */\n      swap6\n      pop\n      dup6\n      swap5\n      pop\n        /* \"MONEYAVAXDividendTracker.sol\":4483:4525  0x0000000000000000000000000000000000000000 */\n      dup7\n      swap4\n      pop\n      dup4\n      swap3\n      pop\n      dup3\n      swap2\n      pop\n      dup2\n      swap1\n      pop\n      dup1\n        /* \"MONEYAVAXDividendTracker.sol\":4475:4549  return (0x0000000000000000000000000000000000000000, -1, -1, 0, 0, 0, 0, 0) */\n      jump(tag_195)\n        /* \"MONEYAVAXDividendTracker.sol\":4425:4560  if(index >= tokenHoldersMap.size()) {... */\n    tag_200:\n        /* \"MONEYAVAXDividendTracker.sol\":4570:4585  address account */\n      0x00\n        /* \"MONEYAVAXDividendTracker.sol\":4588:4603  tokenHoldersMap */\n      0x0a\n        /* \"MONEYAVAXDividendTracker.sol\":4588:4617  tokenHoldersMap.getKeyAtIndex */\n      linkerSymbol(\"b5c84be7e522c98c303ad318c067b85931f000aa9a34df2830aaa4d6a5bd48d3\")\n      0xd1aa9e7e\n      swap1\n      swap2\n        /* \"MONEYAVAXDividendTracker.sol\":4618:4623  index */\n      dup13\n        /* \"MONEYAVAXDividendTracker.sol\":4588:4624  tokenHoldersMap.getKeyAtIndex(index) */\n      mload(0x40)\n      dup4\n      0xffffffff\n      and\n      0xe0\n      shl\n      dup2\n      mstore\n      0x04\n      add\n      dup1\n      dup4\n      dup2\n      mstore\n      0x20\n      add\n      dup3\n      dup2\n      mstore\n      0x20\n      add\n      swap3\n      pop\n      pop\n      pop\n      0x20\n      mload(0x40)\n      dup1\n      dup4\n      sub\n      dup2\n      dup7\n      dup1\n      extcodesize\n      iszero\n      dup1\n      iszero\n      tag_201\n      jumpi\n      0x00\n      dup1\n      revert\n    tag_201:\n      pop\n      gas\n      delegatecall\n      iszero\n      dup1\n      iszero\n      tag_203\n      jumpi\n      returndatasize\n      0x00\n      dup1\n      returndatacopy\n      revert(0x00, returndatasize)\n    tag_203:\n      pop\n      pop\n      pop\n      pop\n      mload(0x40)\n      returndatasize\n      0x20\n      dup2\n      lt\n      iszero\n      tag_204\n      jumpi\n      0x00\n      dup1\n      revert\n    tag_204:\n      pop\n      mload\n      swap1\n      pop\n        /* \"MONEYAVAXDividendTracker.sol\":4642:4661  getAccount(account) */\n      tag_205\n        /* \"MONEYAVAXDividendTracker.sol\":4588:4624  tokenHoldersMap.getKeyAtIndex(index) */\n      dup2\n        /* \"MONEYAVAXDividendTracker.sol\":4642:4652  getAccount */\n      tag_144\n        /* \"MONEYAVAXDividendTracker.sol\":4642:4661  getAccount(account) */\n      jump\t// in\n    tag_205:\n        /* \"MONEYAVAXDividendTracker.sol\":4635:4661  return getAccount(account) */\n      swap9\n      pop\n      swap9\n      pop\n      swap9\n      pop\n      swap9\n      pop\n      swap9\n      pop\n      swap9\n      pop\n      swap9\n      pop\n      swap9\n      pop\n      pop\n        /* \"MONEYAVAXDividendTracker.sol\":4180:4668  function getAccountAtIndex(uint256 index)... */\n    tag_195:\n      swap2\n      swap4\n      swap6\n      swap8\n      pop\n      swap2\n      swap4\n      swap6\n      swap8\n      jump\t// out\n        /* \"MONEYAVAXDividendTracker.sol\":1407:1597  function withdrawDividend() public override {... */\n    tag_87:\n        /* \"MONEYAVAXDividendTracker.sol\":1461:1590  require(false, \"MONEYAVAX_Dividend_Tracker: withdrawDividend disabled. Use the 'claim' function on the main MONEYAVAX contract.\") */\n      mload(0x40)\n      shl(0xe5, 0x461bcd)\n      dup2\n      mstore\n      0x04\n      add\n      dup1\n      dup1\n      0x20\n      add\n      dup3\n      dup2\n      sub\n      dup3\n      mstore\n      0x6f\n      dup2\n      mstore\n      0x20\n      add\n      dup1\n      data_c615061e29940b7a365b4fa13ab29a516e98be4c6c3d2f44713e16d490a2393f\n      0x6f\n      swap2\n      codecopy\n      0x80\n      add\n      swap2\n      pop\n      pop\n      mload(0x40)\n      dup1\n      swap2\n      sub\n      swap1\n      revert\n        /* \"MONEYAVAXDividendTracker.sol\":716:740  uint256 public claimWait */\n    tag_89:\n      sload(0x11)\n      dup2\n      jump\t// out\n        /* \"ERC20.sol\":3370:3495  function balanceOf(address account) public view virtual override returns (uint256) {... */\n    tag_92:\n      sub(shl(0xa0, 0x01), 0x01)\n        /* \"ERC20.sol\":3470:3488  _balances[account] */\n      and\n        /* \"ERC20.sol\":3444:3451  uint256 */\n      0x00\n        /* \"ERC20.sol\":3470:3488  _balances[account] */\n      swap1\n      dup2\n      mstore\n      0x20\n      dup2\n      swap1\n      mstore\n      0x40\n      swap1\n      keccak256\n      sload\n      swap1\n        /* \"ERC20.sol\":3370:3495  function balanceOf(address account) public view virtual override returns (uint256) {... */\n      jump\t// out\n        /* \"Ownable.sol\":1196:1341  function renounceOwnership() public virtual onlyOwner {... */\n    tag_94:\n        /* \"Ownable.sol\":787:799  _msgSender() */\n      tag_210\n        /* \"Ownable.sol\":787:797  _msgSender */\n      tag_155\n        /* \"Ownable.sol\":787:799  _msgSender() */\n      jump\t// in\n    tag_210:\n        /* \"Ownable.sol\":777:783  _owner */\n      sload(0x05)\n      sub(shl(0xa0, 0x01), 0x01)\n      swap1\n      dup2\n      and\n        /* \"Ownable.sol\":777:799  _owner == _msgSender() */\n      swap2\n      and\n      eq\n        /* \"Ownable.sol\":769:836  require(_owner == _msgSender(), \"Ownable: caller is not the owner\") */\n      tag_211\n      jumpi\n      0x40\n      dup1\n      mload\n      shl(0xe5, 0x461bcd)\n      dup2\n      mstore\n      0x20\n      0x04\n      dup3\n      add\n      dup2\n      swap1\n      mstore\n      0x24\n      dup3\n      add\n      mstore\n      0x00\n      dup1\n      mload\n      0x20\n      data_9924ebdf1add33d25d4ef888e16131f0a5687b0580a36c21b5c301a6c462effe\n      dup4\n      codecopy\n      dup2\n      mload\n      swap2\n      mstore\n      0x44\n      dup3\n      add\n      mstore\n      swap1\n      mload\n      swap1\n      dup2\n      swap1\n      sub\n      0x64\n      add\n      swap1\n      revert\n    tag_211:\n        /* \"Ownable.sol\":1286:1292  _owner */\n      sload(0x05)\n        /* \"Ownable.sol\":1265:1305  OwnershipTransferred(_owner, address(0)) */\n      mload(0x40)\n        /* \"Ownable.sol\":1302:1303  0 */\n      0x00\n      swap2\n      sub(shl(0xa0, 0x01), 0x01)\n        /* \"Ownable.sol\":1286:1292  _owner */\n      and\n      swap1\n        /* \"Ownable.sol\":1265:1305  OwnershipTransferred(_owner, address(0)) */\n      0x8be0079c531659141344cd1fd0a4f28419497f9722a3daafe3b4186f6b6457e0\n      swap1\n        /* \"Ownable.sol\":1302:1303  0 */\n      dup4\n      swap1\n        /* \"Ownable.sol\":1265:1305  OwnershipTransferred(_owner, address(0)) */\n      log3\n        /* \"Ownable.sol\":1315:1321  _owner */\n      0x05\n        /* \"Ownable.sol\":1315:1334  _owner = address(0) */\n      dup1\n      sload\n      not(sub(shl(0xa0, 0x01), 0x01))\n      and\n      swap1\n      sstore\n        /* \"Ownable.sol\":1196:1341  function renounceOwnership() public virtual onlyOwner {... */\n      jump\t// out\n        /* \"DividendPayingToken.sol\":2568:2608  uint256 public totalDividendsDistributed */\n    tag_96:\n      sload(0x09)\n      dup2\n      jump\t// out\n        /* \"Ownable.sol\":573:650  function owner() public view returns (address) {... */\n    tag_98:\n        /* \"Ownable.sol\":637:643  _owner */\n      and(sub(shl(0xa0, 0x01), 0x01), sload(0x05))\n        /* \"Ownable.sol\":573:650  function owner() public view returns (address) {... */\n      swap1\n      jump\t// out\n        /* \"DividendPayingToken.sol\":4325:4447  function dividendOf(address _owner) public view override returns(uint256) {... */\n    tag_101:\n        /* \"DividendPayingToken.sol\":4390:4397  uint256 */\n      0x00\n        /* \"DividendPayingToken.sol\":4412:4442  withdrawableDividendOf(_owner) */\n      tag_152\n        /* \"DividendPayingToken.sol\":4435:4441  _owner */\n      dup3\n        /* \"DividendPayingToken.sol\":4412:4434  withdrawableDividendOf */\n      tag_113\n        /* \"DividendPayingToken.sol\":4412:4442  withdrawableDividendOf(_owner) */\n      jump\t// in\n        /* \"ERC20.sol\":2329:2431  function symbol() public view virtual override returns (string memory) {... */\n    tag_103:\n        /* \"ERC20.sol\":2417:2424  _symbol */\n      0x04\n        /* \"ERC20.sol\":2410:2424  return _symbol */\n      dup1\n      sload\n      0x40\n      dup1\n      mload\n      0x20\n      0x1f\n      0x02\n      not(0x00)\n      0x0100\n      0x01\n      dup9\n      and\n      iszero\n      mul\n      add\n      swap1\n      swap6\n      and\n      swap5\n      swap1\n      swap5\n      div\n      swap4\n      dup5\n      add\n      dup2\n      swap1\n      div\n      dup2\n      mul\n      dup3\n      add\n      dup2\n      add\n      swap1\n      swap3\n      mstore\n      dup3\n      dup2\n      mstore\n        /* \"ERC20.sol\":2385:2398  string memory */\n      0x60\n      swap4\n        /* \"ERC20.sol\":2410:2424  return _symbol */\n      swap1\n      swap3\n        /* \"ERC20.sol\":2417:2424  _symbol */\n      swap1\n      swap2\n        /* \"ERC20.sol\":2410:2424  return _symbol */\n      dup4\n      add\n        /* \"ERC20.sol\":2417:2424  _symbol */\n      dup3\n        /* \"ERC20.sol\":2410:2424  return _symbol */\n      dup3\n      dup1\n      iszero\n      tag_149\n      jumpi\n      dup1\n      0x1f\n      lt\n      tag_150\n      jumpi\n      0x0100\n      dup1\n      dup4\n      sload\n      div\n      mul\n      dup4\n      mstore\n      swap2\n      0x20\n      add\n      swap2\n      jump(tag_149)\n        /* \"ERC20.sol\":6292:6558  function decreaseAllowance(address spender, uint256 subtractedValue) public virtual returns (bool) {... */\n    tag_110:\n        /* \"ERC20.sol\":6385:6389  bool */\n      0x00\n        /* \"ERC20.sol\":6401:6530  _approve(_msgSender(), spender, _allowances[_msgSender()][spender].sub(subtractedValue, \"ERC20: decreased allowance below zero\")) */\n      tag_153\n        /* \"ERC20.sol\":6410:6422  _msgSender() */\n      tag_222\n        /* \"ERC20.sol\":6410:6420  _msgSender */\n      tag_155\n        /* \"ERC20.sol\":6410:6422  _msgSender() */\n      jump\t// in\n    tag_222:\n        /* \"ERC20.sol\":6424:6431  spender */\n      dup5\n        /* \"ERC20.sol\":6433:6529  _allowances[_msgSender()][spender].sub(subtractedValue, \"ERC20: decreased allowance below zero\") */\n      tag_164\n        /* \"ERC20.sol\":6472:6487  subtractedValue */\n      dup6\n        /* \"ERC20.sol\":6433:6529  _allowances[_msgSender()][spender].sub(subtractedValue, \"ERC20: decreased allowance below zero\") */\n      mload(0x40)\n      dup1\n      0x60\n      add\n      0x40\n      mstore\n      dup1\n      0x25\n      dup2\n      mstore\n      0x20\n      add\n      data_f8b476f7d28209d77d4a4ac1fe36b9f8259aa1bb6bddfa6e89de7e51615cf8a8\n      0x25\n      swap2\n      codecopy\n        /* \"ERC20.sol\":6433:6444  _allowances */\n      0x01\n        /* \"ERC20.sol\":6433:6458  _allowances[_msgSender()] */\n      0x00\n        /* \"ERC20.sol\":6445:6457  _msgSender() */\n      tag_224\n        /* \"ERC20.sol\":6445:6455  _msgSender */\n      tag_155\n        /* \"ERC20.sol\":6445:6457  _msgSender() */\n      jump\t// in\n    tag_224:\n      sub(shl(0xa0, 0x01), 0x01)\n        /* \"ERC20.sol\":6433:6458  _allowances[_msgSender()] */\n      swap1\n      dup2\n      and\n      dup3\n      mstore\n      0x20\n      dup1\n      dup4\n      add\n      swap4\n      swap1\n      swap4\n      mstore\n      0x40\n      swap2\n      dup3\n      add\n      0x00\n      swap1\n      dup2\n      keccak256\n        /* \"ERC20.sol\":6433:6467  _allowances[_msgSender()][spender] */\n      swap2\n      dup14\n      and\n      dup2\n      mstore\n      swap3\n      mstore\n      swap1\n      keccak256\n      sload\n      swap2\n        /* \"ERC20.sol\":6433:6529  _allowances[_msgSender()][spender].sub(subtractedValue, \"ERC20: decreased allowance below zero\") */\n      swap1\n        /* \"ERC20.sol\":6433:6471  _allowances[_msgSender()][spender].sub */\n      tag_166\n        /* \"ERC20.sol\":6433:6529  _allowances[_msgSender()][spender].sub(subtractedValue, \"ERC20: decreased allowance below zero\") */\n      jump\t// in\n        /* \"DividendPayingToken.sol\":4653:4819  function withdrawableDividendOf(address _owner) public view override returns(uint256) {... */\n    tag_113:\n      sub(shl(0xa0, 0x01), 0x01)\n        /* \"DividendPayingToken.sol\":4787:4813  withdrawnDividends[_owner] */\n      dup2\n      and\n        /* \"DividendPayingToken.sol\":4730:4737  uint256 */\n      0x00\n        /* \"DividendPayingToken.sol\":4787:4813  withdrawnDividends[_owner] */\n      swap1\n      dup2\n      mstore\n        /* \"DividendPayingToken.sol\":4787:4805  withdrawnDividends */\n      0x08\n        /* \"DividendPayingToken.sol\":4787:4813  withdrawnDividends[_owner] */\n      0x20\n      mstore\n      0x40\n      dup2\n      keccak256\n      sload\n        /* \"DividendPayingToken.sol\":4752:4814  accumulativeDividendOf(_owner).sub(withdrawnDividends[_owner]) */\n      tag_152\n      swap1\n        /* \"DividendPayingToken.sol\":4752:4782  accumulativeDividendOf(_owner) */\n      tag_227\n        /* \"DividendPayingToken.sol\":4806:4812  _owner */\n      dup5\n        /* \"DividendPayingToken.sol\":4752:4774  accumulativeDividendOf */\n      tag_67\n        /* \"DividendPayingToken.sol\":4752:4782  accumulativeDividendOf(_owner) */\n      jump\t// in\n    tag_227:\n        /* \"DividendPayingToken.sol\":4752:4786  accumulativeDividendOf(_owner).sub */\n      swap1\n      tag_228\n        /* \"DividendPayingToken.sol\":4752:4814  accumulativeDividendOf(_owner).sub(withdrawnDividends[_owner]) */\n      jump\t// in\n        /* \"ERC20.sol\":3698:3870  function transfer(address recipient, uint256 amount) public virtual override returns (bool) {... */\n    tag_116:\n        /* \"ERC20.sol\":3784:3788  bool */\n      0x00\n        /* \"ERC20.sol\":3800:3842  _transfer(_msgSender(), recipient, amount) */\n      tag_153\n        /* \"ERC20.sol\":3810:3822  _msgSender() */\n      tag_231\n        /* \"ERC20.sol\":3810:3820  _msgSender */\n      tag_155\n        /* \"ERC20.sol\":3810:3822  _msgSender() */\n      jump\t// in\n    tag_231:\n        /* \"ERC20.sol\":3824:3833  recipient */\n      dup5\n        /* \"ERC20.sol\":3835:3841  amount */\n      dup5\n        /* \"ERC20.sol\":3800:3809  _transfer */\n      tag_161\n        /* \"ERC20.sol\":3800:3842  _transfer(_msgSender(), recipient, amount) */\n      jump\t// in\n        /* \"DividendPayingToken.sol\":5027:5154  function withdrawnDividendOf(address _owner) public view override returns(uint256) {... */\n    tag_119:\n      sub(shl(0xa0, 0x01), 0x01)\n        /* \"DividendPayingToken.sol\":5123:5149  withdrawnDividends[_owner] */\n      and\n        /* \"DividendPayingToken.sol\":5101:5108  uint256 */\n      0x00\n        /* \"DividendPayingToken.sol\":5123:5149  withdrawnDividends[_owner] */\n      swap1\n      dup2\n      mstore\n        /* \"DividendPayingToken.sol\":5123:5141  withdrawnDividends */\n      0x08\n        /* \"DividendPayingToken.sol\":5123:5149  withdrawnDividends[_owner] */\n      0x20\n      mstore\n      0x40\n      swap1\n      keccak256\n      sload\n      swap1\n        /* \"DividendPayingToken.sol\":5027:5154  function withdrawnDividendOf(address _owner) public view override returns(uint256) {... */\n      jump\t// out\n        /* \"DividendPayingToken.sol\":2709:3089  function distributeCAKEDividends(uint256 amount) public onlyOwner{... */\n    tag_122:\n        /* \"Ownable.sol\":787:799  _msgSender() */\n      tag_234\n        /* \"Ownable.sol\":787:797  _msgSender */\n      tag_155\n        /* \"Ownable.sol\":787:799  _msgSender() */\n      jump\t// in\n    tag_234:\n        /* \"Ownable.sol\":777:783  _owner */\n      sload(0x05)\n      sub(shl(0xa0, 0x01), 0x01)\n      swap1\n      dup2\n      and\n        /* \"Ownable.sol\":777:799  _owner == _msgSender() */\n      swap2\n      and\n      eq\n        /* \"Ownable.sol\":769:836  require(_owner == _msgSender(), \"Ownable: caller is not the owner\") */\n      tag_235\n      jumpi\n      0x40\n      dup1\n      mload\n      shl(0xe5, 0x461bcd)\n      dup2\n      mstore\n      0x20\n      0x04\n      dup3\n      add\n      dup2\n      swap1\n      mstore\n      0x24\n      dup3\n      add\n      mstore\n      0x00\n      dup1\n      mload\n      0x20\n      data_9924ebdf1add33d25d4ef888e16131f0a5687b0580a36c21b5c301a6c462effe\n      dup4\n      codecopy\n      dup2\n      mload\n      swap2\n      mstore\n      0x44\n      dup3\n      add\n      mstore\n      swap1\n      mload\n      swap1\n      dup2\n      swap1\n      sub\n      0x64\n      add\n      swap1\n      revert\n    tag_235:\n        /* \"DividendPayingToken.sol\":2804:2805  0 */\n      0x00\n        /* \"DividendPayingToken.sol\":2788:2801  totalSupply() */\n      tag_237\n        /* \"DividendPayingToken.sol\":2788:2799  totalSupply */\n      tag_58\n        /* \"DividendPayingToken.sol\":2788:2801  totalSupply() */\n      jump\t// in\n    tag_237:\n        /* \"DividendPayingToken.sol\":2788:2805  totalSupply() > 0 */\n      gt\n        /* \"DividendPayingToken.sol\":2780:2806  require(totalSupply() > 0) */\n      tag_238\n      jumpi\n      0x00\n      dup1\n      revert\n    tag_238:\n        /* \"DividendPayingToken.sol\":2817:2827  amount > 0 */\n      dup1\n      iszero\n        /* \"DividendPayingToken.sol\":2813:3085  if (amount > 0) {... */\n      tag_239\n      jumpi\n        /* \"DividendPayingToken.sol\":2865:2951  magnifiedDividendPerShare.add(... */\n      tag_240\n        /* \"DividendPayingToken.sol\":2930:2943  totalSupply() */\n      tag_241\n        /* \"DividendPayingToken.sol\":2930:2941  totalSupply */\n      tag_58\n        /* \"DividendPayingToken.sol\":2930:2943  totalSupply() */\n      jump\t// in\n    tag_241:\n        /* \"DividendPayingToken.sol\":2904:2927  (amount).mul(magnitude) */\n      tag_242\n        /* \"DividendPayingToken.sol\":2905:2911  amount */\n      dup4\n      shl(0x80, 0x01)\n        /* \"DividendPayingToken.sol\":2904:2916  (amount).mul */\n      tag_173\n        /* \"DividendPayingToken.sol\":2904:2927  (amount).mul(magnitude) */\n      jump\t// in\n    tag_242:\n        /* \"DividendPayingToken.sol\":2904:2943  (amount).mul(magnitude) / totalSupply() */\n      dup2\n      tag_243\n      jumpi\n      invalid\n    tag_243:\n        /* \"DividendPayingToken.sol\":2865:2890  magnifiedDividendPerShare */\n      sload(0x06)\n      swap2\n        /* \"DividendPayingToken.sol\":2904:2943  (amount).mul(magnitude) / totalSupply() */\n      swap1\n      div\n        /* \"DividendPayingToken.sol\":2865:2894  magnifiedDividendPerShare.add */\n      tag_194\n        /* \"DividendPayingToken.sol\":2865:2951  magnifiedDividendPerShare.add(... */\n      jump\t// in\n    tag_240:\n        /* \"DividendPayingToken.sol\":2837:2862  magnifiedDividendPerShare */\n      0x06\n        /* \"DividendPayingToken.sol\":2837:2951  magnifiedDividendPerShare = magnifiedDividendPerShare.add(... */\n      sstore\n        /* \"DividendPayingToken.sol\":2964:3004  DividendsDistributed(msg.sender, amount) */\n      0x40\n      dup1\n      mload\n      dup3\n      dup2\n      mstore\n      swap1\n      mload\n        /* \"DividendPayingToken.sol\":2985:2995  msg.sender */\n      caller\n      swap2\n        /* \"DividendPayingToken.sol\":2964:3004  DividendsDistributed(msg.sender, amount) */\n      0xa493a9229478c3fcd73f66d2cdeb7f94fd0f341da924d1054236d78454116511\n      swap2\n      swap1\n      dup2\n      swap1\n      sub\n      0x20\n      add\n      swap1\n      log2\n        /* \"DividendPayingToken.sol\":3041:3066  totalDividendsDistributed */\n      sload(0x09)\n        /* \"DividendPayingToken.sol\":3041:3078  totalDividendsDistributed.add(amount) */\n      tag_244\n      swap1\n        /* \"DividendPayingToken.sol\":3071:3077  amount */\n      dup3\n        /* \"DividendPayingToken.sol\":3041:3070  totalDividendsDistributed.add */\n      tag_194\n        /* \"DividendPayingToken.sol\":3041:3078  totalDividendsDistributed.add(amount) */\n      jump\t// in\n    tag_244:\n        /* \"DividendPayingToken.sol\":3013:3038  totalDividendsDistributed */\n      0x09\n        /* \"DividendPayingToken.sol\":3013:3078  totalDividendsDistributed = totalDividendsDistributed.add(amount) */\n      sstore\n        /* \"DividendPayingToken.sol\":2813:3085  if (amount > 0) {... */\n    tag_239:\n        /* \"DividendPayingToken.sol\":2709:3089  function distributeCAKEDividends(uint256 amount) public onlyOwner{... */\n      pop\n      jump\t// out\n        /* \"MONEYAVAXDividendTracker.sol\":6455:6788  function processAccount(address payable account, bool automatic) public onlyOwner returns (bool) {... */\n    tag_125:\n        /* \"MONEYAVAXDividendTracker.sol\":6546:6550  bool */\n      0x00\n        /* \"Ownable.sol\":787:799  _msgSender() */\n      tag_246\n        /* \"Ownable.sol\":787:797  _msgSender */\n      tag_155\n        /* \"Ownable.sol\":787:799  _msgSender() */\n      jump\t// in\n    tag_246:\n        /* \"Ownable.sol\":777:783  _owner */\n      sload(0x05)\n      sub(shl(0xa0, 0x01), 0x01)\n      swap1\n      dup2\n      and\n        /* \"Ownable.sol\":777:799  _owner == _msgSender() */\n      swap2\n      and\n      eq\n        /* \"Ownable.sol\":769:836  require(_owner == _msgSender(), \"Ownable: caller is not the owner\") */\n      tag_247\n      jumpi\n      0x40\n      dup1\n      mload\n      shl(0xe5, 0x461bcd)\n      dup2\n      mstore\n      0x20\n      0x04\n      dup3\n      add\n      dup2\n      swap1\n      mstore\n      0x24\n      dup3\n      add\n      mstore\n      0x00\n      dup1\n      mload\n      0x20\n      data_9924ebdf1add33d25d4ef888e16131f0a5687b0580a36c21b5c301a6c462effe\n      dup4\n      codecopy\n      dup2\n      mload\n      swap2\n      mstore\n      0x44\n      dup3\n      add\n      mstore\n      swap1\n      mload\n      swap1\n      dup2\n      swap1\n      sub\n      0x64\n      add\n      swap1\n      revert\n    tag_247:\n        /* \"MONEYAVAXDividendTracker.sol\":6562:6576  uint256 amount */\n      0x00\n        /* \"MONEYAVAXDividendTracker.sol\":6579:6611  _withdrawDividendOfUser(account) */\n      tag_249\n        /* \"MONEYAVAXDividendTracker.sol\":6603:6610  account */\n      dup5\n        /* \"MONEYAVAXDividendTracker.sol\":6579:6602  _withdrawDividendOfUser */\n      tag_250\n        /* \"MONEYAVAXDividendTracker.sol\":6579:6611  _withdrawDividendOfUser(account) */\n      jump\t// in\n    tag_249:\n        /* \"MONEYAVAXDividendTracker.sol\":6562:6611  uint256 amount = _withdrawDividendOfUser(account) */\n      swap1\n      pop\n        /* \"MONEYAVAXDividendTracker.sol\":6622:6632  amount > 0 */\n      dup1\n      iszero\n        /* \"MONEYAVAXDividendTracker.sol\":6619:6762  if(amount > 0) {... */\n      tag_251\n      jumpi\n      sub(shl(0xa0, 0x01), 0x01)\n        /* \"MONEYAVAXDividendTracker.sol\":6642:6665  lastClaimTimes[account] */\n      dup5\n      and\n      0x00\n      dup2\n      dup2\n      mstore\n        /* \"MONEYAVAXDividendTracker.sol\":6642:6656  lastClaimTimes */\n      0x10\n        /* \"MONEYAVAXDividendTracker.sol\":6642:6665  lastClaimTimes[account] */\n      0x20\n      swap1\n      dup2\n      mstore\n      0x40\n      swap2\n      dup3\n      swap1\n      keccak256\n        /* \"MONEYAVAXDividendTracker.sol\":6668:6683  block.timestamp */\n      timestamp\n        /* \"MONEYAVAXDividendTracker.sol\":6642:6683  lastClaimTimes[account] = block.timestamp */\n      swap1\n      sstore\n        /* \"MONEYAVAXDividendTracker.sol\":6702:6735  Claim(account, amount, automatic) */\n      dup2\n      mload\n      dup5\n      dup2\n      mstore\n      swap2\n      mload\n      dup7\n      iszero\n      iszero\n      swap4\n        /* \"MONEYAVAXDividendTracker.sol\":6642:6665  lastClaimTimes[account] */\n      swap3\n        /* \"MONEYAVAXDividendTracker.sol\":6702:6735  Claim(account, amount, automatic) */\n      0xa2c38e2d2fb7e3e1912d937fd1ca11ed6d51864dee4cfa7a7bf02becd7acf092\n      swap3\n      swap1\n      dup3\n      swap1\n      sub\n      add\n      swap1\n      log3\n        /* \"MONEYAVAXDividendTracker.sol\":6750:6754  true */\n      0x01\n        /* \"MONEYAVAXDividendTracker.sol\":6743:6754  return true */\n      swap2\n      pop\n      pop\n      jump(tag_152)\n        /* \"MONEYAVAXDividendTracker.sol\":6619:6762  if(amount > 0) {... */\n    tag_251:\n      pop\n        /* \"MONEYAVAXDividendTracker.sol\":6776:6781  false */\n      0x00\n      swap4\n        /* \"MONEYAVAXDividendTracker.sol\":6455:6788  function processAccount(address payable account, bool automatic) public onlyOwner returns (bool) {... */\n      swap3\n      pop\n      pop\n      pop\n      jump\t// out\n        /* \"MONEYAVAXDividendTracker.sol\":746:802  uint256 public immutable minimumTokenBalanceForDividends */\n    tag_127:\n      immutable(\"0xd188a1da6d6dfc972f5d1614b9a5ea681202f643e26bdaa8898fb08d79dc84fc\")\n      dup2\n      jump\t// out\n        /* \"ERC20.sol\":3928:4077  function allowance(address owner, address spender) public view virtual override returns (uint256) {... */\n    tag_130:\n      sub(shl(0xa0, 0x01), 0x01)\n        /* \"ERC20.sol\":4043:4061  _allowances[owner] */\n      swap2\n      dup3\n      and\n        /* \"ERC20.sol\":4017:4024  uint256 */\n      0x00\n        /* \"ERC20.sol\":4043:4061  _allowances[owner] */\n      swap1\n      dup2\n      mstore\n        /* \"ERC20.sol\":4043:4054  _allowances */\n      0x01\n        /* \"ERC20.sol\":4043:4061  _allowances[owner] */\n      0x20\n      swap1\n      dup2\n      mstore\n      0x40\n      dup1\n      dup4\n      keccak256\n        /* \"ERC20.sol\":4043:4070  _allowances[owner][spender] */\n      swap4\n      swap1\n      swap5\n      and\n      dup3\n      mstore\n      swap2\n      swap1\n      swap2\n      mstore\n      keccak256\n      sload\n      swap1\n        /* \"ERC20.sol\":3928:4077  function allowance(address owner, address spender) public view virtual override returns (uint256) {... */\n      jump\t// out\n        /* \"MONEYAVAXDividendTracker.sol\":4893:5338  function setBalance(address payable account, uint256 newBalance) external onlyOwner {... */\n    tag_133:\n        /* \"Ownable.sol\":787:799  _msgSender() */\n      tag_254\n        /* \"Ownable.sol\":787:797  _msgSender */\n      tag_155\n        /* \"Ownable.sol\":787:799  _msgSender() */\n      jump\t// in\n    tag_254:\n        /* \"Ownable.sol\":777:783  _owner */\n      sload(0x05)\n      sub(shl(0xa0, 0x01), 0x01)\n      swap1\n      dup2\n      and\n        /* \"Ownable.sol\":777:799  _owner == _msgSender() */\n      swap2\n      and\n      eq\n        /* \"Ownable.sol\":769:836  require(_owner == _msgSender(), \"Ownable: caller is not the owner\") */\n      tag_255\n      jumpi\n      0x40\n      dup1\n      mload\n      shl(0xe5, 0x461bcd)\n      dup2\n      mstore\n      0x20\n      0x04\n      dup3\n      add\n      dup2\n      swap1\n      mstore\n      0x24\n      dup3\n      add\n      mstore\n      0x00\n      dup1\n      mload\n      0x20\n      data_9924ebdf1add33d25d4ef888e16131f0a5687b0580a36c21b5c301a6c462effe\n      dup4\n      codecopy\n      dup2\n      mload\n      swap2\n      mstore\n      0x44\n      dup3\n      add\n      mstore\n      swap1\n      mload\n      swap1\n      dup2\n      swap1\n      sub\n      0x64\n      add\n      swap1\n      revert\n    tag_255:\n      sub(shl(0xa0, 0x01), 0x01)\n        /* \"MONEYAVAXDividendTracker.sol\":4987:5017  excludedFromDividends[account] */\n      dup3\n      and\n      0x00\n      swap1\n      dup2\n      mstore\n        /* \"MONEYAVAXDividendTracker.sol\":4987:5008  excludedFromDividends */\n      0x0f\n        /* \"MONEYAVAXDividendTracker.sol\":4987:5017  excludedFromDividends[account] */\n      0x20\n      mstore\n      0x40\n      swap1\n      keccak256\n      sload\n      0xff\n      and\n        /* \"MONEYAVAXDividendTracker.sol\":4984:5041  if(excludedFromDividends[account]) {... */\n      iszero\n      tag_257\n      jumpi\n        /* \"MONEYAVAXDividendTracker.sol\":5027:5034  return; */\n      jump(tag_256)\n        /* \"MONEYAVAXDividendTracker.sol\":4984:5041  if(excludedFromDividends[account]) {... */\n    tag_257:\n        /* \"MONEYAVAXDividendTracker.sol\":5065:5096  minimumTokenBalanceForDividends */\n      immutable(\"0xd188a1da6d6dfc972f5d1614b9a5ea681202f643e26bdaa8898fb08d79dc84fc\")\n        /* \"MONEYAVAXDividendTracker.sol\":5051:5061  newBalance */\n      dup2\n        /* \"MONEYAVAXDividendTracker.sol\":5051:5096  newBalance >= minimumTokenBalanceForDividends */\n      lt\n        /* \"MONEYAVAXDividendTracker.sol\":5048:5295  if(newBalance >= minimumTokenBalanceForDividends) {... */\n      tag_258\n      jumpi\n        /* \"MONEYAVAXDividendTracker.sol\":5112:5144  _setBalance(account, newBalance) */\n      tag_259\n        /* \"MONEYAVAXDividendTracker.sol\":5124:5131  account */\n      dup3\n        /* \"MONEYAVAXDividendTracker.sol\":5133:5143  newBalance */\n      dup3\n        /* \"MONEYAVAXDividendTracker.sol\":5112:5123  _setBalance */\n      tag_185\n        /* \"MONEYAVAXDividendTracker.sol\":5112:5144  _setBalance(account, newBalance) */\n      jump\t// in\n    tag_259:\n        /* \"MONEYAVAXDividendTracker.sol\":5152:5192  tokenHoldersMap.set(account, newBalance) */\n      0x40\n      dup1\n      mload\n      shl(0xe2, 0x2f0ad017)\n      dup2\n      mstore\n        /* \"MONEYAVAXDividendTracker.sol\":5152:5167  tokenHoldersMap */\n      0x0a\n        /* \"MONEYAVAXDividendTracker.sol\":5152:5192  tokenHoldersMap.set(account, newBalance) */\n      0x04\n      dup3\n      add\n      mstore\n      sub(shl(0xa0, 0x01), 0x01)\n      dup5\n      and\n      0x24\n      dup3\n      add\n      mstore\n      0x44\n      dup2\n      add\n      dup4\n      swap1\n      mstore\n      swap1\n      mload\n        /* \"MONEYAVAXDividendTracker.sol\":5152:5171  tokenHoldersMap.set */\n      linkerSymbol(\"b5c84be7e522c98c303ad318c067b85931f000aa9a34df2830aaa4d6a5bd48d3\")\n      swap2\n      0xbc2b405c\n      swap2\n        /* \"MONEYAVAXDividendTracker.sol\":5152:5192  tokenHoldersMap.set(account, newBalance) */\n      0x64\n      dup1\n      dup4\n      add\n      swap3\n      0x00\n      swap3\n      swap2\n      swap1\n      dup3\n      swap1\n      sub\n      add\n      dup2\n        /* \"MONEYAVAXDividendTracker.sol\":5152:5171  tokenHoldersMap.set */\n      dup7\n        /* \"MONEYAVAXDividendTracker.sol\":5152:5192  tokenHoldersMap.set(account, newBalance) */\n      dup1\n      extcodesize\n      iszero\n      dup1\n      iszero\n      tag_260\n      jumpi\n      0x00\n      dup1\n      revert\n    tag_260:\n      pop\n      gas\n      delegatecall\n      iszero\n      dup1\n      iszero\n      tag_262\n      jumpi\n      returndatasize\n      0x00\n      dup1\n      returndatacopy\n      revert(0x00, returndatasize)\n    tag_262:\n      pop\n      pop\n      pop\n      pop\n        /* \"MONEYAVAXDividendTracker.sol\":5048:5295  if(newBalance >= minimumTokenBalanceForDividends) {... */\n      jump(tag_263)\n    tag_258:\n        /* \"MONEYAVAXDividendTracker.sol\":5225:5248  _setBalance(account, 0) */\n      tag_264\n        /* \"MONEYAVAXDividendTracker.sol\":5237:5244  account */\n      dup3\n        /* \"MONEYAVAXDividendTracker.sol\":5246:5247  0 */\n      0x00\n        /* \"MONEYAVAXDividendTracker.sol\":5225:5236  _setBalance */\n      tag_185\n        /* \"MONEYAVAXDividendTracker.sol\":5225:5248  _setBalance(account, 0) */\n      jump\t// in\n    tag_264:\n        /* \"MONEYAVAXDividendTracker.sol\":5256:5287  tokenHoldersMap.remove(account) */\n      0x40\n      dup1\n      mload\n      shl(0xe2, 0x131836e7)\n      dup2\n      mstore\n        /* \"MONEYAVAXDividendTracker.sol\":5256:5271  tokenHoldersMap */\n      0x0a\n        /* \"MONEYAVAXDividendTracker.sol\":5256:5287  tokenHoldersMap.remove(account) */\n      0x04\n      dup3\n      add\n      mstore\n      sub(shl(0xa0, 0x01), 0x01)\n      dup5\n      and\n      0x24\n      dup3\n      add\n      mstore\n      swap1\n      mload\n        /* \"MONEYAVAXDividendTracker.sol\":5256:5278  tokenHoldersMap.remove */\n      linkerSymbol(\"b5c84be7e522c98c303ad318c067b85931f000aa9a34df2830aaa4d6a5bd48d3\")\n      swap2\n      0x4c60db9c\n      swap2\n        /* \"MONEYAVAXDividendTracker.sol\":5256:5287  tokenHoldersMap.remove(account) */\n      0x44\n      dup1\n      dup4\n      add\n      swap3\n      0x00\n      swap3\n      swap2\n      swap1\n      dup3\n      swap1\n      sub\n      add\n      dup2\n        /* \"MONEYAVAXDividendTracker.sol\":5256:5278  tokenHoldersMap.remove */\n      dup7\n        /* \"MONEYAVAXDividendTracker.sol\":5256:5287  tokenHoldersMap.remove(account) */\n      dup1\n      extcodesize\n      iszero\n      dup1\n      iszero\n      tag_265\n      jumpi\n      0x00\n      dup1\n      revert\n    tag_265:\n      pop\n      gas\n      delegatecall\n      iszero\n      dup1\n      iszero\n      tag_267\n      jumpi\n      returndatasize\n      0x00\n      dup1\n      returndatacopy\n      revert(0x00, returndatasize)\n    tag_267:\n      pop\n      pop\n      pop\n      pop\n        /* \"MONEYAVAXDividendTracker.sol\":5048:5295  if(newBalance >= minimumTokenBalanceForDividends) {... */\n    tag_263:\n        /* \"MONEYAVAXDividendTracker.sol\":5302:5331  processAccount(account, true) */\n      tag_268\n        /* \"MONEYAVAXDividendTracker.sol\":5317:5324  account */\n      dup3\n        /* \"MONEYAVAXDividendTracker.sol\":5326:5330  true */\n      0x01\n        /* \"MONEYAVAXDividendTracker.sol\":5302:5316  processAccount */\n      tag_125\n        /* \"MONEYAVAXDividendTracker.sol\":5302:5331  processAccount(account, true) */\n      jump\t// in\n    tag_268:\n      pop\n        /* \"Ownable.sol\":846:847  _ */\n    tag_256:\n        /* \"MONEYAVAXDividendTracker.sol\":4893:5338  function setBalance(address payable account, uint256 newBalance) external onlyOwner {... */\n      pop\n      pop\n      jump\t// out\n        /* \"MONEYAVAXDividendTracker.sol\":2313:2416  function getLastProcessedIndex() external view returns(uint256) {... */\n    tag_135:\n        /* \"MONEYAVAXDividendTracker.sol\":2391:2409  lastProcessedIndex */\n      sload(0x0e)\n        /* \"MONEYAVAXDividendTracker.sol\":2313:2416  function getLastProcessedIndex() external view returns(uint256) {... */\n      swap1\n      jump\t// out\n        /* \"MONEYAVAXDividendTracker.sol\":1884:2307  function updateClaimWait(uint256 newClaimWait) external onlyOwner {... */\n    tag_138:\n        /* \"Ownable.sol\":787:799  _msgSender() */\n      tag_271\n        /* \"Ownable.sol\":787:797  _msgSender */\n      tag_155\n        /* \"Ownable.sol\":787:799  _msgSender() */\n      jump\t// in\n    tag_271:\n        /* \"Ownable.sol\":777:783  _owner */\n      sload(0x05)\n      sub(shl(0xa0, 0x01), 0x01)\n      swap1\n      dup2\n      and\n        /* \"Ownable.sol\":777:799  _owner == _msgSender() */\n      swap2\n      and\n      eq\n        /* \"Ownable.sol\":769:836  require(_owner == _msgSender(), \"Ownable: caller is not the owner\") */\n      tag_272\n      jumpi\n      0x40\n      dup1\n      mload\n      shl(0xe5, 0x461bcd)\n      dup2\n      mstore\n      0x20\n      0x04\n      dup3\n      add\n      dup2\n      swap1\n      mstore\n      0x24\n      dup3\n      add\n      mstore\n      0x00\n      dup1\n      mload\n      0x20\n      data_9924ebdf1add33d25d4ef888e16131f0a5687b0580a36c21b5c301a6c462effe\n      dup4\n      codecopy\n      dup2\n      mload\n      swap2\n      mstore\n      0x44\n      dup3\n      add\n      mstore\n      swap1\n      mload\n      swap1\n      dup2\n      swap1\n      sub\n      0x64\n      add\n      swap1\n      revert\n    tag_272:\n        /* \"MONEYAVAXDividendTracker.sol\":1984:1988  3600 */\n      0x0e10\n        /* \"MONEYAVAXDividendTracker.sol\":1968:1980  newClaimWait */\n      dup2\n        /* \"MONEYAVAXDividendTracker.sol\":1968:1988  newClaimWait >= 3600 */\n      lt\n      iszero\n        /* \"MONEYAVAXDividendTracker.sol\":1968:2013  newClaimWait >= 3600 && newClaimWait <= 86400 */\n      dup1\n      iszero\n      tag_274\n      jumpi\n      pop\n        /* \"MONEYAVAXDividendTracker.sol\":2008:2013  86400 */\n      0x015180\n        /* \"MONEYAVAXDividendTracker.sol\":1992:2004  newClaimWait */\n      dup2\n        /* \"MONEYAVAXDividendTracker.sol\":1992:2013  newClaimWait <= 86400 */\n      gt\n      iszero\n        /* \"MONEYAVAXDividendTracker.sol\":1968:2013  newClaimWait >= 3600 && newClaimWait <= 86400 */\n    tag_274:\n        /* \"MONEYAVAXDividendTracker.sol\":1960:2097  require(newClaimWait >= 3600 && newClaimWait <= 86400, \"MONEYAVAX_Dividend_Tracker: claimWait must be updated to between 1 and 24 hours\") */\n      tag_275\n      jumpi\n      mload(0x40)\n      shl(0xe5, 0x461bcd)\n      dup2\n      mstore\n      0x04\n      add\n      dup1\n      dup1\n      0x20\n      add\n      dup3\n      dup2\n      sub\n      dup3\n      mstore\n      0x4f\n      dup2\n      mstore\n      0x20\n      add\n      dup1\n      data_4d2f405a35ca6c83b74bbde3a75785f77c58df6f366c6c72c07716bd11b48b44\n      0x4f\n      swap2\n      codecopy\n      0x60\n      add\n      swap2\n      pop\n      pop\n      mload(0x40)\n      dup1\n      swap2\n      sub\n      swap1\n      revert\n    tag_275:\n        /* \"MONEYAVAXDividendTracker.sol\":2131:2140  claimWait */\n      sload(0x11)\n        /* \"MONEYAVAXDividendTracker.sol\":2115:2127  newClaimWait */\n      dup2\n        /* \"MONEYAVAXDividendTracker.sol\":2115:2140  newClaimWait != claimWait */\n      eq\n      iszero\n        /* \"MONEYAVAXDividendTracker.sol\":2107:2210  require(newClaimWait != claimWait, \"MONEYAVAX_Dividend_Tracker: Cannot update claimWait to same value\") */\n      tag_276\n      jumpi\n      mload(0x40)\n      shl(0xe5, 0x461bcd)\n      dup2\n      mstore\n      0x04\n      add\n      dup1\n      dup1\n      0x20\n      add\n      dup3\n      dup2\n      sub\n      dup3\n      mstore\n      0x41\n      dup2\n      mstore\n      0x20\n      add\n      dup1\n      data_942c29fdcdc1c6c74273047a896f52dec5ef9bd1fdd2acaf85c319d066f5abc6\n      0x41\n      swap2\n      codecopy\n      0x60\n      add\n      swap2\n      pop\n      pop\n      mload(0x40)\n      dup1\n      swap2\n      sub\n      swap1\n      revert\n    tag_276:\n        /* \"MONEYAVAXDividendTracker.sol\":2256:2265  claimWait */\n      sload(0x11)\n        /* \"MONEYAVAXDividendTracker.sol\":2225:2266  ClaimWaitUpdated(newClaimWait, claimWait) */\n      mload(0x40)\n        /* \"MONEYAVAXDividendTracker.sol\":2242:2254  newClaimWait */\n      dup3\n      swap1\n        /* \"MONEYAVAXDividendTracker.sol\":2225:2266  ClaimWaitUpdated(newClaimWait, claimWait) */\n      0x474ea64804364a1e29a4487ddb63c3342a2dd826ccd8acf48825e680a0e6f20f\n      swap1\n      0x00\n      swap1\n      log3\n        /* \"MONEYAVAXDividendTracker.sol\":2276:2285  claimWait */\n      0x11\n        /* \"MONEYAVAXDividendTracker.sol\":2276:2300  claimWait = newClaimWait */\n      sstore\n        /* \"MONEYAVAXDividendTracker.sol\":1884:2307  function updateClaimWait(uint256 newClaimWait) external onlyOwner {... */\n      jump\t// out\n        /* \"Ownable.sol\":1490:1730  function transferOwnership(address newOwner) public virtual onlyOwner {... */\n    tag_141:\n        /* \"Ownable.sol\":787:799  _msgSender() */\n      tag_278\n        /* \"Ownable.sol\":787:797  _msgSender */\n      tag_155\n        /* \"Ownable.sol\":787:799  _msgSender() */\n      jump\t// in\n    tag_278:\n        /* \"Ownable.sol\":777:783  _owner */\n      sload(0x05)\n      sub(shl(0xa0, 0x01), 0x01)\n      swap1\n      dup2\n      and\n        /* \"Ownable.sol\":777:799  _owner == _msgSender() */\n      swap2\n      and\n      eq\n        /* \"Ownable.sol\":769:836  require(_owner == _msgSender(), \"Ownable: caller is not the owner\") */\n      tag_279\n      jumpi\n      0x40\n      dup1\n      mload\n      shl(0xe5, 0x461bcd)\n      dup2\n      mstore\n      0x20\n      0x04\n      dup3\n      add\n      dup2\n      swap1\n      mstore\n      0x24\n      dup3\n      add\n      mstore\n      0x00\n      dup1\n      mload\n      0x20\n      data_9924ebdf1add33d25d4ef888e16131f0a5687b0580a36c21b5c301a6c462effe\n      dup4\n      codecopy\n      dup2\n      mload\n      swap2\n      mstore\n      0x44\n      dup3\n      add\n      mstore\n      swap1\n      mload\n      swap1\n      dup2\n      swap1\n      sub\n      0x64\n      add\n      swap1\n      revert\n    tag_279:\n      sub(shl(0xa0, 0x01), 0x01)\n        /* \"Ownable.sol\":1578:1600  newOwner != address(0) */\n      dup2\n      and\n        /* \"Ownable.sol\":1570:1643  require(newOwner != address(0), \"Ownable: new owner is the zero address\") */\n      tag_281\n      jumpi\n      mload(0x40)\n      shl(0xe5, 0x461bcd)\n      dup2\n      mstore\n      0x04\n      add\n      dup1\n      dup1\n      0x20\n      add\n      dup3\n      dup2\n      sub\n      dup3\n      mstore\n      0x26\n      dup2\n      mstore\n      0x20\n      add\n      dup1\n      data_245f15ff17f551913a7a18385165551503906a406f905ac1c2437281a7cd0cfe\n      0x26\n      swap2\n      codecopy\n      0x40\n      add\n      swap2\n      pop\n      pop\n      mload(0x40)\n      dup1\n      swap2\n      sub\n      swap1\n      revert\n    tag_281:\n        /* \"Ownable.sol\":1679:1685  _owner */\n      sload(0x05)\n        /* \"Ownable.sol\":1658:1696  OwnershipTransferred(_owner, newOwner) */\n      mload(0x40)\n      sub(shl(0xa0, 0x01), 0x01)\n      dup1\n      dup5\n      and\n      swap3\n        /* \"Ownable.sol\":1679:1685  _owner */\n      and\n      swap1\n        /* \"Ownable.sol\":1658:1696  OwnershipTransferred(_owner, newOwner) */\n      0x8be0079c531659141344cd1fd0a4f28419497f9722a3daafe3b4186f6b6457e0\n      swap1\n        /* \"Ownable.sol\":1679:1685  _owner */\n      0x00\n      swap1\n        /* \"Ownable.sol\":1658:1696  OwnershipTransferred(_owner, newOwner) */\n      log3\n        /* \"Ownable.sol\":1706:1712  _owner */\n      0x05\n        /* \"Ownable.sol\":1706:1723  _owner = newOwner */\n      dup1\n      sload\n      not(sub(shl(0xa0, 0x01), 0x01))\n      and\n      sub(shl(0xa0, 0x01), 0x01)\n      swap3\n      swap1\n      swap3\n      and\n      swap2\n      swap1\n      swap2\n      or\n      swap1\n      sstore\n        /* \"Ownable.sol\":1490:1730  function transferOwnership(address newOwner) public virtual onlyOwner {... */\n      jump\t// out\n        /* \"MONEYAVAXDividendTracker.sol\":2547:4174  function getAccount(address _account)... */\n    tag_144:\n        /* \"MONEYAVAXDividendTracker.sol\":2627:2642  address account */\n      0x00\n        /* \"MONEYAVAXDividendTracker.sol\":2656:2668  int256 index */\n      dup1\n        /* \"MONEYAVAXDividendTracker.sol\":2682:2713  int256 iterationsUntilProcessed */\n      0x00\n        /* \"MONEYAVAXDividendTracker.sol\":2727:2756  uint256 withdrawableDividends */\n      dup1\n        /* \"MONEYAVAXDividendTracker.sol\":2770:2792  uint256 totalDividends */\n      0x00\n        /* \"MONEYAVAXDividendTracker.sol\":2806:2827  uint256 lastClaimTime */\n      dup1\n        /* \"MONEYAVAXDividendTracker.sol\":2841:2862  uint256 nextClaimTime */\n      0x00\n        /* \"MONEYAVAXDividendTracker.sol\":2876:2914  uint256 secondsUntilAutoClaimAvailable */\n      dup1\n        /* \"MONEYAVAXDividendTracker.sol\":2936:2944  _account */\n      dup9\n        /* \"MONEYAVAXDividendTracker.sol\":2926:2944  account = _account */\n      swap8\n      pop\n        /* \"MONEYAVAXDividendTracker.sol\":2963:2978  tokenHoldersMap */\n      0x0a\n        /* \"MONEYAVAXDividendTracker.sol\":2963:2992  tokenHoldersMap.getIndexOfKey */\n      linkerSymbol(\"b5c84be7e522c98c303ad318c067b85931f000aa9a34df2830aaa4d6a5bd48d3\")\n      0x17e142d1\n      swap1\n      swap2\n        /* \"MONEYAVAXDividendTracker.sol\":2993:3000  account */\n      dup11\n        /* \"MONEYAVAXDividendTracker.sol\":2963:3001  tokenHoldersMap.getIndexOfKey(account) */\n      mload(0x40)\n      dup4\n      0xffffffff\n      and\n      0xe0\n      shl\n      dup2\n      mstore\n      0x04\n      add\n      dup1\n      dup4\n      dup2\n      mstore\n      0x20\n      add\n      dup3\n      sub(shl(0xa0, 0x01), 0x01)\n      and\n      dup2\n      mstore\n      0x20\n      add\n      swap3\n      pop\n      pop\n      pop\n      0x20\n      mload(0x40)\n      dup1\n      dup4\n      sub\n      dup2\n      dup7\n      dup1\n      extcodesize\n      iszero\n      dup1\n      iszero\n      tag_283\n      jumpi\n      0x00\n      dup1\n      revert\n    tag_283:\n      pop\n      gas\n      delegatecall\n      iszero\n      dup1\n      iszero\n      tag_285\n      jumpi\n      returndatasize\n      0x00\n      dup1\n      returndatacopy\n      revert(0x00, returndatasize)\n    tag_285:\n      pop\n      pop\n      pop\n      pop\n      mload(0x40)\n      returndatasize\n      0x20\n      dup2\n      lt\n      iszero\n      tag_286\n      jumpi\n      0x00\n      dup1\n      revert\n    tag_286:\n      pop\n      mload\n      swap7\n      pop\n      not(0x00)\n        /* \"MONEYAVAXDividendTracker.sol\":3039:3041  -1 */\n      swap6\n      pop\n        /* \"MONEYAVAXDividendTracker.sol\":3064:3065  0 */\n      0x00\n        /* \"MONEYAVAXDividendTracker.sol\":3055:3065  index >= 0 */\n      dup8\n      slt\n        /* \"MONEYAVAXDividendTracker.sol\":3052:3622  if(index >= 0) {... */\n      tag_291\n      jumpi\n        /* \"MONEYAVAXDividendTracker.sol\":3101:3119  lastProcessedIndex */\n      sload(0x0e)\n        /* \"MONEYAVAXDividendTracker.sol\":3092:3097  index */\n      dup8\n        /* \"MONEYAVAXDividendTracker.sol\":3084:3119  uint256(index) > lastProcessedIndex */\n      gt\n        /* \"MONEYAVAXDividendTracker.sol\":3081:3612  if(uint256(index) > lastProcessedIndex) {... */\n      iszero\n      tag_288\n      jumpi\n        /* \"MONEYAVAXDividendTracker.sol\":3183:3201  lastProcessedIndex */\n      sload(0x0e)\n        /* \"MONEYAVAXDividendTracker.sol\":3166:3203  index.sub(int256(lastProcessedIndex)) */\n      tag_289\n      swap1\n        /* \"MONEYAVAXDividendTracker.sol\":3166:3171  index */\n      dup9\n      swap1\n        /* \"MONEYAVAXDividendTracker.sol\":3166:3175  index.sub */\n      tag_290\n        /* \"MONEYAVAXDividendTracker.sol\":3166:3203  index.sub(int256(lastProcessedIndex)) */\n      jump\t// in\n    tag_289:\n        /* \"MONEYAVAXDividendTracker.sol\":3139:3203  iterationsUntilProcessed = index.sub(int256(lastProcessedIndex)) */\n      swap6\n      pop\n        /* \"MONEYAVAXDividendTracker.sol\":3081:3612  if(uint256(index) > lastProcessedIndex) {... */\n      jump(tag_291)\n    tag_288:\n        /* \"MONEYAVAXDividendTracker.sol\":3319:3337  lastProcessedIndex */\n      sload(0x0e)\n        /* \"MONEYAVAXDividendTracker.sol\":3289:3304  tokenHoldersMap */\n      0x0a\n        /* \"MONEYAVAXDividendTracker.sol\":3289:3316  tokenHoldersMap.keys.length */\n      sload\n        /* \"MONEYAVAXDividendTracker.sol\":3254:3286  uint256 processesUntilEndOfArray */\n      0x00\n      swap2\n      lt\n        /* \"MONEYAVAXDividendTracker.sol\":3289:3507  tokenHoldersMap.keys.length > lastProcessedIndex ?... */\n      tag_292\n      jumpi\n        /* \"MONEYAVAXDividendTracker.sol\":3506:3507  0 */\n      0x00\n        /* \"MONEYAVAXDividendTracker.sol\":3289:3507  tokenHoldersMap.keys.length > lastProcessedIndex ?... */\n      jump(tag_294)\n    tag_292:\n        /* \"MONEYAVAXDividendTracker.sol\":3428:3446  lastProcessedIndex */\n      sload(0x0e)\n        /* \"MONEYAVAXDividendTracker.sol\":3396:3411  tokenHoldersMap */\n      0x0a\n        /* \"MONEYAVAXDividendTracker.sol\":3396:3423  tokenHoldersMap.keys.length */\n      sload\n        /* \"MONEYAVAXDividendTracker.sol\":3396:3447  tokenHoldersMap.keys.length.sub(lastProcessedIndex) */\n      tag_294\n      swap2\n        /* \"MONEYAVAXDividendTracker.sol\":3396:3427  tokenHoldersMap.keys.length.sub */\n      tag_228\n        /* \"MONEYAVAXDividendTracker.sol\":3396:3447  tokenHoldersMap.keys.length.sub(lastProcessedIndex) */\n      jump\t// in\n    tag_294:\n        /* \"MONEYAVAXDividendTracker.sol\":3254:3507  uint256 processesUntilEndOfArray = tokenHoldersMap.keys.length > lastProcessedIndex ?... */\n      swap1\n      pop\n        /* \"MONEYAVAXDividendTracker.sol\":3554:3597  index.add(int256(processesUntilEndOfArray)) */\n      tag_295\n        /* \"MONEYAVAXDividendTracker.sol\":3554:3559  index */\n      dup9\n        /* \"MONEYAVAXDividendTracker.sol\":3254:3507  uint256 processesUntilEndOfArray = tokenHoldersMap.keys.length > lastProcessedIndex ?... */\n      dup3\n        /* \"MONEYAVAXDividendTracker.sol\":3554:3563  index.add */\n      tag_175\n        /* \"MONEYAVAXDividendTracker.sol\":3554:3597  index.add(int256(processesUntilEndOfArray)) */\n      jump\t// in\n    tag_295:\n        /* \"MONEYAVAXDividendTracker.sol\":3527:3597  iterationsUntilProcessed = index.add(int256(processesUntilEndOfArray)) */\n      swap7\n      pop\n        /* \"MONEYAVAXDividendTracker.sol\":3081:3612  if(uint256(index) > lastProcessedIndex) {... */\n      pop\n    tag_291:\n        /* \"MONEYAVAXDividendTracker.sol\":3657:3688  withdrawableDividendOf(account) */\n      tag_296\n        /* \"MONEYAVAXDividendTracker.sol\":3680:3687  account */\n      dup9\n        /* \"MONEYAVAXDividendTracker.sol\":3657:3679  withdrawableDividendOf */\n      tag_113\n        /* \"MONEYAVAXDividendTracker.sol\":3657:3688  withdrawableDividendOf(account) */\n      jump\t// in\n    tag_296:\n        /* \"MONEYAVAXDividendTracker.sol\":3633:3688  withdrawableDividends = withdrawableDividendOf(account) */\n      swap5\n      pop\n        /* \"MONEYAVAXDividendTracker.sol\":3715:3746  accumulativeDividendOf(account) */\n      tag_297\n        /* \"MONEYAVAXDividendTracker.sol\":3738:3745  account */\n      dup9\n        /* \"MONEYAVAXDividendTracker.sol\":3715:3737  accumulativeDividendOf */\n      tag_67\n        /* \"MONEYAVAXDividendTracker.sol\":3715:3746  accumulativeDividendOf(account) */\n      jump\t// in\n    tag_297:\n      sub(shl(0xa0, 0x01), 0x01)\n        /* \"MONEYAVAXDividendTracker.sol\":3773:3796  lastClaimTimes[account] */\n      dup10\n      and\n      0x00\n      swap1\n      dup2\n      mstore\n        /* \"MONEYAVAXDividendTracker.sol\":3773:3787  lastClaimTimes */\n      0x10\n        /* \"MONEYAVAXDividendTracker.sol\":3773:3796  lastClaimTimes[account] */\n      0x20\n      mstore\n      0x40\n      swap1\n      keccak256\n      sload\n        /* \"MONEYAVAXDividendTracker.sol\":3698:3746  totalDividends = accumulativeDividendOf(account) */\n      swap1\n      swap5\n      pop\n        /* \"MONEYAVAXDividendTracker.sol\":3773:3796  lastClaimTimes[account] */\n      swap3\n      pop\n        /* \"MONEYAVAXDividendTracker.sol\":3823:3840  lastClaimTime > 0 */\n      dup3\n        /* \"MONEYAVAXDividendTracker.sol\":3823:3947  lastClaimTime > 0 ?... */\n      tag_298\n      jumpi\n        /* \"MONEYAVAXDividendTracker.sol\":3946:3947  0 */\n      0x00\n        /* \"MONEYAVAXDividendTracker.sol\":3823:3947  lastClaimTime > 0 ?... */\n      jump(tag_300)\n    tag_298:\n        /* \"MONEYAVAXDividendTracker.sol\":3897:3906  claimWait */\n      sload(0x11)\n        /* \"MONEYAVAXDividendTracker.sol\":3879:3907  lastClaimTime.add(claimWait) */\n      tag_300\n      swap1\n        /* \"MONEYAVAXDividendTracker.sol\":3879:3892  lastClaimTime */\n      dup5\n      swap1\n        /* \"MONEYAVAXDividendTracker.sol\":3879:3896  lastClaimTime.add */\n      tag_194\n        /* \"MONEYAVAXDividendTracker.sol\":3879:3907  lastClaimTime.add(claimWait) */\n      jump\t// in\n    tag_300:\n        /* \"MONEYAVAXDividendTracker.sol\":3807:3947  nextClaimTime = lastClaimTime > 0 ?... */\n      swap2\n      pop\n        /* \"MONEYAVAXDividendTracker.sol\":4007:4022  block.timestamp */\n      timestamp\n        /* \"MONEYAVAXDividendTracker.sol\":3991:4004  nextClaimTime */\n      dup3\n        /* \"MONEYAVAXDividendTracker.sol\":3991:4022  nextClaimTime > block.timestamp */\n      gt\n        /* \"MONEYAVAXDividendTracker.sol\":3991:4167  nextClaimTime > block.timestamp ?... */\n      tag_301\n      jumpi\n        /* \"MONEYAVAXDividendTracker.sol\":4166:4167  0 */\n      0x00\n        /* \"MONEYAVAXDividendTracker.sol\":3991:4167  nextClaimTime > block.timestamp ?... */\n      jump(tag_303)\n    tag_301:\n        /* \"MONEYAVAXDividendTracker.sol\":4077:4111  nextClaimTime.sub(block.timestamp) */\n      tag_303\n        /* \"MONEYAVAXDividendTracker.sol\":4077:4090  nextClaimTime */\n      dup3\n        /* \"MONEYAVAXDividendTracker.sol\":4095:4110  block.timestamp */\n      timestamp\n        /* \"MONEYAVAXDividendTracker.sol\":4077:4094  nextClaimTime.sub */\n      tag_228\n        /* \"MONEYAVAXDividendTracker.sol\":4077:4111  nextClaimTime.sub(block.timestamp) */\n      jump\t// in\n    tag_303:\n        /* \"MONEYAVAXDividendTracker.sol\":3958:4167  secondsUntilAutoClaimAvailable = nextClaimTime > block.timestamp ?... */\n      swap1\n      pop\n        /* \"MONEYAVAXDividendTracker.sol\":2547:4174  function getAccount(address _account)... */\n      swap2\n      swap4\n      swap6\n      swap8\n      pop\n      swap2\n      swap4\n      swap6\n      swap8\n      jump\t// out\n        /* \"MONEYAVAXDividendTracker.sol\":5344:6449  function process(uint256 gas) public returns (uint256, uint256, uint256) {... */\n    tag_147:\n        /* \"MONEYAVAXDividendTracker.sol\":5455:5470  tokenHoldersMap */\n      0x0a\n        /* \"MONEYAVAXDividendTracker.sol\":5455:5482  tokenHoldersMap.keys.length */\n      sload\n        /* \"MONEYAVAXDividendTracker.sol\":5390:5397  uint256 */\n      0x00\n      swap1\n      dup2\n      swap1\n      dup2\n      swap1\n        /* \"MONEYAVAXDividendTracker.sol\":5493:5518  numberOfTokenHolders == 0 */\n      dup1\n        /* \"MONEYAVAXDividendTracker.sol\":5490:5569  if(numberOfTokenHolders == 0) {... */\n      tag_305\n      jumpi\n      pop\n      pop\n        /* \"MONEYAVAXDividendTracker.sol\":5542:5560  lastProcessedIndex */\n      sload(0x0e)\n        /* \"MONEYAVAXDividendTracker.sol\":5536:5537  0 */\n      0x00\n      swap3\n      pop\n      dup3\n      swap2\n      pop\n        /* \"MONEYAVAXDividendTracker.sol\":5528:5561  return (0, 0, lastProcessedIndex) */\n      jump(tag_304)\n        /* \"MONEYAVAXDividendTracker.sol\":5490:5569  if(numberOfTokenHolders == 0) {... */\n    tag_305:\n        /* \"MONEYAVAXDividendTracker.sol\":5606:5624  lastProcessedIndex */\n      sload(0x0e)\n        /* \"MONEYAVAXDividendTracker.sol\":5576:5603  uint256 _lastProcessedIndex */\n      0x00\n      dup1\n        /* \"MONEYAVAXDividendTracker.sol\":5677:5686  gasleft() */\n      gas\n        /* \"MONEYAVAXDividendTracker.sol\":5659:5686  uint256 gasLeft = gasleft() */\n      swap1\n      pop\n        /* \"MONEYAVAXDividendTracker.sol\":5694:5712  uint256 iterations */\n      0x00\n        /* \"MONEYAVAXDividendTracker.sol\":5723:5737  uint256 claims */\n      dup1\n        /* \"MONEYAVAXDividendTracker.sol\":5749:6340  while(gasUsed < gas && iterations < numberOfTokenHolders) {... */\n    tag_306:\n        /* \"MONEYAVAXDividendTracker.sol\":5765:5768  gas */\n      dup10\n        /* \"MONEYAVAXDividendTracker.sol\":5755:5762  gasUsed */\n      dup5\n        /* \"MONEYAVAXDividendTracker.sol\":5755:5768  gasUsed < gas */\n      lt\n        /* \"MONEYAVAXDividendTracker.sol\":5755:5805  gasUsed < gas && iterations < numberOfTokenHolders */\n      dup1\n      iszero\n      tag_308\n      jumpi\n      pop\n        /* \"MONEYAVAXDividendTracker.sol\":5785:5805  numberOfTokenHolders */\n      dup6\n        /* \"MONEYAVAXDividendTracker.sol\":5772:5782  iterations */\n      dup3\n        /* \"MONEYAVAXDividendTracker.sol\":5772:5805  iterations < numberOfTokenHolders */\n      lt\n        /* \"MONEYAVAXDividendTracker.sol\":5755:5805  gasUsed < gas && iterations < numberOfTokenHolders */\n    tag_308:\n        /* \"MONEYAVAXDividendTracker.sol\":5749:6340  while(gasUsed < gas && iterations < numberOfTokenHolders) {... */\n      iszero\n      tag_307\n      jumpi\n        /* \"MONEYAVAXDividendTracker.sol\":5871:5886  tokenHoldersMap */\n      0x0a\n        /* \"MONEYAVAXDividendTracker.sol\":5871:5898  tokenHoldersMap.keys.length */\n      sload\n        /* \"MONEYAVAXDividendTracker.sol\":5815:5836  _lastProcessedIndex++ */\n      0x01\n      swap1\n      swap6\n      add\n      swap5\n        /* \"MONEYAVAXDividendTracker.sol\":5848:5898  _lastProcessedIndex >= tokenHoldersMap.keys.length */\n      dup6\n      lt\n        /* \"MONEYAVAXDividendTracker.sol\":5845:5941  if(_lastProcessedIndex >= tokenHoldersMap.keys.length) {... */\n      tag_309\n      jumpi\n        /* \"MONEYAVAXDividendTracker.sol\":5931:5932  0 */\n      0x00\n        /* \"MONEYAVAXDividendTracker.sol\":5909:5932  _lastProcessedIndex = 0 */\n      swap5\n      pop\n        /* \"MONEYAVAXDividendTracker.sol\":5845:5941  if(_lastProcessedIndex >= tokenHoldersMap.keys.length) {... */\n    tag_309:\n        /* \"MONEYAVAXDividendTracker.sol\":5949:5964  address account */\n      0x00\n        /* \"MONEYAVAXDividendTracker.sol\":5967:5982  tokenHoldersMap */\n      0x0a\n        /* \"MONEYAVAXDividendTracker.sol\":5967:5987  tokenHoldersMap.keys */\n      0x00\n      add\n        /* \"MONEYAVAXDividendTracker.sol\":5988:6007  _lastProcessedIndex */\n      dup7\n        /* \"MONEYAVAXDividendTracker.sol\":5967:6008  tokenHoldersMap.keys[_lastProcessedIndex] */\n      dup2\n      sload\n      dup2\n      lt\n      tag_310\n      jumpi\n      invalid\n    tag_310:\n      0x00\n      swap2\n      dup3\n      mstore\n      0x20\n      dup1\n      dup4\n      keccak256\n      swap1\n      swap2\n      add\n      sload\n      sub(shl(0xa0, 0x01), 0x01)\n      and\n        /* \"MONEYAVAXDividendTracker.sol\":6033:6056  lastClaimTimes[account] */\n      dup1\n      dup4\n      mstore\n        /* \"MONEYAVAXDividendTracker.sol\":6033:6047  lastClaimTimes */\n      0x10\n        /* \"MONEYAVAXDividendTracker.sol\":6033:6056  lastClaimTimes[account] */\n      swap1\n      swap2\n      mstore\n      0x40\n      swap1\n      swap2\n      keccak256\n      sload\n        /* \"MONEYAVAXDividendTracker.sol\":5967:6008  tokenHoldersMap.keys[_lastProcessedIndex] */\n      swap1\n      swap2\n      pop\n        /* \"MONEYAVAXDividendTracker.sol\":6020:6057  canAutoClaim(lastClaimTimes[account]) */\n      tag_312\n      swap1\n        /* \"MONEYAVAXDividendTracker.sol\":6020:6032  canAutoClaim */\n      tag_313\n        /* \"MONEYAVAXDividendTracker.sol\":6020:6057  canAutoClaim(lastClaimTimes[account]) */\n      jump\t// in\n    tag_312:\n        /* \"MONEYAVAXDividendTracker.sol\":6017:6147  if(canAutoClaim(lastClaimTimes[account])) {... */\n      iszero\n      tag_316\n      jumpi\n        /* \"MONEYAVAXDividendTracker.sol\":6071:6109  processAccount(payable(account), true) */\n      tag_315\n        /* \"MONEYAVAXDividendTracker.sol\":6094:6101  account */\n      dup2\n        /* \"MONEYAVAXDividendTracker.sol\":6104:6108  true */\n      0x01\n        /* \"MONEYAVAXDividendTracker.sol\":6071:6085  processAccount */\n      tag_125\n        /* \"MONEYAVAXDividendTracker.sol\":6071:6109  processAccount(payable(account), true) */\n      jump\t// in\n    tag_315:\n        /* \"MONEYAVAXDividendTracker.sol\":6068:6139  if(processAccount(payable(account), true)) {... */\n      iszero\n      tag_316\n      jumpi\n        /* \"MONEYAVAXDividendTracker.sol\":6121:6129  claims++ */\n      0x01\n      swap1\n      swap2\n      add\n      swap1\n        /* \"MONEYAVAXDividendTracker.sol\":6068:6139  if(processAccount(payable(account), true)) {... */\n    tag_316:\n        /* \"MONEYAVAXDividendTracker.sol\":6155:6167  iterations++ */\n      0x01\n      swap1\n      swap3\n      add\n      swap2\n        /* \"MONEYAVAXDividendTracker.sol\":6176:6194  uint256 newGasLeft */\n      0x00\n        /* \"MONEYAVAXDividendTracker.sol\":6197:6206  gasleft() */\n      gas\n        /* \"MONEYAVAXDividendTracker.sol\":6176:6206  uint256 newGasLeft = gasleft() */\n      swap1\n      pop\n        /* \"MONEYAVAXDividendTracker.sol\":6228:6238  newGasLeft */\n      dup1\n        /* \"MONEYAVAXDividendTracker.sol\":6218:6225  gasLeft */\n      dup6\n        /* \"MONEYAVAXDividendTracker.sol\":6218:6238  gasLeft > newGasLeft */\n      gt\n        /* \"MONEYAVAXDividendTracker.sol\":6215:6304  if(gasLeft > newGasLeft) {... */\n      iszero\n      tag_317\n      jumpi\n        /* \"MONEYAVAXDividendTracker.sol\":6259:6295  gasUsed.add(gasLeft.sub(newGasLeft)) */\n      tag_318\n        /* \"MONEYAVAXDividendTracker.sol\":6271:6294  gasLeft.sub(newGasLeft) */\n      tag_319\n        /* \"MONEYAVAXDividendTracker.sol\":6271:6278  gasLeft */\n      dup7\n        /* \"MONEYAVAXDividendTracker.sol\":6283:6293  newGasLeft */\n      dup4\n        /* \"MONEYAVAXDividendTracker.sol\":6271:6282  gasLeft.sub */\n      tag_228\n        /* \"MONEYAVAXDividendTracker.sol\":6271:6294  gasLeft.sub(newGasLeft) */\n      jump\t// in\n    tag_319:\n        /* \"MONEYAVAXDividendTracker.sol\":6259:6266  gasUsed */\n      dup8\n      swap1\n        /* \"MONEYAVAXDividendTracker.sol\":6259:6270  gasUsed.add */\n      tag_194\n        /* \"MONEYAVAXDividendTracker.sol\":6259:6295  gasUsed.add(gasLeft.sub(newGasLeft)) */\n      jump\t// in\n    tag_318:\n        /* \"MONEYAVAXDividendTracker.sol\":6249:6295  gasUsed = gasUsed.add(gasLeft.sub(newGasLeft)) */\n      swap6\n      pop\n        /* \"MONEYAVAXDividendTracker.sol\":6215:6304  if(gasLeft > newGasLeft) {... */\n    tag_317:\n        /* \"MONEYAVAXDividendTracker.sol\":6322:6332  newGasLeft */\n      swap4\n      pop\n        /* \"MONEYAVAXDividendTracker.sol\":5749:6340  while(gasUsed < gas && iterations < numberOfTokenHolders) {... */\n      tag_306\n      swap1\n      pop\n      jump\n    tag_307:\n        /* \"MONEYAVAXDividendTracker.sol\":6347:6365  lastProcessedIndex */\n      0x0e\n        /* \"MONEYAVAXDividendTracker.sol\":6347:6387  lastProcessedIndex = _lastProcessedIndex */\n      dup6\n      swap1\n      sstore\n        /* \"MONEYAVAXDividendTracker.sol\":6403:6413  iterations */\n      swap1\n      swap8\n      pop\n        /* \"MONEYAVAXDividendTracker.sol\":6415:6421  claims */\n      swap6\n      pop\n        /* \"MONEYAVAXDividendTracker.sol\":6368:6387  _lastProcessedIndex */\n      swap2\n      swap4\n      pop\n      pop\n      pop\n      pop\n        /* \"MONEYAVAXDividendTracker.sol\":5344:6449  function process(uint256 gas) public returns (uint256, uint256, uint256) {... */\n    tag_304:\n      swap2\n      swap4\n      swap1\n      swap3\n      pop\n      jump\t// out\n        /* \"Context.sol\":586:682  function _msgSender() internal view virtual returns (address) {... */\n    tag_155:\n        /* \"Context.sol\":665:675  msg.sender */\n      caller\n        /* \"Context.sol\":586:682  function _msgSender() internal view virtual returns (address) {... */\n      swap1\n      jump\t// out\n        /* \"ERC20.sol\":9391:9761  function _approve(... */\n    tag_156:\n      sub(shl(0xa0, 0x01), 0x01)\n        /* \"ERC20.sol\":9522:9541  owner != address(0) */\n      dup4\n      and\n        /* \"ERC20.sol\":9514:9582  require(owner != address(0), \"ERC20: approve from the zero address\") */\n      tag_322\n      jumpi\n      mload(0x40)\n      shl(0xe5, 0x461bcd)\n      dup2\n      mstore\n      0x04\n      add\n      dup1\n      dup1\n      0x20\n      add\n      dup3\n      dup2\n      sub\n      dup3\n      mstore\n      0x24\n      dup2\n      mstore\n      0x20\n      add\n      dup1\n      data_c953f4879035ed60e766b34720f656aab5c697b141d924c283124ecedb91c208\n      0x24\n      swap2\n      codecopy\n      0x40\n      add\n      swap2\n      pop\n      pop\n      mload(0x40)\n      dup1\n      swap2\n      sub\n      swap1\n      revert\n    tag_322:\n      sub(shl(0xa0, 0x01), 0x01)\n        /* \"ERC20.sol\":9600:9621  spender != address(0) */\n      dup3\n      and\n        /* \"ERC20.sol\":9592:9660  require(spender != address(0), \"ERC20: approve to the zero address\") */\n      tag_323\n      jumpi\n      mload(0x40)\n      shl(0xe5, 0x461bcd)\n      dup2\n      mstore\n      0x04\n      add\n      dup1\n      dup1\n      0x20\n      add\n      dup3\n      dup2\n      sub\n      dup3\n      mstore\n      0x22\n      dup2\n      mstore\n      0x20\n      add\n      dup1\n      data_24883cc5fe64ace9d0df1893501ecb93c77180f0ff69cca79affb3c316dc8029\n      0x22\n      swap2\n      codecopy\n      0x40\n      add\n      swap2\n      pop\n      pop\n      mload(0x40)\n      dup1\n      swap2\n      sub\n      swap1\n      revert\n    tag_323:\n      sub(shl(0xa0, 0x01), 0x01)\n        /* \"ERC20.sol\":9671:9689  _allowances[owner] */\n      dup1\n      dup5\n      and\n      0x00\n      dup2\n      dup2\n      mstore\n        /* \"ERC20.sol\":9671:9682  _allowances */\n      0x01\n        /* \"ERC20.sol\":9671:9689  _allowances[owner] */\n      0x20\n      swap1\n      dup2\n      mstore\n      0x40\n      dup1\n      dup4\n      keccak256\n        /* \"ERC20.sol\":9671:9698  _allowances[owner][spender] */\n      swap5\n      dup8\n      and\n      dup1\n      dup5\n      mstore\n      swap5\n      dup3\n      mstore\n      swap2\n      dup3\n      swap1\n      keccak256\n        /* \"ERC20.sol\":9671:9707  _allowances[owner][spender] = amount */\n      dup6\n      swap1\n      sstore\n        /* \"ERC20.sol\":9722:9754  Approval(owner, spender, amount) */\n      dup2\n      mload\n      dup6\n      dup2\n      mstore\n      swap2\n      mload\n      0x8c5be1e5ebec7d5bd14f71427d1e84f3dd0314c0f7b2291e5b200ac8c7c3b925\n      swap3\n      dup2\n      swap1\n      sub\n      swap1\n      swap2\n      add\n      swap1\n      log3\n        /* \"ERC20.sol\":9391:9761  function _approve(... */\n      pop\n      pop\n      pop\n      jump\t// out\n        /* \"MONEYAVAXDividendTracker.sol\":1254:1401  function _transfer(address, address, uint256) internal override {... */\n    tag_161:\n        /* \"MONEYAVAXDividendTracker.sol\":1328:1394  require(false, \"MONEYAVAX_Dividend_Tracker: No transfers allowed\") */\n      mload(0x40)\n      shl(0xe5, 0x461bcd)\n      dup2\n      mstore\n      0x04\n      add\n      dup1\n      dup1\n      0x20\n      add\n      dup3\n      dup2\n      sub\n      dup3\n      mstore\n      0x30\n      dup2\n      mstore\n      0x20\n      add\n      dup1\n      data_e72b312e2e60f004feaa3159509b718300b3b0fca2c157bbc01115b4b8030bc3\n      0x30\n      swap2\n      codecopy\n      0x40\n      add\n      swap2\n      pop\n      pop\n      mload(0x40)\n      dup1\n      swap2\n      sub\n      swap1\n      revert\n        /* \"SafeMath.sol\":1182:1369  function sub(uint256 a, uint256 b, string memory errorMessage) internal pure returns (uint256) {... */\n    tag_166:\n        /* \"SafeMath.sol\":1268:1275  uint256 */\n      0x00\n        /* \"SafeMath.sol\":1303:1315  errorMessage */\n      dup2\n        /* \"SafeMath.sol\":1295:1301  b <= a */\n      dup5\n      dup5\n      gt\n      iszero\n        /* \"SafeMath.sol\":1287:1316  require(b <= a, errorMessage) */\n      tag_327\n      jumpi\n      mload(0x40)\n      shl(0xe5, 0x461bcd)\n      dup2\n      mstore\n      0x04\n      add\n      dup1\n      dup1\n      0x20\n      add\n      dup3\n      dup2\n      sub\n      dup3\n      mstore\n      dup4\n      dup2\n      dup2\n      mload\n      dup2\n      mstore\n      0x20\n      add\n      swap2\n      pop\n      dup1\n      mload\n      swap1\n      0x20\n      add\n      swap1\n      dup1\n      dup4\n      dup4\n      0x00\n    tag_328:\n      dup4\n      dup2\n      lt\n      iszero\n      tag_330\n      jumpi\n      dup2\n      dup2\n      add\n      mload\n      dup4\n      dup3\n      add\n      mstore\n      0x20\n      add\n      jump(tag_328)\n    tag_330:\n      pop\n      pop\n      pop\n      pop\n      swap1\n      pop\n      swap1\n      dup2\n      add\n      swap1\n      0x1f\n      and\n      dup1\n      iszero\n      tag_331\n      jumpi\n      dup1\n      dup3\n      sub\n      dup1\n      mload\n      0x01\n      dup4\n      0x20\n      sub\n      0x0100\n      exp\n      sub\n      not\n      and\n      dup2\n      mstore\n      0x20\n      add\n      swap2\n      pop\n    tag_331:\n      pop\n      swap3\n      pop\n      pop\n      pop\n      mload(0x40)\n      dup1\n      swap2\n      sub\n      swap1\n      revert\n    tag_327:\n      pop\n      pop\n      pop\n        /* \"SafeMath.sol\":1338:1343  a - b */\n      swap1\n      sub\n      swap1\n        /* \"SafeMath.sol\":1182:1369  function sub(uint256 a, uint256 b, string memory errorMessage) internal pure returns (uint256) {... */\n      jump\t// out\n        /* \"SafeMath.sol\":1616:2075  function mul(uint256 a, uint256 b) internal pure returns (uint256) {... */\n    tag_173:\n        /* \"SafeMath.sol\":1674:1681  uint256 */\n      0x00\n        /* \"SafeMath.sol\":1915:1921  a == 0 */\n      dup3\n        /* \"SafeMath.sol\":1911:1956  if (a == 0) {... */\n      tag_333\n      jumpi\n      pop\n        /* \"SafeMath.sol\":1944:1945  0 */\n      0x00\n        /* \"SafeMath.sol\":1937:1945  return 0 */\n      jump(tag_152)\n        /* \"SafeMath.sol\":1911:1956  if (a == 0) {... */\n    tag_333:\n        /* \"SafeMath.sol\":1978:1983  a * b */\n      dup3\n      dup3\n      mul\n        /* \"SafeMath.sol\":1982:1983  b */\n      dup3\n        /* \"SafeMath.sol\":1978:1979  a */\n      dup5\n        /* \"SafeMath.sol\":1978:1983  a * b */\n      dup3\n        /* \"SafeMath.sol\":1978:1979  a */\n      dup2\n        /* \"SafeMath.sol\":2001:2006  c / a */\n      tag_334\n      jumpi\n      invalid\n    tag_334:\n      div\n        /* \"SafeMath.sol\":2001:2011  c / a == b */\n      eq\n        /* \"SafeMath.sol\":1993:2049  require(c / a == b, \"SafeMath: multiplication overflow\") */\n      tag_335\n      jumpi\n      mload(0x40)\n      shl(0xe5, 0x461bcd)\n      dup2\n      mstore\n      0x04\n      add\n      dup1\n      dup1\n      0x20\n      add\n      dup3\n      dup2\n      sub\n      dup3\n      mstore\n      0x21\n      dup2\n      mstore\n      0x20\n      add\n      dup1\n      data_9113bb53c2876a3805b2c9242029423fc540a728243ce887ab24c82cf119fba3\n      0x21\n      swap2\n      codecopy\n      0x40\n      add\n      swap2\n      pop\n      pop\n      mload(0x40)\n      dup1\n      swap2\n      sub\n      swap1\n      revert\n    tag_335:\n        /* \"SafeMath.sol\":2067:2068  c */\n      swap4\n        /* \"SafeMath.sol\":1616:2075  function mul(uint256 a, uint256 b) internal pure returns (uint256) {... */\n      swap3\n      pop\n      pop\n      pop\n      jump\t// out\n        /* \"SafeMathUint.sol\":178:308  function toInt256Safe(uint256 a) internal pure returns (int256) {... */\n    tag_174:\n        /* \"SafeMathUint.sol\":234:240  int256 */\n      0x00\n        /* \"SafeMathUint.sol\":266:267  a */\n      dup2\n        /* \"SafeMathUint.sol\":282:288  b >= 0 */\n      dup2\n      dup2\n      slt\n      iszero\n        /* \"SafeMathUint.sol\":274:289  require(b >= 0) */\n      tag_152\n      jumpi\n      0x00\n      dup1\n      revert\n        /* \"SafeMathInt.sol\":2478:2650  function add(int256 a, int256 b) internal pure returns (int256) {... */\n    tag_175:\n        /* \"SafeMathInt.sol\":2534:2540  int256 */\n      0x00\n        /* \"SafeMathInt.sol\":2563:2568  a + b */\n      dup3\n      dup3\n      add\n        /* \"SafeMathInt.sol\":2587:2593  b >= 0 */\n      dup2\n      dup4\n      slt\n      dup1\n      iszero\n      swap1\n        /* \"SafeMathInt.sol\":2587:2603  b >= 0 && c >= a */\n      tag_339\n      jumpi\n      pop\n        /* \"SafeMathInt.sol\":2602:2603  a */\n      dup4\n        /* \"SafeMathInt.sol\":2597:2598  c */\n      dup2\n        /* \"SafeMathInt.sol\":2597:2603  c >= a */\n      slt\n      iszero\n        /* \"SafeMathInt.sol\":2587:2603  b >= 0 && c >= a */\n    tag_339:\n        /* \"SafeMathInt.sol\":2586:2624  (b >= 0 && c >= a) || (b < 0 && c < a) */\n      dup1\n      tag_341\n      jumpi\n      pop\n        /* \"SafeMathInt.sol\":2613:2614  0 */\n      0x00\n        /* \"SafeMathInt.sol\":2609:2610  b */\n      dup4\n        /* \"SafeMathInt.sol\":2609:2614  b < 0 */\n      slt\n        /* \"SafeMathInt.sol\":2609:2623  b < 0 && c < a */\n      dup1\n      iszero\n      tag_341\n      jumpi\n      pop\n        /* \"SafeMathInt.sol\":2622:2623  a */\n      dup4\n        /* \"SafeMathInt.sol\":2618:2619  c */\n      dup2\n        /* \"SafeMathInt.sol\":2618:2623  c < a */\n      slt\n        /* \"SafeMathInt.sol\":2609:2623  b < 0 && c < a */\n    tag_341:\n        /* \"SafeMathInt.sol\":2578:2625  require((b >= 0 && c >= a) || (b < 0 && c < a)) */\n      tag_335\n      jumpi\n      0x00\n      dup1\n      revert\n        /* \"SafeMathInt.sol\":2868:2992  function toUint256Safe(int256 a) internal pure returns (uint256) {... */\n    tag_176:\n        /* \"SafeMathInt.sol\":2924:2931  uint256 */\n      0x00\n        /* \"SafeMathInt.sol\":2956:2957  0 */\n      dup1\n        /* \"SafeMathInt.sol\":2951:2952  a */\n      dup3\n        /* \"SafeMathInt.sol\":2951:2957  a >= 0 */\n      slt\n      iszero\n        /* \"SafeMathInt.sol\":2943:2958  require(a >= 0) */\n      tag_344\n      jumpi\n      0x00\n      dup1\n      revert\n    tag_344:\n      pop\n        /* \"SafeMathInt.sol\":2983:2984  a */\n      swap1\n        /* \"SafeMathInt.sol\":2868:2992  function toUint256Safe(int256 a) internal pure returns (uint256) {... */\n      jump\t// out\n        /* \"DividendPayingToken.sol\":7552:7949  function _setBalance(address account, uint256 newBalance) internal {... */\n    tag_185:\n        /* \"DividendPayingToken.sol\":7625:7647  uint256 currentBalance */\n      0x00\n        /* \"DividendPayingToken.sol\":7650:7668  balanceOf(account) */\n      tag_346\n        /* \"DividendPayingToken.sol\":7660:7667  account */\n      dup4\n        /* \"DividendPayingToken.sol\":7650:7659  balanceOf */\n      tag_92\n        /* \"DividendPayingToken.sol\":7650:7668  balanceOf(account) */\n      jump\t// in\n    tag_346:\n        /* \"DividendPayingToken.sol\":7625:7668  uint256 currentBalance = balanceOf(account) */\n      swap1\n      pop\n        /* \"DividendPayingToken.sol\":7691:7705  currentBalance */\n      dup1\n        /* \"DividendPayingToken.sol\":7678:7688  newBalance */\n      dup3\n        /* \"DividendPayingToken.sol\":7678:7705  newBalance > currentBalance */\n      gt\n        /* \"DividendPayingToken.sol\":7675:7945  if(newBalance > currentBalance) {... */\n      iszero\n      tag_347\n      jumpi\n        /* \"DividendPayingToken.sol\":7715:7733  uint256 mintAmount */\n      0x00\n        /* \"DividendPayingToken.sol\":7736:7766  newBalance.sub(currentBalance) */\n      tag_348\n        /* \"DividendPayingToken.sol\":7736:7746  newBalance */\n      dup4\n        /* \"DividendPayingToken.sol\":7751:7765  currentBalance */\n      dup4\n        /* \"DividendPayingToken.sol\":7736:7750  newBalance.sub */\n      tag_228\n        /* \"DividendPayingToken.sol\":7736:7766  newBalance.sub(currentBalance) */\n      jump\t// in\n    tag_348:\n        /* \"DividendPayingToken.sol\":7715:7766  uint256 mintAmount = newBalance.sub(currentBalance) */\n      swap1\n      pop\n        /* \"DividendPayingToken.sol\":7774:7800  _mint(account, mintAmount) */\n      tag_349\n        /* \"DividendPayingToken.sol\":7780:7787  account */\n      dup5\n        /* \"DividendPayingToken.sol\":7789:7799  mintAmount */\n      dup3\n        /* \"DividendPayingToken.sol\":7774:7779  _mint */\n      tag_350\n        /* \"DividendPayingToken.sol\":7774:7800  _mint(account, mintAmount) */\n      jump\t// in\n    tag_349:\n        /* \"DividendPayingToken.sol\":7675:7945  if(newBalance > currentBalance) {... */\n      pop\n      jump(tag_268)\n    tag_347:\n        /* \"DividendPayingToken.sol\":7829:7843  currentBalance */\n      dup1\n        /* \"DividendPayingToken.sol\":7816:7826  newBalance */\n      dup3\n        /* \"DividendPayingToken.sol\":7816:7843  newBalance < currentBalance */\n      lt\n        /* \"DividendPayingToken.sol\":7813:7945  if(newBalance < currentBalance) {... */\n      iszero\n      tag_268\n      jumpi\n        /* \"DividendPayingToken.sol\":7853:7871  uint256 burnAmount */\n      0x00\n        /* \"DividendPayingToken.sol\":7874:7904  currentBalance.sub(newBalance) */\n      tag_353\n        /* \"DividendPayingToken.sol\":7874:7888  currentBalance */\n      dup3\n        /* \"DividendPayingToken.sol\":7893:7903  newBalance */\n      dup5\n        /* \"DividendPayingToken.sol\":7874:7892  currentBalance.sub */\n      tag_228\n        /* \"DividendPayingToken.sol\":7874:7904  currentBalance.sub(newBalance) */\n      jump\t// in\n    tag_353:\n        /* \"DividendPayingToken.sol\":7853:7904  uint256 burnAmount = currentBalance.sub(newBalance) */\n      swap1\n      pop\n        /* \"DividendPayingToken.sol\":7912:7938  _burn(account, burnAmount) */\n      tag_354\n        /* \"DividendPayingToken.sol\":7918:7925  account */\n      dup5\n        /* \"DividendPayingToken.sol\":7927:7937  burnAmount */\n      dup3\n        /* \"DividendPayingToken.sol\":7912:7917  _burn */\n      tag_355\n        /* \"DividendPayingToken.sol\":7912:7938  _burn(account, burnAmount) */\n      jump\t// in\n    tag_354:\n        /* \"DividendPayingToken.sol\":7813:7945  if(newBalance < currentBalance) {... */\n      pop\n        /* \"DividendPayingToken.sol\":7552:7949  function _setBalance(address account, uint256 newBalance) internal {... */\n      pop\n      pop\n      pop\n      jump\t// out\n        /* \"SafeMath.sol\":310:486  function add(uint256 a, uint256 b) internal pure returns (uint256) {... */\n    tag_194:\n        /* \"SafeMath.sol\":368:375  uint256 */\n      0x00\n        /* \"SafeMath.sol\":399:404  a + b */\n      dup3\n      dup3\n      add\n        /* \"SafeMath.sol\":422:428  c >= a */\n      dup4\n      dup2\n      lt\n      iszero\n        /* \"SafeMath.sol\":414:460  require(c >= a, \"SafeMath: addition overflow\") */\n      tag_335\n      jumpi\n      0x40\n      dup1\n      mload\n      shl(0xe5, 0x461bcd)\n      dup2\n      mstore\n      0x20\n      0x04\n      dup3\n      add\n      mstore\n      0x1b\n      0x24\n      dup3\n      add\n      mstore\n      0x536166654d6174683a206164646974696f6e206f766572666c6f770000000000\n      0x44\n      dup3\n      add\n      mstore\n      swap1\n      mload\n      swap1\n      dup2\n      swap1\n      sub\n      0x64\n      add\n      swap1\n      revert\n        /* \"SafeMath.sol\":757:891  function sub(uint256 a, uint256 b) internal pure returns (uint256) {... */\n    tag_228:\n        /* \"SafeMath.sol\":815:822  uint256 */\n      0x00\n        /* \"SafeMath.sol\":841:884  sub(a, b, \"SafeMath: subtraction overflow\") */\n      tag_335\n        /* \"SafeMath.sol\":845:846  a */\n      dup4\n        /* \"SafeMath.sol\":848:849  b */\n      dup4\n        /* \"SafeMath.sol\":841:884  sub(a, b, \"SafeMath: subtraction overflow\") */\n      mload(0x40)\n      dup1\n      0x40\n      add\n      0x40\n      mstore\n      dup1\n      0x1e\n      dup2\n      mstore\n      0x20\n      add\n      0x536166654d6174683a207375627472616374696f6e206f766572666c6f770000\n      dup2\n      mstore\n      pop\n        /* \"SafeMath.sol\":841:844  sub */\n      tag_166\n        /* \"SafeMath.sol\":841:884  sub(a, b, \"SafeMath: subtraction overflow\") */\n      jump\t// in\n        /* \"DividendPayingToken.sol\":3516:4118  function _withdrawDividendOfUser(address payable user) internal returns (uint256) {... */\n    tag_250:\n        /* \"DividendPayingToken.sol\":3589:3596  uint256 */\n      0x00\n        /* \"DividendPayingToken.sol\":3604:3633  uint256 _withdrawableDividend */\n      dup1\n        /* \"DividendPayingToken.sol\":3636:3664  withdrawableDividendOf(user) */\n      tag_361\n        /* \"DividendPayingToken.sol\":3659:3663  user */\n      dup4\n        /* \"DividendPayingToken.sol\":3636:3658  withdrawableDividendOf */\n      tag_113\n        /* \"DividendPayingToken.sol\":3636:3664  withdrawableDividendOf(user) */\n      jump\t// in\n    tag_361:\n        /* \"DividendPayingToken.sol\":3604:3664  uint256 _withdrawableDividend = withdrawableDividendOf(user) */\n      swap1\n      pop\n        /* \"DividendPayingToken.sol\":3674:3699  _withdrawableDividend > 0 */\n      dup1\n      iszero\n        /* \"DividendPayingToken.sol\":3670:4099  if (_withdrawableDividend > 0) {... */\n      tag_362\n      jumpi\n      sub(shl(0xa0, 0x01), 0x01)\n        /* \"DividendPayingToken.sol\":3736:3760  withdrawnDividends[user] */\n      dup4\n      and\n      0x00\n      swap1\n      dup2\n      mstore\n        /* \"DividendPayingToken.sol\":3736:3754  withdrawnDividends */\n      0x08\n        /* \"DividendPayingToken.sol\":3736:3760  withdrawnDividends[user] */\n      0x20\n      mstore\n      0x40\n      swap1\n      keccak256\n      sload\n        /* \"DividendPayingToken.sol\":3736:3787  withdrawnDividends[user].add(_withdrawableDividend) */\n      tag_363\n      swap1\n        /* \"DividendPayingToken.sol\":3765:3786  _withdrawableDividend */\n      dup3\n        /* \"DividendPayingToken.sol\":3736:3764  withdrawnDividends[user].add */\n      tag_194\n        /* \"DividendPayingToken.sol\":3736:3787  withdrawnDividends[user].add(_withdrawableDividend) */\n      jump\t// in\n    tag_363:\n      sub(shl(0xa0, 0x01), 0x01)\n        /* \"DividendPayingToken.sol\":3709:3733  withdrawnDividends[user] */\n      dup5\n      and\n      0x00\n      dup2\n      dup2\n      mstore\n        /* \"DividendPayingToken.sol\":3709:3727  withdrawnDividends */\n      0x08\n        /* \"DividendPayingToken.sol\":3709:3733  withdrawnDividends[user] */\n      0x20\n      swap1\n      dup2\n      mstore\n      0x40\n      swap2\n      dup3\n      swap1\n      keccak256\n        /* \"DividendPayingToken.sol\":3709:3787  withdrawnDividends[user] = withdrawnDividends[user].add(_withdrawableDividend) */\n      swap4\n      swap1\n      swap4\n      sstore\n        /* \"DividendPayingToken.sol\":3800:3846  DividendWithdrawn(user, _withdrawableDividend) */\n      dup1\n      mload\n      dup5\n      dup2\n      mstore\n      swap1\n      mload\n        /* \"DividendPayingToken.sol\":3709:3733  withdrawnDividends[user] */\n      swap2\n      swap3\n        /* \"DividendPayingToken.sol\":3800:3846  DividendWithdrawn(user, _withdrawableDividend) */\n      0xee503bee2bb6a87e57bc57db795f98137327401a0e7b7ce42e37926cc1a9ca4d\n      swap3\n      swap2\n      dup3\n      swap1\n      sub\n      add\n      swap1\n      log2\n        /* \"DividendPayingToken.sol\":3854:3866  bool success */\n      0x00\n        /* \"DividendPayingToken.sol\":3876:3880  CAKE */\n      immutable(\"0x6590fa52fa76f967656340b874bc9ca09733c2fddea9886210ebcbbceee04b35\")\n      sub(shl(0xa0, 0x01), 0x01)\n        /* \"DividendPayingToken.sol\":3869:3890  IERC20(CAKE).transfer */\n      and\n      0xa9059cbb\n        /* \"DividendPayingToken.sol\":3891:3895  user */\n      dup6\n        /* \"DividendPayingToken.sol\":3897:3918  _withdrawableDividend */\n      dup5\n        /* \"DividendPayingToken.sol\":3869:3919  IERC20(CAKE).transfer(user, _withdrawableDividend) */\n      mload(0x40)\n      dup4\n      0xffffffff\n      and\n      0xe0\n      shl\n      dup2\n      mstore\n      0x04\n      add\n      dup1\n      dup4\n      sub(shl(0xa0, 0x01), 0x01)\n      and\n      dup2\n      mstore\n      0x20\n      add\n      dup3\n      dup2\n      mstore\n      0x20\n      add\n      swap3\n      pop\n      pop\n      pop\n      0x20\n      mload(0x40)\n      dup1\n      dup4\n      sub\n      dup2\n      0x00\n      dup8\n      dup1\n      extcodesize\n      iszero\n      dup1\n      iszero\n      tag_364\n      jumpi\n      0x00\n      dup1\n      revert\n    tag_364:\n      pop\n      gas\n      call\n      iszero\n      dup1\n      iszero\n      tag_366\n      jumpi\n      returndatasize\n      0x00\n      dup1\n      returndatacopy\n      revert(0x00, returndatasize)\n    tag_366:\n      pop\n      pop\n      pop\n      pop\n      mload(0x40)\n      returndatasize\n      0x20\n      dup2\n      lt\n      iszero\n      tag_367\n      jumpi\n      0x00\n      dup1\n      revert\n    tag_367:\n      pop\n      mload\n      swap1\n      pop\n      dup1\n        /* \"DividendPayingToken.sol\":3928:4056  if(!success) {... */\n      tag_368\n      jumpi\n      sub(shl(0xa0, 0x01), 0x01)\n        /* \"DividendPayingToken.sol\":3978:4002  withdrawnDividends[user] */\n      dup5\n      and\n      0x00\n      swap1\n      dup2\n      mstore\n        /* \"DividendPayingToken.sol\":3978:3996  withdrawnDividends */\n      0x08\n        /* \"DividendPayingToken.sol\":3978:4002  withdrawnDividends[user] */\n      0x20\n      mstore\n      0x40\n      swap1\n      keccak256\n      sload\n        /* \"DividendPayingToken.sol\":3978:4029  withdrawnDividends[user].sub(_withdrawableDividend) */\n      tag_369\n      swap1\n        /* \"DividendPayingToken.sol\":4007:4028  _withdrawableDividend */\n      dup4\n        /* \"DividendPayingToken.sol\":3978:4006  withdrawnDividends[user].sub */\n      tag_228\n        /* \"DividendPayingToken.sol\":3978:4029  withdrawnDividends[user].sub(_withdrawableDividend) */\n      jump\t// in\n    tag_369:\n      sub(shl(0xa0, 0x01), 0x01)\n        /* \"DividendPayingToken.sol\":3951:3975  withdrawnDividends[user] */\n      dup6\n      and\n      0x00\n      swap1\n      dup2\n      mstore\n        /* \"DividendPayingToken.sol\":3951:3969  withdrawnDividends */\n      0x08\n        /* \"DividendPayingToken.sol\":3951:3975  withdrawnDividends[user] */\n      0x20\n      mstore\n      0x40\n      dup2\n      keccak256\n        /* \"DividendPayingToken.sol\":3951:4029  withdrawnDividends[user] = withdrawnDividends[user].sub(_withdrawableDividend) */\n      swap2\n      swap1\n      swap2\n      sstore\n        /* \"DividendPayingToken.sol\":3951:3975  withdrawnDividends[user] */\n      swap3\n      pop\n        /* \"DividendPayingToken.sol\":4039:4047  return 0 */\n      tag_167\n      swap2\n      pop\n      pop\n      jump\n        /* \"DividendPayingToken.sol\":3928:4056  if(!success) {... */\n    tag_368:\n      pop\n        /* \"DividendPayingToken.sol\":4071:4092  _withdrawableDividend */\n      swap1\n      pop\n        /* \"DividendPayingToken.sol\":4064:4092  return _withdrawableDividend */\n      jump(tag_167)\n        /* \"DividendPayingToken.sol\":3670:4099  if (_withdrawableDividend > 0) {... */\n    tag_362:\n      pop\n        /* \"DividendPayingToken.sol\":4112:4113  0 */\n      0x00\n      swap3\n        /* \"DividendPayingToken.sol\":3516:4118  function _withdrawDividendOfUser(address payable user) internal returns (uint256) {... */\n      swap2\n      pop\n      pop\n      jump\t// out\n        /* \"SafeMathInt.sol\":2223:2395  function sub(int256 a, int256 b) internal pure returns (int256) {... */\n    tag_290:\n        /* \"SafeMathInt.sol\":2279:2285  int256 */\n      0x00\n        /* \"SafeMathInt.sol\":2308:2313  a - b */\n      dup2\n      dup4\n      sub\n        /* \"SafeMathInt.sol\":2332:2338  b >= 0 */\n      dup2\n      dup4\n      slt\n      dup1\n      iszero\n      swap1\n        /* \"SafeMathInt.sol\":2332:2348  b >= 0 && c <= a */\n      tag_371\n      jumpi\n      pop\n        /* \"SafeMathInt.sol\":2347:2348  a */\n      dup4\n        /* \"SafeMathInt.sol\":2342:2343  c */\n      dup2\n        /* \"SafeMathInt.sol\":2342:2348  c <= a */\n      sgt\n      iszero\n        /* \"SafeMathInt.sol\":2332:2348  b >= 0 && c <= a */\n    tag_371:\n        /* \"SafeMathInt.sol\":2331:2369  (b >= 0 && c <= a) || (b < 0 && c > a) */\n      dup1\n      tag_341\n      jumpi\n      pop\n        /* \"SafeMathInt.sol\":2358:2359  0 */\n      0x00\n        /* \"SafeMathInt.sol\":2354:2355  b */\n      dup4\n        /* \"SafeMathInt.sol\":2354:2359  b < 0 */\n      slt\n        /* \"SafeMathInt.sol\":2354:2368  b < 0 && c > a */\n      dup1\n      iszero\n      tag_341\n      jumpi\n      pop\n        /* \"SafeMathInt.sol\":2367:2368  a */\n      dup4\n        /* \"SafeMathInt.sol\":2363:2364  c */\n      dup2\n        /* \"SafeMathInt.sol\":2363:2368  c > a */\n      sgt\n        /* \"SafeMathInt.sol\":2323:2370  require((b >= 0 && c <= a) || (b < 0 && c > a)) */\n      tag_335\n      jumpi\n      0x00\n      dup1\n      revert\n        /* \"MONEYAVAXDividendTracker.sol\":4674:4887  function canAutoClaim(uint256 lastClaimTime) private view returns (bool) {... */\n    tag_313:\n        /* \"MONEYAVAXDividendTracker.sol\":4741:4745  bool */\n      0x00\n        /* \"MONEYAVAXDividendTracker.sol\":4773:4788  block.timestamp */\n      timestamp\n        /* \"MONEYAVAXDividendTracker.sol\":4757:4770  lastClaimTime */\n      dup3\n        /* \"MONEYAVAXDividendTracker.sol\":4757:4788  lastClaimTime > block.timestamp */\n      gt\n        /* \"MONEYAVAXDividendTracker.sol\":4754:4819  if(lastClaimTime > block.timestamp)  {... */\n      iszero\n      tag_376\n      jumpi\n      pop\n        /* \"MONEYAVAXDividendTracker.sol\":4806:4811  false */\n      0x00\n        /* \"MONEYAVAXDividendTracker.sol\":4799:4811  return false */\n      jump(tag_167)\n        /* \"MONEYAVAXDividendTracker.sol\":4754:4819  if(lastClaimTime > block.timestamp)  {... */\n    tag_376:\n        /* \"MONEYAVAXDividendTracker.sol\":4871:4880  claimWait */\n      sload(0x11)\n        /* \"MONEYAVAXDividendTracker.sol\":4833:4867  block.timestamp.sub(lastClaimTime) */\n      tag_377\n        /* \"MONEYAVAXDividendTracker.sol\":4833:4848  block.timestamp */\n      timestamp\n        /* \"MONEYAVAXDividendTracker.sol\":4853:4866  lastClaimTime */\n      dup5\n        /* \"MONEYAVAXDividendTracker.sol\":4833:4852  block.timestamp.sub */\n      tag_228\n        /* \"MONEYAVAXDividendTracker.sol\":4833:4867  block.timestamp.sub(lastClaimTime) */\n      jump\t// in\n    tag_377:\n        /* \"MONEYAVAXDividendTracker.sol\":4833:4880  block.timestamp.sub(lastClaimTime) >= claimWait */\n      lt\n      iszero\n      swap3\n        /* \"MONEYAVAXDividendTracker.sol\":4674:4887  function canAutoClaim(uint256 lastClaimTime) private view returns (bool) {... */\n      swap2\n      pop\n      pop\n      jump\t// out\n        /* \"DividendPayingToken.sol\":6769:7024  function _mint(address account, uint256 value) internal override {... */\n    tag_350:\n        /* \"DividendPayingToken.sol\":6840:6867  super._mint(account, value) */\n      tag_379\n        /* \"DividendPayingToken.sol\":6852:6859  account */\n      dup3\n        /* \"DividendPayingToken.sol\":6861:6866  value */\n      dup3\n        /* \"DividendPayingToken.sol\":6840:6851  super._mint */\n      tag_380\n        /* \"DividendPayingToken.sol\":6840:6867  super._mint(account, value) */\n      jump\t// in\n    tag_379:\n        /* \"DividendPayingToken.sol\":6914:7019  magnifiedDividendCorrections[account]... */\n      tag_381\n        /* \"DividendPayingToken.sol\":6964:7017  (magnifiedDividendPerShare.mul(value)).toInt256Safe() */\n      tag_382\n        /* \"DividendPayingToken.sol\":6965:7001  magnifiedDividendPerShare.mul(value) */\n      tag_171\n        /* \"DividendPayingToken.sol\":6995:7000  value */\n      dup4\n        /* \"DividendPayingToken.sol\":6965:6990  magnifiedDividendPerShare */\n      sload(0x06)\n        /* \"DividendPayingToken.sol\":6965:6994  magnifiedDividendPerShare.mul */\n      tag_173\n      swap1\n        /* \"DividendPayingToken.sol\":6965:7001  magnifiedDividendPerShare.mul(value) */\n      swap2\n      swap1\n      0xffffffff\n      and\n      jump\t// in\n        /* \"DividendPayingToken.sol\":6964:7017  (magnifiedDividendPerShare.mul(value)).toInt256Safe() */\n    tag_382:\n      sub(shl(0xa0, 0x01), 0x01)\n        /* \"DividendPayingToken.sol\":6914:6951  magnifiedDividendCorrections[account] */\n      dup5\n      and\n      0x00\n      swap1\n      dup2\n      mstore\n        /* \"DividendPayingToken.sol\":6914:6942  magnifiedDividendCorrections */\n      0x07\n        /* \"DividendPayingToken.sol\":6914:6951  magnifiedDividendCorrections[account] */\n      0x20\n      mstore\n      0x40\n      swap1\n      keccak256\n      sload\n      swap1\n        /* \"DividendPayingToken.sol\":6914:6962  magnifiedDividendCorrections[account]... */\n      tag_290\n        /* \"DividendPayingToken.sol\":6914:7019  magnifiedDividendCorrections[account]... */\n      jump\t// in\n    tag_381:\n      sub(shl(0xa0, 0x01), 0x01)\n        /* \"DividendPayingToken.sol\":6874:6911  magnifiedDividendCorrections[account] */\n      swap1\n      swap3\n      and\n      0x00\n      swap1\n      dup2\n      mstore\n        /* \"DividendPayingToken.sol\":6874:6902  magnifiedDividendCorrections */\n      0x07\n        /* \"DividendPayingToken.sol\":6874:6911  magnifiedDividendCorrections[account] */\n      0x20\n      mstore\n      0x40\n      swap1\n      keccak256\n        /* \"DividendPayingToken.sol\":6874:7019  magnifiedDividendCorrections[account] = magnifiedDividendCorrections[account]... */\n      swap2\n      swap1\n      swap2\n      sstore\n      pop\n        /* \"DividendPayingToken.sol\":6769:7024  function _mint(address account, uint256 value) internal override {... */\n      jump\t// out\n        /* \"DividendPayingToken.sol\":7293:7548  function _burn(address account, uint256 value) internal override {... */\n    tag_355:\n        /* \"DividendPayingToken.sol\":7364:7391  super._burn(account, value) */\n      tag_385\n        /* \"DividendPayingToken.sol\":7376:7383  account */\n      dup3\n        /* \"DividendPayingToken.sol\":7385:7390  value */\n      dup3\n        /* \"DividendPayingToken.sol\":7364:7375  super._burn */\n      tag_386\n        /* \"DividendPayingToken.sol\":7364:7391  super._burn(account, value) */\n      jump\t// in\n    tag_385:\n        /* \"DividendPayingToken.sol\":7438:7543  magnifiedDividendCorrections[account]... */\n      tag_381\n        /* \"DividendPayingToken.sol\":7488:7541  (magnifiedDividendPerShare.mul(value)).toInt256Safe() */\n      tag_388\n        /* \"DividendPayingToken.sol\":7489:7525  magnifiedDividendPerShare.mul(value) */\n      tag_171\n        /* \"DividendPayingToken.sol\":7519:7524  value */\n      dup4\n        /* \"DividendPayingToken.sol\":7489:7514  magnifiedDividendPerShare */\n      sload(0x06)\n        /* \"DividendPayingToken.sol\":7489:7518  magnifiedDividendPerShare.mul */\n      tag_173\n      swap1\n        /* \"DividendPayingToken.sol\":7489:7525  magnifiedDividendPerShare.mul(value) */\n      swap2\n      swap1\n      0xffffffff\n      and\n      jump\t// in\n        /* \"DividendPayingToken.sol\":7488:7541  (magnifiedDividendPerShare.mul(value)).toInt256Safe() */\n    tag_388:\n      sub(shl(0xa0, 0x01), 0x01)\n        /* \"DividendPayingToken.sol\":7438:7475  magnifiedDividendCorrections[account] */\n      dup5\n      and\n      0x00\n      swap1\n      dup2\n      mstore\n        /* \"DividendPayingToken.sol\":7438:7466  magnifiedDividendCorrections */\n      0x07\n        /* \"DividendPayingToken.sol\":7438:7475  magnifiedDividendCorrections[account] */\n      0x20\n      mstore\n      0x40\n      swap1\n      keccak256\n      sload\n      swap1\n        /* \"DividendPayingToken.sol\":7438:7486  magnifiedDividendCorrections[account]... */\n      tag_175\n        /* \"DividendPayingToken.sol\":7438:7543  magnifiedDividendCorrections[account]... */\n      jump\t// in\n        /* \"ERC20.sol\":7868:8238  function _mint(address account, uint256 amount) internal virtual {... */\n    tag_380:\n      sub(shl(0xa0, 0x01), 0x01)\n        /* \"ERC20.sol\":7951:7972  account != address(0) */\n      dup3\n      and\n        /* \"ERC20.sol\":7943:8008  require(account != address(0), \"ERC20: mint to the zero address\") */\n      tag_391\n      jumpi\n      0x40\n      dup1\n      mload\n      shl(0xe5, 0x461bcd)\n      dup2\n      mstore\n      0x20\n      0x04\n      dup3\n      add\n      mstore\n      0x1f\n      0x24\n      dup3\n      add\n      mstore\n      0x45524332303a206d696e7420746f20746865207a65726f206164647265737300\n      0x44\n      dup3\n      add\n      mstore\n      swap1\n      mload\n      swap1\n      dup2\n      swap1\n      sub\n      0x64\n      add\n      swap1\n      revert\n    tag_391:\n        /* \"ERC20.sol\":8019:8068  _beforeTokenTransfer(address(0), account, amount) */\n      tag_392\n        /* \"ERC20.sol\":8048:8049  0 */\n      0x00\n        /* \"ERC20.sol\":8052:8059  account */\n      dup4\n        /* \"ERC20.sol\":8061:8067  amount */\n      dup4\n        /* \"ERC20.sol\":8019:8039  _beforeTokenTransfer */\n      tag_268\n        /* \"ERC20.sol\":8019:8068  _beforeTokenTransfer(address(0), account, amount) */\n      jump\t// in\n    tag_392:\n        /* \"ERC20.sol\":8094:8106  _totalSupply */\n      sload(0x02)\n        /* \"ERC20.sol\":8094:8118  _totalSupply.add(amount) */\n      tag_394\n      swap1\n        /* \"ERC20.sol\":8111:8117  amount */\n      dup3\n        /* \"ERC20.sol\":8094:8110  _totalSupply.add */\n      tag_194\n        /* \"ERC20.sol\":8094:8118  _totalSupply.add(amount) */\n      jump\t// in\n    tag_394:\n        /* \"ERC20.sol\":8079:8091  _totalSupply */\n      0x02\n        /* \"ERC20.sol\":8079:8118  _totalSupply = _totalSupply.add(amount) */\n      sstore\n      sub(shl(0xa0, 0x01), 0x01)\n        /* \"ERC20.sol\":8149:8167  _balances[account] */\n      dup3\n      and\n        /* \"ERC20.sol\":8149:8158  _balances */\n      0x00\n        /* \"ERC20.sol\":8149:8167  _balances[account] */\n      swap1\n      dup2\n      mstore\n      0x20\n      dup2\n      swap1\n      mstore\n      0x40\n      swap1\n      keccak256\n      sload\n        /* \"ERC20.sol\":8149:8179  _balances[account].add(amount) */\n      tag_395\n      swap1\n        /* \"ERC20.sol\":8172:8178  amount */\n      dup3\n        /* \"ERC20.sol\":8149:8171  _balances[account].add */\n      tag_194\n        /* \"ERC20.sol\":8149:8179  _balances[account].add(amount) */\n      jump\t// in\n    tag_395:\n      sub(shl(0xa0, 0x01), 0x01)\n        /* \"ERC20.sol\":8128:8146  _balances[account] */\n      dup4\n      and\n        /* \"ERC20.sol\":8128:8137  _balances */\n      0x00\n        /* \"ERC20.sol\":8128:8146  _balances[account] */\n      dup2\n      dup2\n      mstore\n      0x20\n      dup2\n      dup2\n      mstore\n      0x40\n      dup1\n      dup4\n      keccak256\n        /* \"ERC20.sol\":8128:8179  _balances[account] = _balances[account].add(amount) */\n      swap5\n      swap1\n      swap5\n      sstore\n        /* \"ERC20.sol\":8194:8231  Transfer(address(0), account, amount) */\n      dup4\n      mload\n      dup6\n      dup2\n      mstore\n      swap4\n      mload\n        /* \"ERC20.sol\":8128:8146  _balances[account] */\n      swap3\n      swap4\n        /* \"ERC20.sol\":8128:8137  _balances */\n      swap2\n      swap3\n        /* \"ERC20.sol\":8194:8231  Transfer(address(0), account, amount) */\n      0xddf252ad1be2c89b69c2b068fc378daa952ba7f163c4a11628f55a4df523b3ef\n      swap3\n      dup2\n      swap1\n      sub\n      swap1\n      swap2\n      add\n      swap1\n      log3\n        /* \"ERC20.sol\":7868:8238  function _mint(address account, uint256 amount) internal virtual {... */\n      pop\n      pop\n      jump\t// out\n        /* \"ERC20.sol\":8558:8968  function _burn(address account, uint256 amount) internal virtual {... */\n    tag_386:\n      sub(shl(0xa0, 0x01), 0x01)\n        /* \"ERC20.sol\":8641:8662  account != address(0) */\n      dup3\n      and\n        /* \"ERC20.sol\":8633:8700  require(account != address(0), \"ERC20: burn from the zero address\") */\n      tag_397\n      jumpi\n      mload(0x40)\n      shl(0xe5, 0x461bcd)\n      dup2\n      mstore\n      0x04\n      add\n      dup1\n      dup1\n      0x20\n      add\n      dup3\n      dup2\n      sub\n      dup3\n      mstore\n      0x21\n      dup2\n      mstore\n      0x20\n      add\n      dup1\n      data_b16788493b576042bb52c50ed56189e0b250db113c7bfb1c3897d25cf9632d7f\n      0x21\n      swap2\n      codecopy\n      0x40\n      add\n      swap2\n      pop\n      pop\n      mload(0x40)\n      dup1\n      swap2\n      sub\n      swap1\n      revert\n    tag_397:\n        /* \"ERC20.sol\":8711:8760  _beforeTokenTransfer(account, address(0), amount) */\n      tag_398\n        /* \"ERC20.sol\":8732:8739  account */\n      dup3\n        /* \"ERC20.sol\":8749:8750  0 */\n      0x00\n        /* \"ERC20.sol\":8753:8759  amount */\n      dup4\n        /* \"ERC20.sol\":8711:8731  _beforeTokenTransfer */\n      tag_268\n        /* \"ERC20.sol\":8711:8760  _beforeTokenTransfer(account, address(0), amount) */\n      jump\t// in\n    tag_398:\n        /* \"ERC20.sol\":8792:8860  _balances[account].sub(amount, \"ERC20: burn amount exceeds balance\") */\n      tag_399\n        /* \"ERC20.sol\":8815:8821  amount */\n      dup2\n        /* \"ERC20.sol\":8792:8860  _balances[account].sub(amount, \"ERC20: burn amount exceeds balance\") */\n      mload(0x40)\n      dup1\n      0x60\n      add\n      0x40\n      mstore\n      dup1\n      0x22\n      dup2\n      mstore\n      0x20\n      add\n      data_149b126e7125232b4200af45303d04fba8b74653b1a295a6a561a528c33fefdd\n      0x22\n      swap2\n      codecopy\n      sub(shl(0xa0, 0x01), 0x01)\n        /* \"ERC20.sol\":8792:8810  _balances[account] */\n      dup6\n      and\n        /* \"ERC20.sol\":8792:8801  _balances */\n      0x00\n        /* \"ERC20.sol\":8792:8810  _balances[account] */\n      swap1\n      dup2\n      mstore\n      0x20\n      dup2\n      swap1\n      mstore\n      0x40\n      swap1\n      keccak256\n      sload\n      swap2\n        /* \"ERC20.sol\":8792:8860  _balances[account].sub(amount, \"ERC20: burn amount exceeds balance\") */\n      swap1\n        /* \"ERC20.sol\":8792:8814  _balances[account].sub */\n      tag_166\n        /* \"ERC20.sol\":8792:8860  _balances[account].sub(amount, \"ERC20: burn amount exceeds balance\") */\n      jump\t// in\n    tag_399:\n      sub(shl(0xa0, 0x01), 0x01)\n        /* \"ERC20.sol\":8771:8789  _balances[account] */\n      dup4\n      and\n        /* \"ERC20.sol\":8771:8780  _balances */\n      0x00\n        /* \"ERC20.sol\":8771:8789  _balances[account] */\n      swap1\n      dup2\n      mstore\n      0x20\n      dup2\n      swap1\n      mstore\n      0x40\n      swap1\n      keccak256\n        /* \"ERC20.sol\":8771:8860  _balances[account] = _balances[account].sub(amount, \"ERC20: burn amount exceeds balance\") */\n      sstore\n        /* \"ERC20.sol\":8885:8897  _totalSupply */\n      sload(0x02)\n        /* \"ERC20.sol\":8885:8909  _totalSupply.sub(amount) */\n      tag_400\n      swap1\n        /* \"ERC20.sol\":8902:8908  amount */\n      dup3\n        /* \"ERC20.sol\":8885:8901  _totalSupply.sub */\n      tag_228\n        /* \"ERC20.sol\":8885:8909  _totalSupply.sub(amount) */\n      jump\t// in\n    tag_400:\n        /* \"ERC20.sol\":8870:8882  _totalSupply */\n      0x02\n        /* \"ERC20.sol\":8870:8909  _totalSupply = _totalSupply.sub(amount) */\n      sstore\n        /* \"ERC20.sol\":8924:8961  Transfer(account, address(0), amount) */\n      0x40\n      dup1\n      mload\n      dup3\n      dup2\n      mstore\n      swap1\n      mload\n        /* \"ERC20.sol\":8950:8951  0 */\n      0x00\n      swap2\n      sub(shl(0xa0, 0x01), 0x01)\n        /* \"ERC20.sol\":8924:8961  Transfer(account, address(0), amount) */\n      dup6\n      and\n      swap2\n      0xddf252ad1be2c89b69c2b068fc378daa952ba7f163c4a11628f55a4df523b3ef\n      swap2\n      dup2\n      swap1\n      sub\n      0x20\n      add\n      swap1\n      log3\n        /* \"ERC20.sol\":8558:8968  function _burn(address account, uint256 amount) internal virtual {... */\n      pop\n      pop\n      jump\t// out\n    stop\n    data_149b126e7125232b4200af45303d04fba8b74653b1a295a6a561a528c33fefdd 45524332303a206275726e20616d6f756e7420657863656564732062616c616e6365\n    data_245f15ff17f551913a7a18385165551503906a406f905ac1c2437281a7cd0cfe 4f776e61626c653a206e6577206f776e657220697320746865207a65726f2061646472657373\n    data_24883cc5fe64ace9d0df1893501ecb93c77180f0ff69cca79affb3c316dc8029 45524332303a20617070726f766520746f20746865207a65726f2061646472657373\n    data_4d2f405a35ca6c83b74bbde3a75785f77c58df6f366c6c72c07716bd11b48b44 4d4f4e4559415641585f4469766964656e645f547261636b65723a20636c61696d57616974206d757374206265207570646174656420746f206265747765656e203120616e6420323420686f757273\n    data_9113bb53c2876a3805b2c9242029423fc540a728243ce887ab24c82cf119fba3 536166654d6174683a206d756c7469706c69636174696f6e206f766572666c6f77\n    data_942c29fdcdc1c6c74273047a896f52dec5ef9bd1fdd2acaf85c319d066f5abc6 4d4f4e4559415641585f4469766964656e645f547261636b65723a2043616e6e6f742075706461746520636c61696d5761697420746f2073616d652076616c7565\n    data_974d1b4421da69cc60b481194f0dad36a5bb4e23da810da7a7fb30cdba178330 45524332303a207472616e7366657220616d6f756e74206578636565647320616c6c6f77616e6365\n    data_9924ebdf1add33d25d4ef888e16131f0a5687b0580a36c21b5c301a6c462effe 4f776e61626c653a2063616c6c6572206973206e6f7420746865206f776e6572\n    data_b16788493b576042bb52c50ed56189e0b250db113c7bfb1c3897d25cf9632d7f 45524332303a206275726e2066726f6d20746865207a65726f2061646472657373\n    data_c615061e29940b7a365b4fa13ab29a516e98be4c6c3d2f44713e16d490a2393f 4d4f4e4559415641585f4469766964656e645f547261636b65723a2077697468647261774469766964656e642064697361626c65642e20557365207468652027636c61696d272066756e6374696f6e206f6e20746865206d61696e204d4f4e45594156415820636f6e74726163742e\n    data_c953f4879035ed60e766b34720f656aab5c697b141d924c283124ecedb91c208 45524332303a20617070726f76652066726f6d20746865207a65726f2061646472657373\n    data_e72b312e2e60f004feaa3159509b718300b3b0fca2c157bbc01115b4b8030bc3 4d4f4e4559415641585f4469766964656e645f547261636b65723a204e6f207472616e736665727320616c6c6f776564\n    data_f8b476f7d28209d77d4a4ac1fe36b9f8259aa1bb6bddfa6e89de7e51615cf8a8 45524332303a2064656372656173656420616c6c6f77616e63652062656c6f77207a65726f\n\n    auxdata: 0xa2646970667358221220c8a571dbf0b3795b30604026379bf037a831e3cac31721d0856c2dd3b5b9f8e264736f6c634300060c0033\n}\n",
				"bytecode": {
					"linkReferences": {
						"IterableMapping.sol": {
							"IterableMapping": [
								{
									"length": 20,
									"start": 3032
								},
								{
									"length": 20,
									"start": 3319
								},
								{
									"length": 20,
									"start": 3484
								},
								{
									"length": 20,
									"start": 4976
								},
								{
									"length": 20,
									"start": 5113
								},
								{
									"length": 20,
									"start": 5770
								}
							]
						}
					},
					"object": "60c06040527fb6076c93701d6a07266c31066b298aec6dd65c2d0000000000000000000000006080523480156200003557600080fd5b50604080518082018252601981527f4d4f4e4559415641585f4469766964656e5f547261636b65720000000000000060208083019182528351808501909452601a84527f4d4f4e4559415641585f4469766964656e645f547261636b657200000000000090840152815191929183918391620000b4916003916200014d565b508051620000ca9060049060208401906200014d565b5050506000620000df6200014960201b60201c565b600580546001600160a01b0319166001600160a01b038316908117909155604051919250906000907f8be0079c531659141344cd1fd0a4f28419497f9722a3daafe3b4186f6b6457e0908290a35050610e1060115550692a5a058fc295ed00000060a052620001e9565b3390565b828054600181600116156101000203166002900490600052602060002090601f016020900481019282601f106200019057805160ff1916838001178555620001c0565b82800160010185558215620001c0579182015b82811115620001c0578251825591602001919060010190620001a3565b50620001ce929150620001d2565b5090565b5b80821115620001ce5760008155600101620001d3565b60805160601c60a0516121556200021a6000398061102b52806110f8525080610a965280611ac452506121556000f3fe608060405234801561001057600080fd5b506004361061021c5760003560e01c806385a6b3ae11610125578063bc4c4b37116100ad578063e7841ec01161007c578063e7841ec01461067b578063e98030c714610683578063f2fde38b146106a0578063fbcbc0f1146106c6578063ffb2c479146106ec5761021c565b8063bc4c4b37146105eb578063be10b61414610619578063dd62ed3e14610621578063e30443bc1461064f5761021c565b8063a457c2d7116100f4578063a457c2d71461052a578063a8b9d24014610556578063a9059cbb1461057c578063aafd847a146105a8578063ba72a955146105ce5761021c565b806385a6b3ae146104ec5780638da5cb5b146104f457806391b89fba146104fc57806395d89b41146105225761021c565b806331e79db0116101a85780635183d6fd116101775780635183d6fd146104465780636a474002146104ae5780636f2789ec146104b657806370a08231146104be578063715018a6146104e45761021c565b806331e79db0146103a857806339509351146103d05780634ca6ef28146103fc5780634e7b827f146104205761021c565b8063226cfa3d116101ef578063226cfa3d1461030057806323b872dd1461032657806327ce01471461035c5780633009a60914610382578063313ce5671461038a5761021c565b806306fdde0314610221578063095ea7b31461029e57806309bbedde146102de57806318160ddd146102f8575b600080fd5b610229610727565b6040805160208082528351818301528351919283929083019185019080838360005b8381101561026357818101518382015260200161024b565b50505050905090810190601f1680156102905780820380516001836020036101000a031916815260200191505b509250505060405180910390f35b6102ca600480360360408110156102b457600080fd5b506001600160a01b0381351690602001356107bd565b604080519115158252519081900360200190f35b6102e66107db565b60408051918252519081900360200190f35b6102e66107e1565b6102e66004803603602081101561031657600080fd5b50356001600160a01b03166107e7565b6102ca6004803603606081101561033c57600080fd5b506001600160a01b038135811691602081013590911690604001356107f9565b6102e66004803603602081101561037257600080fd5b50356001600160a01b0316610880565b6102e66108df565b6103926108e5565b6040805160ff9092168252519081900360200190f35b6103ce600480360360208110156103be57600080fd5b50356001600160a01b03166108ea565b005b6102ca600480360360408110156103e657600080fd5b506001600160a01b038135169060200135610a46565b610404610a94565b604080516001600160a01b039092168252519081900360200190f35b6102ca6004803603602081101561043657600080fd5b50356001600160a01b0316610ab8565b6104636004803603602081101561045c57600080fd5b5035610acd565b604080516001600160a01b0390991689526020890197909752878701959095526060870193909352608086019190915260a085015260c084015260e083015251908190036101000190f35b6103ce610c2c565b6102e6610c63565b6102e6600480360360208110156104d457600080fd5b50356001600160a01b0316610c69565b6103ce610c84565b6102e6610d26565b610404610d2c565b6102e66004803603602081101561051257600080fd5b50356001600160a01b0316610d3b565b610229610d46565b6102ca6004803603604081101561054057600080fd5b506001600160a01b038135169060200135610da7565b6102e66004803603602081101561056c57600080fd5b50356001600160a01b0316610e0f565b6102ca6004803603604081101561059257600080fd5b506001600160a01b038135169060200135610e3b565b6102e6600480360360208110156105be57600080fd5b50356001600160a01b0316610e4f565b6103ce600480360360208110156105e457600080fd5b5035610e6a565b6102ca6004803603604081101561060157600080fd5b506001600160a01b0381351690602001351515610f54565b6102e6611029565b6102e66004803603604081101561063757600080fd5b506001600160a01b038135811691602001351661104d565b6103ce6004803603604081101561066557600080fd5b506001600160a01b038135169060200135611078565b6102e6611242565b6103ce6004803603602081101561069957600080fd5b5035611248565b6103ce600480360360208110156106b657600080fd5b50356001600160a01b0316611364565b610463600480360360208110156106dc57600080fd5b50356001600160a01b031661145d565b6107096004803603602081101561070257600080fd5b50356115d0565b60408051938452602084019290925282820152519081900360600190f35b60038054604080516020601f60026000196101006001881615020190951694909404938401819004810282018101909252828152606093909290918301828280156107b35780601f10610788576101008083540402835291602001916107b3565b820191906000526020600020905b81548152906001019060200180831161079657829003601f168201915b5050505050905090565b60006107d16107ca6116ce565b84846116d2565b5060015b92915050565b600a5490565b60025490565b60106020526000908152604090205481565b60006108068484846117be565b610876846108126116ce565b61087185604051806060016040528060288152602001611fcf602891396001600160a01b038a166000908152600160205260408120906108506116ce565b6001600160a01b0316815260208101919091526040016000205491906117f5565b6116d2565b5060019392505050565b6001600160a01b038116600090815260076020526040812054600160801b906108cf906108ca906108c46108bf6108b688610c69565b6006549061188c565b6118ec565b906118fc565b61192f565b816108d657fe5b0490505b919050565b600e5481565b601290565b6108f26116ce565b6005546001600160a01b03908116911614610942576040805162461bcd60e51b81526020600482018190526024820152600080516020611ff7833981519152604482015290519081900360640190fd5b6001600160a01b0381166000908152600f602052604090205460ff161561096857600080fd5b6001600160a01b0381166000908152600f60205260408120805460ff19166001179055610996908290611942565b6040805163131836e760e21b8152600a60048201526001600160a01b0383166024820152905173__$b5c84be7e522c98c303ad318c067b85931$__91634c60db9c916044808301926000929190829003018186803b1580156109f757600080fd5b505af4158015610a0b573d6000803e3d6000fd5b50506040516001600160a01b03841692507fa878b31040b2e6d0a9a3d3361209db3908ba62014b0dca52adbaee451d128b259150600090a250565b60006107d1610a536116ce565b846108718560016000610a646116ce565b6001600160a01b03908116825260208083019390935260409182016000908120918c16815292529020549061199b565b7f000000000000000000000000000000000000000000000000000000000000000081565b600f6020526000908152604090205460ff1681565b600080600080600080600080600a73__$b5c84be7e522c98c303ad318c067b85931$__63deb3d89690916040518263ffffffff1660e01b81526004018082815260200191505060206040518083038186803b158015610b2b57600080fd5b505af4158015610b3f573d6000803e3d6000fd5b505050506040513d6020811015610b5557600080fd5b50518910610b7c575060009650600019955085945086935083925082915081905080610c21565b6000600a73__$b5c84be7e522c98c303ad318c067b85931$__63d1aa9e7e90918c6040518363ffffffff1660e01b8152600401808381526020018281526020019250505060206040518083038186803b158015610bd857600080fd5b505af4158015610bec573d6000803e3d6000fd5b505050506040513d6020811015610c0257600080fd5b50519050610c0f8161145d565b98509850985098509850985098509850505b919395975091939597565b60405162461bcd60e51b815260040180806020018281038252606f815260200180612038606f913960800191505060405180910390fd5b60115481565b6001600160a01b031660009081526020819052604090205490565b610c8c6116ce565b6005546001600160a01b03908116911614610cdc576040805162461bcd60e51b81526020600482018190526024820152600080516020611ff7833981519152604482015290519081900360640190fd5b6005546040516000916001600160a01b0316907f8be0079c531659141344cd1fd0a4f28419497f9722a3daafe3b4186f6b6457e0908390a3600580546001600160a01b0319169055565b60095481565b6005546001600160a01b031690565b60006107d582610e0f565b60048054604080516020601f60026000196101006001881615020190951694909404938401819004810282018101909252828152606093909290918301828280156107b35780601f10610788576101008083540402835291602001916107b3565b60006107d1610db46116ce565b84610871856040518060600160405280602581526020016120fb6025913960016000610dde6116ce565b6001600160a01b03908116825260208083019390935260409182016000908120918d168152925290205491906117f5565b6001600160a01b0381166000908152600860205260408120546107d590610e3584610880565b906119f5565b60006107d1610e486116ce565b84846117be565b6001600160a01b031660009081526008602052604090205490565b610e726116ce565b6005546001600160a01b03908116911614610ec2576040805162461bcd60e51b81526020600482018190526024820152600080516020611ff7833981519152604482015290519081900360640190fd5b6000610ecc6107e1565b11610ed657600080fd5b8015610f5157610f07610ee76107e1565b610ef583600160801b61188c565b81610efc57fe5b60065491900461199b565b60065560408051828152905133917fa493a9229478c3fcd73f66d2cdeb7f94fd0f341da924d1054236d78454116511919081900360200190a2600954610f4d908261199b565b6009555b50565b6000610f5e6116ce565b6005546001600160a01b03908116911614610fae576040805162461bcd60e51b81526020600482018190526024820152600080516020611ff7833981519152604482015290519081900360640190fd5b6000610fb984611a37565b9050801561101f576001600160a01b0384166000818152601060209081526040918290204290558151848152915186151593927fa2c38e2d2fb7e3e1912d937fd1ca11ed6d51864dee4cfa7a7bf02becd7acf09292908290030190a360019150506107d5565b5060009392505050565b7f000000000000000000000000000000000000000000000000000000000000000081565b6001600160a01b03918216600090815260016020908152604080832093909416825291909152205490565b6110806116ce565b6005546001600160a01b039081169116146110d0576040805162461bcd60e51b81526020600482018190526024820152600080516020611ff7833981519152604482015290519081900360640190fd5b6001600160a01b0382166000908152600f602052604090205460ff16156110f65761123e565b7f000000000000000000000000000000000000000000000000000000000000000081106111ac576111278282611942565b60408051632f0ad01760e21b8152600a60048201526001600160a01b038416602482015260448101839052905173__$b5c84be7e522c98c303ad318c067b85931$__9163bc2b405c916064808301926000929190829003018186803b15801561118f57600080fd5b505af41580156111a3573d6000803e3d6000fd5b50505050611231565b6111b7826000611942565b6040805163131836e760e21b8152600a60048201526001600160a01b0384166024820152905173__$b5c84be7e522c98c303ad318c067b85931$__91634c60db9c916044808301926000929190829003018186803b15801561121857600080fd5b505af415801561122c573d6000803e3d6000fd5b505050505b61123c826001610f54565b505b5050565b600e5490565b6112506116ce565b6005546001600160a01b039081169116146112a0576040805162461bcd60e51b81526020600482018190526024820152600080516020611ff7833981519152604482015290519081900360640190fd5b610e1081101580156112b55750620151808111155b6112f05760405162461bcd60e51b815260040180806020018281038252604f815260200180611f1e604f913960600191505060405180910390fd5b6011548114156113315760405162461bcd60e51b8152600401808060200182810382526041815260200180611f8e6041913960600191505060405180910390fd5b60115460405182907f474ea64804364a1e29a4487ddb63c3342a2dd826ccd8acf48825e680a0e6f20f90600090a3601155565b61136c6116ce565b6005546001600160a01b039081169116146113bc576040805162461bcd60e51b81526020600482018190526024820152600080516020611ff7833981519152604482015290519081900360640190fd5b6001600160a01b0381166114015760405162461bcd60e51b8152600401808060200182810382526026815260200180611ed66026913960400191505060405180910390fd5b6005546040516001600160a01b038084169216907f8be0079c531659141344cd1fd0a4f28419497f9722a3daafe3b4186f6b6457e090600090a3600580546001600160a01b0319166001600160a01b0392909216919091179055565b600080600080600080600080889750600a73__$b5c84be7e522c98c303ad318c067b85931$__6317e142d190918a6040518363ffffffff1660e01b815260040180838152602001826001600160a01b031681526020019250505060206040518083038186803b1580156114cf57600080fd5b505af41580156114e3573d6000803e3d6000fd5b505050506040513d60208110156114f957600080fd5b5051965060001995506000871261155d57600e5487111561152957600e54611522908890611bc6565b955061155d565b600e54600a546000911061153e57600061154d565b600e54600a5461154d916119f5565b905061155988826118fc565b9650505b61156688610e0f565b945061157188610880565b6001600160a01b03891660009081526010602052604090205490945092508261159b5760006115a9565b6011546115a990849061199b565b91504282116115b95760006115c3565b6115c382426119f5565b9050919395975091939597565b600a5460009081908190806115f0575050600e54600092508291506116c7565b600e546000805a90506000805b898410801561160b57508582105b156116b657600a54600190950194851061162457600094505b6000600a600001868154811061163657fe5b60009182526020808320909101546001600160a01b0316808352601090915260409091205490915061166790611bf8565b1561168357611677816001610f54565b15611683576001909101905b60019092019160005a9050808511156116ad576116aa6116a386836119f5565b879061199b565b95505b93506115fd9050565b600e85905590975095509193505050505b9193909250565b3390565b6001600160a01b0383166117175760405162461bcd60e51b81526004018080602001828103825260248152602001806120a76024913960400191505060405180910390fd5b6001600160a01b03821661175c5760405162461bcd60e51b8152600401808060200182810382526022815260200180611efc6022913960400191505060405180910390fd5b6001600160a01b03808416600081815260016020908152604080832094871680845294825291829020859055815185815291517f8c5be1e5ebec7d5bd14f71427d1e84f3dd0314c0f7b2291e5b200ac8c7c3b9259281900390910190a3505050565b60405162461bcd60e51b81526004018080602001828103825260308152602001806120cb6030913960400191505060405180910390fd5b600081848411156118845760405162461bcd60e51b81526004018080602001828103825283818151815260200191508051906020019080838360005b83811015611849578181015183820152602001611831565b50505050905090810190601f1680156118765780820380516001836020036101000a031916815260200191505b509250505060405180910390fd5b505050900390565b60008261189b575060006107d5565b828202828482816118a857fe5b04146118e55760405162461bcd60e51b8152600401808060200182810382526021815260200180611f6d6021913960400191505060405180910390fd5b9392505050565b600081818112156107d557600080fd5b60008282018183128015906119115750838112155b80611926575060008312801561192657508381125b6118e557600080fd5b60008082121561193e57600080fd5b5090565b600061194d83610c69565b90508082111561197557600061196383836119f5565b905061196f8482611c1f565b5061123c565b8082101561123c57600061198982846119f5565b90506119958482611c83565b50505050565b6000828201838110156118e5576040805162461bcd60e51b815260206004820152601b60248201527f536166654d6174683a206164646974696f6e206f766572666c6f770000000000604482015290519081900360640190fd5b60006118e583836040518060400160405280601e81526020017f536166654d6174683a207375627472616374696f6e206f766572666c6f7700008152506117f5565b600080611a4383610e0f565b90508015611bbd576001600160a01b038316600090815260086020526040902054611a6e908261199b565b6001600160a01b038416600081815260086020908152604091829020939093558051848152905191927fee503bee2bb6a87e57bc57db795f98137327401a0e7b7ce42e37926cc1a9ca4d92918290030190a260007f00000000000000000000000000000000000000000000000000000000000000006001600160a01b031663a9059cbb85846040518363ffffffff1660e01b815260040180836001600160a01b0316815260200182815260200192505050602060405180830381600087803b158015611b3957600080fd5b505af1158015611b4d573d6000803e3d6000fd5b505050506040513d6020811015611b6357600080fd5b5051905080611bb5576001600160a01b038416600090815260086020526040902054611b8f90836119f5565b6001600160a01b03851660009081526008602052604081209190915592506108da915050565b5090506108da565b50600092915050565b6000818303818312801590611bdb5750838113155b80611926575060008312801561192657508381136118e557600080fd5b600042821115611c0a575060006108da565b601154611c1742846119f5565b101592915050565b611c298282611cc7565b611c63611c446108bf8360065461188c90919063ffffffff16565b6001600160a01b03841660009081526007602052604090205490611bc6565b6001600160a01b0390921660009081526007602052604090209190915550565b611c8d8282611db7565b611c63611ca86108bf8360065461188c90919063ffffffff16565b6001600160a01b038416600090815260076020526040902054906118fc565b6001600160a01b038216611d22576040805162461bcd60e51b815260206004820152601f60248201527f45524332303a206d696e7420746f20746865207a65726f206164647265737300604482015290519081900360640190fd5b611d2e6000838361123c565b600254611d3b908261199b565b6002556001600160a01b038216600090815260208190526040902054611d61908261199b565b6001600160a01b0383166000818152602081815260408083209490945583518581529351929391927fddf252ad1be2c89b69c2b068fc378daa952ba7f163c4a11628f55a4df523b3ef9281900390910190a35050565b6001600160a01b038216611dfc5760405162461bcd60e51b81526004018080602001828103825260218152602001806120176021913960400191505060405180910390fd5b611e088260008361123c565b611e4581604051806060016040528060228152602001611eb4602291396001600160a01b03851660009081526020819052604090205491906117f5565b6001600160a01b038316600090815260208190526040902055600254611e6b90826119f5565b6002556040805182815290516000916001600160a01b038516917fddf252ad1be2c89b69c2b068fc378daa952ba7f163c4a11628f55a4df523b3ef9181900360200190a3505056fe45524332303a206275726e20616d6f756e7420657863656564732062616c616e63654f776e61626c653a206e6577206f776e657220697320746865207a65726f206164647265737345524332303a20617070726f766520746f20746865207a65726f20616464726573734d4f4e4559415641585f4469766964656e645f547261636b65723a20636c61696d57616974206d757374206265207570646174656420746f206265747765656e203120616e6420323420686f757273536166654d6174683a206d756c7469706c69636174696f6e206f766572666c6f774d4f4e4559415641585f4469766964656e645f547261636b65723a2043616e6e6f742075706461746520636c61696d5761697420746f2073616d652076616c756545524332303a207472616e7366657220616d6f756e74206578636565647320616c6c6f77616e63654f776e61626c653a2063616c6c6572206973206e6f7420746865206f776e657245524332303a206275726e2066726f6d20746865207a65726f20616464726573734d4f4e4559415641585f4469766964656e645f547261636b65723a2077697468647261774469766964656e642064697361626c65642e20557365207468652027636c61696d272066756e6374696f6e206f6e20746865206d61696e204d4f4e45594156415820636f6e74726163742e45524332303a20617070726f76652066726f6d20746865207a65726f20616464726573734d4f4e4559415641585f4469766964656e645f547261636b65723a204e6f207472616e736665727320616c6c6f77656445524332303a2064656372656173656420616c6c6f77616e63652062656c6f77207a65726fa2646970667358221220c8a571dbf0b3795b30604026379bf037a831e3cac31721d0856c2dd3b5b9f8e264736f6c634300060c0033",
					"opcodes": "PUSH1 0xC0 PUSH1 0x40 MSTORE PUSH32 0xB6076C93701D6A07266C31066B298AEC6DD65C2D000000000000000000000000 PUSH1 0x80 MSTORE CALLVALUE DUP1 ISZERO PUSH3 0x35 JUMPI PUSH1 0x0 DUP1 REVERT JUMPDEST POP PUSH1 0x40 DUP1 MLOAD DUP1 DUP3 ADD DUP3 MSTORE PUSH1 0x19 DUP2 MSTORE PUSH32 0x4D4F4E4559415641585F4469766964656E5F547261636B657200000000000000 PUSH1 0x20 DUP1 DUP4 ADD SWAP2 DUP3 MSTORE DUP4 MLOAD DUP1 DUP6 ADD SWAP1 SWAP5 MSTORE PUSH1 0x1A DUP5 MSTORE PUSH32 0x4D4F4E4559415641585F4469766964656E645F547261636B6572000000000000 SWAP1 DUP5 ADD MSTORE DUP2 MLOAD SWAP2 SWAP3 SWAP2 DUP4 SWAP2 DUP4 SWAP2 PUSH3 0xB4 SWAP2 PUSH1 0x3 SWAP2 PUSH3 0x14D JUMP JUMPDEST POP DUP1 MLOAD PUSH3 0xCA SWAP1 PUSH1 0x4 SWAP1 PUSH1 0x20 DUP5 ADD SWAP1 PUSH3 0x14D JUMP JUMPDEST POP POP POP PUSH1 0x0 PUSH3 0xDF PUSH3 0x149 PUSH1 0x20 SHL PUSH1 0x20 SHR JUMP JUMPDEST PUSH1 0x5 DUP1 SLOAD PUSH1 0x1 PUSH1 0x1 PUSH1 0xA0 SHL SUB NOT AND PUSH1 0x1 PUSH1 0x1 PUSH1 0xA0 SHL SUB DUP4 AND SWAP1 DUP2 OR SWAP1 SWAP2 SSTORE PUSH1 0x40 MLOAD SWAP2 SWAP3 POP SWAP1 PUSH1 0x0 SWAP1 PUSH32 0x8BE0079C531659141344CD1FD0A4F28419497F9722A3DAAFE3B4186F6B6457E0 SWAP1 DUP3 SWAP1 LOG3 POP POP PUSH2 0xE10 PUSH1 0x11 SSTORE POP PUSH10 0x2A5A058FC295ED000000 PUSH1 0xA0 MSTORE PUSH3 0x1E9 JUMP JUMPDEST CALLER SWAP1 JUMP JUMPDEST DUP3 DUP1 SLOAD PUSH1 0x1 DUP2 PUSH1 0x1 AND ISZERO PUSH2 0x100 MUL SUB AND PUSH1 0x2 SWAP1 DIV SWAP1 PUSH1 0x0 MSTORE PUSH1 0x20 PUSH1 0x0 KECCAK256 SWAP1 PUSH1 0x1F ADD PUSH1 0x20 SWAP1 DIV DUP2 ADD SWAP3 DUP3 PUSH1 0x1F LT PUSH3 0x190 JUMPI DUP1 MLOAD PUSH1 0xFF NOT AND DUP4 DUP1 ADD OR DUP6 SSTORE PUSH3 0x1C0 JUMP JUMPDEST DUP3 DUP1 ADD PUSH1 0x1 ADD DUP6 SSTORE DUP3 ISZERO PUSH3 0x1C0 JUMPI SWAP2 DUP3 ADD JUMPDEST DUP3 DUP2 GT ISZERO PUSH3 0x1C0 JUMPI DUP3 MLOAD DUP3 SSTORE SWAP2 PUSH1 0x20 ADD SWAP2 SWAP1 PUSH1 0x1 ADD SWAP1 PUSH3 0x1A3 JUMP JUMPDEST POP PUSH3 0x1CE SWAP3 SWAP2 POP PUSH3 0x1D2 JUMP JUMPDEST POP SWAP1 JUMP JUMPDEST JUMPDEST DUP1 DUP3 GT ISZERO PUSH3 0x1CE JUMPI PUSH1 0x0 DUP2 SSTORE PUSH1 0x1 ADD PUSH3 0x1D3 JUMP JUMPDEST PUSH1 0x80 MLOAD PUSH1 0x60 SHR PUSH1 0xA0 MLOAD PUSH2 0x2155 PUSH3 0x21A PUSH1 0x0 CODECOPY DUP1 PUSH2 0x102B MSTORE DUP1 PUSH2 0x10F8 MSTORE POP DUP1 PUSH2 0xA96 MSTORE DUP1 PUSH2 0x1AC4 MSTORE POP PUSH2 0x2155 PUSH1 0x0 RETURN INVALID PUSH1 0x80 PUSH1 0x40 MSTORE CALLVALUE DUP1 ISZERO PUSH2 0x10 JUMPI PUSH1 0x0 DUP1 REVERT JUMPDEST POP PUSH1 0x4 CALLDATASIZE LT PUSH2 0x21C JUMPI PUSH1 0x0 CALLDATALOAD PUSH1 0xE0 SHR DUP1 PUSH4 0x85A6B3AE GT PUSH2 0x125 JUMPI DUP1 PUSH4 0xBC4C4B37 GT PUSH2 0xAD JUMPI DUP1 PUSH4 0xE7841EC0 GT PUSH2 0x7C JUMPI DUP1 PUSH4 0xE7841EC0 EQ PUSH2 0x67B JUMPI DUP1 PUSH4 0xE98030C7 EQ PUSH2 0x683 JUMPI DUP1 PUSH4 0xF2FDE38B EQ PUSH2 0x6A0 JUMPI DUP1 PUSH4 0xFBCBC0F1 EQ PUSH2 0x6C6 JUMPI DUP1 PUSH4 0xFFB2C479 EQ PUSH2 0x6EC JUMPI PUSH2 0x21C JUMP JUMPDEST DUP1 PUSH4 0xBC4C4B37 EQ PUSH2 0x5EB JUMPI DUP1 PUSH4 0xBE10B614 EQ PUSH2 0x619 JUMPI DUP1 PUSH4 0xDD62ED3E EQ PUSH2 0x621 JUMPI DUP1 PUSH4 0xE30443BC EQ PUSH2 0x64F JUMPI PUSH2 0x21C JUMP JUMPDEST DUP1 PUSH4 0xA457C2D7 GT PUSH2 0xF4 JUMPI DUP1 PUSH4 0xA457C2D7 EQ PUSH2 0x52A JUMPI DUP1 PUSH4 0xA8B9D240 EQ PUSH2 0x556 JUMPI DUP1 PUSH4 0xA9059CBB EQ PUSH2 0x57C JUMPI DUP1 PUSH4 0xAAFD847A EQ PUSH2 0x5A8 JUMPI DUP1 PUSH4 0xBA72A955 EQ PUSH2 0x5CE JUMPI PUSH2 0x21C JUMP JUMPDEST DUP1 PUSH4 0x85A6B3AE EQ PUSH2 0x4EC JUMPI DUP1 PUSH4 0x8DA5CB5B EQ PUSH2 0x4F4 JUMPI DUP1 PUSH4 0x91B89FBA EQ PUSH2 0x4FC JUMPI DUP1 PUSH4 0x95D89B41 EQ PUSH2 0x522 JUMPI PUSH2 0x21C JUMP JUMPDEST DUP1 PUSH4 0x31E79DB0 GT PUSH2 0x1A8 JUMPI DUP1 PUSH4 0x5183D6FD GT PUSH2 0x177 JUMPI DUP1 PUSH4 0x5183D6FD EQ PUSH2 0x446 JUMPI DUP1 PUSH4 0x6A474002 EQ PUSH2 0x4AE JUMPI DUP1 PUSH4 0x6F2789EC EQ PUSH2 0x4B6 JUMPI DUP1 PUSH4 0x70A08231 EQ PUSH2 0x4BE JUMPI DUP1 PUSH4 0x715018A6 EQ PUSH2 0x4E4 JUMPI PUSH2 0x21C JUMP JUMPDEST DUP1 PUSH4 0x31E79DB0 EQ PUSH2 0x3A8 JUMPI DUP1 PUSH4 0x39509351 EQ PUSH2 0x3D0 JUMPI DUP1 PUSH4 0x4CA6EF28 EQ PUSH2 0x3FC JUMPI DUP1 PUSH4 0x4E7B827F EQ PUSH2 0x420 JUMPI PUSH2 0x21C JUMP JUMPDEST DUP1 PUSH4 0x226CFA3D GT PUSH2 0x1EF JUMPI DUP1 PUSH4 0x226CFA3D EQ PUSH2 0x300 JUMPI DUP1 PUSH4 0x23B872DD EQ PUSH2 0x326 JUMPI DUP1 PUSH4 0x27CE0147 EQ PUSH2 0x35C JUMPI DUP1 PUSH4 0x3009A609 EQ PUSH2 0x382 JUMPI DUP1 PUSH4 0x313CE567 EQ PUSH2 0x38A JUMPI PUSH2 0x21C JUMP JUMPDEST DUP1 PUSH4 0x6FDDE03 EQ PUSH2 0x221 JUMPI DUP1 PUSH4 0x95EA7B3 EQ PUSH2 0x29E JUMPI DUP1 PUSH4 0x9BBEDDE EQ PUSH2 0x2DE JUMPI DUP1 PUSH4 0x18160DDD EQ PUSH2 0x2F8 JUMPI JUMPDEST PUSH1 0x0 DUP1 REVERT JUMPDEST PUSH2 0x229 PUSH2 0x727 JUMP JUMPDEST PUSH1 0x40 DUP1 MLOAD PUSH1 0x20 DUP1 DUP3 MSTORE DUP4 MLOAD DUP2 DUP4 ADD MSTORE DUP4 MLOAD SWAP2 SWAP3 DUP4 SWAP3 SWAP1 DUP4 ADD SWAP2 DUP6 ADD SWAP1 DUP1 DUP4 DUP4 PUSH1 0x0 JUMPDEST DUP4 DUP2 LT ISZERO PUSH2 0x263 JUMPI DUP2 DUP2 ADD MLOAD DUP4 DUP3 ADD MSTORE PUSH1 0x20 ADD PUSH2 0x24B JUMP JUMPDEST POP POP POP POP SWAP1 POP SWAP1 DUP2 ADD SWAP1 PUSH1 0x1F AND DUP1 ISZERO PUSH2 0x290 JUMPI DUP1 DUP3 SUB DUP1 MLOAD PUSH1 0x1 DUP4 PUSH1 0x20 SUB PUSH2 0x100 EXP SUB NOT AND DUP2 MSTORE PUSH1 0x20 ADD SWAP2 POP JUMPDEST POP SWAP3 POP POP POP PUSH1 0x40 MLOAD DUP1 SWAP2 SUB SWAP1 RETURN JUMPDEST PUSH2 0x2CA PUSH1 0x4 DUP1 CALLDATASIZE SUB PUSH1 0x40 DUP2 LT ISZERO PUSH2 0x2B4 JUMPI PUSH1 0x0 DUP1 REVERT JUMPDEST POP PUSH1 0x1 PUSH1 0x1 PUSH1 0xA0 SHL SUB DUP2 CALLDATALOAD AND SWAP1 PUSH1 0x20 ADD CALLDATALOAD PUSH2 0x7BD JUMP JUMPDEST PUSH1 0x40 DUP1 MLOAD SWAP2 ISZERO ISZERO DUP3 MSTORE MLOAD SWAP1 DUP2 SWAP1 SUB PUSH1 0x20 ADD SWAP1 RETURN JUMPDEST PUSH2 0x2E6 PUSH2 0x7DB JUMP JUMPDEST PUSH1 0x40 DUP1 MLOAD SWAP2 DUP3 MSTORE MLOAD SWAP1 DUP2 SWAP1 SUB PUSH1 0x20 ADD SWAP1 RETURN JUMPDEST PUSH2 0x2E6 PUSH2 0x7E1 JUMP JUMPDEST PUSH2 0x2E6 PUSH1 0x4 DUP1 CALLDATASIZE SUB PUSH1 0x20 DUP2 LT ISZERO PUSH2 0x316 JUMPI PUSH1 0x0 DUP1 REVERT JUMPDEST POP CALLDATALOAD PUSH1 0x1 PUSH1 0x1 PUSH1 0xA0 SHL SUB AND PUSH2 0x7E7 JUMP JUMPDEST PUSH2 0x2CA PUSH1 0x4 DUP1 CALLDATASIZE SUB PUSH1 0x60 DUP2 LT ISZERO PUSH2 0x33C JUMPI PUSH1 0x0 DUP1 REVERT JUMPDEST POP PUSH1 0x1 PUSH1 0x1 PUSH1 0xA0 SHL SUB DUP2 CALLDATALOAD DUP2 AND SWAP2 PUSH1 0x20 DUP2 ADD CALLDATALOAD SWAP1 SWAP2 AND SWAP1 PUSH1 0x40 ADD CALLDATALOAD PUSH2 0x7F9 JUMP JUMPDEST PUSH2 0x2E6 PUSH1 0x4 DUP1 CALLDATASIZE SUB PUSH1 0x20 DUP2 LT ISZERO PUSH2 0x372 JUMPI PUSH1 0x0 DUP1 REVERT JUMPDEST POP CALLDATALOAD PUSH1 0x1 PUSH1 0x1 PUSH1 0xA0 SHL SUB AND PUSH2 0x880 JUMP JUMPDEST PUSH2 0x2E6 PUSH2 0x8DF JUMP JUMPDEST PUSH2 0x392 PUSH2 0x8E5 JUMP JUMPDEST PUSH1 0x40 DUP1 MLOAD PUSH1 0xFF SWAP1 SWAP3 AND DUP3 MSTORE MLOAD SWAP1 DUP2 SWAP1 SUB PUSH1 0x20 ADD SWAP1 RETURN JUMPDEST PUSH2 0x3CE PUSH1 0x4 DUP1 CALLDATASIZE SUB PUSH1 0x20 DUP2 LT ISZERO PUSH2 0x3BE JUMPI PUSH1 0x0 DUP1 REVERT JUMPDEST POP CALLDATALOAD PUSH1 0x1 PUSH1 0x1 PUSH1 0xA0 SHL SUB AND PUSH2 0x8EA JUMP JUMPDEST STOP JUMPDEST PUSH2 0x2CA PUSH1 0x4 DUP1 CALLDATASIZE SUB PUSH1 0x40 DUP2 LT ISZERO PUSH2 0x3E6 JUMPI PUSH1 0x0 DUP1 REVERT JUMPDEST POP PUSH1 0x1 PUSH1 0x1 PUSH1 0xA0 SHL SUB DUP2 CALLDATALOAD AND SWAP1 PUSH1 0x20 ADD CALLDATALOAD PUSH2 0xA46 JUMP JUMPDEST PUSH2 0x404 PUSH2 0xA94 JUMP JUMPDEST PUSH1 0x40 DUP1 MLOAD PUSH1 0x1 PUSH1 0x1 PUSH1 0xA0 SHL SUB SWAP1 SWAP3 AND DUP3 MSTORE MLOAD SWAP1 DUP2 SWAP1 SUB PUSH1 0x20 ADD SWAP1 RETURN JUMPDEST PUSH2 0x2CA PUSH1 0x4 DUP1 CALLDATASIZE SUB PUSH1 0x20 DUP2 LT ISZERO PUSH2 0x436 JUMPI PUSH1 0x0 DUP1 REVERT JUMPDEST POP CALLDATALOAD PUSH1 0x1 PUSH1 0x1 PUSH1 0xA0 SHL SUB AND PUSH2 0xAB8 JUMP JUMPDEST PUSH2 0x463 PUSH1 0x4 DUP1 CALLDATASIZE SUB PUSH1 0x20 DUP2 LT ISZERO PUSH2 0x45C JUMPI PUSH1 0x0 DUP1 REVERT JUMPDEST POP CALLDATALOAD PUSH2 0xACD JUMP JUMPDEST PUSH1 0x40 DUP1 MLOAD PUSH1 0x1 PUSH1 0x1 PUSH1 0xA0 SHL SUB SWAP1 SWAP10 AND DUP10 MSTORE PUSH1 0x20 DUP10 ADD SWAP8 SWAP1 SWAP8 MSTORE DUP8 DUP8 ADD SWAP6 SWAP1 SWAP6 MSTORE PUSH1 0x60 DUP8 ADD SWAP4 SWAP1 SWAP4 MSTORE PUSH1 0x80 DUP7 ADD SWAP2 SWAP1 SWAP2 MSTORE PUSH1 0xA0 DUP6 ADD MSTORE PUSH1 0xC0 DUP5 ADD MSTORE PUSH1 0xE0 DUP4 ADD MSTORE MLOAD SWAP1 DUP2 SWAP1 SUB PUSH2 0x100 ADD SWAP1 RETURN JUMPDEST PUSH2 0x3CE PUSH2 0xC2C JUMP JUMPDEST PUSH2 0x2E6 PUSH2 0xC63 JUMP JUMPDEST PUSH2 0x2E6 PUSH1 0x4 DUP1 CALLDATASIZE SUB PUSH1 0x20 DUP2 LT ISZERO PUSH2 0x4D4 JUMPI PUSH1 0x0 DUP1 REVERT JUMPDEST POP CALLDATALOAD PUSH1 0x1 PUSH1 0x1 PUSH1 0xA0 SHL SUB AND PUSH2 0xC69 JUMP JUMPDEST PUSH2 0x3CE PUSH2 0xC84 JUMP JUMPDEST PUSH2 0x2E6 PUSH2 0xD26 JUMP JUMPDEST PUSH2 0x404 PUSH2 0xD2C JUMP JUMPDEST PUSH2 0x2E6 PUSH1 0x4 DUP1 CALLDATASIZE SUB PUSH1 0x20 DUP2 LT ISZERO PUSH2 0x512 JUMPI PUSH1 0x0 DUP1 REVERT JUMPDEST POP CALLDATALOAD PUSH1 0x1 PUSH1 0x1 PUSH1 0xA0 SHL SUB AND PUSH2 0xD3B JUMP JUMPDEST PUSH2 0x229 PUSH2 0xD46 JUMP JUMPDEST PUSH2 0x2CA PUSH1 0x4 DUP1 CALLDATASIZE SUB PUSH1 0x40 DUP2 LT ISZERO PUSH2 0x540 JUMPI PUSH1 0x0 DUP1 REVERT JUMPDEST POP PUSH1 0x1 PUSH1 0x1 PUSH1 0xA0 SHL SUB DUP2 CALLDATALOAD AND SWAP1 PUSH1 0x20 ADD CALLDATALOAD PUSH2 0xDA7 JUMP JUMPDEST PUSH2 0x2E6 PUSH1 0x4 DUP1 CALLDATASIZE SUB PUSH1 0x20 DUP2 LT ISZERO PUSH2 0x56C JUMPI PUSH1 0x0 DUP1 REVERT JUMPDEST POP CALLDATALOAD PUSH1 0x1 PUSH1 0x1 PUSH1 0xA0 SHL SUB AND PUSH2 0xE0F JUMP JUMPDEST PUSH2 0x2CA PUSH1 0x4 DUP1 CALLDATASIZE SUB PUSH1 0x40 DUP2 LT ISZERO PUSH2 0x592 JUMPI PUSH1 0x0 DUP1 REVERT JUMPDEST POP PUSH1 0x1 PUSH1 0x1 PUSH1 0xA0 SHL SUB DUP2 CALLDATALOAD AND SWAP1 PUSH1 0x20 ADD CALLDATALOAD PUSH2 0xE3B JUMP JUMPDEST PUSH2 0x2E6 PUSH1 0x4 DUP1 CALLDATASIZE SUB PUSH1 0x20 DUP2 LT ISZERO PUSH2 0x5BE JUMPI PUSH1 0x0 DUP1 REVERT JUMPDEST POP CALLDATALOAD PUSH1 0x1 PUSH1 0x1 PUSH1 0xA0 SHL SUB AND PUSH2 0xE4F JUMP JUMPDEST PUSH2 0x3CE PUSH1 0x4 DUP1 CALLDATASIZE SUB PUSH1 0x20 DUP2 LT ISZERO PUSH2 0x5E4 JUMPI PUSH1 0x0 DUP1 REVERT JUMPDEST POP CALLDATALOAD PUSH2 0xE6A JUMP JUMPDEST PUSH2 0x2CA PUSH1 0x4 DUP1 CALLDATASIZE SUB PUSH1 0x40 DUP2 LT ISZERO PUSH2 0x601 JUMPI PUSH1 0x0 DUP1 REVERT JUMPDEST POP PUSH1 0x1 PUSH1 0x1 PUSH1 0xA0 SHL SUB DUP2 CALLDATALOAD AND SWAP1 PUSH1 0x20 ADD CALLDATALOAD ISZERO ISZERO PUSH2 0xF54 JUMP JUMPDEST PUSH2 0x2E6 PUSH2 0x1029 JUMP JUMPDEST PUSH2 0x2E6 PUSH1 0x4 DUP1 CALLDATASIZE SUB PUSH1 0x40 DUP2 LT ISZERO PUSH2 0x637 JUMPI PUSH1 0x0 DUP1 REVERT JUMPDEST POP PUSH1 0x1 PUSH1 0x1 PUSH1 0xA0 SHL SUB DUP2 CALLDATALOAD DUP2 AND SWAP2 PUSH1 0x20 ADD CALLDATALOAD AND PUSH2 0x104D JUMP JUMPDEST PUSH2 0x3CE PUSH1 0x4 DUP1 CALLDATASIZE SUB PUSH1 0x40 DUP2 LT ISZERO PUSH2 0x665 JUMPI PUSH1 0x0 DUP1 REVERT JUMPDEST POP PUSH1 0x1 PUSH1 0x1 PUSH1 0xA0 SHL SUB DUP2 CALLDATALOAD AND SWAP1 PUSH1 0x20 ADD CALLDATALOAD PUSH2 0x1078 JUMP JUMPDEST PUSH2 0x2E6 PUSH2 0x1242 JUMP JUMPDEST PUSH2 0x3CE PUSH1 0x4 DUP1 CALLDATASIZE SUB PUSH1 0x20 DUP2 LT ISZERO PUSH2 0x699 JUMPI PUSH1 0x0 DUP1 REVERT JUMPDEST POP CALLDATALOAD PUSH2 0x1248 JUMP JUMPDEST PUSH2 0x3CE PUSH1 0x4 DUP1 CALLDATASIZE SUB PUSH1 0x20 DUP2 LT ISZERO PUSH2 0x6B6 JUMPI PUSH1 0x0 DUP1 REVERT JUMPDEST POP CALLDATALOAD PUSH1 0x1 PUSH1 0x1 PUSH1 0xA0 SHL SUB AND PUSH2 0x1364 JUMP JUMPDEST PUSH2 0x463 PUSH1 0x4 DUP1 CALLDATASIZE SUB PUSH1 0x20 DUP2 LT ISZERO PUSH2 0x6DC JUMPI PUSH1 0x0 DUP1 REVERT JUMPDEST POP CALLDATALOAD PUSH1 0x1 PUSH1 0x1 PUSH1 0xA0 SHL SUB AND PUSH2 0x145D JUMP JUMPDEST PUSH2 0x709 PUSH1 0x4 DUP1 CALLDATASIZE SUB PUSH1 0x20 DUP2 LT ISZERO PUSH2 0x702 JUMPI PUSH1 0x0 DUP1 REVERT JUMPDEST POP CALLDATALOAD PUSH2 0x15D0 JUMP JUMPDEST PUSH1 0x40 DUP1 MLOAD SWAP4 DUP5 MSTORE PUSH1 0x20 DUP5 ADD SWAP3 SWAP1 SWAP3 MSTORE DUP3 DUP3 ADD MSTORE MLOAD SWAP1 DUP2 SWAP1 SUB PUSH1 0x60 ADD SWAP1 RETURN JUMPDEST PUSH1 0x3 DUP1 SLOAD PUSH1 0x40 DUP1 MLOAD PUSH1 0x20 PUSH1 0x1F PUSH1 0x2 PUSH1 0x0 NOT PUSH2 0x100 PUSH1 0x1 DUP9 AND ISZERO MUL ADD SWAP1 SWAP6 AND SWAP5 SWAP1 SWAP5 DIV SWAP4 DUP5 ADD DUP2 SWAP1 DIV DUP2 MUL DUP3 ADD DUP2 ADD SWAP1 SWAP3 MSTORE DUP3 DUP2 MSTORE PUSH1 0x60 SWAP4 SWAP1 SWAP3 SWAP1 SWAP2 DUP4 ADD DUP3 DUP3 DUP1 ISZERO PUSH2 0x7B3 JUMPI DUP1 PUSH1 0x1F LT PUSH2 0x788 JUMPI PUSH2 0x100 DUP1 DUP4 SLOAD DIV MUL DUP4 MSTORE SWAP2 PUSH1 0x20 ADD SWAP2 PUSH2 0x7B3 JUMP JUMPDEST DUP3 ADD SWAP2 SWAP1 PUSH1 0x0 MSTORE PUSH1 0x20 PUSH1 0x0 KECCAK256 SWAP1 JUMPDEST DUP2 SLOAD DUP2 MSTORE SWAP1 PUSH1 0x1 ADD SWAP1 PUSH1 0x20 ADD DUP1 DUP4 GT PUSH2 0x796 JUMPI DUP3 SWAP1 SUB PUSH1 0x1F AND DUP3 ADD SWAP2 JUMPDEST POP POP POP POP POP SWAP1 POP SWAP1 JUMP JUMPDEST PUSH1 0x0 PUSH2 0x7D1 PUSH2 0x7CA PUSH2 0x16CE JUMP JUMPDEST DUP5 DUP5 PUSH2 0x16D2 JUMP JUMPDEST POP PUSH1 0x1 JUMPDEST SWAP3 SWAP2 POP POP JUMP JUMPDEST PUSH1 0xA SLOAD SWAP1 JUMP JUMPDEST PUSH1 0x2 SLOAD SWAP1 JUMP JUMPDEST PUSH1 0x10 PUSH1 0x20 MSTORE PUSH1 0x0 SWAP1 DUP2 MSTORE PUSH1 0x40 SWAP1 KECCAK256 SLOAD DUP2 JUMP JUMPDEST PUSH1 0x0 PUSH2 0x806 DUP5 DUP5 DUP5 PUSH2 0x17BE JUMP JUMPDEST PUSH2 0x876 DUP5 PUSH2 0x812 PUSH2 0x16CE JUMP JUMPDEST PUSH2 0x871 DUP6 PUSH1 0x40 MLOAD DUP1 PUSH1 0x60 ADD PUSH1 0x40 MSTORE DUP1 PUSH1 0x28 DUP2 MSTORE PUSH1 0x20 ADD PUSH2 0x1FCF PUSH1 0x28 SWAP2 CODECOPY PUSH1 0x1 PUSH1 0x1 PUSH1 0xA0 SHL SUB DUP11 AND PUSH1 0x0 SWAP1 DUP2 MSTORE PUSH1 0x1 PUSH1 0x20 MSTORE PUSH1 0x40 DUP2 KECCAK256 SWAP1 PUSH2 0x850 PUSH2 0x16CE JUMP JUMPDEST PUSH1 0x1 PUSH1 0x1 PUSH1 0xA0 SHL SUB AND DUP2 MSTORE PUSH1 0x20 DUP2 ADD SWAP2 SWAP1 SWAP2 MSTORE PUSH1 0x40 ADD PUSH1 0x0 KECCAK256 SLOAD SWAP2 SWAP1 PUSH2 0x17F5 JUMP JUMPDEST PUSH2 0x16D2 JUMP JUMPDEST POP PUSH1 0x1 SWAP4 SWAP3 POP POP POP JUMP JUMPDEST PUSH1 0x1 PUSH1 0x1 PUSH1 0xA0 SHL SUB DUP2 AND PUSH1 0x0 SWAP1 DUP2 MSTORE PUSH1 0x7 PUSH1 0x20 MSTORE PUSH1 0x40 DUP2 KECCAK256 SLOAD PUSH1 0x1 PUSH1 0x80 SHL SWAP1 PUSH2 0x8CF SWAP1 PUSH2 0x8CA SWAP1 PUSH2 0x8C4 PUSH2 0x8BF PUSH2 0x8B6 DUP9 PUSH2 0xC69 JUMP JUMPDEST PUSH1 0x6 SLOAD SWAP1 PUSH2 0x188C JUMP JUMPDEST PUSH2 0x18EC JUMP JUMPDEST SWAP1 PUSH2 0x18FC JUMP JUMPDEST PUSH2 0x192F JUMP JUMPDEST DUP2 PUSH2 0x8D6 JUMPI INVALID JUMPDEST DIV SWAP1 POP JUMPDEST SWAP2 SWAP1 POP JUMP JUMPDEST PUSH1 0xE SLOAD DUP2 JUMP JUMPDEST PUSH1 0x12 SWAP1 JUMP JUMPDEST PUSH2 0x8F2 PUSH2 0x16CE JUMP JUMPDEST PUSH1 0x5 SLOAD PUSH1 0x1 PUSH1 0x1 PUSH1 0xA0 SHL SUB SWAP1 DUP2 AND SWAP2 AND EQ PUSH2 0x942 JUMPI PUSH1 0x40 DUP1 MLOAD PUSH3 0x461BCD PUSH1 0xE5 SHL DUP2 MSTORE PUSH1 0x20 PUSH1 0x4 DUP3 ADD DUP2 SWAP1 MSTORE PUSH1 0x24 DUP3 ADD MSTORE PUSH1 0x0 DUP1 MLOAD PUSH1 0x20 PUSH2 0x1FF7 DUP4 CODECOPY DUP2 MLOAD SWAP2 MSTORE PUSH1 0x44 DUP3 ADD MSTORE SWAP1 MLOAD SWAP1 DUP2 SWAP1 SUB PUSH1 0x64 ADD SWAP1 REVERT JUMPDEST PUSH1 0x1 PUSH1 0x1 PUSH1 0xA0 SHL SUB DUP2 AND PUSH1 0x0 SWAP1 DUP2 MSTORE PUSH1 0xF PUSH1 0x20 MSTORE PUSH1 0x40 SWAP1 KECCAK256 SLOAD PUSH1 0xFF AND ISZERO PUSH2 0x968 JUMPI PUSH1 0x0 DUP1 REVERT JUMPDEST PUSH1 0x1 PUSH1 0x1 PUSH1 0xA0 SHL SUB DUP2 AND PUSH1 0x0 SWAP1 DUP2 MSTORE PUSH1 0xF PUSH1 0x20 MSTORE PUSH1 0x40 DUP2 KECCAK256 DUP1 SLOAD PUSH1 0xFF NOT AND PUSH1 0x1 OR SWAP1 SSTORE PUSH2 0x996 SWAP1 DUP3 SWAP1 PUSH2 0x1942 JUMP JUMPDEST PUSH1 0x40 DUP1 MLOAD PUSH4 0x131836E7 PUSH1 0xE2 SHL DUP2 MSTORE PUSH1 0xA PUSH1 0x4 DUP3 ADD MSTORE PUSH1 0x1 PUSH1 0x1 PUSH1 0xA0 SHL SUB DUP4 AND PUSH1 0x24 DUP3 ADD MSTORE SWAP1 MLOAD PUSH20 0x0 SWAP2 PUSH4 0x4C60DB9C SWAP2 PUSH1 0x44 DUP1 DUP4 ADD SWAP3 PUSH1 0x0 SWAP3 SWAP2 SWAP1 DUP3 SWAP1 SUB ADD DUP2 DUP7 DUP1 EXTCODESIZE ISZERO DUP1 ISZERO PUSH2 0x9F7 JUMPI PUSH1 0x0 DUP1 REVERT JUMPDEST POP GAS DELEGATECALL ISZERO DUP1 ISZERO PUSH2 0xA0B JUMPI RETURNDATASIZE PUSH1 0x0 DUP1 RETURNDATACOPY RETURNDATASIZE PUSH1 0x0 REVERT JUMPDEST POP POP PUSH1 0x40 MLOAD PUSH1 0x1 PUSH1 0x1 PUSH1 0xA0 SHL SUB DUP5 AND SWAP3 POP PUSH32 0xA878B31040B2E6D0A9A3D3361209DB3908BA62014B0DCA52ADBAEE451D128B25 SWAP2 POP PUSH1 0x0 SWAP1 LOG2 POP JUMP JUMPDEST PUSH1 0x0 PUSH2 0x7D1 PUSH2 0xA53 PUSH2 0x16CE JUMP JUMPDEST DUP5 PUSH2 0x871 DUP6 PUSH1 0x1 PUSH1 0x0 PUSH2 0xA64 PUSH2 0x16CE JUMP JUMPDEST PUSH1 0x1 PUSH1 0x1 PUSH1 0xA0 SHL SUB SWAP1 DUP2 AND DUP3 MSTORE PUSH1 0x20 DUP1 DUP4 ADD SWAP4 SWAP1 SWAP4 MSTORE PUSH1 0x40 SWAP2 DUP3 ADD PUSH1 0x0 SWAP1 DUP2 KECCAK256 SWAP2 DUP13 AND DUP2 MSTORE SWAP3 MSTORE SWAP1 KECCAK256 SLOAD SWAP1 PUSH2 0x199B JUMP JUMPDEST PUSH32 0x0 DUP2 JUMP JUMPDEST PUSH1 0xF PUSH1 0x20 MSTORE PUSH1 0x0 SWAP1 DUP2 MSTORE PUSH1 0x40 SWAP1 KECCAK256 SLOAD PUSH1 0xFF AND DUP2 JUMP JUMPDEST PUSH1 0x0 DUP1 PUSH1 0x0 DUP1 PUSH1 0x0 DUP1 PUSH1 0x0 DUP1 PUSH1 0xA PUSH20 0x0 PUSH4 0xDEB3D896 SWAP1 SWAP2 PUSH1 0x40 MLOAD DUP3 PUSH4 0xFFFFFFFF AND PUSH1 0xE0 SHL DUP2 MSTORE PUSH1 0x4 ADD DUP1 DUP3 DUP2 MSTORE PUSH1 0x20 ADD SWAP2 POP POP PUSH1 0x20 PUSH1 0x40 MLOAD DUP1 DUP4 SUB DUP2 DUP7 DUP1 EXTCODESIZE ISZERO DUP1 ISZERO PUSH2 0xB2B JUMPI PUSH1 0x0 DUP1 REVERT JUMPDEST POP GAS DELEGATECALL ISZERO DUP1 ISZERO PUSH2 0xB3F JUMPI RETURNDATASIZE PUSH1 0x0 DUP1 RETURNDATACOPY RETURNDATASIZE PUSH1 0x0 REVERT JUMPDEST POP POP POP POP PUSH1 0x40 MLOAD RETURNDATASIZE PUSH1 0x20 DUP2 LT ISZERO PUSH2 0xB55 JUMPI PUSH1 0x0 DUP1 REVERT JUMPDEST POP MLOAD DUP10 LT PUSH2 0xB7C JUMPI POP PUSH1 0x0 SWAP7 POP PUSH1 0x0 NOT SWAP6 POP DUP6 SWAP5 POP DUP7 SWAP4 POP DUP4 SWAP3 POP DUP3 SWAP2 POP DUP2 SWAP1 POP DUP1 PUSH2 0xC21 JUMP JUMPDEST PUSH1 0x0 PUSH1 0xA PUSH20 0x0 PUSH4 0xD1AA9E7E SWAP1 SWAP2 DUP13 PUSH1 0x40 MLOAD DUP4 PUSH4 0xFFFFFFFF AND PUSH1 0xE0 SHL DUP2 MSTORE PUSH1 0x4 ADD DUP1 DUP4 DUP2 MSTORE PUSH1 0x20 ADD DUP3 DUP2 MSTORE PUSH1 0x20 ADD SWAP3 POP POP POP PUSH1 0x20 PUSH1 0x40 MLOAD DUP1 DUP4 SUB DUP2 DUP7 DUP1 EXTCODESIZE ISZERO DUP1 ISZERO PUSH2 0xBD8 JUMPI PUSH1 0x0 DUP1 REVERT JUMPDEST POP GAS DELEGATECALL ISZERO DUP1 ISZERO PUSH2 0xBEC JUMPI RETURNDATASIZE PUSH1 0x0 DUP1 RETURNDATACOPY RETURNDATASIZE PUSH1 0x0 REVERT JUMPDEST POP POP POP POP PUSH1 0x40 MLOAD RETURNDATASIZE PUSH1 0x20 DUP2 LT ISZERO PUSH2 0xC02 JUMPI PUSH1 0x0 DUP1 REVERT JUMPDEST POP MLOAD SWAP1 POP PUSH2 0xC0F DUP2 PUSH2 0x145D JUMP JUMPDEST SWAP9 POP SWAP9 POP SWAP9 POP SWAP9 POP SWAP9 POP SWAP9 POP SWAP9 POP SWAP9 POP POP JUMPDEST SWAP2 SWAP4 SWAP6 SWAP8 POP SWAP2 SWAP4 SWAP6 SWAP8 JUMP JUMPDEST PUSH1 0x40 MLOAD PUSH3 0x461BCD PUSH1 0xE5 SHL DUP2 MSTORE PUSH1 0x4 ADD DUP1 DUP1 PUSH1 0x20 ADD DUP3 DUP2 SUB DUP3 MSTORE PUSH1 0x6F DUP2 MSTORE PUSH1 0x20 ADD DUP1 PUSH2 0x2038 PUSH1 0x6F SWAP2 CODECOPY PUSH1 0x80 ADD SWAP2 POP POP PUSH1 0x40 MLOAD DUP1 SWAP2 SUB SWAP1 REVERT JUMPDEST PUSH1 0x11 SLOAD DUP2 JUMP JUMPDEST PUSH1 0x1 PUSH1 0x1 PUSH1 0xA0 SHL SUB AND PUSH1 0x0 SWAP1 DUP2 MSTORE PUSH1 0x20 DUP2 SWAP1 MSTORE PUSH1 0x40 SWAP1 KECCAK256 SLOAD SWAP1 JUMP JUMPDEST PUSH2 0xC8C PUSH2 0x16CE JUMP JUMPDEST PUSH1 0x5 SLOAD PUSH1 0x1 PUSH1 0x1 PUSH1 0xA0 SHL SUB SWAP1 DUP2 AND SWAP2 AND EQ PUSH2 0xCDC JUMPI PUSH1 0x40 DUP1 MLOAD PUSH3 0x461BCD PUSH1 0xE5 SHL DUP2 MSTORE PUSH1 0x20 PUSH1 0x4 DUP3 ADD DUP2 SWAP1 MSTORE PUSH1 0x24 DUP3 ADD MSTORE PUSH1 0x0 DUP1 MLOAD PUSH1 0x20 PUSH2 0x1FF7 DUP4 CODECOPY DUP2 MLOAD SWAP2 MSTORE PUSH1 0x44 DUP3 ADD MSTORE SWAP1 MLOAD SWAP1 DUP2 SWAP1 SUB PUSH1 0x64 ADD SWAP1 REVERT JUMPDEST PUSH1 0x5 SLOAD PUSH1 0x40 MLOAD PUSH1 0x0 SWAP2 PUSH1 0x1 PUSH1 0x1 PUSH1 0xA0 SHL SUB AND SWAP1 PUSH32 0x8BE0079C531659141344CD1FD0A4F28419497F9722A3DAAFE3B4186F6B6457E0 SWAP1 DUP4 SWAP1 LOG3 PUSH1 0x5 DUP1 SLOAD PUSH1 0x1 PUSH1 0x1 PUSH1 0xA0 SHL SUB NOT AND SWAP1 SSTORE JUMP JUMPDEST PUSH1 0x9 SLOAD DUP2 JUMP JUMPDEST PUSH1 0x5 SLOAD PUSH1 0x1 PUSH1 0x1 PUSH1 0xA0 SHL SUB AND SWAP1 JUMP JUMPDEST PUSH1 0x0 PUSH2 0x7D5 DUP3 PUSH2 0xE0F JUMP JUMPDEST PUSH1 0x4 DUP1 SLOAD PUSH1 0x40 DUP1 MLOAD PUSH1 0x20 PUSH1 0x1F PUSH1 0x2 PUSH1 0x0 NOT PUSH2 0x100 PUSH1 0x1 DUP9 AND ISZERO MUL ADD SWAP1 SWAP6 AND SWAP5 SWAP1 SWAP5 DIV SWAP4 DUP5 ADD DUP2 SWAP1 DIV DUP2 MUL DUP3 ADD DUP2 ADD SWAP1 SWAP3 MSTORE DUP3 DUP2 MSTORE PUSH1 0x60 SWAP4 SWAP1 SWAP3 SWAP1 SWAP2 DUP4 ADD DUP3 DUP3 DUP1 ISZERO PUSH2 0x7B3 JUMPI DUP1 PUSH1 0x1F LT PUSH2 0x788 JUMPI PUSH2 0x100 DUP1 DUP4 SLOAD DIV MUL DUP4 MSTORE SWAP2 PUSH1 0x20 ADD SWAP2 PUSH2 0x7B3 JUMP JUMPDEST PUSH1 0x0 PUSH2 0x7D1 PUSH2 0xDB4 PUSH2 0x16CE JUMP JUMPDEST DUP5 PUSH2 0x871 DUP6 PUSH1 0x40 MLOAD DUP1 PUSH1 0x60 ADD PUSH1 0x40 MSTORE DUP1 PUSH1 0x25 DUP2 MSTORE PUSH1 0x20 ADD PUSH2 0x20FB PUSH1 0x25 SWAP2 CODECOPY PUSH1 0x1 PUSH1 0x0 PUSH2 0xDDE PUSH2 0x16CE JUMP JUMPDEST PUSH1 0x1 PUSH1 0x1 PUSH1 0xA0 SHL SUB SWAP1 DUP2 AND DUP3 MSTORE PUSH1 0x20 DUP1 DUP4 ADD SWAP4 SWAP1 SWAP4 MSTORE PUSH1 0x40 SWAP2 DUP3 ADD PUSH1 0x0 SWAP1 DUP2 KECCAK256 SWAP2 DUP14 AND DUP2 MSTORE SWAP3 MSTORE SWAP1 KECCAK256 SLOAD SWAP2 SWAP1 PUSH2 0x17F5 JUMP JUMPDEST PUSH1 0x1 PUSH1 0x1 PUSH1 0xA0 SHL SUB DUP2 AND PUSH1 0x0 SWAP1 DUP2 MSTORE PUSH1 0x8 PUSH1 0x20 MSTORE PUSH1 0x40 DUP2 KECCAK256 SLOAD PUSH2 0x7D5 SWAP1 PUSH2 0xE35 DUP5 PUSH2 0x880 JUMP JUMPDEST SWAP1 PUSH2 0x19F5 JUMP JUMPDEST PUSH1 0x0 PUSH2 0x7D1 PUSH2 0xE48 PUSH2 0x16CE JUMP JUMPDEST DUP5 DUP5 PUSH2 0x17BE JUMP JUMPDEST PUSH1 0x1 PUSH1 0x1 PUSH1 0xA0 SHL SUB AND PUSH1 0x0 SWAP1 DUP2 MSTORE PUSH1 0x8 PUSH1 0x20 MSTORE PUSH1 0x40 SWAP1 KECCAK256 SLOAD SWAP1 JUMP JUMPDEST PUSH2 0xE72 PUSH2 0x16CE JUMP JUMPDEST PUSH1 0x5 SLOAD PUSH1 0x1 PUSH1 0x1 PUSH1 0xA0 SHL SUB SWAP1 DUP2 AND SWAP2 AND EQ PUSH2 0xEC2 JUMPI PUSH1 0x40 DUP1 MLOAD PUSH3 0x461BCD PUSH1 0xE5 SHL DUP2 MSTORE PUSH1 0x20 PUSH1 0x4 DUP3 ADD DUP2 SWAP1 MSTORE PUSH1 0x24 DUP3 ADD MSTORE PUSH1 0x0 DUP1 MLOAD PUSH1 0x20 PUSH2 0x1FF7 DUP4 CODECOPY DUP2 MLOAD SWAP2 MSTORE PUSH1 0x44 DUP3 ADD MSTORE SWAP1 MLOAD SWAP1 DUP2 SWAP1 SUB PUSH1 0x64 ADD SWAP1 REVERT JUMPDEST PUSH1 0x0 PUSH2 0xECC PUSH2 0x7E1 JUMP JUMPDEST GT PUSH2 0xED6 JUMPI PUSH1 0x0 DUP1 REVERT JUMPDEST DUP1 ISZERO PUSH2 0xF51 JUMPI PUSH2 0xF07 PUSH2 0xEE7 PUSH2 0x7E1 JUMP JUMPDEST PUSH2 0xEF5 DUP4 PUSH1 0x1 PUSH1 0x80 SHL PUSH2 0x188C JUMP JUMPDEST DUP2 PUSH2 0xEFC JUMPI INVALID JUMPDEST PUSH1 0x6 SLOAD SWAP2 SWAP1 DIV PUSH2 0x199B JUMP JUMPDEST PUSH1 0x6 SSTORE PUSH1 0x40 DUP1 MLOAD DUP3 DUP2 MSTORE SWAP1 MLOAD CALLER SWAP2 PUSH32 0xA493A9229478C3FCD73F66D2CDEB7F94FD0F341DA924D1054236D78454116511 SWAP2 SWAP1 DUP2 SWAP1 SUB PUSH1 0x20 ADD SWAP1 LOG2 PUSH1 0x9 SLOAD PUSH2 0xF4D SWAP1 DUP3 PUSH2 0x199B JUMP JUMPDEST PUSH1 0x9 SSTORE JUMPDEST POP JUMP JUMPDEST PUSH1 0x0 PUSH2 0xF5E PUSH2 0x16CE JUMP JUMPDEST PUSH1 0x5 SLOAD PUSH1 0x1 PUSH1 0x1 PUSH1 0xA0 SHL SUB SWAP1 DUP2 AND SWAP2 AND EQ PUSH2 0xFAE JUMPI PUSH1 0x40 DUP1 MLOAD PUSH3 0x461BCD PUSH1 0xE5 SHL DUP2 MSTORE PUSH1 0x20 PUSH1 0x4 DUP3 ADD DUP2 SWAP1 MSTORE PUSH1 0x24 DUP3 ADD MSTORE PUSH1 0x0 DUP1 MLOAD PUSH1 0x20 PUSH2 0x1FF7 DUP4 CODECOPY DUP2 MLOAD SWAP2 MSTORE PUSH1 0x44 DUP3 ADD MSTORE SWAP1 MLOAD SWAP1 DUP2 SWAP1 SUB PUSH1 0x64 ADD SWAP1 REVERT JUMPDEST PUSH1 0x0 PUSH2 0xFB9 DUP5 PUSH2 0x1A37 JUMP JUMPDEST SWAP1 POP DUP1 ISZERO PUSH2 0x101F JUMPI PUSH1 0x1 PUSH1 0x1 PUSH1 0xA0 SHL SUB DUP5 AND PUSH1 0x0 DUP2 DUP2 MSTORE PUSH1 0x10 PUSH1 0x20 SWAP1 DUP2 MSTORE PUSH1 0x40 SWAP2 DUP3 SWAP1 KECCAK256 TIMESTAMP SWAP1 SSTORE DUP2 MLOAD DUP5 DUP2 MSTORE SWAP2 MLOAD DUP7 ISZERO ISZERO SWAP4 SWAP3 PUSH32 0xA2C38E2D2FB7E3E1912D937FD1CA11ED6D51864DEE4CFA7A7BF02BECD7ACF092 SWAP3 SWAP1 DUP3 SWAP1 SUB ADD SWAP1 LOG3 PUSH1 0x1 SWAP2 POP POP PUSH2 0x7D5 JUMP JUMPDEST POP PUSH1 0x0 SWAP4 SWAP3 POP POP POP JUMP JUMPDEST PUSH32 0x0 DUP2 JUMP JUMPDEST PUSH1 0x1 PUSH1 0x1 PUSH1 0xA0 SHL SUB SWAP2 DUP3 AND PUSH1 0x0 SWAP1 DUP2 MSTORE PUSH1 0x1 PUSH1 0x20 SWAP1 DUP2 MSTORE PUSH1 0x40 DUP1 DUP4 KECCAK256 SWAP4 SWAP1 SWAP5 AND DUP3 MSTORE SWAP2 SWAP1 SWAP2 MSTORE KECCAK256 SLOAD SWAP1 JUMP JUMPDEST PUSH2 0x1080 PUSH2 0x16CE JUMP JUMPDEST PUSH1 0x5 SLOAD PUSH1 0x1 PUSH1 0x1 PUSH1 0xA0 SHL SUB SWAP1 DUP2 AND SWAP2 AND EQ PUSH2 0x10D0 JUMPI PUSH1 0x40 DUP1 MLOAD PUSH3 0x461BCD PUSH1 0xE5 SHL DUP2 MSTORE PUSH1 0x20 PUSH1 0x4 DUP3 ADD DUP2 SWAP1 MSTORE PUSH1 0x24 DUP3 ADD MSTORE PUSH1 0x0 DUP1 MLOAD PUSH1 0x20 PUSH2 0x1FF7 DUP4 CODECOPY DUP2 MLOAD SWAP2 MSTORE PUSH1 0x44 DUP3 ADD MSTORE SWAP1 MLOAD SWAP1 DUP2 SWAP1 SUB PUSH1 0x64 ADD SWAP1 REVERT JUMPDEST PUSH1 0x1 PUSH1 0x1 PUSH1 0xA0 SHL SUB DUP3 AND PUSH1 0x0 SWAP1 DUP2 MSTORE PUSH1 0xF PUSH1 0x20 MSTORE PUSH1 0x40 SWAP1 KECCAK256 SLOAD PUSH1 0xFF AND ISZERO PUSH2 0x10F6 JUMPI PUSH2 0x123E JUMP JUMPDEST PUSH32 0x0 DUP2 LT PUSH2 0x11AC JUMPI PUSH2 0x1127 DUP3 DUP3 PUSH2 0x1942 JUMP JUMPDEST PUSH1 0x40 DUP1 MLOAD PUSH4 0x2F0AD017 PUSH1 0xE2 SHL DUP2 MSTORE PUSH1 0xA PUSH1 0x4 DUP3 ADD MSTORE PUSH1 0x1 PUSH1 0x1 PUSH1 0xA0 SHL SUB DUP5 AND PUSH1 0x24 DUP3 ADD MSTORE PUSH1 0x44 DUP2 ADD DUP4 SWAP1 MSTORE SWAP1 MLOAD PUSH20 0x0 SWAP2 PUSH4 0xBC2B405C SWAP2 PUSH1 0x64 DUP1 DUP4 ADD SWAP3 PUSH1 0x0 SWAP3 SWAP2 SWAP1 DUP3 SWAP1 SUB ADD DUP2 DUP7 DUP1 EXTCODESIZE ISZERO DUP1 ISZERO PUSH2 0x118F JUMPI PUSH1 0x0 DUP1 REVERT JUMPDEST POP GAS DELEGATECALL ISZERO DUP1 ISZERO PUSH2 0x11A3 JUMPI RETURNDATASIZE PUSH1 0x0 DUP1 RETURNDATACOPY RETURNDATASIZE PUSH1 0x0 REVERT JUMPDEST POP POP POP POP PUSH2 0x1231 JUMP JUMPDEST PUSH2 0x11B7 DUP3 PUSH1 0x0 PUSH2 0x1942 JUMP JUMPDEST PUSH1 0x40 DUP1 MLOAD PUSH4 0x131836E7 PUSH1 0xE2 SHL DUP2 MSTORE PUSH1 0xA PUSH1 0x4 DUP3 ADD MSTORE PUSH1 0x1 PUSH1 0x1 PUSH1 0xA0 SHL SUB DUP5 AND PUSH1 0x24 DUP3 ADD MSTORE SWAP1 MLOAD PUSH20 0x0 SWAP2 PUSH4 0x4C60DB9C SWAP2 PUSH1 0x44 DUP1 DUP4 ADD SWAP3 PUSH1 0x0 SWAP3 SWAP2 SWAP1 DUP3 SWAP1 SUB ADD DUP2 DUP7 DUP1 EXTCODESIZE ISZERO DUP1 ISZERO PUSH2 0x1218 JUMPI PUSH1 0x0 DUP1 REVERT JUMPDEST POP GAS DELEGATECALL ISZERO DUP1 ISZERO PUSH2 0x122C JUMPI RETURNDATASIZE PUSH1 0x0 DUP1 RETURNDATACOPY RETURNDATASIZE PUSH1 0x0 REVERT JUMPDEST POP POP POP POP JUMPDEST PUSH2 0x123C DUP3 PUSH1 0x1 PUSH2 0xF54 JUMP JUMPDEST POP JUMPDEST POP POP JUMP JUMPDEST PUSH1 0xE SLOAD SWAP1 JUMP JUMPDEST PUSH2 0x1250 PUSH2 0x16CE JUMP JUMPDEST PUSH1 0x5 SLOAD PUSH1 0x1 PUSH1 0x1 PUSH1 0xA0 SHL SUB SWAP1 DUP2 AND SWAP2 AND EQ PUSH2 0x12A0 JUMPI PUSH1 0x40 DUP1 MLOAD PUSH3 0x461BCD PUSH1 0xE5 SHL DUP2 MSTORE PUSH1 0x20 PUSH1 0x4 DUP3 ADD DUP2 SWAP1 MSTORE PUSH1 0x24 DUP3 ADD MSTORE PUSH1 0x0 DUP1 MLOAD PUSH1 0x20 PUSH2 0x1FF7 DUP4 CODECOPY DUP2 MLOAD SWAP2 MSTORE PUSH1 0x44 DUP3 ADD MSTORE SWAP1 MLOAD SWAP1 DUP2 SWAP1 SUB PUSH1 0x64 ADD SWAP1 REVERT JUMPDEST PUSH2 0xE10 DUP2 LT ISZERO DUP1 ISZERO PUSH2 0x12B5 JUMPI POP PUSH3 0x15180 DUP2 GT ISZERO JUMPDEST PUSH2 0x12F0 JUMPI PUSH1 0x40 MLOAD PUSH3 0x461BCD PUSH1 0xE5 SHL DUP2 MSTORE PUSH1 0x4 ADD DUP1 DUP1 PUSH1 0x20 ADD DUP3 DUP2 SUB DUP3 MSTORE PUSH1 0x4F DUP2 MSTORE PUSH1 0x20 ADD DUP1 PUSH2 0x1F1E PUSH1 0x4F SWAP2 CODECOPY PUSH1 0x60 ADD SWAP2 POP POP PUSH1 0x40 MLOAD DUP1 SWAP2 SUB SWAP1 REVERT JUMPDEST PUSH1 0x11 SLOAD DUP2 EQ ISZERO PUSH2 0x1331 JUMPI PUSH1 0x40 MLOAD PUSH3 0x461BCD PUSH1 0xE5 SHL DUP2 MSTORE PUSH1 0x4 ADD DUP1 DUP1 PUSH1 0x20 ADD DUP3 DUP2 SUB DUP3 MSTORE PUSH1 0x41 DUP2 MSTORE PUSH1 0x20 ADD DUP1 PUSH2 0x1F8E PUSH1 0x41 SWAP2 CODECOPY PUSH1 0x60 ADD SWAP2 POP POP PUSH1 0x40 MLOAD DUP1 SWAP2 SUB SWAP1 REVERT JUMPDEST PUSH1 0x11 SLOAD PUSH1 0x40 MLOAD DUP3 SWAP1 PUSH32 0x474EA64804364A1E29A4487DDB63C3342A2DD826CCD8ACF48825E680A0E6F20F SWAP1 PUSH1 0x0 SWAP1 LOG3 PUSH1 0x11 SSTORE JUMP JUMPDEST PUSH2 0x136C PUSH2 0x16CE JUMP JUMPDEST PUSH1 0x5 SLOAD PUSH1 0x1 PUSH1 0x1 PUSH1 0xA0 SHL SUB SWAP1 DUP2 AND SWAP2 AND EQ PUSH2 0x13BC JUMPI PUSH1 0x40 DUP1 MLOAD PUSH3 0x461BCD PUSH1 0xE5 SHL DUP2 MSTORE PUSH1 0x20 PUSH1 0x4 DUP3 ADD DUP2 SWAP1 MSTORE PUSH1 0x24 DUP3 ADD MSTORE PUSH1 0x0 DUP1 MLOAD PUSH1 0x20 PUSH2 0x1FF7 DUP4 CODECOPY DUP2 MLOAD SWAP2 MSTORE PUSH1 0x44 DUP3 ADD MSTORE SWAP1 MLOAD SWAP1 DUP2 SWAP1 SUB PUSH1 0x64 ADD SWAP1 REVERT JUMPDEST PUSH1 0x1 PUSH1 0x1 PUSH1 0xA0 SHL SUB DUP2 AND PUSH2 0x1401 JUMPI PUSH1 0x40 MLOAD PUSH3 0x461BCD PUSH1 0xE5 SHL DUP2 MSTORE PUSH1 0x4 ADD DUP1 DUP1 PUSH1 0x20 ADD DUP3 DUP2 SUB DUP3 MSTORE PUSH1 0x26 DUP2 MSTORE PUSH1 0x20 ADD DUP1 PUSH2 0x1ED6 PUSH1 0x26 SWAP2 CODECOPY PUSH1 0x40 ADD SWAP2 POP POP PUSH1 0x40 MLOAD DUP1 SWAP2 SUB SWAP1 REVERT JUMPDEST PUSH1 0x5 SLOAD PUSH1 0x40 MLOAD PUSH1 0x1 PUSH1 0x1 PUSH1 0xA0 SHL SUB DUP1 DUP5 AND SWAP3 AND SWAP1 PUSH32 0x8BE0079C531659141344CD1FD0A4F28419497F9722A3DAAFE3B4186F6B6457E0 SWAP1 PUSH1 0x0 SWAP1 LOG3 PUSH1 0x5 DUP1 SLOAD PUSH1 0x1 PUSH1 0x1 PUSH1 0xA0 SHL SUB NOT AND PUSH1 0x1 PUSH1 0x1 PUSH1 0xA0 SHL SUB SWAP3 SWAP1 SWAP3 AND SWAP2 SWAP1 SWAP2 OR SWAP1 SSTORE JUMP JUMPDEST PUSH1 0x0 DUP1 PUSH1 0x0 DUP1 PUSH1 0x0 DUP1 PUSH1 0x0 DUP1 DUP9 SWAP8 POP PUSH1 0xA PUSH20 0x0 PUSH4 0x17E142D1 SWAP1 SWAP2 DUP11 PUSH1 0x40 MLOAD DUP4 PUSH4 0xFFFFFFFF AND PUSH1 0xE0 SHL DUP2 MSTORE PUSH1 0x4 ADD DUP1 DUP4 DUP2 MSTORE PUSH1 0x20 ADD DUP3 PUSH1 0x1 PUSH1 0x1 PUSH1 0xA0 SHL SUB AND DUP2 MSTORE PUSH1 0x20 ADD SWAP3 POP POP POP PUSH1 0x20 PUSH1 0x40 MLOAD DUP1 DUP4 SUB DUP2 DUP7 DUP1 EXTCODESIZE ISZERO DUP1 ISZERO PUSH2 0x14CF JUMPI PUSH1 0x0 DUP1 REVERT JUMPDEST POP GAS DELEGATECALL ISZERO DUP1 ISZERO PUSH2 0x14E3 JUMPI RETURNDATASIZE PUSH1 0x0 DUP1 RETURNDATACOPY RETURNDATASIZE PUSH1 0x0 REVERT JUMPDEST POP POP POP POP PUSH1 0x40 MLOAD RETURNDATASIZE PUSH1 0x20 DUP2 LT ISZERO PUSH2 0x14F9 JUMPI PUSH1 0x0 DUP1 REVERT JUMPDEST POP MLOAD SWAP7 POP PUSH1 0x0 NOT SWAP6 POP PUSH1 0x0 DUP8 SLT PUSH2 0x155D JUMPI PUSH1 0xE SLOAD DUP8 GT ISZERO PUSH2 0x1529 JUMPI PUSH1 0xE SLOAD PUSH2 0x1522 SWAP1 DUP9 SWAP1 PUSH2 0x1BC6 JUMP JUMPDEST SWAP6 POP PUSH2 0x155D JUMP JUMPDEST PUSH1 0xE SLOAD PUSH1 0xA SLOAD PUSH1 0x0 SWAP2 LT PUSH2 0x153E JUMPI PUSH1 0x0 PUSH2 0x154D JUMP JUMPDEST PUSH1 0xE SLOAD PUSH1 0xA SLOAD PUSH2 0x154D SWAP2 PUSH2 0x19F5 JUMP JUMPDEST SWAP1 POP PUSH2 0x1559 DUP9 DUP3 PUSH2 0x18FC JUMP JUMPDEST SWAP7 POP POP JUMPDEST PUSH2 0x1566 DUP9 PUSH2 0xE0F JUMP JUMPDEST SWAP5 POP PUSH2 0x1571 DUP9 PUSH2 0x880 JUMP JUMPDEST PUSH1 0x1 PUSH1 0x1 PUSH1 0xA0 SHL SUB DUP10 AND PUSH1 0x0 SWAP1 DUP2 MSTORE PUSH1 0x10 PUSH1 0x20 MSTORE PUSH1 0x40 SWAP1 KECCAK256 SLOAD SWAP1 SWAP5 POP SWAP3 POP DUP3 PUSH2 0x159B JUMPI PUSH1 0x0 PUSH2 0x15A9 JUMP JUMPDEST PUSH1 0x11 SLOAD PUSH2 0x15A9 SWAP1 DUP5 SWAP1 PUSH2 0x199B JUMP JUMPDEST SWAP2 POP TIMESTAMP DUP3 GT PUSH2 0x15B9 JUMPI PUSH1 0x0 PUSH2 0x15C3 JUMP JUMPDEST PUSH2 0x15C3 DUP3 TIMESTAMP PUSH2 0x19F5 JUMP JUMPDEST SWAP1 POP SWAP2 SWAP4 SWAP6 SWAP8 POP SWAP2 SWAP4 SWAP6 SWAP8 JUMP JUMPDEST PUSH1 0xA SLOAD PUSH1 0x0 SWAP1 DUP2 SWAP1 DUP2 SWAP1 DUP1 PUSH2 0x15F0 JUMPI POP POP PUSH1 0xE SLOAD PUSH1 0x0 SWAP3 POP DUP3 SWAP2 POP PUSH2 0x16C7 JUMP JUMPDEST PUSH1 0xE SLOAD PUSH1 0x0 DUP1 GAS SWAP1 POP PUSH1 0x0 DUP1 JUMPDEST DUP10 DUP5 LT DUP1 ISZERO PUSH2 0x160B JUMPI POP DUP6 DUP3 LT JUMPDEST ISZERO PUSH2 0x16B6 JUMPI PUSH1 0xA SLOAD PUSH1 0x1 SWAP1 SWAP6 ADD SWAP5 DUP6 LT PUSH2 0x1624 JUMPI PUSH1 0x0 SWAP5 POP JUMPDEST PUSH1 0x0 PUSH1 0xA PUSH1 0x0 ADD DUP7 DUP2 SLOAD DUP2 LT PUSH2 0x1636 JUMPI INVALID JUMPDEST PUSH1 0x0 SWAP2 DUP3 MSTORE PUSH1 0x20 DUP1 DUP4 KECCAK256 SWAP1 SWAP2 ADD SLOAD PUSH1 0x1 PUSH1 0x1 PUSH1 0xA0 SHL SUB AND DUP1 DUP4 MSTORE PUSH1 0x10 SWAP1 SWAP2 MSTORE PUSH1 0x40 SWAP1 SWAP2 KECCAK256 SLOAD SWAP1 SWAP2 POP PUSH2 0x1667 SWAP1 PUSH2 0x1BF8 JUMP JUMPDEST ISZERO PUSH2 0x1683 JUMPI PUSH2 0x1677 DUP2 PUSH1 0x1 PUSH2 0xF54 JUMP JUMPDEST ISZERO PUSH2 0x1683 JUMPI PUSH1 0x1 SWAP1 SWAP2 ADD SWAP1 JUMPDEST PUSH1 0x1 SWAP1 SWAP3 ADD SWAP2 PUSH1 0x0 GAS SWAP1 POP DUP1 DUP6 GT ISZERO PUSH2 0x16AD JUMPI PUSH2 0x16AA PUSH2 0x16A3 DUP7 DUP4 PUSH2 0x19F5 JUMP JUMPDEST DUP8 SWAP1 PUSH2 0x199B JUMP JUMPDEST SWAP6 POP JUMPDEST SWAP4 POP PUSH2 0x15FD SWAP1 POP JUMP JUMPDEST PUSH1 0xE DUP6 SWAP1 SSTORE SWAP1 SWAP8 POP SWAP6 POP SWAP2 SWAP4 POP POP POP POP JUMPDEST SWAP2 SWAP4 SWAP1 SWAP3 POP JUMP JUMPDEST CALLER SWAP1 JUMP JUMPDEST PUSH1 0x1 PUSH1 0x1 PUSH1 0xA0 SHL SUB DUP4 AND PUSH2 0x1717 JUMPI PUSH1 0x40 MLOAD PUSH3 0x461BCD PUSH1 0xE5 SHL DUP2 MSTORE PUSH1 0x4 ADD DUP1 DUP1 PUSH1 0x20 ADD DUP3 DUP2 SUB DUP3 MSTORE PUSH1 0x24 DUP2 MSTORE PUSH1 0x20 ADD DUP1 PUSH2 0x20A7 PUSH1 0x24 SWAP2 CODECOPY PUSH1 0x40 ADD SWAP2 POP POP PUSH1 0x40 MLOAD DUP1 SWAP2 SUB SWAP1 REVERT JUMPDEST PUSH1 0x1 PUSH1 0x1 PUSH1 0xA0 SHL SUB DUP3 AND PUSH2 0x175C JUMPI PUSH1 0x40 MLOAD PUSH3 0x461BCD PUSH1 0xE5 SHL DUP2 MSTORE PUSH1 0x4 ADD DUP1 DUP1 PUSH1 0x20 ADD DUP3 DUP2 SUB DUP3 MSTORE PUSH1 0x22 DUP2 MSTORE PUSH1 0x20 ADD DUP1 PUSH2 0x1EFC PUSH1 0x22 SWAP2 CODECOPY PUSH1 0x40 ADD SWAP2 POP POP PUSH1 0x40 MLOAD DUP1 SWAP2 SUB SWAP1 REVERT JUMPDEST PUSH1 0x1 PUSH1 0x1 PUSH1 0xA0 SHL SUB DUP1 DUP5 AND PUSH1 0x0 DUP2 DUP2 MSTORE PUSH1 0x1 PUSH1 0x20 SWAP1 DUP2 MSTORE PUSH1 0x40 DUP1 DUP4 KECCAK256 SWAP5 DUP8 AND DUP1 DUP5 MSTORE SWAP5 DUP3 MSTORE SWAP2 DUP3 SWAP1 KECCAK256 DUP6 SWAP1 SSTORE DUP2 MLOAD DUP6 DUP2 MSTORE SWAP2 MLOAD PUSH32 0x8C5BE1E5EBEC7D5BD14F71427D1E84F3DD0314C0F7B2291E5B200AC8C7C3B925 SWAP3 DUP2 SWAP1 SUB SWAP1 SWAP2 ADD SWAP1 LOG3 POP POP POP JUMP JUMPDEST PUSH1 0x40 MLOAD PUSH3 0x461BCD PUSH1 0xE5 SHL DUP2 MSTORE PUSH1 0x4 ADD DUP1 DUP1 PUSH1 0x20 ADD DUP3 DUP2 SUB DUP3 MSTORE PUSH1 0x30 DUP2 MSTORE PUSH1 0x20 ADD DUP1 PUSH2 0x20CB PUSH1 0x30 SWAP2 CODECOPY PUSH1 0x40 ADD SWAP2 POP POP PUSH1 0x40 MLOAD DUP1 SWAP2 SUB SWAP1 REVERT JUMPDEST PUSH1 0x0 DUP2 DUP5 DUP5 GT ISZERO PUSH2 0x1884 JUMPI PUSH1 0x40 MLOAD PUSH3 0x461BCD PUSH1 0xE5 SHL DUP2 MSTORE PUSH1 0x4 ADD DUP1 DUP1 PUSH1 0x20 ADD DUP3 DUP2 SUB DUP3 MSTORE DUP4 DUP2 DUP2 MLOAD DUP2 MSTORE PUSH1 0x20 ADD SWAP2 POP DUP1 MLOAD SWAP1 PUSH1 0x20 ADD SWAP1 DUP1 DUP4 DUP4 PUSH1 0x0 JUMPDEST DUP4 DUP2 LT ISZERO PUSH2 0x1849 JUMPI DUP2 DUP2 ADD MLOAD DUP4 DUP3 ADD MSTORE PUSH1 0x20 ADD PUSH2 0x1831 JUMP JUMPDEST POP POP POP POP SWAP1 POP SWAP1 DUP2 ADD SWAP1 PUSH1 0x1F AND DUP1 ISZERO PUSH2 0x1876 JUMPI DUP1 DUP3 SUB DUP1 MLOAD PUSH1 0x1 DUP4 PUSH1 0x20 SUB PUSH2 0x100 EXP SUB NOT AND DUP2 MSTORE PUSH1 0x20 ADD SWAP2 POP JUMPDEST POP SWAP3 POP POP POP PUSH1 0x40 MLOAD DUP1 SWAP2 SUB SWAP1 REVERT JUMPDEST POP POP POP SWAP1 SUB SWAP1 JUMP JUMPDEST PUSH1 0x0 DUP3 PUSH2 0x189B JUMPI POP PUSH1 0x0 PUSH2 0x7D5 JUMP JUMPDEST DUP3 DUP3 MUL DUP3 DUP5 DUP3 DUP2 PUSH2 0x18A8 JUMPI INVALID JUMPDEST DIV EQ PUSH2 0x18E5 JUMPI PUSH1 0x40 MLOAD PUSH3 0x461BCD PUSH1 0xE5 SHL DUP2 MSTORE PUSH1 0x4 ADD DUP1 DUP1 PUSH1 0x20 ADD DUP3 DUP2 SUB DUP3 MSTORE PUSH1 0x21 DUP2 MSTORE PUSH1 0x20 ADD DUP1 PUSH2 0x1F6D PUSH1 0x21 SWAP2 CODECOPY PUSH1 0x40 ADD SWAP2 POP POP PUSH1 0x40 MLOAD DUP1 SWAP2 SUB SWAP1 REVERT JUMPDEST SWAP4 SWAP3 POP POP POP JUMP JUMPDEST PUSH1 0x0 DUP2 DUP2 DUP2 SLT ISZERO PUSH2 0x7D5 JUMPI PUSH1 0x0 DUP1 REVERT JUMPDEST PUSH1 0x0 DUP3 DUP3 ADD DUP2 DUP4 SLT DUP1 ISZERO SWAP1 PUSH2 0x1911 JUMPI POP DUP4 DUP2 SLT ISZERO JUMPDEST DUP1 PUSH2 0x1926 JUMPI POP PUSH1 0x0 DUP4 SLT DUP1 ISZERO PUSH2 0x1926 JUMPI POP DUP4 DUP2 SLT JUMPDEST PUSH2 0x18E5 JUMPI PUSH1 0x0 DUP1 REVERT JUMPDEST PUSH1 0x0 DUP1 DUP3 SLT ISZERO PUSH2 0x193E JUMPI PUSH1 0x0 DUP1 REVERT JUMPDEST POP SWAP1 JUMP JUMPDEST PUSH1 0x0 PUSH2 0x194D DUP4 PUSH2 0xC69 JUMP JUMPDEST SWAP1 POP DUP1 DUP3 GT ISZERO PUSH2 0x1975 JUMPI PUSH1 0x0 PUSH2 0x1963 DUP4 DUP4 PUSH2 0x19F5 JUMP JUMPDEST SWAP1 POP PUSH2 0x196F DUP5 DUP3 PUSH2 0x1C1F JUMP JUMPDEST POP PUSH2 0x123C JUMP JUMPDEST DUP1 DUP3 LT ISZERO PUSH2 0x123C JUMPI PUSH1 0x0 PUSH2 0x1989 DUP3 DUP5 PUSH2 0x19F5 JUMP JUMPDEST SWAP1 POP PUSH2 0x1995 DUP5 DUP3 PUSH2 0x1C83 JUMP JUMPDEST POP POP POP POP JUMP JUMPDEST PUSH1 0x0 DUP3 DUP3 ADD DUP4 DUP2 LT ISZERO PUSH2 0x18E5 JUMPI PUSH1 0x40 DUP1 MLOAD PUSH3 0x461BCD PUSH1 0xE5 SHL DUP2 MSTORE PUSH1 0x20 PUSH1 0x4 DUP3 ADD MSTORE PUSH1 0x1B PUSH1 0x24 DUP3 ADD MSTORE PUSH32 0x536166654D6174683A206164646974696F6E206F766572666C6F770000000000 PUSH1 0x44 DUP3 ADD MSTORE SWAP1 MLOAD SWAP1 DUP2 SWAP1 SUB PUSH1 0x64 ADD SWAP1 REVERT JUMPDEST PUSH1 0x0 PUSH2 0x18E5 DUP4 DUP4 PUSH1 0x40 MLOAD DUP1 PUSH1 0x40 ADD PUSH1 0x40 MSTORE DUP1 PUSH1 0x1E DUP2 MSTORE PUSH1 0x20 ADD PUSH32 0x536166654D6174683A207375627472616374696F6E206F766572666C6F770000 DUP2 MSTORE POP PUSH2 0x17F5 JUMP JUMPDEST PUSH1 0x0 DUP1 PUSH2 0x1A43 DUP4 PUSH2 0xE0F JUMP JUMPDEST SWAP1 POP DUP1 ISZERO PUSH2 0x1BBD JUMPI PUSH1 0x1 PUSH1 0x1 PUSH1 0xA0 SHL SUB DUP4 AND PUSH1 0x0 SWAP1 DUP2 MSTORE PUSH1 0x8 PUSH1 0x20 MSTORE PUSH1 0x40 SWAP1 KECCAK256 SLOAD PUSH2 0x1A6E SWAP1 DUP3 PUSH2 0x199B JUMP JUMPDEST PUSH1 0x1 PUSH1 0x1 PUSH1 0xA0 SHL SUB DUP5 AND PUSH1 0x0 DUP2 DUP2 MSTORE PUSH1 0x8 PUSH1 0x20 SWAP1 DUP2 MSTORE PUSH1 0x40 SWAP2 DUP3 SWAP1 KECCAK256 SWAP4 SWAP1 SWAP4 SSTORE DUP1 MLOAD DUP5 DUP2 MSTORE SWAP1 MLOAD SWAP2 SWAP3 PUSH32 0xEE503BEE2BB6A87E57BC57DB795F98137327401A0E7B7CE42E37926CC1A9CA4D SWAP3 SWAP2 DUP3 SWAP1 SUB ADD SWAP1 LOG2 PUSH1 0x0 PUSH32 0x0 PUSH1 0x1 PUSH1 0x1 PUSH1 0xA0 SHL SUB AND PUSH4 0xA9059CBB DUP6 DUP5 PUSH1 0x40 MLOAD DUP4 PUSH4 0xFFFFFFFF AND PUSH1 0xE0 SHL DUP2 MSTORE PUSH1 0x4 ADD DUP1 DUP4 PUSH1 0x1 PUSH1 0x1 PUSH1 0xA0 SHL SUB AND DUP2 MSTORE PUSH1 0x20 ADD DUP3 DUP2 MSTORE PUSH1 0x20 ADD SWAP3 POP POP POP PUSH1 0x20 PUSH1 0x40 MLOAD DUP1 DUP4 SUB DUP2 PUSH1 0x0 DUP8 DUP1 EXTCODESIZE ISZERO DUP1 ISZERO PUSH2 0x1B39 JUMPI PUSH1 0x0 DUP1 REVERT JUMPDEST POP GAS CALL ISZERO DUP1 ISZERO PUSH2 0x1B4D JUMPI RETURNDATASIZE PUSH1 0x0 DUP1 RETURNDATACOPY RETURNDATASIZE PUSH1 0x0 REVERT JUMPDEST POP POP POP POP PUSH1 0x40 MLOAD RETURNDATASIZE PUSH1 0x20 DUP2 LT ISZERO PUSH2 0x1B63 JUMPI PUSH1 0x0 DUP1 REVERT JUMPDEST POP MLOAD SWAP1 POP DUP1 PUSH2 0x1BB5 JUMPI PUSH1 0x1 PUSH1 0x1 PUSH1 0xA0 SHL SUB DUP5 AND PUSH1 0x0 SWAP1 DUP2 MSTORE PUSH1 0x8 PUSH1 0x20 MSTORE PUSH1 0x40 SWAP1 KECCAK256 SLOAD PUSH2 0x1B8F SWAP1 DUP4 PUSH2 0x19F5 JUMP JUMPDEST PUSH1 0x1 PUSH1 0x1 PUSH1 0xA0 SHL SUB DUP6 AND PUSH1 0x0 SWAP1 DUP2 MSTORE PUSH1 0x8 PUSH1 0x20 MSTORE PUSH1 0x40 DUP2 KECCAK256 SWAP2 SWAP1 SWAP2 SSTORE SWAP3 POP PUSH2 0x8DA SWAP2 POP POP JUMP JUMPDEST POP SWAP1 POP PUSH2 0x8DA JUMP JUMPDEST POP PUSH1 0x0 SWAP3 SWAP2 POP POP JUMP JUMPDEST PUSH1 0x0 DUP2 DUP4 SUB DUP2 DUP4 SLT DUP1 ISZERO SWAP1 PUSH2 0x1BDB JUMPI POP DUP4 DUP2 SGT ISZERO JUMPDEST DUP1 PUSH2 0x1926 JUMPI POP PUSH1 0x0 DUP4 SLT DUP1 ISZERO PUSH2 0x1926 JUMPI POP DUP4 DUP2 SGT PUSH2 0x18E5 JUMPI PUSH1 0x0 DUP1 REVERT JUMPDEST PUSH1 0x0 TIMESTAMP DUP3 GT ISZERO PUSH2 0x1C0A JUMPI POP PUSH1 0x0 PUSH2 0x8DA JUMP JUMPDEST PUSH1 0x11 SLOAD PUSH2 0x1C17 TIMESTAMP DUP5 PUSH2 0x19F5 JUMP JUMPDEST LT ISZERO SWAP3 SWAP2 POP POP JUMP JUMPDEST PUSH2 0x1C29 DUP3 DUP3 PUSH2 0x1CC7 JUMP JUMPDEST PUSH2 0x1C63 PUSH2 0x1C44 PUSH2 0x8BF DUP4 PUSH1 0x6 SLOAD PUSH2 0x188C SWAP1 SWAP2 SWAP1 PUSH4 0xFFFFFFFF AND JUMP JUMPDEST PUSH1 0x1 PUSH1 0x1 PUSH1 0xA0 SHL SUB DUP5 AND PUSH1 0x0 SWAP1 DUP2 MSTORE PUSH1 0x7 PUSH1 0x20 MSTORE PUSH1 0x40 SWAP1 KECCAK256 SLOAD SWAP1 PUSH2 0x1BC6 JUMP JUMPDEST PUSH1 0x1 PUSH1 0x1 PUSH1 0xA0 SHL SUB SWAP1 SWAP3 AND PUSH1 0x0 SWAP1 DUP2 MSTORE PUSH1 0x7 PUSH1 0x20 MSTORE PUSH1 0x40 SWAP1 KECCAK256 SWAP2 SWAP1 SWAP2 SSTORE POP JUMP JUMPDEST PUSH2 0x1C8D DUP3 DUP3 PUSH2 0x1DB7 JUMP JUMPDEST PUSH2 0x1C63 PUSH2 0x1CA8 PUSH2 0x8BF DUP4 PUSH1 0x6 SLOAD PUSH2 0x188C SWAP1 SWAP2 SWAP1 PUSH4 0xFFFFFFFF AND JUMP JUMPDEST PUSH1 0x1 PUSH1 0x1 PUSH1 0xA0 SHL SUB DUP5 AND PUSH1 0x0 SWAP1 DUP2 MSTORE PUSH1 0x7 PUSH1 0x20 MSTORE PUSH1 0x40 SWAP1 KECCAK256 SLOAD SWAP1 PUSH2 0x18FC JUMP JUMPDEST PUSH1 0x1 PUSH1 0x1 PUSH1 0xA0 SHL SUB DUP3 AND PUSH2 0x1D22 JUMPI PUSH1 0x40 DUP1 MLOAD PUSH3 0x461BCD PUSH1 0xE5 SHL DUP2 MSTORE PUSH1 0x20 PUSH1 0x4 DUP3 ADD MSTORE PUSH1 0x1F PUSH1 0x24 DUP3 ADD MSTORE PUSH32 0x45524332303A206D696E7420746F20746865207A65726F206164647265737300 PUSH1 0x44 DUP3 ADD MSTORE SWAP1 MLOAD SWAP1 DUP2 SWAP1 SUB PUSH1 0x64 ADD SWAP1 REVERT JUMPDEST PUSH2 0x1D2E PUSH1 0x0 DUP4 DUP4 PUSH2 0x123C JUMP JUMPDEST PUSH1 0x2 SLOAD PUSH2 0x1D3B SWAP1 DUP3 PUSH2 0x199B JUMP JUMPDEST PUSH1 0x2 SSTORE PUSH1 0x1 PUSH1 0x1 PUSH1 0xA0 SHL SUB DUP3 AND PUSH1 0x0 SWAP1 DUP2 MSTORE PUSH1 0x20 DUP2 SWAP1 MSTORE PUSH1 0x40 SWAP1 KECCAK256 SLOAD PUSH2 0x1D61 SWAP1 DUP3 PUSH2 0x199B JUMP JUMPDEST PUSH1 0x1 PUSH1 0x1 PUSH1 0xA0 SHL SUB DUP4 AND PUSH1 0x0 DUP2 DUP2 MSTORE PUSH1 0x20 DUP2 DUP2 MSTORE PUSH1 0x40 DUP1 DUP4 KECCAK256 SWAP5 SWAP1 SWAP5 SSTORE DUP4 MLOAD DUP6 DUP2 MSTORE SWAP4 MLOAD SWAP3 SWAP4 SWAP2 SWAP3 PUSH32 0xDDF252AD1BE2C89B69C2B068FC378DAA952BA7F163C4A11628F55A4DF523B3EF SWAP3 DUP2 SWAP1 SUB SWAP1 SWAP2 ADD SWAP1 LOG3 POP POP JUMP JUMPDEST PUSH1 0x1 PUSH1 0x1 PUSH1 0xA0 SHL SUB DUP3 AND PUSH2 0x1DFC JUMPI PUSH1 0x40 MLOAD PUSH3 0x461BCD PUSH1 0xE5 SHL DUP2 MSTORE PUSH1 0x4 ADD DUP1 DUP1 PUSH1 0x20 ADD DUP3 DUP2 SUB DUP3 MSTORE PUSH1 0x21 DUP2 MSTORE PUSH1 0x20 ADD DUP1 PUSH2 0x2017 PUSH1 0x21 SWAP2 CODECOPY PUSH1 0x40 ADD SWAP2 POP POP PUSH1 0x40 MLOAD DUP1 SWAP2 SUB SWAP1 REVERT JUMPDEST PUSH2 0x1E08 DUP3 PUSH1 0x0 DUP4 PUSH2 0x123C JUMP JUMPDEST PUSH2 0x1E45 DUP2 PUSH1 0x40 MLOAD DUP1 PUSH1 0x60 ADD PUSH1 0x40 MSTORE DUP1 PUSH1 0x22 DUP2 MSTORE PUSH1 0x20 ADD PUSH2 0x1EB4 PUSH1 0x22 SWAP2 CODECOPY PUSH1 0x1 PUSH1 0x1 PUSH1 0xA0 SHL SUB DUP6 AND PUSH1 0x0 SWAP1 DUP2 MSTORE PUSH1 0x20 DUP2 SWAP1 MSTORE PUSH1 0x40 SWAP1 KECCAK256 SLOAD SWAP2 SWAP1 PUSH2 0x17F5 JUMP JUMPDEST PUSH1 0x1 PUSH1 0x1 PUSH1 0xA0 SHL SUB DUP4 AND PUSH1 0x0 SWAP1 DUP2 MSTORE PUSH1 0x20 DUP2 SWAP1 MSTORE PUSH1 0x40 SWAP1 KECCAK256 SSTORE PUSH1 0x2 SLOAD PUSH2 0x1E6B SWAP1 DUP3 PUSH2 0x19F5 JUMP JUMPDEST PUSH1 0x2 SSTORE PUSH1 0x40 DUP1 MLOAD DUP3 DUP2 MSTORE SWAP1 MLOAD PUSH1 0x0 SWAP2 PUSH1 0x1 PUSH1 0x1 PUSH1 0xA0 SHL SUB DUP6 AND SWAP2 PUSH32 0xDDF252AD1BE2C89B69C2B068FC378DAA952BA7F163C4A11628F55A4DF523B3EF SWAP2 DUP2 SWAP1 SUB PUSH1 0x20 ADD SWAP1 LOG3 POP POP JUMP INVALID GASLIMIT MSTORE NUMBER ORIGIN ADDRESS GASPRICE KECCAK256 PUSH3 0x75726E KECCAK256 PUSH2 0x6D6F PUSH22 0x6E7420657863656564732062616C616E63654F776E61 PUSH3 0x6C653A KECCAK256 PUSH15 0x6577206F776E657220697320746865 KECCAK256 PUSH27 0x65726F206164647265737345524332303A20617070726F76652074 PUSH16 0x20746865207A65726F20616464726573 PUSH20 0x4D4F4E4559415641585F4469766964656E645F54 PUSH19 0x61636B65723A20636C61696D57616974206D75 PUSH20 0x74206265207570646174656420746F2062657477 PUSH6 0x656E20312061 PUSH15 0x6420323420686F757273536166654D PUSH2 0x7468 GASPRICE KECCAK256 PUSH14 0x756C7469706C69636174696F6E20 PUSH16 0x766572666C6F774D4F4E455941564158 0x5F DIFFICULTY PUSH10 0x766964656E645F547261 PUSH4 0x6B65723A KECCAK256 NUMBER PUSH2 0x6E6E PUSH16 0x742075706461746520636C61696D5761 PUSH10 0x7420746F2073616D6520 PUSH23 0x616C756545524332303A207472616E7366657220616D6F PUSH22 0x6E74206578636565647320616C6C6F77616E63654F77 PUSH15 0x61626C653A2063616C6C6572206973 KECCAK256 PUSH15 0x6F7420746865206F776E6572455243 ORIGIN ADDRESS GASPRICE KECCAK256 PUSH3 0x75726E KECCAK256 PUSH7 0x726F6D20746865 KECCAK256 PUSH27 0x65726F20616464726573734D4F4E4559415641585F446976696465 PUSH15 0x645F547261636B65723A2077697468 PUSH5 0x7261774469 PUSH23 0x6964656E642064697361626C65642E2055736520746865 KECCAK256 0x27 PUSH4 0x6C61696D 0x27 KECCAK256 PUSH7 0x756E6374696F6E KECCAK256 PUSH16 0x6E20746865206D61696E204D4F4E4559 COINBASE JUMP COINBASE PC KECCAK256 PUSH4 0x6F6E7472 PUSH2 0x6374 0x2E GASLIMIT MSTORE NUMBER ORIGIN ADDRESS GASPRICE KECCAK256 PUSH2 0x7070 PUSH19 0x6F76652066726F6D20746865207A65726F2061 PUSH5 0x6472657373 0x4D 0x4F 0x4E GASLIMIT MSIZE COINBASE JUMP COINBASE PC 0x5F DIFFICULTY PUSH10 0x766964656E645F547261 PUSH4 0x6B65723A KECCAK256 0x4E PUSH16 0x207472616E736665727320616C6C6F77 PUSH6 0x644552433230 GASPRICE KECCAK256 PUSH5 0x6563726561 PUSH20 0x656420616C6C6F77616E63652062656C6F77207A PUSH6 0x726FA2646970 PUSH7 0x7358221220C8A5 PUSH18 0xDBF0B3795B30604026379BF037A831E3CAC3 OR 0x21 0xD0 DUP6 PUSH13 0x2DD3B5B9F8E264736F6C634300 MOD 0xC STOP CALLER "
				},
				"gasEstimates": {
					"creation": {
						"codeDepositCost": "1706600",
						"executionCost": "infinite",
						"totalCost": "infinite"
					},
					"external": {
						"CAKE()": "infinite",
						"accumulativeDividendOf(address)": "infinite",
						"allowance(address,address)": "1339",
						"approve(address,uint256)": "infinite",
						"balanceOf(address)": "1256",
						"claimWait()": "1087",
						"decimals()": "341",
						"decreaseAllowance(address,uint256)": "infinite",
						"distributeCAKEDividends(uint256)": "infinite",
						"dividendOf(address)": "infinite",
						"excludeFromDividends(address)": "infinite",
						"excludedFromDividends(address)": "1248",
						"getAccount(address)": "infinite",
						"getAccountAtIndex(uint256)": "infinite",
						"getLastProcessedIndex()": "1042",
						"getNumberOfTokenHolders()": "1089",
						"increaseAllowance(address,uint256)": "infinite",
						"lastClaimTimes(address)": "1170",
						"lastProcessedIndex()": "1110",
						"minimumTokenBalanceForDividends()": "infinite",
						"name()": "infinite",
						"owner()": "1105",
						"process(uint256)": "infinite",
						"processAccount(address,bool)": "infinite",
						"renounceOwnership()": "infinite",
						"setBalance(address,uint256)": "infinite",
						"symbol()": "infinite",
						"totalDividendsDistributed()": "1044",
						"totalSupply()": "1111",
						"transfer(address,uint256)": "infinite",
						"transferFrom(address,address,uint256)": "infinite",
						"transferOwnership(address)": "infinite",
						"updateClaimWait(uint256)": "infinite",
						"withdrawDividend()": "infinite",
						"withdrawableDividendOf(address)": "infinite",
						"withdrawnDividendOf(address)": "1253"
					},
					"internal": {
						"_transfer(address,address,uint256)": "infinite",
						"canAutoClaim(uint256)": "infinite"
					}
				},
				"methodIdentifiers": {
					"CAKE()": "4ca6ef28",
					"accumulativeDividendOf(address)": "27ce0147",
					"allowance(address,address)": "dd62ed3e",
					"approve(address,uint256)": "095ea7b3",
					"balanceOf(address)": "70a08231",
					"claimWait()": "6f2789ec",
					"decimals()": "313ce567",
					"decreaseAllowance(address,uint256)": "a457c2d7",
					"distributeCAKEDividends(uint256)": "ba72a955",
					"dividendOf(address)": "91b89fba",
					"excludeFromDividends(address)": "31e79db0",
					"excludedFromDividends(address)": "4e7b827f",
					"getAccount(address)": "fbcbc0f1",
					"getAccountAtIndex(uint256)": "5183d6fd",
					"getLastProcessedIndex()": "e7841ec0",
					"getNumberOfTokenHolders()": "09bbedde",
					"increaseAllowance(address,uint256)": "39509351",
					"lastClaimTimes(address)": "226cfa3d",
					"lastProcessedIndex()": "3009a609",
					"minimumTokenBalanceForDividends()": "be10b614",
					"name()": "06fdde03",
					"owner()": "8da5cb5b",
					"process(uint256)": "ffb2c479",
					"processAccount(address,bool)": "bc4c4b37",
					"renounceOwnership()": "715018a6",
					"setBalance(address,uint256)": "e30443bc",
					"symbol()": "95d89b41",
					"totalDividendsDistributed()": "85a6b3ae",
					"totalSupply()": "18160ddd",
					"transfer(address,uint256)": "a9059cbb",
					"transferFrom(address,address,uint256)": "23b872dd",
					"transferOwnership(address)": "f2fde38b",
					"updateClaimWait(uint256)": "e98030c7",
					"withdrawDividend()": "6a474002",
					"withdrawableDividendOf(address)": "a8b9d240",
					"withdrawnDividendOf(address)": "aafd847a"
				}
			},
			"storageLayout": {
				"storage": [
					{
						"astId": 526,
						"contract": "MONEYAVAXDividendTracker.sol:MONEYAVAXDividendTracker",
						"label": "_balances",
						"offset": 0,
						"slot": "0",
						"type": "t_mapping(t_address,t_uint256)"
					},
					{
						"astId": 532,
						"contract": "MONEYAVAXDividendTracker.sol:MONEYAVAXDividendTracker",
						"label": "_allowances",
						"offset": 0,
						"slot": "1",
						"type": "t_mapping(t_address,t_mapping(t_address,t_uint256))"
					},
					{
						"astId": 534,
						"contract": "MONEYAVAXDividendTracker.sol:MONEYAVAXDividendTracker",
						"label": "_totalSupply",
						"offset": 0,
						"slot": "2",
						"type": "t_uint256"
					},
					{
						"astId": 536,
						"contract": "MONEYAVAXDividendTracker.sol:MONEYAVAXDividendTracker",
						"label": "_name",
						"offset": 0,
						"slot": "3",
						"type": "t_string_storage"
					},
					{
						"astId": 538,
						"contract": "MONEYAVAXDividendTracker.sol:MONEYAVAXDividendTracker",
						"label": "_symbol",
						"offset": 0,
						"slot": "4",
						"type": "t_string_storage"
					},
					{
						"astId": 2659,
						"contract": "MONEYAVAXDividendTracker.sol:MONEYAVAXDividendTracker",
						"label": "_owner",
						"offset": 0,
						"slot": "5",
						"type": "t_address"
					},
					{
						"astId": 62,
						"contract": "MONEYAVAXDividendTracker.sol:MONEYAVAXDividendTracker",
						"label": "magnifiedDividendPerShare",
						"offset": 0,
						"slot": "6",
						"type": "t_uint256"
					},
					{
						"astId": 66,
						"contract": "MONEYAVAXDividendTracker.sol:MONEYAVAXDividendTracker",
						"label": "magnifiedDividendCorrections",
						"offset": 0,
						"slot": "7",
						"type": "t_mapping(t_address,t_int256)"
					},
					{
						"astId": 70,
						"contract": "MONEYAVAXDividendTracker.sol:MONEYAVAXDividendTracker",
						"label": "withdrawnDividends",
						"offset": 0,
						"slot": "8",
						"type": "t_mapping(t_address,t_uint256)"
					},
					{
						"astId": 72,
						"contract": "MONEYAVAXDividendTracker.sol:MONEYAVAXDividendTracker",
						"label": "totalDividendsDistributed",
						"offset": 0,
						"slot": "9",
						"type": "t_uint256"
					},
					{
						"astId": 2051,
						"contract": "MONEYAVAXDividendTracker.sol:MONEYAVAXDividendTracker",
						"label": "tokenHoldersMap",
						"offset": 0,
						"slot": "10",
						"type": "t_struct(Map)1817_storage"
					},
					{
						"astId": 2053,
						"contract": "MONEYAVAXDividendTracker.sol:MONEYAVAXDividendTracker",
						"label": "lastProcessedIndex",
						"offset": 0,
						"slot": "14",
						"type": "t_uint256"
					},
					{
						"astId": 2057,
						"contract": "MONEYAVAXDividendTracker.sol:MONEYAVAXDividendTracker",
						"label": "excludedFromDividends",
						"offset": 0,
						"slot": "15",
						"type": "t_mapping(t_address,t_bool)"
					},
					{
						"astId": 2061,
						"contract": "MONEYAVAXDividendTracker.sol:MONEYAVAXDividendTracker",
						"label": "lastClaimTimes",
						"offset": 0,
						"slot": "16",
						"type": "t_mapping(t_address,t_uint256)"
					},
					{
						"astId": 2063,
						"contract": "MONEYAVAXDividendTracker.sol:MONEYAVAXDividendTracker",
						"label": "claimWait",
						"offset": 0,
						"slot": "17",
						"type": "t_uint256"
					}
				],
				"types": {
					"t_address": {
						"encoding": "inplace",
						"label": "address",
						"numberOfBytes": "20"
					},
					"t_array(t_address)dyn_storage": {
						"base": "t_address",
						"encoding": "dynamic_array",
						"label": "address[]",
						"numberOfBytes": "32"
					},
					"t_bool": {
						"encoding": "inplace",
						"label": "bool",
						"numberOfBytes": "1"
					},
					"t_int256": {
						"encoding": "inplace",
						"label": "int256",
						"numberOfBytes": "32"
					},
					"t_mapping(t_address,t_bool)": {
						"encoding": "mapping",
						"key": "t_address",
						"label": "mapping(address => bool)",
						"numberOfBytes": "32",
						"value": "t_bool"
					},
					"t_mapping(t_address,t_int256)": {
						"encoding": "mapping",
						"key": "t_address",
						"label": "mapping(address => int256)",
						"numberOfBytes": "32",
						"value": "t_int256"
					},
					"t_mapping(t_address,t_mapping(t_address,t_uint256))": {
						"encoding": "mapping",
						"key": "t_address",
						"label": "mapping(address => mapping(address => uint256))",
						"numberOfBytes": "32",
						"value": "t_mapping(t_address,t_uint256)"
					},
					"t_mapping(t_address,t_uint256)": {
						"encoding": "mapping",
						"key": "t_address",
						"label": "mapping(address => uint256)",
						"numberOfBytes": "32",
						"value": "t_uint256"
					},
					"t_string_storage": {
						"encoding": "bytes",
						"label": "string",
						"numberOfBytes": "32"
					},
					"t_struct(Map)1817_storage": {
						"encoding": "inplace",
						"label": "struct IterableMapping.Map",
						"members": [
							{
								"astId": 1804,
								"contract": "MONEYAVAXDividendTracker.sol:MONEYAVAXDividendTracker",
								"label": "keys",
								"offset": 0,
								"slot": "0",
								"type": "t_array(t_address)dyn_storage"
							},
							{
								"astId": 1808,
								"contract": "MONEYAVAXDividendTracker.sol:MONEYAVAXDividendTracker",
								"label": "values",
								"offset": 0,
								"slot": "1",
								"type": "t_mapping(t_address,t_uint256)"
							},
							{
								"astId": 1812,
								"contract": "MONEYAVAXDividendTracker.sol:MONEYAVAXDividendTracker",
								"label": "indexOf",
								"offset": 0,
								"slot": "2",
								"type": "t_mapping(t_address,t_uint256)"
							},
							{
								"astId": 1816,
								"contract": "MONEYAVAXDividendTracker.sol:MONEYAVAXDividendTracker",
								"label": "inserted",
								"offset": 0,
								"slot": "3",
								"type": "t_mapping(t_address,t_bool)"
							}
						],
						"numberOfBytes": "128"
					},
					"t_uint256": {
						"encoding": "inplace",
						"label": "uint256",
						"numberOfBytes": "32"
					}
				}
			},
			"userdoc": {
				"kind": "user",
				"methods": {
					"accumulativeDividendOf(address)": {
						"notice": "View the amount of dividend in wei that an address has earned in total."
					},
					"dividendOf(address)": {
						"notice": "View the amount of dividend in wei that an address can withdraw."
					},
					"withdrawDividend()": {
						"notice": "Withdraws the ether distributed to the sender."
					},
					"withdrawableDividendOf(address)": {
						"notice": "View the amount of dividend in wei that an address can withdraw."
					},
					"withdrawnDividendOf(address)": {
						"notice": "View the amount of dividend in wei that an address has withdrawn."
					}
				},
				"version": 1
			}
		}
	}
}