{
	"data": {
		"bytecode": {
			"linkReferences": {},
			"object": "60e060405261dead73ffffffffffffffffffffffffffffffffffffffff1660809073ffffffffffffffffffffffffffffffffffffffff168152505f6010556001602360016101000a81548160ff0219169083151502179055506001602360026101000a81548160ff02191690831515021790555060405162006ea138038062006ea1833981810160405281019062000098919062000eff565b85858160039081620000ab919062001205565b508060049081620000bd919062001205565b505050620000e0620000d4620008be60201b60201c565b620008c560201b60201c565b82600b5f6101000a81548160ff021916908360ff16021790555082600a62000109919062001466565b84620001169190620014b6565b600e81905550600e545f196200012d91906200152d565b5f196200013b919062001564565b600f81905550806005600681106200015857620001576200159e565b5b6020020151601181905550601154601281905550806003600681106200018357620001826200159e565b5b602002015160158190555060155460168190555080600460068110620001ae57620001ad6200159e565b5b6020020151601781905550601754601881905550805f60068110620001d857620001d76200159e565b5b6020020151601981905550601954601a81905550806001600681106200020357620002026200159e565b5b6020020151601b81905550601b54601c81905550806002600681106200022e576200022d6200159e565b5b6020020151601d81905550601d54601e81905550601754601554601d54601b546019546200025d9190620015cb565b620002699190620015cb565b620002759190620015cb565b620002819190620015cb565b601381905550601354601481905550815f60058110620002a657620002a56200159e565b5b6020020151600b60016101000a81548173ffffffffffffffffffffffffffffffffffffffff021916908373ffffffffffffffffffffffffffffffffffffffff160217905550816001600581106200030257620003016200159e565b5b6020020151600c5f6101000a81548173ffffffffffffffffffffffffffffffffffffffff021916908373ffffffffffffffffffffffffffffffffffffffff160217905550816002600581106200035d576200035c6200159e565b5b6020020151600d5f6101000a81548173ffffffffffffffffffffffffffffffffffffffff021916908373ffffffffffffffffffffffffffffffffffffffff16021790555082600a620003b0919062001466565b84620003bd9190620014b6565b601f81905550601f54602081905550600261271084600a620003e0919062001466565b86620003ed9190620014b6565b620003f9919062001605565b620004059190620014b6565b60218190555069152d02c7e14af68000006022819055505f826003600581106200043457620004336200159e565b5b602002015190508073ffffffffffffffffffffffffffffffffffffffff1663c45a01556040518163ffffffff1660e01b8152600401602060405180830381865afa15801562000485573d5f803e3d5ffd5b505050506040513d601f19601f82011682018060405250810190620004ab91906200163c565b73ffffffffffffffffffffffffffffffffffffffff1663c9c65396308373ffffffffffffffffffffffffffffffffffffffff1663ad5c46486040518163ffffffff1660e01b8152600401602060405180830381865afa15801562000511573d5f803e3d5ffd5b505050506040513d601f19601f820116820180604052508101906200053791906200163c565b6040518363ffffffff1660e01b8152600401620005569291906200167d565b6020604051808303815f875af115801562000573573d5f803e3d5ffd5b505050506040513d601f19601f820116820180604052508101906200059991906200163c565b73ffffffffffffffffffffffffffffffffffffffff1660c08173ffffffffffffffffffffffffffffffffffffffff16815250508073ffffffffffffffffffffffffffffffffffffffff1660a08173ffffffffffffffffffffffffffffffffffffffff1681525050600160085f620006156200098860201b60201c565b73ffffffffffffffffffffffffffffffffffffffff1673ffffffffffffffffffffffffffffffffffffffff1681526020019081526020015f205f6101000a81548160ff021916908315150217905550600160085f600b60019054906101000a900473ffffffffffffffffffffffffffffffffffffffff1673ffffffffffffffffffffffffffffffffffffffff1673ffffffffffffffffffffffffffffffffffffffff1681526020019081526020015f205f6101000a81548160ff021916908315150217905550600160085f600c5f9054906101000a900473ffffffffffffffffffffffffffffffffffffffff1673ffffffffffffffffffffffffffffffffffffffff1673ffffffffffffffffffffffffffffffffffffffff1681526020019081526020015f205f6101000a81548160ff021916908315150217905550600160085f600d5f9054906101000a900473ffffffffffffffffffffffffffffffffffffffff1673ffffffffffffffffffffffffffffffffffffffff1673ffffffffffffffffffffffffffffffffffffffff1681526020019081526020015f205f6101000a81548160ff021916908315150217905550600160085f3073ffffffffffffffffffffffffffffffffffffffff1673ffffffffffffffffffffffffffffffffffffffff1681526020019081526020015f205f6101000a81548160ff0219169083151502179055506200084262000830620008be60201b60201c565b600f54600e54620009b060201b60201c565b826004600581106200085957620008586200159e565b5b602002015173ffffffffffffffffffffffffffffffffffffffff166108fc6200088762000b1960201b60201c565b90811502906040515f60405180830381858888f19350505050158015620008b0573d5f803e3d5ffd5b505050505050505062001752565b5f33905090565b5f60055f9054906101000a900473ffffffffffffffffffffffffffffffffffffffff1690508160055f6101000a81548173ffffffffffffffffffffffffffffffffffffffff021916908373ffffffffffffffffffffffffffffffffffffffff1602179055508173ffffffffffffffffffffffffffffffffffffffff168173ffffffffffffffffffffffffffffffffffffffff167f8be0079c531659141344cd1fd0a4f28419497f9722a3daafe3b4186f6b6457e060405160405180910390a35050565b5f60055f9054906101000a900473ffffffffffffffffffffffffffffffffffffffff16905090565b5f73ffffffffffffffffffffffffffffffffffffffff168373ffffffffffffffffffffffffffffffffffffffff160362000a21576040517f08c379a000000000000000000000000000000000000000000000000000000000815260040162000a189062001706565b60405180910390fd5b8160065f8573ffffffffffffffffffffffffffffffffffffffff1673ffffffffffffffffffffffffffffffffffffffff1681526020019081526020015f205462000a6c9190620015cb565b60065f8573ffffffffffffffffffffffffffffffffffffffff1673ffffffffffffffffffffffffffffffffffffffff1681526020019081526020015f20819055508273ffffffffffffffffffffffffffffffffffffffff165f73ffffffffffffffffffffffffffffffffffffffff167fddf252ad1be2c89b69c2b068fc378daa952ba7f163c4a11628f55a4df523b3ef8360405162000b0c919062001737565b60405180910390a3505050565b5f47905090565b5f604051905090565b5f80fd5b5f80fd5b5f80fd5b5f80fd5b5f601f19601f8301169050919050565b7f4e487b71000000000000000000000000000000000000000000000000000000005f52604160045260245ffd5b62000b818262000b39565b810181811067ffffffffffffffff8211171562000ba35762000ba262000b49565b5b80604052505050565b5f62000bb762000b20565b905062000bc5828262000b76565b919050565b5f67ffffffffffffffff82111562000be75762000be662000b49565b5b62000bf28262000b39565b9050602081019050919050565b5f5b8381101562000c1e57808201518184015260208101905062000c01565b5f8484015250505050565b5f62000c3f62000c398462000bca565b62000bac565b90508281526020810184848401111562000c5e5762000c5d62000b35565b5b62000c6b84828562000bff565b509392505050565b5f82601f83011262000c8a5762000c8962000b31565b5b815162000c9c84826020860162000c29565b91505092915050565b5f819050919050565b62000cb98162000ca5565b811462000cc4575f80fd5b50565b5f8151905062000cd78162000cae565b92915050565b5f60ff82169050919050565b62000cf48162000cdd565b811462000cff575f80fd5b50565b5f8151905062000d128162000ce9565b92915050565b5f67ffffffffffffffff82111562000d355762000d3462000b49565b5b602082029050919050565b5f80fd5b5f73ffffffffffffffffffffffffffffffffffffffff82169050919050565b5f62000d6f8262000d44565b9050919050565b62000d818162000d63565b811462000d8c575f80fd5b50565b5f8151905062000d9f8162000d76565b92915050565b5f62000dbb62000db58462000d18565b62000bac565b9050806020840283018581111562000dd85762000dd762000d40565b5b835b8181101562000e05578062000df0888262000d8f565b84526020840193505060208101905062000dda565b5050509392505050565b5f82601f83011262000e265762000e2562000b31565b5b600562000e3584828562000da5565b91505092915050565b5f67ffffffffffffffff82111562000e5b5762000e5a62000b49565b5b602082029050919050565b5f62000e7c62000e768462000e3e565b62000bac565b9050806020840283018581111562000e995762000e9862000d40565b5b835b8181101562000ec6578062000eb1888262000cc7565b84526020840193505060208101905062000e9b565b5050509392505050565b5f82601f83011262000ee75762000ee662000b31565b5b600662000ef684828562000e66565b91505092915050565b5f805f805f806101e0878903121562000f1d5762000f1c62000b29565b5b5f87015167ffffffffffffffff81111562000f3d5762000f3c62000b2d565b5b62000f4b89828a0162000c73565b965050602087015167ffffffffffffffff81111562000f6f5762000f6e62000b2d565b5b62000f7d89828a0162000c73565b955050604062000f9089828a0162000cc7565b945050606062000fa389828a0162000d02565b935050608062000fb689828a0162000e0f565b92505061012062000fca89828a0162000ed0565b9150509295509295509295565b5f81519050919050565b7f4e487b71000000000000000000000000000000000000000000000000000000005f52602260045260245ffd5b5f60028204905060018216806200102657607f821691505b6020821081036200103c576200103b62000fe1565b5b50919050565b5f819050815f5260205f209050919050565b5f6020601f8301049050919050565b5f82821b905092915050565b5f60088302620010a07fffffffffffffffffffffffffffffffffffffffffffffffffffffffffffffffff8262001063565b620010ac868362001063565b95508019841693508086168417925050509392505050565b5f819050919050565b5f620010ed620010e7620010e18462000ca5565b620010c4565b62000ca5565b9050919050565b5f819050919050565b6200110883620010cd565b620011206200111782620010f4565b8484546200106f565b825550505050565b5f90565b6200113662001128565b62001143818484620010fd565b505050565b5b818110156200116a576200115e5f826200112c565b60018101905062001149565b5050565b601f821115620011b957620011838162001042565b6200118e8462001054565b810160208510156200119e578190505b620011b6620011ad8562001054565b83018262001148565b50505b505050565b5f82821c905092915050565b5f620011db5f1984600802620011be565b1980831691505092915050565b5f620011f58383620011ca565b9150826002028217905092915050565b620012108262000fd7565b67ffffffffffffffff8111156200122c576200122b62000b49565b5b6200123882546200100e565b620012458282856200116e565b5f60209050601f8311600181146200127b575f841562001266578287015190505b620012728582620011e8565b865550620012e1565b601f1984166200128b8662001042565b5f5b82811015620012b4578489015182556001820191506020850194506020810190506200128d565b86831015620012d45784890151620012d0601f891682620011ca565b8355505b6001600288020188555050505b505050505050565b7f4e487b71000000000000000000000000000000000000000000000000000000005f52601160045260245ffd5b5f8160011c9050919050565b5f808291508390505b600185111562001373578086048111156200134b576200134a620012e9565b5b60018516156200135b5780820291505b80810290506200136b8562001316565b94506200132b565b94509492505050565b5f826200138d57600190506200145f565b816200139c575f90506200145f565b8160018114620013b55760028114620013c057620013f6565b60019150506200145f565b60ff841115620013d557620013d4620012e9565b5b8360020a915084821115620013ef57620013ee620012e9565b5b506200145f565b5060208310610133831016604e8410600b8410161715620014305782820a9050838111156200142a5762001429620012e9565b5b6200145f565b6200143f848484600162001322565b92509050818404811115620014595762001458620012e9565b5b81810290505b9392505050565b5f620014728262000ca5565b91506200147f8362000cdd565b9250620014ae7fffffffffffffffffffffffffffffffffffffffffffffffffffffffffffffffff84846200137c565b905092915050565b5f620014c28262000ca5565b9150620014cf8362000ca5565b9250828202620014df8162000ca5565b91508282048414831517620014f957620014f8620012e9565b5b5092915050565b7f4e487b71000000000000000000000000000000000000000000000000000000005f52601260045260245ffd5b5f620015398262000ca5565b9150620015468362000ca5565b92508262001559576200155862001500565b5b828206905092915050565b5f620015708262000ca5565b91506200157d8362000ca5565b9250828203905081811115620015985762001597620012e9565b5b92915050565b7f4e487b71000000000000000000000000000000000000000000000000000000005f52603260045260245ffd5b5f620015d78262000ca5565b9150620015e48362000ca5565b9250828201905080821115620015ff57620015fe620012e9565b5b92915050565b5f620016118262000ca5565b91506200161e8362000ca5565b92508262001631576200163062001500565b5b828204905092915050565b5f6020828403121562001654576200165362000b29565b5b5f620016638482850162000d8f565b91505092915050565b620016778162000d63565b82525050565b5f604082019050620016925f8301856200166c565b620016a160208301846200166c565b9392505050565b5f82825260208201905092915050565b7f45524332303a206d696e7420746f20746865207a65726f2061646472657373005f82015250565b5f620016ee601f83620016a8565b9150620016fb82620016b8565b602082019050919050565b5f6020820190508181035f8301526200171f81620016e0565b9050919050565b620017318162000ca5565b82525050565b5f6020820190506200174c5f83018462001726565b92915050565b60805160a05160c0516156e5620017bc5f395f81816115700152612e2401525f8181610fa301528181613855015281816139340152818161395b01528181613a7201528181613a9901528181613b990152613cc201525f81816111910152613d0101526156e55ff3fe608060405260043610610353575f3560e01c80636c317232116101c5578063afcf2fc4116100f6578063e547be6911610094578063edc2fcfb1161006e578063edc2fcfb14610c3a578063f0f165af14610c62578063f2fde38b14610c8a578063fdeb889f14610cb25761035a565b8063e547be6914610bc2578063ea2f0b3714610bea578063ec28438a14610c125761035a565b8063caccd7f7116100d0578063caccd7f714610af8578063cba0e99614610b22578063dcc345f214610b5e578063dd62ed3e14610b865761035a565b8063afcf2fc414610a7c578063bdc653ef14610aa6578063c49b9a8014610ad05761035a565b8063906e9dd011610163578063a457c2d71161013d578063a457c2d7146109b2578063a5ece941146109ee578063a9059cbb14610a18578063a94c8dd214610a545761035a565b8063906e9dd01461093657806395d89b411461095e578063a073d37f146109885761035a565b80637d1db4a51161019f5780637d1db4a51461089057806382d2a4bb146108ba5780638a0623b4146108e25780638da5cb5b1461090c5761035a565b80636c3172321461081657806370a082311461083e578063715018a61461087a5761035a565b8063320355041161029f57806348de478e1161023d5780635342acb4116102175780635342acb4146107605780636049876e1461079c5780636053a0e3146107c4578063625e764c146107ee5761035a565b806348de478e146106e257806349bd5a5e1461070c5780634a74bb02146107365761035a565b806340f8007a1161027957806340f8007a1461062c578063437823ec146106565780634549b0391461067e5780634567bfba146106ba5761035a565b8063320355041461059c5780633206b4aa146105c657806339509351146105f05761035a565b806319de79ab1161030c57806323b872dd116102e657806323b872dd146104e457806327c8f8351461052057806329370cc61461054a578063313ce567146105725761035a565b806319de79ab1461046857806320c7c5961461049257806322976e0d146104ba5761035a565b8063053ab1821461035e57806306fdde0314610386578063095ea7b3146103b05780630c9be46d146103ec5780631694505e1461041457806318160ddd1461043e5761035a565b3661035a57005b5f80fd5b348015610369575f80fd5b50610384600480360381019061037f919061453e565b610cda565b005b348015610391575f80fd5b5061039a610e35565b6040516103a791906145f3565b60405180910390f35b3480156103bb575f80fd5b506103d660048036038101906103d1919061466d565b610ec5565b6040516103e391906146c5565b60405180910390f35b3480156103f7575f80fd5b50610412600480360381019061040d91906146de565b610ee2565b005b34801561041f575f80fd5b50610428610fa1565b6040516104359190614764565b60405180910390f35b348015610449575f80fd5b50610452610fc5565b60405161045f919061478c565b60405180910390f35b348015610473575f80fd5b5061047c610fce565b604051610489919061478c565b60405180910390f35b34801561049d575f80fd5b506104b860048036038101906104b3919061453e565b610fd4565b005b3480156104c5575f80fd5b506104ce611097565b6040516104db919061478c565b60405180910390f35b3480156104ef575f80fd5b5061050a600480360381019061050591906147a5565b61109d565b60405161051791906146c5565b60405180910390f35b34801561052b575f80fd5b5061053461118f565b6040516105419190614804565b60405180910390f35b348015610555575f80fd5b50610570600480360381019061056b9190614847565b6111b3565b005b34801561057d575f80fd5b50610586611283565b604051610593919061488d565b60405180910390f35b3480156105a7575f80fd5b506105b0611298565b6040516105bd919061478c565b60405180910390f35b3480156105d1575f80fd5b506105da6112a1565b6040516105e7919061478c565b60405180910390f35b3480156105fb575f80fd5b506106166004803603810190610611919061466d565b6112a7565b60405161062391906146c5565b60405180910390f35b348015610637575f80fd5b5061064061134e565b60405161064d919061478c565b60405180910390f35b348015610661575f80fd5b5061067c600480360381019061067791906146de565b611354565b005b348015610689575f80fd5b506106a4600480360381019061069f91906148a6565b611428565b6040516106b1919061478c565b60405180910390f35b3480156106c5575f80fd5b506106e060048036038101906106db919061453e565b6114a5565b005b3480156106ed575f80fd5b506106f6611568565b604051610703919061478c565b60405180910390f35b348015610717575f80fd5b5061072061156e565b60405161072d9190614804565b60405180910390f35b348015610741575f80fd5b5061074a611592565b60405161075791906146c5565b60405180910390f35b34801561076b575f80fd5b50610786600480360381019061078191906146de565b6115a5565b60405161079391906146c5565b60405180910390f35b3480156107a7575f80fd5b506107c260048036038101906107bd91906146de565b6115f7565b005b3480156107cf575f80fd5b506107d8611882565b6040516107e591906146c5565b60405180910390f35b3480156107f9575f80fd5b50610814600480360381019061080f919061453e565b611895565b005b348015610821575f80fd5b5061083c6004803603810190610837919061453e565b611958565b005b348015610849575f80fd5b50610864600480360381019061085f91906146de565b611a1b565b604051610871919061478c565b60405180910390f35b348015610885575f80fd5b5061088e611afe565b005b34801561089b575f80fd5b506108a4611b85565b6040516108b1919061478c565b60405180910390f35b3480156108c5575f80fd5b506108e060048036038101906108db919061453e565b611b8b565b005b3480156108ed575f80fd5b506108f6611c11565b604051610903919061478c565b60405180910390f35b348015610917575f80fd5b50610920611c17565b60405161092d9190614804565b60405180910390f35b348015610941575f80fd5b5061095c600480360381019061095791906146de565b611c3f565b005b348015610969575f80fd5b50610972611cff565b60405161097f91906145f3565b60405180910390f35b348015610993575f80fd5b5061099c611d8f565b6040516109a9919061478c565b60405180910390f35b3480156109bd575f80fd5b506109d860048036038101906109d3919061466d565b611d98565b6040516109e591906146c5565b60405180910390f35b3480156109f9575f80fd5b50610a02611e7e565b604051610a0f9190614904565b60405180910390f35b348015610a23575f80fd5b50610a3e6004803603810190610a39919061466d565b611ea4565b604051610a4b91906146c5565b60405180910390f35b348015610a5f575f80fd5b50610a7a6004803603810190610a75919061453e565b611ec1565b005b348015610a87575f80fd5b50610a90611f84565b604051610a9d9190614904565b60405180910390f35b348015610ab1575f80fd5b50610aba611fa9565b604051610ac7919061478c565b60405180910390f35b348015610adb575f80fd5b50610af66004803603810190610af19190614847565b611fb2565b005b348015610b03575f80fd5b50610b0c612082565b604051610b199190614904565b60405180910390f35b348015610b2d575f80fd5b50610b486004803603810190610b4391906146de565b6120a7565b604051610b5591906146c5565b60405180910390f35b348015610b69575f80fd5b50610b846004803603810190610b7f91906146de565b6120f9565b005b348015610b91575f80fd5b50610bac6004803603810190610ba7919061491d565b6121b8565b604051610bb9919061478c565b60405180910390f35b348015610bcd575f80fd5b50610be86004803603810190610be3919061453e565b61223a565b005b348015610bf5575f80fd5b50610c106004803603810190610c0b91906146de565b6122c0565b005b348015610c1d575f80fd5b50610c386004803603810190610c33919061453e565b612393565b005b348015610c45575f80fd5b50610c606004803603810190610c5b9190614847565b612419565b005b348015610c6d575f80fd5b50610c886004803603810190610c83919061453e565b6124e7565b005b348015610c95575f80fd5b50610cb06004803603810190610cab91906146de565b61256d565b005b348015610cbd575f80fd5b50610cd86004803603810190610cd391906146de565b612663565b005b5f610ce361297b565b905060095f8273ffffffffffffffffffffffffffffffffffffffff1673ffffffffffffffffffffffffffffffffffffffff1681526020019081526020015f205f9054906101000a900460ff1615610d6f576040517f08c379a0000000000000000000000000000000000000000000000000000000008152600401610d66906149cb565b60405180910390fd5b5f610d7983612982565b50505090508060065f8473ffffffffffffffffffffffffffffffffffffffff1673ffffffffffffffffffffffffffffffffffffffff1681526020019081526020015f2054610dc79190614a16565b60065f8473ffffffffffffffffffffffffffffffffffffffff1673ffffffffffffffffffffffffffffffffffffffff1681526020019081526020015f208190555080600f54610e169190614a16565b600f8190555082601054610e2a9190614a49565b601081905550505050565b606060038054610e4490614aa9565b80601f0160208091040260200160405190810160405280929190818152602001828054610e7090614aa9565b8015610ebb5780601f10610e9257610100808354040283529160200191610ebb565b820191905f5260205f20905b815481529060010190602001808311610e9e57829003601f168201915b5050505050905090565b5f610ed8610ed161297b565b84846129e2565b6001905092915050565b610eea61297b565b73ffffffffffffffffffffffffffffffffffffffff16610f08611c17565b73ffffffffffffffffffffffffffffffffffffffff1614610f5e576040517f08c379a0000000000000000000000000000000000000000000000000000000008152600401610f5590614b23565b60405180910390fd5b80600d5f6101000a81548173ffffffffffffffffffffffffffffffffffffffff021916908373ffffffffffffffffffffffffffffffffffffffff16021790555050565b7f000000000000000000000000000000000000000000000000000000000000000081565b5f600e54905090565b60175481565b610fdc61297b565b73ffffffffffffffffffffffffffffffffffffffff16610ffa611c17565b73ffffffffffffffffffffffffffffffffffffffff1614611050576040517f08c379a000000000000000000000000000000000000000000000000000000000815260040161104790614b23565b60405180910390fd5b80601d81905550601d54601b546019546015546017546110709190614a49565b61107a9190614a49565b6110849190614a49565b61108e9190614a49565b60138190555050565b60195481565b5f6110a9848484612ba5565b5f60015f8673ffffffffffffffffffffffffffffffffffffffff1673ffffffffffffffffffffffffffffffffffffffff1681526020019081526020015f205f6110f061297b565b73ffffffffffffffffffffffffffffffffffffffff1673ffffffffffffffffffffffffffffffffffffffff1681526020019081526020015f205490508281101561116f576040517f08c379a000000000000000000000000000000000000000000000000000000000815260040161116690614bb1565b60405180910390fd5b6111838561117b61297b565b8584036129e2565b60019150509392505050565b7f000000000000000000000000000000000000000000000000000000000000000081565b6111bb61297b565b73ffffffffffffffffffffffffffffffffffffffff166111d9611c17565b73ffffffffffffffffffffffffffffffffffffffff161461122f576040517f08c379a000000000000000000000000000000000000000000000000000000000815260040161122690614b23565b60405180910390fd5b80602360026101000a81548160ff0219169083151502179055507f3794234fa370c9f3b948dda3e3040530785b2ef1eb27dda3ffde478f4e2643c08160405161127891906146c5565b60405180910390a150565b5f600b5f9054906101000a900460ff16905090565b5f601054905090565b60115481565b5f6113446112b361297b565b848460015f6112c061297b565b73ffffffffffffffffffffffffffffffffffffffff1673ffffffffffffffffffffffffffffffffffffffff1681526020019081526020015f205f8873ffffffffffffffffffffffffffffffffffffffff1673ffffffffffffffffffffffffffffffffffffffff1681526020019081526020015f205461133f9190614a49565b6129e2565b6001905092915050565b601d5481565b61135c61297b565b73ffffffffffffffffffffffffffffffffffffffff1661137a611c17565b73ffffffffffffffffffffffffffffffffffffffff16146113d0576040517f08c379a00000000000000000000000000000000000000000000000000000000081526004016113c790614b23565b60405180910390fd5b600160085f8373ffffffffffffffffffffffffffffffffffffffff1673ffffffffffffffffffffffffffffffffffffffff1681526020019081526020015f205f6101000a81548160ff02191690831515021790555050565b5f600e5483111561146e576040517f08c379a000000000000000000000000000000000000000000000000000000000815260040161146590614c19565b60405180910390fd5b8161148b575f61147d84612982565b50505090508091505061149f565b5f61149584612982565b5050915050809150505b92915050565b6114ad61297b565b73ffffffffffffffffffffffffffffffffffffffff166114cb611c17565b73ffffffffffffffffffffffffffffffffffffffff1614611521576040517f08c379a000000000000000000000000000000000000000000000000000000000815260040161151890614b23565b60405180910390fd5b80601781905550601d54601b546019546015546017546115419190614a49565b61154b9190614a49565b6115559190614a49565b61155f9190614a49565b60138190555050565b601b5481565b7f000000000000000000000000000000000000000000000000000000000000000081565b602360019054906101000a900460ff1681565b5f60085f8373ffffffffffffffffffffffffffffffffffffffff1673ffffffffffffffffffffffffffffffffffffffff1681526020019081526020015f205f9054906101000a900460ff169050919050565b6115ff61297b565b73ffffffffffffffffffffffffffffffffffffffff1661161d611c17565b73ffffffffffffffffffffffffffffffffffffffff1614611673576040517f08c379a000000000000000000000000000000000000000000000000000000000815260040161166a90614b23565b60405180910390fd5b60095f8273ffffffffffffffffffffffffffffffffffffffff1673ffffffffffffffffffffffffffffffffffffffff1681526020019081526020015f205f9054906101000a900460ff16156116fd576040517f08c379a00000000000000000000000000000000000000000000000000000000081526004016116f490614c81565b60405180910390fd5b5f60065f8373ffffffffffffffffffffffffffffffffffffffff1673ffffffffffffffffffffffffffffffffffffffff1681526020019081526020015f205411156117ca5761178860065f8373ffffffffffffffffffffffffffffffffffffffff1673ffffffffffffffffffffffffffffffffffffffff1681526020019081526020015f2054612f9e565b60075f8373ffffffffffffffffffffffffffffffffffffffff1673ffffffffffffffffffffffffffffffffffffffff1681526020019081526020015f20819055505b600160095f8373ffffffffffffffffffffffffffffffffffffffff1673ffffffffffffffffffffffffffffffffffffffff1681526020019081526020015f205f6101000a81548160ff021916908315150217905550600a81908060018154018082558091505060019003905f5260205f20015f9091909190916101000a81548173ffffffffffffffffffffffffffffffffffffffff021916908373ffffffffffffffffffffffffffffffffffffffff16021790555050565b602360029054906101000a900460ff1681565b61189d61297b565b73ffffffffffffffffffffffffffffffffffffffff166118bb611c17565b73ffffffffffffffffffffffffffffffffffffffff1614611911576040517f08c379a000000000000000000000000000000000000000000000000000000000815260040161190890614b23565b60405180910390fd5b80601981905550601d54601b546019546015546017546119319190614a49565b61193b9190614a49565b6119459190614a49565b61194f9190614a49565b60138190555050565b61196061297b565b73ffffffffffffffffffffffffffffffffffffffff1661197e611c17565b73ffffffffffffffffffffffffffffffffffffffff16146119d4576040517f08c379a00000000000000000000000000000000000000000000000000000000081526004016119cb90614b23565b60405180910390fd5b80601b81905550601d54601b546019546015546017546119f49190614a49565b6119fe9190614a49565b611a089190614a49565b611a129190614a49565b60138190555050565b5f60095f8373ffffffffffffffffffffffffffffffffffffffff1673ffffffffffffffffffffffffffffffffffffffff1681526020019081526020015f205f9054906101000a900460ff1615611ab05760075f8373ffffffffffffffffffffffffffffffffffffffff1673ffffffffffffffffffffffffffffffffffffffff1681526020019081526020015f20549050611af9565b611af660065f8473ffffffffffffffffffffffffffffffffffffffff1673ffffffffffffffffffffffffffffffffffffffff1681526020019081526020015f2054612f9e565b90505b919050565b611b0661297b565b73ffffffffffffffffffffffffffffffffffffffff16611b24611c17565b73ffffffffffffffffffffffffffffffffffffffff1614611b7a576040517f08c379a0000000000000000000000000000000000000000000000000000000008152600401611b7190614b23565b60405180910390fd5b611b835f613003565b565b601f5481565b611b9361297b565b73ffffffffffffffffffffffffffffffffffffffff16611bb1611c17565b73ffffffffffffffffffffffffffffffffffffffff1614611c07576040517f08c379a0000000000000000000000000000000000000000000000000000000008152600401611bfe90614b23565b60405180910390fd5b8060228190555050565b60155481565b5f60055f9054906101000a900473ffffffffffffffffffffffffffffffffffffffff16905090565b611c4761297b565b73ffffffffffffffffffffffffffffffffffffffff16611c65611c17565b73ffffffffffffffffffffffffffffffffffffffff1614611cbb576040517f08c379a0000000000000000000000000000000000000000000000000000000008152600401611cb290614b23565b60405180910390fd5b80600b60016101000a81548173ffffffffffffffffffffffffffffffffffffffff021916908373ffffffffffffffffffffffffffffffffffffffff16021790555050565b606060048054611d0e90614aa9565b80601f0160208091040260200160405190810160405280929190818152602001828054611d3a90614aa9565b8015611d855780601f10611d5c57610100808354040283529160200191611d85565b820191905f5260205f20905b815481529060010190602001808311611d6857829003601f168201915b5050505050905090565b5f602154905090565b5f8060015f611da561297b565b73ffffffffffffffffffffffffffffffffffffffff1673ffffffffffffffffffffffffffffffffffffffff1681526020019081526020015f205f8573ffffffffffffffffffffffffffffffffffffffff1673ffffffffffffffffffffffffffffffffffffffff1681526020019081526020015f2054905082811015611e5f576040517f08c379a0000000000000000000000000000000000000000000000000000000008152600401611e5690614d0f565b60405180910390fd5b611e73611e6a61297b565b858584036129e2565b600191505092915050565b600b60019054906101000a900473ffffffffffffffffffffffffffffffffffffffff1681565b5f611eb7611eb061297b565b8484612ba5565b6001905092915050565b611ec961297b565b73ffffffffffffffffffffffffffffffffffffffff16611ee7611c17565b73ffffffffffffffffffffffffffffffffffffffff1614611f3d576040517f08c379a0000000000000000000000000000000000000000000000000000000008152600401611f3490614b23565b60405180910390fd5b80601581905550601d54601b54601954601554601754611f5d9190614a49565b611f679190614a49565b611f719190614a49565b611f7b9190614a49565b60138190555050565b600d5f9054906101000a900473ffffffffffffffffffffffffffffffffffffffff1681565b5f602254905090565b611fba61297b565b73ffffffffffffffffffffffffffffffffffffffff16611fd8611c17565b73ffffffffffffffffffffffffffffffffffffffff161461202e576040517f08c379a000000000000000000000000000000000000000000000000000000000815260040161202590614b23565b60405180910390fd5b80602360016101000a81548160ff0219169083151502179055507f53726dfcaf90650aa7eb35524f4d3220f07413c8d6cb404cc8c18bf5591bc1598160405161207791906146c5565b60405180910390a150565b600c5f9054906101000a900473ffffffffffffffffffffffffffffffffffffffff1681565b5f60095f8373ffffffffffffffffffffffffffffffffffffffff1673ffffffffffffffffffffffffffffffffffffffff1681526020019081526020015f205f9054906101000a900460ff169050919050565b61210161297b565b73ffffffffffffffffffffffffffffffffffffffff1661211f611c17565b73ffffffffffffffffffffffffffffffffffffffff1614612175576040517f08c379a000000000000000000000000000000000000000000000000000000000815260040161216c90614b23565b60405180910390fd5b80600c5f6101000a81548173ffffffffffffffffffffffffffffffffffffffff021916908373ffffffffffffffffffffffffffffffffffffffff16021790555050565b5f60015f8473ffffffffffffffffffffffffffffffffffffffff1673ffffffffffffffffffffffffffffffffffffffff1681526020019081526020015f205f8373ffffffffffffffffffffffffffffffffffffffff1673ffffffffffffffffffffffffffffffffffffffff1681526020019081526020015f2054905092915050565b61224261297b565b73ffffffffffffffffffffffffffffffffffffffff16612260611c17565b73ffffffffffffffffffffffffffffffffffffffff16146122b6576040517f08c379a00000000000000000000000000000000000000000000000000000000081526004016122ad90614b23565b60405180910390fd5b8060118190555050565b6122c861297b565b73ffffffffffffffffffffffffffffffffffffffff166122e6611c17565b73ffffffffffffffffffffffffffffffffffffffff161461233c576040517f08c379a000000000000000000000000000000000000000000000000000000000815260040161233390614b23565b60405180910390fd5b5f60085f8373ffffffffffffffffffffffffffffffffffffffff1673ffffffffffffffffffffffffffffffffffffffff1681526020019081526020015f205f6101000a81548160ff02191690831515021790555050565b61239b61297b565b73ffffffffffffffffffffffffffffffffffffffff166123b9611c17565b73ffffffffffffffffffffffffffffffffffffffff161461240f576040517f08c379a000000000000000000000000000000000000000000000000000000000815260040161240690614b23565b60405180910390fd5b80601f8190555050565b61242161297b565b73ffffffffffffffffffffffffffffffffffffffff1661243f611c17565b73ffffffffffffffffffffffffffffffffffffffff1614612495576040517f08c379a000000000000000000000000000000000000000000000000000000000815260040161248c90614b23565b60405180910390fd5b80156124c8576124a45f611fb2565b6124ac6130c6565b601f546020819055506124bd610fc5565b601f819055506124e4565b6124d26001611fb2565b6124da61314f565b602054601f819055505b50565b6124ef61297b565b73ffffffffffffffffffffffffffffffffffffffff1661250d611c17565b73ffffffffffffffffffffffffffffffffffffffff1614612563576040517f08c379a000000000000000000000000000000000000000000000000000000000815260040161255a90614b23565b60405180910390fd5b8060218190555050565b61257561297b565b73ffffffffffffffffffffffffffffffffffffffff16612593611c17565b73ffffffffffffffffffffffffffffffffffffffff16146125e9576040517f08c379a00000000000000000000000000000000000000000000000000000000081526004016125e090614b23565b60405180910390fd5b5f73ffffffffffffffffffffffffffffffffffffffff168173ffffffffffffffffffffffffffffffffffffffff1603612657576040517f08c379a000000000000000000000000000000000000000000000000000000000815260040161264e90614d9d565b60405180910390fd5b61266081613003565b50565b61266b61297b565b73ffffffffffffffffffffffffffffffffffffffff16612689611c17565b73ffffffffffffffffffffffffffffffffffffffff16146126df576040517f08c379a00000000000000000000000000000000000000000000000000000000081526004016126d690614b23565b60405180910390fd5b60095f8273ffffffffffffffffffffffffffffffffffffffff1673ffffffffffffffffffffffffffffffffffffffff1681526020019081526020015f205f9054906101000a900460ff16612768576040517f08c379a000000000000000000000000000000000000000000000000000000000815260040161275f90614e05565b60405180910390fd5b5f5b600a80549050811015612977578173ffffffffffffffffffffffffffffffffffffffff16600a82815481106127a2576127a1614e23565b5b905f5260205f20015f9054906101000a900473ffffffffffffffffffffffffffffffffffffffff1673ffffffffffffffffffffffffffffffffffffffff160361296a57600a6001600a805490506127f99190614a16565b8154811061280a57612809614e23565b5b905f5260205f20015f9054906101000a900473ffffffffffffffffffffffffffffffffffffffff16600a828154811061284657612845614e23565b5b905f5260205f20015f6101000a81548173ffffffffffffffffffffffffffffffffffffffff021916908373ffffffffffffffffffffffffffffffffffffffff1602179055505f60075f8473ffffffffffffffffffffffffffffffffffffffff1673ffffffffffffffffffffffffffffffffffffffff1681526020019081526020015f20819055505f60095f8473ffffffffffffffffffffffffffffffffffffffff1673ffffffffffffffffffffffffffffffffffffffff1681526020019081526020015f205f6101000a81548160ff021916908315150217905550600a80548061293357612932614e50565b5b600190038181905f5260205f20015f6101000a81549073ffffffffffffffffffffffffffffffffffffffff02191690559055612977565b808060010191505061276a565b5050565b5f33905090565b5f805f805f61299086613190565b90505f818761299f9190614a16565b90505f6129aa6131c9565b90505f81836129b99190614e7d565b90505f828a6129c89190614e7d565b905080828585985098509850985050505050509193509193565b5f73ffffffffffffffffffffffffffffffffffffffff168373ffffffffffffffffffffffffffffffffffffffff1603612a50576040517f08c379a0000000000000000000000000000000000000000000000000000000008152600401612a4790614f2e565b60405180910390fd5b5f73ffffffffffffffffffffffffffffffffffffffff168273ffffffffffffffffffffffffffffffffffffffff1603612abe576040517f08c379a0000000000000000000000000000000000000000000000000000000008152600401612ab590614fbc565b60405180910390fd5b8060015f8573ffffffffffffffffffffffffffffffffffffffff1673ffffffffffffffffffffffffffffffffffffffff1681526020019081526020015f205f8473ffffffffffffffffffffffffffffffffffffffff1673ffffffffffffffffffffffffffffffffffffffff1681526020019081526020015f20819055508173ffffffffffffffffffffffffffffffffffffffff168373ffffffffffffffffffffffffffffffffffffffff167f8c5be1e5ebec7d5bd14f71427d1e84f3dd0314c0f7b2291e5b200ac8c7c3b92583604051612b98919061478c565b60405180910390a3505050565b5f73ffffffffffffffffffffffffffffffffffffffff168373ffffffffffffffffffffffffffffffffffffffff1603612c13576040517f08c379a0000000000000000000000000000000000000000000000000000000008152600401612c0a9061504a565b60405180910390fd5b5f73ffffffffffffffffffffffffffffffffffffffff168273ffffffffffffffffffffffffffffffffffffffff1603612c81576040517f08c379a0000000000000000000000000000000000000000000000000000000008152600401612c78906150d8565b60405180910390fd5b5f8111612cc3576040517f08c379a0000000000000000000000000000000000000000000000000000000008152600401612cba90615166565b60405180910390fd5b5f612ccd84611a1b565b905081811015612d12576040517f08c379a0000000000000000000000000000000000000000000000000000000008152600401612d09906151f4565b60405180910390fd5b612d1a611c17565b73ffffffffffffffffffffffffffffffffffffffff168473ffffffffffffffffffffffffffffffffffffffff1614158015612d885750612d58611c17565b73ffffffffffffffffffffffffffffffffffffffff168373ffffffffffffffffffffffffffffffffffffffff1614155b15612dd357601f54821115612dd2576040517f08c379a0000000000000000000000000000000000000000000000000000000008152600401612dc990615282565b60405180910390fd5b5b612dde8484846131eb565b5f612de830611a1b565b90505f602154821015905060235f9054906101000a900460ff16158015612e1b5750602360019054906101000a900460ff165b8015612e7257507f000000000000000000000000000000000000000000000000000000000000000073ffffffffffffffffffffffffffffffffffffffff168573ffffffffffffffffffffffffffffffffffffffff16145b15612ee0578015612e8c576021549150612e8b826131f0565b5b5f479050602360029054906101000a900460ff168015612eb35750670de0b6b3a764000081115b15612ede57602254811115612ec85760225490505b612edd606482612ed89190614a16565b6134c3565b5b505b5f6001905060085f8873ffffffffffffffffffffffffffffffffffffffff1673ffffffffffffffffffffffffffffffffffffffff1681526020019081526020015f205f9054906101000a900460ff1680612f80575060085f8773ffffffffffffffffffffffffffffffffffffffff1673ffffffffffffffffffffffffffffffffffffffff1681526020019081526020015f205f9054906101000a900460ff165b15612f89575f90505b612f958787878461350b565b50505050505050565b5f600f54821115612fe4576040517f08c379a0000000000000000000000000000000000000000000000000000000008152600401612fdb90615310565b60405180910390fd5b5f612fed6131c9565b90508083612ffb919061535b565b915050919050565b5f60055f9054906101000a900473ffffffffffffffffffffffffffffffffffffffff1690508160055f6101000a81548173ffffffffffffffffffffffffffffffffffffffff021916908373ffffffffffffffffffffffffffffffffffffffff1602179055508173ffffffffffffffffffffffffffffffffffffffff168173ffffffffffffffffffffffffffffffffffffffff167f8be0079c531659141344cd1fd0a4f28419497f9722a3daafe3b4186f6b6457e060405160405180910390a35050565b5f6013541480156130d857505f601154145b61314d57601354601481905550601554601681905550601754601881905550601154601281905550601954601a81905550601b54601c81905550601d54601e819055505f6013819055505f6015819055505f6017819055505f6011819055505f6019819055505f601b819055505f601d819055505b565b601454601381905550601654601581905550601854601781905550601254601181905550601a54601981905550601c54601b81905550601e54601d81905550565b5f806011546013546131a29190614a49565b90505f606482856131b39190614e7d565b6131bd919061535b565b90508092505050919050565b5f805f6131d4613538565b9150915080826131e4919061535b565b9250505090565b505050565b600160235f6101000a81548160ff0219169083151502179055505f4790505f601354601554846132209190614e7d565b61322a919061535b565b90505f60028261323a919061535b565b90505f81836132499190614a16565b905061325f818661325a9190614a16565b6137b8565b5f844761326c9190614a16565b90506132f1600b60019054906101000a900473ffffffffffffffffffffffffffffffffffffffff166002600a6015546132a59190614e7d565b6132af919061535b565b600a6013546132be9190614e7d565b6132c89190614a16565b600a6019546132d79190614e7d565b846132e29190614e7d565b6132ec919061535b565b613a24565b613373600c5f9054906101000a900473ffffffffffffffffffffffffffffffffffffffff166002600a6015546133279190614e7d565b613331919061535b565b600a6013546133409190614e7d565b61334a9190614a16565b600a601b546133599190614e7d565b846133649190614e7d565b61336e919061535b565b613a24565b6133f5600d5f9054906101000a900473ffffffffffffffffffffffffffffffffffffffff166002600a6015546133a99190614e7d565b6133b3919061535b565b600a6013546133c29190614e7d565b6133cc9190614a16565b600a601d546133db9190614e7d565b846133e69190614e7d565b6133f0919061535b565b613a24565b5f6002600a6015546134079190614e7d565b613411919061535b565b600a6013546134209190614e7d565b61342a9190614a16565b6002600a60155461343b9190614e7d565b613445919061535b565b836134509190614e7d565b61345a919061535b565b90506134668382613a6c565b7f17bbfb9a6069321b6ded73bd96327c9e6b7212a5cd51ff219cd61370acafb5618482856040516134999392919061538b565b60405180910390a15050505050505f60235f6101000a81548160ff02191690831515021790555050565b600160235f6101000a81548160ff0219169083151502179055505f8111156134ef576134ee81613b4a565b5b5f60235f6101000a81548160ff02191690831515021790555050565b80613519576135186130c6565b5b613524848484613db8565b806135325761353161314f565b5b50505050565b5f805f600f5490505f600e5490505f5b600a80549050811015613782578260065f600a848154811061356d5761356c614e23565b5b905f5260205f20015f9054906101000a900473ffffffffffffffffffffffffffffffffffffffff1673ffffffffffffffffffffffffffffffffffffffff1673ffffffffffffffffffffffffffffffffffffffff1681526020019081526020015f2054118061365257508160075f600a84815481106135ee576135ed614e23565b5b905f5260205f20015f9054906101000a900473ffffffffffffffffffffffffffffffffffffffff1673ffffffffffffffffffffffffffffffffffffffff1673ffffffffffffffffffffffffffffffffffffffff1681526020019081526020015f2054115b1561366957600f54600e54945094505050506137b4565b60065f600a83815481106136805761367f614e23565b5b905f5260205f20015f9054906101000a900473ffffffffffffffffffffffffffffffffffffffff1673ffffffffffffffffffffffffffffffffffffffff1673ffffffffffffffffffffffffffffffffffffffff1681526020019081526020015f2054836136ed9190614a16565b925060075f600a838154811061370657613705614e23565b5b905f5260205f20015f9054906101000a900473ffffffffffffffffffffffffffffffffffffffff1673ffffffffffffffffffffffffffffffffffffffff1673ffffffffffffffffffffffffffffffffffffffff1681526020019081526020015f2054826137739190614a16565b91508080600101915050613548565b50600e54600f54613793919061535b565b8210156137ab57600f54600e549350935050506137b4565b81819350935050505b9091565b5f600267ffffffffffffffff8111156137d4576137d36153c0565b5b6040519080825280602002602001820160405280156138025781602001602082028036833780820191505090505b50905030815f8151811061381957613818614e23565b5b602002602001019073ffffffffffffffffffffffffffffffffffffffff16908173ffffffffffffffffffffffffffffffffffffffff16815250507f000000000000000000000000000000000000000000000000000000000000000073ffffffffffffffffffffffffffffffffffffffff1663ad5c46486040518163ffffffff1660e01b8152600401602060405180830381865afa1580156138bc573d5f803e3d5ffd5b505050506040513d601f19601f820116820180604052508101906138e09190615401565b816001815181106138f4576138f3614e23565b5b602002602001019073ffffffffffffffffffffffffffffffffffffffff16908173ffffffffffffffffffffffffffffffffffffffff1681525050613959307f0000000000000000000000000000000000000000000000000000000000000000846129e2565b7f000000000000000000000000000000000000000000000000000000000000000073ffffffffffffffffffffffffffffffffffffffff1663791ac947835f8430426040518663ffffffff1660e01b81526004016139ba95949392919061551c565b5f604051808303815f87803b1580156139d1575f80fd5b505af11580156139e3573d5f803e3d5ffd5b505050507f32cde87eb454f3a0b875ab23547023107cfad454363ec88ba5695e2c24aa52a78282604051613a18929190615574565b60405180910390a15050565b8173ffffffffffffffffffffffffffffffffffffffff166108fc8290811502906040515f60405180830381858888f19350505050158015613a67573d5f803e3d5ffd5b505050565b613a97307f0000000000000000000000000000000000000000000000000000000000000000846129e2565b7f000000000000000000000000000000000000000000000000000000000000000073ffffffffffffffffffffffffffffffffffffffff1663f305d7198230855f80613ae0611c17565b426040518863ffffffff1660e01b8152600401613b02969594939291906155a2565b60606040518083038185885af1158015613b1e573d5f803e3d5ffd5b50505050506040513d601f19601f82011682018060405250810190613b439190615615565b5050505050565b5f600267ffffffffffffffff811115613b6657613b656153c0565b5b604051908082528060200260200182016040528015613b945781602001602082028036833780820191505090505b5090507f000000000000000000000000000000000000000000000000000000000000000073ffffffffffffffffffffffffffffffffffffffff1663ad5c46486040518163ffffffff1660e01b8152600401602060405180830381865afa158015613c00573d5f803e3d5ffd5b505050506040513d601f19601f82011682018060405250810190613c249190615401565b815f81518110613c3757613c36614e23565b5b602002602001019073ffffffffffffffffffffffffffffffffffffffff16908173ffffffffffffffffffffffffffffffffffffffff16815250503081600181518110613c8657613c85614e23565b5b602002602001019073ffffffffffffffffffffffffffffffffffffffff16908173ffffffffffffffffffffffffffffffffffffffff16815250507f000000000000000000000000000000000000000000000000000000000000000073ffffffffffffffffffffffffffffffffffffffff1663b6f9de95835f847f000000000000000000000000000000000000000000000000000000000000000061012c42613d2e9190614a49565b6040518663ffffffff1660e01b8152600401613d4d9493929190615665565b5f604051808303818588803b158015613d64575f80fd5b505af1158015613d76573d5f803e3d5ffd5b50505050507f6fd378a9d8b7345c2e5b18229aaf1e39d32b177b501d0a0d26a0a858a23a96248282604051613dac929190615574565b60405180910390a15050565b5f805f80613dc585612982565b93509350935093508360065f8973ffffffffffffffffffffffffffffffffffffffff1673ffffffffffffffffffffffffffffffffffffffff1681526020019081526020015f2054613e169190614a16565b60065f8973ffffffffffffffffffffffffffffffffffffffff1673ffffffffffffffffffffffffffffffffffffffff1681526020019081526020015f20819055508260065f8873ffffffffffffffffffffffffffffffffffffffff1673ffffffffffffffffffffffffffffffffffffffff1681526020019081526020015f2054613ea09190614a49565b60065f8873ffffffffffffffffffffffffffffffffffffffff1673ffffffffffffffffffffffffffffffffffffffff1681526020019081526020015f208190555060095f8873ffffffffffffffffffffffffffffffffffffffff1673ffffffffffffffffffffffffffffffffffffffff1681526020019081526020015f205f9054906101000a900460ff168015613f7e575060095f8773ffffffffffffffffffffffffffffffffffffffff1673ffffffffffffffffffffffffffffffffffffffff1681526020019081526020015f205f9054906101000a900460ff16155b15614012578460075f8973ffffffffffffffffffffffffffffffffffffffff1673ffffffffffffffffffffffffffffffffffffffff1681526020019081526020015f2054613fcc9190614a16565b60075f8973ffffffffffffffffffffffffffffffffffffffff1673ffffffffffffffffffffffffffffffffffffffff1681526020019081526020015f20819055506142fb565b60095f8873ffffffffffffffffffffffffffffffffffffffff1673ffffffffffffffffffffffffffffffffffffffff1681526020019081526020015f205f9054906101000a900460ff161580156140af575060095f8773ffffffffffffffffffffffffffffffffffffffff1673ffffffffffffffffffffffffffffffffffffffff1681526020019081526020015f205f9054906101000a900460ff165b15614143578160075f8873ffffffffffffffffffffffffffffffffffffffff1673ffffffffffffffffffffffffffffffffffffffff1681526020019081526020015f20546140fd9190614a49565b60075f8873ffffffffffffffffffffffffffffffffffffffff1673ffffffffffffffffffffffffffffffffffffffff1681526020019081526020015f20819055506142fa565b60095f8873ffffffffffffffffffffffffffffffffffffffff1673ffffffffffffffffffffffffffffffffffffffff1681526020019081526020015f205f9054906101000a900460ff1680156141df575060095f8773ffffffffffffffffffffffffffffffffffffffff1673ffffffffffffffffffffffffffffffffffffffff1681526020019081526020015f205f9054906101000a900460ff165b156142f9578460075f8973ffffffffffffffffffffffffffffffffffffffff1673ffffffffffffffffffffffffffffffffffffffff1681526020019081526020015f205461422d9190614a16565b60075f8973ffffffffffffffffffffffffffffffffffffffff1673ffffffffffffffffffffffffffffffffffffffff1681526020019081526020015f20819055508160075f8873ffffffffffffffffffffffffffffffffffffffff1673ffffffffffffffffffffffffffffffffffffffff1681526020019081526020015f20546142b79190614a49565b60075f8873ffffffffffffffffffffffffffffffffffffffff1673ffffffffffffffffffffffffffffffffffffffff1681526020019081526020015f20819055505b5b5b6143058582614382565b614314878683601354306143dc565b8573ffffffffffffffffffffffffffffffffffffffff168773ffffffffffffffffffffffffffffffffffffffff167fddf252ad1be2c89b69c2b068fc378daa952ba7f163c4a11628f55a4df523b3ef84604051614371919061478c565b60405180910390a350505050505050565b5f6064601154846143939190614e7d565b61439d919061535b565b90505f82826143ac9190614e7d565b905080600f546143bc9190614a16565b600f81905550816010546143d09190614a49565b60108190555050505050565b5f606483866143eb9190614e7d565b6143f5919061535b565b90505f8111156144ff575f848261440c9190614e7d565b90508060065f8573ffffffffffffffffffffffffffffffffffffffff1673ffffffffffffffffffffffffffffffffffffffff1681526020019081526020015f20546144579190614a49565b60065f8573ffffffffffffffffffffffffffffffffffffffff1673ffffffffffffffffffffffffffffffffffffffff1681526020019081526020015f20819055508273ffffffffffffffffffffffffffffffffffffffff168773ffffffffffffffffffffffffffffffffffffffff167fddf252ad1be2c89b69c2b068fc378daa952ba7f163c4a11628f55a4df523b3ef846040516144f5919061478c565b60405180910390a3505b505050505050565b5f80fd5b5f819050919050565b61451d8161450b565b8114614527575f80fd5b50565b5f8135905061453881614514565b92915050565b5f6020828403121561455357614552614507565b5b5f6145608482850161452a565b91505092915050565b5f81519050919050565b5f82825260208201905092915050565b5f5b838110156145a0578082015181840152602081019050614585565b5f8484015250505050565b5f601f19601f8301169050919050565b5f6145c582614569565b6145cf8185614573565b93506145df818560208601614583565b6145e8816145ab565b840191505092915050565b5f6020820190508181035f83015261460b81846145bb565b905092915050565b5f73ffffffffffffffffffffffffffffffffffffffff82169050919050565b5f61463c82614613565b9050919050565b61464c81614632565b8114614656575f80fd5b50565b5f8135905061466781614643565b92915050565b5f806040838503121561468357614682614507565b5b5f61469085828601614659565b92505060206146a18582860161452a565b9150509250929050565b5f8115159050919050565b6146bf816146ab565b82525050565b5f6020820190506146d85f8301846146b6565b92915050565b5f602082840312156146f3576146f2614507565b5b5f61470084828501614659565b91505092915050565b5f819050919050565b5f61472c61472761472284614613565b614709565b614613565b9050919050565b5f61473d82614712565b9050919050565b5f61474e82614733565b9050919050565b61475e81614744565b82525050565b5f6020820190506147775f830184614755565b92915050565b6147868161450b565b82525050565b5f60208201905061479f5f83018461477d565b92915050565b5f805f606084860312156147bc576147bb614507565b5b5f6147c986828701614659565b93505060206147da86828701614659565b92505060406147eb8682870161452a565b9150509250925092565b6147fe81614632565b82525050565b5f6020820190506148175f8301846147f5565b92915050565b614826816146ab565b8114614830575f80fd5b50565b5f813590506148418161481d565b92915050565b5f6020828403121561485c5761485b614507565b5b5f61486984828501614833565b91505092915050565b5f60ff82169050919050565b61488781614872565b82525050565b5f6020820190506148a05f83018461487e565b92915050565b5f80604083850312156148bc576148bb614507565b5b5f6148c98582860161452a565b92505060206148da85828601614833565b9150509250929050565b5f6148ee82614613565b9050919050565b6148fe816148e4565b82525050565b5f6020820190506149175f8301846148f5565b92915050565b5f806040838503121561493357614932614507565b5b5f61494085828601614659565b925050602061495185828601614659565b9150509250929050565b7f4578636c75646564206164647265737365732063616e6e6f742063616c6c20745f8201527f6869732066756e6374696f6e0000000000000000000000000000000000000000602082015250565b5f6149b5602c83614573565b91506149c08261495b565b604082019050919050565b5f6020820190508181035f8301526149e2816149a9565b9050919050565b7f4e487b71000000000000000000000000000000000000000000000000000000005f52601160045260245ffd5b5f614a208261450b565b9150614a2b8361450b565b9250828203905081811115614a4357614a426149e9565b5b92915050565b5f614a538261450b565b9150614a5e8361450b565b9250828201905080821115614a7657614a756149e9565b5b92915050565b7f4e487b71000000000000000000000000000000000000000000000000000000005f52602260045260245ffd5b5f6002820490506001821680614ac057607f821691505b602082108103614ad357614ad2614a7c565b5b50919050565b7f4f776e61626c653a2063616c6c6572206973206e6f7420746865206f776e65725f82015250565b5f614b0d602083614573565b9150614b1882614ad9565b602082019050919050565b5f6020820190508181035f830152614b3a81614b01565b9050919050565b7f45524332303a207472616e7366657220616d6f756e74206578636565647320615f8201527f6c6c6f77616e6365000000000000000000000000000000000000000000000000602082015250565b5f614b9b602883614573565b9150614ba682614b41565b604082019050919050565b5f6020820190508181035f830152614bc881614b8f565b9050919050565b7f416d6f756e74206d757374206265206c657373207468616e20737570706c79005f82015250565b5f614c03601f83614573565b9150614c0e82614bcf565b602082019050919050565b5f6020820190508181035f830152614c3081614bf7565b9050919050565b7f4163636f756e7420697320616c7265616479206578636c7564656400000000005f82015250565b5f614c6b601b83614573565b9150614c7682614c37565b602082019050919050565b5f6020820190508181035f830152614c9881614c5f565b9050919050565b7f45524332303a2064656372656173656420616c6c6f77616e63652062656c6f775f8201527f207a65726f000000000000000000000000000000000000000000000000000000602082015250565b5f614cf9602583614573565b9150614d0482614c9f565b604082019050919050565b5f6020820190508181035f830152614d2681614ced565b9050919050565b7f4f776e61626c653a206e6577206f776e657220697320746865207a65726f20615f8201527f6464726573730000000000000000000000000000000000000000000000000000602082015250565b5f614d87602683614573565b9150614d9282614d2d565b604082019050919050565b5f6020820190508181035f830152614db481614d7b565b9050919050565b7f4163636f756e7420697320616c726561647920696e636c7564656400000000005f82015250565b5f614def601b83614573565b9150614dfa82614dbb565b602082019050919050565b5f6020820190508181035f830152614e1c81614de3565b9050919050565b7f4e487b71000000000000000000000000000000000000000000000000000000005f52603260045260245ffd5b7f4e487b71000000000000000000000000000000000000000000000000000000005f52603160045260245ffd5b5f614e878261450b565b9150614e928361450b565b9250828202614ea08161450b565b91508282048414831517614eb757614eb66149e9565b5b5092915050565b7f45524332303a20617070726f76652066726f6d20746865207a65726f206164645f8201527f7265737300000000000000000000000000000000000000000000000000000000602082015250565b5f614f18602483614573565b9150614f2382614ebe565b604082019050919050565b5f6020820190508181035f830152614f4581614f0c565b9050919050565b7f45524332303a20617070726f766520746f20746865207a65726f2061646472655f8201527f7373000000000000000000000000000000000000000000000000000000000000602082015250565b5f614fa6602283614573565b9150614fb182614f4c565b604082019050919050565b5f6020820190508181035f830152614fd381614f9a565b9050919050565b7f45524332303a207472616e736665722066726f6d20746865207a65726f2061645f8201527f6472657373000000000000000000000000000000000000000000000000000000602082015250565b5f615034602583614573565b915061503f82614fda565b604082019050919050565b5f6020820190508181035f83015261506181615028565b9050919050565b7f45524332303a207472616e7366657220746f20746865207a65726f20616464725f8201527f6573730000000000000000000000000000000000000000000000000000000000602082015250565b5f6150c2602383614573565b91506150cd82615068565b604082019050919050565b5f6020820190508181035f8301526150ef816150b6565b9050919050565b7f5472616e7366657220616d6f756e74206d7573742062652067726561746572205f8201527f7468616e207a65726f0000000000000000000000000000000000000000000000602082015250565b5f615150602983614573565b915061515b826150f6565b604082019050919050565b5f6020820190508181035f83015261517d81615144565b9050919050565b7f45524332303a207472616e7366657220616d6f756e74206578636565647320625f8201527f616c616e63650000000000000000000000000000000000000000000000000000602082015250565b5f6151de602683614573565b91506151e982615184565b604082019050919050565b5f6020820190508181035f83015261520b816151d2565b9050919050565b7f5472616e7366657220616d6f756e74206578636565647320746865206d6178545f8201527f78416d6f756e742e000000000000000000000000000000000000000000000000602082015250565b5f61526c602883614573565b915061527782615212565b604082019050919050565b5f6020820190508181035f83015261529981615260565b9050919050565b7f416d6f756e74206d757374206265206c657373207468616e20746f74616c20725f8201527f65666c656374696f6e7300000000000000000000000000000000000000000000602082015250565b5f6152fa602a83614573565b9150615305826152a0565b604082019050919050565b5f6020820190508181035f830152615327816152ee565b9050919050565b7f4e487b71000000000000000000000000000000000000000000000000000000005f52601260045260245ffd5b5f6153658261450b565b91506153708361450b565b9250826153805761537f61532e565b5b828204905092915050565b5f60608201905061539e5f83018661477d565b6153ab602083018561477d565b6153b8604083018461477d565b949350505050565b7f4e487b71000000000000000000000000000000000000000000000000000000005f52604160045260245ffd5b5f815190506153fb81614643565b92915050565b5f6020828403121561541657615415614507565b5b5f615423848285016153ed565b91505092915050565b5f819050919050565b5f61544f61544a6154458461542c565b614709565b61450b565b9050919050565b61545f81615435565b82525050565b5f81519050919050565b5f82825260208201905092915050565b5f819050602082019050919050565b61549781614632565b82525050565b5f6154a8838361548e565b60208301905092915050565b5f602082019050919050565b5f6154ca82615465565b6154d4818561546f565b93506154df8361547f565b805f5b8381101561550f5781516154f6888261549d565b9750615501836154b4565b9250506001810190506154e2565b5085935050505092915050565b5f60a08201905061552f5f83018861477d565b61553c6020830187615456565b818103604083015261554e81866154c0565b905061555d60608301856147f5565b61556a608083018461477d565b9695505050505050565b5f6040820190506155875f83018561477d565b818103602083015261559981846154c0565b90509392505050565b5f60c0820190506155b55f8301896147f5565b6155c2602083018861477d565b6155cf6040830187615456565b6155dc6060830186615456565b6155e960808301856147f5565b6155f660a083018461477d565b979650505050505050565b5f8151905061560f81614514565b92915050565b5f805f6060848603121561562c5761562b614507565b5b5f61563986828701615601565b935050602061564a86828701615601565b925050604061565b86828701615601565b9150509250925092565b5f6080820190506156785f830187615456565b818103602083015261568a81866154c0565b905061569960408301856147f5565b6156a6606083018461477d565b9594505050505056fea2646970667358221220794152bd86b8e992868210f0b5ae1d1d2a6280fd7c290483778d1973ac825a8764736f6c63430008160033",
			"opcodes": "PUSH1 0xE0 PUSH1 0x40 MSTORE PUSH2 0xDEAD PUSH20 0xFFFFFFFFFFFFFFFFFFFFFFFFFFFFFFFFFFFFFFFF AND PUSH1 0x80 SWAP1 PUSH20 0xFFFFFFFFFFFFFFFFFFFFFFFFFFFFFFFFFFFFFFFF AND DUP2 MSTORE POP PUSH0 PUSH1 0x10 SSTORE PUSH1 0x1 PUSH1 0x23 PUSH1 0x1 PUSH2 0x100 EXP DUP2 SLOAD DUP2 PUSH1 0xFF MUL NOT AND SWAP1 DUP4 ISZERO ISZERO MUL OR SWAP1 SSTORE POP PUSH1 0x1 PUSH1 0x23 PUSH1 0x2 PUSH2 0x100 EXP DUP2 SLOAD DUP2 PUSH1 0xFF MUL NOT AND SWAP1 DUP4 ISZERO ISZERO MUL OR SWAP1 SSTORE POP PUSH1 0x40 MLOAD PUSH3 0x6EA1 CODESIZE SUB DUP1 PUSH3 0x6EA1 DUP4 CODECOPY DUP2 DUP2 ADD PUSH1 0x40 MSTORE DUP2 ADD SWAP1 PUSH3 0x98 SWAP2 SWAP1 PUSH3 0xEFF JUMP JUMPDEST DUP6 DUP6 DUP2 PUSH1 0x3 SWAP1 DUP2 PUSH3 0xAB SWAP2 SWAP1 PUSH3 0x1205 JUMP JUMPDEST POP DUP1 PUSH1 0x4 SWAP1 DUP2 PUSH3 0xBD SWAP2 SWAP1 PUSH3 0x1205 JUMP JUMPDEST POP POP POP PUSH3 0xE0 PUSH3 0xD4 PUSH3 0x8BE PUSH1 0x20 SHL PUSH1 0x20 SHR JUMP JUMPDEST PUSH3 0x8C5 PUSH1 0x20 SHL PUSH1 0x20 SHR JUMP JUMPDEST DUP3 PUSH1 0xB PUSH0 PUSH2 0x100 EXP DUP2 SLOAD DUP2 PUSH1 0xFF MUL NOT AND SWAP1 DUP4 PUSH1 0xFF AND MUL OR SWAP1 SSTORE POP DUP3 PUSH1 0xA PUSH3 0x109 SWAP2 SWAP1 PUSH3 0x1466 JUMP JUMPDEST DUP5 PUSH3 0x116 SWAP2 SWAP1 PUSH3 0x14B6 JUMP JUMPDEST PUSH1 0xE DUP2 SWAP1 SSTORE POP PUSH1 0xE SLOAD PUSH0 NOT PUSH3 0x12D SWAP2 SWAP1 PUSH3 0x152D JUMP JUMPDEST PUSH0 NOT PUSH3 0x13B SWAP2 SWAP1 PUSH3 0x1564 JUMP JUMPDEST PUSH1 0xF DUP2 SWAP1 SSTORE POP DUP1 PUSH1 0x5 PUSH1 0x6 DUP2 LT PUSH3 0x158 JUMPI PUSH3 0x157 PUSH3 0x159E JUMP JUMPDEST JUMPDEST PUSH1 0x20 MUL ADD MLOAD PUSH1 0x11 DUP2 SWAP1 SSTORE POP PUSH1 0x11 SLOAD PUSH1 0x12 DUP2 SWAP1 SSTORE POP DUP1 PUSH1 0x3 PUSH1 0x6 DUP2 LT PUSH3 0x183 JUMPI PUSH3 0x182 PUSH3 0x159E JUMP JUMPDEST JUMPDEST PUSH1 0x20 MUL ADD MLOAD PUSH1 0x15 DUP2 SWAP1 SSTORE POP PUSH1 0x15 SLOAD PUSH1 0x16 DUP2 SWAP1 SSTORE POP DUP1 PUSH1 0x4 PUSH1 0x6 DUP2 LT PUSH3 0x1AE JUMPI PUSH3 0x1AD PUSH3 0x159E JUMP JUMPDEST JUMPDEST PUSH1 0x20 MUL ADD MLOAD PUSH1 0x17 DUP2 SWAP1 SSTORE POP PUSH1 0x17 SLOAD PUSH1 0x18 DUP2 SWAP1 SSTORE POP DUP1 PUSH0 PUSH1 0x6 DUP2 LT PUSH3 0x1D8 JUMPI PUSH3 0x1D7 PUSH3 0x159E JUMP JUMPDEST JUMPDEST PUSH1 0x20 MUL ADD MLOAD PUSH1 0x19 DUP2 SWAP1 SSTORE POP PUSH1 0x19 SLOAD PUSH1 0x1A DUP2 SWAP1 SSTORE POP DUP1 PUSH1 0x1 PUSH1 0x6 DUP2 LT PUSH3 0x203 JUMPI PUSH3 0x202 PUSH3 0x159E JUMP JUMPDEST JUMPDEST PUSH1 0x20 MUL ADD MLOAD PUSH1 0x1B DUP2 SWAP1 SSTORE POP PUSH1 0x1B SLOAD PUSH1 0x1C DUP2 SWAP1 SSTORE POP DUP1 PUSH1 0x2 PUSH1 0x6 DUP2 LT PUSH3 0x22E JUMPI PUSH3 0x22D PUSH3 0x159E JUMP JUMPDEST JUMPDEST PUSH1 0x20 MUL ADD MLOAD PUSH1 0x1D DUP2 SWAP1 SSTORE POP PUSH1 0x1D SLOAD PUSH1 0x1E DUP2 SWAP1 SSTORE POP PUSH1 0x17 SLOAD PUSH1 0x15 SLOAD PUSH1 0x1D SLOAD PUSH1 0x1B SLOAD PUSH1 0x19 SLOAD PUSH3 0x25D SWAP2 SWAP1 PUSH3 0x15CB JUMP JUMPDEST PUSH3 0x269 SWAP2 SWAP1 PUSH3 0x15CB JUMP JUMPDEST PUSH3 0x275 SWAP2 SWAP1 PUSH3 0x15CB JUMP JUMPDEST PUSH3 0x281 SWAP2 SWAP1 PUSH3 0x15CB JUMP JUMPDEST PUSH1 0x13 DUP2 SWAP1 SSTORE POP PUSH1 0x13 SLOAD PUSH1 0x14 DUP2 SWAP1 SSTORE POP DUP2 PUSH0 PUSH1 0x5 DUP2 LT PUSH3 0x2A6 JUMPI PUSH3 0x2A5 PUSH3 0x159E JUMP JUMPDEST JUMPDEST PUSH1 0x20 MUL ADD MLOAD PUSH1 0xB PUSH1 0x1 PUSH2 0x100 EXP DUP2 SLOAD DUP2 PUSH20 0xFFFFFFFFFFFFFFFFFFFFFFFFFFFFFFFFFFFFFFFF MUL NOT AND SWAP1 DUP4 PUSH20 0xFFFFFFFFFFFFFFFFFFFFFFFFFFFFFFFFFFFFFFFF AND MUL OR SWAP1 SSTORE POP DUP2 PUSH1 0x1 PUSH1 0x5 DUP2 LT PUSH3 0x302 JUMPI PUSH3 0x301 PUSH3 0x159E JUMP JUMPDEST JUMPDEST PUSH1 0x20 MUL ADD MLOAD PUSH1 0xC PUSH0 PUSH2 0x100 EXP DUP2 SLOAD DUP2 PUSH20 0xFFFFFFFFFFFFFFFFFFFFFFFFFFFFFFFFFFFFFFFF MUL NOT AND SWAP1 DUP4 PUSH20 0xFFFFFFFFFFFFFFFFFFFFFFFFFFFFFFFFFFFFFFFF AND MUL OR SWAP1 SSTORE POP DUP2 PUSH1 0x2 PUSH1 0x5 DUP2 LT PUSH3 0x35D JUMPI PUSH3 0x35C PUSH3 0x159E JUMP JUMPDEST JUMPDEST PUSH1 0x20 MUL ADD MLOAD PUSH1 0xD PUSH0 PUSH2 0x100 EXP DUP2 SLOAD DUP2 PUSH20 0xFFFFFFFFFFFFFFFFFFFFFFFFFFFFFFFFFFFFFFFF MUL NOT AND SWAP1 DUP4 PUSH20 0xFFFFFFFFFFFFFFFFFFFFFFFFFFFFFFFFFFFFFFFF AND MUL OR SWAP1 SSTORE POP DUP3 PUSH1 0xA PUSH3 0x3B0 SWAP2 SWAP1 PUSH3 0x1466 JUMP JUMPDEST DUP5 PUSH3 0x3BD SWAP2 SWAP1 PUSH3 0x14B6 JUMP JUMPDEST PUSH1 0x1F DUP2 SWAP1 SSTORE POP PUSH1 0x1F SLOAD PUSH1 0x20 DUP2 SWAP1 SSTORE POP PUSH1 0x2 PUSH2 0x2710 DUP5 PUSH1 0xA PUSH3 0x3E0 SWAP2 SWAP1 PUSH3 0x1466 JUMP JUMPDEST DUP7 PUSH3 0x3ED SWAP2 SWAP1 PUSH3 0x14B6 JUMP JUMPDEST PUSH3 0x3F9 SWAP2 SWAP1 PUSH3 0x1605 JUMP JUMPDEST PUSH3 0x405 SWAP2 SWAP1 PUSH3 0x14B6 JUMP JUMPDEST PUSH1 0x21 DUP2 SWAP1 SSTORE POP PUSH10 0x152D02C7E14AF6800000 PUSH1 0x22 DUP2 SWAP1 SSTORE POP PUSH0 DUP3 PUSH1 0x3 PUSH1 0x5 DUP2 LT PUSH3 0x434 JUMPI PUSH3 0x433 PUSH3 0x159E JUMP JUMPDEST JUMPDEST PUSH1 0x20 MUL ADD MLOAD SWAP1 POP DUP1 PUSH20 0xFFFFFFFFFFFFFFFFFFFFFFFFFFFFFFFFFFFFFFFF AND PUSH4 0xC45A0155 PUSH1 0x40 MLOAD DUP2 PUSH4 0xFFFFFFFF AND PUSH1 0xE0 SHL DUP2 MSTORE PUSH1 0x4 ADD PUSH1 0x20 PUSH1 0x40 MLOAD DUP1 DUP4 SUB DUP2 DUP7 GAS STATICCALL ISZERO DUP1 ISZERO PUSH3 0x485 JUMPI RETURNDATASIZE PUSH0 DUP1 RETURNDATACOPY RETURNDATASIZE PUSH0 REVERT JUMPDEST POP POP POP POP PUSH1 0x40 MLOAD RETURNDATASIZE PUSH1 0x1F NOT PUSH1 0x1F DUP3 ADD AND DUP3 ADD DUP1 PUSH1 0x40 MSTORE POP DUP2 ADD SWAP1 PUSH3 0x4AB SWAP2 SWAP1 PUSH3 0x163C JUMP JUMPDEST PUSH20 0xFFFFFFFFFFFFFFFFFFFFFFFFFFFFFFFFFFFFFFFF AND PUSH4 0xC9C65396 ADDRESS DUP4 PUSH20 0xFFFFFFFFFFFFFFFFFFFFFFFFFFFFFFFFFFFFFFFF AND PUSH4 0xAD5C4648 PUSH1 0x40 MLOAD DUP2 PUSH4 0xFFFFFFFF AND PUSH1 0xE0 SHL DUP2 MSTORE PUSH1 0x4 ADD PUSH1 0x20 PUSH1 0x40 MLOAD DUP1 DUP4 SUB DUP2 DUP7 GAS STATICCALL ISZERO DUP1 ISZERO PUSH3 0x511 JUMPI RETURNDATASIZE PUSH0 DUP1 RETURNDATACOPY RETURNDATASIZE PUSH0 REVERT JUMPDEST POP POP POP POP PUSH1 0x40 MLOAD RETURNDATASIZE PUSH1 0x1F NOT PUSH1 0x1F DUP3 ADD AND DUP3 ADD DUP1 PUSH1 0x40 MSTORE POP DUP2 ADD SWAP1 PUSH3 0x537 SWAP2 SWAP1 PUSH3 0x163C JUMP JUMPDEST PUSH1 0x40 MLOAD DUP4 PUSH4 0xFFFFFFFF AND PUSH1 0xE0 SHL DUP2 MSTORE PUSH1 0x4 ADD PUSH3 0x556 SWAP3 SWAP2 SWAP1 PUSH3 0x167D JUMP JUMPDEST PUSH1 0x20 PUSH1 0x40 MLOAD DUP1 DUP4 SUB DUP2 PUSH0 DUP8 GAS CALL ISZERO DUP1 ISZERO PUSH3 0x573 JUMPI RETURNDATASIZE PUSH0 DUP1 RETURNDATACOPY RETURNDATASIZE PUSH0 REVERT JUMPDEST POP POP POP POP PUSH1 0x40 MLOAD RETURNDATASIZE PUSH1 0x1F NOT PUSH1 0x1F DUP3 ADD AND DUP3 ADD DUP1 PUSH1 0x40 MSTORE POP DUP2 ADD SWAP1 PUSH3 0x599 SWAP2 SWAP1 PUSH3 0x163C JUMP JUMPDEST PUSH20 0xFFFFFFFFFFFFFFFFFFFFFFFFFFFFFFFFFFFFFFFF AND PUSH1 0xC0 DUP2 PUSH20 0xFFFFFFFFFFFFFFFFFFFFFFFFFFFFFFFFFFFFFFFF AND DUP2 MSTORE POP POP DUP1 PUSH20 0xFFFFFFFFFFFFFFFFFFFFFFFFFFFFFFFFFFFFFFFF AND PUSH1 0xA0 DUP2 PUSH20 0xFFFFFFFFFFFFFFFFFFFFFFFFFFFFFFFFFFFFFFFF AND DUP2 MSTORE POP POP PUSH1 0x1 PUSH1 0x8 PUSH0 PUSH3 0x615 PUSH3 0x988 PUSH1 0x20 SHL PUSH1 0x20 SHR JUMP JUMPDEST PUSH20 0xFFFFFFFFFFFFFFFFFFFFFFFFFFFFFFFFFFFFFFFF AND PUSH20 0xFFFFFFFFFFFFFFFFFFFFFFFFFFFFFFFFFFFFFFFF AND DUP2 MSTORE PUSH1 0x20 ADD SWAP1 DUP2 MSTORE PUSH1 0x20 ADD PUSH0 KECCAK256 PUSH0 PUSH2 0x100 EXP DUP2 SLOAD DUP2 PUSH1 0xFF MUL NOT AND SWAP1 DUP4 ISZERO ISZERO MUL OR SWAP1 SSTORE POP PUSH1 0x1 PUSH1 0x8 PUSH0 PUSH1 0xB PUSH1 0x1 SWAP1 SLOAD SWAP1 PUSH2 0x100 EXP SWAP1 DIV PUSH20 0xFFFFFFFFFFFFFFFFFFFFFFFFFFFFFFFFFFFFFFFF AND PUSH20 0xFFFFFFFFFFFFFFFFFFFFFFFFFFFFFFFFFFFFFFFF AND PUSH20 0xFFFFFFFFFFFFFFFFFFFFFFFFFFFFFFFFFFFFFFFF AND DUP2 MSTORE PUSH1 0x20 ADD SWAP1 DUP2 MSTORE PUSH1 0x20 ADD PUSH0 KECCAK256 PUSH0 PUSH2 0x100 EXP DUP2 SLOAD DUP2 PUSH1 0xFF MUL NOT AND SWAP1 DUP4 ISZERO ISZERO MUL OR SWAP1 SSTORE POP PUSH1 0x1 PUSH1 0x8 PUSH0 PUSH1 0xC PUSH0 SWAP1 SLOAD SWAP1 PUSH2 0x100 EXP SWAP1 DIV PUSH20 0xFFFFFFFFFFFFFFFFFFFFFFFFFFFFFFFFFFFFFFFF AND PUSH20 0xFFFFFFFFFFFFFFFFFFFFFFFFFFFFFFFFFFFFFFFF AND PUSH20 0xFFFFFFFFFFFFFFFFFFFFFFFFFFFFFFFFFFFFFFFF AND DUP2 MSTORE PUSH1 0x20 ADD SWAP1 DUP2 MSTORE PUSH1 0x20 ADD PUSH0 KECCAK256 PUSH0 PUSH2 0x100 EXP DUP2 SLOAD DUP2 PUSH1 0xFF MUL NOT AND SWAP1 DUP4 ISZERO ISZERO MUL OR SWAP1 SSTORE POP PUSH1 0x1 PUSH1 0x8 PUSH0 PUSH1 0xD PUSH0 SWAP1 SLOAD SWAP1 PUSH2 0x100 EXP SWAP1 DIV PUSH20 0xFFFFFFFFFFFFFFFFFFFFFFFFFFFFFFFFFFFFFFFF AND PUSH20 0xFFFFFFFFFFFFFFFFFFFFFFFFFFFFFFFFFFFFFFFF AND PUSH20 0xFFFFFFFFFFFFFFFFFFFFFFFFFFFFFFFFFFFFFFFF AND DUP2 MSTORE PUSH1 0x20 ADD SWAP1 DUP2 MSTORE PUSH1 0x20 ADD PUSH0 KECCAK256 PUSH0 PUSH2 0x100 EXP DUP2 SLOAD DUP2 PUSH1 0xFF MUL NOT AND SWAP1 DUP4 ISZERO ISZERO MUL OR SWAP1 SSTORE POP PUSH1 0x1 PUSH1 0x8 PUSH0 ADDRESS PUSH20 0xFFFFFFFFFFFFFFFFFFFFFFFFFFFFFFFFFFFFFFFF AND PUSH20 0xFFFFFFFFFFFFFFFFFFFFFFFFFFFFFFFFFFFFFFFF AND DUP2 MSTORE PUSH1 0x20 ADD SWAP1 DUP2 MSTORE PUSH1 0x20 ADD PUSH0 KECCAK256 PUSH0 PUSH2 0x100 EXP DUP2 SLOAD DUP2 PUSH1 0xFF MUL NOT AND SWAP1 DUP4 ISZERO ISZERO MUL OR SWAP1 SSTORE POP PUSH3 0x842 PUSH3 0x830 PUSH3 0x8BE PUSH1 0x20 SHL PUSH1 0x20 SHR JUMP JUMPDEST PUSH1 0xF SLOAD PUSH1 0xE SLOAD PUSH3 0x9B0 PUSH1 0x20 SHL PUSH1 0x20 SHR JUMP JUMPDEST DUP3 PUSH1 0x4 PUSH1 0x5 DUP2 LT PUSH3 0x859 JUMPI PUSH3 0x858 PUSH3 0x159E JUMP JUMPDEST JUMPDEST PUSH1 0x20 MUL ADD MLOAD PUSH20 0xFFFFFFFFFFFFFFFFFFFFFFFFFFFFFFFFFFFFFFFF AND PUSH2 0x8FC PUSH3 0x887 PUSH3 0xB19 PUSH1 0x20 SHL PUSH1 0x20 SHR JUMP JUMPDEST SWAP1 DUP2 ISZERO MUL SWAP1 PUSH1 0x40 MLOAD PUSH0 PUSH1 0x40 MLOAD DUP1 DUP4 SUB DUP2 DUP6 DUP9 DUP9 CALL SWAP4 POP POP POP POP ISZERO DUP1 ISZERO PUSH3 0x8B0 JUMPI RETURNDATASIZE PUSH0 DUP1 RETURNDATACOPY RETURNDATASIZE PUSH0 REVERT JUMPDEST POP POP POP POP POP POP POP POP PUSH3 0x1752 JUMP JUMPDEST PUSH0 CALLER SWAP1 POP SWAP1 JUMP JUMPDEST PUSH0 PUSH1 0x5 PUSH0 SWAP1 SLOAD SWAP1 PUSH2 0x100 EXP SWAP1 DIV PUSH20 0xFFFFFFFFFFFFFFFFFFFFFFFFFFFFFFFFFFFFFFFF AND SWAP1 POP DUP2 PUSH1 0x5 PUSH0 PUSH2 0x100 EXP DUP2 SLOAD DUP2 PUSH20 0xFFFFFFFFFFFFFFFFFFFFFFFFFFFFFFFFFFFFFFFF MUL NOT AND SWAP1 DUP4 PUSH20 0xFFFFFFFFFFFFFFFFFFFFFFFFFFFFFFFFFFFFFFFF AND MUL OR SWAP1 SSTORE POP DUP2 PUSH20 0xFFFFFFFFFFFFFFFFFFFFFFFFFFFFFFFFFFFFFFFF AND DUP2 PUSH20 0xFFFFFFFFFFFFFFFFFFFFFFFFFFFFFFFFFFFFFFFF AND PUSH32 0x8BE0079C531659141344CD1FD0A4F28419497F9722A3DAAFE3B4186F6B6457E0 PUSH1 0x40 MLOAD PUSH1 0x40 MLOAD DUP1 SWAP2 SUB SWAP1 LOG3 POP POP JUMP JUMPDEST PUSH0 PUSH1 0x5 PUSH0 SWAP1 SLOAD SWAP1 PUSH2 0x100 EXP SWAP1 DIV PUSH20 0xFFFFFFFFFFFFFFFFFFFFFFFFFFFFFFFFFFFFFFFF AND SWAP1 POP SWAP1 JUMP JUMPDEST PUSH0 PUSH20 0xFFFFFFFFFFFFFFFFFFFFFFFFFFFFFFFFFFFFFFFF AND DUP4 PUSH20 0xFFFFFFFFFFFFFFFFFFFFFFFFFFFFFFFFFFFFFFFF AND SUB PUSH3 0xA21 JUMPI PUSH1 0x40 MLOAD PUSH32 0x8C379A000000000000000000000000000000000000000000000000000000000 DUP2 MSTORE PUSH1 0x4 ADD PUSH3 0xA18 SWAP1 PUSH3 0x1706 JUMP JUMPDEST PUSH1 0x40 MLOAD DUP1 SWAP2 SUB SWAP1 REVERT JUMPDEST DUP2 PUSH1 0x6 PUSH0 DUP6 PUSH20 0xFFFFFFFFFFFFFFFFFFFFFFFFFFFFFFFFFFFFFFFF AND PUSH20 0xFFFFFFFFFFFFFFFFFFFFFFFFFFFFFFFFFFFFFFFF AND DUP2 MSTORE PUSH1 0x20 ADD SWAP1 DUP2 MSTORE PUSH1 0x20 ADD PUSH0 KECCAK256 SLOAD PUSH3 0xA6C SWAP2 SWAP1 PUSH3 0x15CB JUMP JUMPDEST PUSH1 0x6 PUSH0 DUP6 PUSH20 0xFFFFFFFFFFFFFFFFFFFFFFFFFFFFFFFFFFFFFFFF AND PUSH20 0xFFFFFFFFFFFFFFFFFFFFFFFFFFFFFFFFFFFFFFFF AND DUP2 MSTORE PUSH1 0x20 ADD SWAP1 DUP2 MSTORE PUSH1 0x20 ADD PUSH0 KECCAK256 DUP2 SWAP1 SSTORE POP DUP3 PUSH20 0xFFFFFFFFFFFFFFFFFFFFFFFFFFFFFFFFFFFFFFFF AND PUSH0 PUSH20 0xFFFFFFFFFFFFFFFFFFFFFFFFFFFFFFFFFFFFFFFF AND PUSH32 0xDDF252AD1BE2C89B69C2B068FC378DAA952BA7F163C4A11628F55A4DF523B3EF DUP4 PUSH1 0x40 MLOAD PUSH3 0xB0C SWAP2 SWAP1 PUSH3 0x1737 JUMP JUMPDEST PUSH1 0x40 MLOAD DUP1 SWAP2 SUB SWAP1 LOG3 POP POP POP JUMP JUMPDEST PUSH0 SELFBALANCE SWAP1 POP SWAP1 JUMP JUMPDEST PUSH0 PUSH1 0x40 MLOAD SWAP1 POP SWAP1 JUMP JUMPDEST PUSH0 DUP1 REVERT JUMPDEST PUSH0 DUP1 REVERT JUMPDEST PUSH0 DUP1 REVERT JUMPDEST PUSH0 DUP1 REVERT JUMPDEST PUSH0 PUSH1 0x1F NOT PUSH1 0x1F DUP4 ADD AND SWAP1 POP SWAP2 SWAP1 POP JUMP JUMPDEST PUSH32 0x4E487B7100000000000000000000000000000000000000000000000000000000 PUSH0 MSTORE PUSH1 0x41 PUSH1 0x4 MSTORE PUSH1 0x24 PUSH0 REVERT JUMPDEST PUSH3 0xB81 DUP3 PUSH3 0xB39 JUMP JUMPDEST DUP2 ADD DUP2 DUP2 LT PUSH8 0xFFFFFFFFFFFFFFFF DUP3 GT OR ISZERO PUSH3 0xBA3 JUMPI PUSH3 0xBA2 PUSH3 0xB49 JUMP JUMPDEST JUMPDEST DUP1 PUSH1 0x40 MSTORE POP POP POP JUMP JUMPDEST PUSH0 PUSH3 0xBB7 PUSH3 0xB20 JUMP JUMPDEST SWAP1 POP PUSH3 0xBC5 DUP3 DUP3 PUSH3 0xB76 JUMP JUMPDEST SWAP2 SWAP1 POP JUMP JUMPDEST PUSH0 PUSH8 0xFFFFFFFFFFFFFFFF DUP3 GT ISZERO PUSH3 0xBE7 JUMPI PUSH3 0xBE6 PUSH3 0xB49 JUMP JUMPDEST JUMPDEST PUSH3 0xBF2 DUP3 PUSH3 0xB39 JUMP JUMPDEST SWAP1 POP PUSH1 0x20 DUP2 ADD SWAP1 POP SWAP2 SWAP1 POP JUMP JUMPDEST PUSH0 JUMPDEST DUP4 DUP2 LT ISZERO PUSH3 0xC1E JUMPI DUP1 DUP3 ADD MLOAD DUP2 DUP5 ADD MSTORE PUSH1 0x20 DUP2 ADD SWAP1 POP PUSH3 0xC01 JUMP JUMPDEST PUSH0 DUP5 DUP5 ADD MSTORE POP POP POP POP JUMP JUMPDEST PUSH0 PUSH3 0xC3F PUSH3 0xC39 DUP5 PUSH3 0xBCA JUMP JUMPDEST PUSH3 0xBAC JUMP JUMPDEST SWAP1 POP DUP3 DUP2 MSTORE PUSH1 0x20 DUP2 ADD DUP5 DUP5 DUP5 ADD GT ISZERO PUSH3 0xC5E JUMPI PUSH3 0xC5D PUSH3 0xB35 JUMP JUMPDEST JUMPDEST PUSH3 0xC6B DUP5 DUP3 DUP6 PUSH3 0xBFF JUMP JUMPDEST POP SWAP4 SWAP3 POP POP POP JUMP JUMPDEST PUSH0 DUP3 PUSH1 0x1F DUP4 ADD SLT PUSH3 0xC8A JUMPI PUSH3 0xC89 PUSH3 0xB31 JUMP JUMPDEST JUMPDEST DUP2 MLOAD PUSH3 0xC9C DUP5 DUP3 PUSH1 0x20 DUP7 ADD PUSH3 0xC29 JUMP JUMPDEST SWAP2 POP POP SWAP3 SWAP2 POP POP JUMP JUMPDEST PUSH0 DUP2 SWAP1 POP SWAP2 SWAP1 POP JUMP JUMPDEST PUSH3 0xCB9 DUP2 PUSH3 0xCA5 JUMP JUMPDEST DUP2 EQ PUSH3 0xCC4 JUMPI PUSH0 DUP1 REVERT JUMPDEST POP JUMP JUMPDEST PUSH0 DUP2 MLOAD SWAP1 POP PUSH3 0xCD7 DUP2 PUSH3 0xCAE JUMP JUMPDEST SWAP3 SWAP2 POP POP JUMP JUMPDEST PUSH0 PUSH1 0xFF DUP3 AND SWAP1 POP SWAP2 SWAP1 POP JUMP JUMPDEST PUSH3 0xCF4 DUP2 PUSH3 0xCDD JUMP JUMPDEST DUP2 EQ PUSH3 0xCFF JUMPI PUSH0 DUP1 REVERT JUMPDEST POP JUMP JUMPDEST PUSH0 DUP2 MLOAD SWAP1 POP PUSH3 0xD12 DUP2 PUSH3 0xCE9 JUMP JUMPDEST SWAP3 SWAP2 POP POP JUMP JUMPDEST PUSH0 PUSH8 0xFFFFFFFFFFFFFFFF DUP3 GT ISZERO PUSH3 0xD35 JUMPI PUSH3 0xD34 PUSH3 0xB49 JUMP JUMPDEST JUMPDEST PUSH1 0x20 DUP3 MUL SWAP1 POP SWAP2 SWAP1 POP JUMP JUMPDEST PUSH0 DUP1 REVERT JUMPDEST PUSH0 PUSH20 0xFFFFFFFFFFFFFFFFFFFFFFFFFFFFFFFFFFFFFFFF DUP3 AND SWAP1 POP SWAP2 SWAP1 POP JUMP JUMPDEST PUSH0 PUSH3 0xD6F DUP3 PUSH3 0xD44 JUMP JUMPDEST SWAP1 POP SWAP2 SWAP1 POP JUMP JUMPDEST PUSH3 0xD81 DUP2 PUSH3 0xD63 JUMP JUMPDEST DUP2 EQ PUSH3 0xD8C JUMPI PUSH0 DUP1 REVERT JUMPDEST POP JUMP JUMPDEST PUSH0 DUP2 MLOAD SWAP1 POP PUSH3 0xD9F DUP2 PUSH3 0xD76 JUMP JUMPDEST SWAP3 SWAP2 POP POP JUMP JUMPDEST PUSH0 PUSH3 0xDBB PUSH3 0xDB5 DUP5 PUSH3 0xD18 JUMP JUMPDEST PUSH3 0xBAC JUMP JUMPDEST SWAP1 POP DUP1 PUSH1 0x20 DUP5 MUL DUP4 ADD DUP6 DUP2 GT ISZERO PUSH3 0xDD8 JUMPI PUSH3 0xDD7 PUSH3 0xD40 JUMP JUMPDEST JUMPDEST DUP4 JUMPDEST DUP2 DUP2 LT ISZERO PUSH3 0xE05 JUMPI DUP1 PUSH3 0xDF0 DUP9 DUP3 PUSH3 0xD8F JUMP JUMPDEST DUP5 MSTORE PUSH1 0x20 DUP5 ADD SWAP4 POP POP PUSH1 0x20 DUP2 ADD SWAP1 POP PUSH3 0xDDA JUMP JUMPDEST POP POP POP SWAP4 SWAP3 POP POP POP JUMP JUMPDEST PUSH0 DUP3 PUSH1 0x1F DUP4 ADD SLT PUSH3 0xE26 JUMPI PUSH3 0xE25 PUSH3 0xB31 JUMP JUMPDEST JUMPDEST PUSH1 0x5 PUSH3 0xE35 DUP5 DUP3 DUP6 PUSH3 0xDA5 JUMP JUMPDEST SWAP2 POP POP SWAP3 SWAP2 POP POP JUMP JUMPDEST PUSH0 PUSH8 0xFFFFFFFFFFFFFFFF DUP3 GT ISZERO PUSH3 0xE5B JUMPI PUSH3 0xE5A PUSH3 0xB49 JUMP JUMPDEST JUMPDEST PUSH1 0x20 DUP3 MUL SWAP1 POP SWAP2 SWAP1 POP JUMP JUMPDEST PUSH0 PUSH3 0xE7C PUSH3 0xE76 DUP5 PUSH3 0xE3E JUMP JUMPDEST PUSH3 0xBAC JUMP JUMPDEST SWAP1 POP DUP1 PUSH1 0x20 DUP5 MUL DUP4 ADD DUP6 DUP2 GT ISZERO PUSH3 0xE99 JUMPI PUSH3 0xE98 PUSH3 0xD40 JUMP JUMPDEST JUMPDEST DUP4 JUMPDEST DUP2 DUP2 LT ISZERO PUSH3 0xEC6 JUMPI DUP1 PUSH3 0xEB1 DUP9 DUP3 PUSH3 0xCC7 JUMP JUMPDEST DUP5 MSTORE PUSH1 0x20 DUP5 ADD SWAP4 POP POP PUSH1 0x20 DUP2 ADD SWAP1 POP PUSH3 0xE9B JUMP JUMPDEST POP POP POP SWAP4 SWAP3 POP POP POP JUMP JUMPDEST PUSH0 DUP3 PUSH1 0x1F DUP4 ADD SLT PUSH3 0xEE7 JUMPI PUSH3 0xEE6 PUSH3 0xB31 JUMP JUMPDEST JUMPDEST PUSH1 0x6 PUSH3 0xEF6 DUP5 DUP3 DUP6 PUSH3 0xE66 JUMP JUMPDEST SWAP2 POP POP SWAP3 SWAP2 POP POP JUMP JUMPDEST PUSH0 DUP1 PUSH0 DUP1 PUSH0 DUP1 PUSH2 0x1E0 DUP8 DUP10 SUB SLT ISZERO PUSH3 0xF1D JUMPI PUSH3 0xF1C PUSH3 0xB29 JUMP JUMPDEST JUMPDEST PUSH0 DUP8 ADD MLOAD PUSH8 0xFFFFFFFFFFFFFFFF DUP2 GT ISZERO PUSH3 0xF3D JUMPI PUSH3 0xF3C PUSH3 0xB2D JUMP JUMPDEST JUMPDEST PUSH3 0xF4B DUP10 DUP3 DUP11 ADD PUSH3 0xC73 JUMP JUMPDEST SWAP7 POP POP PUSH1 0x20 DUP8 ADD MLOAD PUSH8 0xFFFFFFFFFFFFFFFF DUP2 GT ISZERO PUSH3 0xF6F JUMPI PUSH3 0xF6E PUSH3 0xB2D JUMP JUMPDEST JUMPDEST PUSH3 0xF7D DUP10 DUP3 DUP11 ADD PUSH3 0xC73 JUMP JUMPDEST SWAP6 POP POP PUSH1 0x40 PUSH3 0xF90 DUP10 DUP3 DUP11 ADD PUSH3 0xCC7 JUMP JUMPDEST SWAP5 POP POP PUSH1 0x60 PUSH3 0xFA3 DUP10 DUP3 DUP11 ADD PUSH3 0xD02 JUMP JUMPDEST SWAP4 POP POP PUSH1 0x80 PUSH3 0xFB6 DUP10 DUP3 DUP11 ADD PUSH3 0xE0F JUMP JUMPDEST SWAP3 POP POP PUSH2 0x120 PUSH3 0xFCA DUP10 DUP3 DUP11 ADD PUSH3 0xED0 JUMP JUMPDEST SWAP2 POP POP SWAP3 SWAP6 POP SWAP3 SWAP6 POP SWAP3 SWAP6 JUMP JUMPDEST PUSH0 DUP2 MLOAD SWAP1 POP SWAP2 SWAP1 POP JUMP JUMPDEST PUSH32 0x4E487B7100000000000000000000000000000000000000000000000000000000 PUSH0 MSTORE PUSH1 0x22 PUSH1 0x4 MSTORE PUSH1 0x24 PUSH0 REVERT JUMPDEST PUSH0 PUSH1 0x2 DUP3 DIV SWAP1 POP PUSH1 0x1 DUP3 AND DUP1 PUSH3 0x1026 JUMPI PUSH1 0x7F DUP3 AND SWAP2 POP JUMPDEST PUSH1 0x20 DUP3 LT DUP2 SUB PUSH3 0x103C JUMPI PUSH3 0x103B PUSH3 0xFE1 JUMP JUMPDEST JUMPDEST POP SWAP2 SWAP1 POP JUMP JUMPDEST PUSH0 DUP2 SWAP1 POP DUP2 PUSH0 MSTORE PUSH1 0x20 PUSH0 KECCAK256 SWAP1 POP SWAP2 SWAP1 POP JUMP JUMPDEST PUSH0 PUSH1 0x20 PUSH1 0x1F DUP4 ADD DIV SWAP1 POP SWAP2 SWAP1 POP JUMP JUMPDEST PUSH0 DUP3 DUP3 SHL SWAP1 POP SWAP3 SWAP2 POP POP JUMP JUMPDEST PUSH0 PUSH1 0x8 DUP4 MUL PUSH3 0x10A0 PUSH32 0xFFFFFFFFFFFFFFFFFFFFFFFFFFFFFFFFFFFFFFFFFFFFFFFFFFFFFFFFFFFFFFFF DUP3 PUSH3 0x1063 JUMP JUMPDEST PUSH3 0x10AC DUP7 DUP4 PUSH3 0x1063 JUMP JUMPDEST SWAP6 POP DUP1 NOT DUP5 AND SWAP4 POP DUP1 DUP7 AND DUP5 OR SWAP3 POP POP POP SWAP4 SWAP3 POP POP POP JUMP JUMPDEST PUSH0 DUP2 SWAP1 POP SWAP2 SWAP1 POP JUMP JUMPDEST PUSH0 PUSH3 0x10ED PUSH3 0x10E7 PUSH3 0x10E1 DUP5 PUSH3 0xCA5 JUMP JUMPDEST PUSH3 0x10C4 JUMP JUMPDEST PUSH3 0xCA5 JUMP JUMPDEST SWAP1 POP SWAP2 SWAP1 POP JUMP JUMPDEST PUSH0 DUP2 SWAP1 POP SWAP2 SWAP1 POP JUMP JUMPDEST PUSH3 0x1108 DUP4 PUSH3 0x10CD JUMP JUMPDEST PUSH3 0x1120 PUSH3 0x1117 DUP3 PUSH3 0x10F4 JUMP JUMPDEST DUP5 DUP5 SLOAD PUSH3 0x106F JUMP JUMPDEST DUP3 SSTORE POP POP POP POP JUMP JUMPDEST PUSH0 SWAP1 JUMP JUMPDEST PUSH3 0x1136 PUSH3 0x1128 JUMP JUMPDEST PUSH3 0x1143 DUP2 DUP5 DUP5 PUSH3 0x10FD JUMP JUMPDEST POP POP POP JUMP JUMPDEST JUMPDEST DUP2 DUP2 LT ISZERO PUSH3 0x116A JUMPI PUSH3 0x115E PUSH0 DUP3 PUSH3 0x112C JUMP JUMPDEST PUSH1 0x1 DUP2 ADD SWAP1 POP PUSH3 0x1149 JUMP JUMPDEST POP POP JUMP JUMPDEST PUSH1 0x1F DUP3 GT ISZERO PUSH3 0x11B9 JUMPI PUSH3 0x1183 DUP2 PUSH3 0x1042 JUMP JUMPDEST PUSH3 0x118E DUP5 PUSH3 0x1054 JUMP JUMPDEST DUP2 ADD PUSH1 0x20 DUP6 LT ISZERO PUSH3 0x119E JUMPI DUP2 SWAP1 POP JUMPDEST PUSH3 0x11B6 PUSH3 0x11AD DUP6 PUSH3 0x1054 JUMP JUMPDEST DUP4 ADD DUP3 PUSH3 0x1148 JUMP JUMPDEST POP POP JUMPDEST POP POP POP JUMP JUMPDEST PUSH0 DUP3 DUP3 SHR SWAP1 POP SWAP3 SWAP2 POP POP JUMP JUMPDEST PUSH0 PUSH3 0x11DB PUSH0 NOT DUP5 PUSH1 0x8 MUL PUSH3 0x11BE JUMP JUMPDEST NOT DUP1 DUP4 AND SWAP2 POP POP SWAP3 SWAP2 POP POP JUMP JUMPDEST PUSH0 PUSH3 0x11F5 DUP4 DUP4 PUSH3 0x11CA JUMP JUMPDEST SWAP2 POP DUP3 PUSH1 0x2 MUL DUP3 OR SWAP1 POP SWAP3 SWAP2 POP POP JUMP JUMPDEST PUSH3 0x1210 DUP3 PUSH3 0xFD7 JUMP JUMPDEST PUSH8 0xFFFFFFFFFFFFFFFF DUP2 GT ISZERO PUSH3 0x122C JUMPI PUSH3 0x122B PUSH3 0xB49 JUMP JUMPDEST JUMPDEST PUSH3 0x1238 DUP3 SLOAD PUSH3 0x100E JUMP JUMPDEST PUSH3 0x1245 DUP3 DUP3 DUP6 PUSH3 0x116E JUMP JUMPDEST PUSH0 PUSH1 0x20 SWAP1 POP PUSH1 0x1F DUP4 GT PUSH1 0x1 DUP2 EQ PUSH3 0x127B JUMPI PUSH0 DUP5 ISZERO PUSH3 0x1266 JUMPI DUP3 DUP8 ADD MLOAD SWAP1 POP JUMPDEST PUSH3 0x1272 DUP6 DUP3 PUSH3 0x11E8 JUMP JUMPDEST DUP7 SSTORE POP PUSH3 0x12E1 JUMP JUMPDEST PUSH1 0x1F NOT DUP5 AND PUSH3 0x128B DUP7 PUSH3 0x1042 JUMP JUMPDEST PUSH0 JUMPDEST DUP3 DUP2 LT ISZERO PUSH3 0x12B4 JUMPI DUP5 DUP10 ADD MLOAD DUP3 SSTORE PUSH1 0x1 DUP3 ADD SWAP2 POP PUSH1 0x20 DUP6 ADD SWAP5 POP PUSH1 0x20 DUP2 ADD SWAP1 POP PUSH3 0x128D JUMP JUMPDEST DUP7 DUP4 LT ISZERO PUSH3 0x12D4 JUMPI DUP5 DUP10 ADD MLOAD PUSH3 0x12D0 PUSH1 0x1F DUP10 AND DUP3 PUSH3 0x11CA JUMP JUMPDEST DUP4 SSTORE POP JUMPDEST PUSH1 0x1 PUSH1 0x2 DUP9 MUL ADD DUP9 SSTORE POP POP POP JUMPDEST POP POP POP POP POP POP JUMP JUMPDEST PUSH32 0x4E487B7100000000000000000000000000000000000000000000000000000000 PUSH0 MSTORE PUSH1 0x11 PUSH1 0x4 MSTORE PUSH1 0x24 PUSH0 REVERT JUMPDEST PUSH0 DUP2 PUSH1 0x1 SHR SWAP1 POP SWAP2 SWAP1 POP JUMP JUMPDEST PUSH0 DUP1 DUP3 SWAP2 POP DUP4 SWAP1 POP JUMPDEST PUSH1 0x1 DUP6 GT ISZERO PUSH3 0x1373 JUMPI DUP1 DUP7 DIV DUP2 GT ISZERO PUSH3 0x134B JUMPI PUSH3 0x134A PUSH3 0x12E9 JUMP JUMPDEST JUMPDEST PUSH1 0x1 DUP6 AND ISZERO PUSH3 0x135B JUMPI DUP1 DUP3 MUL SWAP2 POP JUMPDEST DUP1 DUP2 MUL SWAP1 POP PUSH3 0x136B DUP6 PUSH3 0x1316 JUMP JUMPDEST SWAP5 POP PUSH3 0x132B JUMP JUMPDEST SWAP5 POP SWAP5 SWAP3 POP POP POP JUMP JUMPDEST PUSH0 DUP3 PUSH3 0x138D JUMPI PUSH1 0x1 SWAP1 POP PUSH3 0x145F JUMP JUMPDEST DUP2 PUSH3 0x139C JUMPI PUSH0 SWAP1 POP PUSH3 0x145F JUMP JUMPDEST DUP2 PUSH1 0x1 DUP2 EQ PUSH3 0x13B5 JUMPI PUSH1 0x2 DUP2 EQ PUSH3 0x13C0 JUMPI PUSH3 0x13F6 JUMP JUMPDEST PUSH1 0x1 SWAP2 POP POP PUSH3 0x145F JUMP JUMPDEST PUSH1 0xFF DUP5 GT ISZERO PUSH3 0x13D5 JUMPI PUSH3 0x13D4 PUSH3 0x12E9 JUMP JUMPDEST JUMPDEST DUP4 PUSH1 0x2 EXP SWAP2 POP DUP5 DUP3 GT ISZERO PUSH3 0x13EF JUMPI PUSH3 0x13EE PUSH3 0x12E9 JUMP JUMPDEST JUMPDEST POP PUSH3 0x145F JUMP JUMPDEST POP PUSH1 0x20 DUP4 LT PUSH2 0x133 DUP4 LT AND PUSH1 0x4E DUP5 LT PUSH1 0xB DUP5 LT AND OR ISZERO PUSH3 0x1430 JUMPI DUP3 DUP3 EXP SWAP1 POP DUP4 DUP2 GT ISZERO PUSH3 0x142A JUMPI PUSH3 0x1429 PUSH3 0x12E9 JUMP JUMPDEST JUMPDEST PUSH3 0x145F JUMP JUMPDEST PUSH3 0x143F DUP5 DUP5 DUP5 PUSH1 0x1 PUSH3 0x1322 JUMP JUMPDEST SWAP3 POP SWAP1 POP DUP2 DUP5 DIV DUP2 GT ISZERO PUSH3 0x1459 JUMPI PUSH3 0x1458 PUSH3 0x12E9 JUMP JUMPDEST JUMPDEST DUP2 DUP2 MUL SWAP1 POP JUMPDEST SWAP4 SWAP3 POP POP POP JUMP JUMPDEST PUSH0 PUSH3 0x1472 DUP3 PUSH3 0xCA5 JUMP JUMPDEST SWAP2 POP PUSH3 0x147F DUP4 PUSH3 0xCDD JUMP JUMPDEST SWAP3 POP PUSH3 0x14AE PUSH32 0xFFFFFFFFFFFFFFFFFFFFFFFFFFFFFFFFFFFFFFFFFFFFFFFFFFFFFFFFFFFFFFFF DUP5 DUP5 PUSH3 0x137C JUMP JUMPDEST SWAP1 POP SWAP3 SWAP2 POP POP JUMP JUMPDEST PUSH0 PUSH3 0x14C2 DUP3 PUSH3 0xCA5 JUMP JUMPDEST SWAP2 POP PUSH3 0x14CF DUP4 PUSH3 0xCA5 JUMP JUMPDEST SWAP3 POP DUP3 DUP3 MUL PUSH3 0x14DF DUP2 PUSH3 0xCA5 JUMP JUMPDEST SWAP2 POP DUP3 DUP3 DIV DUP5 EQ DUP4 ISZERO OR PUSH3 0x14F9 JUMPI PUSH3 0x14F8 PUSH3 0x12E9 JUMP JUMPDEST JUMPDEST POP SWAP3 SWAP2 POP POP JUMP JUMPDEST PUSH32 0x4E487B7100000000000000000000000000000000000000000000000000000000 PUSH0 MSTORE PUSH1 0x12 PUSH1 0x4 MSTORE PUSH1 0x24 PUSH0 REVERT JUMPDEST PUSH0 PUSH3 0x1539 DUP3 PUSH3 0xCA5 JUMP JUMPDEST SWAP2 POP PUSH3 0x1546 DUP4 PUSH3 0xCA5 JUMP JUMPDEST SWAP3 POP DUP3 PUSH3 0x1559 JUMPI PUSH3 0x1558 PUSH3 0x1500 JUMP JUMPDEST JUMPDEST DUP3 DUP3 MOD SWAP1 POP SWAP3 SWAP2 POP POP JUMP JUMPDEST PUSH0 PUSH3 0x1570 DUP3 PUSH3 0xCA5 JUMP JUMPDEST SWAP2 POP PUSH3 0x157D DUP4 PUSH3 0xCA5 JUMP JUMPDEST SWAP3 POP DUP3 DUP3 SUB SWAP1 POP DUP2 DUP2 GT ISZERO PUSH3 0x1598 JUMPI PUSH3 0x1597 PUSH3 0x12E9 JUMP JUMPDEST JUMPDEST SWAP3 SWAP2 POP POP JUMP JUMPDEST PUSH32 0x4E487B7100000000000000000000000000000000000000000000000000000000 PUSH0 MSTORE PUSH1 0x32 PUSH1 0x4 MSTORE PUSH1 0x24 PUSH0 REVERT JUMPDEST PUSH0 PUSH3 0x15D7 DUP3 PUSH3 0xCA5 JUMP JUMPDEST SWAP2 POP PUSH3 0x15E4 DUP4 PUSH3 0xCA5 JUMP JUMPDEST SWAP3 POP DUP3 DUP3 ADD SWAP1 POP DUP1 DUP3 GT ISZERO PUSH3 0x15FF JUMPI PUSH3 0x15FE PUSH3 0x12E9 JUMP JUMPDEST JUMPDEST SWAP3 SWAP2 POP POP JUMP JUMPDEST PUSH0 PUSH3 0x1611 DUP3 PUSH3 0xCA5 JUMP JUMPDEST SWAP2 POP PUSH3 0x161E DUP4 PUSH3 0xCA5 JUMP JUMPDEST SWAP3 POP DUP3 PUSH3 0x1631 JUMPI PUSH3 0x1630 PUSH3 0x1500 JUMP JUMPDEST JUMPDEST DUP3 DUP3 DIV SWAP1 POP SWAP3 SWAP2 POP POP JUMP JUMPDEST PUSH0 PUSH1 0x20 DUP3 DUP5 SUB SLT ISZERO PUSH3 0x1654 JUMPI PUSH3 0x1653 PUSH3 0xB29 JUMP JUMPDEST JUMPDEST PUSH0 PUSH3 0x1663 DUP5 DUP3 DUP6 ADD PUSH3 0xD8F JUMP JUMPDEST SWAP2 POP POP SWAP3 SWAP2 POP POP JUMP JUMPDEST PUSH3 0x1677 DUP2 PUSH3 0xD63 JUMP JUMPDEST DUP3 MSTORE POP POP JUMP JUMPDEST PUSH0 PUSH1 0x40 DUP3 ADD SWAP1 POP PUSH3 0x1692 PUSH0 DUP4 ADD DUP6 PUSH3 0x166C JUMP JUMPDEST PUSH3 0x16A1 PUSH1 0x20 DUP4 ADD DUP5 PUSH3 0x166C JUMP JUMPDEST SWAP4 SWAP3 POP POP POP JUMP JUMPDEST PUSH0 DUP3 DUP3 MSTORE PUSH1 0x20 DUP3 ADD SWAP1 POP SWAP3 SWAP2 POP POP JUMP JUMPDEST PUSH32 0x45524332303A206D696E7420746F20746865207A65726F206164647265737300 PUSH0 DUP3 ADD MSTORE POP JUMP JUMPDEST PUSH0 PUSH3 0x16EE PUSH1 0x1F DUP4 PUSH3 0x16A8 JUMP JUMPDEST SWAP2 POP PUSH3 0x16FB DUP3 PUSH3 0x16B8 JUMP JUMPDEST PUSH1 0x20 DUP3 ADD SWAP1 POP SWAP2 SWAP1 POP JUMP JUMPDEST PUSH0 PUSH1 0x20 DUP3 ADD SWAP1 POP DUP2 DUP2 SUB PUSH0 DUP4 ADD MSTORE PUSH3 0x171F DUP2 PUSH3 0x16E0 JUMP JUMPDEST SWAP1 POP SWAP2 SWAP1 POP JUMP JUMPDEST PUSH3 0x1731 DUP2 PUSH3 0xCA5 JUMP JUMPDEST DUP3 MSTORE POP POP JUMP JUMPDEST PUSH0 PUSH1 0x20 DUP3 ADD SWAP1 POP PUSH3 0x174C PUSH0 DUP4 ADD DUP5 PUSH3 0x1726 JUMP JUMPDEST SWAP3 SWAP2 POP POP JUMP JUMPDEST PUSH1 0x80 MLOAD PUSH1 0xA0 MLOAD PUSH1 0xC0 MLOAD PUSH2 0x56E5 PUSH3 0x17BC PUSH0 CODECOPY PUSH0 DUP2 DUP2 PUSH2 0x1570 ADD MSTORE PUSH2 0x2E24 ADD MSTORE PUSH0 DUP2 DUP2 PUSH2 0xFA3 ADD MSTORE DUP2 DUP2 PUSH2 0x3855 ADD MSTORE DUP2 DUP2 PUSH2 0x3934 ADD MSTORE DUP2 DUP2 PUSH2 0x395B ADD MSTORE DUP2 DUP2 PUSH2 0x3A72 ADD MSTORE DUP2 DUP2 PUSH2 0x3A99 ADD MSTORE DUP2 DUP2 PUSH2 0x3B99 ADD MSTORE PUSH2 0x3CC2 ADD MSTORE PUSH0 DUP2 DUP2 PUSH2 0x1191 ADD MSTORE PUSH2 0x3D01 ADD MSTORE PUSH2 0x56E5 PUSH0 RETURN INVALID PUSH1 0x80 PUSH1 0x40 MSTORE PUSH1 0x4 CALLDATASIZE LT PUSH2 0x353 JUMPI PUSH0 CALLDATALOAD PUSH1 0xE0 SHR DUP1 PUSH4 0x6C317232 GT PUSH2 0x1C5 JUMPI DUP1 PUSH4 0xAFCF2FC4 GT PUSH2 0xF6 JUMPI DUP1 PUSH4 0xE547BE69 GT PUSH2 0x94 JUMPI DUP1 PUSH4 0xEDC2FCFB GT PUSH2 0x6E JUMPI DUP1 PUSH4 0xEDC2FCFB EQ PUSH2 0xC3A JUMPI DUP1 PUSH4 0xF0F165AF EQ PUSH2 0xC62 JUMPI DUP1 PUSH4 0xF2FDE38B EQ PUSH2 0xC8A JUMPI DUP1 PUSH4 0xFDEB889F EQ PUSH2 0xCB2 JUMPI PUSH2 0x35A JUMP JUMPDEST DUP1 PUSH4 0xE547BE69 EQ PUSH2 0xBC2 JUMPI DUP1 PUSH4 0xEA2F0B37 EQ PUSH2 0xBEA JUMPI DUP1 PUSH4 0xEC28438A EQ PUSH2 0xC12 JUMPI PUSH2 0x35A JUMP JUMPDEST DUP1 PUSH4 0xCACCD7F7 GT PUSH2 0xD0 JUMPI DUP1 PUSH4 0xCACCD7F7 EQ PUSH2 0xAF8 JUMPI DUP1 PUSH4 0xCBA0E996 EQ PUSH2 0xB22 JUMPI DUP1 PUSH4 0xDCC345F2 EQ PUSH2 0xB5E JUMPI DUP1 PUSH4 0xDD62ED3E EQ PUSH2 0xB86 JUMPI PUSH2 0x35A JUMP JUMPDEST DUP1 PUSH4 0xAFCF2FC4 EQ PUSH2 0xA7C JUMPI DUP1 PUSH4 0xBDC653EF EQ PUSH2 0xAA6 JUMPI DUP1 PUSH4 0xC49B9A80 EQ PUSH2 0xAD0 JUMPI PUSH2 0x35A JUMP JUMPDEST DUP1 PUSH4 0x906E9DD0 GT PUSH2 0x163 JUMPI DUP1 PUSH4 0xA457C2D7 GT PUSH2 0x13D JUMPI DUP1 PUSH4 0xA457C2D7 EQ PUSH2 0x9B2 JUMPI DUP1 PUSH4 0xA5ECE941 EQ PUSH2 0x9EE JUMPI DUP1 PUSH4 0xA9059CBB EQ PUSH2 0xA18 JUMPI DUP1 PUSH4 0xA94C8DD2 EQ PUSH2 0xA54 JUMPI PUSH2 0x35A JUMP JUMPDEST DUP1 PUSH4 0x906E9DD0 EQ PUSH2 0x936 JUMPI DUP1 PUSH4 0x95D89B41 EQ PUSH2 0x95E JUMPI DUP1 PUSH4 0xA073D37F EQ PUSH2 0x988 JUMPI PUSH2 0x35A JUMP JUMPDEST DUP1 PUSH4 0x7D1DB4A5 GT PUSH2 0x19F JUMPI DUP1 PUSH4 0x7D1DB4A5 EQ PUSH2 0x890 JUMPI DUP1 PUSH4 0x82D2A4BB EQ PUSH2 0x8BA JUMPI DUP1 PUSH4 0x8A0623B4 EQ PUSH2 0x8E2 JUMPI DUP1 PUSH4 0x8DA5CB5B EQ PUSH2 0x90C JUMPI PUSH2 0x35A JUMP JUMPDEST DUP1 PUSH4 0x6C317232 EQ PUSH2 0x816 JUMPI DUP1 PUSH4 0x70A08231 EQ PUSH2 0x83E JUMPI DUP1 PUSH4 0x715018A6 EQ PUSH2 0x87A JUMPI PUSH2 0x35A JUMP JUMPDEST DUP1 PUSH4 0x32035504 GT PUSH2 0x29F JUMPI DUP1 PUSH4 0x48DE478E GT PUSH2 0x23D JUMPI DUP1 PUSH4 0x5342ACB4 GT PUSH2 0x217 JUMPI DUP1 PUSH4 0x5342ACB4 EQ PUSH2 0x760 JUMPI DUP1 PUSH4 0x6049876E EQ PUSH2 0x79C JUMPI DUP1 PUSH4 0x6053A0E3 EQ PUSH2 0x7C4 JUMPI DUP1 PUSH4 0x625E764C EQ PUSH2 0x7EE JUMPI PUSH2 0x35A JUMP JUMPDEST DUP1 PUSH4 0x48DE478E EQ PUSH2 0x6E2 JUMPI DUP1 PUSH4 0x49BD5A5E EQ PUSH2 0x70C JUMPI DUP1 PUSH4 0x4A74BB02 EQ PUSH2 0x736 JUMPI PUSH2 0x35A JUMP JUMPDEST DUP1 PUSH4 0x40F8007A GT PUSH2 0x279 JUMPI DUP1 PUSH4 0x40F8007A EQ PUSH2 0x62C JUMPI DUP1 PUSH4 0x437823EC EQ PUSH2 0x656 JUMPI DUP1 PUSH4 0x4549B039 EQ PUSH2 0x67E JUMPI DUP1 PUSH4 0x4567BFBA EQ PUSH2 0x6BA JUMPI PUSH2 0x35A JUMP JUMPDEST DUP1 PUSH4 0x32035504 EQ PUSH2 0x59C JUMPI DUP1 PUSH4 0x3206B4AA EQ PUSH2 0x5C6 JUMPI DUP1 PUSH4 0x39509351 EQ PUSH2 0x5F0 JUMPI PUSH2 0x35A JUMP JUMPDEST DUP1 PUSH4 0x19DE79AB GT PUSH2 0x30C JUMPI DUP1 PUSH4 0x23B872DD GT PUSH2 0x2E6 JUMPI DUP1 PUSH4 0x23B872DD EQ PUSH2 0x4E4 JUMPI DUP1 PUSH4 0x27C8F835 EQ PUSH2 0x520 JUMPI DUP1 PUSH4 0x29370CC6 EQ PUSH2 0x54A JUMPI DUP1 PUSH4 0x313CE567 EQ PUSH2 0x572 JUMPI PUSH2 0x35A JUMP JUMPDEST DUP1 PUSH4 0x19DE79AB EQ PUSH2 0x468 JUMPI DUP1 PUSH4 0x20C7C596 EQ PUSH2 0x492 JUMPI DUP1 PUSH4 0x22976E0D EQ PUSH2 0x4BA JUMPI PUSH2 0x35A JUMP JUMPDEST DUP1 PUSH4 0x53AB182 EQ PUSH2 0x35E JUMPI DUP1 PUSH4 0x6FDDE03 EQ PUSH2 0x386 JUMPI DUP1 PUSH4 0x95EA7B3 EQ PUSH2 0x3B0 JUMPI DUP1 PUSH4 0xC9BE46D EQ PUSH2 0x3EC JUMPI DUP1 PUSH4 0x1694505E EQ PUSH2 0x414 JUMPI DUP1 PUSH4 0x18160DDD EQ PUSH2 0x43E JUMPI PUSH2 0x35A JUMP JUMPDEST CALLDATASIZE PUSH2 0x35A JUMPI STOP JUMPDEST PUSH0 DUP1 REVERT JUMPDEST CALLVALUE DUP1 ISZERO PUSH2 0x369 JUMPI PUSH0 DUP1 REVERT JUMPDEST POP PUSH2 0x384 PUSH1 0x4 DUP1 CALLDATASIZE SUB DUP2 ADD SWAP1 PUSH2 0x37F SWAP2 SWAP1 PUSH2 0x453E JUMP JUMPDEST PUSH2 0xCDA JUMP JUMPDEST STOP JUMPDEST CALLVALUE DUP1 ISZERO PUSH2 0x391 JUMPI PUSH0 DUP1 REVERT JUMPDEST POP PUSH2 0x39A PUSH2 0xE35 JUMP JUMPDEST PUSH1 0x40 MLOAD PUSH2 0x3A7 SWAP2 SWAP1 PUSH2 0x45F3 JUMP JUMPDEST PUSH1 0x40 MLOAD DUP1 SWAP2 SUB SWAP1 RETURN JUMPDEST CALLVALUE DUP1 ISZERO PUSH2 0x3BB JUMPI PUSH0 DUP1 REVERT JUMPDEST POP PUSH2 0x3D6 PUSH1 0x4 DUP1 CALLDATASIZE SUB DUP2 ADD SWAP1 PUSH2 0x3D1 SWAP2 SWAP1 PUSH2 0x466D JUMP JUMPDEST PUSH2 0xEC5 JUMP JUMPDEST PUSH1 0x40 MLOAD PUSH2 0x3E3 SWAP2 SWAP1 PUSH2 0x46C5 JUMP JUMPDEST PUSH1 0x40 MLOAD DUP1 SWAP2 SUB SWAP1 RETURN JUMPDEST CALLVALUE DUP1 ISZERO PUSH2 0x3F7 JUMPI PUSH0 DUP1 REVERT JUMPDEST POP PUSH2 0x412 PUSH1 0x4 DUP1 CALLDATASIZE SUB DUP2 ADD SWAP1 PUSH2 0x40D SWAP2 SWAP1 PUSH2 0x46DE JUMP JUMPDEST PUSH2 0xEE2 JUMP JUMPDEST STOP JUMPDEST CALLVALUE DUP1 ISZERO PUSH2 0x41F JUMPI PUSH0 DUP1 REVERT JUMPDEST POP PUSH2 0x428 PUSH2 0xFA1 JUMP JUMPDEST PUSH1 0x40 MLOAD PUSH2 0x435 SWAP2 SWAP1 PUSH2 0x4764 JUMP JUMPDEST PUSH1 0x40 MLOAD DUP1 SWAP2 SUB SWAP1 RETURN JUMPDEST CALLVALUE DUP1 ISZERO PUSH2 0x449 JUMPI PUSH0 DUP1 REVERT JUMPDEST POP PUSH2 0x452 PUSH2 0xFC5 JUMP JUMPDEST PUSH1 0x40 MLOAD PUSH2 0x45F SWAP2 SWAP1 PUSH2 0x478C JUMP JUMPDEST PUSH1 0x40 MLOAD DUP1 SWAP2 SUB SWAP1 RETURN JUMPDEST CALLVALUE DUP1 ISZERO PUSH2 0x473 JUMPI PUSH0 DUP1 REVERT JUMPDEST POP PUSH2 0x47C PUSH2 0xFCE JUMP JUMPDEST PUSH1 0x40 MLOAD PUSH2 0x489 SWAP2 SWAP1 PUSH2 0x478C JUMP JUMPDEST PUSH1 0x40 MLOAD DUP1 SWAP2 SUB SWAP1 RETURN JUMPDEST CALLVALUE DUP1 ISZERO PUSH2 0x49D JUMPI PUSH0 DUP1 REVERT JUMPDEST POP PUSH2 0x4B8 PUSH1 0x4 DUP1 CALLDATASIZE SUB DUP2 ADD SWAP1 PUSH2 0x4B3 SWAP2 SWAP1 PUSH2 0x453E JUMP JUMPDEST PUSH2 0xFD4 JUMP JUMPDEST STOP JUMPDEST CALLVALUE DUP1 ISZERO PUSH2 0x4C5 JUMPI PUSH0 DUP1 REVERT JUMPDEST POP PUSH2 0x4CE PUSH2 0x1097 JUMP JUMPDEST PUSH1 0x40 MLOAD PUSH2 0x4DB SWAP2 SWAP1 PUSH2 0x478C JUMP JUMPDEST PUSH1 0x40 MLOAD DUP1 SWAP2 SUB SWAP1 RETURN JUMPDEST CALLVALUE DUP1 ISZERO PUSH2 0x4EF JUMPI PUSH0 DUP1 REVERT JUMPDEST POP PUSH2 0x50A PUSH1 0x4 DUP1 CALLDATASIZE SUB DUP2 ADD SWAP1 PUSH2 0x505 SWAP2 SWAP1 PUSH2 0x47A5 JUMP JUMPDEST PUSH2 0x109D JUMP JUMPDEST PUSH1 0x40 MLOAD PUSH2 0x517 SWAP2 SWAP1 PUSH2 0x46C5 JUMP JUMPDEST PUSH1 0x40 MLOAD DUP1 SWAP2 SUB SWAP1 RETURN JUMPDEST CALLVALUE DUP1 ISZERO PUSH2 0x52B JUMPI PUSH0 DUP1 REVERT JUMPDEST POP PUSH2 0x534 PUSH2 0x118F JUMP JUMPDEST PUSH1 0x40 MLOAD PUSH2 0x541 SWAP2 SWAP1 PUSH2 0x4804 JUMP JUMPDEST PUSH1 0x40 MLOAD DUP1 SWAP2 SUB SWAP1 RETURN JUMPDEST CALLVALUE DUP1 ISZERO PUSH2 0x555 JUMPI PUSH0 DUP1 REVERT JUMPDEST POP PUSH2 0x570 PUSH1 0x4 DUP1 CALLDATASIZE SUB DUP2 ADD SWAP1 PUSH2 0x56B SWAP2 SWAP1 PUSH2 0x4847 JUMP JUMPDEST PUSH2 0x11B3 JUMP JUMPDEST STOP JUMPDEST CALLVALUE DUP1 ISZERO PUSH2 0x57D JUMPI PUSH0 DUP1 REVERT JUMPDEST POP PUSH2 0x586 PUSH2 0x1283 JUMP JUMPDEST PUSH1 0x40 MLOAD PUSH2 0x593 SWAP2 SWAP1 PUSH2 0x488D JUMP JUMPDEST PUSH1 0x40 MLOAD DUP1 SWAP2 SUB SWAP1 RETURN JUMPDEST CALLVALUE DUP1 ISZERO PUSH2 0x5A7 JUMPI PUSH0 DUP1 REVERT JUMPDEST POP PUSH2 0x5B0 PUSH2 0x1298 JUMP JUMPDEST PUSH1 0x40 MLOAD PUSH2 0x5BD SWAP2 SWAP1 PUSH2 0x478C JUMP JUMPDEST PUSH1 0x40 MLOAD DUP1 SWAP2 SUB SWAP1 RETURN JUMPDEST CALLVALUE DUP1 ISZERO PUSH2 0x5D1 JUMPI PUSH0 DUP1 REVERT JUMPDEST POP PUSH2 0x5DA PUSH2 0x12A1 JUMP JUMPDEST PUSH1 0x40 MLOAD PUSH2 0x5E7 SWAP2 SWAP1 PUSH2 0x478C JUMP JUMPDEST PUSH1 0x40 MLOAD DUP1 SWAP2 SUB SWAP1 RETURN JUMPDEST CALLVALUE DUP1 ISZERO PUSH2 0x5FB JUMPI PUSH0 DUP1 REVERT JUMPDEST POP PUSH2 0x616 PUSH1 0x4 DUP1 CALLDATASIZE SUB DUP2 ADD SWAP1 PUSH2 0x611 SWAP2 SWAP1 PUSH2 0x466D JUMP JUMPDEST PUSH2 0x12A7 JUMP JUMPDEST PUSH1 0x40 MLOAD PUSH2 0x623 SWAP2 SWAP1 PUSH2 0x46C5 JUMP JUMPDEST PUSH1 0x40 MLOAD DUP1 SWAP2 SUB SWAP1 RETURN JUMPDEST CALLVALUE DUP1 ISZERO PUSH2 0x637 JUMPI PUSH0 DUP1 REVERT JUMPDEST POP PUSH2 0x640 PUSH2 0x134E JUMP JUMPDEST PUSH1 0x40 MLOAD PUSH2 0x64D SWAP2 SWAP1 PUSH2 0x478C JUMP JUMPDEST PUSH1 0x40 MLOAD DUP1 SWAP2 SUB SWAP1 RETURN JUMPDEST CALLVALUE DUP1 ISZERO PUSH2 0x661 JUMPI PUSH0 DUP1 REVERT JUMPDEST POP PUSH2 0x67C PUSH1 0x4 DUP1 CALLDATASIZE SUB DUP2 ADD SWAP1 PUSH2 0x677 SWAP2 SWAP1 PUSH2 0x46DE JUMP JUMPDEST PUSH2 0x1354 JUMP JUMPDEST STOP JUMPDEST CALLVALUE DUP1 ISZERO PUSH2 0x689 JUMPI PUSH0 DUP1 REVERT JUMPDEST POP PUSH2 0x6A4 PUSH1 0x4 DUP1 CALLDATASIZE SUB DUP2 ADD SWAP1 PUSH2 0x69F SWAP2 SWAP1 PUSH2 0x48A6 JUMP JUMPDEST PUSH2 0x1428 JUMP JUMPDEST PUSH1 0x40 MLOAD PUSH2 0x6B1 SWAP2 SWAP1 PUSH2 0x478C JUMP JUMPDEST PUSH1 0x40 MLOAD DUP1 SWAP2 SUB SWAP1 RETURN JUMPDEST CALLVALUE DUP1 ISZERO PUSH2 0x6C5 JUMPI PUSH0 DUP1 REVERT JUMPDEST POP PUSH2 0x6E0 PUSH1 0x4 DUP1 CALLDATASIZE SUB DUP2 ADD SWAP1 PUSH2 0x6DB SWAP2 SWAP1 PUSH2 0x453E JUMP JUMPDEST PUSH2 0x14A5 JUMP JUMPDEST STOP JUMPDEST CALLVALUE DUP1 ISZERO PUSH2 0x6ED JUMPI PUSH0 DUP1 REVERT JUMPDEST POP PUSH2 0x6F6 PUSH2 0x1568 JUMP JUMPDEST PUSH1 0x40 MLOAD PUSH2 0x703 SWAP2 SWAP1 PUSH2 0x478C JUMP JUMPDEST PUSH1 0x40 MLOAD DUP1 SWAP2 SUB SWAP1 RETURN JUMPDEST CALLVALUE DUP1 ISZERO PUSH2 0x717 JUMPI PUSH0 DUP1 REVERT JUMPDEST POP PUSH2 0x720 PUSH2 0x156E JUMP JUMPDEST PUSH1 0x40 MLOAD PUSH2 0x72D SWAP2 SWAP1 PUSH2 0x4804 JUMP JUMPDEST PUSH1 0x40 MLOAD DUP1 SWAP2 SUB SWAP1 RETURN JUMPDEST CALLVALUE DUP1 ISZERO PUSH2 0x741 JUMPI PUSH0 DUP1 REVERT JUMPDEST POP PUSH2 0x74A PUSH2 0x1592 JUMP JUMPDEST PUSH1 0x40 MLOAD PUSH2 0x757 SWAP2 SWAP1 PUSH2 0x46C5 JUMP JUMPDEST PUSH1 0x40 MLOAD DUP1 SWAP2 SUB SWAP1 RETURN JUMPDEST CALLVALUE DUP1 ISZERO PUSH2 0x76B JUMPI PUSH0 DUP1 REVERT JUMPDEST POP PUSH2 0x786 PUSH1 0x4 DUP1 CALLDATASIZE SUB DUP2 ADD SWAP1 PUSH2 0x781 SWAP2 SWAP1 PUSH2 0x46DE JUMP JUMPDEST PUSH2 0x15A5 JUMP JUMPDEST PUSH1 0x40 MLOAD PUSH2 0x793 SWAP2 SWAP1 PUSH2 0x46C5 JUMP JUMPDEST PUSH1 0x40 MLOAD DUP1 SWAP2 SUB SWAP1 RETURN JUMPDEST CALLVALUE DUP1 ISZERO PUSH2 0x7A7 JUMPI PUSH0 DUP1 REVERT JUMPDEST POP PUSH2 0x7C2 PUSH1 0x4 DUP1 CALLDATASIZE SUB DUP2 ADD SWAP1 PUSH2 0x7BD SWAP2 SWAP1 PUSH2 0x46DE JUMP JUMPDEST PUSH2 0x15F7 JUMP JUMPDEST STOP JUMPDEST CALLVALUE DUP1 ISZERO PUSH2 0x7CF JUMPI PUSH0 DUP1 REVERT JUMPDEST POP PUSH2 0x7D8 PUSH2 0x1882 JUMP JUMPDEST PUSH1 0x40 MLOAD PUSH2 0x7E5 SWAP2 SWAP1 PUSH2 0x46C5 JUMP JUMPDEST PUSH1 0x40 MLOAD DUP1 SWAP2 SUB SWAP1 RETURN JUMPDEST CALLVALUE DUP1 ISZERO PUSH2 0x7F9 JUMPI PUSH0 DUP1 REVERT JUMPDEST POP PUSH2 0x814 PUSH1 0x4 DUP1 CALLDATASIZE SUB DUP2 ADD SWAP1 PUSH2 0x80F SWAP2 SWAP1 PUSH2 0x453E JUMP JUMPDEST PUSH2 0x1895 JUMP JUMPDEST STOP JUMPDEST CALLVALUE DUP1 ISZERO PUSH2 0x821 JUMPI PUSH0 DUP1 REVERT JUMPDEST POP PUSH2 0x83C PUSH1 0x4 DUP1 CALLDATASIZE SUB DUP2 ADD SWAP1 PUSH2 0x837 SWAP2 SWAP1 PUSH2 0x453E JUMP JUMPDEST PUSH2 0x1958 JUMP JUMPDEST STOP JUMPDEST CALLVALUE DUP1 ISZERO PUSH2 0x849 JUMPI PUSH0 DUP1 REVERT JUMPDEST POP PUSH2 0x864 PUSH1 0x4 DUP1 CALLDATASIZE SUB DUP2 ADD SWAP1 PUSH2 0x85F SWAP2 SWAP1 PUSH2 0x46DE JUMP JUMPDEST PUSH2 0x1A1B JUMP JUMPDEST PUSH1 0x40 MLOAD PUSH2 0x871 SWAP2 SWAP1 PUSH2 0x478C JUMP JUMPDEST PUSH1 0x40 MLOAD DUP1 SWAP2 SUB SWAP1 RETURN JUMPDEST CALLVALUE DUP1 ISZERO PUSH2 0x885 JUMPI PUSH0 DUP1 REVERT JUMPDEST POP PUSH2 0x88E PUSH2 0x1AFE JUMP JUMPDEST STOP JUMPDEST CALLVALUE DUP1 ISZERO PUSH2 0x89B JUMPI PUSH0 DUP1 REVERT JUMPDEST POP PUSH2 0x8A4 PUSH2 0x1B85 JUMP JUMPDEST PUSH1 0x40 MLOAD PUSH2 0x8B1 SWAP2 SWAP1 PUSH2 0x478C JUMP JUMPDEST PUSH1 0x40 MLOAD DUP1 SWAP2 SUB SWAP1 RETURN JUMPDEST CALLVALUE DUP1 ISZERO PUSH2 0x8C5 JUMPI PUSH0 DUP1 REVERT JUMPDEST POP PUSH2 0x8E0 PUSH1 0x4 DUP1 CALLDATASIZE SUB DUP2 ADD SWAP1 PUSH2 0x8DB SWAP2 SWAP1 PUSH2 0x453E JUMP JUMPDEST PUSH2 0x1B8B JUMP JUMPDEST STOP JUMPDEST CALLVALUE DUP1 ISZERO PUSH2 0x8ED JUMPI PUSH0 DUP1 REVERT JUMPDEST POP PUSH2 0x8F6 PUSH2 0x1C11 JUMP JUMPDEST PUSH1 0x40 MLOAD PUSH2 0x903 SWAP2 SWAP1 PUSH2 0x478C JUMP JUMPDEST PUSH1 0x40 MLOAD DUP1 SWAP2 SUB SWAP1 RETURN JUMPDEST CALLVALUE DUP1 ISZERO PUSH2 0x917 JUMPI PUSH0 DUP1 REVERT JUMPDEST POP PUSH2 0x920 PUSH2 0x1C17 JUMP JUMPDEST PUSH1 0x40 MLOAD PUSH2 0x92D SWAP2 SWAP1 PUSH2 0x4804 JUMP JUMPDEST PUSH1 0x40 MLOAD DUP1 SWAP2 SUB SWAP1 RETURN JUMPDEST CALLVALUE DUP1 ISZERO PUSH2 0x941 JUMPI PUSH0 DUP1 REVERT JUMPDEST POP PUSH2 0x95C PUSH1 0x4 DUP1 CALLDATASIZE SUB DUP2 ADD SWAP1 PUSH2 0x957 SWAP2 SWAP1 PUSH2 0x46DE JUMP JUMPDEST PUSH2 0x1C3F JUMP JUMPDEST STOP JUMPDEST CALLVALUE DUP1 ISZERO PUSH2 0x969 JUMPI PUSH0 DUP1 REVERT JUMPDEST POP PUSH2 0x972 PUSH2 0x1CFF JUMP JUMPDEST PUSH1 0x40 MLOAD PUSH2 0x97F SWAP2 SWAP1 PUSH2 0x45F3 JUMP JUMPDEST PUSH1 0x40 MLOAD DUP1 SWAP2 SUB SWAP1 RETURN JUMPDEST CALLVALUE DUP1 ISZERO PUSH2 0x993 JUMPI PUSH0 DUP1 REVERT JUMPDEST POP PUSH2 0x99C PUSH2 0x1D8F JUMP JUMPDEST PUSH1 0x40 MLOAD PUSH2 0x9A9 SWAP2 SWAP1 PUSH2 0x478C JUMP JUMPDEST PUSH1 0x40 MLOAD DUP1 SWAP2 SUB SWAP1 RETURN JUMPDEST CALLVALUE DUP1 ISZERO PUSH2 0x9BD JUMPI PUSH0 DUP1 REVERT JUMPDEST POP PUSH2 0x9D8 PUSH1 0x4 DUP1 CALLDATASIZE SUB DUP2 ADD SWAP1 PUSH2 0x9D3 SWAP2 SWAP1 PUSH2 0x466D JUMP JUMPDEST PUSH2 0x1D98 JUMP JUMPDEST PUSH1 0x40 MLOAD PUSH2 0x9E5 SWAP2 SWAP1 PUSH2 0x46C5 JUMP JUMPDEST PUSH1 0x40 MLOAD DUP1 SWAP2 SUB SWAP1 RETURN JUMPDEST CALLVALUE DUP1 ISZERO PUSH2 0x9F9 JUMPI PUSH0 DUP1 REVERT JUMPDEST POP PUSH2 0xA02 PUSH2 0x1E7E JUMP JUMPDEST PUSH1 0x40 MLOAD PUSH2 0xA0F SWAP2 SWAP1 PUSH2 0x4904 JUMP JUMPDEST PUSH1 0x40 MLOAD DUP1 SWAP2 SUB SWAP1 RETURN JUMPDEST CALLVALUE DUP1 ISZERO PUSH2 0xA23 JUMPI PUSH0 DUP1 REVERT JUMPDEST POP PUSH2 0xA3E PUSH1 0x4 DUP1 CALLDATASIZE SUB DUP2 ADD SWAP1 PUSH2 0xA39 SWAP2 SWAP1 PUSH2 0x466D JUMP JUMPDEST PUSH2 0x1EA4 JUMP JUMPDEST PUSH1 0x40 MLOAD PUSH2 0xA4B SWAP2 SWAP1 PUSH2 0x46C5 JUMP JUMPDEST PUSH1 0x40 MLOAD DUP1 SWAP2 SUB SWAP1 RETURN JUMPDEST CALLVALUE DUP1 ISZERO PUSH2 0xA5F JUMPI PUSH0 DUP1 REVERT JUMPDEST POP PUSH2 0xA7A PUSH1 0x4 DUP1 CALLDATASIZE SUB DUP2 ADD SWAP1 PUSH2 0xA75 SWAP2 SWAP1 PUSH2 0x453E JUMP JUMPDEST PUSH2 0x1EC1 JUMP JUMPDEST STOP JUMPDEST CALLVALUE DUP1 ISZERO PUSH2 0xA87 JUMPI PUSH0 DUP1 REVERT JUMPDEST POP PUSH2 0xA90 PUSH2 0x1F84 JUMP JUMPDEST PUSH1 0x40 MLOAD PUSH2 0xA9D SWAP2 SWAP1 PUSH2 0x4904 JUMP JUMPDEST PUSH1 0x40 MLOAD DUP1 SWAP2 SUB SWAP1 RETURN JUMPDEST CALLVALUE DUP1 ISZERO PUSH2 0xAB1 JUMPI PUSH0 DUP1 REVERT JUMPDEST POP PUSH2 0xABA PUSH2 0x1FA9 JUMP JUMPDEST PUSH1 0x40 MLOAD PUSH2 0xAC7 SWAP2 SWAP1 PUSH2 0x478C JUMP JUMPDEST PUSH1 0x40 MLOAD DUP1 SWAP2 SUB SWAP1 RETURN JUMPDEST CALLVALUE DUP1 ISZERO PUSH2 0xADB JUMPI PUSH0 DUP1 REVERT JUMPDEST POP PUSH2 0xAF6 PUSH1 0x4 DUP1 CALLDATASIZE SUB DUP2 ADD SWAP1 PUSH2 0xAF1 SWAP2 SWAP1 PUSH2 0x4847 JUMP JUMPDEST PUSH2 0x1FB2 JUMP JUMPDEST STOP JUMPDEST CALLVALUE DUP1 ISZERO PUSH2 0xB03 JUMPI PUSH0 DUP1 REVERT JUMPDEST POP PUSH2 0xB0C PUSH2 0x2082 JUMP JUMPDEST PUSH1 0x40 MLOAD PUSH2 0xB19 SWAP2 SWAP1 PUSH2 0x4904 JUMP JUMPDEST PUSH1 0x40 MLOAD DUP1 SWAP2 SUB SWAP1 RETURN JUMPDEST CALLVALUE DUP1 ISZERO PUSH2 0xB2D JUMPI PUSH0 DUP1 REVERT JUMPDEST POP PUSH2 0xB48 PUSH1 0x4 DUP1 CALLDATASIZE SUB DUP2 ADD SWAP1 PUSH2 0xB43 SWAP2 SWAP1 PUSH2 0x46DE JUMP JUMPDEST PUSH2 0x20A7 JUMP JUMPDEST PUSH1 0x40 MLOAD PUSH2 0xB55 SWAP2 SWAP1 PUSH2 0x46C5 JUMP JUMPDEST PUSH1 0x40 MLOAD DUP1 SWAP2 SUB SWAP1 RETURN JUMPDEST CALLVALUE DUP1 ISZERO PUSH2 0xB69 JUMPI PUSH0 DUP1 REVERT JUMPDEST POP PUSH2 0xB84 PUSH1 0x4 DUP1 CALLDATASIZE SUB DUP2 ADD SWAP1 PUSH2 0xB7F SWAP2 SWAP1 PUSH2 0x46DE JUMP JUMPDEST PUSH2 0x20F9 JUMP JUMPDEST STOP JUMPDEST CALLVALUE DUP1 ISZERO PUSH2 0xB91 JUMPI PUSH0 DUP1 REVERT JUMPDEST POP PUSH2 0xBAC PUSH1 0x4 DUP1 CALLDATASIZE SUB DUP2 ADD SWAP1 PUSH2 0xBA7 SWAP2 SWAP1 PUSH2 0x491D JUMP JUMPDEST PUSH2 0x21B8 JUMP JUMPDEST PUSH1 0x40 MLOAD PUSH2 0xBB9 SWAP2 SWAP1 PUSH2 0x478C JUMP JUMPDEST PUSH1 0x40 MLOAD DUP1 SWAP2 SUB SWAP1 RETURN JUMPDEST CALLVALUE DUP1 ISZERO PUSH2 0xBCD JUMPI PUSH0 DUP1 REVERT JUMPDEST POP PUSH2 0xBE8 PUSH1 0x4 DUP1 CALLDATASIZE SUB DUP2 ADD SWAP1 PUSH2 0xBE3 SWAP2 SWAP1 PUSH2 0x453E JUMP JUMPDEST PUSH2 0x223A JUMP JUMPDEST STOP JUMPDEST CALLVALUE DUP1 ISZERO PUSH2 0xBF5 JUMPI PUSH0 DUP1 REVERT JUMPDEST POP PUSH2 0xC10 PUSH1 0x4 DUP1 CALLDATASIZE SUB DUP2 ADD SWAP1 PUSH2 0xC0B SWAP2 SWAP1 PUSH2 0x46DE JUMP JUMPDEST PUSH2 0x22C0 JUMP JUMPDEST STOP JUMPDEST CALLVALUE DUP1 ISZERO PUSH2 0xC1D JUMPI PUSH0 DUP1 REVERT JUMPDEST POP PUSH2 0xC38 PUSH1 0x4 DUP1 CALLDATASIZE SUB DUP2 ADD SWAP1 PUSH2 0xC33 SWAP2 SWAP1 PUSH2 0x453E JUMP JUMPDEST PUSH2 0x2393 JUMP JUMPDEST STOP JUMPDEST CALLVALUE DUP1 ISZERO PUSH2 0xC45 JUMPI PUSH0 DUP1 REVERT JUMPDEST POP PUSH2 0xC60 PUSH1 0x4 DUP1 CALLDATASIZE SUB DUP2 ADD SWAP1 PUSH2 0xC5B SWAP2 SWAP1 PUSH2 0x4847 JUMP JUMPDEST PUSH2 0x2419 JUMP JUMPDEST STOP JUMPDEST CALLVALUE DUP1 ISZERO PUSH2 0xC6D JUMPI PUSH0 DUP1 REVERT JUMPDEST POP PUSH2 0xC88 PUSH1 0x4 DUP1 CALLDATASIZE SUB DUP2 ADD SWAP1 PUSH2 0xC83 SWAP2 SWAP1 PUSH2 0x453E JUMP JUMPDEST PUSH2 0x24E7 JUMP JUMPDEST STOP JUMPDEST CALLVALUE DUP1 ISZERO PUSH2 0xC95 JUMPI PUSH0 DUP1 REVERT JUMPDEST POP PUSH2 0xCB0 PUSH1 0x4 DUP1 CALLDATASIZE SUB DUP2 ADD SWAP1 PUSH2 0xCAB SWAP2 SWAP1 PUSH2 0x46DE JUMP JUMPDEST PUSH2 0x256D JUMP JUMPDEST STOP JUMPDEST CALLVALUE DUP1 ISZERO PUSH2 0xCBD JUMPI PUSH0 DUP1 REVERT JUMPDEST POP PUSH2 0xCD8 PUSH1 0x4 DUP1 CALLDATASIZE SUB DUP2 ADD SWAP1 PUSH2 0xCD3 SWAP2 SWAP1 PUSH2 0x46DE JUMP JUMPDEST PUSH2 0x2663 JUMP JUMPDEST STOP JUMPDEST PUSH0 PUSH2 0xCE3 PUSH2 0x297B JUMP JUMPDEST SWAP1 POP PUSH1 0x9 PUSH0 DUP3 PUSH20 0xFFFFFFFFFFFFFFFFFFFFFFFFFFFFFFFFFFFFFFFF AND PUSH20 0xFFFFFFFFFFFFFFFFFFFFFFFFFFFFFFFFFFFFFFFF AND DUP2 MSTORE PUSH1 0x20 ADD SWAP1 DUP2 MSTORE PUSH1 0x20 ADD PUSH0 KECCAK256 PUSH0 SWAP1 SLOAD SWAP1 PUSH2 0x100 EXP SWAP1 DIV PUSH1 0xFF AND ISZERO PUSH2 0xD6F JUMPI PUSH1 0x40 MLOAD PUSH32 0x8C379A000000000000000000000000000000000000000000000000000000000 DUP2 MSTORE PUSH1 0x4 ADD PUSH2 0xD66 SWAP1 PUSH2 0x49CB JUMP JUMPDEST PUSH1 0x40 MLOAD DUP1 SWAP2 SUB SWAP1 REVERT JUMPDEST PUSH0 PUSH2 0xD79 DUP4 PUSH2 0x2982 JUMP JUMPDEST POP POP POP SWAP1 POP DUP1 PUSH1 0x6 PUSH0 DUP5 PUSH20 0xFFFFFFFFFFFFFFFFFFFFFFFFFFFFFFFFFFFFFFFF AND PUSH20 0xFFFFFFFFFFFFFFFFFFFFFFFFFFFFFFFFFFFFFFFF AND DUP2 MSTORE PUSH1 0x20 ADD SWAP1 DUP2 MSTORE PUSH1 0x20 ADD PUSH0 KECCAK256 SLOAD PUSH2 0xDC7 SWAP2 SWAP1 PUSH2 0x4A16 JUMP JUMPDEST PUSH1 0x6 PUSH0 DUP5 PUSH20 0xFFFFFFFFFFFFFFFFFFFFFFFFFFFFFFFFFFFFFFFF AND PUSH20 0xFFFFFFFFFFFFFFFFFFFFFFFFFFFFFFFFFFFFFFFF AND DUP2 MSTORE PUSH1 0x20 ADD SWAP1 DUP2 MSTORE PUSH1 0x20 ADD PUSH0 KECCAK256 DUP2 SWAP1 SSTORE POP DUP1 PUSH1 0xF SLOAD PUSH2 0xE16 SWAP2 SWAP1 PUSH2 0x4A16 JUMP JUMPDEST PUSH1 0xF DUP2 SWAP1 SSTORE POP DUP3 PUSH1 0x10 SLOAD PUSH2 0xE2A SWAP2 SWAP1 PUSH2 0x4A49 JUMP JUMPDEST PUSH1 0x10 DUP2 SWAP1 SSTORE POP POP POP POP JUMP JUMPDEST PUSH1 0x60 PUSH1 0x3 DUP1 SLOAD PUSH2 0xE44 SWAP1 PUSH2 0x4AA9 JUMP JUMPDEST DUP1 PUSH1 0x1F ADD PUSH1 0x20 DUP1 SWAP2 DIV MUL PUSH1 0x20 ADD PUSH1 0x40 MLOAD SWAP1 DUP2 ADD PUSH1 0x40 MSTORE DUP1 SWAP3 SWAP2 SWAP1 DUP2 DUP2 MSTORE PUSH1 0x20 ADD DUP3 DUP1 SLOAD PUSH2 0xE70 SWAP1 PUSH2 0x4AA9 JUMP JUMPDEST DUP1 ISZERO PUSH2 0xEBB JUMPI DUP1 PUSH1 0x1F LT PUSH2 0xE92 JUMPI PUSH2 0x100 DUP1 DUP4 SLOAD DIV MUL DUP4 MSTORE SWAP2 PUSH1 0x20 ADD SWAP2 PUSH2 0xEBB JUMP JUMPDEST DUP3 ADD SWAP2 SWAP1 PUSH0 MSTORE PUSH1 0x20 PUSH0 KECCAK256 SWAP1 JUMPDEST DUP2 SLOAD DUP2 MSTORE SWAP1 PUSH1 0x1 ADD SWAP1 PUSH1 0x20 ADD DUP1 DUP4 GT PUSH2 0xE9E JUMPI DUP3 SWAP1 SUB PUSH1 0x1F AND DUP3 ADD SWAP2 JUMPDEST POP POP POP POP POP SWAP1 POP SWAP1 JUMP JUMPDEST PUSH0 PUSH2 0xED8 PUSH2 0xED1 PUSH2 0x297B JUMP JUMPDEST DUP5 DUP5 PUSH2 0x29E2 JUMP JUMPDEST PUSH1 0x1 SWAP1 POP SWAP3 SWAP2 POP POP JUMP JUMPDEST PUSH2 0xEEA PUSH2 0x297B JUMP JUMPDEST PUSH20 0xFFFFFFFFFFFFFFFFFFFFFFFFFFFFFFFFFFFFFFFF AND PUSH2 0xF08 PUSH2 0x1C17 JUMP JUMPDEST PUSH20 0xFFFFFFFFFFFFFFFFFFFFFFFFFFFFFFFFFFFFFFFF AND EQ PUSH2 0xF5E JUMPI PUSH1 0x40 MLOAD PUSH32 0x8C379A000000000000000000000000000000000000000000000000000000000 DUP2 MSTORE PUSH1 0x4 ADD PUSH2 0xF55 SWAP1 PUSH2 0x4B23 JUMP JUMPDEST PUSH1 0x40 MLOAD DUP1 SWAP2 SUB SWAP1 REVERT JUMPDEST DUP1 PUSH1 0xD PUSH0 PUSH2 0x100 EXP DUP2 SLOAD DUP2 PUSH20 0xFFFFFFFFFFFFFFFFFFFFFFFFFFFFFFFFFFFFFFFF MUL NOT AND SWAP1 DUP4 PUSH20 0xFFFFFFFFFFFFFFFFFFFFFFFFFFFFFFFFFFFFFFFF AND MUL OR SWAP1 SSTORE POP POP JUMP JUMPDEST PUSH32 0x0 DUP2 JUMP JUMPDEST PUSH0 PUSH1 0xE SLOAD SWAP1 POP SWAP1 JUMP JUMPDEST PUSH1 0x17 SLOAD DUP2 JUMP JUMPDEST PUSH2 0xFDC PUSH2 0x297B JUMP JUMPDEST PUSH20 0xFFFFFFFFFFFFFFFFFFFFFFFFFFFFFFFFFFFFFFFF AND PUSH2 0xFFA PUSH2 0x1C17 JUMP JUMPDEST PUSH20 0xFFFFFFFFFFFFFFFFFFFFFFFFFFFFFFFFFFFFFFFF AND EQ PUSH2 0x1050 JUMPI PUSH1 0x40 MLOAD PUSH32 0x8C379A000000000000000000000000000000000000000000000000000000000 DUP2 MSTORE PUSH1 0x4 ADD PUSH2 0x1047 SWAP1 PUSH2 0x4B23 JUMP JUMPDEST PUSH1 0x40 MLOAD DUP1 SWAP2 SUB SWAP1 REVERT JUMPDEST DUP1 PUSH1 0x1D DUP2 SWAP1 SSTORE POP PUSH1 0x1D SLOAD PUSH1 0x1B SLOAD PUSH1 0x19 SLOAD PUSH1 0x15 SLOAD PUSH1 0x17 SLOAD PUSH2 0x1070 SWAP2 SWAP1 PUSH2 0x4A49 JUMP JUMPDEST PUSH2 0x107A SWAP2 SWAP1 PUSH2 0x4A49 JUMP JUMPDEST PUSH2 0x1084 SWAP2 SWAP1 PUSH2 0x4A49 JUMP JUMPDEST PUSH2 0x108E SWAP2 SWAP1 PUSH2 0x4A49 JUMP JUMPDEST PUSH1 0x13 DUP2 SWAP1 SSTORE POP POP JUMP JUMPDEST PUSH1 0x19 SLOAD DUP2 JUMP JUMPDEST PUSH0 PUSH2 0x10A9 DUP5 DUP5 DUP5 PUSH2 0x2BA5 JUMP JUMPDEST PUSH0 PUSH1 0x1 PUSH0 DUP7 PUSH20 0xFFFFFFFFFFFFFFFFFFFFFFFFFFFFFFFFFFFFFFFF AND PUSH20 0xFFFFFFFFFFFFFFFFFFFFFFFFFFFFFFFFFFFFFFFF AND DUP2 MSTORE PUSH1 0x20 ADD SWAP1 DUP2 MSTORE PUSH1 0x20 ADD PUSH0 KECCAK256 PUSH0 PUSH2 0x10F0 PUSH2 0x297B JUMP JUMPDEST PUSH20 0xFFFFFFFFFFFFFFFFFFFFFFFFFFFFFFFFFFFFFFFF AND PUSH20 0xFFFFFFFFFFFFFFFFFFFFFFFFFFFFFFFFFFFFFFFF AND DUP2 MSTORE PUSH1 0x20 ADD SWAP1 DUP2 MSTORE PUSH1 0x20 ADD PUSH0 KECCAK256 SLOAD SWAP1 POP DUP3 DUP2 LT ISZERO PUSH2 0x116F JUMPI PUSH1 0x40 MLOAD PUSH32 0x8C379A000000000000000000000000000000000000000000000000000000000 DUP2 MSTORE PUSH1 0x4 ADD PUSH2 0x1166 SWAP1 PUSH2 0x4BB1 JUMP JUMPDEST PUSH1 0x40 MLOAD DUP1 SWAP2 SUB SWAP1 REVERT JUMPDEST PUSH2 0x1183 DUP6 PUSH2 0x117B PUSH2 0x297B JUMP JUMPDEST DUP6 DUP5 SUB PUSH2 0x29E2 JUMP JUMPDEST PUSH1 0x1 SWAP2 POP POP SWAP4 SWAP3 POP POP POP JUMP JUMPDEST PUSH32 0x0 DUP2 JUMP JUMPDEST PUSH2 0x11BB PUSH2 0x297B JUMP JUMPDEST PUSH20 0xFFFFFFFFFFFFFFFFFFFFFFFFFFFFFFFFFFFFFFFF AND PUSH2 0x11D9 PUSH2 0x1C17 JUMP JUMPDEST PUSH20 0xFFFFFFFFFFFFFFFFFFFFFFFFFFFFFFFFFFFFFFFF AND EQ PUSH2 0x122F JUMPI PUSH1 0x40 MLOAD PUSH32 0x8C379A000000000000000000000000000000000000000000000000000000000 DUP2 MSTORE PUSH1 0x4 ADD PUSH2 0x1226 SWAP1 PUSH2 0x4B23 JUMP JUMPDEST PUSH1 0x40 MLOAD DUP1 SWAP2 SUB SWAP1 REVERT JUMPDEST DUP1 PUSH1 0x23 PUSH1 0x2 PUSH2 0x100 EXP DUP2 SLOAD DUP2 PUSH1 0xFF MUL NOT AND SWAP1 DUP4 ISZERO ISZERO MUL OR SWAP1 SSTORE POP PUSH32 0x3794234FA370C9F3B948DDA3E3040530785B2EF1EB27DDA3FFDE478F4E2643C0 DUP2 PUSH1 0x40 MLOAD PUSH2 0x1278 SWAP2 SWAP1 PUSH2 0x46C5 JUMP JUMPDEST PUSH1 0x40 MLOAD DUP1 SWAP2 SUB SWAP1 LOG1 POP JUMP JUMPDEST PUSH0 PUSH1 0xB PUSH0 SWAP1 SLOAD SWAP1 PUSH2 0x100 EXP SWAP1 DIV PUSH1 0xFF AND SWAP1 POP SWAP1 JUMP JUMPDEST PUSH0 PUSH1 0x10 SLOAD SWAP1 POP SWAP1 JUMP JUMPDEST PUSH1 0x11 SLOAD DUP2 JUMP JUMPDEST PUSH0 PUSH2 0x1344 PUSH2 0x12B3 PUSH2 0x297B JUMP JUMPDEST DUP5 DUP5 PUSH1 0x1 PUSH0 PUSH2 0x12C0 PUSH2 0x297B JUMP JUMPDEST PUSH20 0xFFFFFFFFFFFFFFFFFFFFFFFFFFFFFFFFFFFFFFFF AND PUSH20 0xFFFFFFFFFFFFFFFFFFFFFFFFFFFFFFFFFFFFFFFF AND DUP2 MSTORE PUSH1 0x20 ADD SWAP1 DUP2 MSTORE PUSH1 0x20 ADD PUSH0 KECCAK256 PUSH0 DUP9 PUSH20 0xFFFFFFFFFFFFFFFFFFFFFFFFFFFFFFFFFFFFFFFF AND PUSH20 0xFFFFFFFFFFFFFFFFFFFFFFFFFFFFFFFFFFFFFFFF AND DUP2 MSTORE PUSH1 0x20 ADD SWAP1 DUP2 MSTORE PUSH1 0x20 ADD PUSH0 KECCAK256 SLOAD PUSH2 0x133F SWAP2 SWAP1 PUSH2 0x4A49 JUMP JUMPDEST PUSH2 0x29E2 JUMP JUMPDEST PUSH1 0x1 SWAP1 POP SWAP3 SWAP2 POP POP JUMP JUMPDEST PUSH1 0x1D SLOAD DUP2 JUMP JUMPDEST PUSH2 0x135C PUSH2 0x297B JUMP JUMPDEST PUSH20 0xFFFFFFFFFFFFFFFFFFFFFFFFFFFFFFFFFFFFFFFF AND PUSH2 0x137A PUSH2 0x1C17 JUMP JUMPDEST PUSH20 0xFFFFFFFFFFFFFFFFFFFFFFFFFFFFFFFFFFFFFFFF AND EQ PUSH2 0x13D0 JUMPI PUSH1 0x40 MLOAD PUSH32 0x8C379A000000000000000000000000000000000000000000000000000000000 DUP2 MSTORE PUSH1 0x4 ADD PUSH2 0x13C7 SWAP1 PUSH2 0x4B23 JUMP JUMPDEST PUSH1 0x40 MLOAD DUP1 SWAP2 SUB SWAP1 REVERT JUMPDEST PUSH1 0x1 PUSH1 0x8 PUSH0 DUP4 PUSH20 0xFFFFFFFFFFFFFFFFFFFFFFFFFFFFFFFFFFFFFFFF AND PUSH20 0xFFFFFFFFFFFFFFFFFFFFFFFFFFFFFFFFFFFFFFFF AND DUP2 MSTORE PUSH1 0x20 ADD SWAP1 DUP2 MSTORE PUSH1 0x20 ADD PUSH0 KECCAK256 PUSH0 PUSH2 0x100 EXP DUP2 SLOAD DUP2 PUSH1 0xFF MUL NOT AND SWAP1 DUP4 ISZERO ISZERO MUL OR SWAP1 SSTORE POP POP JUMP JUMPDEST PUSH0 PUSH1 0xE SLOAD DUP4 GT ISZERO PUSH2 0x146E JUMPI PUSH1 0x40 MLOAD PUSH32 0x8C379A000000000000000000000000000000000000000000000000000000000 DUP2 MSTORE PUSH1 0x4 ADD PUSH2 0x1465 SWAP1 PUSH2 0x4C19 JUMP JUMPDEST PUSH1 0x40 MLOAD DUP1 SWAP2 SUB SWAP1 REVERT JUMPDEST DUP2 PUSH2 0x148B JUMPI PUSH0 PUSH2 0x147D DUP5 PUSH2 0x2982 JUMP JUMPDEST POP POP POP SWAP1 POP DUP1 SWAP2 POP POP PUSH2 0x149F JUMP JUMPDEST PUSH0 PUSH2 0x1495 DUP5 PUSH2 0x2982 JUMP JUMPDEST POP POP SWAP2 POP POP DUP1 SWAP2 POP POP JUMPDEST SWAP3 SWAP2 POP POP JUMP JUMPDEST PUSH2 0x14AD PUSH2 0x297B JUMP JUMPDEST PUSH20 0xFFFFFFFFFFFFFFFFFFFFFFFFFFFFFFFFFFFFFFFF AND PUSH2 0x14CB PUSH2 0x1C17 JUMP JUMPDEST PUSH20 0xFFFFFFFFFFFFFFFFFFFFFFFFFFFFFFFFFFFFFFFF AND EQ PUSH2 0x1521 JUMPI PUSH1 0x40 MLOAD PUSH32 0x8C379A000000000000000000000000000000000000000000000000000000000 DUP2 MSTORE PUSH1 0x4 ADD PUSH2 0x1518 SWAP1 PUSH2 0x4B23 JUMP JUMPDEST PUSH1 0x40 MLOAD DUP1 SWAP2 SUB SWAP1 REVERT JUMPDEST DUP1 PUSH1 0x17 DUP2 SWAP1 SSTORE POP PUSH1 0x1D SLOAD PUSH1 0x1B SLOAD PUSH1 0x19 SLOAD PUSH1 0x15 SLOAD PUSH1 0x17 SLOAD PUSH2 0x1541 SWAP2 SWAP1 PUSH2 0x4A49 JUMP JUMPDEST PUSH2 0x154B SWAP2 SWAP1 PUSH2 0x4A49 JUMP JUMPDEST PUSH2 0x1555 SWAP2 SWAP1 PUSH2 0x4A49 JUMP JUMPDEST PUSH2 0x155F SWAP2 SWAP1 PUSH2 0x4A49 JUMP JUMPDEST PUSH1 0x13 DUP2 SWAP1 SSTORE POP POP JUMP JUMPDEST PUSH1 0x1B SLOAD DUP2 JUMP JUMPDEST PUSH32 0x0 DUP2 JUMP JUMPDEST PUSH1 0x23 PUSH1 0x1 SWAP1 SLOAD SWAP1 PUSH2 0x100 EXP SWAP1 DIV PUSH1 0xFF AND DUP2 JUMP JUMPDEST PUSH0 PUSH1 0x8 PUSH0 DUP4 PUSH20 0xFFFFFFFFFFFFFFFFFFFFFFFFFFFFFFFFFFFFFFFF AND PUSH20 0xFFFFFFFFFFFFFFFFFFFFFFFFFFFFFFFFFFFFFFFF AND DUP2 MSTORE PUSH1 0x20 ADD SWAP1 DUP2 MSTORE PUSH1 0x20 ADD PUSH0 KECCAK256 PUSH0 SWAP1 SLOAD SWAP1 PUSH2 0x100 EXP SWAP1 DIV PUSH1 0xFF AND SWAP1 POP SWAP2 SWAP1 POP JUMP JUMPDEST PUSH2 0x15FF PUSH2 0x297B JUMP JUMPDEST PUSH20 0xFFFFFFFFFFFFFFFFFFFFFFFFFFFFFFFFFFFFFFFF AND PUSH2 0x161D PUSH2 0x1C17 JUMP JUMPDEST PUSH20 0xFFFFFFFFFFFFFFFFFFFFFFFFFFFFFFFFFFFFFFFF AND EQ PUSH2 0x1673 JUMPI PUSH1 0x40 MLOAD PUSH32 0x8C379A000000000000000000000000000000000000000000000000000000000 DUP2 MSTORE PUSH1 0x4 ADD PUSH2 0x166A SWAP1 PUSH2 0x4B23 JUMP JUMPDEST PUSH1 0x40 MLOAD DUP1 SWAP2 SUB SWAP1 REVERT JUMPDEST PUSH1 0x9 PUSH0 DUP3 PUSH20 0xFFFFFFFFFFFFFFFFFFFFFFFFFFFFFFFFFFFFFFFF AND PUSH20 0xFFFFFFFFFFFFFFFFFFFFFFFFFFFFFFFFFFFFFFFF AND DUP2 MSTORE PUSH1 0x20 ADD SWAP1 DUP2 MSTORE PUSH1 0x20 ADD PUSH0 KECCAK256 PUSH0 SWAP1 SLOAD SWAP1 PUSH2 0x100 EXP SWAP1 DIV PUSH1 0xFF AND ISZERO PUSH2 0x16FD JUMPI PUSH1 0x40 MLOAD PUSH32 0x8C379A000000000000000000000000000000000000000000000000000000000 DUP2 MSTORE PUSH1 0x4 ADD PUSH2 0x16F4 SWAP1 PUSH2 0x4C81 JUMP JUMPDEST PUSH1 0x40 MLOAD DUP1 SWAP2 SUB SWAP1 REVERT JUMPDEST PUSH0 PUSH1 0x6 PUSH0 DUP4 PUSH20 0xFFFFFFFFFFFFFFFFFFFFFFFFFFFFFFFFFFFFFFFF AND PUSH20 0xFFFFFFFFFFFFFFFFFFFFFFFFFFFFFFFFFFFFFFFF AND DUP2 MSTORE PUSH1 0x20 ADD SWAP1 DUP2 MSTORE PUSH1 0x20 ADD PUSH0 KECCAK256 SLOAD GT ISZERO PUSH2 0x17CA JUMPI PUSH2 0x1788 PUSH1 0x6 PUSH0 DUP4 PUSH20 0xFFFFFFFFFFFFFFFFFFFFFFFFFFFFFFFFFFFFFFFF AND PUSH20 0xFFFFFFFFFFFFFFFFFFFFFFFFFFFFFFFFFFFFFFFF AND DUP2 MSTORE PUSH1 0x20 ADD SWAP1 DUP2 MSTORE PUSH1 0x20 ADD PUSH0 KECCAK256 SLOAD PUSH2 0x2F9E JUMP JUMPDEST PUSH1 0x7 PUSH0 DUP4 PUSH20 0xFFFFFFFFFFFFFFFFFFFFFFFFFFFFFFFFFFFFFFFF AND PUSH20 0xFFFFFFFFFFFFFFFFFFFFFFFFFFFFFFFFFFFFFFFF AND DUP2 MSTORE PUSH1 0x20 ADD SWAP1 DUP2 MSTORE PUSH1 0x20 ADD PUSH0 KECCAK256 DUP2 SWAP1 SSTORE POP JUMPDEST PUSH1 0x1 PUSH1 0x9 PUSH0 DUP4 PUSH20 0xFFFFFFFFFFFFFFFFFFFFFFFFFFFFFFFFFFFFFFFF AND PUSH20 0xFFFFFFFFFFFFFFFFFFFFFFFFFFFFFFFFFFFFFFFF AND DUP2 MSTORE PUSH1 0x20 ADD SWAP1 DUP2 MSTORE PUSH1 0x20 ADD PUSH0 KECCAK256 PUSH0 PUSH2 0x100 EXP DUP2 SLOAD DUP2 PUSH1 0xFF MUL NOT AND SWAP1 DUP4 ISZERO ISZERO MUL OR SWAP1 SSTORE POP PUSH1 0xA DUP2 SWAP1 DUP1 PUSH1 0x1 DUP2 SLOAD ADD DUP1 DUP3 SSTORE DUP1 SWAP2 POP POP PUSH1 0x1 SWAP1 SUB SWAP1 PUSH0 MSTORE PUSH1 0x20 PUSH0 KECCAK256 ADD PUSH0 SWAP1 SWAP2 SWAP1 SWAP2 SWAP1 SWAP2 PUSH2 0x100 EXP DUP2 SLOAD DUP2 PUSH20 0xFFFFFFFFFFFFFFFFFFFFFFFFFFFFFFFFFFFFFFFF MUL NOT AND SWAP1 DUP4 PUSH20 0xFFFFFFFFFFFFFFFFFFFFFFFFFFFFFFFFFFFFFFFF AND MUL OR SWAP1 SSTORE POP POP JUMP JUMPDEST PUSH1 0x23 PUSH1 0x2 SWAP1 SLOAD SWAP1 PUSH2 0x100 EXP SWAP1 DIV PUSH1 0xFF AND DUP2 JUMP JUMPDEST PUSH2 0x189D PUSH2 0x297B JUMP JUMPDEST PUSH20 0xFFFFFFFFFFFFFFFFFFFFFFFFFFFFFFFFFFFFFFFF AND PUSH2 0x18BB PUSH2 0x1C17 JUMP JUMPDEST PUSH20 0xFFFFFFFFFFFFFFFFFFFFFFFFFFFFFFFFFFFFFFFF AND EQ PUSH2 0x1911 JUMPI PUSH1 0x40 MLOAD PUSH32 0x8C379A000000000000000000000000000000000000000000000000000000000 DUP2 MSTORE PUSH1 0x4 ADD PUSH2 0x1908 SWAP1 PUSH2 0x4B23 JUMP JUMPDEST PUSH1 0x40 MLOAD DUP1 SWAP2 SUB SWAP1 REVERT JUMPDEST DUP1 PUSH1 0x19 DUP2 SWAP1 SSTORE POP PUSH1 0x1D SLOAD PUSH1 0x1B SLOAD PUSH1 0x19 SLOAD PUSH1 0x15 SLOAD PUSH1 0x17 SLOAD PUSH2 0x1931 SWAP2 SWAP1 PUSH2 0x4A49 JUMP JUMPDEST PUSH2 0x193B SWAP2 SWAP1 PUSH2 0x4A49 JUMP JUMPDEST PUSH2 0x1945 SWAP2 SWAP1 PUSH2 0x4A49 JUMP JUMPDEST PUSH2 0x194F SWAP2 SWAP1 PUSH2 0x4A49 JUMP JUMPDEST PUSH1 0x13 DUP2 SWAP1 SSTORE POP POP JUMP JUMPDEST PUSH2 0x1960 PUSH2 0x297B JUMP JUMPDEST PUSH20 0xFFFFFFFFFFFFFFFFFFFFFFFFFFFFFFFFFFFFFFFF AND PUSH2 0x197E PUSH2 0x1C17 JUMP JUMPDEST PUSH20 0xFFFFFFFFFFFFFFFFFFFFFFFFFFFFFFFFFFFFFFFF AND EQ PUSH2 0x19D4 JUMPI PUSH1 0x40 MLOAD PUSH32 0x8C379A000000000000000000000000000000000000000000000000000000000 DUP2 MSTORE PUSH1 0x4 ADD PUSH2 0x19CB SWAP1 PUSH2 0x4B23 JUMP JUMPDEST PUSH1 0x40 MLOAD DUP1 SWAP2 SUB SWAP1 REVERT JUMPDEST DUP1 PUSH1 0x1B DUP2 SWAP1 SSTORE POP PUSH1 0x1D SLOAD PUSH1 0x1B SLOAD PUSH1 0x19 SLOAD PUSH1 0x15 SLOAD PUSH1 0x17 SLOAD PUSH2 0x19F4 SWAP2 SWAP1 PUSH2 0x4A49 JUMP JUMPDEST PUSH2 0x19FE SWAP2 SWAP1 PUSH2 0x4A49 JUMP JUMPDEST PUSH2 0x1A08 SWAP2 SWAP1 PUSH2 0x4A49 JUMP JUMPDEST PUSH2 0x1A12 SWAP2 SWAP1 PUSH2 0x4A49 JUMP JUMPDEST PUSH1 0x13 DUP2 SWAP1 SSTORE POP POP JUMP JUMPDEST PUSH0 PUSH1 0x9 PUSH0 DUP4 PUSH20 0xFFFFFFFFFFFFFFFFFFFFFFFFFFFFFFFFFFFFFFFF AND PUSH20 0xFFFFFFFFFFFFFFFFFFFFFFFFFFFFFFFFFFFFFFFF AND DUP2 MSTORE PUSH1 0x20 ADD SWAP1 DUP2 MSTORE PUSH1 0x20 ADD PUSH0 KECCAK256 PUSH0 SWAP1 SLOAD SWAP1 PUSH2 0x100 EXP SWAP1 DIV PUSH1 0xFF AND ISZERO PUSH2 0x1AB0 JUMPI PUSH1 0x7 PUSH0 DUP4 PUSH20 0xFFFFFFFFFFFFFFFFFFFFFFFFFFFFFFFFFFFFFFFF AND PUSH20 0xFFFFFFFFFFFFFFFFFFFFFFFFFFFFFFFFFFFFFFFF AND DUP2 MSTORE PUSH1 0x20 ADD SWAP1 DUP2 MSTORE PUSH1 0x20 ADD PUSH0 KECCAK256 SLOAD SWAP1 POP PUSH2 0x1AF9 JUMP JUMPDEST PUSH2 0x1AF6 PUSH1 0x6 PUSH0 DUP5 PUSH20 0xFFFFFFFFFFFFFFFFFFFFFFFFFFFFFFFFFFFFFFFF AND PUSH20 0xFFFFFFFFFFFFFFFFFFFFFFFFFFFFFFFFFFFFFFFF AND DUP2 MSTORE PUSH1 0x20 ADD SWAP1 DUP2 MSTORE PUSH1 0x20 ADD PUSH0 KECCAK256 SLOAD PUSH2 0x2F9E JUMP JUMPDEST SWAP1 POP JUMPDEST SWAP2 SWAP1 POP JUMP JUMPDEST PUSH2 0x1B06 PUSH2 0x297B JUMP JUMPDEST PUSH20 0xFFFFFFFFFFFFFFFFFFFFFFFFFFFFFFFFFFFFFFFF AND PUSH2 0x1B24 PUSH2 0x1C17 JUMP JUMPDEST PUSH20 0xFFFFFFFFFFFFFFFFFFFFFFFFFFFFFFFFFFFFFFFF AND EQ PUSH2 0x1B7A JUMPI PUSH1 0x40 MLOAD PUSH32 0x8C379A000000000000000000000000000000000000000000000000000000000 DUP2 MSTORE PUSH1 0x4 ADD PUSH2 0x1B71 SWAP1 PUSH2 0x4B23 JUMP JUMPDEST PUSH1 0x40 MLOAD DUP1 SWAP2 SUB SWAP1 REVERT JUMPDEST PUSH2 0x1B83 PUSH0 PUSH2 0x3003 JUMP JUMPDEST JUMP JUMPDEST PUSH1 0x1F SLOAD DUP2 JUMP JUMPDEST PUSH2 0x1B93 PUSH2 0x297B JUMP JUMPDEST PUSH20 0xFFFFFFFFFFFFFFFFFFFFFFFFFFFFFFFFFFFFFFFF AND PUSH2 0x1BB1 PUSH2 0x1C17 JUMP JUMPDEST PUSH20 0xFFFFFFFFFFFFFFFFFFFFFFFFFFFFFFFFFFFFFFFF AND EQ PUSH2 0x1C07 JUMPI PUSH1 0x40 MLOAD PUSH32 0x8C379A000000000000000000000000000000000000000000000000000000000 DUP2 MSTORE PUSH1 0x4 ADD PUSH2 0x1BFE SWAP1 PUSH2 0x4B23 JUMP JUMPDEST PUSH1 0x40 MLOAD DUP1 SWAP2 SUB SWAP1 REVERT JUMPDEST DUP1 PUSH1 0x22 DUP2 SWAP1 SSTORE POP POP JUMP JUMPDEST PUSH1 0x15 SLOAD DUP2 JUMP JUMPDEST PUSH0 PUSH1 0x5 PUSH0 SWAP1 SLOAD SWAP1 PUSH2 0x100 EXP SWAP1 DIV PUSH20 0xFFFFFFFFFFFFFFFFFFFFFFFFFFFFFFFFFFFFFFFF AND SWAP1 POP SWAP1 JUMP JUMPDEST PUSH2 0x1C47 PUSH2 0x297B JUMP JUMPDEST PUSH20 0xFFFFFFFFFFFFFFFFFFFFFFFFFFFFFFFFFFFFFFFF AND PUSH2 0x1C65 PUSH2 0x1C17 JUMP JUMPDEST PUSH20 0xFFFFFFFFFFFFFFFFFFFFFFFFFFFFFFFFFFFFFFFF AND EQ PUSH2 0x1CBB JUMPI PUSH1 0x40 MLOAD PUSH32 0x8C379A000000000000000000000000000000000000000000000000000000000 DUP2 MSTORE PUSH1 0x4 ADD PUSH2 0x1CB2 SWAP1 PUSH2 0x4B23 JUMP JUMPDEST PUSH1 0x40 MLOAD DUP1 SWAP2 SUB SWAP1 REVERT JUMPDEST DUP1 PUSH1 0xB PUSH1 0x1 PUSH2 0x100 EXP DUP2 SLOAD DUP2 PUSH20 0xFFFFFFFFFFFFFFFFFFFFFFFFFFFFFFFFFFFFFFFF MUL NOT AND SWAP1 DUP4 PUSH20 0xFFFFFFFFFFFFFFFFFFFFFFFFFFFFFFFFFFFFFFFF AND MUL OR SWAP1 SSTORE POP POP JUMP JUMPDEST PUSH1 0x60 PUSH1 0x4 DUP1 SLOAD PUSH2 0x1D0E SWAP1 PUSH2 0x4AA9 JUMP JUMPDEST DUP1 PUSH1 0x1F ADD PUSH1 0x20 DUP1 SWAP2 DIV MUL PUSH1 0x20 ADD PUSH1 0x40 MLOAD SWAP1 DUP2 ADD PUSH1 0x40 MSTORE DUP1 SWAP3 SWAP2 SWAP1 DUP2 DUP2 MSTORE PUSH1 0x20 ADD DUP3 DUP1 SLOAD PUSH2 0x1D3A SWAP1 PUSH2 0x4AA9 JUMP JUMPDEST DUP1 ISZERO PUSH2 0x1D85 JUMPI DUP1 PUSH1 0x1F LT PUSH2 0x1D5C JUMPI PUSH2 0x100 DUP1 DUP4 SLOAD DIV MUL DUP4 MSTORE SWAP2 PUSH1 0x20 ADD SWAP2 PUSH2 0x1D85 JUMP JUMPDEST DUP3 ADD SWAP2 SWAP1 PUSH0 MSTORE PUSH1 0x20 PUSH0 KECCAK256 SWAP1 JUMPDEST DUP2 SLOAD DUP2 MSTORE SWAP1 PUSH1 0x1 ADD SWAP1 PUSH1 0x20 ADD DUP1 DUP4 GT PUSH2 0x1D68 JUMPI DUP3 SWAP1 SUB PUSH1 0x1F AND DUP3 ADD SWAP2 JUMPDEST POP POP POP POP POP SWAP1 POP SWAP1 JUMP JUMPDEST PUSH0 PUSH1 0x21 SLOAD SWAP1 POP SWAP1 JUMP JUMPDEST PUSH0 DUP1 PUSH1 0x1 PUSH0 PUSH2 0x1DA5 PUSH2 0x297B JUMP JUMPDEST PUSH20 0xFFFFFFFFFFFFFFFFFFFFFFFFFFFFFFFFFFFFFFFF AND PUSH20 0xFFFFFFFFFFFFFFFFFFFFFFFFFFFFFFFFFFFFFFFF AND DUP2 MSTORE PUSH1 0x20 ADD SWAP1 DUP2 MSTORE PUSH1 0x20 ADD PUSH0 KECCAK256 PUSH0 DUP6 PUSH20 0xFFFFFFFFFFFFFFFFFFFFFFFFFFFFFFFFFFFFFFFF AND PUSH20 0xFFFFFFFFFFFFFFFFFFFFFFFFFFFFFFFFFFFFFFFF AND DUP2 MSTORE PUSH1 0x20 ADD SWAP1 DUP2 MSTORE PUSH1 0x20 ADD PUSH0 KECCAK256 SLOAD SWAP1 POP DUP3 DUP2 LT ISZERO PUSH2 0x1E5F JUMPI PUSH1 0x40 MLOAD PUSH32 0x8C379A000000000000000000000000000000000000000000000000000000000 DUP2 MSTORE PUSH1 0x4 ADD PUSH2 0x1E56 SWAP1 PUSH2 0x4D0F JUMP JUMPDEST PUSH1 0x40 MLOAD DUP1 SWAP2 SUB SWAP1 REVERT JUMPDEST PUSH2 0x1E73 PUSH2 0x1E6A PUSH2 0x297B JUMP JUMPDEST DUP6 DUP6 DUP5 SUB PUSH2 0x29E2 JUMP JUMPDEST PUSH1 0x1 SWAP2 POP POP SWAP3 SWAP2 POP POP JUMP JUMPDEST PUSH1 0xB PUSH1 0x1 SWAP1 SLOAD SWAP1 PUSH2 0x100 EXP SWAP1 DIV PUSH20 0xFFFFFFFFFFFFFFFFFFFFFFFFFFFFFFFFFFFFFFFF AND DUP2 JUMP JUMPDEST PUSH0 PUSH2 0x1EB7 PUSH2 0x1EB0 PUSH2 0x297B JUMP JUMPDEST DUP5 DUP5 PUSH2 0x2BA5 JUMP JUMPDEST PUSH1 0x1 SWAP1 POP SWAP3 SWAP2 POP POP JUMP JUMPDEST PUSH2 0x1EC9 PUSH2 0x297B JUMP JUMPDEST PUSH20 0xFFFFFFFFFFFFFFFFFFFFFFFFFFFFFFFFFFFFFFFF AND PUSH2 0x1EE7 PUSH2 0x1C17 JUMP JUMPDEST PUSH20 0xFFFFFFFFFFFFFFFFFFFFFFFFFFFFFFFFFFFFFFFF AND EQ PUSH2 0x1F3D JUMPI PUSH1 0x40 MLOAD PUSH32 0x8C379A000000000000000000000000000000000000000000000000000000000 DUP2 MSTORE PUSH1 0x4 ADD PUSH2 0x1F34 SWAP1 PUSH2 0x4B23 JUMP JUMPDEST PUSH1 0x40 MLOAD DUP1 SWAP2 SUB SWAP1 REVERT JUMPDEST DUP1 PUSH1 0x15 DUP2 SWAP1 SSTORE POP PUSH1 0x1D SLOAD PUSH1 0x1B SLOAD PUSH1 0x19 SLOAD PUSH1 0x15 SLOAD PUSH1 0x17 SLOAD PUSH2 0x1F5D SWAP2 SWAP1 PUSH2 0x4A49 JUMP JUMPDEST PUSH2 0x1F67 SWAP2 SWAP1 PUSH2 0x4A49 JUMP JUMPDEST PUSH2 0x1F71 SWAP2 SWAP1 PUSH2 0x4A49 JUMP JUMPDEST PUSH2 0x1F7B SWAP2 SWAP1 PUSH2 0x4A49 JUMP JUMPDEST PUSH1 0x13 DUP2 SWAP1 SSTORE POP POP JUMP JUMPDEST PUSH1 0xD PUSH0 SWAP1 SLOAD SWAP1 PUSH2 0x100 EXP SWAP1 DIV PUSH20 0xFFFFFFFFFFFFFFFFFFFFFFFFFFFFFFFFFFFFFFFF AND DUP2 JUMP JUMPDEST PUSH0 PUSH1 0x22 SLOAD SWAP1 POP SWAP1 JUMP JUMPDEST PUSH2 0x1FBA PUSH2 0x297B JUMP JUMPDEST PUSH20 0xFFFFFFFFFFFFFFFFFFFFFFFFFFFFFFFFFFFFFFFF AND PUSH2 0x1FD8 PUSH2 0x1C17 JUMP JUMPDEST PUSH20 0xFFFFFFFFFFFFFFFFFFFFFFFFFFFFFFFFFFFFFFFF AND EQ PUSH2 0x202E JUMPI PUSH1 0x40 MLOAD PUSH32 0x8C379A000000000000000000000000000000000000000000000000000000000 DUP2 MSTORE PUSH1 0x4 ADD PUSH2 0x2025 SWAP1 PUSH2 0x4B23 JUMP JUMPDEST PUSH1 0x40 MLOAD DUP1 SWAP2 SUB SWAP1 REVERT JUMPDEST DUP1 PUSH1 0x23 PUSH1 0x1 PUSH2 0x100 EXP DUP2 SLOAD DUP2 PUSH1 0xFF MUL NOT AND SWAP1 DUP4 ISZERO ISZERO MUL OR SWAP1 SSTORE POP PUSH32 0x53726DFCAF90650AA7EB35524F4D3220F07413C8D6CB404CC8C18BF5591BC159 DUP2 PUSH1 0x40 MLOAD PUSH2 0x2077 SWAP2 SWAP1 PUSH2 0x46C5 JUMP JUMPDEST PUSH1 0x40 MLOAD DUP1 SWAP2 SUB SWAP1 LOG1 POP JUMP JUMPDEST PUSH1 0xC PUSH0 SWAP1 SLOAD SWAP1 PUSH2 0x100 EXP SWAP1 DIV PUSH20 0xFFFFFFFFFFFFFFFFFFFFFFFFFFFFFFFFFFFFFFFF AND DUP2 JUMP JUMPDEST PUSH0 PUSH1 0x9 PUSH0 DUP4 PUSH20 0xFFFFFFFFFFFFFFFFFFFFFFFFFFFFFFFFFFFFFFFF AND PUSH20 0xFFFFFFFFFFFFFFFFFFFFFFFFFFFFFFFFFFFFFFFF AND DUP2 MSTORE PUSH1 0x20 ADD SWAP1 DUP2 MSTORE PUSH1 0x20 ADD PUSH0 KECCAK256 PUSH0 SWAP1 SLOAD SWAP1 PUSH2 0x100 EXP SWAP1 DIV PUSH1 0xFF AND SWAP1 POP SWAP2 SWAP1 POP JUMP JUMPDEST PUSH2 0x2101 PUSH2 0x297B JUMP JUMPDEST PUSH20 0xFFFFFFFFFFFFFFFFFFFFFFFFFFFFFFFFFFFFFFFF AND PUSH2 0x211F PUSH2 0x1C17 JUMP JUMPDEST PUSH20 0xFFFFFFFFFFFFFFFFFFFFFFFFFFFFFFFFFFFFFFFF AND EQ PUSH2 0x2175 JUMPI PUSH1 0x40 MLOAD PUSH32 0x8C379A000000000000000000000000000000000000000000000000000000000 DUP2 MSTORE PUSH1 0x4 ADD PUSH2 0x216C SWAP1 PUSH2 0x4B23 JUMP JUMPDEST PUSH1 0x40 MLOAD DUP1 SWAP2 SUB SWAP1 REVERT JUMPDEST DUP1 PUSH1 0xC PUSH0 PUSH2 0x100 EXP DUP2 SLOAD DUP2 PUSH20 0xFFFFFFFFFFFFFFFFFFFFFFFFFFFFFFFFFFFFFFFF MUL NOT AND SWAP1 DUP4 PUSH20 0xFFFFFFFFFFFFFFFFFFFFFFFFFFFFFFFFFFFFFFFF AND MUL OR SWAP1 SSTORE POP POP JUMP JUMPDEST PUSH0 PUSH1 0x1 PUSH0 DUP5 PUSH20 0xFFFFFFFFFFFFFFFFFFFFFFFFFFFFFFFFFFFFFFFF AND PUSH20 0xFFFFFFFFFFFFFFFFFFFFFFFFFFFFFFFFFFFFFFFF AND DUP2 MSTORE PUSH1 0x20 ADD SWAP1 DUP2 MSTORE PUSH1 0x20 ADD PUSH0 KECCAK256 PUSH0 DUP4 PUSH20 0xFFFFFFFFFFFFFFFFFFFFFFFFFFFFFFFFFFFFFFFF AND PUSH20 0xFFFFFFFFFFFFFFFFFFFFFFFFFFFFFFFFFFFFFFFF AND DUP2 MSTORE PUSH1 0x20 ADD SWAP1 DUP2 MSTORE PUSH1 0x20 ADD PUSH0 KECCAK256 SLOAD SWAP1 POP SWAP3 SWAP2 POP POP JUMP JUMPDEST PUSH2 0x2242 PUSH2 0x297B JUMP JUMPDEST PUSH20 0xFFFFFFFFFFFFFFFFFFFFFFFFFFFFFFFFFFFFFFFF AND PUSH2 0x2260 PUSH2 0x1C17 JUMP JUMPDEST PUSH20 0xFFFFFFFFFFFFFFFFFFFFFFFFFFFFFFFFFFFFFFFF AND EQ PUSH2 0x22B6 JUMPI PUSH1 0x40 MLOAD PUSH32 0x8C379A000000000000000000000000000000000000000000000000000000000 DUP2 MSTORE PUSH1 0x4 ADD PUSH2 0x22AD SWAP1 PUSH2 0x4B23 JUMP JUMPDEST PUSH1 0x40 MLOAD DUP1 SWAP2 SUB SWAP1 REVERT JUMPDEST DUP1 PUSH1 0x11 DUP2 SWAP1 SSTORE POP POP JUMP JUMPDEST PUSH2 0x22C8 PUSH2 0x297B JUMP JUMPDEST PUSH20 0xFFFFFFFFFFFFFFFFFFFFFFFFFFFFFFFFFFFFFFFF AND PUSH2 0x22E6 PUSH2 0x1C17 JUMP JUMPDEST PUSH20 0xFFFFFFFFFFFFFFFFFFFFFFFFFFFFFFFFFFFFFFFF AND EQ PUSH2 0x233C JUMPI PUSH1 0x40 MLOAD PUSH32 0x8C379A000000000000000000000000000000000000000000000000000000000 DUP2 MSTORE PUSH1 0x4 ADD PUSH2 0x2333 SWAP1 PUSH2 0x4B23 JUMP JUMPDEST PUSH1 0x40 MLOAD DUP1 SWAP2 SUB SWAP1 REVERT JUMPDEST PUSH0 PUSH1 0x8 PUSH0 DUP4 PUSH20 0xFFFFFFFFFFFFFFFFFFFFFFFFFFFFFFFFFFFFFFFF AND PUSH20 0xFFFFFFFFFFFFFFFFFFFFFFFFFFFFFFFFFFFFFFFF AND DUP2 MSTORE PUSH1 0x20 ADD SWAP1 DUP2 MSTORE PUSH1 0x20 ADD PUSH0 KECCAK256 PUSH0 PUSH2 0x100 EXP DUP2 SLOAD DUP2 PUSH1 0xFF MUL NOT AND SWAP1 DUP4 ISZERO ISZERO MUL OR SWAP1 SSTORE POP POP JUMP JUMPDEST PUSH2 0x239B PUSH2 0x297B JUMP JUMPDEST PUSH20 0xFFFFFFFFFFFFFFFFFFFFFFFFFFFFFFFFFFFFFFFF AND PUSH2 0x23B9 PUSH2 0x1C17 JUMP JUMPDEST PUSH20 0xFFFFFFFFFFFFFFFFFFFFFFFFFFFFFFFFFFFFFFFF AND EQ PUSH2 0x240F JUMPI PUSH1 0x40 MLOAD PUSH32 0x8C379A000000000000000000000000000000000000000000000000000000000 DUP2 MSTORE PUSH1 0x4 ADD PUSH2 0x2406 SWAP1 PUSH2 0x4B23 JUMP JUMPDEST PUSH1 0x40 MLOAD DUP1 SWAP2 SUB SWAP1 REVERT JUMPDEST DUP1 PUSH1 0x1F DUP2 SWAP1 SSTORE POP POP JUMP JUMPDEST PUSH2 0x2421 PUSH2 0x297B JUMP JUMPDEST PUSH20 0xFFFFFFFFFFFFFFFFFFFFFFFFFFFFFFFFFFFFFFFF AND PUSH2 0x243F PUSH2 0x1C17 JUMP JUMPDEST PUSH20 0xFFFFFFFFFFFFFFFFFFFFFFFFFFFFFFFFFFFFFFFF AND EQ PUSH2 0x2495 JUMPI PUSH1 0x40 MLOAD PUSH32 0x8C379A000000000000000000000000000000000000000000000000000000000 DUP2 MSTORE PUSH1 0x4 ADD PUSH2 0x248C SWAP1 PUSH2 0x4B23 JUMP JUMPDEST PUSH1 0x40 MLOAD DUP1 SWAP2 SUB SWAP1 REVERT JUMPDEST DUP1 ISZERO PUSH2 0x24C8 JUMPI PUSH2 0x24A4 PUSH0 PUSH2 0x1FB2 JUMP JUMPDEST PUSH2 0x24AC PUSH2 0x30C6 JUMP JUMPDEST PUSH1 0x1F SLOAD PUSH1 0x20 DUP2 SWAP1 SSTORE POP PUSH2 0x24BD PUSH2 0xFC5 JUMP JUMPDEST PUSH1 0x1F DUP2 SWAP1 SSTORE POP PUSH2 0x24E4 JUMP JUMPDEST PUSH2 0x24D2 PUSH1 0x1 PUSH2 0x1FB2 JUMP JUMPDEST PUSH2 0x24DA PUSH2 0x314F JUMP JUMPDEST PUSH1 0x20 SLOAD PUSH1 0x1F DUP2 SWAP1 SSTORE POP JUMPDEST POP JUMP JUMPDEST PUSH2 0x24EF PUSH2 0x297B JUMP JUMPDEST PUSH20 0xFFFFFFFFFFFFFFFFFFFFFFFFFFFFFFFFFFFFFFFF AND PUSH2 0x250D PUSH2 0x1C17 JUMP JUMPDEST PUSH20 0xFFFFFFFFFFFFFFFFFFFFFFFFFFFFFFFFFFFFFFFF AND EQ PUSH2 0x2563 JUMPI PUSH1 0x40 MLOAD PUSH32 0x8C379A000000000000000000000000000000000000000000000000000000000 DUP2 MSTORE PUSH1 0x4 ADD PUSH2 0x255A SWAP1 PUSH2 0x4B23 JUMP JUMPDEST PUSH1 0x40 MLOAD DUP1 SWAP2 SUB SWAP1 REVERT JUMPDEST DUP1 PUSH1 0x21 DUP2 SWAP1 SSTORE POP POP JUMP JUMPDEST PUSH2 0x2575 PUSH2 0x297B JUMP JUMPDEST PUSH20 0xFFFFFFFFFFFFFFFFFFFFFFFFFFFFFFFFFFFFFFFF AND PUSH2 0x2593 PUSH2 0x1C17 JUMP JUMPDEST PUSH20 0xFFFFFFFFFFFFFFFFFFFFFFFFFFFFFFFFFFFFFFFF AND EQ PUSH2 0x25E9 JUMPI PUSH1 0x40 MLOAD PUSH32 0x8C379A000000000000000000000000000000000000000000000000000000000 DUP2 MSTORE PUSH1 0x4 ADD PUSH2 0x25E0 SWAP1 PUSH2 0x4B23 JUMP JUMPDEST PUSH1 0x40 MLOAD DUP1 SWAP2 SUB SWAP1 REVERT JUMPDEST PUSH0 PUSH20 0xFFFFFFFFFFFFFFFFFFFFFFFFFFFFFFFFFFFFFFFF AND DUP2 PUSH20 0xFFFFFFFFFFFFFFFFFFFFFFFFFFFFFFFFFFFFFFFF AND SUB PUSH2 0x2657 JUMPI PUSH1 0x40 MLOAD PUSH32 0x8C379A000000000000000000000000000000000000000000000000000000000 DUP2 MSTORE PUSH1 0x4 ADD PUSH2 0x264E SWAP1 PUSH2 0x4D9D JUMP JUMPDEST PUSH1 0x40 MLOAD DUP1 SWAP2 SUB SWAP1 REVERT JUMPDEST PUSH2 0x2660 DUP2 PUSH2 0x3003 JUMP JUMPDEST POP JUMP JUMPDEST PUSH2 0x266B PUSH2 0x297B JUMP JUMPDEST PUSH20 0xFFFFFFFFFFFFFFFFFFFFFFFFFFFFFFFFFFFFFFFF AND PUSH2 0x2689 PUSH2 0x1C17 JUMP JUMPDEST PUSH20 0xFFFFFFFFFFFFFFFFFFFFFFFFFFFFFFFFFFFFFFFF AND EQ PUSH2 0x26DF JUMPI PUSH1 0x40 MLOAD PUSH32 0x8C379A000000000000000000000000000000000000000000000000000000000 DUP2 MSTORE PUSH1 0x4 ADD PUSH2 0x26D6 SWAP1 PUSH2 0x4B23 JUMP JUMPDEST PUSH1 0x40 MLOAD DUP1 SWAP2 SUB SWAP1 REVERT JUMPDEST PUSH1 0x9 PUSH0 DUP3 PUSH20 0xFFFFFFFFFFFFFFFFFFFFFFFFFFFFFFFFFFFFFFFF AND PUSH20 0xFFFFFFFFFFFFFFFFFFFFFFFFFFFFFFFFFFFFFFFF AND DUP2 MSTORE PUSH1 0x20 ADD SWAP1 DUP2 MSTORE PUSH1 0x20 ADD PUSH0 KECCAK256 PUSH0 SWAP1 SLOAD SWAP1 PUSH2 0x100 EXP SWAP1 DIV PUSH1 0xFF AND PUSH2 0x2768 JUMPI PUSH1 0x40 MLOAD PUSH32 0x8C379A000000000000000000000000000000000000000000000000000000000 DUP2 MSTORE PUSH1 0x4 ADD PUSH2 0x275F SWAP1 PUSH2 0x4E05 JUMP JUMPDEST PUSH1 0x40 MLOAD DUP1 SWAP2 SUB SWAP1 REVERT JUMPDEST PUSH0 JUMPDEST PUSH1 0xA DUP1 SLOAD SWAP1 POP DUP2 LT ISZERO PUSH2 0x2977 JUMPI DUP2 PUSH20 0xFFFFFFFFFFFFFFFFFFFFFFFFFFFFFFFFFFFFFFFF AND PUSH1 0xA DUP3 DUP2 SLOAD DUP2 LT PUSH2 0x27A2 JUMPI PUSH2 0x27A1 PUSH2 0x4E23 JUMP JUMPDEST JUMPDEST SWAP1 PUSH0 MSTORE PUSH1 0x20 PUSH0 KECCAK256 ADD PUSH0 SWAP1 SLOAD SWAP1 PUSH2 0x100 EXP SWAP1 DIV PUSH20 0xFFFFFFFFFFFFFFFFFFFFFFFFFFFFFFFFFFFFFFFF AND PUSH20 0xFFFFFFFFFFFFFFFFFFFFFFFFFFFFFFFFFFFFFFFF AND SUB PUSH2 0x296A JUMPI PUSH1 0xA PUSH1 0x1 PUSH1 0xA DUP1 SLOAD SWAP1 POP PUSH2 0x27F9 SWAP2 SWAP1 PUSH2 0x4A16 JUMP JUMPDEST DUP2 SLOAD DUP2 LT PUSH2 0x280A JUMPI PUSH2 0x2809 PUSH2 0x4E23 JUMP JUMPDEST JUMPDEST SWAP1 PUSH0 MSTORE PUSH1 0x20 PUSH0 KECCAK256 ADD PUSH0 SWAP1 SLOAD SWAP1 PUSH2 0x100 EXP SWAP1 DIV PUSH20 0xFFFFFFFFFFFFFFFFFFFFFFFFFFFFFFFFFFFFFFFF AND PUSH1 0xA DUP3 DUP2 SLOAD DUP2 LT PUSH2 0x2846 JUMPI PUSH2 0x2845 PUSH2 0x4E23 JUMP JUMPDEST JUMPDEST SWAP1 PUSH0 MSTORE PUSH1 0x20 PUSH0 KECCAK256 ADD PUSH0 PUSH2 0x100 EXP DUP2 SLOAD DUP2 PUSH20 0xFFFFFFFFFFFFFFFFFFFFFFFFFFFFFFFFFFFFFFFF MUL NOT AND SWAP1 DUP4 PUSH20 0xFFFFFFFFFFFFFFFFFFFFFFFFFFFFFFFFFFFFFFFF AND MUL OR SWAP1 SSTORE POP PUSH0 PUSH1 0x7 PUSH0 DUP5 PUSH20 0xFFFFFFFFFFFFFFFFFFFFFFFFFFFFFFFFFFFFFFFF AND PUSH20 0xFFFFFFFFFFFFFFFFFFFFFFFFFFFFFFFFFFFFFFFF AND DUP2 MSTORE PUSH1 0x20 ADD SWAP1 DUP2 MSTORE PUSH1 0x20 ADD PUSH0 KECCAK256 DUP2 SWAP1 SSTORE POP PUSH0 PUSH1 0x9 PUSH0 DUP5 PUSH20 0xFFFFFFFFFFFFFFFFFFFFFFFFFFFFFFFFFFFFFFFF AND PUSH20 0xFFFFFFFFFFFFFFFFFFFFFFFFFFFFFFFFFFFFFFFF AND DUP2 MSTORE PUSH1 0x20 ADD SWAP1 DUP2 MSTORE PUSH1 0x20 ADD PUSH0 KECCAK256 PUSH0 PUSH2 0x100 EXP DUP2 SLOAD DUP2 PUSH1 0xFF MUL NOT AND SWAP1 DUP4 ISZERO ISZERO MUL OR SWAP1 SSTORE POP PUSH1 0xA DUP1 SLOAD DUP1 PUSH2 0x2933 JUMPI PUSH2 0x2932 PUSH2 0x4E50 JUMP JUMPDEST JUMPDEST PUSH1 0x1 SWAP1 SUB DUP2 DUP2 SWAP1 PUSH0 MSTORE PUSH1 0x20 PUSH0 KECCAK256 ADD PUSH0 PUSH2 0x100 EXP DUP2 SLOAD SWAP1 PUSH20 0xFFFFFFFFFFFFFFFFFFFFFFFFFFFFFFFFFFFFFFFF MUL NOT AND SWAP1 SSTORE SWAP1 SSTORE PUSH2 0x2977 JUMP JUMPDEST DUP1 DUP1 PUSH1 0x1 ADD SWAP2 POP POP PUSH2 0x276A JUMP JUMPDEST POP POP JUMP JUMPDEST PUSH0 CALLER SWAP1 POP SWAP1 JUMP JUMPDEST PUSH0 DUP1 PUSH0 DUP1 PUSH0 PUSH2 0x2990 DUP7 PUSH2 0x3190 JUMP JUMPDEST SWAP1 POP PUSH0 DUP2 DUP8 PUSH2 0x299F SWAP2 SWAP1 PUSH2 0x4A16 JUMP JUMPDEST SWAP1 POP PUSH0 PUSH2 0x29AA PUSH2 0x31C9 JUMP JUMPDEST SWAP1 POP PUSH0 DUP2 DUP4 PUSH2 0x29B9 SWAP2 SWAP1 PUSH2 0x4E7D JUMP JUMPDEST SWAP1 POP PUSH0 DUP3 DUP11 PUSH2 0x29C8 SWAP2 SWAP1 PUSH2 0x4E7D JUMP JUMPDEST SWAP1 POP DUP1 DUP3 DUP6 DUP6 SWAP9 POP SWAP9 POP SWAP9 POP SWAP9 POP POP POP POP POP POP SWAP2 SWAP4 POP SWAP2 SWAP4 JUMP JUMPDEST PUSH0 PUSH20 0xFFFFFFFFFFFFFFFFFFFFFFFFFFFFFFFFFFFFFFFF AND DUP4 PUSH20 0xFFFFFFFFFFFFFFFFFFFFFFFFFFFFFFFFFFFFFFFF AND SUB PUSH2 0x2A50 JUMPI PUSH1 0x40 MLOAD PUSH32 0x8C379A000000000000000000000000000000000000000000000000000000000 DUP2 MSTORE PUSH1 0x4 ADD PUSH2 0x2A47 SWAP1 PUSH2 0x4F2E JUMP JUMPDEST PUSH1 0x40 MLOAD DUP1 SWAP2 SUB SWAP1 REVERT JUMPDEST PUSH0 PUSH20 0xFFFFFFFFFFFFFFFFFFFFFFFFFFFFFFFFFFFFFFFF AND DUP3 PUSH20 0xFFFFFFFFFFFFFFFFFFFFFFFFFFFFFFFFFFFFFFFF AND SUB PUSH2 0x2ABE JUMPI PUSH1 0x40 MLOAD PUSH32 0x8C379A000000000000000000000000000000000000000000000000000000000 DUP2 MSTORE PUSH1 0x4 ADD PUSH2 0x2AB5 SWAP1 PUSH2 0x4FBC JUMP JUMPDEST PUSH1 0x40 MLOAD DUP1 SWAP2 SUB SWAP1 REVERT JUMPDEST DUP1 PUSH1 0x1 PUSH0 DUP6 PUSH20 0xFFFFFFFFFFFFFFFFFFFFFFFFFFFFFFFFFFFFFFFF AND PUSH20 0xFFFFFFFFFFFFFFFFFFFFFFFFFFFFFFFFFFFFFFFF AND DUP2 MSTORE PUSH1 0x20 ADD SWAP1 DUP2 MSTORE PUSH1 0x20 ADD PUSH0 KECCAK256 PUSH0 DUP5 PUSH20 0xFFFFFFFFFFFFFFFFFFFFFFFFFFFFFFFFFFFFFFFF AND PUSH20 0xFFFFFFFFFFFFFFFFFFFFFFFFFFFFFFFFFFFFFFFF AND DUP2 MSTORE PUSH1 0x20 ADD SWAP1 DUP2 MSTORE PUSH1 0x20 ADD PUSH0 KECCAK256 DUP2 SWAP1 SSTORE POP DUP2 PUSH20 0xFFFFFFFFFFFFFFFFFFFFFFFFFFFFFFFFFFFFFFFF AND DUP4 PUSH20 0xFFFFFFFFFFFFFFFFFFFFFFFFFFFFFFFFFFFFFFFF AND PUSH32 0x8C5BE1E5EBEC7D5BD14F71427D1E84F3DD0314C0F7B2291E5B200AC8C7C3B925 DUP4 PUSH1 0x40 MLOAD PUSH2 0x2B98 SWAP2 SWAP1 PUSH2 0x478C JUMP JUMPDEST PUSH1 0x40 MLOAD DUP1 SWAP2 SUB SWAP1 LOG3 POP POP POP JUMP JUMPDEST PUSH0 PUSH20 0xFFFFFFFFFFFFFFFFFFFFFFFFFFFFFFFFFFFFFFFF AND DUP4 PUSH20 0xFFFFFFFFFFFFFFFFFFFFFFFFFFFFFFFFFFFFFFFF AND SUB PUSH2 0x2C13 JUMPI PUSH1 0x40 MLOAD PUSH32 0x8C379A000000000000000000000000000000000000000000000000000000000 DUP2 MSTORE PUSH1 0x4 ADD PUSH2 0x2C0A SWAP1 PUSH2 0x504A JUMP JUMPDEST PUSH1 0x40 MLOAD DUP1 SWAP2 SUB SWAP1 REVERT JUMPDEST PUSH0 PUSH20 0xFFFFFFFFFFFFFFFFFFFFFFFFFFFFFFFFFFFFFFFF AND DUP3 PUSH20 0xFFFFFFFFFFFFFFFFFFFFFFFFFFFFFFFFFFFFFFFF AND SUB PUSH2 0x2C81 JUMPI PUSH1 0x40 MLOAD PUSH32 0x8C379A000000000000000000000000000000000000000000000000000000000 DUP2 MSTORE PUSH1 0x4 ADD PUSH2 0x2C78 SWAP1 PUSH2 0x50D8 JUMP JUMPDEST PUSH1 0x40 MLOAD DUP1 SWAP2 SUB SWAP1 REVERT JUMPDEST PUSH0 DUP2 GT PUSH2 0x2CC3 JUMPI PUSH1 0x40 MLOAD PUSH32 0x8C379A000000000000000000000000000000000000000000000000000000000 DUP2 MSTORE PUSH1 0x4 ADD PUSH2 0x2CBA SWAP1 PUSH2 0x5166 JUMP JUMPDEST PUSH1 0x40 MLOAD DUP1 SWAP2 SUB SWAP1 REVERT JUMPDEST PUSH0 PUSH2 0x2CCD DUP5 PUSH2 0x1A1B JUMP JUMPDEST SWAP1 POP DUP2 DUP2 LT ISZERO PUSH2 0x2D12 JUMPI PUSH1 0x40 MLOAD PUSH32 0x8C379A000000000000000000000000000000000000000000000000000000000 DUP2 MSTORE PUSH1 0x4 ADD PUSH2 0x2D09 SWAP1 PUSH2 0x51F4 JUMP JUMPDEST PUSH1 0x40 MLOAD DUP1 SWAP2 SUB SWAP1 REVERT JUMPDEST PUSH2 0x2D1A PUSH2 0x1C17 JUMP JUMPDEST PUSH20 0xFFFFFFFFFFFFFFFFFFFFFFFFFFFFFFFFFFFFFFFF AND DUP5 PUSH20 0xFFFFFFFFFFFFFFFFFFFFFFFFFFFFFFFFFFFFFFFF AND EQ ISZERO DUP1 ISZERO PUSH2 0x2D88 JUMPI POP PUSH2 0x2D58 PUSH2 0x1C17 JUMP JUMPDEST PUSH20 0xFFFFFFFFFFFFFFFFFFFFFFFFFFFFFFFFFFFFFFFF AND DUP4 PUSH20 0xFFFFFFFFFFFFFFFFFFFFFFFFFFFFFFFFFFFFFFFF AND EQ ISZERO JUMPDEST ISZERO PUSH2 0x2DD3 JUMPI PUSH1 0x1F SLOAD DUP3 GT ISZERO PUSH2 0x2DD2 JUMPI PUSH1 0x40 MLOAD PUSH32 0x8C379A000000000000000000000000000000000000000000000000000000000 DUP2 MSTORE PUSH1 0x4 ADD PUSH2 0x2DC9 SWAP1 PUSH2 0x5282 JUMP JUMPDEST PUSH1 0x40 MLOAD DUP1 SWAP2 SUB SWAP1 REVERT JUMPDEST JUMPDEST PUSH2 0x2DDE DUP5 DUP5 DUP5 PUSH2 0x31EB JUMP JUMPDEST PUSH0 PUSH2 0x2DE8 ADDRESS PUSH2 0x1A1B JUMP JUMPDEST SWAP1 POP PUSH0 PUSH1 0x21 SLOAD DUP3 LT ISZERO SWAP1 POP PUSH1 0x23 PUSH0 SWAP1 SLOAD SWAP1 PUSH2 0x100 EXP SWAP1 DIV PUSH1 0xFF AND ISZERO DUP1 ISZERO PUSH2 0x2E1B JUMPI POP PUSH1 0x23 PUSH1 0x1 SWAP1 SLOAD SWAP1 PUSH2 0x100 EXP SWAP1 DIV PUSH1 0xFF AND JUMPDEST DUP1 ISZERO PUSH2 0x2E72 JUMPI POP PUSH32 0x0 PUSH20 0xFFFFFFFFFFFFFFFFFFFFFFFFFFFFFFFFFFFFFFFF AND DUP6 PUSH20 0xFFFFFFFFFFFFFFFFFFFFFFFFFFFFFFFFFFFFFFFF AND EQ JUMPDEST ISZERO PUSH2 0x2EE0 JUMPI DUP1 ISZERO PUSH2 0x2E8C JUMPI PUSH1 0x21 SLOAD SWAP2 POP PUSH2 0x2E8B DUP3 PUSH2 0x31F0 JUMP JUMPDEST JUMPDEST PUSH0 SELFBALANCE SWAP1 POP PUSH1 0x23 PUSH1 0x2 SWAP1 SLOAD SWAP1 PUSH2 0x100 EXP SWAP1 DIV PUSH1 0xFF AND DUP1 ISZERO PUSH2 0x2EB3 JUMPI POP PUSH8 0xDE0B6B3A7640000 DUP2 GT JUMPDEST ISZERO PUSH2 0x2EDE JUMPI PUSH1 0x22 SLOAD DUP2 GT ISZERO PUSH2 0x2EC8 JUMPI PUSH1 0x22 SLOAD SWAP1 POP JUMPDEST PUSH2 0x2EDD PUSH1 0x64 DUP3 PUSH2 0x2ED8 SWAP2 SWAP1 PUSH2 0x4A16 JUMP JUMPDEST PUSH2 0x34C3 JUMP JUMPDEST JUMPDEST POP JUMPDEST PUSH0 PUSH1 0x1 SWAP1 POP PUSH1 0x8 PUSH0 DUP9 PUSH20 0xFFFFFFFFFFFFFFFFFFFFFFFFFFFFFFFFFFFFFFFF AND PUSH20 0xFFFFFFFFFFFFFFFFFFFFFFFFFFFFFFFFFFFFFFFF AND DUP2 MSTORE PUSH1 0x20 ADD SWAP1 DUP2 MSTORE PUSH1 0x20 ADD PUSH0 KECCAK256 PUSH0 SWAP1 SLOAD SWAP1 PUSH2 0x100 EXP SWAP1 DIV PUSH1 0xFF AND DUP1 PUSH2 0x2F80 JUMPI POP PUSH1 0x8 PUSH0 DUP8 PUSH20 0xFFFFFFFFFFFFFFFFFFFFFFFFFFFFFFFFFFFFFFFF AND PUSH20 0xFFFFFFFFFFFFFFFFFFFFFFFFFFFFFFFFFFFFFFFF AND DUP2 MSTORE PUSH1 0x20 ADD SWAP1 DUP2 MSTORE PUSH1 0x20 ADD PUSH0 KECCAK256 PUSH0 SWAP1 SLOAD SWAP1 PUSH2 0x100 EXP SWAP1 DIV PUSH1 0xFF AND JUMPDEST ISZERO PUSH2 0x2F89 JUMPI PUSH0 SWAP1 POP JUMPDEST PUSH2 0x2F95 DUP8 DUP8 DUP8 DUP5 PUSH2 0x350B JUMP JUMPDEST POP POP POP POP POP POP POP JUMP JUMPDEST PUSH0 PUSH1 0xF SLOAD DUP3 GT ISZERO PUSH2 0x2FE4 JUMPI PUSH1 0x40 MLOAD PUSH32 0x8C379A000000000000000000000000000000000000000000000000000000000 DUP2 MSTORE PUSH1 0x4 ADD PUSH2 0x2FDB SWAP1 PUSH2 0x5310 JUMP JUMPDEST PUSH1 0x40 MLOAD DUP1 SWAP2 SUB SWAP1 REVERT JUMPDEST PUSH0 PUSH2 0x2FED PUSH2 0x31C9 JUMP JUMPDEST SWAP1 POP DUP1 DUP4 PUSH2 0x2FFB SWAP2 SWAP1 PUSH2 0x535B JUMP JUMPDEST SWAP2 POP POP SWAP2 SWAP1 POP JUMP JUMPDEST PUSH0 PUSH1 0x5 PUSH0 SWAP1 SLOAD SWAP1 PUSH2 0x100 EXP SWAP1 DIV PUSH20 0xFFFFFFFFFFFFFFFFFFFFFFFFFFFFFFFFFFFFFFFF AND SWAP1 POP DUP2 PUSH1 0x5 PUSH0 PUSH2 0x100 EXP DUP2 SLOAD DUP2 PUSH20 0xFFFFFFFFFFFFFFFFFFFFFFFFFFFFFFFFFFFFFFFF MUL NOT AND SWAP1 DUP4 PUSH20 0xFFFFFFFFFFFFFFFFFFFFFFFFFFFFFFFFFFFFFFFF AND MUL OR SWAP1 SSTORE POP DUP2 PUSH20 0xFFFFFFFFFFFFFFFFFFFFFFFFFFFFFFFFFFFFFFFF AND DUP2 PUSH20 0xFFFFFFFFFFFFFFFFFFFFFFFFFFFFFFFFFFFFFFFF AND PUSH32 0x8BE0079C531659141344CD1FD0A4F28419497F9722A3DAAFE3B4186F6B6457E0 PUSH1 0x40 MLOAD PUSH1 0x40 MLOAD DUP1 SWAP2 SUB SWAP1 LOG3 POP POP JUMP JUMPDEST PUSH0 PUSH1 0x13 SLOAD EQ DUP1 ISZERO PUSH2 0x30D8 JUMPI POP PUSH0 PUSH1 0x11 SLOAD EQ JUMPDEST PUSH2 0x314D JUMPI PUSH1 0x13 SLOAD PUSH1 0x14 DUP2 SWAP1 SSTORE POP PUSH1 0x15 SLOAD PUSH1 0x16 DUP2 SWAP1 SSTORE POP PUSH1 0x17 SLOAD PUSH1 0x18 DUP2 SWAP1 SSTORE POP PUSH1 0x11 SLOAD PUSH1 0x12 DUP2 SWAP1 SSTORE POP PUSH1 0x19 SLOAD PUSH1 0x1A DUP2 SWAP1 SSTORE POP PUSH1 0x1B SLOAD PUSH1 0x1C DUP2 SWAP1 SSTORE POP PUSH1 0x1D SLOAD PUSH1 0x1E DUP2 SWAP1 SSTORE POP PUSH0 PUSH1 0x13 DUP2 SWAP1 SSTORE POP PUSH0 PUSH1 0x15 DUP2 SWAP1 SSTORE POP PUSH0 PUSH1 0x17 DUP2 SWAP1 SSTORE POP PUSH0 PUSH1 0x11 DUP2 SWAP1 SSTORE POP PUSH0 PUSH1 0x19 DUP2 SWAP1 SSTORE POP PUSH0 PUSH1 0x1B DUP2 SWAP1 SSTORE POP PUSH0 PUSH1 0x1D DUP2 SWAP1 SSTORE POP JUMPDEST JUMP JUMPDEST PUSH1 0x14 SLOAD PUSH1 0x13 DUP2 SWAP1 SSTORE POP PUSH1 0x16 SLOAD PUSH1 0x15 DUP2 SWAP1 SSTORE POP PUSH1 0x18 SLOAD PUSH1 0x17 DUP2 SWAP1 SSTORE POP PUSH1 0x12 SLOAD PUSH1 0x11 DUP2 SWAP1 SSTORE POP PUSH1 0x1A SLOAD PUSH1 0x19 DUP2 SWAP1 SSTORE POP PUSH1 0x1C SLOAD PUSH1 0x1B DUP2 SWAP1 SSTORE POP PUSH1 0x1E SLOAD PUSH1 0x1D DUP2 SWAP1 SSTORE POP JUMP JUMPDEST PUSH0 DUP1 PUSH1 0x11 SLOAD PUSH1 0x13 SLOAD PUSH2 0x31A2 SWAP2 SWAP1 PUSH2 0x4A49 JUMP JUMPDEST SWAP1 POP PUSH0 PUSH1 0x64 DUP3 DUP6 PUSH2 0x31B3 SWAP2 SWAP1 PUSH2 0x4E7D JUMP JUMPDEST PUSH2 0x31BD SWAP2 SWAP1 PUSH2 0x535B JUMP JUMPDEST SWAP1 POP DUP1 SWAP3 POP POP POP SWAP2 SWAP1 POP JUMP JUMPDEST PUSH0 DUP1 PUSH0 PUSH2 0x31D4 PUSH2 0x3538 JUMP JUMPDEST SWAP2 POP SWAP2 POP DUP1 DUP3 PUSH2 0x31E4 SWAP2 SWAP1 PUSH2 0x535B JUMP JUMPDEST SWAP3 POP POP POP SWAP1 JUMP JUMPDEST POP POP POP JUMP JUMPDEST PUSH1 0x1 PUSH1 0x23 PUSH0 PUSH2 0x100 EXP DUP2 SLOAD DUP2 PUSH1 0xFF MUL NOT AND SWAP1 DUP4 ISZERO ISZERO MUL OR SWAP1 SSTORE POP PUSH0 SELFBALANCE SWAP1 POP PUSH0 PUSH1 0x13 SLOAD PUSH1 0x15 SLOAD DUP5 PUSH2 0x3220 SWAP2 SWAP1 PUSH2 0x4E7D JUMP JUMPDEST PUSH2 0x322A SWAP2 SWAP1 PUSH2 0x535B JUMP JUMPDEST SWAP1 POP PUSH0 PUSH1 0x2 DUP3 PUSH2 0x323A SWAP2 SWAP1 PUSH2 0x535B JUMP JUMPDEST SWAP1 POP PUSH0 DUP2 DUP4 PUSH2 0x3249 SWAP2 SWAP1 PUSH2 0x4A16 JUMP JUMPDEST SWAP1 POP PUSH2 0x325F DUP2 DUP7 PUSH2 0x325A SWAP2 SWAP1 PUSH2 0x4A16 JUMP JUMPDEST PUSH2 0x37B8 JUMP JUMPDEST PUSH0 DUP5 SELFBALANCE PUSH2 0x326C SWAP2 SWAP1 PUSH2 0x4A16 JUMP JUMPDEST SWAP1 POP PUSH2 0x32F1 PUSH1 0xB PUSH1 0x1 SWAP1 SLOAD SWAP1 PUSH2 0x100 EXP SWAP1 DIV PUSH20 0xFFFFFFFFFFFFFFFFFFFFFFFFFFFFFFFFFFFFFFFF AND PUSH1 0x2 PUSH1 0xA PUSH1 0x15 SLOAD PUSH2 0x32A5 SWAP2 SWAP1 PUSH2 0x4E7D JUMP JUMPDEST PUSH2 0x32AF SWAP2 SWAP1 PUSH2 0x535B JUMP JUMPDEST PUSH1 0xA PUSH1 0x13 SLOAD PUSH2 0x32BE SWAP2 SWAP1 PUSH2 0x4E7D JUMP JUMPDEST PUSH2 0x32C8 SWAP2 SWAP1 PUSH2 0x4A16 JUMP JUMPDEST PUSH1 0xA PUSH1 0x19 SLOAD PUSH2 0x32D7 SWAP2 SWAP1 PUSH2 0x4E7D JUMP JUMPDEST DUP5 PUSH2 0x32E2 SWAP2 SWAP1 PUSH2 0x4E7D JUMP JUMPDEST PUSH2 0x32EC SWAP2 SWAP1 PUSH2 0x535B JUMP JUMPDEST PUSH2 0x3A24 JUMP JUMPDEST PUSH2 0x3373 PUSH1 0xC PUSH0 SWAP1 SLOAD SWAP1 PUSH2 0x100 EXP SWAP1 DIV PUSH20 0xFFFFFFFFFFFFFFFFFFFFFFFFFFFFFFFFFFFFFFFF AND PUSH1 0x2 PUSH1 0xA PUSH1 0x15 SLOAD PUSH2 0x3327 SWAP2 SWAP1 PUSH2 0x4E7D JUMP JUMPDEST PUSH2 0x3331 SWAP2 SWAP1 PUSH2 0x535B JUMP JUMPDEST PUSH1 0xA PUSH1 0x13 SLOAD PUSH2 0x3340 SWAP2 SWAP1 PUSH2 0x4E7D JUMP JUMPDEST PUSH2 0x334A SWAP2 SWAP1 PUSH2 0x4A16 JUMP JUMPDEST PUSH1 0xA PUSH1 0x1B SLOAD PUSH2 0x3359 SWAP2 SWAP1 PUSH2 0x4E7D JUMP JUMPDEST DUP5 PUSH2 0x3364 SWAP2 SWAP1 PUSH2 0x4E7D JUMP JUMPDEST PUSH2 0x336E SWAP2 SWAP1 PUSH2 0x535B JUMP JUMPDEST PUSH2 0x3A24 JUMP JUMPDEST PUSH2 0x33F5 PUSH1 0xD PUSH0 SWAP1 SLOAD SWAP1 PUSH2 0x100 EXP SWAP1 DIV PUSH20 0xFFFFFFFFFFFFFFFFFFFFFFFFFFFFFFFFFFFFFFFF AND PUSH1 0x2 PUSH1 0xA PUSH1 0x15 SLOAD PUSH2 0x33A9 SWAP2 SWAP1 PUSH2 0x4E7D JUMP JUMPDEST PUSH2 0x33B3 SWAP2 SWAP1 PUSH2 0x535B JUMP JUMPDEST PUSH1 0xA PUSH1 0x13 SLOAD PUSH2 0x33C2 SWAP2 SWAP1 PUSH2 0x4E7D JUMP JUMPDEST PUSH2 0x33CC SWAP2 SWAP1 PUSH2 0x4A16 JUMP JUMPDEST PUSH1 0xA PUSH1 0x1D SLOAD PUSH2 0x33DB SWAP2 SWAP1 PUSH2 0x4E7D JUMP JUMPDEST DUP5 PUSH2 0x33E6 SWAP2 SWAP1 PUSH2 0x4E7D JUMP JUMPDEST PUSH2 0x33F0 SWAP2 SWAP1 PUSH2 0x535B JUMP JUMPDEST PUSH2 0x3A24 JUMP JUMPDEST PUSH0 PUSH1 0x2 PUSH1 0xA PUSH1 0x15 SLOAD PUSH2 0x3407 SWAP2 SWAP1 PUSH2 0x4E7D JUMP JUMPDEST PUSH2 0x3411 SWAP2 SWAP1 PUSH2 0x535B JUMP JUMPDEST PUSH1 0xA PUSH1 0x13 SLOAD PUSH2 0x3420 SWAP2 SWAP1 PUSH2 0x4E7D JUMP JUMPDEST PUSH2 0x342A SWAP2 SWAP1 PUSH2 0x4A16 JUMP JUMPDEST PUSH1 0x2 PUSH1 0xA PUSH1 0x15 SLOAD PUSH2 0x343B SWAP2 SWAP1 PUSH2 0x4E7D JUMP JUMPDEST PUSH2 0x3445 SWAP2 SWAP1 PUSH2 0x535B JUMP JUMPDEST DUP4 PUSH2 0x3450 SWAP2 SWAP1 PUSH2 0x4E7D JUMP JUMPDEST PUSH2 0x345A SWAP2 SWAP1 PUSH2 0x535B JUMP JUMPDEST SWAP1 POP PUSH2 0x3466 DUP4 DUP3 PUSH2 0x3A6C JUMP JUMPDEST PUSH32 0x17BBFB9A6069321B6DED73BD96327C9E6B7212A5CD51FF219CD61370ACAFB561 DUP5 DUP3 DUP6 PUSH1 0x40 MLOAD PUSH2 0x3499 SWAP4 SWAP3 SWAP2 SWAP1 PUSH2 0x538B JUMP JUMPDEST PUSH1 0x40 MLOAD DUP1 SWAP2 SUB SWAP1 LOG1 POP POP POP POP POP POP PUSH0 PUSH1 0x23 PUSH0 PUSH2 0x100 EXP DUP2 SLOAD DUP2 PUSH1 0xFF MUL NOT AND SWAP1 DUP4 ISZERO ISZERO MUL OR SWAP1 SSTORE POP POP JUMP JUMPDEST PUSH1 0x1 PUSH1 0x23 PUSH0 PUSH2 0x100 EXP DUP2 SLOAD DUP2 PUSH1 0xFF MUL NOT AND SWAP1 DUP4 ISZERO ISZERO MUL OR SWAP1 SSTORE POP PUSH0 DUP2 GT ISZERO PUSH2 0x34EF JUMPI PUSH2 0x34EE DUP2 PUSH2 0x3B4A JUMP JUMPDEST JUMPDEST PUSH0 PUSH1 0x23 PUSH0 PUSH2 0x100 EXP DUP2 SLOAD DUP2 PUSH1 0xFF MUL NOT AND SWAP1 DUP4 ISZERO ISZERO MUL OR SWAP1 SSTORE POP POP JUMP JUMPDEST DUP1 PUSH2 0x3519 JUMPI PUSH2 0x3518 PUSH2 0x30C6 JUMP JUMPDEST JUMPDEST PUSH2 0x3524 DUP5 DUP5 DUP5 PUSH2 0x3DB8 JUMP JUMPDEST DUP1 PUSH2 0x3532 JUMPI PUSH2 0x3531 PUSH2 0x314F JUMP JUMPDEST JUMPDEST POP POP POP POP JUMP JUMPDEST PUSH0 DUP1 PUSH0 PUSH1 0xF SLOAD SWAP1 POP PUSH0 PUSH1 0xE SLOAD SWAP1 POP PUSH0 JUMPDEST PUSH1 0xA DUP1 SLOAD SWAP1 POP DUP2 LT ISZERO PUSH2 0x3782 JUMPI DUP3 PUSH1 0x6 PUSH0 PUSH1 0xA DUP5 DUP2 SLOAD DUP2 LT PUSH2 0x356D JUMPI PUSH2 0x356C PUSH2 0x4E23 JUMP JUMPDEST JUMPDEST SWAP1 PUSH0 MSTORE PUSH1 0x20 PUSH0 KECCAK256 ADD PUSH0 SWAP1 SLOAD SWAP1 PUSH2 0x100 EXP SWAP1 DIV PUSH20 0xFFFFFFFFFFFFFFFFFFFFFFFFFFFFFFFFFFFFFFFF AND PUSH20 0xFFFFFFFFFFFFFFFFFFFFFFFFFFFFFFFFFFFFFFFF AND PUSH20 0xFFFFFFFFFFFFFFFFFFFFFFFFFFFFFFFFFFFFFFFF AND DUP2 MSTORE PUSH1 0x20 ADD SWAP1 DUP2 MSTORE PUSH1 0x20 ADD PUSH0 KECCAK256 SLOAD GT DUP1 PUSH2 0x3652 JUMPI POP DUP2 PUSH1 0x7 PUSH0 PUSH1 0xA DUP5 DUP2 SLOAD DUP2 LT PUSH2 0x35EE JUMPI PUSH2 0x35ED PUSH2 0x4E23 JUMP JUMPDEST JUMPDEST SWAP1 PUSH0 MSTORE PUSH1 0x20 PUSH0 KECCAK256 ADD PUSH0 SWAP1 SLOAD SWAP1 PUSH2 0x100 EXP SWAP1 DIV PUSH20 0xFFFFFFFFFFFFFFFFFFFFFFFFFFFFFFFFFFFFFFFF AND PUSH20 0xFFFFFFFFFFFFFFFFFFFFFFFFFFFFFFFFFFFFFFFF AND PUSH20 0xFFFFFFFFFFFFFFFFFFFFFFFFFFFFFFFFFFFFFFFF AND DUP2 MSTORE PUSH1 0x20 ADD SWAP1 DUP2 MSTORE PUSH1 0x20 ADD PUSH0 KECCAK256 SLOAD GT JUMPDEST ISZERO PUSH2 0x3669 JUMPI PUSH1 0xF SLOAD PUSH1 0xE SLOAD SWAP5 POP SWAP5 POP POP POP POP PUSH2 0x37B4 JUMP JUMPDEST PUSH1 0x6 PUSH0 PUSH1 0xA DUP4 DUP2 SLOAD DUP2 LT PUSH2 0x3680 JUMPI PUSH2 0x367F PUSH2 0x4E23 JUMP JUMPDEST JUMPDEST SWAP1 PUSH0 MSTORE PUSH1 0x20 PUSH0 KECCAK256 ADD PUSH0 SWAP1 SLOAD SWAP1 PUSH2 0x100 EXP SWAP1 DIV PUSH20 0xFFFFFFFFFFFFFFFFFFFFFFFFFFFFFFFFFFFFFFFF AND PUSH20 0xFFFFFFFFFFFFFFFFFFFFFFFFFFFFFFFFFFFFFFFF AND PUSH20 0xFFFFFFFFFFFFFFFFFFFFFFFFFFFFFFFFFFFFFFFF AND DUP2 MSTORE PUSH1 0x20 ADD SWAP1 DUP2 MSTORE PUSH1 0x20 ADD PUSH0 KECCAK256 SLOAD DUP4 PUSH2 0x36ED SWAP2 SWAP1 PUSH2 0x4A16 JUMP JUMPDEST SWAP3 POP PUSH1 0x7 PUSH0 PUSH1 0xA DUP4 DUP2 SLOAD DUP2 LT PUSH2 0x3706 JUMPI PUSH2 0x3705 PUSH2 0x4E23 JUMP JUMPDEST JUMPDEST SWAP1 PUSH0 MSTORE PUSH1 0x20 PUSH0 KECCAK256 ADD PUSH0 SWAP1 SLOAD SWAP1 PUSH2 0x100 EXP SWAP1 DIV PUSH20 0xFFFFFFFFFFFFFFFFFFFFFFFFFFFFFFFFFFFFFFFF AND PUSH20 0xFFFFFFFFFFFFFFFFFFFFFFFFFFFFFFFFFFFFFFFF AND PUSH20 0xFFFFFFFFFFFFFFFFFFFFFFFFFFFFFFFFFFFFFFFF AND DUP2 MSTORE PUSH1 0x20 ADD SWAP1 DUP2 MSTORE PUSH1 0x20 ADD PUSH0 KECCAK256 SLOAD DUP3 PUSH2 0x3773 SWAP2 SWAP1 PUSH2 0x4A16 JUMP JUMPDEST SWAP2 POP DUP1 DUP1 PUSH1 0x1 ADD SWAP2 POP POP PUSH2 0x3548 JUMP JUMPDEST POP PUSH1 0xE SLOAD PUSH1 0xF SLOAD PUSH2 0x3793 SWAP2 SWAP1 PUSH2 0x535B JUMP JUMPDEST DUP3 LT ISZERO PUSH2 0x37AB JUMPI PUSH1 0xF SLOAD PUSH1 0xE SLOAD SWAP4 POP SWAP4 POP POP POP PUSH2 0x37B4 JUMP JUMPDEST DUP2 DUP2 SWAP4 POP SWAP4 POP POP POP JUMPDEST SWAP1 SWAP2 JUMP JUMPDEST PUSH0 PUSH1 0x2 PUSH8 0xFFFFFFFFFFFFFFFF DUP2 GT ISZERO PUSH2 0x37D4 JUMPI PUSH2 0x37D3 PUSH2 0x53C0 JUMP JUMPDEST JUMPDEST PUSH1 0x40 MLOAD SWAP1 DUP1 DUP3 MSTORE DUP1 PUSH1 0x20 MUL PUSH1 0x20 ADD DUP3 ADD PUSH1 0x40 MSTORE DUP1 ISZERO PUSH2 0x3802 JUMPI DUP2 PUSH1 0x20 ADD PUSH1 0x20 DUP3 MUL DUP1 CALLDATASIZE DUP4 CALLDATACOPY DUP1 DUP3 ADD SWAP2 POP POP SWAP1 POP JUMPDEST POP SWAP1 POP ADDRESS DUP2 PUSH0 DUP2 MLOAD DUP2 LT PUSH2 0x3819 JUMPI PUSH2 0x3818 PUSH2 0x4E23 JUMP JUMPDEST JUMPDEST PUSH1 0x20 MUL PUSH1 0x20 ADD ADD SWAP1 PUSH20 0xFFFFFFFFFFFFFFFFFFFFFFFFFFFFFFFFFFFFFFFF AND SWAP1 DUP2 PUSH20 0xFFFFFFFFFFFFFFFFFFFFFFFFFFFFFFFFFFFFFFFF AND DUP2 MSTORE POP POP PUSH32 0x0 PUSH20 0xFFFFFFFFFFFFFFFFFFFFFFFFFFFFFFFFFFFFFFFF AND PUSH4 0xAD5C4648 PUSH1 0x40 MLOAD DUP2 PUSH4 0xFFFFFFFF AND PUSH1 0xE0 SHL DUP2 MSTORE PUSH1 0x4 ADD PUSH1 0x20 PUSH1 0x40 MLOAD DUP1 DUP4 SUB DUP2 DUP7 GAS STATICCALL ISZERO DUP1 ISZERO PUSH2 0x38BC JUMPI RETURNDATASIZE PUSH0 DUP1 RETURNDATACOPY RETURNDATASIZE PUSH0 REVERT JUMPDEST POP POP POP POP PUSH1 0x40 MLOAD RETURNDATASIZE PUSH1 0x1F NOT PUSH1 0x1F DUP3 ADD AND DUP3 ADD DUP1 PUSH1 0x40 MSTORE POP DUP2 ADD SWAP1 PUSH2 0x38E0 SWAP2 SWAP1 PUSH2 0x5401 JUMP JUMPDEST DUP2 PUSH1 0x1 DUP2 MLOAD DUP2 LT PUSH2 0x38F4 JUMPI PUSH2 0x38F3 PUSH2 0x4E23 JUMP JUMPDEST JUMPDEST PUSH1 0x20 MUL PUSH1 0x20 ADD ADD SWAP1 PUSH20 0xFFFFFFFFFFFFFFFFFFFFFFFFFFFFFFFFFFFFFFFF AND SWAP1 DUP2 PUSH20 0xFFFFFFFFFFFFFFFFFFFFFFFFFFFFFFFFFFFFFFFF AND DUP2 MSTORE POP POP PUSH2 0x3959 ADDRESS PUSH32 0x0 DUP5 PUSH2 0x29E2 JUMP JUMPDEST PUSH32 0x0 PUSH20 0xFFFFFFFFFFFFFFFFFFFFFFFFFFFFFFFFFFFFFFFF AND PUSH4 0x791AC947 DUP4 PUSH0 DUP5 ADDRESS TIMESTAMP PUSH1 0x40 MLOAD DUP7 PUSH4 0xFFFFFFFF AND PUSH1 0xE0 SHL DUP2 MSTORE PUSH1 0x4 ADD PUSH2 0x39BA SWAP6 SWAP5 SWAP4 SWAP3 SWAP2 SWAP1 PUSH2 0x551C JUMP JUMPDEST PUSH0 PUSH1 0x40 MLOAD DUP1 DUP4 SUB DUP2 PUSH0 DUP8 DUP1 EXTCODESIZE ISZERO DUP1 ISZERO PUSH2 0x39D1 JUMPI PUSH0 DUP1 REVERT JUMPDEST POP GAS CALL ISZERO DUP1 ISZERO PUSH2 0x39E3 JUMPI RETURNDATASIZE PUSH0 DUP1 RETURNDATACOPY RETURNDATASIZE PUSH0 REVERT JUMPDEST POP POP POP POP PUSH32 0x32CDE87EB454F3A0B875AB23547023107CFAD454363EC88BA5695E2C24AA52A7 DUP3 DUP3 PUSH1 0x40 MLOAD PUSH2 0x3A18 SWAP3 SWAP2 SWAP1 PUSH2 0x5574 JUMP JUMPDEST PUSH1 0x40 MLOAD DUP1 SWAP2 SUB SWAP1 LOG1 POP POP JUMP JUMPDEST DUP2 PUSH20 0xFFFFFFFFFFFFFFFFFFFFFFFFFFFFFFFFFFFFFFFF AND PUSH2 0x8FC DUP3 SWAP1 DUP2 ISZERO MUL SWAP1 PUSH1 0x40 MLOAD PUSH0 PUSH1 0x40 MLOAD DUP1 DUP4 SUB DUP2 DUP6 DUP9 DUP9 CALL SWAP4 POP POP POP POP ISZERO DUP1 ISZERO PUSH2 0x3A67 JUMPI RETURNDATASIZE PUSH0 DUP1 RETURNDATACOPY RETURNDATASIZE PUSH0 REVERT JUMPDEST POP POP POP JUMP JUMPDEST PUSH2 0x3A97 ADDRESS PUSH32 0x0 DUP5 PUSH2 0x29E2 JUMP JUMPDEST PUSH32 0x0 PUSH20 0xFFFFFFFFFFFFFFFFFFFFFFFFFFFFFFFFFFFFFFFF AND PUSH4 0xF305D719 DUP3 ADDRESS DUP6 PUSH0 DUP1 PUSH2 0x3AE0 PUSH2 0x1C17 JUMP JUMPDEST TIMESTAMP PUSH1 0x40 MLOAD DUP9 PUSH4 0xFFFFFFFF AND PUSH1 0xE0 SHL DUP2 MSTORE PUSH1 0x4 ADD PUSH2 0x3B02 SWAP7 SWAP6 SWAP5 SWAP4 SWAP3 SWAP2 SWAP1 PUSH2 0x55A2 JUMP JUMPDEST PUSH1 0x60 PUSH1 0x40 MLOAD DUP1 DUP4 SUB DUP2 DUP6 DUP9 GAS CALL ISZERO DUP1 ISZERO PUSH2 0x3B1E JUMPI RETURNDATASIZE PUSH0 DUP1 RETURNDATACOPY RETURNDATASIZE PUSH0 REVERT JUMPDEST POP POP POP POP POP PUSH1 0x40 MLOAD RETURNDATASIZE PUSH1 0x1F NOT PUSH1 0x1F DUP3 ADD AND DUP3 ADD DUP1 PUSH1 0x40 MSTORE POP DUP2 ADD SWAP1 PUSH2 0x3B43 SWAP2 SWAP1 PUSH2 0x5615 JUMP JUMPDEST POP POP POP POP POP JUMP JUMPDEST PUSH0 PUSH1 0x2 PUSH8 0xFFFFFFFFFFFFFFFF DUP2 GT ISZERO PUSH2 0x3B66 JUMPI PUSH2 0x3B65 PUSH2 0x53C0 JUMP JUMPDEST JUMPDEST PUSH1 0x40 MLOAD SWAP1 DUP1 DUP3 MSTORE DUP1 PUSH1 0x20 MUL PUSH1 0x20 ADD DUP3 ADD PUSH1 0x40 MSTORE DUP1 ISZERO PUSH2 0x3B94 JUMPI DUP2 PUSH1 0x20 ADD PUSH1 0x20 DUP3 MUL DUP1 CALLDATASIZE DUP4 CALLDATACOPY DUP1 DUP3 ADD SWAP2 POP POP SWAP1 POP JUMPDEST POP SWAP1 POP PUSH32 0x0 PUSH20 0xFFFFFFFFFFFFFFFFFFFFFFFFFFFFFFFFFFFFFFFF AND PUSH4 0xAD5C4648 PUSH1 0x40 MLOAD DUP2 PUSH4 0xFFFFFFFF AND PUSH1 0xE0 SHL DUP2 MSTORE PUSH1 0x4 ADD PUSH1 0x20 PUSH1 0x40 MLOAD DUP1 DUP4 SUB DUP2 DUP7 GAS STATICCALL ISZERO DUP1 ISZERO PUSH2 0x3C00 JUMPI RETURNDATASIZE PUSH0 DUP1 RETURNDATACOPY RETURNDATASIZE PUSH0 REVERT JUMPDEST POP POP POP POP PUSH1 0x40 MLOAD RETURNDATASIZE PUSH1 0x1F NOT PUSH1 0x1F DUP3 ADD AND DUP3 ADD DUP1 PUSH1 0x40 MSTORE POP DUP2 ADD SWAP1 PUSH2 0x3C24 SWAP2 SWAP1 PUSH2 0x5401 JUMP JUMPDEST DUP2 PUSH0 DUP2 MLOAD DUP2 LT PUSH2 0x3C37 JUMPI PUSH2 0x3C36 PUSH2 0x4E23 JUMP JUMPDEST JUMPDEST PUSH1 0x20 MUL PUSH1 0x20 ADD ADD SWAP1 PUSH20 0xFFFFFFFFFFFFFFFFFFFFFFFFFFFFFFFFFFFFFFFF AND SWAP1 DUP2 PUSH20 0xFFFFFFFFFFFFFFFFFFFFFFFFFFFFFFFFFFFFFFFF AND DUP2 MSTORE POP POP ADDRESS DUP2 PUSH1 0x1 DUP2 MLOAD DUP2 LT PUSH2 0x3C86 JUMPI PUSH2 0x3C85 PUSH2 0x4E23 JUMP JUMPDEST JUMPDEST PUSH1 0x20 MUL PUSH1 0x20 ADD ADD SWAP1 PUSH20 0xFFFFFFFFFFFFFFFFFFFFFFFFFFFFFFFFFFFFFFFF AND SWAP1 DUP2 PUSH20 0xFFFFFFFFFFFFFFFFFFFFFFFFFFFFFFFFFFFFFFFF AND DUP2 MSTORE POP POP PUSH32 0x0 PUSH20 0xFFFFFFFFFFFFFFFFFFFFFFFFFFFFFFFFFFFFFFFF AND PUSH4 0xB6F9DE95 DUP4 PUSH0 DUP5 PUSH32 0x0 PUSH2 0x12C TIMESTAMP PUSH2 0x3D2E SWAP2 SWAP1 PUSH2 0x4A49 JUMP JUMPDEST PUSH1 0x40 MLOAD DUP7 PUSH4 0xFFFFFFFF AND PUSH1 0xE0 SHL DUP2 MSTORE PUSH1 0x4 ADD PUSH2 0x3D4D SWAP5 SWAP4 SWAP3 SWAP2 SWAP1 PUSH2 0x5665 JUMP JUMPDEST PUSH0 PUSH1 0x40 MLOAD DUP1 DUP4 SUB DUP2 DUP6 DUP9 DUP1 EXTCODESIZE ISZERO DUP1 ISZERO PUSH2 0x3D64 JUMPI PUSH0 DUP1 REVERT JUMPDEST POP GAS CALL ISZERO DUP1 ISZERO PUSH2 0x3D76 JUMPI RETURNDATASIZE PUSH0 DUP1 RETURNDATACOPY RETURNDATASIZE PUSH0 REVERT JUMPDEST POP POP POP POP POP PUSH32 0x6FD378A9D8B7345C2E5B18229AAF1E39D32B177B501D0A0D26A0A858A23A9624 DUP3 DUP3 PUSH1 0x40 MLOAD PUSH2 0x3DAC SWAP3 SWAP2 SWAP1 PUSH2 0x5574 JUMP JUMPDEST PUSH1 0x40 MLOAD DUP1 SWAP2 SUB SWAP1 LOG1 POP POP JUMP JUMPDEST PUSH0 DUP1 PUSH0 DUP1 PUSH2 0x3DC5 DUP6 PUSH2 0x2982 JUMP JUMPDEST SWAP4 POP SWAP4 POP SWAP4 POP SWAP4 POP DUP4 PUSH1 0x6 PUSH0 DUP10 PUSH20 0xFFFFFFFFFFFFFFFFFFFFFFFFFFFFFFFFFFFFFFFF AND PUSH20 0xFFFFFFFFFFFFFFFFFFFFFFFFFFFFFFFFFFFFFFFF AND DUP2 MSTORE PUSH1 0x20 ADD SWAP1 DUP2 MSTORE PUSH1 0x20 ADD PUSH0 KECCAK256 SLOAD PUSH2 0x3E16 SWAP2 SWAP1 PUSH2 0x4A16 JUMP JUMPDEST PUSH1 0x6 PUSH0 DUP10 PUSH20 0xFFFFFFFFFFFFFFFFFFFFFFFFFFFFFFFFFFFFFFFF AND PUSH20 0xFFFFFFFFFFFFFFFFFFFFFFFFFFFFFFFFFFFFFFFF AND DUP2 MSTORE PUSH1 0x20 ADD SWAP1 DUP2 MSTORE PUSH1 0x20 ADD PUSH0 KECCAK256 DUP2 SWAP1 SSTORE POP DUP3 PUSH1 0x6 PUSH0 DUP9 PUSH20 0xFFFFFFFFFFFFFFFFFFFFFFFFFFFFFFFFFFFFFFFF AND PUSH20 0xFFFFFFFFFFFFFFFFFFFFFFFFFFFFFFFFFFFFFFFF AND DUP2 MSTORE PUSH1 0x20 ADD SWAP1 DUP2 MSTORE PUSH1 0x20 ADD PUSH0 KECCAK256 SLOAD PUSH2 0x3EA0 SWAP2 SWAP1 PUSH2 0x4A49 JUMP JUMPDEST PUSH1 0x6 PUSH0 DUP9 PUSH20 0xFFFFFFFFFFFFFFFFFFFFFFFFFFFFFFFFFFFFFFFF AND PUSH20 0xFFFFFFFFFFFFFFFFFFFFFFFFFFFFFFFFFFFFFFFF AND DUP2 MSTORE PUSH1 0x20 ADD SWAP1 DUP2 MSTORE PUSH1 0x20 ADD PUSH0 KECCAK256 DUP2 SWAP1 SSTORE POP PUSH1 0x9 PUSH0 DUP9 PUSH20 0xFFFFFFFFFFFFFFFFFFFFFFFFFFFFFFFFFFFFFFFF AND PUSH20 0xFFFFFFFFFFFFFFFFFFFFFFFFFFFFFFFFFFFFFFFF AND DUP2 MSTORE PUSH1 0x20 ADD SWAP1 DUP2 MSTORE PUSH1 0x20 ADD PUSH0 KECCAK256 PUSH0 SWAP1 SLOAD SWAP1 PUSH2 0x100 EXP SWAP1 DIV PUSH1 0xFF AND DUP1 ISZERO PUSH2 0x3F7E JUMPI POP PUSH1 0x9 PUSH0 DUP8 PUSH20 0xFFFFFFFFFFFFFFFFFFFFFFFFFFFFFFFFFFFFFFFF AND PUSH20 0xFFFFFFFFFFFFFFFFFFFFFFFFFFFFFFFFFFFFFFFF AND DUP2 MSTORE PUSH1 0x20 ADD SWAP1 DUP2 MSTORE PUSH1 0x20 ADD PUSH0 KECCAK256 PUSH0 SWAP1 SLOAD SWAP1 PUSH2 0x100 EXP SWAP1 DIV PUSH1 0xFF AND ISZERO JUMPDEST ISZERO PUSH2 0x4012 JUMPI DUP5 PUSH1 0x7 PUSH0 DUP10 PUSH20 0xFFFFFFFFFFFFFFFFFFFFFFFFFFFFFFFFFFFFFFFF AND PUSH20 0xFFFFFFFFFFFFFFFFFFFFFFFFFFFFFFFFFFFFFFFF AND DUP2 MSTORE PUSH1 0x20 ADD SWAP1 DUP2 MSTORE PUSH1 0x20 ADD PUSH0 KECCAK256 SLOAD PUSH2 0x3FCC SWAP2 SWAP1 PUSH2 0x4A16 JUMP JUMPDEST PUSH1 0x7 PUSH0 DUP10 PUSH20 0xFFFFFFFFFFFFFFFFFFFFFFFFFFFFFFFFFFFFFFFF AND PUSH20 0xFFFFFFFFFFFFFFFFFFFFFFFFFFFFFFFFFFFFFFFF AND DUP2 MSTORE PUSH1 0x20 ADD SWAP1 DUP2 MSTORE PUSH1 0x20 ADD PUSH0 KECCAK256 DUP2 SWAP1 SSTORE POP PUSH2 0x42FB JUMP JUMPDEST PUSH1 0x9 PUSH0 DUP9 PUSH20 0xFFFFFFFFFFFFFFFFFFFFFFFFFFFFFFFFFFFFFFFF AND PUSH20 0xFFFFFFFFFFFFFFFFFFFFFFFFFFFFFFFFFFFFFFFF AND DUP2 MSTORE PUSH1 0x20 ADD SWAP1 DUP2 MSTORE PUSH1 0x20 ADD PUSH0 KECCAK256 PUSH0 SWAP1 SLOAD SWAP1 PUSH2 0x100 EXP SWAP1 DIV PUSH1 0xFF AND ISZERO DUP1 ISZERO PUSH2 0x40AF JUMPI POP PUSH1 0x9 PUSH0 DUP8 PUSH20 0xFFFFFFFFFFFFFFFFFFFFFFFFFFFFFFFFFFFFFFFF AND PUSH20 0xFFFFFFFFFFFFFFFFFFFFFFFFFFFFFFFFFFFFFFFF AND DUP2 MSTORE PUSH1 0x20 ADD SWAP1 DUP2 MSTORE PUSH1 0x20 ADD PUSH0 KECCAK256 PUSH0 SWAP1 SLOAD SWAP1 PUSH2 0x100 EXP SWAP1 DIV PUSH1 0xFF AND JUMPDEST ISZERO PUSH2 0x4143 JUMPI DUP2 PUSH1 0x7 PUSH0 DUP9 PUSH20 0xFFFFFFFFFFFFFFFFFFFFFFFFFFFFFFFFFFFFFFFF AND PUSH20 0xFFFFFFFFFFFFFFFFFFFFFFFFFFFFFFFFFFFFFFFF AND DUP2 MSTORE PUSH1 0x20 ADD SWAP1 DUP2 MSTORE PUSH1 0x20 ADD PUSH0 KECCAK256 SLOAD PUSH2 0x40FD SWAP2 SWAP1 PUSH2 0x4A49 JUMP JUMPDEST PUSH1 0x7 PUSH0 DUP9 PUSH20 0xFFFFFFFFFFFFFFFFFFFFFFFFFFFFFFFFFFFFFFFF AND PUSH20 0xFFFFFFFFFFFFFFFFFFFFFFFFFFFFFFFFFFFFFFFF AND DUP2 MSTORE PUSH1 0x20 ADD SWAP1 DUP2 MSTORE PUSH1 0x20 ADD PUSH0 KECCAK256 DUP2 SWAP1 SSTORE POP PUSH2 0x42FA JUMP JUMPDEST PUSH1 0x9 PUSH0 DUP9 PUSH20 0xFFFFFFFFFFFFFFFFFFFFFFFFFFFFFFFFFFFFFFFF AND PUSH20 0xFFFFFFFFFFFFFFFFFFFFFFFFFFFFFFFFFFFFFFFF AND DUP2 MSTORE PUSH1 0x20 ADD SWAP1 DUP2 MSTORE PUSH1 0x20 ADD PUSH0 KECCAK256 PUSH0 SWAP1 SLOAD SWAP1 PUSH2 0x100 EXP SWAP1 DIV PUSH1 0xFF AND DUP1 ISZERO PUSH2 0x41DF JUMPI POP PUSH1 0x9 PUSH0 DUP8 PUSH20 0xFFFFFFFFFFFFFFFFFFFFFFFFFFFFFFFFFFFFFFFF AND PUSH20 0xFFFFFFFFFFFFFFFFFFFFFFFFFFFFFFFFFFFFFFFF AND DUP2 MSTORE PUSH1 0x20 ADD SWAP1 DUP2 MSTORE PUSH1 0x20 ADD PUSH0 KECCAK256 PUSH0 SWAP1 SLOAD SWAP1 PUSH2 0x100 EXP SWAP1 DIV PUSH1 0xFF AND JUMPDEST ISZERO PUSH2 0x42F9 JUMPI DUP5 PUSH1 0x7 PUSH0 DUP10 PUSH20 0xFFFFFFFFFFFFFFFFFFFFFFFFFFFFFFFFFFFFFFFF AND PUSH20 0xFFFFFFFFFFFFFFFFFFFFFFFFFFFFFFFFFFFFFFFF AND DUP2 MSTORE PUSH1 0x20 ADD SWAP1 DUP2 MSTORE PUSH1 0x20 ADD PUSH0 KECCAK256 SLOAD PUSH2 0x422D SWAP2 SWAP1 PUSH2 0x4A16 JUMP JUMPDEST PUSH1 0x7 PUSH0 DUP10 PUSH20 0xFFFFFFFFFFFFFFFFFFFFFFFFFFFFFFFFFFFFFFFF AND PUSH20 0xFFFFFFFFFFFFFFFFFFFFFFFFFFFFFFFFFFFFFFFF AND DUP2 MSTORE PUSH1 0x20 ADD SWAP1 DUP2 MSTORE PUSH1 0x20 ADD PUSH0 KECCAK256 DUP2 SWAP1 SSTORE POP DUP2 PUSH1 0x7 PUSH0 DUP9 PUSH20 0xFFFFFFFFFFFFFFFFFFFFFFFFFFFFFFFFFFFFFFFF AND PUSH20 0xFFFFFFFFFFFFFFFFFFFFFFFFFFFFFFFFFFFFFFFF AND DUP2 MSTORE PUSH1 0x20 ADD SWAP1 DUP2 MSTORE PUSH1 0x20 ADD PUSH0 KECCAK256 SLOAD PUSH2 0x42B7 SWAP2 SWAP1 PUSH2 0x4A49 JUMP JUMPDEST PUSH1 0x7 PUSH0 DUP9 PUSH20 0xFFFFFFFFFFFFFFFFFFFFFFFFFFFFFFFFFFFFFFFF AND PUSH20 0xFFFFFFFFFFFFFFFFFFFFFFFFFFFFFFFFFFFFFFFF AND DUP2 MSTORE PUSH1 0x20 ADD SWAP1 DUP2 MSTORE PUSH1 0x20 ADD PUSH0 KECCAK256 DUP2 SWAP1 SSTORE POP JUMPDEST JUMPDEST JUMPDEST PUSH2 0x4305 DUP6 DUP3 PUSH2 0x4382 JUMP JUMPDEST PUSH2 0x4314 DUP8 DUP7 DUP4 PUSH1 0x13 SLOAD ADDRESS PUSH2 0x43DC JUMP JUMPDEST DUP6 PUSH20 0xFFFFFFFFFFFFFFFFFFFFFFFFFFFFFFFFFFFFFFFF AND DUP8 PUSH20 0xFFFFFFFFFFFFFFFFFFFFFFFFFFFFFFFFFFFFFFFF AND PUSH32 0xDDF252AD1BE2C89B69C2B068FC378DAA952BA7F163C4A11628F55A4DF523B3EF DUP5 PUSH1 0x40 MLOAD PUSH2 0x4371 SWAP2 SWAP1 PUSH2 0x478C JUMP JUMPDEST PUSH1 0x40 MLOAD DUP1 SWAP2 SUB SWAP1 LOG3 POP POP POP POP POP POP POP JUMP JUMPDEST PUSH0 PUSH1 0x64 PUSH1 0x11 SLOAD DUP5 PUSH2 0x4393 SWAP2 SWAP1 PUSH2 0x4E7D JUMP JUMPDEST PUSH2 0x439D SWAP2 SWAP1 PUSH2 0x535B JUMP JUMPDEST SWAP1 POP PUSH0 DUP3 DUP3 PUSH2 0x43AC SWAP2 SWAP1 PUSH2 0x4E7D JUMP JUMPDEST SWAP1 POP DUP1 PUSH1 0xF SLOAD PUSH2 0x43BC SWAP2 SWAP1 PUSH2 0x4A16 JUMP JUMPDEST PUSH1 0xF DUP2 SWAP1 SSTORE POP DUP2 PUSH1 0x10 SLOAD PUSH2 0x43D0 SWAP2 SWAP1 PUSH2 0x4A49 JUMP JUMPDEST PUSH1 0x10 DUP2 SWAP1 SSTORE POP POP POP POP POP JUMP JUMPDEST PUSH0 PUSH1 0x64 DUP4 DUP7 PUSH2 0x43EB SWAP2 SWAP1 PUSH2 0x4E7D JUMP JUMPDEST PUSH2 0x43F5 SWAP2 SWAP1 PUSH2 0x535B JUMP JUMPDEST SWAP1 POP PUSH0 DUP2 GT ISZERO PUSH2 0x44FF JUMPI PUSH0 DUP5 DUP3 PUSH2 0x440C SWAP2 SWAP1 PUSH2 0x4E7D JUMP JUMPDEST SWAP1 POP DUP1 PUSH1 0x6 PUSH0 DUP6 PUSH20 0xFFFFFFFFFFFFFFFFFFFFFFFFFFFFFFFFFFFFFFFF AND PUSH20 0xFFFFFFFFFFFFFFFFFFFFFFFFFFFFFFFFFFFFFFFF AND DUP2 MSTORE PUSH1 0x20 ADD SWAP1 DUP2 MSTORE PUSH1 0x20 ADD PUSH0 KECCAK256 SLOAD PUSH2 0x4457 SWAP2 SWAP1 PUSH2 0x4A49 JUMP JUMPDEST PUSH1 0x6 PUSH0 DUP6 PUSH20 0xFFFFFFFFFFFFFFFFFFFFFFFFFFFFFFFFFFFFFFFF AND PUSH20 0xFFFFFFFFFFFFFFFFFFFFFFFFFFFFFFFFFFFFFFFF AND DUP2 MSTORE PUSH1 0x20 ADD SWAP1 DUP2 MSTORE PUSH1 0x20 ADD PUSH0 KECCAK256 DUP2 SWAP1 SSTORE POP DUP3 PUSH20 0xFFFFFFFFFFFFFFFFFFFFFFFFFFFFFFFFFFFFFFFF AND DUP8 PUSH20 0xFFFFFFFFFFFFFFFFFFFFFFFFFFFFFFFFFFFFFFFF AND PUSH32 0xDDF252AD1BE2C89B69C2B068FC378DAA952BA7F163C4A11628F55A4DF523B3EF DUP5 PUSH1 0x40 MLOAD PUSH2 0x44F5 SWAP2 SWAP1 PUSH2 0x478C JUMP JUMPDEST PUSH1 0x40 MLOAD DUP1 SWAP2 SUB SWAP1 LOG3 POP JUMPDEST POP POP POP POP POP POP JUMP JUMPDEST PUSH0 DUP1 REVERT JUMPDEST PUSH0 DUP2 SWAP1 POP SWAP2 SWAP1 POP JUMP JUMPDEST PUSH2 0x451D DUP2 PUSH2 0x450B JUMP JUMPDEST DUP2 EQ PUSH2 0x4527 JUMPI PUSH0 DUP1 REVERT JUMPDEST POP JUMP JUMPDEST PUSH0 DUP2 CALLDATALOAD SWAP1 POP PUSH2 0x4538 DUP2 PUSH2 0x4514 JUMP JUMPDEST SWAP3 SWAP2 POP POP JUMP JUMPDEST PUSH0 PUSH1 0x20 DUP3 DUP5 SUB SLT ISZERO PUSH2 0x4553 JUMPI PUSH2 0x4552 PUSH2 0x4507 JUMP JUMPDEST JUMPDEST PUSH0 PUSH2 0x4560 DUP5 DUP3 DUP6 ADD PUSH2 0x452A JUMP JUMPDEST SWAP2 POP POP SWAP3 SWAP2 POP POP JUMP JUMPDEST PUSH0 DUP2 MLOAD SWAP1 POP SWAP2 SWAP1 POP JUMP JUMPDEST PUSH0 DUP3 DUP3 MSTORE PUSH1 0x20 DUP3 ADD SWAP1 POP SWAP3 SWAP2 POP POP JUMP JUMPDEST PUSH0 JUMPDEST DUP4 DUP2 LT ISZERO PUSH2 0x45A0 JUMPI DUP1 DUP3 ADD MLOAD DUP2 DUP5 ADD MSTORE PUSH1 0x20 DUP2 ADD SWAP1 POP PUSH2 0x4585 JUMP JUMPDEST PUSH0 DUP5 DUP5 ADD MSTORE POP POP POP POP JUMP JUMPDEST PUSH0 PUSH1 0x1F NOT PUSH1 0x1F DUP4 ADD AND SWAP1 POP SWAP2 SWAP1 POP JUMP JUMPDEST PUSH0 PUSH2 0x45C5 DUP3 PUSH2 0x4569 JUMP JUMPDEST PUSH2 0x45CF DUP2 DUP6 PUSH2 0x4573 JUMP JUMPDEST SWAP4 POP PUSH2 0x45DF DUP2 DUP6 PUSH1 0x20 DUP7 ADD PUSH2 0x4583 JUMP JUMPDEST PUSH2 0x45E8 DUP2 PUSH2 0x45AB JUMP JUMPDEST DUP5 ADD SWAP2 POP POP SWAP3 SWAP2 POP POP JUMP JUMPDEST PUSH0 PUSH1 0x20 DUP3 ADD SWAP1 POP DUP2 DUP2 SUB PUSH0 DUP4 ADD MSTORE PUSH2 0x460B DUP2 DUP5 PUSH2 0x45BB JUMP JUMPDEST SWAP1 POP SWAP3 SWAP2 POP POP JUMP JUMPDEST PUSH0 PUSH20 0xFFFFFFFFFFFFFFFFFFFFFFFFFFFFFFFFFFFFFFFF DUP3 AND SWAP1 POP SWAP2 SWAP1 POP JUMP JUMPDEST PUSH0 PUSH2 0x463C DUP3 PUSH2 0x4613 JUMP JUMPDEST SWAP1 POP SWAP2 SWAP1 POP JUMP JUMPDEST PUSH2 0x464C DUP2 PUSH2 0x4632 JUMP JUMPDEST DUP2 EQ PUSH2 0x4656 JUMPI PUSH0 DUP1 REVERT JUMPDEST POP JUMP JUMPDEST PUSH0 DUP2 CALLDATALOAD SWAP1 POP PUSH2 0x4667 DUP2 PUSH2 0x4643 JUMP JUMPDEST SWAP3 SWAP2 POP POP JUMP JUMPDEST PUSH0 DUP1 PUSH1 0x40 DUP4 DUP6 SUB SLT ISZERO PUSH2 0x4683 JUMPI PUSH2 0x4682 PUSH2 0x4507 JUMP JUMPDEST JUMPDEST PUSH0 PUSH2 0x4690 DUP6 DUP3 DUP7 ADD PUSH2 0x4659 JUMP JUMPDEST SWAP3 POP POP PUSH1 0x20 PUSH2 0x46A1 DUP6 DUP3 DUP7 ADD PUSH2 0x452A JUMP JUMPDEST SWAP2 POP POP SWAP3 POP SWAP3 SWAP1 POP JUMP JUMPDEST PUSH0 DUP2 ISZERO ISZERO SWAP1 POP SWAP2 SWAP1 POP JUMP JUMPDEST PUSH2 0x46BF DUP2 PUSH2 0x46AB JUMP JUMPDEST DUP3 MSTORE POP POP JUMP JUMPDEST PUSH0 PUSH1 0x20 DUP3 ADD SWAP1 POP PUSH2 0x46D8 PUSH0 DUP4 ADD DUP5 PUSH2 0x46B6 JUMP JUMPDEST SWAP3 SWAP2 POP POP JUMP JUMPDEST PUSH0 PUSH1 0x20 DUP3 DUP5 SUB SLT ISZERO PUSH2 0x46F3 JUMPI PUSH2 0x46F2 PUSH2 0x4507 JUMP JUMPDEST JUMPDEST PUSH0 PUSH2 0x4700 DUP5 DUP3 DUP6 ADD PUSH2 0x4659 JUMP JUMPDEST SWAP2 POP POP SWAP3 SWAP2 POP POP JUMP JUMPDEST PUSH0 DUP2 SWAP1 POP SWAP2 SWAP1 POP JUMP JUMPDEST PUSH0 PUSH2 0x472C PUSH2 0x4727 PUSH2 0x4722 DUP5 PUSH2 0x4613 JUMP JUMPDEST PUSH2 0x4709 JUMP JUMPDEST PUSH2 0x4613 JUMP JUMPDEST SWAP1 POP SWAP2 SWAP1 POP JUMP JUMPDEST PUSH0 PUSH2 0x473D DUP3 PUSH2 0x4712 JUMP JUMPDEST SWAP1 POP SWAP2 SWAP1 POP JUMP JUMPDEST PUSH0 PUSH2 0x474E DUP3 PUSH2 0x4733 JUMP JUMPDEST SWAP1 POP SWAP2 SWAP1 POP JUMP JUMPDEST PUSH2 0x475E DUP2 PUSH2 0x4744 JUMP JUMPDEST DUP3 MSTORE POP POP JUMP JUMPDEST PUSH0 PUSH1 0x20 DUP3 ADD SWAP1 POP PUSH2 0x4777 PUSH0 DUP4 ADD DUP5 PUSH2 0x4755 JUMP JUMPDEST SWAP3 SWAP2 POP POP JUMP JUMPDEST PUSH2 0x4786 DUP2 PUSH2 0x450B JUMP JUMPDEST DUP3 MSTORE POP POP JUMP JUMPDEST PUSH0 PUSH1 0x20 DUP3 ADD SWAP1 POP PUSH2 0x479F PUSH0 DUP4 ADD DUP5 PUSH2 0x477D JUMP JUMPDEST SWAP3 SWAP2 POP POP JUMP JUMPDEST PUSH0 DUP1 PUSH0 PUSH1 0x60 DUP5 DUP7 SUB SLT ISZERO PUSH2 0x47BC JUMPI PUSH2 0x47BB PUSH2 0x4507 JUMP JUMPDEST JUMPDEST PUSH0 PUSH2 0x47C9 DUP7 DUP3 DUP8 ADD PUSH2 0x4659 JUMP JUMPDEST SWAP4 POP POP PUSH1 0x20 PUSH2 0x47DA DUP7 DUP3 DUP8 ADD PUSH2 0x4659 JUMP JUMPDEST SWAP3 POP POP PUSH1 0x40 PUSH2 0x47EB DUP7 DUP3 DUP8 ADD PUSH2 0x452A JUMP JUMPDEST SWAP2 POP POP SWAP3 POP SWAP3 POP SWAP3 JUMP JUMPDEST PUSH2 0x47FE DUP2 PUSH2 0x4632 JUMP JUMPDEST DUP3 MSTORE POP POP JUMP JUMPDEST PUSH0 PUSH1 0x20 DUP3 ADD SWAP1 POP PUSH2 0x4817 PUSH0 DUP4 ADD DUP5 PUSH2 0x47F5 JUMP JUMPDEST SWAP3 SWAP2 POP POP JUMP JUMPDEST PUSH2 0x4826 DUP2 PUSH2 0x46AB JUMP JUMPDEST DUP2 EQ PUSH2 0x4830 JUMPI PUSH0 DUP1 REVERT JUMPDEST POP JUMP JUMPDEST PUSH0 DUP2 CALLDATALOAD SWAP1 POP PUSH2 0x4841 DUP2 PUSH2 0x481D JUMP JUMPDEST SWAP3 SWAP2 POP POP JUMP JUMPDEST PUSH0 PUSH1 0x20 DUP3 DUP5 SUB SLT ISZERO PUSH2 0x485C JUMPI PUSH2 0x485B PUSH2 0x4507 JUMP JUMPDEST JUMPDEST PUSH0 PUSH2 0x4869 DUP5 DUP3 DUP6 ADD PUSH2 0x4833 JUMP JUMPDEST SWAP2 POP POP SWAP3 SWAP2 POP POP JUMP JUMPDEST PUSH0 PUSH1 0xFF DUP3 AND SWAP1 POP SWAP2 SWAP1 POP JUMP JUMPDEST PUSH2 0x4887 DUP2 PUSH2 0x4872 JUMP JUMPDEST DUP3 MSTORE POP POP JUMP JUMPDEST PUSH0 PUSH1 0x20 DUP3 ADD SWAP1 POP PUSH2 0x48A0 PUSH0 DUP4 ADD DUP5 PUSH2 0x487E JUMP JUMPDEST SWAP3 SWAP2 POP POP JUMP JUMPDEST PUSH0 DUP1 PUSH1 0x40 DUP4 DUP6 SUB SLT ISZERO PUSH2 0x48BC JUMPI PUSH2 0x48BB PUSH2 0x4507 JUMP JUMPDEST JUMPDEST PUSH0 PUSH2 0x48C9 DUP6 DUP3 DUP7 ADD PUSH2 0x452A JUMP JUMPDEST SWAP3 POP POP PUSH1 0x20 PUSH2 0x48DA DUP6 DUP3 DUP7 ADD PUSH2 0x4833 JUMP JUMPDEST SWAP2 POP POP SWAP3 POP SWAP3 SWAP1 POP JUMP JUMPDEST PUSH0 PUSH2 0x48EE DUP3 PUSH2 0x4613 JUMP JUMPDEST SWAP1 POP SWAP2 SWAP1 POP JUMP JUMPDEST PUSH2 0x48FE DUP2 PUSH2 0x48E4 JUMP JUMPDEST DUP3 MSTORE POP POP JUMP JUMPDEST PUSH0 PUSH1 0x20 DUP3 ADD SWAP1 POP PUSH2 0x4917 PUSH0 DUP4 ADD DUP5 PUSH2 0x48F5 JUMP JUMPDEST SWAP3 SWAP2 POP POP JUMP JUMPDEST PUSH0 DUP1 PUSH1 0x40 DUP4 DUP6 SUB SLT ISZERO PUSH2 0x4933 JUMPI PUSH2 0x4932 PUSH2 0x4507 JUMP JUMPDEST JUMPDEST PUSH0 PUSH2 0x4940 DUP6 DUP3 DUP7 ADD PUSH2 0x4659 JUMP JUMPDEST SWAP3 POP POP PUSH1 0x20 PUSH2 0x4951 DUP6 DUP3 DUP7 ADD PUSH2 0x4659 JUMP JUMPDEST SWAP2 POP POP SWAP3 POP SWAP3 SWAP1 POP JUMP JUMPDEST PUSH32 0x4578636C75646564206164647265737365732063616E6E6F742063616C6C2074 PUSH0 DUP3 ADD MSTORE PUSH32 0x6869732066756E6374696F6E0000000000000000000000000000000000000000 PUSH1 0x20 DUP3 ADD MSTORE POP JUMP JUMPDEST PUSH0 PUSH2 0x49B5 PUSH1 0x2C DUP4 PUSH2 0x4573 JUMP JUMPDEST SWAP2 POP PUSH2 0x49C0 DUP3 PUSH2 0x495B JUMP JUMPDEST PUSH1 0x40 DUP3 ADD SWAP1 POP SWAP2 SWAP1 POP JUMP JUMPDEST PUSH0 PUSH1 0x20 DUP3 ADD SWAP1 POP DUP2 DUP2 SUB PUSH0 DUP4 ADD MSTORE PUSH2 0x49E2 DUP2 PUSH2 0x49A9 JUMP JUMPDEST SWAP1 POP SWAP2 SWAP1 POP JUMP JUMPDEST PUSH32 0x4E487B7100000000000000000000000000000000000000000000000000000000 PUSH0 MSTORE PUSH1 0x11 PUSH1 0x4 MSTORE PUSH1 0x24 PUSH0 REVERT JUMPDEST PUSH0 PUSH2 0x4A20 DUP3 PUSH2 0x450B JUMP JUMPDEST SWAP2 POP PUSH2 0x4A2B DUP4 PUSH2 0x450B JUMP JUMPDEST SWAP3 POP DUP3 DUP3 SUB SWAP1 POP DUP2 DUP2 GT ISZERO PUSH2 0x4A43 JUMPI PUSH2 0x4A42 PUSH2 0x49E9 JUMP JUMPDEST JUMPDEST SWAP3 SWAP2 POP POP JUMP JUMPDEST PUSH0 PUSH2 0x4A53 DUP3 PUSH2 0x450B JUMP JUMPDEST SWAP2 POP PUSH2 0x4A5E DUP4 PUSH2 0x450B JUMP JUMPDEST SWAP3 POP DUP3 DUP3 ADD SWAP1 POP DUP1 DUP3 GT ISZERO PUSH2 0x4A76 JUMPI PUSH2 0x4A75 PUSH2 0x49E9 JUMP JUMPDEST JUMPDEST SWAP3 SWAP2 POP POP JUMP JUMPDEST PUSH32 0x4E487B7100000000000000000000000000000000000000000000000000000000 PUSH0 MSTORE PUSH1 0x22 PUSH1 0x4 MSTORE PUSH1 0x24 PUSH0 REVERT JUMPDEST PUSH0 PUSH1 0x2 DUP3 DIV SWAP1 POP PUSH1 0x1 DUP3 AND DUP1 PUSH2 0x4AC0 JUMPI PUSH1 0x7F DUP3 AND SWAP2 POP JUMPDEST PUSH1 0x20 DUP3 LT DUP2 SUB PUSH2 0x4AD3 JUMPI PUSH2 0x4AD2 PUSH2 0x4A7C JUMP JUMPDEST JUMPDEST POP SWAP2 SWAP1 POP JUMP JUMPDEST PUSH32 0x4F776E61626C653A2063616C6C6572206973206E6F7420746865206F776E6572 PUSH0 DUP3 ADD MSTORE POP JUMP JUMPDEST PUSH0 PUSH2 0x4B0D PUSH1 0x20 DUP4 PUSH2 0x4573 JUMP JUMPDEST SWAP2 POP PUSH2 0x4B18 DUP3 PUSH2 0x4AD9 JUMP JUMPDEST PUSH1 0x20 DUP3 ADD SWAP1 POP SWAP2 SWAP1 POP JUMP JUMPDEST PUSH0 PUSH1 0x20 DUP3 ADD SWAP1 POP DUP2 DUP2 SUB PUSH0 DUP4 ADD MSTORE PUSH2 0x4B3A DUP2 PUSH2 0x4B01 JUMP JUMPDEST SWAP1 POP SWAP2 SWAP1 POP JUMP JUMPDEST PUSH32 0x45524332303A207472616E7366657220616D6F756E7420657863656564732061 PUSH0 DUP3 ADD MSTORE PUSH32 0x6C6C6F77616E6365000000000000000000000000000000000000000000000000 PUSH1 0x20 DUP3 ADD MSTORE POP JUMP JUMPDEST PUSH0 PUSH2 0x4B9B PUSH1 0x28 DUP4 PUSH2 0x4573 JUMP JUMPDEST SWAP2 POP PUSH2 0x4BA6 DUP3 PUSH2 0x4B41 JUMP JUMPDEST PUSH1 0x40 DUP3 ADD SWAP1 POP SWAP2 SWAP1 POP JUMP JUMPDEST PUSH0 PUSH1 0x20 DUP3 ADD SWAP1 POP DUP2 DUP2 SUB PUSH0 DUP4 ADD MSTORE PUSH2 0x4BC8 DUP2 PUSH2 0x4B8F JUMP JUMPDEST SWAP1 POP SWAP2 SWAP1 POP JUMP JUMPDEST PUSH32 0x416D6F756E74206D757374206265206C657373207468616E20737570706C7900 PUSH0 DUP3 ADD MSTORE POP JUMP JUMPDEST PUSH0 PUSH2 0x4C03 PUSH1 0x1F DUP4 PUSH2 0x4573 JUMP JUMPDEST SWAP2 POP PUSH2 0x4C0E DUP3 PUSH2 0x4BCF JUMP JUMPDEST PUSH1 0x20 DUP3 ADD SWAP1 POP SWAP2 SWAP1 POP JUMP JUMPDEST PUSH0 PUSH1 0x20 DUP3 ADD SWAP1 POP DUP2 DUP2 SUB PUSH0 DUP4 ADD MSTORE PUSH2 0x4C30 DUP2 PUSH2 0x4BF7 JUMP JUMPDEST SWAP1 POP SWAP2 SWAP1 POP JUMP JUMPDEST PUSH32 0x4163636F756E7420697320616C7265616479206578636C756465640000000000 PUSH0 DUP3 ADD MSTORE POP JUMP JUMPDEST PUSH0 PUSH2 0x4C6B PUSH1 0x1B DUP4 PUSH2 0x4573 JUMP JUMPDEST SWAP2 POP PUSH2 0x4C76 DUP3 PUSH2 0x4C37 JUMP JUMPDEST PUSH1 0x20 DUP3 ADD SWAP1 POP SWAP2 SWAP1 POP JUMP JUMPDEST PUSH0 PUSH1 0x20 DUP3 ADD SWAP1 POP DUP2 DUP2 SUB PUSH0 DUP4 ADD MSTORE PUSH2 0x4C98 DUP2 PUSH2 0x4C5F JUMP JUMPDEST SWAP1 POP SWAP2 SWAP1 POP JUMP JUMPDEST PUSH32 0x45524332303A2064656372656173656420616C6C6F77616E63652062656C6F77 PUSH0 DUP3 ADD MSTORE PUSH32 0x207A65726F000000000000000000000000000000000000000000000000000000 PUSH1 0x20 DUP3 ADD MSTORE POP JUMP JUMPDEST PUSH0 PUSH2 0x4CF9 PUSH1 0x25 DUP4 PUSH2 0x4573 JUMP JUMPDEST SWAP2 POP PUSH2 0x4D04 DUP3 PUSH2 0x4C9F JUMP JUMPDEST PUSH1 0x40 DUP3 ADD SWAP1 POP SWAP2 SWAP1 POP JUMP JUMPDEST PUSH0 PUSH1 0x20 DUP3 ADD SWAP1 POP DUP2 DUP2 SUB PUSH0 DUP4 ADD MSTORE PUSH2 0x4D26 DUP2 PUSH2 0x4CED JUMP JUMPDEST SWAP1 POP SWAP2 SWAP1 POP JUMP JUMPDEST PUSH32 0x4F776E61626C653A206E6577206F776E657220697320746865207A65726F2061 PUSH0 DUP3 ADD MSTORE PUSH32 0x6464726573730000000000000000000000000000000000000000000000000000 PUSH1 0x20 DUP3 ADD MSTORE POP JUMP JUMPDEST PUSH0 PUSH2 0x4D87 PUSH1 0x26 DUP4 PUSH2 0x4573 JUMP JUMPDEST SWAP2 POP PUSH2 0x4D92 DUP3 PUSH2 0x4D2D JUMP JUMPDEST PUSH1 0x40 DUP3 ADD SWAP1 POP SWAP2 SWAP1 POP JUMP JUMPDEST PUSH0 PUSH1 0x20 DUP3 ADD SWAP1 POP DUP2 DUP2 SUB PUSH0 DUP4 ADD MSTORE PUSH2 0x4DB4 DUP2 PUSH2 0x4D7B JUMP JUMPDEST SWAP1 POP SWAP2 SWAP1 POP JUMP JUMPDEST PUSH32 0x4163636F756E7420697320616C726561647920696E636C756465640000000000 PUSH0 DUP3 ADD MSTORE POP JUMP JUMPDEST PUSH0 PUSH2 0x4DEF PUSH1 0x1B DUP4 PUSH2 0x4573 JUMP JUMPDEST SWAP2 POP PUSH2 0x4DFA DUP3 PUSH2 0x4DBB JUMP JUMPDEST PUSH1 0x20 DUP3 ADD SWAP1 POP SWAP2 SWAP1 POP JUMP JUMPDEST PUSH0 PUSH1 0x20 DUP3 ADD SWAP1 POP DUP2 DUP2 SUB PUSH0 DUP4 ADD MSTORE PUSH2 0x4E1C DUP2 PUSH2 0x4DE3 JUMP JUMPDEST SWAP1 POP SWAP2 SWAP1 POP JUMP JUMPDEST PUSH32 0x4E487B7100000000000000000000000000000000000000000000000000000000 PUSH0 MSTORE PUSH1 0x32 PUSH1 0x4 MSTORE PUSH1 0x24 PUSH0 REVERT JUMPDEST PUSH32 0x4E487B7100000000000000000000000000000000000000000000000000000000 PUSH0 MSTORE PUSH1 0x31 PUSH1 0x4 MSTORE PUSH1 0x24 PUSH0 REVERT JUMPDEST PUSH0 PUSH2 0x4E87 DUP3 PUSH2 0x450B JUMP JUMPDEST SWAP2 POP PUSH2 0x4E92 DUP4 PUSH2 0x450B JUMP JUMPDEST SWAP3 POP DUP3 DUP3 MUL PUSH2 0x4EA0 DUP2 PUSH2 0x450B JUMP JUMPDEST SWAP2 POP DUP3 DUP3 DIV DUP5 EQ DUP4 ISZERO OR PUSH2 0x4EB7 JUMPI PUSH2 0x4EB6 PUSH2 0x49E9 JUMP JUMPDEST JUMPDEST POP SWAP3 SWAP2 POP POP JUMP JUMPDEST PUSH32 0x45524332303A20617070726F76652066726F6D20746865207A65726F20616464 PUSH0 DUP3 ADD MSTORE PUSH32 0x7265737300000000000000000000000000000000000000000000000000000000 PUSH1 0x20 DUP3 ADD MSTORE POP JUMP JUMPDEST PUSH0 PUSH2 0x4F18 PUSH1 0x24 DUP4 PUSH2 0x4573 JUMP JUMPDEST SWAP2 POP PUSH2 0x4F23 DUP3 PUSH2 0x4EBE JUMP JUMPDEST PUSH1 0x40 DUP3 ADD SWAP1 POP SWAP2 SWAP1 POP JUMP JUMPDEST PUSH0 PUSH1 0x20 DUP3 ADD SWAP1 POP DUP2 DUP2 SUB PUSH0 DUP4 ADD MSTORE PUSH2 0x4F45 DUP2 PUSH2 0x4F0C JUMP JUMPDEST SWAP1 POP SWAP2 SWAP1 POP JUMP JUMPDEST PUSH32 0x45524332303A20617070726F766520746F20746865207A65726F206164647265 PUSH0 DUP3 ADD MSTORE PUSH32 0x7373000000000000000000000000000000000000000000000000000000000000 PUSH1 0x20 DUP3 ADD MSTORE POP JUMP JUMPDEST PUSH0 PUSH2 0x4FA6 PUSH1 0x22 DUP4 PUSH2 0x4573 JUMP JUMPDEST SWAP2 POP PUSH2 0x4FB1 DUP3 PUSH2 0x4F4C JUMP JUMPDEST PUSH1 0x40 DUP3 ADD SWAP1 POP SWAP2 SWAP1 POP JUMP JUMPDEST PUSH0 PUSH1 0x20 DUP3 ADD SWAP1 POP DUP2 DUP2 SUB PUSH0 DUP4 ADD MSTORE PUSH2 0x4FD3 DUP2 PUSH2 0x4F9A JUMP JUMPDEST SWAP1 POP SWAP2 SWAP1 POP JUMP JUMPDEST PUSH32 0x45524332303A207472616E736665722066726F6D20746865207A65726F206164 PUSH0 DUP3 ADD MSTORE PUSH32 0x6472657373000000000000000000000000000000000000000000000000000000 PUSH1 0x20 DUP3 ADD MSTORE POP JUMP JUMPDEST PUSH0 PUSH2 0x5034 PUSH1 0x25 DUP4 PUSH2 0x4573 JUMP JUMPDEST SWAP2 POP PUSH2 0x503F DUP3 PUSH2 0x4FDA JUMP JUMPDEST PUSH1 0x40 DUP3 ADD SWAP1 POP SWAP2 SWAP1 POP JUMP JUMPDEST PUSH0 PUSH1 0x20 DUP3 ADD SWAP1 POP DUP2 DUP2 SUB PUSH0 DUP4 ADD MSTORE PUSH2 0x5061 DUP2 PUSH2 0x5028 JUMP JUMPDEST SWAP1 POP SWAP2 SWAP1 POP JUMP JUMPDEST PUSH32 0x45524332303A207472616E7366657220746F20746865207A65726F2061646472 PUSH0 DUP3 ADD MSTORE PUSH32 0x6573730000000000000000000000000000000000000000000000000000000000 PUSH1 0x20 DUP3 ADD MSTORE POP JUMP JUMPDEST PUSH0 PUSH2 0x50C2 PUSH1 0x23 DUP4 PUSH2 0x4573 JUMP JUMPDEST SWAP2 POP PUSH2 0x50CD DUP3 PUSH2 0x5068 JUMP JUMPDEST PUSH1 0x40 DUP3 ADD SWAP1 POP SWAP2 SWAP1 POP JUMP JUMPDEST PUSH0 PUSH1 0x20 DUP3 ADD SWAP1 POP DUP2 DUP2 SUB PUSH0 DUP4 ADD MSTORE PUSH2 0x50EF DUP2 PUSH2 0x50B6 JUMP JUMPDEST SWAP1 POP SWAP2 SWAP1 POP JUMP JUMPDEST PUSH32 0x5472616E7366657220616D6F756E74206D757374206265206772656174657220 PUSH0 DUP3 ADD MSTORE PUSH32 0x7468616E207A65726F0000000000000000000000000000000000000000000000 PUSH1 0x20 DUP3 ADD MSTORE POP JUMP JUMPDEST PUSH0 PUSH2 0x5150 PUSH1 0x29 DUP4 PUSH2 0x4573 JUMP JUMPDEST SWAP2 POP PUSH2 0x515B DUP3 PUSH2 0x50F6 JUMP JUMPDEST PUSH1 0x40 DUP3 ADD SWAP1 POP SWAP2 SWAP1 POP JUMP JUMPDEST PUSH0 PUSH1 0x20 DUP3 ADD SWAP1 POP DUP2 DUP2 SUB PUSH0 DUP4 ADD MSTORE PUSH2 0x517D DUP2 PUSH2 0x5144 JUMP JUMPDEST SWAP1 POP SWAP2 SWAP1 POP JUMP JUMPDEST PUSH32 0x45524332303A207472616E7366657220616D6F756E7420657863656564732062 PUSH0 DUP3 ADD MSTORE PUSH32 0x616C616E63650000000000000000000000000000000000000000000000000000 PUSH1 0x20 DUP3 ADD MSTORE POP JUMP JUMPDEST PUSH0 PUSH2 0x51DE PUSH1 0x26 DUP4 PUSH2 0x4573 JUMP JUMPDEST SWAP2 POP PUSH2 0x51E9 DUP3 PUSH2 0x5184 JUMP JUMPDEST PUSH1 0x40 DUP3 ADD SWAP1 POP SWAP2 SWAP1 POP JUMP JUMPDEST PUSH0 PUSH1 0x20 DUP3 ADD SWAP1 POP DUP2 DUP2 SUB PUSH0 DUP4 ADD MSTORE PUSH2 0x520B DUP2 PUSH2 0x51D2 JUMP JUMPDEST SWAP1 POP SWAP2 SWAP1 POP JUMP JUMPDEST PUSH32 0x5472616E7366657220616D6F756E74206578636565647320746865206D617854 PUSH0 DUP3 ADD MSTORE PUSH32 0x78416D6F756E742E000000000000000000000000000000000000000000000000 PUSH1 0x20 DUP3 ADD MSTORE POP JUMP JUMPDEST PUSH0 PUSH2 0x526C PUSH1 0x28 DUP4 PUSH2 0x4573 JUMP JUMPDEST SWAP2 POP PUSH2 0x5277 DUP3 PUSH2 0x5212 JUMP JUMPDEST PUSH1 0x40 DUP3 ADD SWAP1 POP SWAP2 SWAP1 POP JUMP JUMPDEST PUSH0 PUSH1 0x20 DUP3 ADD SWAP1 POP DUP2 DUP2 SUB PUSH0 DUP4 ADD MSTORE PUSH2 0x5299 DUP2 PUSH2 0x5260 JUMP JUMPDEST SWAP1 POP SWAP2 SWAP1 POP JUMP JUMPDEST PUSH32 0x416D6F756E74206D757374206265206C657373207468616E20746F74616C2072 PUSH0 DUP3 ADD MSTORE PUSH32 0x65666C656374696F6E7300000000000000000000000000000000000000000000 PUSH1 0x20 DUP3 ADD MSTORE POP JUMP JUMPDEST PUSH0 PUSH2 0x52FA PUSH1 0x2A DUP4 PUSH2 0x4573 JUMP JUMPDEST SWAP2 POP PUSH2 0x5305 DUP3 PUSH2 0x52A0 JUMP JUMPDEST PUSH1 0x40 DUP3 ADD SWAP1 POP SWAP2 SWAP1 POP JUMP JUMPDEST PUSH0 PUSH1 0x20 DUP3 ADD SWAP1 POP DUP2 DUP2 SUB PUSH0 DUP4 ADD MSTORE PUSH2 0x5327 DUP2 PUSH2 0x52EE JUMP JUMPDEST SWAP1 POP SWAP2 SWAP1 POP JUMP JUMPDEST PUSH32 0x4E487B7100000000000000000000000000000000000000000000000000000000 PUSH0 MSTORE PUSH1 0x12 PUSH1 0x4 MSTORE PUSH1 0x24 PUSH0 REVERT JUMPDEST PUSH0 PUSH2 0x5365 DUP3 PUSH2 0x450B JUMP JUMPDEST SWAP2 POP PUSH2 0x5370 DUP4 PUSH2 0x450B JUMP JUMPDEST SWAP3 POP DUP3 PUSH2 0x5380 JUMPI PUSH2 0x537F PUSH2 0x532E JUMP JUMPDEST JUMPDEST DUP3 DUP3 DIV SWAP1 POP SWAP3 SWAP2 POP POP JUMP JUMPDEST PUSH0 PUSH1 0x60 DUP3 ADD SWAP1 POP PUSH2 0x539E PUSH0 DUP4 ADD DUP7 PUSH2 0x477D JUMP JUMPDEST PUSH2 0x53AB PUSH1 0x20 DUP4 ADD DUP6 PUSH2 0x477D JUMP JUMPDEST PUSH2 0x53B8 PUSH1 0x40 DUP4 ADD DUP5 PUSH2 0x477D JUMP JUMPDEST SWAP5 SWAP4 POP POP POP POP JUMP JUMPDEST PUSH32 0x4E487B7100000000000000000000000000000000000000000000000000000000 PUSH0 MSTORE PUSH1 0x41 PUSH1 0x4 MSTORE PUSH1 0x24 PUSH0 REVERT JUMPDEST PUSH0 DUP2 MLOAD SWAP1 POP PUSH2 0x53FB DUP2 PUSH2 0x4643 JUMP JUMPDEST SWAP3 SWAP2 POP POP JUMP JUMPDEST PUSH0 PUSH1 0x20 DUP3 DUP5 SUB SLT ISZERO PUSH2 0x5416 JUMPI PUSH2 0x5415 PUSH2 0x4507 JUMP JUMPDEST JUMPDEST PUSH0 PUSH2 0x5423 DUP5 DUP3 DUP6 ADD PUSH2 0x53ED JUMP JUMPDEST SWAP2 POP POP SWAP3 SWAP2 POP POP JUMP JUMPDEST PUSH0 DUP2 SWAP1 POP SWAP2 SWAP1 POP JUMP JUMPDEST PUSH0 PUSH2 0x544F PUSH2 0x544A PUSH2 0x5445 DUP5 PUSH2 0x542C JUMP JUMPDEST PUSH2 0x4709 JUMP JUMPDEST PUSH2 0x450B JUMP JUMPDEST SWAP1 POP SWAP2 SWAP1 POP JUMP JUMPDEST PUSH2 0x545F DUP2 PUSH2 0x5435 JUMP JUMPDEST DUP3 MSTORE POP POP JUMP JUMPDEST PUSH0 DUP2 MLOAD SWAP1 POP SWAP2 SWAP1 POP JUMP JUMPDEST PUSH0 DUP3 DUP3 MSTORE PUSH1 0x20 DUP3 ADD SWAP1 POP SWAP3 SWAP2 POP POP JUMP JUMPDEST PUSH0 DUP2 SWAP1 POP PUSH1 0x20 DUP3 ADD SWAP1 POP SWAP2 SWAP1 POP JUMP JUMPDEST PUSH2 0x5497 DUP2 PUSH2 0x4632 JUMP JUMPDEST DUP3 MSTORE POP POP JUMP JUMPDEST PUSH0 PUSH2 0x54A8 DUP4 DUP4 PUSH2 0x548E JUMP JUMPDEST PUSH1 0x20 DUP4 ADD SWAP1 POP SWAP3 SWAP2 POP POP JUMP JUMPDEST PUSH0 PUSH1 0x20 DUP3 ADD SWAP1 POP SWAP2 SWAP1 POP JUMP JUMPDEST PUSH0 PUSH2 0x54CA DUP3 PUSH2 0x5465 JUMP JUMPDEST PUSH2 0x54D4 DUP2 DUP6 PUSH2 0x546F JUMP JUMPDEST SWAP4 POP PUSH2 0x54DF DUP4 PUSH2 0x547F JUMP JUMPDEST DUP1 PUSH0 JUMPDEST DUP4 DUP2 LT ISZERO PUSH2 0x550F JUMPI DUP2 MLOAD PUSH2 0x54F6 DUP9 DUP3 PUSH2 0x549D JUMP JUMPDEST SWAP8 POP PUSH2 0x5501 DUP4 PUSH2 0x54B4 JUMP JUMPDEST SWAP3 POP POP PUSH1 0x1 DUP2 ADD SWAP1 POP PUSH2 0x54E2 JUMP JUMPDEST POP DUP6 SWAP4 POP POP POP POP SWAP3 SWAP2 POP POP JUMP JUMPDEST PUSH0 PUSH1 0xA0 DUP3 ADD SWAP1 POP PUSH2 0x552F PUSH0 DUP4 ADD DUP9 PUSH2 0x477D JUMP JUMPDEST PUSH2 0x553C PUSH1 0x20 DUP4 ADD DUP8 PUSH2 0x5456 JUMP JUMPDEST DUP2 DUP2 SUB PUSH1 0x40 DUP4 ADD MSTORE PUSH2 0x554E DUP2 DUP7 PUSH2 0x54C0 JUMP JUMPDEST SWAP1 POP PUSH2 0x555D PUSH1 0x60 DUP4 ADD DUP6 PUSH2 0x47F5 JUMP JUMPDEST PUSH2 0x556A PUSH1 0x80 DUP4 ADD DUP5 PUSH2 0x477D JUMP JUMPDEST SWAP7 SWAP6 POP POP POP POP POP POP JUMP JUMPDEST PUSH0 PUSH1 0x40 DUP3 ADD SWAP1 POP PUSH2 0x5587 PUSH0 DUP4 ADD DUP6 PUSH2 0x477D JUMP JUMPDEST DUP2 DUP2 SUB PUSH1 0x20 DUP4 ADD MSTORE PUSH2 0x5599 DUP2 DUP5 PUSH2 0x54C0 JUMP JUMPDEST SWAP1 POP SWAP4 SWAP3 POP POP POP JUMP JUMPDEST PUSH0 PUSH1 0xC0 DUP3 ADD SWAP1 POP PUSH2 0x55B5 PUSH0 DUP4 ADD DUP10 PUSH2 0x47F5 JUMP JUMPDEST PUSH2 0x55C2 PUSH1 0x20 DUP4 ADD DUP9 PUSH2 0x477D JUMP JUMPDEST PUSH2 0x55CF PUSH1 0x40 DUP4 ADD DUP8 PUSH2 0x5456 JUMP JUMPDEST PUSH2 0x55DC PUSH1 0x60 DUP4 ADD DUP7 PUSH2 0x5456 JUMP JUMPDEST PUSH2 0x55E9 PUSH1 0x80 DUP4 ADD DUP6 PUSH2 0x47F5 JUMP JUMPDEST PUSH2 0x55F6 PUSH1 0xA0 DUP4 ADD DUP5 PUSH2 0x477D JUMP JUMPDEST SWAP8 SWAP7 POP POP POP POP POP POP POP JUMP JUMPDEST PUSH0 DUP2 MLOAD SWAP1 POP PUSH2 0x560F DUP2 PUSH2 0x4514 JUMP JUMPDEST SWAP3 SWAP2 POP POP JUMP JUMPDEST PUSH0 DUP1 PUSH0 PUSH1 0x60 DUP5 DUP7 SUB SLT ISZERO PUSH2 0x562C JUMPI PUSH2 0x562B PUSH2 0x4507 JUMP JUMPDEST JUMPDEST PUSH0 PUSH2 0x5639 DUP7 DUP3 DUP8 ADD PUSH2 0x5601 JUMP JUMPDEST SWAP4 POP POP PUSH1 0x20 PUSH2 0x564A DUP7 DUP3 DUP8 ADD PUSH2 0x5601 JUMP JUMPDEST SWAP3 POP POP PUSH1 0x40 PUSH2 0x565B DUP7 DUP3 DUP8 ADD PUSH2 0x5601 JUMP JUMPDEST SWAP2 POP POP SWAP3 POP SWAP3 POP SWAP3 JUMP JUMPDEST PUSH0 PUSH1 0x80 DUP3 ADD SWAP1 POP PUSH2 0x5678 PUSH0 DUP4 ADD DUP8 PUSH2 0x5456 JUMP JUMPDEST DUP2 DUP2 SUB PUSH1 0x20 DUP4 ADD MSTORE PUSH2 0x568A DUP2 DUP7 PUSH2 0x54C0 JUMP JUMPDEST SWAP1 POP PUSH2 0x5699 PUSH1 0x40 DUP4 ADD DUP6 PUSH2 0x47F5 JUMP JUMPDEST PUSH2 0x56A6 PUSH1 0x60 DUP4 ADD DUP5 PUSH2 0x477D JUMP JUMPDEST SWAP6 SWAP5 POP POP POP POP POP JUMP INVALID LOG2 PUSH5 0x6970667358 0x22 SLT KECCAK256 PUSH26 0x4152BD86B8E992868210F0B5AE1D1D2A6280FD7C290483778D19 PUSH20 0xAC825A8764736F6C634300081600330000000000 "
		},
		"gasEstimates": {
			"creation": {
				"codeDepositCost": "4449000",
				"executionCost": "infinite",
				"totalCost": "infinite"
			},
			"external": {
				"_buybackFee()": "2494",
				"_charityFee()": "2493",
				"_developerFee()": "2493",
				"_liquidityPoolFee()": "2537",
				"_marketingFee()": "2538",
				"_maxTxAmount()": "2493",
				"_reflectionFee()": "2516",
				"allowance(address,address)": "infinite",
				"approve(address,uint256)": "infinite",
				"balanceOf(address)": "infinite",
				"buyBackEnabled()": "2628",
				"buyBackUpperLimitAmount()": "2522",
				"charityAddress()": "2576",
				"deadAddress()": "infinite",
				"decimals()": "2607",
				"decreaseAllowance(address,uint256)": "infinite",
				"developerAddress()": "2575",
				"excludeAccountFromReward(address)": "infinite",
				"excludeFromFee(address)": "27130",
				"includeAccountinReward(address)": "infinite",
				"includeInFee(address)": "27128",
				"increaseAllowance(address,uint256)": "infinite",
				"isExcluded(address)": "2959",
				"isExcludedFromFee(address)": "2937",
				"marketingAddress()": "2648",
				"minimumTokensBeforeSwapAmount()": "2544",
				"name()": "infinite",
				"owner()": "2649",
				"presale(bool)": "infinite",
				"reflect(uint256)": "infinite",
				"reflectionFromToken(uint256,bool)": "infinite",
				"renounceOwnership()": "30479",
				"setBuyBackEnabled(bool)": "infinite",
				"setBuybackFee(uint256)": "infinite",
				"setBuybackUpperLimit(uint256)": "24842",
				"setCharityAddress(address)": "27065",
				"setCharityFee(uint256)": "infinite",
				"setDeveloperAddress(address)": "27063",
				"setDeveloperFee(uint256)": "infinite",
				"setLiquidityPoolFee(uint256)": "infinite",
				"setMarketingAddress(address)": "27071",
				"setMarketingFee(uint256)": "infinite",
				"setMaxTxAmount(uint256)": "24863",
				"setNumTokensSellToAddToLiquidity(uint256)": "24840",
				"setReflectionFee(uint256)": "24819",
				"setSwapAndLiquifyEnabled(bool)": "infinite",
				"swapAndLiquifyEnabled()": "2629",
				"symbol()": "infinite",
				"totalFeesRedistributed()": "2501",
				"totalSupply()": "2589",
				"transfer(address,uint256)": "infinite",
				"transferFrom(address,address,uint256)": "infinite",
				"transferOwnership(address)": "30817",
				"uniswapV2Pair()": "infinite",
				"uniswapV2Router()": "infinite"
			},
			"internal": {
				"_getCompleteTaxValue(uint256)": "infinite",
				"_getCurrentSupply()": "infinite",
				"_getRate()": "infinite",
				"_getTransferValues(uint256)": "infinite",
				"_mintStart(address,uint256,uint256)": "infinite",
				"_reflectFee(uint256,uint256)": "infinite",
				"_tokenTransfer(address,address,uint256,bool)": "infinite",
				"_transfer(address,address,uint256)": "infinite",
				"_transferStandard(address,address,uint256)": "infinite",
				"addLiquidity(uint256,uint256)": "infinite",
				"buyBackTokens(uint256)": "infinite",
				"feeTransfer(address,uint256,uint256,uint256,address)": "infinite",
				"getBalance()": "infinite",
				"removeAllFee()": "208850",
				"restoreAllFee()": "169507",
				"swapETHForTokens(uint256)": "infinite",
				"swapTokens(uint256)": "infinite",
				"swapTokensForEth(uint256)": "infinite",
				"tokenFromReflection(uint256)": "infinite",
				"transferToAddressETH(address payable,uint256)": "infinite"
			}
		},
		"methodIdentifiers": {
			"_buybackFee()": "19de79ab",
			"_charityFee()": "40f8007a",
			"_developerFee()": "48de478e",
			"_liquidityPoolFee()": "8a0623b4",
			"_marketingFee()": "22976e0d",
			"_maxTxAmount()": "7d1db4a5",
			"_reflectionFee()": "3206b4aa",
			"allowance(address,address)": "dd62ed3e",
			"approve(address,uint256)": "095ea7b3",
			"balanceOf(address)": "70a08231",
			"buyBackEnabled()": "6053a0e3",
			"buyBackUpperLimitAmount()": "bdc653ef",
			"charityAddress()": "afcf2fc4",
			"deadAddress()": "27c8f835",
			"decimals()": "313ce567",
			"decreaseAllowance(address,uint256)": "a457c2d7",
			"developerAddress()": "caccd7f7",
			"excludeAccountFromReward(address)": "6049876e",
			"excludeFromFee(address)": "437823ec",
			"includeAccountinReward(address)": "fdeb889f",
			"includeInFee(address)": "ea2f0b37",
			"increaseAllowance(address,uint256)": "39509351",
			"isExcluded(address)": "cba0e996",
			"isExcludedFromFee(address)": "5342acb4",
			"marketingAddress()": "a5ece941",
			"minimumTokensBeforeSwapAmount()": "a073d37f",
			"name()": "06fdde03",
			"owner()": "8da5cb5b",
			"presale(bool)": "edc2fcfb",
			"reflect(uint256)": "053ab182",
			"reflectionFromToken(uint256,bool)": "4549b039",
			"renounceOwnership()": "715018a6",
			"setBuyBackEnabled(bool)": "29370cc6",
			"setBuybackFee(uint256)": "4567bfba",
			"setBuybackUpperLimit(uint256)": "82d2a4bb",
			"setCharityAddress(address)": "0c9be46d",
			"setCharityFee(uint256)": "20c7c596",
			"setDeveloperAddress(address)": "dcc345f2",
			"setDeveloperFee(uint256)": "6c317232",
			"setLiquidityPoolFee(uint256)": "a94c8dd2",
			"setMarketingAddress(address)": "906e9dd0",
			"setMarketingFee(uint256)": "625e764c",
			"setMaxTxAmount(uint256)": "ec28438a",
			"setNumTokensSellToAddToLiquidity(uint256)": "f0f165af",
			"setReflectionFee(uint256)": "e547be69",
			"setSwapAndLiquifyEnabled(bool)": "c49b9a80",
			"swapAndLiquifyEnabled()": "4a74bb02",
			"symbol()": "95d89b41",
			"totalFeesRedistributed()": "32035504",
			"totalSupply()": "18160ddd",
			"transfer(address,uint256)": "a9059cbb",
			"transferFrom(address,address,uint256)": "23b872dd",
			"transferOwnership(address)": "f2fde38b",
			"uniswapV2Pair()": "49bd5a5e",
			"uniswapV2Router()": "1694505e"
		}
	},
	"abi": [
		{
			"inputs": [
				{
					"internalType": "string",
					"name": "name_",
					"type": "string"
				},
				{
					"internalType": "string",
					"name": "symbol_",
					"type": "string"
				},
				{
					"internalType": "uint256",
					"name": "totalSupply_",
					"type": "uint256"
				},
				{
					"internalType": "uint8",
					"name": "decimals_",
					"type": "uint8"
				},
				{
					"internalType": "address[5]",
					"name": "addr_",
					"type": "address[5]"
				},
				{
					"internalType": "uint256[6]",
					"name": "value_",
					"type": "uint256[6]"
				}
			],
			"stateMutability": "payable",
			"type": "constructor"
		},
		{
			"anonymous": false,
			"inputs": [
				{
					"indexed": true,
					"internalType": "address",
					"name": "owner",
					"type": "address"
				},
				{
					"indexed": true,
					"internalType": "address",
					"name": "spender",
					"type": "address"
				},
				{
					"indexed": false,
					"internalType": "uint256",
					"name": "value",
					"type": "uint256"
				}
			],
			"name": "Approval",
			"type": "event"
		},
		{
			"anonymous": false,
			"inputs": [
				{
					"indexed": false,
					"internalType": "bool",
					"name": "enabled",
					"type": "bool"
				}
			],
			"name": "BuyBackEnabledUpdated",
			"type": "event"
		},
		{
			"anonymous": false,
			"inputs": [
				{
					"indexed": true,
					"internalType": "address",
					"name": "previousOwner",
					"type": "address"
				},
				{
					"indexed": true,
					"internalType": "address",
					"name": "newOwner",
					"type": "address"
				}
			],
			"name": "OwnershipTransferred",
			"type": "event"
		},
		{
			"anonymous": false,
			"inputs": [
				{
					"indexed": false,
					"internalType": "uint256",
					"name": "tokenAmount",
					"type": "uint256"
				}
			],
			"name": "RewardLiquidityProviders",
			"type": "event"
		},
		{
			"anonymous": false,
			"inputs": [
				{
					"indexed": false,
					"internalType": "uint256",
					"name": "tokensSwapped",
					"type": "uint256"
				},
				{
					"indexed": false,
					"internalType": "uint256",
					"name": "ethReceived",
					"type": "uint256"
				},
				{
					"indexed": false,
					"internalType": "uint256",
					"name": "tokensIntoLiqudity",
					"type": "uint256"
				}
			],
			"name": "SwapAndLiquify",
			"type": "event"
		},
		{
			"anonymous": false,
			"inputs": [
				{
					"indexed": false,
					"internalType": "bool",
					"name": "enabled",
					"type": "bool"
				}
			],
			"name": "SwapAndLiquifyEnabledUpdated",
			"type": "event"
		},
		{
			"anonymous": false,
			"inputs": [
				{
					"indexed": false,
					"internalType": "uint256",
					"name": "amountIn",
					"type": "uint256"
				},
				{
					"indexed": false,
					"internalType": "address[]",
					"name": "path",
					"type": "address[]"
				}
			],
			"name": "SwapETHForTokens",
			"type": "event"
		},
		{
			"anonymous": false,
			"inputs": [
				{
					"indexed": false,
					"internalType": "uint256",
					"name": "amountIn",
					"type": "uint256"
				},
				{
					"indexed": false,
					"internalType": "address[]",
					"name": "path",
					"type": "address[]"
				}
			],
			"name": "SwapTokensForETH",
			"type": "event"
		},
		{
			"anonymous": false,
			"inputs": [
				{
					"indexed": true,
					"internalType": "address",
					"name": "from",
					"type": "address"
				},
				{
					"indexed": true,
					"internalType": "address",
					"name": "to",
					"type": "address"
				},
				{
					"indexed": false,
					"internalType": "uint256",
					"name": "value",
					"type": "uint256"
				}
			],
			"name": "Transfer",
			"type": "event"
		},
		{
			"inputs": [],
			"name": "_buybackFee",
			"outputs": [
				{
					"internalType": "uint256",
					"name": "",
					"type": "uint256"
				}
			],
			"stateMutability": "view",
			"type": "function"
		},
		{
			"inputs": [],
			"name": "_charityFee",
			"outputs": [
				{
					"internalType": "uint256",
					"name": "",
					"type": "uint256"
				}
			],
			"stateMutability": "view",
			"type": "function"
		},
		{
			"inputs": [],
			"name": "_developerFee",
			"outputs": [
				{
					"internalType": "uint256",
					"name": "",
					"type": "uint256"
				}
			],
			"stateMutability": "view",
			"type": "function"
		},
		{
			"inputs": [],
			"name": "_liquidityPoolFee",
			"outputs": [
				{
					"internalType": "uint256",
					"name": "",
					"type": "uint256"
				}
			],
			"stateMutability": "view",
			"type": "function"
		},
		{
			"inputs": [],
			"name": "_marketingFee",
			"outputs": [
				{
					"internalType": "uint256",
					"name": "",
					"type": "uint256"
				}
			],
			"stateMutability": "view",
			"type": "function"
		},
		{
			"inputs": [],
			"name": "_maxTxAmount",
			"outputs": [
				{
					"internalType": "uint256",
					"name": "",
					"type": "uint256"
				}
			],
			"stateMutability": "view",
			"type": "function"
		},
		{
			"inputs": [],
			"name": "_reflectionFee",
			"outputs": [
				{
					"internalType": "uint256",
					"name": "",
					"type": "uint256"
				}
			],
			"stateMutability": "view",
			"type": "function"
		},
		{
			"inputs": [
				{
					"internalType": "address",
					"name": "owner",
					"type": "address"
				},
				{
					"internalType": "address",
					"name": "spender",
					"type": "address"
				}
			],
			"name": "allowance",
			"outputs": [
				{
					"internalType": "uint256",
					"name": "",
					"type": "uint256"
				}
			],
			"stateMutability": "view",
			"type": "function"
		},
		{
			"inputs": [
				{
					"internalType": "address",
					"name": "spender",
					"type": "address"
				},
				{
					"internalType": "uint256",
					"name": "amount",
					"type": "uint256"
				}
			],
			"name": "approve",
			"outputs": [
				{
					"internalType": "bool",
					"name": "",
					"type": "bool"
				}
			],
			"stateMutability": "nonpayable",
			"type": "function"
		},
		{
			"inputs": [
				{
					"internalType": "address",
					"name": "sender",
					"type": "address"
				}
			],
			"name": "balanceOf",
			"outputs": [
				{
					"internalType": "uint256",
					"name": "",
					"type": "uint256"
				}
			],
			"stateMutability": "view",
			"type": "function"
		},
		{
			"inputs": [],
			"name": "buyBackEnabled",
			"outputs": [
				{
					"internalType": "bool",
					"name": "",
					"type": "bool"
				}
			],
			"stateMutability": "view",
			"type": "function"
		},
		{
			"inputs": [],
			"name": "buyBackUpperLimitAmount",
			"outputs": [
				{
					"internalType": "uint256",
					"name": "",
					"type": "uint256"
				}
			],
			"stateMutability": "view",
			"type": "function"
		},
		{
			"inputs": [],
			"name": "charityAddress",
			"outputs": [
				{
					"internalType": "address payable",
					"name": "",
					"type": "address"
				}
			],
			"stateMutability": "view",
			"type": "function"
		},
		{
			"inputs": [],
			"name": "deadAddress",
			"outputs": [
				{
					"internalType": "address",
					"name": "",
					"type": "address"
				}
			],
			"stateMutability": "view",
			"type": "function"
		},
		{
			"inputs": [],
			"name": "decimals",
			"outputs": [
				{
					"internalType": "uint8",
					"name": "",
					"type": "uint8"
				}
			],
			"stateMutability": "view",
			"type": "function"
		},
		{
			"inputs": [
				{
					"internalType": "address",
					"name": "spender",
					"type": "address"
				},
				{
					"internalType": "uint256",
					"name": "subtractedValue",
					"type": "uint256"
				}
			],
			"name": "decreaseAllowance",
			"outputs": [
				{
					"internalType": "bool",
					"name": "",
					"type": "bool"
				}
			],
			"stateMutability": "nonpayable",
			"type": "function"
		},
		{
			"inputs": [],
			"name": "developerAddress",
			"outputs": [
				{
					"internalType": "address payable",
					"name": "",
					"type": "address"
				}
			],
			"stateMutability": "view",
			"type": "function"
		},
		{
			"inputs": [
				{
					"internalType": "address",
					"name": "account",
					"type": "address"
				}
			],
			"name": "excludeAccountFromReward",
			"outputs": [],
			"stateMutability": "nonpayable",
			"type": "function"
		},
		{
			"inputs": [
				{
					"internalType": "address",
					"name": "account",
					"type": "address"
				}
			],
			"name": "excludeFromFee",
			"outputs": [],
			"stateMutability": "nonpayable",
			"type": "function"
		},
		{
			"inputs": [
				{
					"internalType": "address",
					"name": "account",
					"type": "address"
				}
			],
			"name": "includeAccountinReward",
			"outputs": [],
			"stateMutability": "nonpayable",
			"type": "function"
		},
		{
			"inputs": [
				{
					"internalType": "address",
					"name": "account",
					"type": "address"
				}
			],
			"name": "includeInFee",
			"outputs": [],
			"stateMutability": "nonpayable",
			"type": "function"
		},
		{
			"inputs": [
				{
					"internalType": "address",
					"name": "spender",
					"type": "address"
				},
				{
					"internalType": "uint256",
					"name": "addedValue",
					"type": "uint256"
				}
			],
			"name": "increaseAllowance",
			"outputs": [
				{
					"internalType": "bool",
					"name": "",
					"type": "bool"
				}
			],
			"stateMutability": "nonpayable",
			"type": "function"
		},
		{
			"inputs": [
				{
					"internalType": "address",
					"name": "account",
					"type": "address"
				}
			],
			"name": "isExcluded",
			"outputs": [
				{
					"internalType": "bool",
					"name": "",
					"type": "bool"
				}
			],
			"stateMutability": "view",
			"type": "function"
		},
		{
			"inputs": [
				{
					"internalType": "address",
					"name": "account",
					"type": "address"
				}
			],
			"name": "isExcludedFromFee",
			"outputs": [
				{
					"internalType": "bool",
					"name": "",
					"type": "bool"
				}
			],
			"stateMutability": "view",
			"type": "function"
		},
		{
			"inputs": [],
			"name": "marketingAddress",
			"outputs": [
				{
					"internalType": "address payable",
					"name": "",
					"type": "address"
				}
			],
			"stateMutability": "view",
			"type": "function"
		},
		{
			"inputs": [],
			"name": "minimumTokensBeforeSwapAmount",
			"outputs": [
				{
					"internalType": "uint256",
					"name": "",
					"type": "uint256"
				}
			],
			"stateMutability": "view",
			"type": "function"
		},
		{
			"inputs": [],
			"name": "name",
			"outputs": [
				{
					"internalType": "string",
					"name": "",
					"type": "string"
				}
			],
			"stateMutability": "view",
			"type": "function"
		},
		{
			"inputs": [],
			"name": "owner",
			"outputs": [
				{
					"internalType": "address",
					"name": "",
					"type": "address"
				}
			],
			"stateMutability": "view",
			"type": "function"
		},
		{
			"inputs": [
				{
					"internalType": "bool",
					"name": "_presale",
					"type": "bool"
				}
			],
			"name": "presale",
			"outputs": [],
			"stateMutability": "nonpayable",
			"type": "function"
		},
		{
			"inputs": [
				{
					"internalType": "uint256",
					"name": "tAmount",
					"type": "uint256"
				}
			],
			"name": "reflect",
			"outputs": [],
			"stateMutability": "nonpayable",
			"type": "function"
		},
		{
			"inputs": [
				{
					"internalType": "uint256",
					"name": "tAmount",
					"type": "uint256"
				},
				{
					"internalType": "bool",
					"name": "deductTransferFee",
					"type": "bool"
				}
			],
			"name": "reflectionFromToken",
			"outputs": [
				{
					"internalType": "uint256",
					"name": "",
					"type": "uint256"
				}
			],
			"stateMutability": "view",
			"type": "function"
		},
		{
			"inputs": [],
			"name": "renounceOwnership",
			"outputs": [],
			"stateMutability": "nonpayable",
			"type": "function"
		},
		{
			"inputs": [
				{
					"internalType": "bool",
					"name": "_enabled",
					"type": "bool"
				}
			],
			"name": "setBuyBackEnabled",
			"outputs": [],
			"stateMutability": "nonpayable",
			"type": "function"
		},
		{
			"inputs": [
				{
					"internalType": "uint256",
					"name": "buybackFee_",
					"type": "uint256"
				}
			],
			"name": "setBuybackFee",
			"outputs": [],
			"stateMutability": "nonpayable",
			"type": "function"
		},
		{
			"inputs": [
				{
					"internalType": "uint256",
					"name": "buyBackLimit",
					"type": "uint256"
				}
			],
			"name": "setBuybackUpperLimit",
			"outputs": [],
			"stateMutability": "nonpayable",
			"type": "function"
		},
		{
			"inputs": [
				{
					"internalType": "address",
					"name": "_charityAddress",
					"type": "address"
				}
			],
			"name": "setCharityAddress",
			"outputs": [],
			"stateMutability": "nonpayable",
			"type": "function"
		},
		{
			"inputs": [
				{
					"internalType": "uint256",
					"name": "charityFee_",
					"type": "uint256"
				}
			],
			"name": "setCharityFee",
			"outputs": [],
			"stateMutability": "nonpayable",
			"type": "function"
		},
		{
			"inputs": [
				{
					"internalType": "address",
					"name": "_developerAddress",
					"type": "address"
				}
			],
			"name": "setDeveloperAddress",
			"outputs": [],
			"stateMutability": "nonpayable",
			"type": "function"
		},
		{
			"inputs": [
				{
					"internalType": "uint256",
					"name": "developerFee_",
					"type": "uint256"
				}
			],
			"name": "setDeveloperFee",
			"outputs": [],
			"stateMutability": "nonpayable",
			"type": "function"
		},
		{
			"inputs": [
				{
					"internalType": "uint256",
					"name": "liquidityPoolFee_",
					"type": "uint256"
				}
			],
			"name": "setLiquidityPoolFee",
			"outputs": [],
			"stateMutability": "nonpayable",
			"type": "function"
		},
		{
			"inputs": [
				{
					"internalType": "address",
					"name": "_marketingAddress",
					"type": "address"
				}
			],
			"name": "setMarketingAddress",
			"outputs": [],
			"stateMutability": "nonpayable",
			"type": "function"
		},
		{
			"inputs": [
				{
					"internalType": "uint256",
					"name": "marketingFee_",
					"type": "uint256"
				}
			],
			"name": "setMarketingFee",
			"outputs": [],
			"stateMutability": "nonpayable",
			"type": "function"
		},
		{
			"inputs": [
				{
					"internalType": "uint256",
					"name": "maxTxAmount",
					"type": "uint256"
				}
			],
			"name": "setMaxTxAmount",
			"outputs": [],
			"stateMutability": "nonpayable",
			"type": "function"
		},
		{
			"inputs": [
				{
					"internalType": "uint256",
					"name": "_minimumTokensBeforeSwap",
					"type": "uint256"
				}
			],
			"name": "setNumTokensSellToAddToLiquidity",
			"outputs": [],
			"stateMutability": "nonpayable",
			"type": "function"
		},
		{
			"inputs": [
				{
					"internalType": "uint256",
					"name": "newReflectionFee",
					"type": "uint256"
				}
			],
			"name": "setReflectionFee",
			"outputs": [],
			"stateMutability": "nonpayable",
			"type": "function"
		},
		{
			"inputs": [
				{
					"internalType": "bool",
					"name": "_enabled",
					"type": "bool"
				}
			],
			"name": "setSwapAndLiquifyEnabled",
			"outputs": [],
			"stateMutability": "nonpayable",
			"type": "function"
		},
		{
			"inputs": [],
			"name": "swapAndLiquifyEnabled",
			"outputs": [
				{
					"internalType": "bool",
					"name": "",
					"type": "bool"
				}
			],
			"stateMutability": "view",
			"type": "function"
		},
		{
			"inputs": [],
			"name": "symbol",
			"outputs": [
				{
					"internalType": "string",
					"name": "",
					"type": "string"
				}
			],
			"stateMutability": "view",
			"type": "function"
		},
		{
			"inputs": [],
			"name": "totalFeesRedistributed",
			"outputs": [
				{
					"internalType": "uint256",
					"name": "",
					"type": "uint256"
				}
			],
			"stateMutability": "view",
			"type": "function"
		},
		{
			"inputs": [],
			"name": "totalSupply",
			"outputs": [
				{
					"internalType": "uint256",
					"name": "",
					"type": "uint256"
				}
			],
			"stateMutability": "view",
			"type": "function"
		},
		{
			"inputs": [
				{
					"internalType": "address",
					"name": "recipient",
					"type": "address"
				},
				{
					"internalType": "uint256",
					"name": "amount",
					"type": "uint256"
				}
			],
			"name": "transfer",
			"outputs": [
				{
					"internalType": "bool",
					"name": "",
					"type": "bool"
				}
			],
			"stateMutability": "nonpayable",
			"type": "function"
		},
		{
			"inputs": [
				{
					"internalType": "address",
					"name": "sender",
					"type": "address"
				},
				{
					"internalType": "address",
					"name": "recipient",
					"type": "address"
				},
				{
					"internalType": "uint256",
					"name": "amount",
					"type": "uint256"
				}
			],
			"name": "transferFrom",
			"outputs": [
				{
					"internalType": "bool",
					"name": "",
					"type": "bool"
				}
			],
			"stateMutability": "nonpayable",
			"type": "function"
		},
		{
			"inputs": [
				{
					"internalType": "address",
					"name": "newOwner",
					"type": "address"
				}
			],
			"name": "transferOwnership",
			"outputs": [],
			"stateMutability": "nonpayable",
			"type": "function"
		},
		{
			"inputs": [],
			"name": "uniswapV2Pair",
			"outputs": [
				{
					"internalType": "address",
					"name": "",
					"type": "address"
				}
			],
			"stateMutability": "view",
			"type": "function"
		},
		{
			"inputs": [],
			"name": "uniswapV2Router",
			"outputs": [
				{
					"internalType": "contract IUniswapV2Router02",
					"name": "",
					"type": "address"
				}
			],
			"stateMutability": "view",
			"type": "function"
		},
		{
			"stateMutability": "payable",
			"type": "receive"
		}
	]
}