{
	"money_flattened.sol": {
		"MoneyAvaxReflectionToken": {
			"abi": [
				{
					"inputs": [
						{
							"internalType": "address",
							"name": "_marketingWallet",
							"type": "address"
						}
					],
					"stateMutability": "nonpayable",
					"type": "constructor"
				},
				{
					"anonymous": false,
					"inputs": [
						{
							"indexed": true,
							"internalType": "address",
							"name": "owner",
							"type": "address"
						},
						{
							"indexed": true,
							"internalType": "address",
							"name": "spender",
							"type": "address"
						},
						{
							"indexed": false,
							"internalType": "uint256",
							"name": "value",
							"type": "uint256"
						}
					],
					"name": "Approval",
					"type": "event"
				},
				{
					"anonymous": false,
					"inputs": [
						{
							"indexed": true,
							"internalType": "address",
							"name": "previousOwner",
							"type": "address"
						},
						{
							"indexed": true,
							"internalType": "address",
							"name": "newOwner",
							"type": "address"
						}
					],
					"name": "OwnershipTransferred",
					"type": "event"
				},
				{
					"anonymous": false,
					"inputs": [
						{
							"indexed": true,
							"internalType": "address",
							"name": "from",
							"type": "address"
						},
						{
							"indexed": true,
							"internalType": "address",
							"name": "to",
							"type": "address"
						},
						{
							"indexed": false,
							"internalType": "uint256",
							"name": "value",
							"type": "uint256"
						}
					],
					"name": "Transfer",
					"type": "event"
				},
				{
					"inputs": [
						{
							"internalType": "address",
							"name": "owner",
							"type": "address"
						},
						{
							"internalType": "address",
							"name": "spender",
							"type": "address"
						}
					],
					"name": "allowance",
					"outputs": [
						{
							"internalType": "uint256",
							"name": "",
							"type": "uint256"
						}
					],
					"stateMutability": "view",
					"type": "function"
				},
				{
					"inputs": [
						{
							"internalType": "address",
							"name": "spender",
							"type": "address"
						},
						{
							"internalType": "uint256",
							"name": "amount",
							"type": "uint256"
						}
					],
					"name": "approve",
					"outputs": [
						{
							"internalType": "bool",
							"name": "",
							"type": "bool"
						}
					],
					"stateMutability": "nonpayable",
					"type": "function"
				},
				{
					"inputs": [
						{
							"internalType": "address",
							"name": "account",
							"type": "address"
						}
					],
					"name": "balanceOf",
					"outputs": [
						{
							"internalType": "uint256",
							"name": "",
							"type": "uint256"
						}
					],
					"stateMutability": "view",
					"type": "function"
				},
				{
					"inputs": [],
					"name": "decimals",
					"outputs": [
						{
							"internalType": "uint8",
							"name": "",
							"type": "uint8"
						}
					],
					"stateMutability": "view",
					"type": "function"
				},
				{
					"inputs": [
						{
							"internalType": "address",
							"name": "spender",
							"type": "address"
						},
						{
							"internalType": "uint256",
							"name": "subtractedValue",
							"type": "uint256"
						}
					],
					"name": "decreaseAllowance",
					"outputs": [
						{
							"internalType": "bool",
							"name": "",
							"type": "bool"
						}
					],
					"stateMutability": "nonpayable",
					"type": "function"
				},
				{
					"inputs": [],
					"name": "enableTrade",
					"outputs": [],
					"stateMutability": "nonpayable",
					"type": "function"
				},
				{
					"inputs": [
						{
							"internalType": "address",
							"name": "spender",
							"type": "address"
						},
						{
							"internalType": "uint256",
							"name": "addedValue",
							"type": "uint256"
						}
					],
					"name": "increaseAllowance",
					"outputs": [
						{
							"internalType": "bool",
							"name": "",
							"type": "bool"
						}
					],
					"stateMutability": "nonpayable",
					"type": "function"
				},
				{
					"inputs": [],
					"name": "lpPair",
					"outputs": [
						{
							"internalType": "address",
							"name": "",
							"type": "address"
						}
					],
					"stateMutability": "view",
					"type": "function"
				},
				{
					"inputs": [],
					"name": "marketingWallet",
					"outputs": [
						{
							"internalType": "address",
							"name": "",
							"type": "address"
						}
					],
					"stateMutability": "view",
					"type": "function"
				},
				{
					"inputs": [],
					"name": "name",
					"outputs": [
						{
							"internalType": "string",
							"name": "",
							"type": "string"
						}
					],
					"stateMutability": "view",
					"type": "function"
				},
				{
					"inputs": [],
					"name": "owner",
					"outputs": [
						{
							"internalType": "address",
							"name": "",
							"type": "address"
						}
					],
					"stateMutability": "view",
					"type": "function"
				},
				{
					"inputs": [],
					"name": "renounceOwnership",
					"outputs": [],
					"stateMutability": "nonpayable",
					"type": "function"
				},
				{
					"inputs": [
						{
							"internalType": "address",
							"name": "_lpPair",
							"type": "address"
						}
					],
					"name": "setLpPair",
					"outputs": [],
					"stateMutability": "nonpayable",
					"type": "function"
				},
				{
					"inputs": [],
					"name": "symbol",
					"outputs": [
						{
							"internalType": "string",
							"name": "",
							"type": "string"
						}
					],
					"stateMutability": "view",
					"type": "function"
				},
				{
					"inputs": [],
					"name": "totalSupply",
					"outputs": [
						{
							"internalType": "uint256",
							"name": "",
							"type": "uint256"
						}
					],
					"stateMutability": "view",
					"type": "function"
				},
				{
					"inputs": [
						{
							"internalType": "address",
							"name": "to",
							"type": "address"
						},
						{
							"internalType": "uint256",
							"name": "amount",
							"type": "uint256"
						}
					],
					"name": "transfer",
					"outputs": [
						{
							"internalType": "bool",
							"name": "",
							"type": "bool"
						}
					],
					"stateMutability": "nonpayable",
					"type": "function"
				},
				{
					"inputs": [
						{
							"internalType": "address",
							"name": "from",
							"type": "address"
						},
						{
							"internalType": "address",
							"name": "to",
							"type": "address"
						},
						{
							"internalType": "uint256",
							"name": "amount",
							"type": "uint256"
						}
					],
					"name": "transferFrom",
					"outputs": [
						{
							"internalType": "bool",
							"name": "",
							"type": "bool"
						}
					],
					"stateMutability": "nonpayable",
					"type": "function"
				},
				{
					"inputs": [
						{
							"internalType": "address",
							"name": "newOwner",
							"type": "address"
						}
					],
					"name": "transferOwnership",
					"outputs": [],
					"stateMutability": "nonpayable",
					"type": "function"
				}
			],
			"devdoc": {
				"events": {
					"Approval(address,address,uint256)": {
						"details": "Emitted when the allowance of a `spender` for an `owner` is set by a call to {approve}. `value` is the new allowance."
					},
					"Transfer(address,address,uint256)": {
						"details": "Emitted when `value` tokens are moved from one account (`from`) to another (`to`). Note that `value` may be zero."
					}
				},
				"kind": "dev",
				"methods": {
					"allowance(address,address)": {
						"details": "See {IERC20-allowance}."
					},
					"approve(address,uint256)": {
						"details": "See {IERC20-approve}. NOTE: If `amount` is the maximum `uint256`, the allowance is not updated on `transferFrom`. This is semantically equivalent to an infinite approval. Requirements: - `spender` cannot be the zero address."
					},
					"balanceOf(address)": {
						"details": "See {IERC20-balanceOf}."
					},
					"decimals()": {
						"details": "Returns the number of decimals used to get its user representation. For example, if `decimals` equals `2`, a balance of `505` tokens should be displayed to a user as `5.05` (`505 / 10 ** 2`). Tokens usually opt for a value of 18, imitating the relationship between Ether and Wei. This is the value {ERC20} uses, unless this function is overridden; NOTE: This information is only used for _display_ purposes: it in no way affects any of the arithmetic of the contract, including {IERC20-balanceOf} and {IERC20-transfer}."
					},
					"decreaseAllowance(address,uint256)": {
						"details": "Atomically decreases the allowance granted to `spender` by the caller. This is an alternative to {approve} that can be used as a mitigation for problems described in {IERC20-approve}. Emits an {Approval} event indicating the updated allowance. Requirements: - `spender` cannot be the zero address. - `spender` must have allowance for the caller of at least `subtractedValue`."
					},
					"increaseAllowance(address,uint256)": {
						"details": "Atomically increases the allowance granted to `spender` by the caller. This is an alternative to {approve} that can be used as a mitigation for problems described in {IERC20-approve}. Emits an {Approval} event indicating the updated allowance. Requirements: - `spender` cannot be the zero address."
					},
					"name()": {
						"details": "Returns the name of the token."
					},
					"owner()": {
						"details": "Returns the address of the current owner."
					},
					"renounceOwnership()": {
						"details": "Leaves the contract without owner. It will not be possible to call `onlyOwner` functions anymore. Can only be called by the current owner. NOTE: Renouncing ownership will leave the contract without an owner, thereby removing any functionality that is only available to the owner."
					},
					"symbol()": {
						"details": "Returns the symbol of the token, usually a shorter version of the name."
					},
					"totalSupply()": {
						"details": "See {IERC20-totalSupply}."
					},
					"transfer(address,uint256)": {
						"details": "See {IERC20-transfer}. Requirements: - `to` cannot be the zero address. - the caller must have a balance of at least `amount`."
					},
					"transferFrom(address,address,uint256)": {
						"details": "See {IERC20-transferFrom}. Emits an {Approval} event indicating the updated allowance. This is not required by the EIP. See the note at the beginning of {ERC20}. NOTE: Does not update the allowance if the current allowance is the maximum `uint256`. Requirements: - `from` and `to` cannot be the zero address. - `from` must have a balance of at least `amount`. - the caller must have allowance for ``from``'s tokens of at least `amount`."
					},
					"transferOwnership(address)": {
						"details": "Transfers ownership of the contract to a new account (`newOwner`). Can only be called by the current owner."
					}
				},
				"version": 1
			},
			"evm": {
				"assembly": "    /* \"money_flattened.sol\":34759:37383  contract MoneyAvaxReflectionToken is ERC20, Ownable, ReentrancyGuard {... */\n  mstore(0x40, 0x80)\n    /* \"money_flattened.sol\":34867:34944  IERC20 private wethToken = IERC20(0x49D5c2BdFfac6CE2BFdB6640F4F80f226bc10bAB) */\n  0x07\n  dup1\n  sload\n  not(sub(shl(0xa0, 0x01), 0x01))\n  and\n    /* \"money_flattened.sol\":34901:34943  0x49D5c2BdFfac6CE2BFdB6640F4F80f226bc10bAB */\n  0x49d5c2bdffac6ce2bfdb6640f4f80f226bc10bab\n    /* \"money_flattened.sol\":34867:34944  IERC20 private wethToken = IERC20(0x49D5c2BdFfac6CE2BFdB6640F4F80f226bc10bAB) */\n  or\n  swap1\n  sstore\n    /* \"money_flattened.sol\":35114:35147  bool private tradeEnabled = false */\n  0x09\n  dup1\n  sload\n  not(shl(0xa0, 0xff))\n  and\n  swap1\n  sstore\n    /* \"money_flattened.sol\":35154:35404  constructor(... */\n  callvalue\n  dup1\n  iszero\n  tag_1\n  jumpi\n  0x00\n  dup1\n  revert\ntag_1:\n  pop\n  mload(0x40)\n  sub(codesize, bytecodeSize)\n  dup1\n  bytecodeSize\n  dup4\n  codecopy\n  dup2\n  add\n  0x40\n  dup2\n  swap1\n  mstore\n  tag_2\n  swap2\n  tag_3\n  jump\t// in\ntag_2:\n    /* \"money_flattened.sol\":24059:24172  constructor(string memory name_, string memory symbol_) {... */\n  mload(0x40)\n  dup1\n  0x40\n  add\n  0x40\n  mstore\n  dup1\n  0x1b\n  dup2\n  mstore\n  0x20\n  add\n  0x4d6f6e65792041766178205265666c656374696f6e20546f6b656e0000000000\n  dup2\n  mstore\n  pop\n  mload(0x40)\n  dup1\n  0x40\n  add\n  0x40\n  mstore\n  dup1\n  0x14\n  dup2\n  mstore\n  0x20\n  add\n  0x4d6f6e6579417661785265666c656374696f6e73000000000000000000000000\n  dup2\n  mstore\n  pop\n    /* \"money_flattened.sol\":24133:24138  name_ */\n  dup2\n    /* \"money_flattened.sol\":24125:24130  _name */\n  0x03\n    /* \"money_flattened.sol\":24125:24138  _name = name_ */\n  swap1\n  dup2\n  tag_9\n  swap2\n  swap1\n  tag_10\n  jump\t// in\ntag_9:\n  pop\n    /* \"money_flattened.sol\":24148:24155  _symbol */\n  0x04\n    /* \"money_flattened.sol\":24148:24165  _symbol = symbol_ */\n  tag_11\n    /* \"money_flattened.sol\":24158:24165  symbol_ */\n  dup3\n    /* \"money_flattened.sol\":24148:24155  _symbol */\n  dup3\n    /* \"money_flattened.sol\":24148:24165  _symbol = symbol_ */\n  tag_10\n  jump\t// in\ntag_11:\n  pop\n    /* \"money_flattened.sol\":24059:24172  constructor(string memory name_, string memory symbol_) {... */\n  pop\n  pop\n    /* \"money_flattened.sol\":12986:13018  _transferOwnership(_msgSender()) */\n  tag_13\n    /* \"money_flattened.sol\":13005:13017  _msgSender() */\n  tag_14\n    /* \"money_flattened.sol\":13005:13015  _msgSender */\n  shl(0x20, tag_15)\n    /* \"money_flattened.sol\":13005:13017  _msgSender() */\n  0x20\n  shr\n  jump\t// in\ntag_14:\n    /* \"money_flattened.sol\":12986:13004  _transferOwnership */\n  tag_16\n    /* \"money_flattened.sol\":12986:13018  _transferOwnership(_msgSender()) */\n  jump\t// in\ntag_13:\n    /* \"money_flattened.sol\":1793:1794  1 */\n  0x01\n    /* \"money_flattened.sol\":1898:1905  _status */\n  0x06\n    /* \"money_flattened.sol\":1898:1920  _status = _NOT_ENTERED */\n  sstore\n    /* \"money_flattened.sol\":35277:35292  marketingWallet */\n  0x09\n    /* \"money_flattened.sol\":35277:35311  marketingWallet = _marketingWallet */\n  dup1\n  sload\n  not(sub(shl(0xa0, 0x01), 0x01))\n  and\n  sub(shl(0xa0, 0x01), 0x01)\n  dup4\n  and\n  or\n  swap1\n  sstore\n    /* \"money_flattened.sol\":35321:35346  _mint(msg.sender, 10**24) */\n  tag_19\n    /* \"money_flattened.sol\":35327:35337  msg.sender */\n  caller\n    /* \"money_flattened.sol\":35339:35345  10**24 */\n  0xd3c21bcecceda1000000\n    /* \"money_flattened.sol\":35321:35326  _mint */\n  tag_20\n    /* \"money_flattened.sol\":35321:35346  _mint(msg.sender, 10**24) */\n  jump\t// in\ntag_19:\n    /* \"money_flattened.sol\":35154:35404  constructor(... */\n  pop\n    /* \"money_flattened.sol\":34759:37383  contract MoneyAvaxReflectionToken is ERC20, Ownable, ReentrancyGuard {... */\n  jump(tag_44)\n    /* \"money_flattened.sol\":11810:11906  function _msgSender() internal view virtual returns (address) {... */\ntag_15:\n    /* \"money_flattened.sol\":11889:11899  msg.sender */\n  caller\n  swap1\n    /* \"money_flattened.sol\":11810:11906  function _msgSender() internal view virtual returns (address) {... */\n  jump\t// out\n    /* \"money_flattened.sol\":14335:14522  function _transferOwnership(address newOwner) internal virtual {... */\ntag_16:\n    /* \"money_flattened.sol\":14427:14433  _owner */\n  0x05\n  dup1\n  sload\n  sub(shl(0xa0, 0x01), 0x01)\n    /* \"money_flattened.sol\":14443:14460  _owner = newOwner */\n  dup4\n  dup2\n  and\n  not(sub(shl(0xa0, 0x01), 0x01))\n  dup4\n  and\n  dup2\n  or\n  swap1\n  swap4\n  sstore\n    /* \"money_flattened.sol\":14475:14515  OwnershipTransferred(oldOwner, newOwner) */\n  mload(0x40)\n    /* \"money_flattened.sol\":14427:14433  _owner */\n  swap2\n  and\n  swap2\n    /* \"money_flattened.sol\":14443:14460  _owner = newOwner */\n  swap1\n    /* \"money_flattened.sol\":14427:14433  _owner */\n  dup3\n  swap1\n    /* \"money_flattened.sol\":14475:14515  OwnershipTransferred(oldOwner, newOwner) */\n  0x8be0079c531659141344cd1fd0a4f28419497f9722a3daafe3b4186f6b6457e0\n  swap1\n    /* \"money_flattened.sol\":14408:14424  address oldOwner */\n  0x00\n  swap1\n    /* \"money_flattened.sol\":14475:14515  OwnershipTransferred(oldOwner, newOwner) */\n  log3\n    /* \"money_flattened.sol\":14398:14522  {... */\n  pop\n    /* \"money_flattened.sol\":14335:14522  function _transferOwnership(address newOwner) internal virtual {... */\n  pop\n  jump\t// out\n    /* \"money_flattened.sol\":30496:30885  function _mint(address account, uint256 amount) internal virtual {... */\ntag_20:\n  sub(shl(0xa0, 0x01), 0x01)\n    /* \"money_flattened.sol\":30579:30600  account != address(0) */\n  dup3\n  and\n    /* \"money_flattened.sol\":30571:30636  require(account != address(0), \"ERC20: mint to the zero address\") */\n  tag_25\n  jumpi\n  mload(0x40)\n  shl(0xe5, 0x461bcd)\n  dup2\n  mstore\n    /* \"#utility.yul\":3232:3234   */\n  0x20\n    /* \"money_flattened.sol\":30571:30636  require(account != address(0), \"ERC20: mint to the zero address\") */\n  0x04\n  dup3\n  add\n    /* \"#utility.yul\":3214:3235   */\n  mstore\n    /* \"#utility.yul\":3271:3273   */\n  0x1f\n    /* \"#utility.yul\":3251:3269   */\n  0x24\n  dup3\n  add\n    /* \"#utility.yul\":3244:3274   */\n  mstore\n    /* \"#utility.yul\":3310:3343   */\n  0x45524332303a206d696e7420746f20746865207a65726f206164647265737300\n    /* \"#utility.yul\":3290:3308   */\n  0x44\n  dup3\n  add\n    /* \"#utility.yul\":3283:3344   */\n  mstore\n    /* \"#utility.yul\":3361:3379   */\n  0x64\n  add\n    /* \"money_flattened.sol\":30571:30636  require(account != address(0), \"ERC20: mint to the zero address\") */\n  mload(0x40)\n  dup1\n  swap2\n  sub\n  swap1\n  revert\ntag_25:\n    /* \"money_flattened.sol\":30723:30729  amount */\n  dup1\n    /* \"money_flattened.sol\":30707:30719  _totalSupply */\n  0x02\n  0x00\n    /* \"money_flattened.sol\":30707:30729  _totalSupply += amount */\n  dup3\n  dup3\n  sload\n  tag_30\n  swap2\n  swap1\n  tag_31\n  jump\t// in\ntag_30:\n  swap1\n  swap2\n  sstore\n  pop\n  pop\n  sub(shl(0xa0, 0x01), 0x01)\n    /* \"money_flattened.sol\":30739:30757  _balances[account] */\n  dup3\n  and\n    /* \"money_flattened.sol\":30739:30748  _balances */\n  0x00\n    /* \"money_flattened.sol\":30739:30757  _balances[account] */\n  swap1\n  dup2\n  mstore\n  0x20\n  dup2\n  swap1\n  mstore\n  0x40\n  dup2\n  keccak256\n    /* \"money_flattened.sol\":30739:30767  _balances[account] += amount */\n  dup1\n  sload\n    /* \"money_flattened.sol\":30761:30767  amount */\n  dup4\n  swap3\n    /* \"money_flattened.sol\":30739:30748  _balances */\n  swap1\n    /* \"money_flattened.sol\":30739:30767  _balances[account] += amount */\n  tag_32\n  swap1\n    /* \"money_flattened.sol\":30761:30767  amount */\n  dup5\n  swap1\n    /* \"money_flattened.sol\":30739:30767  _balances[account] += amount */\n  tag_31\n  jump\t// in\ntag_32:\n  swap1\n  swap2\n  sstore\n  pop\n  pop\n    /* \"money_flattened.sol\":30782:30819  Transfer(address(0), account, amount) */\n  mload(0x40)\n    /* \"#utility.yul\":3763:3788   */\n  dup2\n  dup2\n  mstore\n  sub(shl(0xa0, 0x01), 0x01)\n    /* \"money_flattened.sol\":30782:30819  Transfer(address(0), account, amount) */\n  dup4\n  and\n  swap1\n    /* \"money_flattened.sol\":30799:30800  0 */\n  0x00\n  swap1\n    /* \"money_flattened.sol\":30782:30819  Transfer(address(0), account, amount) */\n  0xddf252ad1be2c89b69c2b068fc378daa952ba7f163c4a11628f55a4df523b3ef\n  swap1\n    /* \"#utility.yul\":3751:3753   */\n  0x20\n    /* \"#utility.yul\":3736:3754   */\n  add\n    /* \"money_flattened.sol\":30782:30819  Transfer(address(0), account, amount) */\n  mload(0x40)\n  dup1\n  swap2\n  sub\n  swap1\n  log3\n    /* \"money_flattened.sol\":30496:30885  function _mint(address account, uint256 amount) internal virtual {... */\n  pop\n  pop\n  jump\t// out\n    /* \"money_flattened.sol\":33876:33997  function _beforeTokenTransfer(... */\ntag_29:\n  pop\n  pop\n  pop\n  jump\t// out\n    /* \"#utility.yul\":14:304   */\ntag_3:\n    /* \"#utility.yul\":84:90   */\n  0x00\n    /* \"#utility.yul\":137:139   */\n  0x20\n    /* \"#utility.yul\":125:134   */\n  dup3\n    /* \"#utility.yul\":116:123   */\n  dup5\n    /* \"#utility.yul\":112:135   */\n  sub\n    /* \"#utility.yul\":108:140   */\n  slt\n    /* \"#utility.yul\":105:157   */\n  iszero\n  tag_46\n  jumpi\n    /* \"#utility.yul\":153:154   */\n  0x00\n    /* \"#utility.yul\":150:151   */\n  dup1\n    /* \"#utility.yul\":143:155   */\n  revert\n    /* \"#utility.yul\":105:157   */\ntag_46:\n    /* \"#utility.yul\":179:195   */\n  dup2\n  mload\n  sub(shl(0xa0, 0x01), 0x01)\n    /* \"#utility.yul\":224:255   */\n  dup2\n  and\n    /* \"#utility.yul\":214:256   */\n  dup2\n  eq\n    /* \"#utility.yul\":204:274   */\n  tag_47\n  jumpi\n    /* \"#utility.yul\":270:271   */\n  0x00\n    /* \"#utility.yul\":267:268   */\n  dup1\n    /* \"#utility.yul\":260:272   */\n  revert\n    /* \"#utility.yul\":204:274   */\ntag_47:\n    /* \"#utility.yul\":293:298   */\n  swap4\n    /* \"#utility.yul\":14:304   */\n  swap3\n  pop\n  pop\n  pop\n  jump\t// out\n    /* \"#utility.yul\":309:436   */\ntag_39:\n    /* \"#utility.yul\":370:380   */\n  0x4e487b71\n    /* \"#utility.yul\":365:368   */\n  0xe0\n    /* \"#utility.yul\":361:381   */\n  shl\n    /* \"#utility.yul\":358:359   */\n  0x00\n    /* \"#utility.yul\":351:382   */\n  mstore\n    /* \"#utility.yul\":401:405   */\n  0x41\n    /* \"#utility.yul\":398:399   */\n  0x04\n    /* \"#utility.yul\":391:406   */\n  mstore\n    /* \"#utility.yul\":425:429   */\n  0x24\n    /* \"#utility.yul\":422:423   */\n  0x00\n    /* \"#utility.yul\":415:430   */\n  revert\n    /* \"#utility.yul\":441:821   */\ntag_40:\n    /* \"#utility.yul\":520:521   */\n  0x01\n    /* \"#utility.yul\":516:528   */\n  dup2\n  dup2\n  shr\n  swap1\n    /* \"#utility.yul\":563:575   */\n  dup3\n  and\n  dup1\n    /* \"#utility.yul\":584:645   */\n  tag_50\n  jumpi\n    /* \"#utility.yul\":638:642   */\n  0x7f\n    /* \"#utility.yul\":630:636   */\n  dup3\n    /* \"#utility.yul\":626:643   */\n  and\n    /* \"#utility.yul\":616:643   */\n  swap2\n  pop\n    /* \"#utility.yul\":584:645   */\ntag_50:\n    /* \"#utility.yul\":691:693   */\n  0x20\n    /* \"#utility.yul\":683:689   */\n  dup3\n    /* \"#utility.yul\":680:694   */\n  lt\n    /* \"#utility.yul\":660:678   */\n  dup2\n    /* \"#utility.yul\":657:695   */\n  sub\n    /* \"#utility.yul\":654:815   */\n  tag_51\n  jumpi\n    /* \"#utility.yul\":737:747   */\n  0x4e487b71\n    /* \"#utility.yul\":732:735   */\n  0xe0\n    /* \"#utility.yul\":728:748   */\n  shl\n    /* \"#utility.yul\":725:726   */\n  0x00\n    /* \"#utility.yul\":718:749   */\n  mstore\n    /* \"#utility.yul\":772:776   */\n  0x22\n    /* \"#utility.yul\":769:770   */\n  0x04\n    /* \"#utility.yul\":762:777   */\n  mstore\n    /* \"#utility.yul\":800:804   */\n  0x24\n    /* \"#utility.yul\":797:798   */\n  0x00\n    /* \"#utility.yul\":790:805   */\n  revert\n    /* \"#utility.yul\":654:815   */\ntag_51:\n  pop\n    /* \"#utility.yul\":441:821   */\n  swap2\n  swap1\n  pop\n  jump\t// out\n    /* \"#utility.yul\":952:1497   */\ntag_42:\n    /* \"#utility.yul\":1054:1056   */\n  0x1f\n    /* \"#utility.yul\":1049:1052   */\n  dup3\n    /* \"#utility.yul\":1046:1057   */\n  gt\n    /* \"#utility.yul\":1043:1491   */\n  iszero\n  tag_29\n  jumpi\n    /* \"#utility.yul\":1090:1091   */\n  0x00\n    /* \"#utility.yul\":1115:1120   */\n  dup2\n    /* \"#utility.yul\":1111:1113   */\n  dup2\n    /* \"#utility.yul\":1104:1121   */\n  mstore\n    /* \"#utility.yul\":1160:1164   */\n  0x20\n    /* \"#utility.yul\":1156:1158   */\n  dup2\n    /* \"#utility.yul\":1146:1165   */\n  keccak256\n    /* \"#utility.yul\":1230:1232   */\n  0x1f\n    /* \"#utility.yul\":1218:1228   */\n  dup6\n    /* \"#utility.yul\":1214:1233   */\n  add\n    /* \"#utility.yul\":1211:1212   */\n  0x05\n    /* \"#utility.yul\":1207:1234   */\n  shr\n    /* \"#utility.yul\":1201:1205   */\n  dup2\n    /* \"#utility.yul\":1197:1235   */\n  add\n    /* \"#utility.yul\":1266:1270   */\n  0x20\n    /* \"#utility.yul\":1254:1264   */\n  dup7\n    /* \"#utility.yul\":1251:1271   */\n  lt\n    /* \"#utility.yul\":1248:1295   */\n  iszero\n  tag_55\n  jumpi\n  pop\n    /* \"#utility.yul\":1289:1293   */\n  dup1\n    /* \"#utility.yul\":1248:1295   */\ntag_55:\n    /* \"#utility.yul\":1344:1346   */\n  0x1f\n    /* \"#utility.yul\":1339:1342   */\n  dup6\n    /* \"#utility.yul\":1335:1347   */\n  add\n    /* \"#utility.yul\":1332:1333   */\n  0x05\n    /* \"#utility.yul\":1328:1348   */\n  shr\n    /* \"#utility.yul\":1322:1326   */\n  dup3\n    /* \"#utility.yul\":1318:1349   */\n  add\n    /* \"#utility.yul\":1308:1349   */\n  swap2\n  pop\n    /* \"#utility.yul\":1399:1481   */\ntag_56:\n    /* \"#utility.yul\":1417:1419   */\n  dup2\n    /* \"#utility.yul\":1410:1415   */\n  dup2\n    /* \"#utility.yul\":1407:1420   */\n  lt\n    /* \"#utility.yul\":1399:1481   */\n  iszero\n  tag_58\n  jumpi\n    /* \"#utility.yul\":1462:1479   */\n  dup3\n  dup2\n  sstore\n    /* \"#utility.yul\":1443:1444   */\n  0x01\n    /* \"#utility.yul\":1432:1445   */\n  add\n    /* \"#utility.yul\":1399:1481   */\n  jump(tag_56)\ntag_58:\n    /* \"#utility.yul\":1403:1406   */\n  pop\n  pop\n  pop\n    /* \"#utility.yul\":952:1497   */\n  pop\n  pop\n  pop\n  jump\t// out\n    /* \"#utility.yul\":1673:3025   */\ntag_10:\n    /* \"#utility.yul\":1793:1803   */\n  dup2\n  mload\n  sub(shl(0x40, 0x01), 0x01)\n    /* \"#utility.yul\":1815:1845   */\n  dup2\n  gt\n    /* \"#utility.yul\":1812:1868   */\n  iszero\n  tag_62\n  jumpi\n    /* \"#utility.yul\":1848:1866   */\n  tag_62\n  tag_39\n  jump\t// in\ntag_62:\n    /* \"#utility.yul\":1877:1974   */\n  tag_63\n    /* \"#utility.yul\":1967:1973   */\n  dup2\n    /* \"#utility.yul\":1927:1965   */\n  tag_64\n    /* \"#utility.yul\":1959:1963   */\n  dup5\n    /* \"#utility.yul\":1953:1964   */\n  sload\n    /* \"#utility.yul\":1927:1965   */\n  tag_40\n  jump\t// in\ntag_64:\n    /* \"#utility.yul\":1921:1925   */\n  dup5\n    /* \"#utility.yul\":1877:1974   */\n  tag_42\n  jump\t// in\ntag_63:\n    /* \"#utility.yul\":2029:2033   */\n  0x20\n  dup1\n    /* \"#utility.yul\":2093:2095   */\n  0x1f\n    /* \"#utility.yul\":2082:2096   */\n  dup4\n  gt\n    /* \"#utility.yul\":2110:2111   */\n  0x01\n    /* \"#utility.yul\":2105:2768   */\n  dup2\n  eq\n  tag_66\n  jumpi\n    /* \"#utility.yul\":2812:2813   */\n  0x00\n    /* \"#utility.yul\":2829:2835   */\n  dup5\n    /* \"#utility.yul\":2826:2915   */\n  iszero\n  tag_67\n  jumpi\n  pop\n    /* \"#utility.yul\":2881:2900   */\n  dup6\n  dup4\n  add\n    /* \"#utility.yul\":2875:2901   */\n  mload\n    /* \"#utility.yul\":2826:2915   */\ntag_67:\n  not(0x00)\n    /* \"#utility.yul\":1630:1631   */\n  0x03\n    /* \"#utility.yul\":1626:1637   */\n  dup7\n  swap1\n  shl\n    /* \"#utility.yul\":1622:1646   */\n  shr\n    /* \"#utility.yul\":1618:1647   */\n  not\n    /* \"#utility.yul\":1608:1648   */\n  and\n    /* \"#utility.yul\":1654:1655   */\n  0x01\n    /* \"#utility.yul\":1650:1661   */\n  dup6\n  swap1\n  shl\n    /* \"#utility.yul\":1605:1662   */\n  or\n    /* \"#utility.yul\":2928:3009   */\n  dup6\n  sstore\n    /* \"#utility.yul\":2075:3019   */\n  jump(tag_58)\n    /* \"#utility.yul\":2105:2768   */\ntag_66:\n    /* \"#utility.yul\":899:900   */\n  0x00\n    /* \"#utility.yul\":892:906   */\n  dup6\n  dup2\n  mstore\n    /* \"#utility.yul\":936:940   */\n  0x20\n    /* \"#utility.yul\":923:941   */\n  dup2\n  keccak256\n  not(0x1f)\n    /* \"#utility.yul\":2141:2161   */\n  dup7\n  and\n  swap2\n    /* \"#utility.yul\":2259:2495   */\ntag_70:\n    /* \"#utility.yul\":2273:2280   */\n  dup3\n    /* \"#utility.yul\":2270:2271   */\n  dup2\n    /* \"#utility.yul\":2267:2281   */\n  lt\n    /* \"#utility.yul\":2259:2495   */\n  iszero\n  tag_72\n  jumpi\n    /* \"#utility.yul\":2362:2381   */\n  dup9\n  dup7\n  add\n    /* \"#utility.yul\":2356:2382   */\n  mload\n    /* \"#utility.yul\":2341:2383   */\n  dup3\n  sstore\n    /* \"#utility.yul\":2454:2481   */\n  swap5\n  dup5\n  add\n  swap5\n    /* \"#utility.yul\":2422:2423   */\n  0x01\n    /* \"#utility.yul\":2410:2424   */\n  swap1\n  swap2\n  add\n  swap1\n    /* \"#utility.yul\":2289:2308   */\n  dup5\n  add\n    /* \"#utility.yul\":2259:2495   */\n  jump(tag_70)\ntag_72:\n    /* \"#utility.yul\":2263:2266   */\n  pop\n    /* \"#utility.yul\":2523:2529   */\n  dup6\n    /* \"#utility.yul\":2514:2521   */\n  dup3\n    /* \"#utility.yul\":2511:2530   */\n  lt\n    /* \"#utility.yul\":2508:2709   */\n  iszero\n  tag_73\n  jumpi\n    /* \"#utility.yul\":2584:2603   */\n  dup8\n  dup6\n  add\n    /* \"#utility.yul\":2578:2604   */\n  mload\n  not(0x00)\n    /* \"#utility.yul\":2667:2668   */\n  0x03\n    /* \"#utility.yul\":2663:2677   */\n  dup9\n  swap1\n  shl\n    /* \"#utility.yul\":2679:2682   */\n  0xf8\n    /* \"#utility.yul\":2659:2683   */\n  and\n    /* \"#utility.yul\":2655:2692   */\n  shr\n    /* \"#utility.yul\":2651:2693   */\n  not\n    /* \"#utility.yul\":2636:2694   */\n  and\n    /* \"#utility.yul\":2621:2695   */\n  dup2\n  sstore\n    /* \"#utility.yul\":2508:2709   */\ntag_73:\n  pop\n  pop\n  pop\n  pop\n  pop\n    /* \"#utility.yul\":2755:2756   */\n  0x01\n    /* \"#utility.yul\":2739:2753   */\n  swap1\n  dup2\n  shl\n    /* \"#utility.yul\":2735:2757   */\n  add\n    /* \"#utility.yul\":2722:2758   */\n  swap1\n  sstore\n  pop\n    /* \"#utility.yul\":1673:3025   */\n  jump\t// out\n    /* \"#utility.yul\":3390:3612   */\ntag_31:\n    /* \"#utility.yul\":3455:3464   */\n  dup1\n  dup3\n  add\n    /* \"#utility.yul\":3476:3486   */\n  dup1\n  dup3\n  gt\n    /* \"#utility.yul\":3473:3606   */\n  iszero\n  tag_76\n  jumpi\n    /* \"#utility.yul\":3528:3538   */\n  0x4e487b71\n    /* \"#utility.yul\":3523:3526   */\n  0xe0\n    /* \"#utility.yul\":3519:3539   */\n  shl\n    /* \"#utility.yul\":3516:3517   */\n  0x00\n    /* \"#utility.yul\":3509:3540   */\n  mstore\n    /* \"#utility.yul\":3563:3567   */\n  0x11\n    /* \"#utility.yul\":3560:3561   */\n  0x04\n    /* \"#utility.yul\":3553:3568   */\n  mstore\n    /* \"#utility.yul\":3591:3595   */\n  0x24\n    /* \"#utility.yul\":3588:3589   */\n  0x00\n    /* \"#utility.yul\":3581:3596   */\n  revert\n    /* \"#utility.yul\":3473:3606   */\ntag_76:\n    /* \"#utility.yul\":3390:3612   */\n  swap3\n  swap2\n  pop\n  pop\n  jump\t// out\n    /* \"#utility.yul\":3617:3794   */\ntag_44:\n    /* \"money_flattened.sol\":34759:37383  contract MoneyAvaxReflectionToken is ERC20, Ownable, ReentrancyGuard {... */\n  dataSize(sub_0)\n  dup1\n  dataOffset(sub_0)\n  0x00\n  codecopy\n  0x00\n  return\nstop\n\nsub_0: assembly {\n        /* \"money_flattened.sol\":34759:37383  contract MoneyAvaxReflectionToken is ERC20, Ownable, ReentrancyGuard {... */\n      mstore(0x40, 0x80)\n      callvalue\n      dup1\n      iszero\n      tag_1\n      jumpi\n      0x00\n      dup1\n      revert\n    tag_1:\n      pop\n      jumpi(tag_2, lt(calldatasize, 0x04))\n      shr(0xe0, calldataload(0x00))\n      dup1\n      0x715018a6\n      gt\n      tag_21\n      jumpi\n      dup1\n      0xa35f942a\n      gt\n      tag_22\n      jumpi\n      dup1\n      0xa35f942a\n      eq\n      tag_16\n      jumpi\n      dup1\n      0xa457c2d7\n      eq\n      tag_17\n      jumpi\n      dup1\n      0xa9059cbb\n      eq\n      tag_18\n      jumpi\n      dup1\n      0xdd62ed3e\n      eq\n      tag_19\n      jumpi\n      dup1\n      0xf2fde38b\n      eq\n      tag_20\n      jumpi\n      0x00\n      dup1\n      revert\n    tag_22:\n      dup1\n      0x715018a6\n      eq\n      tag_12\n      jumpi\n      dup1\n      0x75f0a874\n      eq\n      tag_13\n      jumpi\n      dup1\n      0x8da5cb5b\n      eq\n      tag_14\n      jumpi\n      dup1\n      0x95d89b41\n      eq\n      tag_15\n      jumpi\n      0x00\n      dup1\n      revert\n    tag_21:\n      dup1\n      0x23b872dd\n      gt\n      tag_23\n      jumpi\n      dup1\n      0x23b872dd\n      eq\n      tag_7\n      jumpi\n      dup1\n      0x313ce567\n      eq\n      tag_8\n      jumpi\n      dup1\n      0x39509351\n      eq\n      tag_9\n      jumpi\n      dup1\n      0x452ed4f1\n      eq\n      tag_10\n      jumpi\n      dup1\n      0x70a08231\n      eq\n      tag_11\n      jumpi\n      0x00\n      dup1\n      revert\n    tag_23:\n      dup1\n      0x99d386\n      eq\n      tag_3\n      jumpi\n      dup1\n      0x06fdde03\n      eq\n      tag_4\n      jumpi\n      dup1\n      0x095ea7b3\n      eq\n      tag_5\n      jumpi\n      dup1\n      0x18160ddd\n      eq\n      tag_6\n      jumpi\n    tag_2:\n      0x00\n      dup1\n      revert\n        /* \"money_flattened.sol\":35504:35641  function enableTrade() external onlyOwner {... */\n    tag_3:\n      tag_24\n      tag_25\n      jump\t// in\n    tag_24:\n      stop\n        /* \"money_flattened.sol\":24237:24335  function name() public view virtual override returns (string memory) {... */\n    tag_4:\n      tag_26\n      tag_27\n      jump\t// in\n    tag_26:\n      mload(0x40)\n      tag_28\n      swap2\n      swap1\n      tag_29\n      jump\t// in\n    tag_28:\n      mload(0x40)\n      dup1\n      swap2\n      sub\n      swap1\n      return\n        /* \"money_flattened.sol\":26514:26711  function approve(address spender, uint256 amount) public virtual override returns (bool) {... */\n    tag_5:\n      tag_30\n      tag_31\n      calldatasize\n      0x04\n      tag_32\n      jump\t// in\n    tag_31:\n      tag_33\n      jump\t// in\n    tag_30:\n      mload(0x40)\n        /* \"#utility.yul\":1169:1183   */\n      swap1\n      iszero\n        /* \"#utility.yul\":1162:1184   */\n      iszero\n        /* \"#utility.yul\":1144:1185   */\n      dup2\n      mstore\n        /* \"#utility.yul\":1132:1134   */\n      0x20\n        /* \"#utility.yul\":1117:1135   */\n      add\n        /* \"money_flattened.sol\":26514:26711  function approve(address spender, uint256 amount) public virtual override returns (bool) {... */\n      tag_28\n        /* \"#utility.yul\":1004:1191   */\n      jump\n        /* \"money_flattened.sol\":25325:25431  function totalSupply() public view virtual override returns (uint256) {... */\n    tag_6:\n        /* \"money_flattened.sol\":25412:25424  _totalSupply */\n      sload(0x02)\n        /* \"money_flattened.sol\":25325:25431  function totalSupply() public view virtual override returns (uint256) {... */\n    tag_36:\n      mload(0x40)\n        /* \"#utility.yul\":1342:1367   */\n      swap1\n      dup2\n      mstore\n        /* \"#utility.yul\":1330:1332   */\n      0x20\n        /* \"#utility.yul\":1315:1333   */\n      add\n        /* \"money_flattened.sol\":25325:25431  function totalSupply() public view virtual override returns (uint256) {... */\n      tag_28\n        /* \"#utility.yul\":1196:1373   */\n      jump\n        /* \"money_flattened.sol\":36241:36557  function transferFrom(address from, address to, uint256 amount) public override nonReentrant returns (bool) {... */\n    tag_7:\n      tag_30\n      tag_41\n      calldatasize\n      0x04\n      tag_42\n      jump\t// in\n    tag_41:\n      tag_43\n      jump\t// in\n        /* \"money_flattened.sol\":25174:25265  function decimals() public view virtual override returns (uint8) {... */\n    tag_8:\n      mload(0x40)\n        /* \"money_flattened.sol\":25256:25258  18 */\n      0x12\n        /* \"#utility.yul\":1853:1889   */\n      dup2\n      mstore\n        /* \"#utility.yul\":1841:1843   */\n      0x20\n        /* \"#utility.yul\":1826:1844   */\n      add\n        /* \"money_flattened.sol\":25174:25265  function decimals() public view virtual override returns (uint8) {... */\n      tag_28\n        /* \"#utility.yul\":1711:1895   */\n      jump\n        /* \"money_flattened.sol\":27954:28190  function increaseAllowance(address spender, uint256 addedValue) public virtual returns (bool) {... */\n    tag_9:\n      tag_30\n      tag_50\n      calldatasize\n      0x04\n      tag_32\n      jump\t// in\n    tag_50:\n      tag_51\n      jump\t// in\n        /* \"money_flattened.sol\":34951:34972  address public lpPair */\n    tag_10:\n      sload(0x08)\n      tag_53\n      swap1\n      sub(shl(0xa0, 0x01), 0x01)\n      and\n      dup2\n      jump\n    tag_53:\n      mload(0x40)\n      sub(shl(0xa0, 0x01), 0x01)\n        /* \"#utility.yul\":2064:2096   */\n      swap1\n      swap2\n      and\n        /* \"#utility.yul\":2046:2097   */\n      dup2\n      mstore\n        /* \"#utility.yul\":2034:2036   */\n      0x20\n        /* \"#utility.yul\":2019:2037   */\n      add\n        /* \"money_flattened.sol\":34951:34972  address public lpPair */\n      tag_28\n        /* \"#utility.yul\":1900:2103   */\n      jump\n        /* \"money_flattened.sol\":25489:25614  function balanceOf(address account) public view virtual override returns (uint256) {... */\n    tag_11:\n      tag_36\n      tag_58\n      calldatasize\n      0x04\n      tag_59\n      jump\t// in\n    tag_58:\n      sub(shl(0xa0, 0x01), 0x01)\n        /* \"money_flattened.sol\":25589:25607  _balances[account] */\n      and\n        /* \"money_flattened.sol\":25563:25570  uint256 */\n      0x00\n        /* \"money_flattened.sol\":25589:25607  _balances[account] */\n      swap1\n      dup2\n      mstore\n      0x20\n      dup2\n      swap1\n      mstore\n      0x40\n      swap1\n      keccak256\n      sload\n      swap1\n        /* \"money_flattened.sol\":25489:25614  function balanceOf(address account) public view virtual override returns (uint256) {... */\n      jump\n        /* \"money_flattened.sol\":35844:35941  function renounceOwnership() public override onlyOwner {... */\n    tag_12:\n      tag_24\n      tag_63\n      jump\t// in\n        /* \"money_flattened.sol\":34978:35008  address public marketingWallet */\n    tag_13:\n      sload(0x09)\n      tag_53\n      swap1\n      sub(shl(0xa0, 0x01), 0x01)\n      and\n      dup2\n      jump\n        /* \"money_flattened.sol\":13101:13186  function owner() public view virtual returns (address) {... */\n    tag_14:\n        /* \"money_flattened.sol\":13173:13179  _owner */\n      and(sub(shl(0xa0, 0x01), 0x01), sload(0x05))\n        /* \"money_flattened.sol\":13101:13186  function owner() public view virtual returns (address) {... */\n      jump(tag_53)\n        /* \"money_flattened.sol\":24448:24550  function symbol() public view virtual override returns (string memory) {... */\n    tag_15:\n      tag_26\n      tag_71\n      jump\t// in\n        /* \"money_flattened.sol\":35410:35498  function setLpPair(address _lpPair) external onlyOwner {... */\n    tag_16:\n      tag_24\n      tag_74\n      calldatasize\n      0x04\n      tag_59\n      jump\t// in\n    tag_74:\n      tag_75\n      jump\t// in\n        /* \"money_flattened.sol\":28677:29106  function decreaseAllowance(address spender, uint256 subtractedValue) public virtual returns (bool) {... */\n    tag_17:\n      tag_30\n      tag_77\n      calldatasize\n      0x04\n      tag_32\n      jump\t// in\n    tag_77:\n      tag_78\n      jump\t// in\n        /* \"money_flattened.sol\":35947:36235  function transfer(address to, uint256 amount) public override nonReentrant returns (bool) {... */\n    tag_18:\n      tag_30\n      tag_81\n      calldatasize\n      0x04\n      tag_32\n      jump\t// in\n    tag_81:\n      tag_82\n      jump\t// in\n        /* \"money_flattened.sol\":26057:26206  function allowance(address owner, address spender) public view virtual override returns (uint256) {... */\n    tag_19:\n      tag_36\n      tag_85\n      calldatasize\n      0x04\n      tag_86\n      jump\t// in\n    tag_85:\n      sub(shl(0xa0, 0x01), 0x01)\n        /* \"money_flattened.sol\":26172:26190  _allowances[owner] */\n      swap2\n      dup3\n      and\n        /* \"money_flattened.sol\":26146:26153  uint256 */\n      0x00\n        /* \"money_flattened.sol\":26172:26190  _allowances[owner] */\n      swap1\n      dup2\n      mstore\n        /* \"money_flattened.sol\":26172:26183  _allowances */\n      0x01\n        /* \"money_flattened.sol\":26172:26190  _allowances[owner] */\n      0x20\n      swap1\n      dup2\n      mstore\n      0x40\n      dup1\n      dup4\n      keccak256\n        /* \"money_flattened.sol\":26172:26199  _allowances[owner][spender] */\n      swap4\n      swap1\n      swap5\n      and\n      dup3\n      mstore\n      swap2\n      swap1\n      swap2\n      mstore\n      keccak256\n      sload\n      swap1\n        /* \"money_flattened.sol\":26057:26206  function allowance(address owner, address spender) public view virtual override returns (uint256) {... */\n      jump\n        /* \"money_flattened.sol\":35647:35838  function transferOwnership(address newOwner) public override onlyOwner {... */\n    tag_20:\n      tag_24\n      tag_90\n      calldatasize\n      0x04\n      tag_59\n      jump\t// in\n    tag_90:\n      tag_91\n      jump\t// in\n        /* \"money_flattened.sol\":35504:35641  function enableTrade() external onlyOwner {... */\n    tag_25:\n        /* \"money_flattened.sol\":13173:13179  _owner */\n      and(sub(shl(0xa0, 0x01), 0x01), sload(0x05))\n        /* \"money_flattened.sol\":11889:11899  msg.sender */\n      caller\n        /* \"money_flattened.sol\":13313:13336  owner() == _msgSender() */\n      eq\n        /* \"money_flattened.sol\":13305:13373  require(owner() == _msgSender(), \"Ownable: caller is not the owner\") */\n      tag_96\n      jumpi\n      mload(0x40)\n      shl(0xe5, 0x461bcd)\n      dup2\n      mstore\n      0x04\n      add\n      tag_97\n      swap1\n      tag_98\n      jump\t// in\n    tag_97:\n      mload(0x40)\n      dup1\n      swap2\n      sub\n      swap1\n      revert\n    tag_96:\n        /* \"money_flattened.sol\":35565:35577  tradeEnabled */\n      sload(0x09)\n      shl(0xa0, 0x01)\n      swap1\n      div\n      0xff\n      and\n        /* \"money_flattened.sol\":35564:35577  !tradeEnabled */\n      iszero\n        /* \"money_flattened.sol\":35556:35605  require(!tradeEnabled, \"Trading already enabled\") */\n      tag_100\n      jumpi\n      mload(0x40)\n      shl(0xe5, 0x461bcd)\n      dup2\n      mstore\n        /* \"#utility.yul\":3127:3129   */\n      0x20\n        /* \"money_flattened.sol\":35556:35605  require(!tradeEnabled, \"Trading already enabled\") */\n      0x04\n      dup3\n      add\n        /* \"#utility.yul\":3109:3130   */\n      mstore\n        /* \"#utility.yul\":3166:3168   */\n      0x17\n        /* \"#utility.yul\":3146:3164   */\n      0x24\n      dup3\n      add\n        /* \"#utility.yul\":3139:3169   */\n      mstore\n        /* \"#utility.yul\":3205:3230   */\n      0x54726164696e6720616c726561647920656e61626c6564000000000000000000\n        /* \"#utility.yul\":3185:3203   */\n      0x44\n      dup3\n      add\n        /* \"#utility.yul\":3178:3231   */\n      mstore\n        /* \"#utility.yul\":3248:3266   */\n      0x64\n      add\n        /* \"money_flattened.sol\":35556:35605  require(!tradeEnabled, \"Trading already enabled\") */\n      tag_97\n        /* \"#utility.yul\":2925:3272   */\n      jump\n        /* \"money_flattened.sol\":35556:35605  require(!tradeEnabled, \"Trading already enabled\") */\n    tag_100:\n        /* \"money_flattened.sol\":35615:35627  tradeEnabled */\n      0x09\n        /* \"money_flattened.sol\":35615:35634  tradeEnabled = true */\n      dup1\n      sload\n      not(shl(0xa0, 0xff))\n      and\n      shl(0xa0, 0x01)\n      or\n      swap1\n      sstore\n        /* \"money_flattened.sol\":35504:35641  function enableTrade() external onlyOwner {... */\n      jump\t// out\n        /* \"money_flattened.sol\":24237:24335  function name() public view virtual override returns (string memory) {... */\n    tag_27:\n        /* \"money_flattened.sol\":24291:24304  string memory */\n      0x60\n        /* \"money_flattened.sol\":24323:24328  _name */\n      0x03\n        /* \"money_flattened.sol\":24316:24328  return _name */\n      dup1\n      sload\n      tag_104\n      swap1\n      tag_105\n      jump\t// in\n    tag_104:\n      dup1\n      0x1f\n      add\n      0x20\n      dup1\n      swap2\n      div\n      mul\n      0x20\n      add\n      mload(0x40)\n      swap1\n      dup2\n      add\n      0x40\n      mstore\n      dup1\n      swap3\n      swap2\n      swap1\n      dup2\n      dup2\n      mstore\n      0x20\n      add\n      dup3\n      dup1\n      sload\n      tag_106\n      swap1\n      tag_105\n      jump\t// in\n    tag_106:\n      dup1\n      iszero\n      tag_107\n      jumpi\n      dup1\n      0x1f\n      lt\n      tag_108\n      jumpi\n      0x0100\n      dup1\n      dup4\n      sload\n      div\n      mul\n      dup4\n      mstore\n      swap2\n      0x20\n      add\n      swap2\n      jump(tag_107)\n    tag_108:\n      dup3\n      add\n      swap2\n      swap1\n      0x00\n      mstore\n      keccak256(0x00, 0x20)\n      swap1\n    tag_109:\n      dup2\n      sload\n      dup2\n      mstore\n      swap1\n      0x01\n      add\n      swap1\n      0x20\n      add\n      dup1\n      dup4\n      gt\n      tag_109\n      jumpi\n      dup3\n      swap1\n      sub\n      0x1f\n      and\n      dup3\n      add\n      swap2\n    tag_107:\n      pop\n      pop\n      pop\n      pop\n      pop\n      swap1\n      pop\n        /* \"money_flattened.sol\":24237:24335  function name() public view virtual override returns (string memory) {... */\n      swap1\n      jump\t// out\n        /* \"money_flattened.sol\":26514:26711  function approve(address spender, uint256 amount) public virtual override returns (bool) {... */\n    tag_33:\n        /* \"money_flattened.sol\":26597:26601  bool */\n      0x00\n        /* \"money_flattened.sol\":11889:11899  msg.sender */\n      caller\n        /* \"money_flattened.sol\":26651:26683  _approve(owner, spender, amount) */\n      tag_112\n        /* \"money_flattened.sol\":11889:11899  msg.sender */\n      dup2\n        /* \"money_flattened.sol\":26667:26674  spender */\n      dup6\n        /* \"money_flattened.sol\":26676:26682  amount */\n      dup6\n        /* \"money_flattened.sol\":26651:26659  _approve */\n      tag_113\n        /* \"money_flattened.sol\":26651:26683  _approve(owner, spender, amount) */\n      jump\t// in\n    tag_112:\n        /* \"money_flattened.sol\":26700:26704  true */\n      0x01\n        /* \"money_flattened.sol\":26693:26704  return true */\n      swap2\n      pop\n      pop\n        /* \"money_flattened.sol\":26514:26711  function approve(address spender, uint256 amount) public virtual override returns (bool) {... */\n    tag_110:\n      swap3\n      swap2\n      pop\n      pop\n      jump\t// out\n        /* \"money_flattened.sol\":36241:36557  function transferFrom(address from, address to, uint256 amount) public override nonReentrant returns (bool) {... */\n    tag_43:\n        /* \"money_flattened.sol\":36343:36347  bool */\n      0x00\n        /* \"money_flattened.sol\":1836:1837  2 */\n      0x02\n        /* \"money_flattened.sol\":2417:2424  _status */\n      sload(0x06)\n        /* \"money_flattened.sol\":2417:2436  _status != _ENTERED */\n      sub\n        /* \"money_flattened.sol\":2409:2472  require(_status != _ENTERED, \"ReentrancyGuard: reentrant call\") */\n      tag_116\n      jumpi\n      mload(0x40)\n      shl(0xe5, 0x461bcd)\n      dup2\n      mstore\n        /* \"#utility.yul\":3864:3866   */\n      0x20\n        /* \"money_flattened.sol\":2409:2472  require(_status != _ENTERED, \"ReentrancyGuard: reentrant call\") */\n      0x04\n      dup3\n      add\n        /* \"#utility.yul\":3846:3867   */\n      mstore\n        /* \"#utility.yul\":3903:3905   */\n      0x1f\n        /* \"#utility.yul\":3883:3901   */\n      0x24\n      dup3\n      add\n        /* \"#utility.yul\":3876:3906   */\n      mstore\n        /* \"#utility.yul\":3942:3975   */\n      0x5265656e7472616e637947756172643a207265656e7472616e742063616c6c00\n        /* \"#utility.yul\":3922:3940   */\n      0x44\n      dup3\n      add\n        /* \"#utility.yul\":3915:3976   */\n      mstore\n        /* \"#utility.yul\":3993:4011   */\n      0x64\n      add\n        /* \"money_flattened.sol\":2409:2472  require(_status != _ENTERED, \"ReentrancyGuard: reentrant call\") */\n      tag_97\n        /* \"#utility.yul\":3662:4017   */\n      jump\n        /* \"money_flattened.sol\":2409:2472  require(_status != _ENTERED, \"ReentrancyGuard: reentrant call\") */\n    tag_116:\n        /* \"money_flattened.sol\":1836:1837  2 */\n      0x02\n        /* \"money_flattened.sol\":2547:2554  _status */\n      0x06\n        /* \"money_flattened.sol\":2547:2565  _status = _ENTERED */\n      sstore\n        /* \"money_flattened.sol\":36359:36378  _checkMaxTx(amount) */\n      tag_120\n        /* \"money_flattened.sol\":36371:36377  amount */\n      dup3\n        /* \"money_flattened.sol\":36359:36370  _checkMaxTx */\n      tag_121\n        /* \"money_flattened.sol\":36359:36378  _checkMaxTx(amount) */\n      jump\t// in\n    tag_120:\n        /* \"money_flattened.sol\":36388:36416  _tokenReflection(to, amount) */\n      tag_122\n        /* \"money_flattened.sol\":36405:36407  to */\n      dup4\n        /* \"money_flattened.sol\":36409:36415  amount */\n      dup4\n        /* \"money_flattened.sol\":36388:36404  _tokenReflection */\n      tag_123\n        /* \"money_flattened.sol\":36388:36416  _tokenReflection(to, amount) */\n      jump\t// in\n    tag_122:\n        /* \"money_flattened.sol\":36426:36446  _tokenLP(to, amount) */\n      tag_124\n        /* \"money_flattened.sol\":36435:36437  to */\n      dup4\n        /* \"money_flattened.sol\":36439:36445  amount */\n      dup4\n        /* \"money_flattened.sol\":36426:36434  _tokenLP */\n      tag_125\n        /* \"money_flattened.sol\":36426:36446  _tokenLP(to, amount) */\n      jump\t// in\n    tag_124:\n        /* \"money_flattened.sol\":36456:36483  _tokenMarketing(to, amount) */\n      tag_126\n        /* \"money_flattened.sol\":36472:36474  to */\n      dup4\n        /* \"money_flattened.sol\":36476:36482  amount */\n      dup4\n        /* \"money_flattened.sol\":36456:36471  _tokenMarketing */\n      tag_127\n        /* \"money_flattened.sol\":36456:36483  _tokenMarketing(to, amount) */\n      jump\t// in\n    tag_126:\n        /* \"money_flattened.sol\":36493:36529  super.transferFrom(from, to, amount) */\n      tag_128\n        /* \"money_flattened.sol\":36512:36516  from */\n      dup5\n        /* \"money_flattened.sol\":36518:36520  to */\n      dup5\n        /* \"money_flattened.sol\":36522:36528  amount */\n      dup5\n        /* \"money_flattened.sol\":36493:36511  super.transferFrom */\n      tag_129\n        /* \"money_flattened.sol\":36493:36529  super.transferFrom(from, to, amount) */\n      jump\t// in\n    tag_128:\n      pop\n        /* \"money_flattened.sol\":36546:36550  true */\n      0x01\n        /* \"money_flattened.sol\":36539:36550  return true */\n      swap1\n      pop\n        /* \"money_flattened.sol\":1793:1794  1 */\n      0x01\n        /* \"money_flattened.sol\":2720:2727  _status */\n      0x06\n        /* \"money_flattened.sol\":2720:2742  _status = _NOT_ENTERED */\n      sstore\n        /* \"money_flattened.sol\":36241:36557  function transferFrom(address from, address to, uint256 amount) public override nonReentrant returns (bool) {... */\n      swap4\n      swap3\n      pop\n      pop\n      pop\n      jump\t// out\n        /* \"money_flattened.sol\":27954:28190  function increaseAllowance(address spender, uint256 addedValue) public virtual returns (bool) {... */\n    tag_51:\n        /* \"money_flattened.sol\":11889:11899  msg.sender */\n      caller\n        /* \"money_flattened.sol\":28042:28046  bool */\n      0x00\n        /* \"money_flattened.sol\":28121:28139  _allowances[owner] */\n      dup2\n      dup2\n      mstore\n        /* \"money_flattened.sol\":28121:28132  _allowances */\n      0x01\n        /* \"money_flattened.sol\":28121:28139  _allowances[owner] */\n      0x20\n      swap1\n      dup2\n      mstore\n      0x40\n      dup1\n      dup4\n      keccak256\n      sub(shl(0xa0, 0x01), 0x01)\n        /* \"money_flattened.sol\":28121:28148  _allowances[owner][spender] */\n      dup8\n      and\n      dup5\n      mstore\n      swap1\n      swap2\n      mstore\n      dup2\n      keccak256\n      sload\n        /* \"money_flattened.sol\":28042:28046  bool */\n      swap1\n      swap2\n        /* \"money_flattened.sol\":11889:11899  msg.sender */\n      swap1\n        /* \"money_flattened.sol\":28096:28162  _approve(owner, spender, _allowances[owner][spender] + addedValue) */\n      tag_112\n      swap1\n        /* \"money_flattened.sol\":11889:11899  msg.sender */\n      dup3\n      swap1\n        /* \"money_flattened.sol\":28121:28148  _allowances[owner][spender] */\n      dup7\n      swap1\n        /* \"money_flattened.sol\":28121:28161  _allowances[owner][spender] + addedValue */\n      tag_134\n      swap1\n        /* \"money_flattened.sol\":28151:28161  addedValue */\n      dup8\n      swap1\n        /* \"money_flattened.sol\":28121:28161  _allowances[owner][spender] + addedValue */\n      tag_135\n      jump\t// in\n    tag_134:\n        /* \"money_flattened.sol\":28096:28104  _approve */\n      tag_113\n        /* \"money_flattened.sol\":28096:28162  _approve(owner, spender, _allowances[owner][spender] + addedValue) */\n      jump\t// in\n        /* \"money_flattened.sol\":35844:35941  function renounceOwnership() public override onlyOwner {... */\n    tag_63:\n        /* \"money_flattened.sol\":13173:13179  _owner */\n      and(sub(shl(0xa0, 0x01), 0x01), sload(0x05))\n        /* \"money_flattened.sol\":11889:11899  msg.sender */\n      caller\n        /* \"money_flattened.sol\":13313:13336  owner() == _msgSender() */\n      eq\n        /* \"money_flattened.sol\":13305:13373  require(owner() == _msgSender(), \"Ownable: caller is not the owner\") */\n      tag_140\n      jumpi\n      mload(0x40)\n      shl(0xe5, 0x461bcd)\n      dup2\n      mstore\n      0x04\n      add\n      tag_97\n      swap1\n      tag_98\n      jump\t// in\n    tag_140:\n        /* \"money_flattened.sol\":35909:35934  super.renounceOwnership() */\n      tag_143\n        /* \"money_flattened.sol\":35909:35932  super.renounceOwnership */\n      tag_144\n        /* \"money_flattened.sol\":35909:35934  super.renounceOwnership() */\n      jump\t// in\n    tag_143:\n        /* \"money_flattened.sol\":35844:35941  function renounceOwnership() public override onlyOwner {... */\n      jump\t// out\n        /* \"money_flattened.sol\":24448:24550  function symbol() public view virtual override returns (string memory) {... */\n    tag_71:\n        /* \"money_flattened.sol\":24504:24517  string memory */\n      0x60\n        /* \"money_flattened.sol\":24536:24543  _symbol */\n      0x04\n        /* \"money_flattened.sol\":24529:24543  return _symbol */\n      dup1\n      sload\n      tag_104\n      swap1\n      tag_105\n      jump\t// in\n        /* \"money_flattened.sol\":35410:35498  function setLpPair(address _lpPair) external onlyOwner {... */\n    tag_75:\n        /* \"money_flattened.sol\":13173:13179  _owner */\n      and(sub(shl(0xa0, 0x01), 0x01), sload(0x05))\n        /* \"money_flattened.sol\":11889:11899  msg.sender */\n      caller\n        /* \"money_flattened.sol\":13313:13336  owner() == _msgSender() */\n      eq\n        /* \"money_flattened.sol\":13305:13373  require(owner() == _msgSender(), \"Ownable: caller is not the owner\") */\n      tag_155\n      jumpi\n      mload(0x40)\n      shl(0xe5, 0x461bcd)\n      dup2\n      mstore\n      0x04\n      add\n      tag_97\n      swap1\n      tag_98\n      jump\t// in\n    tag_155:\n        /* \"money_flattened.sol\":35475:35481  lpPair */\n      0x08\n        /* \"money_flattened.sol\":35475:35491  lpPair = _lpPair */\n      dup1\n      sload\n      not(sub(shl(0xa0, 0x01), 0x01))\n      and\n      sub(shl(0xa0, 0x01), 0x01)\n      swap3\n      swap1\n      swap3\n      and\n      swap2\n      swap1\n      swap2\n      or\n      swap1\n      sstore\n        /* \"money_flattened.sol\":35410:35498  function setLpPair(address _lpPair) external onlyOwner {... */\n      jump\t// out\n        /* \"money_flattened.sol\":28677:29106  function decreaseAllowance(address spender, uint256 subtractedValue) public virtual returns (bool) {... */\n    tag_78:\n        /* \"money_flattened.sol\":11889:11899  msg.sender */\n      caller\n        /* \"money_flattened.sol\":28770:28774  bool */\n      0x00\n        /* \"money_flattened.sol\":28851:28869  _allowances[owner] */\n      dup2\n      dup2\n      mstore\n        /* \"money_flattened.sol\":28851:28862  _allowances */\n      0x01\n        /* \"money_flattened.sol\":28851:28869  _allowances[owner] */\n      0x20\n      swap1\n      dup2\n      mstore\n      0x40\n      dup1\n      dup4\n      keccak256\n      sub(shl(0xa0, 0x01), 0x01)\n        /* \"money_flattened.sol\":28851:28878  _allowances[owner][spender] */\n      dup8\n      and\n      dup5\n      mstore\n      swap1\n      swap2\n      mstore\n      dup2\n      keccak256\n      sload\n        /* \"money_flattened.sol\":28770:28774  bool */\n      swap1\n      swap2\n        /* \"money_flattened.sol\":11889:11899  msg.sender */\n      swap1\n        /* \"money_flattened.sol\":28896:28931  currentAllowance >= subtractedValue */\n      dup4\n      dup2\n      lt\n      iszero\n        /* \"money_flattened.sol\":28888:28973  require(currentAllowance >= subtractedValue, \"ERC20: decreased allowance below zero\") */\n      tag_160\n      jumpi\n      mload(0x40)\n      shl(0xe5, 0x461bcd)\n      dup2\n      mstore\n        /* \"#utility.yul\":4486:4488   */\n      0x20\n        /* \"money_flattened.sol\":28888:28973  require(currentAllowance >= subtractedValue, \"ERC20: decreased allowance below zero\") */\n      0x04\n      dup3\n      add\n        /* \"#utility.yul\":4468:4489   */\n      mstore\n        /* \"#utility.yul\":4525:4527   */\n      0x25\n        /* \"#utility.yul\":4505:4523   */\n      0x24\n      dup3\n      add\n        /* \"#utility.yul\":4498:4528   */\n      mstore\n        /* \"#utility.yul\":4564:4598   */\n      0x45524332303a2064656372656173656420616c6c6f77616e63652062656c6f77\n        /* \"#utility.yul\":4544:4562   */\n      0x44\n      dup3\n      add\n        /* \"#utility.yul\":4537:4599   */\n      mstore\n      shl(0xd8, 0x207a65726f)\n        /* \"#utility.yul\":4615:4633   */\n      0x64\n      dup3\n      add\n        /* \"#utility.yul\":4608:4643   */\n      mstore\n        /* \"#utility.yul\":4660:4679   */\n      0x84\n      add\n        /* \"money_flattened.sol\":28888:28973  require(currentAllowance >= subtractedValue, \"ERC20: decreased allowance below zero\") */\n      tag_97\n        /* \"#utility.yul\":4284:4685   */\n      jump\n        /* \"money_flattened.sol\":28888:28973  require(currentAllowance >= subtractedValue, \"ERC20: decreased allowance below zero\") */\n    tag_160:\n        /* \"money_flattened.sol\":29007:29067  _approve(owner, spender, currentAllowance - subtractedValue) */\n      tag_163\n        /* \"money_flattened.sol\":29016:29021  owner */\n      dup3\n        /* \"money_flattened.sol\":29023:29030  spender */\n      dup7\n        /* \"money_flattened.sol\":29051:29066  subtractedValue */\n      dup7\n        /* \"money_flattened.sol\":29032:29048  currentAllowance */\n      dup5\n        /* \"money_flattened.sol\":29032:29066  currentAllowance - subtractedValue */\n      sub\n        /* \"money_flattened.sol\":29007:29015  _approve */\n      tag_113\n        /* \"money_flattened.sol\":29007:29067  _approve(owner, spender, currentAllowance - subtractedValue) */\n      jump\t// in\n    tag_163:\n      pop\n        /* \"money_flattened.sol\":29095:29099  true */\n      0x01\n      swap5\n        /* \"money_flattened.sol\":28677:29106  function decreaseAllowance(address spender, uint256 subtractedValue) public virtual returns (bool) {... */\n      swap4\n      pop\n      pop\n      pop\n      pop\n      jump\t// out\n        /* \"money_flattened.sol\":35947:36235  function transfer(address to, uint256 amount) public override nonReentrant returns (bool) {... */\n    tag_82:\n        /* \"money_flattened.sol\":36031:36035  bool */\n      0x00\n        /* \"money_flattened.sol\":1836:1837  2 */\n      0x02\n        /* \"money_flattened.sol\":2417:2424  _status */\n      sload(0x06)\n        /* \"money_flattened.sol\":2417:2436  _status != _ENTERED */\n      sub\n        /* \"money_flattened.sol\":2409:2472  require(_status != _ENTERED, \"ReentrancyGuard: reentrant call\") */\n      tag_165\n      jumpi\n      mload(0x40)\n      shl(0xe5, 0x461bcd)\n      dup2\n      mstore\n        /* \"#utility.yul\":3864:3866   */\n      0x20\n        /* \"money_flattened.sol\":2409:2472  require(_status != _ENTERED, \"ReentrancyGuard: reentrant call\") */\n      0x04\n      dup3\n      add\n        /* \"#utility.yul\":3846:3867   */\n      mstore\n        /* \"#utility.yul\":3903:3905   */\n      0x1f\n        /* \"#utility.yul\":3883:3901   */\n      0x24\n      dup3\n      add\n        /* \"#utility.yul\":3876:3906   */\n      mstore\n        /* \"#utility.yul\":3942:3975   */\n      0x5265656e7472616e637947756172643a207265656e7472616e742063616c6c00\n        /* \"#utility.yul\":3922:3940   */\n      0x44\n      dup3\n      add\n        /* \"#utility.yul\":3915:3976   */\n      mstore\n        /* \"#utility.yul\":3993:4011   */\n      0x64\n      add\n        /* \"money_flattened.sol\":2409:2472  require(_status != _ENTERED, \"ReentrancyGuard: reentrant call\") */\n      tag_97\n        /* \"#utility.yul\":3662:4017   */\n      jump\n        /* \"money_flattened.sol\":2409:2472  require(_status != _ENTERED, \"ReentrancyGuard: reentrant call\") */\n    tag_165:\n        /* \"money_flattened.sol\":1836:1837  2 */\n      0x02\n        /* \"money_flattened.sol\":2547:2554  _status */\n      0x06\n        /* \"money_flattened.sol\":2547:2565  _status = _ENTERED */\n      sstore\n        /* \"money_flattened.sol\":36047:36066  _checkMaxTx(amount) */\n      tag_168\n        /* \"money_flattened.sol\":36059:36065  amount */\n      dup3\n        /* \"money_flattened.sol\":36047:36058  _checkMaxTx */\n      tag_121\n        /* \"money_flattened.sol\":36047:36066  _checkMaxTx(amount) */\n      jump\t// in\n    tag_168:\n        /* \"money_flattened.sol\":36076:36104  _tokenReflection(to, amount) */\n      tag_169\n        /* \"money_flattened.sol\":36093:36095  to */\n      dup4\n        /* \"money_flattened.sol\":36097:36103  amount */\n      dup4\n        /* \"money_flattened.sol\":36076:36092  _tokenReflection */\n      tag_123\n        /* \"money_flattened.sol\":36076:36104  _tokenReflection(to, amount) */\n      jump\t// in\n    tag_169:\n        /* \"money_flattened.sol\":36114:36134  _tokenLP(to, amount) */\n      tag_170\n        /* \"money_flattened.sol\":36123:36125  to */\n      dup4\n        /* \"money_flattened.sol\":36127:36133  amount */\n      dup4\n        /* \"money_flattened.sol\":36114:36122  _tokenLP */\n      tag_125\n        /* \"money_flattened.sol\":36114:36134  _tokenLP(to, amount) */\n      jump\t// in\n    tag_170:\n        /* \"money_flattened.sol\":36144:36171  _tokenMarketing(to, amount) */\n      tag_171\n        /* \"money_flattened.sol\":36160:36162  to */\n      dup4\n        /* \"money_flattened.sol\":36164:36170  amount */\n      dup4\n        /* \"money_flattened.sol\":36144:36159  _tokenMarketing */\n      tag_127\n        /* \"money_flattened.sol\":36144:36171  _tokenMarketing(to, amount) */\n      jump\t// in\n    tag_171:\n        /* \"money_flattened.sol\":36181:36207  super.transfer(to, amount) */\n      tag_172\n        /* \"money_flattened.sol\":36196:36198  to */\n      dup4\n        /* \"money_flattened.sol\":36200:36206  amount */\n      dup4\n        /* \"money_flattened.sol\":36181:36195  super.transfer */\n      tag_173\n        /* \"money_flattened.sol\":36181:36207  super.transfer(to, amount) */\n      jump\t// in\n    tag_172:\n      pop\n        /* \"money_flattened.sol\":36224:36228  true */\n      0x01\n        /* \"money_flattened.sol\":36217:36228  return true */\n      swap1\n      pop\n        /* \"money_flattened.sol\":1793:1794  1 */\n      0x01\n        /* \"money_flattened.sol\":2720:2727  _status */\n      0x06\n        /* \"money_flattened.sol\":2720:2742  _status = _NOT_ENTERED */\n      sstore\n        /* \"money_flattened.sol\":35947:36235  function transfer(address to, uint256 amount) public override nonReentrant returns (bool) {... */\n      swap3\n      swap2\n      pop\n      pop\n      jump\t// out\n        /* \"money_flattened.sol\":35647:35838  function transferOwnership(address newOwner) public override onlyOwner {... */\n    tag_91:\n        /* \"money_flattened.sol\":13173:13179  _owner */\n      and(sub(shl(0xa0, 0x01), 0x01), sload(0x05))\n        /* \"money_flattened.sol\":11889:11899  msg.sender */\n      caller\n        /* \"money_flattened.sol\":13313:13336  owner() == _msgSender() */\n      eq\n        /* \"money_flattened.sol\":13305:13373  require(owner() == _msgSender(), \"Ownable: caller is not the owner\") */\n      tag_178\n      jumpi\n      mload(0x40)\n      shl(0xe5, 0x461bcd)\n      dup2\n      mstore\n      0x04\n      add\n      tag_97\n      swap1\n      tag_98\n      jump\t// in\n    tag_178:\n      sub(shl(0xa0, 0x01), 0x01)\n        /* \"money_flattened.sol\":35736:35758  newOwner != address(0) */\n      dup2\n      and\n        /* \"money_flattened.sol\":35728:35788  require(newOwner != address(0), \"Invalid new owner address\") */\n      tag_181\n      jumpi\n      mload(0x40)\n      shl(0xe5, 0x461bcd)\n      dup2\n      mstore\n        /* \"#utility.yul\":4892:4894   */\n      0x20\n        /* \"money_flattened.sol\":35728:35788  require(newOwner != address(0), \"Invalid new owner address\") */\n      0x04\n      dup3\n      add\n        /* \"#utility.yul\":4874:4895   */\n      mstore\n        /* \"#utility.yul\":4931:4933   */\n      0x19\n        /* \"#utility.yul\":4911:4929   */\n      0x24\n      dup3\n      add\n        /* \"#utility.yul\":4904:4934   */\n      mstore\n        /* \"#utility.yul\":4970:4997   */\n      0x496e76616c6964206e6577206f776e6572206164647265737300000000000000\n        /* \"#utility.yul\":4950:4968   */\n      0x44\n      dup3\n      add\n        /* \"#utility.yul\":4943:4998   */\n      mstore\n        /* \"#utility.yul\":5015:5033   */\n      0x64\n      add\n        /* \"money_flattened.sol\":35728:35788  require(newOwner != address(0), \"Invalid new owner address\") */\n      tag_97\n        /* \"#utility.yul\":4690:5039   */\n      jump\n        /* \"money_flattened.sol\":35728:35788  require(newOwner != address(0), \"Invalid new owner address\") */\n    tag_181:\n        /* \"money_flattened.sol\":35798:35831  super.transferOwnership(newOwner) */\n      tag_184\n        /* \"money_flattened.sol\":35822:35830  newOwner */\n      dup2\n        /* \"money_flattened.sol\":35798:35821  super.transferOwnership */\n      tag_185\n        /* \"money_flattened.sol\":35798:35831  super.transferOwnership(newOwner) */\n      jump\t// in\n    tag_184:\n        /* \"money_flattened.sol\":35647:35838  function transferOwnership(address newOwner) public override onlyOwner {... */\n      pop\n      jump\t// out\n        /* \"money_flattened.sol\":32204:32574  function _approve(... */\n    tag_113:\n      sub(shl(0xa0, 0x01), 0x01)\n        /* \"money_flattened.sol\":32335:32354  owner != address(0) */\n      dup4\n      and\n        /* \"money_flattened.sol\":32327:32395  require(owner != address(0), \"ERC20: approve from the zero address\") */\n      tag_188\n      jumpi\n      mload(0x40)\n      shl(0xe5, 0x461bcd)\n      dup2\n      mstore\n        /* \"#utility.yul\":5246:5248   */\n      0x20\n        /* \"money_flattened.sol\":32327:32395  require(owner != address(0), \"ERC20: approve from the zero address\") */\n      0x04\n      dup3\n      add\n        /* \"#utility.yul\":5228:5249   */\n      mstore\n        /* \"#utility.yul\":5285:5287   */\n      0x24\n        /* \"#utility.yul\":5265:5283   */\n      dup1\n      dup3\n      add\n        /* \"#utility.yul\":5258:5288   */\n      mstore\n        /* \"#utility.yul\":5324:5358   */\n      0x45524332303a20617070726f76652066726f6d20746865207a65726f20616464\n        /* \"#utility.yul\":5304:5322   */\n      0x44\n      dup3\n      add\n        /* \"#utility.yul\":5297:5359   */\n      mstore\n      shl(0xe0, 0x72657373)\n        /* \"#utility.yul\":5375:5393   */\n      0x64\n      dup3\n      add\n        /* \"#utility.yul\":5368:5402   */\n      mstore\n        /* \"#utility.yul\":5419:5438   */\n      0x84\n      add\n        /* \"money_flattened.sol\":32327:32395  require(owner != address(0), \"ERC20: approve from the zero address\") */\n      tag_97\n        /* \"#utility.yul\":5044:5444   */\n      jump\n        /* \"money_flattened.sol\":32327:32395  require(owner != address(0), \"ERC20: approve from the zero address\") */\n    tag_188:\n      sub(shl(0xa0, 0x01), 0x01)\n        /* \"money_flattened.sol\":32413:32434  spender != address(0) */\n      dup3\n      and\n        /* \"money_flattened.sol\":32405:32473  require(spender != address(0), \"ERC20: approve to the zero address\") */\n      tag_191\n      jumpi\n      mload(0x40)\n      shl(0xe5, 0x461bcd)\n      dup2\n      mstore\n        /* \"#utility.yul\":5651:5653   */\n      0x20\n        /* \"money_flattened.sol\":32405:32473  require(spender != address(0), \"ERC20: approve to the zero address\") */\n      0x04\n      dup3\n      add\n        /* \"#utility.yul\":5633:5654   */\n      mstore\n        /* \"#utility.yul\":5690:5692   */\n      0x22\n        /* \"#utility.yul\":5670:5688   */\n      0x24\n      dup3\n      add\n        /* \"#utility.yul\":5663:5693   */\n      mstore\n        /* \"#utility.yul\":5729:5763   */\n      0x45524332303a20617070726f766520746f20746865207a65726f206164647265\n        /* \"#utility.yul\":5709:5727   */\n      0x44\n      dup3\n      add\n        /* \"#utility.yul\":5702:5764   */\n      mstore\n      shl(0xf0, 0x7373)\n        /* \"#utility.yul\":5780:5798   */\n      0x64\n      dup3\n      add\n        /* \"#utility.yul\":5773:5805   */\n      mstore\n        /* \"#utility.yul\":5822:5841   */\n      0x84\n      add\n        /* \"money_flattened.sol\":32405:32473  require(spender != address(0), \"ERC20: approve to the zero address\") */\n      tag_97\n        /* \"#utility.yul\":5449:5847   */\n      jump\n        /* \"money_flattened.sol\":32405:32473  require(spender != address(0), \"ERC20: approve to the zero address\") */\n    tag_191:\n      sub(shl(0xa0, 0x01), 0x01)\n        /* \"money_flattened.sol\":32484:32502  _allowances[owner] */\n      dup4\n      dup2\n      and\n      0x00\n      dup2\n      dup2\n      mstore\n        /* \"money_flattened.sol\":32484:32495  _allowances */\n      0x01\n        /* \"money_flattened.sol\":32484:32502  _allowances[owner] */\n      0x20\n      swap1\n      dup2\n      mstore\n      0x40\n      dup1\n      dup4\n      keccak256\n        /* \"money_flattened.sol\":32484:32511  _allowances[owner][spender] */\n      swap5\n      dup8\n      and\n      dup1\n      dup5\n      mstore\n      swap5\n      dup3\n      mstore\n      swap2\n      dup3\n      swap1\n      keccak256\n        /* \"money_flattened.sol\":32484:32520  _allowances[owner][spender] = amount */\n      dup6\n      swap1\n      sstore\n        /* \"money_flattened.sol\":32535:32567  Approval(owner, spender, amount) */\n      swap1\n      mload\n        /* \"#utility.yul\":1342:1367   */\n      dup5\n      dup2\n      mstore\n        /* \"money_flattened.sol\":32535:32567  Approval(owner, spender, amount) */\n      0x8c5be1e5ebec7d5bd14f71427d1e84f3dd0314c0f7b2291e5b200ac8c7c3b925\n      swap2\n        /* \"#utility.yul\":1315:1333   */\n      add\n        /* \"money_flattened.sol\":32535:32567  Approval(owner, spender, amount) */\n      mload(0x40)\n      dup1\n      swap2\n      sub\n      swap1\n      log3\n        /* \"money_flattened.sol\":32204:32574  function _approve(... */\n      pop\n      pop\n      pop\n      jump\t// out\n        /* \"money_flattened.sol\":36563:36802  function _checkMaxTx(uint256 amount) internal view {... */\n    tag_121:\n        /* \"money_flattened.sol\":36674:36677  100 */\n      0x64\n        /* \"money_flattened.sol\":36643:36670  MAX_TX_PERCENT * MAX_SUPPLY */\n      tag_196\n        /* \"money_flattened.sol\":35053:35059  10**24 */\n      0xd3c21bcecceda1000000\n        /* \"money_flattened.sol\":35107:35108  1 */\n      0x01\n        /* \"money_flattened.sol\":36643:36670  MAX_TX_PERCENT * MAX_SUPPLY */\n      tag_197\n      jump\t// in\n    tag_196:\n        /* \"money_flattened.sol\":36642:36677  (MAX_TX_PERCENT * MAX_SUPPLY) / 100 */\n      tag_198\n      swap2\n      swap1\n      tag_199\n      jump\t// in\n    tag_198:\n        /* \"money_flattened.sol\":36632:36638  amount */\n      dup2\n        /* \"money_flattened.sol\":36632:36677  amount <= (MAX_TX_PERCENT * MAX_SUPPLY) / 100 */\n      gt\n      iszero\n        /* \"money_flattened.sol\":36624:36712  require(amount <= (MAX_TX_PERCENT * MAX_SUPPLY) / 100, \"Exceeds max transaction amount\") */\n      tag_200\n      jumpi\n      mload(0x40)\n      shl(0xe5, 0x461bcd)\n      dup2\n      mstore\n        /* \"#utility.yul\":6449:6451   */\n      0x20\n        /* \"money_flattened.sol\":36624:36712  require(amount <= (MAX_TX_PERCENT * MAX_SUPPLY) / 100, \"Exceeds max transaction amount\") */\n      0x04\n      dup3\n      add\n        /* \"#utility.yul\":6431:6452   */\n      mstore\n        /* \"#utility.yul\":6488:6490   */\n      0x1e\n        /* \"#utility.yul\":6468:6486   */\n      0x24\n      dup3\n      add\n        /* \"#utility.yul\":6461:6491   */\n      mstore\n        /* \"#utility.yul\":6527:6559   */\n      0x45786365656473206d6178207472616e73616374696f6e20616d6f756e740000\n        /* \"#utility.yul\":6507:6525   */\n      0x44\n      dup3\n      add\n        /* \"#utility.yul\":6500:6560   */\n      mstore\n        /* \"#utility.yul\":6577:6595   */\n      0x64\n      add\n        /* \"money_flattened.sol\":36624:36712  require(amount <= (MAX_TX_PERCENT * MAX_SUPPLY) / 100, \"Exceeds max transaction amount\") */\n      tag_97\n        /* \"#utility.yul\":6247:6601   */\n      jump\n        /* \"money_flattened.sol\":36624:36712  require(amount <= (MAX_TX_PERCENT * MAX_SUPPLY) / 100, \"Exceeds max transaction amount\") */\n    tag_200:\n        /* \"money_flattened.sol\":36730:36742  tradeEnabled */\n      sload(0x09)\n      shl(0xa0, 0x01)\n      swap1\n      div\n      0xff\n      and\n      dup1\n        /* \"money_flattened.sol\":36730:36767  tradeEnabled || msg.sender == owner() */\n      tag_203\n      jumpi\n      pop\n        /* \"money_flattened.sol\":13173:13179  _owner */\n      and(sub(shl(0xa0, 0x01), 0x01), sload(0x05))\n        /* \"money_flattened.sol\":36746:36756  msg.sender */\n      caller\n        /* \"money_flattened.sol\":36746:36767  msg.sender == owner() */\n      eq\n        /* \"money_flattened.sol\":36730:36767  tradeEnabled || msg.sender == owner() */\n    tag_203:\n        /* \"money_flattened.sol\":36722:36795  require(tradeEnabled || msg.sender == owner(), \"Trading not yet enabled\") */\n      tag_184\n      jumpi\n      mload(0x40)\n      shl(0xe5, 0x461bcd)\n      dup2\n      mstore\n        /* \"#utility.yul\":6808:6810   */\n      0x20\n        /* \"money_flattened.sol\":36722:36795  require(tradeEnabled || msg.sender == owner(), \"Trading not yet enabled\") */\n      0x04\n      dup3\n      add\n        /* \"#utility.yul\":6790:6811   */\n      mstore\n        /* \"#utility.yul\":6847:6849   */\n      0x17\n        /* \"#utility.yul\":6827:6845   */\n      0x24\n      dup3\n      add\n        /* \"#utility.yul\":6820:6850   */\n      mstore\n        /* \"#utility.yul\":6886:6911   */\n      0x54726164696e67206e6f742079657420656e61626c6564000000000000000000\n        /* \"#utility.yul\":6866:6884   */\n      0x44\n      dup3\n      add\n        /* \"#utility.yul\":6859:6912   */\n      mstore\n        /* \"#utility.yul\":6929:6947   */\n      0x64\n      add\n        /* \"money_flattened.sol\":36722:36795  require(tradeEnabled || msg.sender == owner(), \"Trading not yet enabled\") */\n      tag_97\n        /* \"#utility.yul\":6606:6953   */\n      jump\n        /* \"money_flattened.sol\":36808:36983  function _tokenReflection(address to, uint256 amount) internal {... */\n    tag_123:\n        /* \"money_flattened.sol\":36881:36905  uint256 reflectionAmount */\n      0x00\n        /* \"money_flattened.sol\":36923:36926  100 */\n      0x64\n        /* \"money_flattened.sol\":36909:36919  amount * 5 */\n      tag_209\n        /* \"money_flattened.sol\":36909:36915  amount */\n      dup4\n        /* \"money_flattened.sol\":36918:36919  5 */\n      0x05\n        /* \"money_flattened.sol\":36909:36919  amount * 5 */\n      tag_197\n      jump\t// in\n    tag_209:\n        /* \"money_flattened.sol\":36908:36926  (amount * 5) / 100 */\n      tag_210\n      swap2\n      swap1\n      tag_199\n      jump\t// in\n    tag_210:\n        /* \"money_flattened.sol\":36936:36945  wethToken */\n      sload(0x07)\n        /* \"money_flattened.sol\":36936:36976  wethToken.transfer(to, reflectionAmount) */\n      mload(0x40)\n      shl(0xe0, 0xa9059cbb)\n      dup2\n      mstore\n      sub(shl(0xa0, 0x01), 0x01)\n        /* \"#utility.yul\":7150:7182   */\n      dup7\n      dup2\n      and\n        /* \"money_flattened.sol\":36936:36976  wethToken.transfer(to, reflectionAmount) */\n      0x04\n      dup4\n      add\n        /* \"#utility.yul\":7132:7183   */\n      mstore\n        /* \"#utility.yul\":7199:7217   */\n      0x24\n      dup3\n      add\n        /* \"#utility.yul\":7192:7226   */\n      dup5\n      swap1\n      mstore\n        /* \"money_flattened.sol\":36881:36926  uint256 reflectionAmount = (amount * 5) / 100 */\n      swap3\n      swap4\n      pop\n        /* \"money_flattened.sol\":36936:36945  wethToken */\n      swap2\n      and\n      swap1\n        /* \"money_flattened.sol\":36936:36954  wethToken.transfer */\n      0xa9059cbb\n      swap1\n        /* \"#utility.yul\":7105:7123   */\n      0x44\n      add\n        /* \"money_flattened.sol\":36936:36976  wethToken.transfer(to, reflectionAmount) */\n      0x20\n      mload(0x40)\n      dup1\n      dup4\n      sub\n      dup2\n      0x00\n      dup8\n      gas\n      call\n      iszero\n      dup1\n      iszero\n      tag_214\n      jumpi\n      returndatasize\n      0x00\n      dup1\n      returndatacopy\n      revert(0x00, returndatasize)\n    tag_214:\n      pop\n      pop\n      pop\n      pop\n      mload(0x40)\n      returndatasize\n      not(0x1f)\n      0x1f\n      dup3\n      add\n      and\n      dup3\n      add\n      dup1\n      0x40\n      mstore\n      pop\n      dup2\n      add\n      swap1\n      tag_215\n      swap2\n      swap1\n      tag_216\n      jump\t// in\n    tag_215:\n      pop\n        /* \"money_flattened.sol\":36871:36983  {... */\n      pop\n        /* \"money_flattened.sol\":36808:36983  function _tokenReflection(address to, uint256 amount) internal {... */\n      pop\n      pop\n      jump\t// out\n        /* \"money_flattened.sol\":36989:37194  function _tokenLP(address to, uint256 amount) internal {... */\n    tag_125:\n        /* \"money_flattened.sol\":37058:37064  lpPair */\n      and(sub(shl(0xa0, 0x01), 0x01), sload(0x08))\n        /* \"money_flattened.sol\":37058:37078  lpPair != address(0) */\n      iszero\n        /* \"money_flattened.sol\":37054:37188  if (lpPair != address(0)) {... */\n      tag_218\n      jumpi\n        /* \"money_flattened.sol\":37094:37110  uint256 lpAmount */\n      0x00\n        /* \"money_flattened.sol\":37128:37131  100 */\n      0x64\n        /* \"money_flattened.sol\":37114:37124  amount * 2 */\n      tag_219\n        /* \"money_flattened.sol\":37114:37120  amount */\n      dup4\n        /* \"money_flattened.sol\":37123:37124  2 */\n      0x02\n        /* \"money_flattened.sol\":37114:37124  amount * 2 */\n      tag_197\n      jump\t// in\n    tag_219:\n        /* \"money_flattened.sol\":37113:37131  (amount * 2) / 100 */\n      tag_220\n      swap2\n      swap1\n      tag_199\n      jump\t// in\n    tag_220:\n        /* \"money_flattened.sol\":37160:37166  lpPair */\n      sload(0x08)\n        /* \"money_flattened.sol\":37094:37131  uint256 lpAmount = (amount * 2) / 100 */\n      swap1\n      swap2\n      pop\n        /* \"money_flattened.sol\":37145:37177  super.transfer(lpPair, lpAmount) */\n      tag_215\n      swap1\n      sub(shl(0xa0, 0x01), 0x01)\n        /* \"money_flattened.sol\":37160:37166  lpPair */\n      and\n        /* \"money_flattened.sol\":37094:37131  uint256 lpAmount = (amount * 2) / 100 */\n      dup3\n        /* \"money_flattened.sol\":37145:37159  super.transfer */\n      tag_173\n        /* \"money_flattened.sol\":37145:37177  super.transfer(lpPair, lpAmount) */\n      jump\t// in\n        /* \"money_flattened.sol\":37054:37188  if (lpPair != address(0)) {... */\n    tag_218:\n        /* \"money_flattened.sol\":36989:37194  function _tokenLP(address to, uint256 amount) internal {... */\n      pop\n      pop\n      jump\t// out\n        /* \"money_flattened.sol\":37200:37381  function _tokenMarketing(address to, uint256 amount) internal {... */\n    tag_127:\n        /* \"money_flattened.sol\":37272:37295  uint256 marketingAmount */\n      0x00\n        /* \"money_flattened.sol\":37313:37316  100 */\n      0x64\n        /* \"money_flattened.sol\":37299:37309  amount * 1 */\n      tag_223\n        /* \"money_flattened.sol\":37299:37305  amount */\n      dup4\n        /* \"money_flattened.sol\":37308:37309  1 */\n      0x01\n        /* \"money_flattened.sol\":37299:37309  amount * 1 */\n      tag_197\n      jump\t// in\n    tag_223:\n        /* \"money_flattened.sol\":37298:37316  (amount * 1) / 100 */\n      tag_224\n      swap2\n      swap1\n      tag_199\n      jump\t// in\n    tag_224:\n        /* \"money_flattened.sol\":37341:37356  marketingWallet */\n      sload(0x09)\n        /* \"money_flattened.sol\":37272:37316  uint256 marketingAmount = (amount * 1) / 100 */\n      swap1\n      swap2\n      pop\n        /* \"money_flattened.sol\":37326:37374  super.transfer(marketingWallet, marketingAmount) */\n      tag_215\n      swap1\n      sub(shl(0xa0, 0x01), 0x01)\n        /* \"money_flattened.sol\":37341:37356  marketingWallet */\n      and\n        /* \"money_flattened.sol\":37272:37316  uint256 marketingAmount = (amount * 1) / 100 */\n      dup3\n        /* \"money_flattened.sol\":37326:37340  super.transfer */\n      tag_173\n        /* \"money_flattened.sol\":37326:37374  super.transfer(marketingWallet, marketingAmount) */\n      jump\t// in\n        /* \"money_flattened.sol\":27273:27559  function transferFrom(... */\n    tag_129:\n        /* \"money_flattened.sol\":27400:27404  bool */\n      0x00\n        /* \"money_flattened.sol\":11889:11899  msg.sender */\n      caller\n        /* \"money_flattened.sol\":27456:27494  _spendAllowance(from, spender, amount) */\n      tag_228\n        /* \"money_flattened.sol\":27472:27476  from */\n      dup6\n        /* \"money_flattened.sol\":11889:11899  msg.sender */\n      dup3\n        /* \"money_flattened.sol\":27487:27493  amount */\n      dup6\n        /* \"money_flattened.sol\":27456:27471  _spendAllowance */\n      tag_229\n        /* \"money_flattened.sol\":27456:27494  _spendAllowance(from, spender, amount) */\n      jump\t// in\n    tag_228:\n        /* \"money_flattened.sol\":27504:27531  _transfer(from, to, amount) */\n      tag_163\n        /* \"money_flattened.sol\":27514:27518  from */\n      dup6\n        /* \"money_flattened.sol\":27520:27522  to */\n      dup6\n        /* \"money_flattened.sol\":27524:27530  amount */\n      dup6\n        /* \"money_flattened.sol\":27504:27513  _transfer */\n      tag_231\n        /* \"money_flattened.sol\":27504:27531  _transfer(from, to, amount) */\n      jump\t// in\n        /* \"money_flattened.sol\":13733:13834  function renounceOwnership() public virtual onlyOwner {... */\n    tag_144:\n        /* \"money_flattened.sol\":13173:13179  _owner */\n      and(sub(shl(0xa0, 0x01), 0x01), sload(0x05))\n        /* \"money_flattened.sol\":11889:11899  msg.sender */\n      caller\n        /* \"money_flattened.sol\":13313:13336  owner() == _msgSender() */\n      eq\n        /* \"money_flattened.sol\":13305:13373  require(owner() == _msgSender(), \"Ownable: caller is not the owner\") */\n      tag_235\n      jumpi\n      mload(0x40)\n      shl(0xe5, 0x461bcd)\n      dup2\n      mstore\n      0x04\n      add\n      tag_97\n      swap1\n      tag_98\n      jump\t// in\n    tag_235:\n        /* \"money_flattened.sol\":13797:13827  _transferOwnership(address(0)) */\n      tag_143\n        /* \"money_flattened.sol\":13824:13825  0 */\n      0x00\n        /* \"money_flattened.sol\":13797:13815  _transferOwnership */\n      tag_239\n        /* \"money_flattened.sol\":13797:13827  _transferOwnership(address(0)) */\n      jump\t// in\n        /* \"money_flattened.sol\":25810:25999  function transfer(address to, uint256 amount) public virtual override returns (bool) {... */\n    tag_173:\n        /* \"money_flattened.sol\":25889:25893  bool */\n      0x00\n        /* \"money_flattened.sol\":11889:11899  msg.sender */\n      caller\n        /* \"money_flattened.sol\":25943:25971  _transfer(owner, to, amount) */\n      tag_112\n        /* \"money_flattened.sol\":11889:11899  msg.sender */\n      dup2\n        /* \"money_flattened.sol\":25960:25962  to */\n      dup6\n        /* \"money_flattened.sol\":25964:25970  amount */\n      dup6\n        /* \"money_flattened.sol\":25943:25952  _transfer */\n      tag_231\n        /* \"money_flattened.sol\":25943:25971  _transfer(owner, to, amount) */\n      jump\t// in\n        /* \"money_flattened.sol\":13983:14181  function transferOwnership(address newOwner) public virtual onlyOwner {... */\n    tag_185:\n        /* \"money_flattened.sol\":13173:13179  _owner */\n      and(sub(shl(0xa0, 0x01), 0x01), sload(0x05))\n        /* \"money_flattened.sol\":11889:11899  msg.sender */\n      caller\n        /* \"money_flattened.sol\":13313:13336  owner() == _msgSender() */\n      eq\n        /* \"money_flattened.sol\":13305:13373  require(owner() == _msgSender(), \"Ownable: caller is not the owner\") */\n      tag_246\n      jumpi\n      mload(0x40)\n      shl(0xe5, 0x461bcd)\n      dup2\n      mstore\n      0x04\n      add\n      tag_97\n      swap1\n      tag_98\n      jump\t// in\n    tag_246:\n      sub(shl(0xa0, 0x01), 0x01)\n        /* \"money_flattened.sol\":14071:14093  newOwner != address(0) */\n      dup2\n      and\n        /* \"money_flattened.sol\":14063:14136  require(newOwner != address(0), \"Ownable: new owner is the zero address\") */\n      tag_249\n      jumpi\n      mload(0x40)\n      shl(0xe5, 0x461bcd)\n      dup2\n      mstore\n        /* \"#utility.yul\":7721:7723   */\n      0x20\n        /* \"money_flattened.sol\":14063:14136  require(newOwner != address(0), \"Ownable: new owner is the zero address\") */\n      0x04\n      dup3\n      add\n        /* \"#utility.yul\":7703:7724   */\n      mstore\n        /* \"#utility.yul\":7760:7762   */\n      0x26\n        /* \"#utility.yul\":7740:7758   */\n      0x24\n      dup3\n      add\n        /* \"#utility.yul\":7733:7763   */\n      mstore\n        /* \"#utility.yul\":7799:7833   */\n      0x4f776e61626c653a206e6577206f776e657220697320746865207a65726f2061\n        /* \"#utility.yul\":7779:7797   */\n      0x44\n      dup3\n      add\n        /* \"#utility.yul\":7772:7834   */\n      mstore\n      shl(0xd0, 0x646472657373)\n        /* \"#utility.yul\":7850:7868   */\n      0x64\n      dup3\n      add\n        /* \"#utility.yul\":7843:7879   */\n      mstore\n        /* \"#utility.yul\":7896:7915   */\n      0x84\n      add\n        /* \"money_flattened.sol\":14063:14136  require(newOwner != address(0), \"Ownable: new owner is the zero address\") */\n      tag_97\n        /* \"#utility.yul\":7519:7921   */\n      jump\n        /* \"money_flattened.sol\":14063:14136  require(newOwner != address(0), \"Ownable: new owner is the zero address\") */\n    tag_249:\n        /* \"money_flattened.sol\":14146:14174  _transferOwnership(newOwner) */\n      tag_184\n        /* \"money_flattened.sol\":14165:14173  newOwner */\n      dup2\n        /* \"money_flattened.sol\":14146:14164  _transferOwnership */\n      tag_239\n        /* \"money_flattened.sol\":14146:14174  _transferOwnership(newOwner) */\n      jump\t// in\n        /* \"money_flattened.sol\":32851:33292  function _spendAllowance(... */\n    tag_229:\n      sub(shl(0xa0, 0x01), 0x01)\n        /* \"money_flattened.sol\":26172:26190  _allowances[owner] */\n      dup4\n      dup2\n      and\n        /* \"money_flattened.sol\":32981:33005  uint256 currentAllowance */\n      0x00\n        /* \"money_flattened.sol\":26172:26190  _allowances[owner] */\n      swap1\n      dup2\n      mstore\n        /* \"money_flattened.sol\":26172:26183  _allowances */\n      0x01\n        /* \"money_flattened.sol\":26172:26190  _allowances[owner] */\n      0x20\n      swap1\n      dup2\n      mstore\n      0x40\n      dup1\n      dup4\n      keccak256\n        /* \"money_flattened.sol\":26172:26199  _allowances[owner][spender] */\n      swap4\n      dup7\n      and\n      dup4\n      mstore\n      swap3\n      swap1\n      mstore\n      keccak256\n      sload\n      not(0x00)\n        /* \"money_flattened.sol\":33047:33084  currentAllowance != type(uint256).max */\n      dup2\n      eq\n        /* \"money_flattened.sol\":33043:33286  if (currentAllowance != type(uint256).max) {... */\n      tag_215\n      jumpi\n        /* \"money_flattened.sol\":33128:33134  amount */\n      dup2\n        /* \"money_flattened.sol\":33108:33124  currentAllowance */\n      dup2\n        /* \"money_flattened.sol\":33108:33134  currentAllowance >= amount */\n      lt\n      iszero\n        /* \"money_flattened.sol\":33100:33168  require(currentAllowance >= amount, \"ERC20: insufficient allowance\") */\n      tag_256\n      jumpi\n      mload(0x40)\n      shl(0xe5, 0x461bcd)\n      dup2\n      mstore\n        /* \"#utility.yul\":8128:8130   */\n      0x20\n        /* \"money_flattened.sol\":33100:33168  require(currentAllowance >= amount, \"ERC20: insufficient allowance\") */\n      0x04\n      dup3\n      add\n        /* \"#utility.yul\":8110:8131   */\n      mstore\n        /* \"#utility.yul\":8167:8169   */\n      0x1d\n        /* \"#utility.yul\":8147:8165   */\n      0x24\n      dup3\n      add\n        /* \"#utility.yul\":8140:8170   */\n      mstore\n        /* \"#utility.yul\":8206:8237   */\n      0x45524332303a20696e73756666696369656e7420616c6c6f77616e6365000000\n        /* \"#utility.yul\":8186:8204   */\n      0x44\n      dup3\n      add\n        /* \"#utility.yul\":8179:8238   */\n      mstore\n        /* \"#utility.yul\":8255:8273   */\n      0x64\n      add\n        /* \"money_flattened.sol\":33100:33168  require(currentAllowance >= amount, \"ERC20: insufficient allowance\") */\n      tag_97\n        /* \"#utility.yul\":7926:8279   */\n      jump\n        /* \"money_flattened.sol\":33100:33168  require(currentAllowance >= amount, \"ERC20: insufficient allowance\") */\n    tag_256:\n        /* \"money_flattened.sol\":33210:33261  _approve(owner, spender, currentAllowance - amount) */\n      tag_215\n        /* \"money_flattened.sol\":33219:33224  owner */\n      dup5\n        /* \"money_flattened.sol\":33226:33233  spender */\n      dup5\n        /* \"money_flattened.sol\":33254:33260  amount */\n      dup5\n        /* \"money_flattened.sol\":33235:33251  currentAllowance */\n      dup5\n        /* \"money_flattened.sol\":33235:33260  currentAllowance - amount */\n      sub\n        /* \"money_flattened.sol\":33210:33218  _approve */\n      tag_113\n        /* \"money_flattened.sol\":33210:33261  _approve(owner, spender, currentAllowance - amount) */\n      jump\t// in\n        /* \"money_flattened.sol\":29569:30220  function _transfer(... */\n    tag_231:\n      sub(shl(0xa0, 0x01), 0x01)\n        /* \"money_flattened.sol\":29695:29713  from != address(0) */\n      dup4\n      and\n        /* \"money_flattened.sol\":29687:29755  require(from != address(0), \"ERC20: transfer from the zero address\") */\n      tag_261\n      jumpi\n      mload(0x40)\n      shl(0xe5, 0x461bcd)\n      dup2\n      mstore\n        /* \"#utility.yul\":8486:8488   */\n      0x20\n        /* \"money_flattened.sol\":29687:29755  require(from != address(0), \"ERC20: transfer from the zero address\") */\n      0x04\n      dup3\n      add\n        /* \"#utility.yul\":8468:8489   */\n      mstore\n        /* \"#utility.yul\":8525:8527   */\n      0x25\n        /* \"#utility.yul\":8505:8523   */\n      0x24\n      dup3\n      add\n        /* \"#utility.yul\":8498:8528   */\n      mstore\n        /* \"#utility.yul\":8564:8598   */\n      0x45524332303a207472616e736665722066726f6d20746865207a65726f206164\n        /* \"#utility.yul\":8544:8562   */\n      0x44\n      dup3\n      add\n        /* \"#utility.yul\":8537:8599   */\n      mstore\n      shl(0xd8, 0x6472657373)\n        /* \"#utility.yul\":8615:8633   */\n      0x64\n      dup3\n      add\n        /* \"#utility.yul\":8608:8643   */\n      mstore\n        /* \"#utility.yul\":8660:8679   */\n      0x84\n      add\n        /* \"money_flattened.sol\":29687:29755  require(from != address(0), \"ERC20: transfer from the zero address\") */\n      tag_97\n        /* \"#utility.yul\":8284:8685   */\n      jump\n        /* \"money_flattened.sol\":29687:29755  require(from != address(0), \"ERC20: transfer from the zero address\") */\n    tag_261:\n      sub(shl(0xa0, 0x01), 0x01)\n        /* \"money_flattened.sol\":29773:29789  to != address(0) */\n      dup3\n      and\n        /* \"money_flattened.sol\":29765:29829  require(to != address(0), \"ERC20: transfer to the zero address\") */\n      tag_264\n      jumpi\n      mload(0x40)\n      shl(0xe5, 0x461bcd)\n      dup2\n      mstore\n        /* \"#utility.yul\":8892:8894   */\n      0x20\n        /* \"money_flattened.sol\":29765:29829  require(to != address(0), \"ERC20: transfer to the zero address\") */\n      0x04\n      dup3\n      add\n        /* \"#utility.yul\":8874:8895   */\n      mstore\n        /* \"#utility.yul\":8931:8933   */\n      0x23\n        /* \"#utility.yul\":8911:8929   */\n      0x24\n      dup3\n      add\n        /* \"#utility.yul\":8904:8934   */\n      mstore\n        /* \"#utility.yul\":8970:9004   */\n      0x45524332303a207472616e7366657220746f20746865207a65726f2061646472\n        /* \"#utility.yul\":8950:8968   */\n      0x44\n      dup3\n      add\n        /* \"#utility.yul\":8943:9005   */\n      mstore\n      shl(0xe8, 0x657373)\n        /* \"#utility.yul\":9021:9039   */\n      0x64\n      dup3\n      add\n        /* \"#utility.yul\":9014:9047   */\n      mstore\n        /* \"#utility.yul\":9064:9083   */\n      0x84\n      add\n        /* \"money_flattened.sol\":29765:29829  require(to != address(0), \"ERC20: transfer to the zero address\") */\n      tag_97\n        /* \"#utility.yul\":8690:9089   */\n      jump\n        /* \"money_flattened.sol\":29765:29829  require(to != address(0), \"ERC20: transfer to the zero address\") */\n    tag_264:\n      sub(shl(0xa0, 0x01), 0x01)\n        /* \"money_flattened.sol\":29911:29926  _balances[from] */\n      dup4\n      and\n        /* \"money_flattened.sol\":29889:29908  uint256 fromBalance */\n      0x00\n        /* \"money_flattened.sol\":29911:29926  _balances[from] */\n      swap1\n      dup2\n      mstore\n      0x20\n      dup2\n      swap1\n      mstore\n      0x40\n      swap1\n      keccak256\n      sload\n        /* \"money_flattened.sol\":29944:29965  fromBalance >= amount */\n      dup2\n      dup2\n      lt\n      iszero\n        /* \"money_flattened.sol\":29936:30008  require(fromBalance >= amount, \"ERC20: transfer amount exceeds balance\") */\n      tag_269\n      jumpi\n      mload(0x40)\n      shl(0xe5, 0x461bcd)\n      dup2\n      mstore\n        /* \"#utility.yul\":9296:9298   */\n      0x20\n        /* \"money_flattened.sol\":29936:30008  require(fromBalance >= amount, \"ERC20: transfer amount exceeds balance\") */\n      0x04\n      dup3\n      add\n        /* \"#utility.yul\":9278:9299   */\n      mstore\n        /* \"#utility.yul\":9335:9337   */\n      0x26\n        /* \"#utility.yul\":9315:9333   */\n      0x24\n      dup3\n      add\n        /* \"#utility.yul\":9308:9338   */\n      mstore\n        /* \"#utility.yul\":9374:9408   */\n      0x45524332303a207472616e7366657220616d6f756e7420657863656564732062\n        /* \"#utility.yul\":9354:9372   */\n      0x44\n      dup3\n      add\n        /* \"#utility.yul\":9347:9409   */\n      mstore\n      shl(0xd0, 0x616c616e6365)\n        /* \"#utility.yul\":9425:9443   */\n      0x64\n      dup3\n      add\n        /* \"#utility.yul\":9418:9454   */\n      mstore\n        /* \"#utility.yul\":9471:9490   */\n      0x84\n      add\n        /* \"money_flattened.sol\":29936:30008  require(fromBalance >= amount, \"ERC20: transfer amount exceeds balance\") */\n      tag_97\n        /* \"#utility.yul\":9094:9496   */\n      jump\n        /* \"money_flattened.sol\":29936:30008  require(fromBalance >= amount, \"ERC20: transfer amount exceeds balance\") */\n    tag_269:\n      sub(shl(0xa0, 0x01), 0x01)\n        /* \"money_flattened.sol\":30042:30057  _balances[from] */\n      dup1\n      dup6\n      and\n        /* \"money_flattened.sol\":30042:30051  _balances */\n      0x00\n        /* \"money_flattened.sol\":30042:30057  _balances[from] */\n      swap1\n      dup2\n      mstore\n      0x20\n      dup2\n      swap1\n      mstore\n      0x40\n      dup1\n      dup3\n      keccak256\n        /* \"money_flattened.sol\":30060:30080  fromBalance - amount */\n      dup6\n      dup6\n      sub\n        /* \"money_flattened.sol\":30042:30080  _balances[from] = fromBalance - amount */\n      swap1\n      sstore\n        /* \"money_flattened.sol\":30100:30113  _balances[to] */\n      swap2\n      dup6\n      and\n      dup2\n      mstore\n      swap1\n      dup2\n      keccak256\n        /* \"money_flattened.sol\":30100:30123  _balances[to] += amount */\n      dup1\n      sload\n        /* \"money_flattened.sol\":30074:30080  amount */\n      dup5\n      swap3\n        /* \"money_flattened.sol\":30042:30051  _balances */\n      swap1\n        /* \"money_flattened.sol\":30100:30123  _balances[to] += amount */\n      tag_272\n      swap1\n        /* \"money_flattened.sol\":30074:30080  amount */\n      dup5\n      swap1\n        /* \"money_flattened.sol\":30100:30123  _balances[to] += amount */\n      tag_135\n      jump\t// in\n    tag_272:\n      swap3\n      pop\n      pop\n      dup2\n      swap1\n      sstore\n      pop\n        /* \"money_flattened.sol\":30154:30156  to */\n      dup3\n      sub(shl(0xa0, 0x01), 0x01)\n        /* \"money_flattened.sol\":30139:30165  Transfer(from, to, amount) */\n      and\n        /* \"money_flattened.sol\":30148:30152  from */\n      dup5\n      sub(shl(0xa0, 0x01), 0x01)\n        /* \"money_flattened.sol\":30139:30165  Transfer(from, to, amount) */\n      and\n      0xddf252ad1be2c89b69c2b068fc378daa952ba7f163c4a11628f55a4df523b3ef\n        /* \"money_flattened.sol\":30158:30164  amount */\n      dup5\n        /* \"money_flattened.sol\":30139:30165  Transfer(from, to, amount) */\n      mload(0x40)\n      tag_273\n      swap2\n        /* \"#utility.yul\":1342:1367   */\n      dup2\n      mstore\n        /* \"#utility.yul\":1330:1332   */\n      0x20\n        /* \"#utility.yul\":1315:1333   */\n      add\n      swap1\n        /* \"#utility.yul\":1196:1373   */\n      jump\n        /* \"money_flattened.sol\":30139:30165  Transfer(from, to, amount) */\n    tag_273:\n      mload(0x40)\n      dup1\n      swap2\n      sub\n      swap1\n      log3\n        /* \"money_flattened.sol\":30176:30213  _afterTokenTransfer(from, to, amount) */\n      tag_215\n        /* \"money_flattened.sol\":33876:33997  function _beforeTokenTransfer(... */\n      jump\n        /* \"money_flattened.sol\":14335:14522  function _transferOwnership(address newOwner) internal virtual {... */\n    tag_239:\n        /* \"money_flattened.sol\":14427:14433  _owner */\n      0x05\n      dup1\n      sload\n      sub(shl(0xa0, 0x01), 0x01)\n        /* \"money_flattened.sol\":14443:14460  _owner = newOwner */\n      dup4\n      dup2\n      and\n      not(sub(shl(0xa0, 0x01), 0x01))\n      dup4\n      and\n      dup2\n      or\n      swap1\n      swap4\n      sstore\n        /* \"money_flattened.sol\":14475:14515  OwnershipTransferred(oldOwner, newOwner) */\n      mload(0x40)\n        /* \"money_flattened.sol\":14427:14433  _owner */\n      swap2\n      and\n      swap2\n        /* \"money_flattened.sol\":14443:14460  _owner = newOwner */\n      swap1\n        /* \"money_flattened.sol\":14427:14433  _owner */\n      dup3\n      swap1\n        /* \"money_flattened.sol\":14475:14515  OwnershipTransferred(oldOwner, newOwner) */\n      0x8be0079c531659141344cd1fd0a4f28419497f9722a3daafe3b4186f6b6457e0\n      swap1\n        /* \"money_flattened.sol\":14408:14424  address oldOwner */\n      0x00\n      swap1\n        /* \"money_flattened.sol\":14475:14515  OwnershipTransferred(oldOwner, newOwner) */\n      log3\n        /* \"money_flattened.sol\":14398:14522  {... */\n      pop\n        /* \"money_flattened.sol\":14335:14522  function _transferOwnership(address newOwner) internal virtual {... */\n      pop\n      jump\t// out\n        /* \"#utility.yul\":14:562   */\n    tag_29:\n        /* \"#utility.yul\":126:130   */\n      0x00\n        /* \"#utility.yul\":155:157   */\n      0x20\n        /* \"#utility.yul\":184:186   */\n      dup1\n        /* \"#utility.yul\":173:182   */\n      dup4\n        /* \"#utility.yul\":166:187   */\n      mstore\n        /* \"#utility.yul\":216:222   */\n      dup4\n        /* \"#utility.yul\":210:223   */\n      mload\n        /* \"#utility.yul\":259:265   */\n      dup1\n        /* \"#utility.yul\":254:256   */\n      dup3\n        /* \"#utility.yul\":243:252   */\n      dup6\n        /* \"#utility.yul\":239:257   */\n      add\n        /* \"#utility.yul\":232:266   */\n      mstore\n        /* \"#utility.yul\":284:285   */\n      0x00\n        /* \"#utility.yul\":294:434   */\n    tag_283:\n        /* \"#utility.yul\":308:314   */\n      dup2\n        /* \"#utility.yul\":305:306   */\n      dup2\n        /* \"#utility.yul\":302:315   */\n      lt\n        /* \"#utility.yul\":294:434   */\n      iszero\n      tag_285\n      jumpi\n        /* \"#utility.yul\":403:417   */\n      dup6\n      dup2\n      add\n        /* \"#utility.yul\":399:422   */\n      dup4\n      add\n        /* \"#utility.yul\":393:423   */\n      mload\n        /* \"#utility.yul\":369:386   */\n      dup6\n      dup3\n      add\n        /* \"#utility.yul\":388:390   */\n      0x40\n        /* \"#utility.yul\":365:391   */\n      add\n        /* \"#utility.yul\":358:424   */\n      mstore\n        /* \"#utility.yul\":323:333   */\n      dup3\n      add\n        /* \"#utility.yul\":294:434   */\n      jump(tag_283)\n    tag_285:\n        /* \"#utility.yul\":298:301   */\n      pop\n        /* \"#utility.yul\":483:484   */\n      0x00\n        /* \"#utility.yul\":478:480   */\n      0x40\n        /* \"#utility.yul\":469:475   */\n      dup3\n        /* \"#utility.yul\":458:467   */\n      dup7\n        /* \"#utility.yul\":454:476   */\n      add\n        /* \"#utility.yul\":450:481   */\n      add\n        /* \"#utility.yul\":443:485   */\n      mstore\n        /* \"#utility.yul\":553:555   */\n      0x40\n        /* \"#utility.yul\":546:548   */\n      0x1f\n        /* \"#utility.yul\":542:549   */\n      not\n        /* \"#utility.yul\":537:539   */\n      0x1f\n        /* \"#utility.yul\":529:535   */\n      dup4\n        /* \"#utility.yul\":525:540   */\n      add\n        /* \"#utility.yul\":521:550   */\n      and\n        /* \"#utility.yul\":510:519   */\n      dup6\n        /* \"#utility.yul\":506:551   */\n      add\n        /* \"#utility.yul\":502:556   */\n      add\n        /* \"#utility.yul\":494:556   */\n      swap3\n      pop\n      pop\n      pop\n        /* \"#utility.yul\":14:562   */\n      swap3\n      swap2\n      pop\n      pop\n      jump\t// out\n        /* \"#utility.yul\":567:740   */\n    tag_279:\n        /* \"#utility.yul\":635:655   */\n      dup1\n      calldataload\n      sub(shl(0xa0, 0x01), 0x01)\n        /* \"#utility.yul\":684:715   */\n      dup2\n      and\n        /* \"#utility.yul\":674:716   */\n      dup2\n      eq\n        /* \"#utility.yul\":664:734   */\n      tag_287\n      jumpi\n        /* \"#utility.yul\":730:731   */\n      0x00\n        /* \"#utility.yul\":727:728   */\n      dup1\n        /* \"#utility.yul\":720:732   */\n      revert\n        /* \"#utility.yul\":664:734   */\n    tag_287:\n        /* \"#utility.yul\":567:740   */\n      swap2\n      swap1\n      pop\n      jump\t// out\n        /* \"#utility.yul\":745:999   */\n    tag_32:\n        /* \"#utility.yul\":813:819   */\n      0x00\n        /* \"#utility.yul\":821:827   */\n      dup1\n        /* \"#utility.yul\":874:876   */\n      0x40\n        /* \"#utility.yul\":862:871   */\n      dup4\n        /* \"#utility.yul\":853:860   */\n      dup6\n        /* \"#utility.yul\":849:872   */\n      sub\n        /* \"#utility.yul\":845:877   */\n      slt\n        /* \"#utility.yul\":842:894   */\n      iszero\n      tag_289\n      jumpi\n        /* \"#utility.yul\":890:891   */\n      0x00\n        /* \"#utility.yul\":887:888   */\n      dup1\n        /* \"#utility.yul\":880:892   */\n      revert\n        /* \"#utility.yul\":842:894   */\n    tag_289:\n        /* \"#utility.yul\":913:942   */\n      tag_290\n        /* \"#utility.yul\":932:941   */\n      dup4\n        /* \"#utility.yul\":913:942   */\n      tag_279\n      jump\t// in\n    tag_290:\n        /* \"#utility.yul\":903:942   */\n      swap5\n        /* \"#utility.yul\":989:991   */\n      0x20\n        /* \"#utility.yul\":974:992   */\n      swap4\n      swap1\n      swap4\n      add\n        /* \"#utility.yul\":961:993   */\n      calldataload\n      swap4\n      pop\n      pop\n      pop\n        /* \"#utility.yul\":745:999   */\n      jump\t// out\n        /* \"#utility.yul\":1378:1706   */\n    tag_42:\n        /* \"#utility.yul\":1455:1461   */\n      0x00\n        /* \"#utility.yul\":1463:1469   */\n      dup1\n        /* \"#utility.yul\":1471:1477   */\n      0x00\n        /* \"#utility.yul\":1524:1526   */\n      0x60\n        /* \"#utility.yul\":1512:1521   */\n      dup5\n        /* \"#utility.yul\":1503:1510   */\n      dup7\n        /* \"#utility.yul\":1499:1522   */\n      sub\n        /* \"#utility.yul\":1495:1527   */\n      slt\n        /* \"#utility.yul\":1492:1544   */\n      iszero\n      tag_294\n      jumpi\n        /* \"#utility.yul\":1540:1541   */\n      0x00\n        /* \"#utility.yul\":1537:1538   */\n      dup1\n        /* \"#utility.yul\":1530:1542   */\n      revert\n        /* \"#utility.yul\":1492:1544   */\n    tag_294:\n        /* \"#utility.yul\":1563:1592   */\n      tag_295\n        /* \"#utility.yul\":1582:1591   */\n      dup5\n        /* \"#utility.yul\":1563:1592   */\n      tag_279\n      jump\t// in\n    tag_295:\n        /* \"#utility.yul\":1553:1592   */\n      swap3\n      pop\n        /* \"#utility.yul\":1611:1649   */\n      tag_296\n        /* \"#utility.yul\":1645:1647   */\n      0x20\n        /* \"#utility.yul\":1634:1643   */\n      dup6\n        /* \"#utility.yul\":1630:1648   */\n      add\n        /* \"#utility.yul\":1611:1649   */\n      tag_279\n      jump\t// in\n    tag_296:\n        /* \"#utility.yul\":1601:1649   */\n      swap2\n      pop\n        /* \"#utility.yul\":1696:1698   */\n      0x40\n        /* \"#utility.yul\":1685:1694   */\n      dup5\n        /* \"#utility.yul\":1681:1699   */\n      add\n        /* \"#utility.yul\":1668:1700   */\n      calldataload\n        /* \"#utility.yul\":1658:1700   */\n      swap1\n      pop\n        /* \"#utility.yul\":1378:1706   */\n      swap3\n      pop\n      swap3\n      pop\n      swap3\n      jump\t// out\n        /* \"#utility.yul\":2108:2294   */\n    tag_59:\n        /* \"#utility.yul\":2167:2173   */\n      0x00\n        /* \"#utility.yul\":2220:2222   */\n      0x20\n        /* \"#utility.yul\":2208:2217   */\n      dup3\n        /* \"#utility.yul\":2199:2206   */\n      dup5\n        /* \"#utility.yul\":2195:2218   */\n      sub\n        /* \"#utility.yul\":2191:2223   */\n      slt\n        /* \"#utility.yul\":2188:2240   */\n      iszero\n      tag_300\n      jumpi\n        /* \"#utility.yul\":2236:2237   */\n      0x00\n        /* \"#utility.yul\":2233:2234   */\n      dup1\n        /* \"#utility.yul\":2226:2238   */\n      revert\n        /* \"#utility.yul\":2188:2240   */\n    tag_300:\n        /* \"#utility.yul\":2259:2288   */\n      tag_301\n        /* \"#utility.yul\":2278:2287   */\n      dup3\n        /* \"#utility.yul\":2259:2288   */\n      tag_279\n      jump\t// in\n    tag_301:\n        /* \"#utility.yul\":2249:2288   */\n      swap4\n        /* \"#utility.yul\":2108:2294   */\n      swap3\n      pop\n      pop\n      pop\n      jump\t// out\n        /* \"#utility.yul\":2299:2559   */\n    tag_86:\n        /* \"#utility.yul\":2367:2373   */\n      0x00\n        /* \"#utility.yul\":2375:2381   */\n      dup1\n        /* \"#utility.yul\":2428:2430   */\n      0x40\n        /* \"#utility.yul\":2416:2425   */\n      dup4\n        /* \"#utility.yul\":2407:2414   */\n      dup6\n        /* \"#utility.yul\":2403:2426   */\n      sub\n        /* \"#utility.yul\":2399:2431   */\n      slt\n        /* \"#utility.yul\":2396:2448   */\n      iszero\n      tag_303\n      jumpi\n        /* \"#utility.yul\":2444:2445   */\n      0x00\n        /* \"#utility.yul\":2441:2442   */\n      dup1\n        /* \"#utility.yul\":2434:2446   */\n      revert\n        /* \"#utility.yul\":2396:2448   */\n    tag_303:\n        /* \"#utility.yul\":2467:2496   */\n      tag_304\n        /* \"#utility.yul\":2486:2495   */\n      dup4\n        /* \"#utility.yul\":2467:2496   */\n      tag_279\n      jump\t// in\n    tag_304:\n        /* \"#utility.yul\":2457:2496   */\n      swap2\n      pop\n        /* \"#utility.yul\":2515:2553   */\n      tag_305\n        /* \"#utility.yul\":2549:2551   */\n      0x20\n        /* \"#utility.yul\":2538:2547   */\n      dup5\n        /* \"#utility.yul\":2534:2552   */\n      add\n        /* \"#utility.yul\":2515:2553   */\n      tag_279\n      jump\t// in\n    tag_305:\n        /* \"#utility.yul\":2505:2553   */\n      swap1\n      pop\n        /* \"#utility.yul\":2299:2559   */\n      swap3\n      pop\n      swap3\n      swap1\n      pop\n      jump\t// out\n        /* \"#utility.yul\":2564:2920   */\n    tag_98:\n        /* \"#utility.yul\":2766:2768   */\n      0x20\n        /* \"#utility.yul\":2748:2769   */\n      dup1\n      dup3\n      mstore\n        /* \"#utility.yul\":2785:2803   */\n      dup2\n      dup2\n      add\n        /* \"#utility.yul\":2778:2808   */\n      mstore\n        /* \"#utility.yul\":2844:2878   */\n      0x4f776e61626c653a2063616c6c6572206973206e6f7420746865206f776e6572\n        /* \"#utility.yul\":2839:2841   */\n      0x40\n        /* \"#utility.yul\":2824:2842   */\n      dup3\n      add\n        /* \"#utility.yul\":2817:2879   */\n      mstore\n        /* \"#utility.yul\":2911:2913   */\n      0x60\n        /* \"#utility.yul\":2896:2914   */\n      add\n      swap1\n        /* \"#utility.yul\":2564:2920   */\n      jump\t// out\n        /* \"#utility.yul\":3277:3657   */\n    tag_105:\n        /* \"#utility.yul\":3356:3357   */\n      0x01\n        /* \"#utility.yul\":3352:3364   */\n      dup2\n      dup2\n      shr\n      swap1\n        /* \"#utility.yul\":3399:3411   */\n      dup3\n      and\n      dup1\n        /* \"#utility.yul\":3420:3481   */\n      tag_309\n      jumpi\n        /* \"#utility.yul\":3474:3478   */\n      0x7f\n        /* \"#utility.yul\":3466:3472   */\n      dup3\n        /* \"#utility.yul\":3462:3479   */\n      and\n        /* \"#utility.yul\":3452:3479   */\n      swap2\n      pop\n        /* \"#utility.yul\":3420:3481   */\n    tag_309:\n        /* \"#utility.yul\":3527:3529   */\n      0x20\n        /* \"#utility.yul\":3519:3525   */\n      dup3\n        /* \"#utility.yul\":3516:3530   */\n      lt\n        /* \"#utility.yul\":3496:3514   */\n      dup2\n        /* \"#utility.yul\":3493:3531   */\n      sub\n        /* \"#utility.yul\":3490:3651   */\n      tag_310\n      jumpi\n        /* \"#utility.yul\":3573:3583   */\n      0x4e487b71\n        /* \"#utility.yul\":3568:3571   */\n      0xe0\n        /* \"#utility.yul\":3564:3584   */\n      shl\n        /* \"#utility.yul\":3561:3562   */\n      0x00\n        /* \"#utility.yul\":3554:3585   */\n      mstore\n        /* \"#utility.yul\":3608:3612   */\n      0x22\n        /* \"#utility.yul\":3605:3606   */\n      0x04\n        /* \"#utility.yul\":3598:3613   */\n      mstore\n        /* \"#utility.yul\":3636:3640   */\n      0x24\n        /* \"#utility.yul\":3633:3634   */\n      0x00\n        /* \"#utility.yul\":3626:3641   */\n      revert\n        /* \"#utility.yul\":3490:3651   */\n    tag_310:\n      pop\n        /* \"#utility.yul\":3277:3657   */\n      swap2\n      swap1\n      pop\n      jump\t// out\n        /* \"#utility.yul\":4022:4149   */\n    tag_280:\n        /* \"#utility.yul\":4083:4093   */\n      0x4e487b71\n        /* \"#utility.yul\":4078:4081   */\n      0xe0\n        /* \"#utility.yul\":4074:4094   */\n      shl\n        /* \"#utility.yul\":4071:4072   */\n      0x00\n        /* \"#utility.yul\":4064:4095   */\n      mstore\n        /* \"#utility.yul\":4114:4118   */\n      0x11\n        /* \"#utility.yul\":4111:4112   */\n      0x04\n        /* \"#utility.yul\":4104:4119   */\n      mstore\n        /* \"#utility.yul\":4138:4142   */\n      0x24\n        /* \"#utility.yul\":4135:4136   */\n      0x00\n        /* \"#utility.yul\":4128:4143   */\n      revert\n        /* \"#utility.yul\":4154:4279   */\n    tag_135:\n        /* \"#utility.yul\":4219:4228   */\n      dup1\n      dup3\n      add\n        /* \"#utility.yul\":4240:4250   */\n      dup1\n      dup3\n      gt\n        /* \"#utility.yul\":4237:4273   */\n      iszero\n      tag_110\n      jumpi\n        /* \"#utility.yul\":4253:4271   */\n      tag_110\n      tag_280\n      jump\t// in\n        /* \"#utility.yul\":5852:6020   */\n    tag_197:\n        /* \"#utility.yul\":5925:5934   */\n      dup1\n      dup3\n      mul\n        /* \"#utility.yul\":5956:5965   */\n      dup2\n      iszero\n        /* \"#utility.yul\":5973:5988   */\n      dup3\n      dup3\n      div\n        /* \"#utility.yul\":5967:5989   */\n      dup5\n      eq\n        /* \"#utility.yul\":5953:5990   */\n      or\n        /* \"#utility.yul\":5943:6014   */\n      tag_110\n      jumpi\n        /* \"#utility.yul\":5994:6012   */\n      tag_110\n      tag_280\n      jump\t// in\n        /* \"#utility.yul\":6025:6242   */\n    tag_199:\n        /* \"#utility.yul\":6065:6066   */\n      0x00\n        /* \"#utility.yul\":6091:6092   */\n      dup3\n        /* \"#utility.yul\":6081:6213   */\n      tag_324\n      jumpi\n        /* \"#utility.yul\":6135:6145   */\n      0x4e487b71\n        /* \"#utility.yul\":6130:6133   */\n      0xe0\n        /* \"#utility.yul\":6126:6146   */\n      shl\n        /* \"#utility.yul\":6123:6124   */\n      0x00\n        /* \"#utility.yul\":6116:6147   */\n      mstore\n        /* \"#utility.yul\":6170:6174   */\n      0x12\n        /* \"#utility.yul\":6167:6168   */\n      0x04\n        /* \"#utility.yul\":6160:6175   */\n      mstore\n        /* \"#utility.yul\":6198:6202   */\n      0x24\n        /* \"#utility.yul\":6195:6196   */\n      0x00\n        /* \"#utility.yul\":6188:6203   */\n      revert\n        /* \"#utility.yul\":6081:6213   */\n    tag_324:\n      pop\n        /* \"#utility.yul\":6227:6236   */\n      div\n      swap1\n        /* \"#utility.yul\":6025:6242   */\n      jump\t// out\n        /* \"#utility.yul\":7237:7514   */\n    tag_216:\n        /* \"#utility.yul\":7304:7310   */\n      0x00\n        /* \"#utility.yul\":7357:7359   */\n      0x20\n        /* \"#utility.yul\":7345:7354   */\n      dup3\n        /* \"#utility.yul\":7336:7343   */\n      dup5\n        /* \"#utility.yul\":7332:7355   */\n      sub\n        /* \"#utility.yul\":7328:7360   */\n      slt\n        /* \"#utility.yul\":7325:7377   */\n      iszero\n      tag_329\n      jumpi\n        /* \"#utility.yul\":7373:7374   */\n      0x00\n        /* \"#utility.yul\":7370:7371   */\n      dup1\n        /* \"#utility.yul\":7363:7375   */\n      revert\n        /* \"#utility.yul\":7325:7377   */\n    tag_329:\n        /* \"#utility.yul\":7405:7414   */\n      dup2\n        /* \"#utility.yul\":7399:7415   */\n      mload\n        /* \"#utility.yul\":7458:7463   */\n      dup1\n        /* \"#utility.yul\":7451:7464   */\n      iszero\n        /* \"#utility.yul\":7444:7465   */\n      iszero\n        /* \"#utility.yul\":7437:7442   */\n      dup2\n        /* \"#utility.yul\":7434:7466   */\n      eq\n        /* \"#utility.yul\":7424:7484   */\n      tag_301\n      jumpi\n        /* \"#utility.yul\":7480:7481   */\n      0x00\n        /* \"#utility.yul\":7477:7478   */\n      dup1\n        /* \"#utility.yul\":7470:7482   */\n      revert\n\n    auxdata: 0xa2646970667358221220f08aa8e4fd264ba76f0c1da284c22559ad50c9541cf03aa3bd6287a484c5692864736f6c63430008120033\n}\n",
				"bytecode": {
					"linkReferences": {},
					"object": "6080604052600780546001600160a01b0319167349d5c2bdffac6ce2bfdb6640f4f80f226bc10bab1790556009805460ff60a01b191690553480156200004457600080fd5b506040516200149e3803806200149e833981016040819052620000679162000290565b6040518060400160405280601b81526020017f4d6f6e65792041766178205265666c656374696f6e20546f6b656e00000000008152506040518060400160405280601481526020017f4d6f6e6579417661785265666c656374696f6e730000000000000000000000008152508160039081620000e4919062000366565b506004620000f3828262000366565b505050620001106200010a6200014d60201b60201c565b62000151565b6001600655600980546001600160a01b0319166001600160a01b038316179055620001463369d3c21bcecceda1000000620001a3565b506200045a565b3390565b600580546001600160a01b038381166001600160a01b0319831681179093556040519116919082907f8be0079c531659141344cd1fd0a4f28419497f9722a3daafe3b4186f6b6457e090600090a35050565b6001600160a01b038216620001fe5760405162461bcd60e51b815260206004820152601f60248201527f45524332303a206d696e7420746f20746865207a65726f206164647265737300604482015260640160405180910390fd5b806002600082825462000212919062000432565b90915550506001600160a01b038216600090815260208190526040812080548392906200024190849062000432565b90915550506040518181526001600160a01b038316906000907fddf252ad1be2c89b69c2b068fc378daa952ba7f163c4a11628f55a4df523b3ef9060200160405180910390a35050565b505050565b600060208284031215620002a357600080fd5b81516001600160a01b0381168114620002bb57600080fd5b9392505050565b634e487b7160e01b600052604160045260246000fd5b600181811c90821680620002ed57607f821691505b6020821081036200030e57634e487b7160e01b600052602260045260246000fd5b50919050565b601f8211156200028b57600081815260208120601f850160051c810160208610156200033d5750805b601f850160051c820191505b818110156200035e5782815560010162000349565b505050505050565b81516001600160401b03811115620003825762000382620002c2565b6200039a81620003938454620002d8565b8462000314565b602080601f831160018114620003d25760008415620003b95750858301515b600019600386901b1c1916600185901b1785556200035e565b600085815260208120601f198616915b828110156200040357888601518255948401946001909101908401620003e2565b5085821015620004225787850151600019600388901b60f8161c191681555b5050505050600190811b01905550565b808201808211156200045457634e487b7160e01b600052601160045260246000fd5b92915050565b611034806200046a6000396000f3fe608060405234801561001057600080fd5b50600436106101155760003560e01c8063715018a6116100a2578063a35f942a11610071578063a35f942a14610234578063a457c2d714610247578063a9059cbb1461025a578063dd62ed3e1461026d578063f2fde38b146102a657600080fd5b8063715018a61461020057806375f0a874146102085780638da5cb5b1461021b57806395d89b411461022c57600080fd5b806323b872dd116100e957806323b872dd14610177578063313ce5671461018a5780633950935114610199578063452ed4f1146101ac57806370a08231146101d757600080fd5b806299d3861461011a57806306fdde0314610124578063095ea7b31461014257806318160ddd14610165575b600080fd5b6101226102b9565b005b61012c61035b565b6040516101399190610de6565b60405180910390f35b610155610150366004610e50565b6103ed565b6040519015158152602001610139565b6002545b604051908152602001610139565b610155610185366004610e7a565b610407565b60405160128152602001610139565b6101556101a7366004610e50565b6104a3565b6008546101bf906001600160a01b031681565b6040516001600160a01b039091168152602001610139565b6101696101e5366004610eb6565b6001600160a01b031660009081526020819052604090205490565b6101226104e2565b6009546101bf906001600160a01b031681565b6005546001600160a01b03166101bf565b61012c610516565b610122610242366004610eb6565b610525565b610155610255366004610e50565b610571565b610155610268366004610e50565b61060e565b61016961027b366004610ed8565b6001600160a01b03918216600090815260016020908152604080832093909416825291909152205490565b6101226102b4366004610eb6565b6106a8565b6005546001600160a01b031633146102ec5760405162461bcd60e51b81526004016102e390610f0b565b60405180910390fd5b600954600160a01b900460ff16156103465760405162461bcd60e51b815260206004820152601760248201527f54726164696e6720616c726561647920656e61626c656400000000000000000060448201526064016102e3565b6009805460ff60a01b1916600160a01b179055565b60606003805461036a90610f40565b80601f016020809104026020016040519081016040528092919081815260200182805461039690610f40565b80156103e35780601f106103b8576101008083540402835291602001916103e3565b820191906000526020600020905b8154815290600101906020018083116103c657829003601f168201915b5050505050905090565b6000336103fb818585610734565b60019150505b92915050565b600060026006540361045b5760405162461bcd60e51b815260206004820152601f60248201527f5265656e7472616e637947756172643a207265656e7472616e742063616c6c0060448201526064016102e3565b600260065561046982610858565b6104738383610936565b61047d83836109ce565b6104878383610a15565b610492848484610a47565b506001905060016006559392505050565b3360008181526001602090815260408083206001600160a01b03871684529091528120549091906103fb90829086906104dd908790610f90565b610734565b6005546001600160a01b0316331461050c5760405162461bcd60e51b81526004016102e390610f0b565b610514610a60565b565b60606004805461036a90610f40565b6005546001600160a01b0316331461054f5760405162461bcd60e51b81526004016102e390610f0b565b600880546001600160a01b0319166001600160a01b0392909216919091179055565b3360008181526001602090815260408083206001600160a01b0387168452909152812054909190838110156105f65760405162461bcd60e51b815260206004820152602560248201527f45524332303a2064656372656173656420616c6c6f77616e63652062656c6f77604482015264207a65726f60d81b60648201526084016102e3565b6106038286868403610734565b506001949350505050565b60006002600654036106625760405162461bcd60e51b815260206004820152601f60248201527f5265656e7472616e637947756172643a207265656e7472616e742063616c6c0060448201526064016102e3565b600260065561067082610858565b61067a8383610936565b61068483836109ce565b61068e8383610a15565b6106988383610a94565b5060019050600160065592915050565b6005546001600160a01b031633146106d25760405162461bcd60e51b81526004016102e390610f0b565b6001600160a01b0381166107285760405162461bcd60e51b815260206004820152601960248201527f496e76616c6964206e6577206f776e657220616464726573730000000000000060448201526064016102e3565b61073181610aa2565b50565b6001600160a01b0383166107965760405162461bcd60e51b8152602060048201526024808201527f45524332303a20617070726f76652066726f6d20746865207a65726f206164646044820152637265737360e01b60648201526084016102e3565b6001600160a01b0382166107f75760405162461bcd60e51b815260206004820152602260248201527f45524332303a20617070726f766520746f20746865207a65726f206164647265604482015261737360f01b60648201526084016102e3565b6001600160a01b0383811660008181526001602090815260408083209487168084529482529182902085905590518481527f8c5be1e5ebec7d5bd14f71427d1e84f3dd0314c0f7b2291e5b200ac8c7c3b925910160405180910390a3505050565b606461086f69d3c21bcecceda10000006001610fa3565b6108799190610fba565b8111156108c85760405162461bcd60e51b815260206004820152601e60248201527f45786365656473206d6178207472616e73616374696f6e20616d6f756e74000060448201526064016102e3565b600954600160a01b900460ff16806108ea57506005546001600160a01b031633145b6107315760405162461bcd60e51b815260206004820152601760248201527f54726164696e67206e6f742079657420656e61626c656400000000000000000060448201526064016102e3565b60006064610945836005610fa3565b61094f9190610fba565b60075460405163a9059cbb60e01b81526001600160a01b0386811660048301526024820184905292935091169063a9059cbb906044016020604051808303816000875af11580156109a4573d6000803e3d6000fd5b505050506040513d601f19601f820116820180604052508101906109c89190610fdc565b50505050565b6008546001600160a01b031615610a1157600060646109ee836002610fa3565b6109f89190610fba565b6008549091506109c8906001600160a01b031682610a94565b5050565b60006064610a24836001610fa3565b610a2e9190610fba565b6009549091506109c8906001600160a01b031682610a94565b600033610a55858285610b3a565b610603858585610bc6565b6005546001600160a01b03163314610a8a5760405162461bcd60e51b81526004016102e390610f0b565b6105146000610d94565b6000336103fb818585610bc6565b6005546001600160a01b03163314610acc5760405162461bcd60e51b81526004016102e390610f0b565b6001600160a01b038116610b315760405162461bcd60e51b815260206004820152602660248201527f4f776e61626c653a206e6577206f776e657220697320746865207a65726f206160448201526564647265737360d01b60648201526084016102e3565b61073181610d94565b6001600160a01b0383811660009081526001602090815260408083209386168352929052205460001981146109c85781811015610bb95760405162461bcd60e51b815260206004820152601d60248201527f45524332303a20696e73756666696369656e7420616c6c6f77616e636500000060448201526064016102e3565b6109c88484848403610734565b6001600160a01b038316610c2a5760405162461bcd60e51b815260206004820152602560248201527f45524332303a207472616e736665722066726f6d20746865207a65726f206164604482015264647265737360d81b60648201526084016102e3565b6001600160a01b038216610c8c5760405162461bcd60e51b815260206004820152602360248201527f45524332303a207472616e7366657220746f20746865207a65726f206164647260448201526265737360e81b60648201526084016102e3565b6001600160a01b03831660009081526020819052604090205481811015610d045760405162461bcd60e51b815260206004820152602660248201527f45524332303a207472616e7366657220616d6f756e7420657863656564732062604482015265616c616e636560d01b60648201526084016102e3565b6001600160a01b03808516600090815260208190526040808220858503905591851681529081208054849290610d3b908490610f90565b92505081905550826001600160a01b0316846001600160a01b03167fddf252ad1be2c89b69c2b068fc378daa952ba7f163c4a11628f55a4df523b3ef84604051610d8791815260200190565b60405180910390a36109c8565b600580546001600160a01b038381166001600160a01b0319831681179093556040519116919082907f8be0079c531659141344cd1fd0a4f28419497f9722a3daafe3b4186f6b6457e090600090a35050565b600060208083528351808285015260005b81811015610e1357858101830151858201604001528201610df7565b506000604082860101526040601f19601f8301168501019250505092915050565b80356001600160a01b0381168114610e4b57600080fd5b919050565b60008060408385031215610e6357600080fd5b610e6c83610e34565b946020939093013593505050565b600080600060608486031215610e8f57600080fd5b610e9884610e34565b9250610ea660208501610e34565b9150604084013590509250925092565b600060208284031215610ec857600080fd5b610ed182610e34565b9392505050565b60008060408385031215610eeb57600080fd5b610ef483610e34565b9150610f0260208401610e34565b90509250929050565b6020808252818101527f4f776e61626c653a2063616c6c6572206973206e6f7420746865206f776e6572604082015260600190565b600181811c90821680610f5457607f821691505b602082108103610f7457634e487b7160e01b600052602260045260246000fd5b50919050565b634e487b7160e01b600052601160045260246000fd5b8082018082111561040157610401610f7a565b808202811582820484141761040157610401610f7a565b600082610fd757634e487b7160e01b600052601260045260246000fd5b500490565b600060208284031215610fee57600080fd5b81518015158114610ed157600080fdfea2646970667358221220f08aa8e4fd264ba76f0c1da284c22559ad50c9541cf03aa3bd6287a484c5692864736f6c63430008120033",
					"opcodes": "PUSH1 0x80 PUSH1 0x40 MSTORE PUSH1 0x7 DUP1 SLOAD PUSH1 0x1 PUSH1 0x1 PUSH1 0xA0 SHL SUB NOT AND PUSH20 0x49D5C2BDFFAC6CE2BFDB6640F4F80F226BC10BAB OR SWAP1 SSTORE PUSH1 0x9 DUP1 SLOAD PUSH1 0xFF PUSH1 0xA0 SHL NOT AND SWAP1 SSTORE CALLVALUE DUP1 ISZERO PUSH3 0x44 JUMPI PUSH1 0x0 DUP1 REVERT JUMPDEST POP PUSH1 0x40 MLOAD PUSH3 0x149E CODESIZE SUB DUP1 PUSH3 0x149E DUP4 CODECOPY DUP2 ADD PUSH1 0x40 DUP2 SWAP1 MSTORE PUSH3 0x67 SWAP2 PUSH3 0x290 JUMP JUMPDEST PUSH1 0x40 MLOAD DUP1 PUSH1 0x40 ADD PUSH1 0x40 MSTORE DUP1 PUSH1 0x1B DUP2 MSTORE PUSH1 0x20 ADD PUSH32 0x4D6F6E65792041766178205265666C656374696F6E20546F6B656E0000000000 DUP2 MSTORE POP PUSH1 0x40 MLOAD DUP1 PUSH1 0x40 ADD PUSH1 0x40 MSTORE DUP1 PUSH1 0x14 DUP2 MSTORE PUSH1 0x20 ADD PUSH32 0x4D6F6E6579417661785265666C656374696F6E73000000000000000000000000 DUP2 MSTORE POP DUP2 PUSH1 0x3 SWAP1 DUP2 PUSH3 0xE4 SWAP2 SWAP1 PUSH3 0x366 JUMP JUMPDEST POP PUSH1 0x4 PUSH3 0xF3 DUP3 DUP3 PUSH3 0x366 JUMP JUMPDEST POP POP POP PUSH3 0x110 PUSH3 0x10A PUSH3 0x14D PUSH1 0x20 SHL PUSH1 0x20 SHR JUMP JUMPDEST PUSH3 0x151 JUMP JUMPDEST PUSH1 0x1 PUSH1 0x6 SSTORE PUSH1 0x9 DUP1 SLOAD PUSH1 0x1 PUSH1 0x1 PUSH1 0xA0 SHL SUB NOT AND PUSH1 0x1 PUSH1 0x1 PUSH1 0xA0 SHL SUB DUP4 AND OR SWAP1 SSTORE PUSH3 0x146 CALLER PUSH10 0xD3C21BCECCEDA1000000 PUSH3 0x1A3 JUMP JUMPDEST POP PUSH3 0x45A JUMP JUMPDEST CALLER SWAP1 JUMP JUMPDEST PUSH1 0x5 DUP1 SLOAD PUSH1 0x1 PUSH1 0x1 PUSH1 0xA0 SHL SUB DUP4 DUP2 AND PUSH1 0x1 PUSH1 0x1 PUSH1 0xA0 SHL SUB NOT DUP4 AND DUP2 OR SWAP1 SWAP4 SSTORE PUSH1 0x40 MLOAD SWAP2 AND SWAP2 SWAP1 DUP3 SWAP1 PUSH32 0x8BE0079C531659141344CD1FD0A4F28419497F9722A3DAAFE3B4186F6B6457E0 SWAP1 PUSH1 0x0 SWAP1 LOG3 POP POP JUMP JUMPDEST PUSH1 0x1 PUSH1 0x1 PUSH1 0xA0 SHL SUB DUP3 AND PUSH3 0x1FE JUMPI PUSH1 0x40 MLOAD PUSH3 0x461BCD PUSH1 0xE5 SHL DUP2 MSTORE PUSH1 0x20 PUSH1 0x4 DUP3 ADD MSTORE PUSH1 0x1F PUSH1 0x24 DUP3 ADD MSTORE PUSH32 0x45524332303A206D696E7420746F20746865207A65726F206164647265737300 PUSH1 0x44 DUP3 ADD MSTORE PUSH1 0x64 ADD PUSH1 0x40 MLOAD DUP1 SWAP2 SUB SWAP1 REVERT JUMPDEST DUP1 PUSH1 0x2 PUSH1 0x0 DUP3 DUP3 SLOAD PUSH3 0x212 SWAP2 SWAP1 PUSH3 0x432 JUMP JUMPDEST SWAP1 SWAP2 SSTORE POP POP PUSH1 0x1 PUSH1 0x1 PUSH1 0xA0 SHL SUB DUP3 AND PUSH1 0x0 SWAP1 DUP2 MSTORE PUSH1 0x20 DUP2 SWAP1 MSTORE PUSH1 0x40 DUP2 KECCAK256 DUP1 SLOAD DUP4 SWAP3 SWAP1 PUSH3 0x241 SWAP1 DUP5 SWAP1 PUSH3 0x432 JUMP JUMPDEST SWAP1 SWAP2 SSTORE POP POP PUSH1 0x40 MLOAD DUP2 DUP2 MSTORE PUSH1 0x1 PUSH1 0x1 PUSH1 0xA0 SHL SUB DUP4 AND SWAP1 PUSH1 0x0 SWAP1 PUSH32 0xDDF252AD1BE2C89B69C2B068FC378DAA952BA7F163C4A11628F55A4DF523B3EF SWAP1 PUSH1 0x20 ADD PUSH1 0x40 MLOAD DUP1 SWAP2 SUB SWAP1 LOG3 POP POP JUMP JUMPDEST POP POP POP JUMP JUMPDEST PUSH1 0x0 PUSH1 0x20 DUP3 DUP5 SUB SLT ISZERO PUSH3 0x2A3 JUMPI PUSH1 0x0 DUP1 REVERT JUMPDEST DUP2 MLOAD PUSH1 0x1 PUSH1 0x1 PUSH1 0xA0 SHL SUB DUP2 AND DUP2 EQ PUSH3 0x2BB JUMPI PUSH1 0x0 DUP1 REVERT JUMPDEST SWAP4 SWAP3 POP POP POP JUMP JUMPDEST PUSH4 0x4E487B71 PUSH1 0xE0 SHL PUSH1 0x0 MSTORE PUSH1 0x41 PUSH1 0x4 MSTORE PUSH1 0x24 PUSH1 0x0 REVERT JUMPDEST PUSH1 0x1 DUP2 DUP2 SHR SWAP1 DUP3 AND DUP1 PUSH3 0x2ED JUMPI PUSH1 0x7F DUP3 AND SWAP2 POP JUMPDEST PUSH1 0x20 DUP3 LT DUP2 SUB PUSH3 0x30E JUMPI PUSH4 0x4E487B71 PUSH1 0xE0 SHL PUSH1 0x0 MSTORE PUSH1 0x22 PUSH1 0x4 MSTORE PUSH1 0x24 PUSH1 0x0 REVERT JUMPDEST POP SWAP2 SWAP1 POP JUMP JUMPDEST PUSH1 0x1F DUP3 GT ISZERO PUSH3 0x28B JUMPI PUSH1 0x0 DUP2 DUP2 MSTORE PUSH1 0x20 DUP2 KECCAK256 PUSH1 0x1F DUP6 ADD PUSH1 0x5 SHR DUP2 ADD PUSH1 0x20 DUP7 LT ISZERO PUSH3 0x33D JUMPI POP DUP1 JUMPDEST PUSH1 0x1F DUP6 ADD PUSH1 0x5 SHR DUP3 ADD SWAP2 POP JUMPDEST DUP2 DUP2 LT ISZERO PUSH3 0x35E JUMPI DUP3 DUP2 SSTORE PUSH1 0x1 ADD PUSH3 0x349 JUMP JUMPDEST POP POP POP POP POP POP JUMP JUMPDEST DUP2 MLOAD PUSH1 0x1 PUSH1 0x1 PUSH1 0x40 SHL SUB DUP2 GT ISZERO PUSH3 0x382 JUMPI PUSH3 0x382 PUSH3 0x2C2 JUMP JUMPDEST PUSH3 0x39A DUP2 PUSH3 0x393 DUP5 SLOAD PUSH3 0x2D8 JUMP JUMPDEST DUP5 PUSH3 0x314 JUMP JUMPDEST PUSH1 0x20 DUP1 PUSH1 0x1F DUP4 GT PUSH1 0x1 DUP2 EQ PUSH3 0x3D2 JUMPI PUSH1 0x0 DUP5 ISZERO PUSH3 0x3B9 JUMPI POP DUP6 DUP4 ADD MLOAD JUMPDEST PUSH1 0x0 NOT PUSH1 0x3 DUP7 SWAP1 SHL SHR NOT AND PUSH1 0x1 DUP6 SWAP1 SHL OR DUP6 SSTORE PUSH3 0x35E JUMP JUMPDEST PUSH1 0x0 DUP6 DUP2 MSTORE PUSH1 0x20 DUP2 KECCAK256 PUSH1 0x1F NOT DUP7 AND SWAP2 JUMPDEST DUP3 DUP2 LT ISZERO PUSH3 0x403 JUMPI DUP9 DUP7 ADD MLOAD DUP3 SSTORE SWAP5 DUP5 ADD SWAP5 PUSH1 0x1 SWAP1 SWAP2 ADD SWAP1 DUP5 ADD PUSH3 0x3E2 JUMP JUMPDEST POP DUP6 DUP3 LT ISZERO PUSH3 0x422 JUMPI DUP8 DUP6 ADD MLOAD PUSH1 0x0 NOT PUSH1 0x3 DUP9 SWAP1 SHL PUSH1 0xF8 AND SHR NOT AND DUP2 SSTORE JUMPDEST POP POP POP POP POP PUSH1 0x1 SWAP1 DUP2 SHL ADD SWAP1 SSTORE POP JUMP JUMPDEST DUP1 DUP3 ADD DUP1 DUP3 GT ISZERO PUSH3 0x454 JUMPI PUSH4 0x4E487B71 PUSH1 0xE0 SHL PUSH1 0x0 MSTORE PUSH1 0x11 PUSH1 0x4 MSTORE PUSH1 0x24 PUSH1 0x0 REVERT JUMPDEST SWAP3 SWAP2 POP POP JUMP JUMPDEST PUSH2 0x1034 DUP1 PUSH3 0x46A PUSH1 0x0 CODECOPY PUSH1 0x0 RETURN INVALID PUSH1 0x80 PUSH1 0x40 MSTORE CALLVALUE DUP1 ISZERO PUSH2 0x10 JUMPI PUSH1 0x0 DUP1 REVERT JUMPDEST POP PUSH1 0x4 CALLDATASIZE LT PUSH2 0x115 JUMPI PUSH1 0x0 CALLDATALOAD PUSH1 0xE0 SHR DUP1 PUSH4 0x715018A6 GT PUSH2 0xA2 JUMPI DUP1 PUSH4 0xA35F942A GT PUSH2 0x71 JUMPI DUP1 PUSH4 0xA35F942A EQ PUSH2 0x234 JUMPI DUP1 PUSH4 0xA457C2D7 EQ PUSH2 0x247 JUMPI DUP1 PUSH4 0xA9059CBB EQ PUSH2 0x25A JUMPI DUP1 PUSH4 0xDD62ED3E EQ PUSH2 0x26D JUMPI DUP1 PUSH4 0xF2FDE38B EQ PUSH2 0x2A6 JUMPI PUSH1 0x0 DUP1 REVERT JUMPDEST DUP1 PUSH4 0x715018A6 EQ PUSH2 0x200 JUMPI DUP1 PUSH4 0x75F0A874 EQ PUSH2 0x208 JUMPI DUP1 PUSH4 0x8DA5CB5B EQ PUSH2 0x21B JUMPI DUP1 PUSH4 0x95D89B41 EQ PUSH2 0x22C JUMPI PUSH1 0x0 DUP1 REVERT JUMPDEST DUP1 PUSH4 0x23B872DD GT PUSH2 0xE9 JUMPI DUP1 PUSH4 0x23B872DD EQ PUSH2 0x177 JUMPI DUP1 PUSH4 0x313CE567 EQ PUSH2 0x18A JUMPI DUP1 PUSH4 0x39509351 EQ PUSH2 0x199 JUMPI DUP1 PUSH4 0x452ED4F1 EQ PUSH2 0x1AC JUMPI DUP1 PUSH4 0x70A08231 EQ PUSH2 0x1D7 JUMPI PUSH1 0x0 DUP1 REVERT JUMPDEST DUP1 PUSH3 0x99D386 EQ PUSH2 0x11A JUMPI DUP1 PUSH4 0x6FDDE03 EQ PUSH2 0x124 JUMPI DUP1 PUSH4 0x95EA7B3 EQ PUSH2 0x142 JUMPI DUP1 PUSH4 0x18160DDD EQ PUSH2 0x165 JUMPI JUMPDEST PUSH1 0x0 DUP1 REVERT JUMPDEST PUSH2 0x122 PUSH2 0x2B9 JUMP JUMPDEST STOP JUMPDEST PUSH2 0x12C PUSH2 0x35B JUMP JUMPDEST PUSH1 0x40 MLOAD PUSH2 0x139 SWAP2 SWAP1 PUSH2 0xDE6 JUMP JUMPDEST PUSH1 0x40 MLOAD DUP1 SWAP2 SUB SWAP1 RETURN JUMPDEST PUSH2 0x155 PUSH2 0x150 CALLDATASIZE PUSH1 0x4 PUSH2 0xE50 JUMP JUMPDEST PUSH2 0x3ED JUMP JUMPDEST PUSH1 0x40 MLOAD SWAP1 ISZERO ISZERO DUP2 MSTORE PUSH1 0x20 ADD PUSH2 0x139 JUMP JUMPDEST PUSH1 0x2 SLOAD JUMPDEST PUSH1 0x40 MLOAD SWAP1 DUP2 MSTORE PUSH1 0x20 ADD PUSH2 0x139 JUMP JUMPDEST PUSH2 0x155 PUSH2 0x185 CALLDATASIZE PUSH1 0x4 PUSH2 0xE7A JUMP JUMPDEST PUSH2 0x407 JUMP JUMPDEST PUSH1 0x40 MLOAD PUSH1 0x12 DUP2 MSTORE PUSH1 0x20 ADD PUSH2 0x139 JUMP JUMPDEST PUSH2 0x155 PUSH2 0x1A7 CALLDATASIZE PUSH1 0x4 PUSH2 0xE50 JUMP JUMPDEST PUSH2 0x4A3 JUMP JUMPDEST PUSH1 0x8 SLOAD PUSH2 0x1BF SWAP1 PUSH1 0x1 PUSH1 0x1 PUSH1 0xA0 SHL SUB AND DUP2 JUMP JUMPDEST PUSH1 0x40 MLOAD PUSH1 0x1 PUSH1 0x1 PUSH1 0xA0 SHL SUB SWAP1 SWAP2 AND DUP2 MSTORE PUSH1 0x20 ADD PUSH2 0x139 JUMP JUMPDEST PUSH2 0x169 PUSH2 0x1E5 CALLDATASIZE PUSH1 0x4 PUSH2 0xEB6 JUMP JUMPDEST PUSH1 0x1 PUSH1 0x1 PUSH1 0xA0 SHL SUB AND PUSH1 0x0 SWAP1 DUP2 MSTORE PUSH1 0x20 DUP2 SWAP1 MSTORE PUSH1 0x40 SWAP1 KECCAK256 SLOAD SWAP1 JUMP JUMPDEST PUSH2 0x122 PUSH2 0x4E2 JUMP JUMPDEST PUSH1 0x9 SLOAD PUSH2 0x1BF SWAP1 PUSH1 0x1 PUSH1 0x1 PUSH1 0xA0 SHL SUB AND DUP2 JUMP JUMPDEST PUSH1 0x5 SLOAD PUSH1 0x1 PUSH1 0x1 PUSH1 0xA0 SHL SUB AND PUSH2 0x1BF JUMP JUMPDEST PUSH2 0x12C PUSH2 0x516 JUMP JUMPDEST PUSH2 0x122 PUSH2 0x242 CALLDATASIZE PUSH1 0x4 PUSH2 0xEB6 JUMP JUMPDEST PUSH2 0x525 JUMP JUMPDEST PUSH2 0x155 PUSH2 0x255 CALLDATASIZE PUSH1 0x4 PUSH2 0xE50 JUMP JUMPDEST PUSH2 0x571 JUMP JUMPDEST PUSH2 0x155 PUSH2 0x268 CALLDATASIZE PUSH1 0x4 PUSH2 0xE50 JUMP JUMPDEST PUSH2 0x60E JUMP JUMPDEST PUSH2 0x169 PUSH2 0x27B CALLDATASIZE PUSH1 0x4 PUSH2 0xED8 JUMP JUMPDEST PUSH1 0x1 PUSH1 0x1 PUSH1 0xA0 SHL SUB SWAP2 DUP3 AND PUSH1 0x0 SWAP1 DUP2 MSTORE PUSH1 0x1 PUSH1 0x20 SWAP1 DUP2 MSTORE PUSH1 0x40 DUP1 DUP4 KECCAK256 SWAP4 SWAP1 SWAP5 AND DUP3 MSTORE SWAP2 SWAP1 SWAP2 MSTORE KECCAK256 SLOAD SWAP1 JUMP JUMPDEST PUSH2 0x122 PUSH2 0x2B4 CALLDATASIZE PUSH1 0x4 PUSH2 0xEB6 JUMP JUMPDEST PUSH2 0x6A8 JUMP JUMPDEST PUSH1 0x5 SLOAD PUSH1 0x1 PUSH1 0x1 PUSH1 0xA0 SHL SUB AND CALLER EQ PUSH2 0x2EC JUMPI PUSH1 0x40 MLOAD PUSH3 0x461BCD PUSH1 0xE5 SHL DUP2 MSTORE PUSH1 0x4 ADD PUSH2 0x2E3 SWAP1 PUSH2 0xF0B JUMP JUMPDEST PUSH1 0x40 MLOAD DUP1 SWAP2 SUB SWAP1 REVERT JUMPDEST PUSH1 0x9 SLOAD PUSH1 0x1 PUSH1 0xA0 SHL SWAP1 DIV PUSH1 0xFF AND ISZERO PUSH2 0x346 JUMPI PUSH1 0x40 MLOAD PUSH3 0x461BCD PUSH1 0xE5 SHL DUP2 MSTORE PUSH1 0x20 PUSH1 0x4 DUP3 ADD MSTORE PUSH1 0x17 PUSH1 0x24 DUP3 ADD MSTORE PUSH32 0x54726164696E6720616C726561647920656E61626C6564000000000000000000 PUSH1 0x44 DUP3 ADD MSTORE PUSH1 0x64 ADD PUSH2 0x2E3 JUMP JUMPDEST PUSH1 0x9 DUP1 SLOAD PUSH1 0xFF PUSH1 0xA0 SHL NOT AND PUSH1 0x1 PUSH1 0xA0 SHL OR SWAP1 SSTORE JUMP JUMPDEST PUSH1 0x60 PUSH1 0x3 DUP1 SLOAD PUSH2 0x36A SWAP1 PUSH2 0xF40 JUMP JUMPDEST DUP1 PUSH1 0x1F ADD PUSH1 0x20 DUP1 SWAP2 DIV MUL PUSH1 0x20 ADD PUSH1 0x40 MLOAD SWAP1 DUP2 ADD PUSH1 0x40 MSTORE DUP1 SWAP3 SWAP2 SWAP1 DUP2 DUP2 MSTORE PUSH1 0x20 ADD DUP3 DUP1 SLOAD PUSH2 0x396 SWAP1 PUSH2 0xF40 JUMP JUMPDEST DUP1 ISZERO PUSH2 0x3E3 JUMPI DUP1 PUSH1 0x1F LT PUSH2 0x3B8 JUMPI PUSH2 0x100 DUP1 DUP4 SLOAD DIV MUL DUP4 MSTORE SWAP2 PUSH1 0x20 ADD SWAP2 PUSH2 0x3E3 JUMP JUMPDEST DUP3 ADD SWAP2 SWAP1 PUSH1 0x0 MSTORE PUSH1 0x20 PUSH1 0x0 KECCAK256 SWAP1 JUMPDEST DUP2 SLOAD DUP2 MSTORE SWAP1 PUSH1 0x1 ADD SWAP1 PUSH1 0x20 ADD DUP1 DUP4 GT PUSH2 0x3C6 JUMPI DUP3 SWAP1 SUB PUSH1 0x1F AND DUP3 ADD SWAP2 JUMPDEST POP POP POP POP POP SWAP1 POP SWAP1 JUMP JUMPDEST PUSH1 0x0 CALLER PUSH2 0x3FB DUP2 DUP6 DUP6 PUSH2 0x734 JUMP JUMPDEST PUSH1 0x1 SWAP2 POP POP JUMPDEST SWAP3 SWAP2 POP POP JUMP JUMPDEST PUSH1 0x0 PUSH1 0x2 PUSH1 0x6 SLOAD SUB PUSH2 0x45B JUMPI PUSH1 0x40 MLOAD PUSH3 0x461BCD PUSH1 0xE5 SHL DUP2 MSTORE PUSH1 0x20 PUSH1 0x4 DUP3 ADD MSTORE PUSH1 0x1F PUSH1 0x24 DUP3 ADD MSTORE PUSH32 0x5265656E7472616E637947756172643A207265656E7472616E742063616C6C00 PUSH1 0x44 DUP3 ADD MSTORE PUSH1 0x64 ADD PUSH2 0x2E3 JUMP JUMPDEST PUSH1 0x2 PUSH1 0x6 SSTORE PUSH2 0x469 DUP3 PUSH2 0x858 JUMP JUMPDEST PUSH2 0x473 DUP4 DUP4 PUSH2 0x936 JUMP JUMPDEST PUSH2 0x47D DUP4 DUP4 PUSH2 0x9CE JUMP JUMPDEST PUSH2 0x487 DUP4 DUP4 PUSH2 0xA15 JUMP JUMPDEST PUSH2 0x492 DUP5 DUP5 DUP5 PUSH2 0xA47 JUMP JUMPDEST POP PUSH1 0x1 SWAP1 POP PUSH1 0x1 PUSH1 0x6 SSTORE SWAP4 SWAP3 POP POP POP JUMP JUMPDEST CALLER PUSH1 0x0 DUP2 DUP2 MSTORE PUSH1 0x1 PUSH1 0x20 SWAP1 DUP2 MSTORE PUSH1 0x40 DUP1 DUP4 KECCAK256 PUSH1 0x1 PUSH1 0x1 PUSH1 0xA0 SHL SUB DUP8 AND DUP5 MSTORE SWAP1 SWAP2 MSTORE DUP2 KECCAK256 SLOAD SWAP1 SWAP2 SWAP1 PUSH2 0x3FB SWAP1 DUP3 SWAP1 DUP7 SWAP1 PUSH2 0x4DD SWAP1 DUP8 SWAP1 PUSH2 0xF90 JUMP JUMPDEST PUSH2 0x734 JUMP JUMPDEST PUSH1 0x5 SLOAD PUSH1 0x1 PUSH1 0x1 PUSH1 0xA0 SHL SUB AND CALLER EQ PUSH2 0x50C JUMPI PUSH1 0x40 MLOAD PUSH3 0x461BCD PUSH1 0xE5 SHL DUP2 MSTORE PUSH1 0x4 ADD PUSH2 0x2E3 SWAP1 PUSH2 0xF0B JUMP JUMPDEST PUSH2 0x514 PUSH2 0xA60 JUMP JUMPDEST JUMP JUMPDEST PUSH1 0x60 PUSH1 0x4 DUP1 SLOAD PUSH2 0x36A SWAP1 PUSH2 0xF40 JUMP JUMPDEST PUSH1 0x5 SLOAD PUSH1 0x1 PUSH1 0x1 PUSH1 0xA0 SHL SUB AND CALLER EQ PUSH2 0x54F JUMPI PUSH1 0x40 MLOAD PUSH3 0x461BCD PUSH1 0xE5 SHL DUP2 MSTORE PUSH1 0x4 ADD PUSH2 0x2E3 SWAP1 PUSH2 0xF0B JUMP JUMPDEST PUSH1 0x8 DUP1 SLOAD PUSH1 0x1 PUSH1 0x1 PUSH1 0xA0 SHL SUB NOT AND PUSH1 0x1 PUSH1 0x1 PUSH1 0xA0 SHL SUB SWAP3 SWAP1 SWAP3 AND SWAP2 SWAP1 SWAP2 OR SWAP1 SSTORE JUMP JUMPDEST CALLER PUSH1 0x0 DUP2 DUP2 MSTORE PUSH1 0x1 PUSH1 0x20 SWAP1 DUP2 MSTORE PUSH1 0x40 DUP1 DUP4 KECCAK256 PUSH1 0x1 PUSH1 0x1 PUSH1 0xA0 SHL SUB DUP8 AND DUP5 MSTORE SWAP1 SWAP2 MSTORE DUP2 KECCAK256 SLOAD SWAP1 SWAP2 SWAP1 DUP4 DUP2 LT ISZERO PUSH2 0x5F6 JUMPI PUSH1 0x40 MLOAD PUSH3 0x461BCD PUSH1 0xE5 SHL DUP2 MSTORE PUSH1 0x20 PUSH1 0x4 DUP3 ADD MSTORE PUSH1 0x25 PUSH1 0x24 DUP3 ADD MSTORE PUSH32 0x45524332303A2064656372656173656420616C6C6F77616E63652062656C6F77 PUSH1 0x44 DUP3 ADD MSTORE PUSH5 0x207A65726F PUSH1 0xD8 SHL PUSH1 0x64 DUP3 ADD MSTORE PUSH1 0x84 ADD PUSH2 0x2E3 JUMP JUMPDEST PUSH2 0x603 DUP3 DUP7 DUP7 DUP5 SUB PUSH2 0x734 JUMP JUMPDEST POP PUSH1 0x1 SWAP5 SWAP4 POP POP POP POP JUMP JUMPDEST PUSH1 0x0 PUSH1 0x2 PUSH1 0x6 SLOAD SUB PUSH2 0x662 JUMPI PUSH1 0x40 MLOAD PUSH3 0x461BCD PUSH1 0xE5 SHL DUP2 MSTORE PUSH1 0x20 PUSH1 0x4 DUP3 ADD MSTORE PUSH1 0x1F PUSH1 0x24 DUP3 ADD MSTORE PUSH32 0x5265656E7472616E637947756172643A207265656E7472616E742063616C6C00 PUSH1 0x44 DUP3 ADD MSTORE PUSH1 0x64 ADD PUSH2 0x2E3 JUMP JUMPDEST PUSH1 0x2 PUSH1 0x6 SSTORE PUSH2 0x670 DUP3 PUSH2 0x858 JUMP JUMPDEST PUSH2 0x67A DUP4 DUP4 PUSH2 0x936 JUMP JUMPDEST PUSH2 0x684 DUP4 DUP4 PUSH2 0x9CE JUMP JUMPDEST PUSH2 0x68E DUP4 DUP4 PUSH2 0xA15 JUMP JUMPDEST PUSH2 0x698 DUP4 DUP4 PUSH2 0xA94 JUMP JUMPDEST POP PUSH1 0x1 SWAP1 POP PUSH1 0x1 PUSH1 0x6 SSTORE SWAP3 SWAP2 POP POP JUMP JUMPDEST PUSH1 0x5 SLOAD PUSH1 0x1 PUSH1 0x1 PUSH1 0xA0 SHL SUB AND CALLER EQ PUSH2 0x6D2 JUMPI PUSH1 0x40 MLOAD PUSH3 0x461BCD PUSH1 0xE5 SHL DUP2 MSTORE PUSH1 0x4 ADD PUSH2 0x2E3 SWAP1 PUSH2 0xF0B JUMP JUMPDEST PUSH1 0x1 PUSH1 0x1 PUSH1 0xA0 SHL SUB DUP2 AND PUSH2 0x728 JUMPI PUSH1 0x40 MLOAD PUSH3 0x461BCD PUSH1 0xE5 SHL DUP2 MSTORE PUSH1 0x20 PUSH1 0x4 DUP3 ADD MSTORE PUSH1 0x19 PUSH1 0x24 DUP3 ADD MSTORE PUSH32 0x496E76616C6964206E6577206F776E6572206164647265737300000000000000 PUSH1 0x44 DUP3 ADD MSTORE PUSH1 0x64 ADD PUSH2 0x2E3 JUMP JUMPDEST PUSH2 0x731 DUP2 PUSH2 0xAA2 JUMP JUMPDEST POP JUMP JUMPDEST PUSH1 0x1 PUSH1 0x1 PUSH1 0xA0 SHL SUB DUP4 AND PUSH2 0x796 JUMPI PUSH1 0x40 MLOAD PUSH3 0x461BCD PUSH1 0xE5 SHL DUP2 MSTORE PUSH1 0x20 PUSH1 0x4 DUP3 ADD MSTORE PUSH1 0x24 DUP1 DUP3 ADD MSTORE PUSH32 0x45524332303A20617070726F76652066726F6D20746865207A65726F20616464 PUSH1 0x44 DUP3 ADD MSTORE PUSH4 0x72657373 PUSH1 0xE0 SHL PUSH1 0x64 DUP3 ADD MSTORE PUSH1 0x84 ADD PUSH2 0x2E3 JUMP JUMPDEST PUSH1 0x1 PUSH1 0x1 PUSH1 0xA0 SHL SUB DUP3 AND PUSH2 0x7F7 JUMPI PUSH1 0x40 MLOAD PUSH3 0x461BCD PUSH1 0xE5 SHL DUP2 MSTORE PUSH1 0x20 PUSH1 0x4 DUP3 ADD MSTORE PUSH1 0x22 PUSH1 0x24 DUP3 ADD MSTORE PUSH32 0x45524332303A20617070726F766520746F20746865207A65726F206164647265 PUSH1 0x44 DUP3 ADD MSTORE PUSH2 0x7373 PUSH1 0xF0 SHL PUSH1 0x64 DUP3 ADD MSTORE PUSH1 0x84 ADD PUSH2 0x2E3 JUMP JUMPDEST PUSH1 0x1 PUSH1 0x1 PUSH1 0xA0 SHL SUB DUP4 DUP2 AND PUSH1 0x0 DUP2 DUP2 MSTORE PUSH1 0x1 PUSH1 0x20 SWAP1 DUP2 MSTORE PUSH1 0x40 DUP1 DUP4 KECCAK256 SWAP5 DUP8 AND DUP1 DUP5 MSTORE SWAP5 DUP3 MSTORE SWAP2 DUP3 SWAP1 KECCAK256 DUP6 SWAP1 SSTORE SWAP1 MLOAD DUP5 DUP2 MSTORE PUSH32 0x8C5BE1E5EBEC7D5BD14F71427D1E84F3DD0314C0F7B2291E5B200AC8C7C3B925 SWAP2 ADD PUSH1 0x40 MLOAD DUP1 SWAP2 SUB SWAP1 LOG3 POP POP POP JUMP JUMPDEST PUSH1 0x64 PUSH2 0x86F PUSH10 0xD3C21BCECCEDA1000000 PUSH1 0x1 PUSH2 0xFA3 JUMP JUMPDEST PUSH2 0x879 SWAP2 SWAP1 PUSH2 0xFBA JUMP JUMPDEST DUP2 GT ISZERO PUSH2 0x8C8 JUMPI PUSH1 0x40 MLOAD PUSH3 0x461BCD PUSH1 0xE5 SHL DUP2 MSTORE PUSH1 0x20 PUSH1 0x4 DUP3 ADD MSTORE PUSH1 0x1E PUSH1 0x24 DUP3 ADD MSTORE PUSH32 0x45786365656473206D6178207472616E73616374696F6E20616D6F756E740000 PUSH1 0x44 DUP3 ADD MSTORE PUSH1 0x64 ADD PUSH2 0x2E3 JUMP JUMPDEST PUSH1 0x9 SLOAD PUSH1 0x1 PUSH1 0xA0 SHL SWAP1 DIV PUSH1 0xFF AND DUP1 PUSH2 0x8EA JUMPI POP PUSH1 0x5 SLOAD PUSH1 0x1 PUSH1 0x1 PUSH1 0xA0 SHL SUB AND CALLER EQ JUMPDEST PUSH2 0x731 JUMPI PUSH1 0x40 MLOAD PUSH3 0x461BCD PUSH1 0xE5 SHL DUP2 MSTORE PUSH1 0x20 PUSH1 0x4 DUP3 ADD MSTORE PUSH1 0x17 PUSH1 0x24 DUP3 ADD MSTORE PUSH32 0x54726164696E67206E6F742079657420656E61626C6564000000000000000000 PUSH1 0x44 DUP3 ADD MSTORE PUSH1 0x64 ADD PUSH2 0x2E3 JUMP JUMPDEST PUSH1 0x0 PUSH1 0x64 PUSH2 0x945 DUP4 PUSH1 0x5 PUSH2 0xFA3 JUMP JUMPDEST PUSH2 0x94F SWAP2 SWAP1 PUSH2 0xFBA JUMP JUMPDEST PUSH1 0x7 SLOAD PUSH1 0x40 MLOAD PUSH4 0xA9059CBB PUSH1 0xE0 SHL DUP2 MSTORE PUSH1 0x1 PUSH1 0x1 PUSH1 0xA0 SHL SUB DUP7 DUP2 AND PUSH1 0x4 DUP4 ADD MSTORE PUSH1 0x24 DUP3 ADD DUP5 SWAP1 MSTORE SWAP3 SWAP4 POP SWAP2 AND SWAP1 PUSH4 0xA9059CBB SWAP1 PUSH1 0x44 ADD PUSH1 0x20 PUSH1 0x40 MLOAD DUP1 DUP4 SUB DUP2 PUSH1 0x0 DUP8 GAS CALL ISZERO DUP1 ISZERO PUSH2 0x9A4 JUMPI RETURNDATASIZE PUSH1 0x0 DUP1 RETURNDATACOPY RETURNDATASIZE PUSH1 0x0 REVERT JUMPDEST POP POP POP POP PUSH1 0x40 MLOAD RETURNDATASIZE PUSH1 0x1F NOT PUSH1 0x1F DUP3 ADD AND DUP3 ADD DUP1 PUSH1 0x40 MSTORE POP DUP2 ADD SWAP1 PUSH2 0x9C8 SWAP2 SWAP1 PUSH2 0xFDC JUMP JUMPDEST POP POP POP POP JUMP JUMPDEST PUSH1 0x8 SLOAD PUSH1 0x1 PUSH1 0x1 PUSH1 0xA0 SHL SUB AND ISZERO PUSH2 0xA11 JUMPI PUSH1 0x0 PUSH1 0x64 PUSH2 0x9EE DUP4 PUSH1 0x2 PUSH2 0xFA3 JUMP JUMPDEST PUSH2 0x9F8 SWAP2 SWAP1 PUSH2 0xFBA JUMP JUMPDEST PUSH1 0x8 SLOAD SWAP1 SWAP2 POP PUSH2 0x9C8 SWAP1 PUSH1 0x1 PUSH1 0x1 PUSH1 0xA0 SHL SUB AND DUP3 PUSH2 0xA94 JUMP JUMPDEST POP POP JUMP JUMPDEST PUSH1 0x0 PUSH1 0x64 PUSH2 0xA24 DUP4 PUSH1 0x1 PUSH2 0xFA3 JUMP JUMPDEST PUSH2 0xA2E SWAP2 SWAP1 PUSH2 0xFBA JUMP JUMPDEST PUSH1 0x9 SLOAD SWAP1 SWAP2 POP PUSH2 0x9C8 SWAP1 PUSH1 0x1 PUSH1 0x1 PUSH1 0xA0 SHL SUB AND DUP3 PUSH2 0xA94 JUMP JUMPDEST PUSH1 0x0 CALLER PUSH2 0xA55 DUP6 DUP3 DUP6 PUSH2 0xB3A JUMP JUMPDEST PUSH2 0x603 DUP6 DUP6 DUP6 PUSH2 0xBC6 JUMP JUMPDEST PUSH1 0x5 SLOAD PUSH1 0x1 PUSH1 0x1 PUSH1 0xA0 SHL SUB AND CALLER EQ PUSH2 0xA8A JUMPI PUSH1 0x40 MLOAD PUSH3 0x461BCD PUSH1 0xE5 SHL DUP2 MSTORE PUSH1 0x4 ADD PUSH2 0x2E3 SWAP1 PUSH2 0xF0B JUMP JUMPDEST PUSH2 0x514 PUSH1 0x0 PUSH2 0xD94 JUMP JUMPDEST PUSH1 0x0 CALLER PUSH2 0x3FB DUP2 DUP6 DUP6 PUSH2 0xBC6 JUMP JUMPDEST PUSH1 0x5 SLOAD PUSH1 0x1 PUSH1 0x1 PUSH1 0xA0 SHL SUB AND CALLER EQ PUSH2 0xACC JUMPI PUSH1 0x40 MLOAD PUSH3 0x461BCD PUSH1 0xE5 SHL DUP2 MSTORE PUSH1 0x4 ADD PUSH2 0x2E3 SWAP1 PUSH2 0xF0B JUMP JUMPDEST PUSH1 0x1 PUSH1 0x1 PUSH1 0xA0 SHL SUB DUP2 AND PUSH2 0xB31 JUMPI PUSH1 0x40 MLOAD PUSH3 0x461BCD PUSH1 0xE5 SHL DUP2 MSTORE PUSH1 0x20 PUSH1 0x4 DUP3 ADD MSTORE PUSH1 0x26 PUSH1 0x24 DUP3 ADD MSTORE PUSH32 0x4F776E61626C653A206E6577206F776E657220697320746865207A65726F2061 PUSH1 0x44 DUP3 ADD MSTORE PUSH6 0x646472657373 PUSH1 0xD0 SHL PUSH1 0x64 DUP3 ADD MSTORE PUSH1 0x84 ADD PUSH2 0x2E3 JUMP JUMPDEST PUSH2 0x731 DUP2 PUSH2 0xD94 JUMP JUMPDEST PUSH1 0x1 PUSH1 0x1 PUSH1 0xA0 SHL SUB DUP4 DUP2 AND PUSH1 0x0 SWAP1 DUP2 MSTORE PUSH1 0x1 PUSH1 0x20 SWAP1 DUP2 MSTORE PUSH1 0x40 DUP1 DUP4 KECCAK256 SWAP4 DUP7 AND DUP4 MSTORE SWAP3 SWAP1 MSTORE KECCAK256 SLOAD PUSH1 0x0 NOT DUP2 EQ PUSH2 0x9C8 JUMPI DUP2 DUP2 LT ISZERO PUSH2 0xBB9 JUMPI PUSH1 0x40 MLOAD PUSH3 0x461BCD PUSH1 0xE5 SHL DUP2 MSTORE PUSH1 0x20 PUSH1 0x4 DUP3 ADD MSTORE PUSH1 0x1D PUSH1 0x24 DUP3 ADD MSTORE PUSH32 0x45524332303A20696E73756666696369656E7420616C6C6F77616E6365000000 PUSH1 0x44 DUP3 ADD MSTORE PUSH1 0x64 ADD PUSH2 0x2E3 JUMP JUMPDEST PUSH2 0x9C8 DUP5 DUP5 DUP5 DUP5 SUB PUSH2 0x734 JUMP JUMPDEST PUSH1 0x1 PUSH1 0x1 PUSH1 0xA0 SHL SUB DUP4 AND PUSH2 0xC2A JUMPI PUSH1 0x40 MLOAD PUSH3 0x461BCD PUSH1 0xE5 SHL DUP2 MSTORE PUSH1 0x20 PUSH1 0x4 DUP3 ADD MSTORE PUSH1 0x25 PUSH1 0x24 DUP3 ADD MSTORE PUSH32 0x45524332303A207472616E736665722066726F6D20746865207A65726F206164 PUSH1 0x44 DUP3 ADD MSTORE PUSH5 0x6472657373 PUSH1 0xD8 SHL PUSH1 0x64 DUP3 ADD MSTORE PUSH1 0x84 ADD PUSH2 0x2E3 JUMP JUMPDEST PUSH1 0x1 PUSH1 0x1 PUSH1 0xA0 SHL SUB DUP3 AND PUSH2 0xC8C JUMPI PUSH1 0x40 MLOAD PUSH3 0x461BCD PUSH1 0xE5 SHL DUP2 MSTORE PUSH1 0x20 PUSH1 0x4 DUP3 ADD MSTORE PUSH1 0x23 PUSH1 0x24 DUP3 ADD MSTORE PUSH32 0x45524332303A207472616E7366657220746F20746865207A65726F2061646472 PUSH1 0x44 DUP3 ADD MSTORE PUSH3 0x657373 PUSH1 0xE8 SHL PUSH1 0x64 DUP3 ADD MSTORE PUSH1 0x84 ADD PUSH2 0x2E3 JUMP JUMPDEST PUSH1 0x1 PUSH1 0x1 PUSH1 0xA0 SHL SUB DUP4 AND PUSH1 0x0 SWAP1 DUP2 MSTORE PUSH1 0x20 DUP2 SWAP1 MSTORE PUSH1 0x40 SWAP1 KECCAK256 SLOAD DUP2 DUP2 LT ISZERO PUSH2 0xD04 JUMPI PUSH1 0x40 MLOAD PUSH3 0x461BCD PUSH1 0xE5 SHL DUP2 MSTORE PUSH1 0x20 PUSH1 0x4 DUP3 ADD MSTORE PUSH1 0x26 PUSH1 0x24 DUP3 ADD MSTORE PUSH32 0x45524332303A207472616E7366657220616D6F756E7420657863656564732062 PUSH1 0x44 DUP3 ADD MSTORE PUSH6 0x616C616E6365 PUSH1 0xD0 SHL PUSH1 0x64 DUP3 ADD MSTORE PUSH1 0x84 ADD PUSH2 0x2E3 JUMP JUMPDEST PUSH1 0x1 PUSH1 0x1 PUSH1 0xA0 SHL SUB DUP1 DUP6 AND PUSH1 0x0 SWAP1 DUP2 MSTORE PUSH1 0x20 DUP2 SWAP1 MSTORE PUSH1 0x40 DUP1 DUP3 KECCAK256 DUP6 DUP6 SUB SWAP1 SSTORE SWAP2 DUP6 AND DUP2 MSTORE SWAP1 DUP2 KECCAK256 DUP1 SLOAD DUP5 SWAP3 SWAP1 PUSH2 0xD3B SWAP1 DUP5 SWAP1 PUSH2 0xF90 JUMP JUMPDEST SWAP3 POP POP DUP2 SWAP1 SSTORE POP DUP3 PUSH1 0x1 PUSH1 0x1 PUSH1 0xA0 SHL SUB AND DUP5 PUSH1 0x1 PUSH1 0x1 PUSH1 0xA0 SHL SUB AND PUSH32 0xDDF252AD1BE2C89B69C2B068FC378DAA952BA7F163C4A11628F55A4DF523B3EF DUP5 PUSH1 0x40 MLOAD PUSH2 0xD87 SWAP2 DUP2 MSTORE PUSH1 0x20 ADD SWAP1 JUMP JUMPDEST PUSH1 0x40 MLOAD DUP1 SWAP2 SUB SWAP1 LOG3 PUSH2 0x9C8 JUMP JUMPDEST PUSH1 0x5 DUP1 SLOAD PUSH1 0x1 PUSH1 0x1 PUSH1 0xA0 SHL SUB DUP4 DUP2 AND PUSH1 0x1 PUSH1 0x1 PUSH1 0xA0 SHL SUB NOT DUP4 AND DUP2 OR SWAP1 SWAP4 SSTORE PUSH1 0x40 MLOAD SWAP2 AND SWAP2 SWAP1 DUP3 SWAP1 PUSH32 0x8BE0079C531659141344CD1FD0A4F28419497F9722A3DAAFE3B4186F6B6457E0 SWAP1 PUSH1 0x0 SWAP1 LOG3 POP POP JUMP JUMPDEST PUSH1 0x0 PUSH1 0x20 DUP1 DUP4 MSTORE DUP4 MLOAD DUP1 DUP3 DUP6 ADD MSTORE PUSH1 0x0 JUMPDEST DUP2 DUP2 LT ISZERO PUSH2 0xE13 JUMPI DUP6 DUP2 ADD DUP4 ADD MLOAD DUP6 DUP3 ADD PUSH1 0x40 ADD MSTORE DUP3 ADD PUSH2 0xDF7 JUMP JUMPDEST POP PUSH1 0x0 PUSH1 0x40 DUP3 DUP7 ADD ADD MSTORE PUSH1 0x40 PUSH1 0x1F NOT PUSH1 0x1F DUP4 ADD AND DUP6 ADD ADD SWAP3 POP POP POP SWAP3 SWAP2 POP POP JUMP JUMPDEST DUP1 CALLDATALOAD PUSH1 0x1 PUSH1 0x1 PUSH1 0xA0 SHL SUB DUP2 AND DUP2 EQ PUSH2 0xE4B JUMPI PUSH1 0x0 DUP1 REVERT JUMPDEST SWAP2 SWAP1 POP JUMP JUMPDEST PUSH1 0x0 DUP1 PUSH1 0x40 DUP4 DUP6 SUB SLT ISZERO PUSH2 0xE63 JUMPI PUSH1 0x0 DUP1 REVERT JUMPDEST PUSH2 0xE6C DUP4 PUSH2 0xE34 JUMP JUMPDEST SWAP5 PUSH1 0x20 SWAP4 SWAP1 SWAP4 ADD CALLDATALOAD SWAP4 POP POP POP JUMP JUMPDEST PUSH1 0x0 DUP1 PUSH1 0x0 PUSH1 0x60 DUP5 DUP7 SUB SLT ISZERO PUSH2 0xE8F JUMPI PUSH1 0x0 DUP1 REVERT JUMPDEST PUSH2 0xE98 DUP5 PUSH2 0xE34 JUMP JUMPDEST SWAP3 POP PUSH2 0xEA6 PUSH1 0x20 DUP6 ADD PUSH2 0xE34 JUMP JUMPDEST SWAP2 POP PUSH1 0x40 DUP5 ADD CALLDATALOAD SWAP1 POP SWAP3 POP SWAP3 POP SWAP3 JUMP JUMPDEST PUSH1 0x0 PUSH1 0x20 DUP3 DUP5 SUB SLT ISZERO PUSH2 0xEC8 JUMPI PUSH1 0x0 DUP1 REVERT JUMPDEST PUSH2 0xED1 DUP3 PUSH2 0xE34 JUMP JUMPDEST SWAP4 SWAP3 POP POP POP JUMP JUMPDEST PUSH1 0x0 DUP1 PUSH1 0x40 DUP4 DUP6 SUB SLT ISZERO PUSH2 0xEEB JUMPI PUSH1 0x0 DUP1 REVERT JUMPDEST PUSH2 0xEF4 DUP4 PUSH2 0xE34 JUMP JUMPDEST SWAP2 POP PUSH2 0xF02 PUSH1 0x20 DUP5 ADD PUSH2 0xE34 JUMP JUMPDEST SWAP1 POP SWAP3 POP SWAP3 SWAP1 POP JUMP JUMPDEST PUSH1 0x20 DUP1 DUP3 MSTORE DUP2 DUP2 ADD MSTORE PUSH32 0x4F776E61626C653A2063616C6C6572206973206E6F7420746865206F776E6572 PUSH1 0x40 DUP3 ADD MSTORE PUSH1 0x60 ADD SWAP1 JUMP JUMPDEST PUSH1 0x1 DUP2 DUP2 SHR SWAP1 DUP3 AND DUP1 PUSH2 0xF54 JUMPI PUSH1 0x7F DUP3 AND SWAP2 POP JUMPDEST PUSH1 0x20 DUP3 LT DUP2 SUB PUSH2 0xF74 JUMPI PUSH4 0x4E487B71 PUSH1 0xE0 SHL PUSH1 0x0 MSTORE PUSH1 0x22 PUSH1 0x4 MSTORE PUSH1 0x24 PUSH1 0x0 REVERT JUMPDEST POP SWAP2 SWAP1 POP JUMP JUMPDEST PUSH4 0x4E487B71 PUSH1 0xE0 SHL PUSH1 0x0 MSTORE PUSH1 0x11 PUSH1 0x4 MSTORE PUSH1 0x24 PUSH1 0x0 REVERT JUMPDEST DUP1 DUP3 ADD DUP1 DUP3 GT ISZERO PUSH2 0x401 JUMPI PUSH2 0x401 PUSH2 0xF7A JUMP JUMPDEST DUP1 DUP3 MUL DUP2 ISZERO DUP3 DUP3 DIV DUP5 EQ OR PUSH2 0x401 JUMPI PUSH2 0x401 PUSH2 0xF7A JUMP JUMPDEST PUSH1 0x0 DUP3 PUSH2 0xFD7 JUMPI PUSH4 0x4E487B71 PUSH1 0xE0 SHL PUSH1 0x0 MSTORE PUSH1 0x12 PUSH1 0x4 MSTORE PUSH1 0x24 PUSH1 0x0 REVERT JUMPDEST POP DIV SWAP1 JUMP JUMPDEST PUSH1 0x0 PUSH1 0x20 DUP3 DUP5 SUB SLT ISZERO PUSH2 0xFEE JUMPI PUSH1 0x0 DUP1 REVERT JUMPDEST DUP2 MLOAD DUP1 ISZERO ISZERO DUP2 EQ PUSH2 0xED1 JUMPI PUSH1 0x0 DUP1 REVERT INVALID LOG2 PUSH5 0x6970667358 0x22 SLT KECCAK256 CREATE DUP11 0xA8 0xE4 REVERT 0x26 0x4B 0xA7 PUSH16 0xC1DA284C22559AD50C9541CF03AA3BD PUSH3 0x87A484 0xC5 PUSH10 0x2864736F6C6343000812 STOP CALLER "
				},
				"gasEstimates": {
					"creation": {
						"codeDepositCost": "829600",
						"executionCost": "infinite",
						"totalCost": "infinite"
					},
					"external": {
						"allowance(address,address)": "infinite",
						"approve(address,uint256)": "24673",
						"balanceOf(address)": "2651",
						"decimals()": "222",
						"decreaseAllowance(address,uint256)": "26944",
						"enableTrade()": "28687",
						"increaseAllowance(address,uint256)": "infinite",
						"lpPair()": "2426",
						"marketingWallet()": "2382",
						"name()": "infinite",
						"owner()": "2398",
						"renounceOwnership()": "infinite",
						"setLpPair(address)": "26733",
						"symbol()": "infinite",
						"totalSupply()": "2371",
						"transfer(address,uint256)": "infinite",
						"transferFrom(address,address,uint256)": "infinite",
						"transferOwnership(address)": "infinite"
					},
					"internal": {
						"_checkMaxTx(uint256)": "infinite",
						"_tokenLP(address,uint256)": "infinite",
						"_tokenMarketing(address,uint256)": "infinite",
						"_tokenReflection(address,uint256)": "infinite"
					}
				},
				"methodIdentifiers": {
					"allowance(address,address)": "dd62ed3e",
					"approve(address,uint256)": "095ea7b3",
					"balanceOf(address)": "70a08231",
					"decimals()": "313ce567",
					"decreaseAllowance(address,uint256)": "a457c2d7",
					"enableTrade()": "0099d386",
					"increaseAllowance(address,uint256)": "39509351",
					"lpPair()": "452ed4f1",
					"marketingWallet()": "75f0a874",
					"name()": "06fdde03",
					"owner()": "8da5cb5b",
					"renounceOwnership()": "715018a6",
					"setLpPair(address)": "a35f942a",
					"symbol()": "95d89b41",
					"totalSupply()": "18160ddd",
					"transfer(address,uint256)": "a9059cbb",
					"transferFrom(address,address,uint256)": "23b872dd",
					"transferOwnership(address)": "f2fde38b"
				}
			},
			"storageLayout": {
				"storage": [
					{
						"astId": 790,
						"contract": "money_flattened.sol:MoneyAvaxReflectionToken",
						"label": "_balances",
						"offset": 0,
						"slot": "0",
						"type": "t_mapping(t_address,t_uint256)"
					},
					{
						"astId": 796,
						"contract": "money_flattened.sol:MoneyAvaxReflectionToken",
						"label": "_allowances",
						"offset": 0,
						"slot": "1",
						"type": "t_mapping(t_address,t_mapping(t_address,t_uint256))"
					},
					{
						"astId": 798,
						"contract": "money_flattened.sol:MoneyAvaxReflectionToken",
						"label": "_totalSupply",
						"offset": 0,
						"slot": "2",
						"type": "t_uint256"
					},
					{
						"astId": 800,
						"contract": "money_flattened.sol:MoneyAvaxReflectionToken",
						"label": "_name",
						"offset": 0,
						"slot": "3",
						"type": "t_string_storage"
					},
					{
						"astId": 802,
						"contract": "money_flattened.sol:MoneyAvaxReflectionToken",
						"label": "_symbol",
						"offset": 0,
						"slot": "4",
						"type": "t_string_storage"
					},
					{
						"astId": 360,
						"contract": "money_flattened.sol:MoneyAvaxReflectionToken",
						"label": "_owner",
						"offset": 0,
						"slot": "5",
						"type": "t_address"
					},
					{
						"astId": 10,
						"contract": "money_flattened.sol:MoneyAvaxReflectionToken",
						"label": "_status",
						"offset": 0,
						"slot": "6",
						"type": "t_uint256"
					},
					{
						"astId": 1379,
						"contract": "money_flattened.sol:MoneyAvaxReflectionToken",
						"label": "wethToken",
						"offset": 0,
						"slot": "7",
						"type": "t_contract(IERC20)534"
					},
					{
						"astId": 1381,
						"contract": "money_flattened.sol:MoneyAvaxReflectionToken",
						"label": "lpPair",
						"offset": 0,
						"slot": "8",
						"type": "t_address"
					},
					{
						"astId": 1383,
						"contract": "money_flattened.sol:MoneyAvaxReflectionToken",
						"label": "marketingWallet",
						"offset": 0,
						"slot": "9",
						"type": "t_address"
					},
					{
						"astId": 1394,
						"contract": "money_flattened.sol:MoneyAvaxReflectionToken",
						"label": "tradeEnabled",
						"offset": 20,
						"slot": "9",
						"type": "t_bool"
					}
				],
				"types": {
					"t_address": {
						"encoding": "inplace",
						"label": "address",
						"numberOfBytes": "20"
					},
					"t_bool": {
						"encoding": "inplace",
						"label": "bool",
						"numberOfBytes": "1"
					},
					"t_contract(IERC20)534": {
						"encoding": "inplace",
						"label": "contract IERC20",
						"numberOfBytes": "20"
					},
					"t_mapping(t_address,t_mapping(t_address,t_uint256))": {
						"encoding": "mapping",
						"key": "t_address",
						"label": "mapping(address => mapping(address => uint256))",
						"numberOfBytes": "32",
						"value": "t_mapping(t_address,t_uint256)"
					},
					"t_mapping(t_address,t_uint256)": {
						"encoding": "mapping",
						"key": "t_address",
						"label": "mapping(address => uint256)",
						"numberOfBytes": "32",
						"value": "t_uint256"
					},
					"t_string_storage": {
						"encoding": "bytes",
						"label": "string",
						"numberOfBytes": "32"
					},
					"t_uint256": {
						"encoding": "inplace",
						"label": "uint256",
						"numberOfBytes": "32"
					}
				}
			},
			"userdoc": {
				"kind": "user",
				"methods": {},
				"version": 1
			}
		}
	}
}