{
	"data": {
		"bytecode": {
			"linkReferences": {},
			"object": "6101206040526005805473496af7721811482f18d5f92c07718572b3dd309d6001600160a01b0319909116179055600a6006819055601e600755601460088190556009819055808255600b819055600c819055600d819055600e829055600f8290556200009791906200008390818181858262000538602090811b620019b917901c565b6200053860201b620019b91790919060201c565b601055620000cd600f5462000083600d5462000083600b54620000836009546007546200053860201b620019b91790919060201c565b601155620000de6012600a620006c8565b620000ee90633b9aca00620006dd565b60a0526207a1206018556064601955601a805461ffff191690553480156200011557600080fd5b5060405180604001604052806007815260200166414e554e414b4960c81b81525060405180604001604052806003815260200162414e5560e81b815250601282600090816200016591906200079c565b5060016200017483826200079c565b506002805460ff929092166001600160a81b0319909216919091176101003302179055505073581fa0ee5a68a1fe7c8ad1eb2bfdd9cf66d3d92360808190526040805163c45a015560e01b8152905163c45a0155916004808201926020929091908290030181865afa158015620001ef573d6000803e3d6000fd5b505050506040513d601f19601f8201168201806040525081019062000215919062000868565b6001600160a01b031663c9c653966080516001600160a01b031663ad5c46486040518163ffffffff1660e01b8152600401602060405180830381865afa15801562000264573d6000803e3d6000fd5b505050506040513d601f19601f820116820180604052508101906200028a919062000868565b6040516001600160e01b031960e084901b1681526001600160a01b0390911660048201523060248201526044016020604051808303816000875af1158015620002d7573d6000803e3d6000fd5b505050506040513d601f19601f82011682018060405250810190620002fd919062000868565b6001600160a01b0316610100819052601680547376c84ddad3d381e748bf958b8b2fcbf050e4ed696001600160a01b0319918216811790925560158054821690921790915560038054909116909117905560405173581fa0ee5a68a1fe7c8ad1eb2bfdd9cf66d3d923906200037290620005a7565b6001600160a01b039091168152602001604051809103906000f0801580156200039f573d6000803e3d6000fd5b506001600160a01b0390811660c081905260e052336000908152601b60205260408082208054600160ff1991821681179092556101005185168452828420805482168317905530845282842080548216831790557f6790d4910a095e0e04c8daa388834616a295bac3f59038957b6d0b93a2d2168480548216831790557f584f46c60af19681376031579adb04a2416e54ee5505351c2a8435e3766026ea80548216831790556015549094168352912080549092161790554260125560a0516064906200046e906002620006dd565b6200047a919062000893565b60135560a05160649062000490906001620006dd565b6200049c919062000893565b6014556015546001600160a01b031660009081526004602090815260408083208054600160ff1991821681179092553085528285208054821683179055338086528386208054909216909217905560a051915191825292917fddf252ad1be2c89b69c2b068fc378daa952ba7f163c4a11628f55a4df523b3ef910160405180910390a360a051336000908152601d6020526040902055620008cc565b600080620005478385620008b6565b9050838110156200059e5760405162461bcd60e51b815260206004820152601b60248201527f536166654d6174683a206164646974696f6e206f766572666c6f770000000000604482015260640160405180910390fd5b90505b92915050565b61152a80620036a683390190565b634e487b7160e01b600052601160045260246000fd5b600181815b808511156200060c578160001904821115620005f057620005f0620005b5565b80851615620005fe57918102915b93841c9390800290620005d0565b509250929050565b6000826200062557506001620005a1565b816200063457506000620005a1565b81600181146200064d5760028114620006585762000678565b6001915050620005a1565b60ff8411156200066c576200066c620005b5565b50506001821b620005a1565b5060208310610133831016604e8410600b84101617156200069d575081810a620005a1565b620006a98383620005cb565b8060001904821115620006c057620006c0620005b5565b029392505050565b6000620006d6838362000614565b9392505050565b8082028115828204841417620005a157620005a1620005b5565b634e487b7160e01b600052604160045260246000fd5b600181811c908216806200072257607f821691505b6020821081036200074357634e487b7160e01b600052602260045260246000fd5b50919050565b601f8211156200079757600081815260208120601f850160051c81016020861015620007725750805b601f850160051c820191505b8181101562000793578281556001016200077e565b5050505b505050565b81516001600160401b03811115620007b857620007b8620006f7565b620007d081620007c984546200070d565b8462000749565b602080601f831160018114620008085760008415620007ef5750858301515b600019600386901b1c1916600185901b17855562000793565b600085815260208120601f198616915b82811015620008395788860151825594840194600190910190840162000818565b5085821015620008585787850151600019600388901b60f8161c191681555b5050505050600190811b01905550565b6000602082840312156200087b57600080fd5b81516001600160a01b03811681146200059e57600080fd5b600082620008b157634e487b7160e01b600052601260045260246000fd5b500490565b80820180821115620005a157620005a1620005b5565b60805160a05160c05160e05161010051612d096200099d600039600081816108f80152818161187901528181611a560152818161208d015281816126530152818161268e015261272801526000610a3b015260008181610c5901528181610e5a015281816114140152818161190a0152818161193b01528181611cff01528181611dc701528181611e8a01526123aa0152600081816104a901528181610596015261128a015260008181610b4e0152818161215c015281816121e30152818161229b015261243a0152612d096000f3fe6080604052600436106103a65760003560e01c806384ec884f116101e7578063acb7f0f11161010d578063ce25a738116100a0578063f51d72e91161006f578063f51d72e914610afc578063f708a64f14610b1c578063f887ea4014610b3c578063f8b45b0514610b7057600080fd5b8063ce25a73814610a29578063d439979014610a5d578063dd62ed3e14610a96578063f2fde38b14610adc57600080fd5b8063ca3202c9116100dc578063ca3202c9146109c7578063cb39c7f0146109dd578063ccb61358146109f3578063cdadc8c714610a0957600080fd5b8063acb7f0f114610966578063aefde9f21461097b578063c1cf53c414610991578063c3f70b52146109b157600080fd5b80639d1944f511610185578063a8aa1b3111610154578063a8aa1b31146108e6578063a9059cbb1461091a578063a94640611461093a578063ac3a5ee31461095057600080fd5b80639d1944f5146108705780639d9241ec14610890578063a457c2d7146108a6578063a4b45c00146108c657600080fd5b80638aee8127116101c15780638aee8127146107f25780638da5cb5b146108125780638f32d59b1461083557806395d89b411461085b57600080fd5b806384ec884f1461079c578063854cff2f146107bc5780638933d8ec146107dc57600080fd5b806340c637d3116102cc5780635821d4a01161026a578063715018a611610239578063715018a6146107385780637571a0fa1461074d5780637e164cff1461076357806383b4ac681461078357600080fd5b80635821d4a0146106b657806359b107b9146106cc5780635d0044ca146106e257806370a082311461070257600080fd5b80634707d000116102a65780634707d0001461064057806347a28b79146106605780634a7e73d3146106805780634d709adf1461069657600080fd5b806340c637d3146105b85780634355855a146105f0578063441b1d301461062057600080fd5b806318160ddd116103445780632f34d282116103135780632f34d28214610522578063313ce5671461054257806339509351146105645780633eaaf86b1461058457600080fd5b806318160ddd1461049a57806323b872dd146104cd5780632d48e896146104ed5780632e0f26251461050d57600080fd5b8063095ea7b311610380578063095ea7b31461041f578063099d0d301461044f57806309afb3ce14610465578063180b0d7e1461048457600080fd5b80630345e353146103b257806306fdde03146103db5780630710fb45146103fd57600080fd5b366103ad57005b600080fd5b3480156103be57600080fd5b506103c860125481565b6040519081526020015b60405180910390f35b3480156103e757600080fd5b506103f0610b86565b6040516103d29190612944565b34801561040957600080fd5b5061041d6104183660046129a7565b610c18565b005b34801561042b57600080fd5b5061043f61043a3660046129c4565b610cdb565b60405190151581526020016103d2565b34801561045b57600080fd5b506103c8600f5481565b34801561047157600080fd5b50601a5461043f90610100900460ff1681565b34801561049057600080fd5b506103c86103e881565b3480156104a657600080fd5b507f00000000000000000000000000000000000000000000000000000000000000006103c8565b3480156104d957600080fd5b5061043f6104e83660046129f0565b610d48565b3480156104f957600080fd5b5061041d610508366004612a31565b610e1b565b34801561051957600080fd5b506103c8601281565b34801561052e57600080fd5b5061041d61053d3660046129a7565b610ec3565b34801561054e57600080fd5b5060025460405160ff90911681526020016103d2565b34801561057057600080fd5b5061043f61057f3660046129c4565b610f07565b34801561059057600080fd5b506103c87f000000000000000000000000000000000000000000000000000000000000000081565b3480156105c457600080fd5b506016546105d8906001600160a01b031681565b6040516001600160a01b0390911681526020016103d2565b3480156105fc57600080fd5b5061043f61060b3660046129a7565b601b6020526000908152604090205460ff1681565b34801561062c57600080fd5b5061041d61063b366004612a53565b610f8c565b34801561064c57600080fd5b5061043f61065b366004612a6c565b610fdf565b34801561066c57600080fd5b5061041d61067b366004612aa5565b6110ed565b34801561068c57600080fd5b506103c860075481565b3480156106a257600080fd5b506003546105d8906001600160a01b031681565b3480156106c257600080fd5b506103c860065481565b3480156106d857600080fd5b506103c860105481565b3480156106ee57600080fd5b5061041d6106fd366004612a53565b6111f1565b34801561070e57600080fd5b506103c861071d3660046129a7565b6001600160a01b03166000908152601d602052604090205490565b34801561074457600080fd5b5061041d6112bf565b34801561075957600080fd5b506103c8600d5481565b34801561076f57600080fd5b506005546105d8906001600160a01b031681565b34801561078f57600080fd5b50601a5460ff161561043f565b3480156107a857600080fd5b5061041d6107b7366004612a53565b611330565b3480156107c857600080fd5b5061041d6107d73660046129a7565b61138d565b3480156107e857600080fd5b506103c8600c5481565b3480156107fe57600080fd5b5061041d61080d3660046129a7565b6113d3565b34801561081e57600080fd5b5060025461010090046001600160a01b03166105d8565b34801561084157600080fd5b5061043f60025461010090046001600160a01b0316331490565b34801561086757600080fd5b506103f0611493565b34801561087c57600080fd5b5061041d61088b366004612a53565b6114a2565b34801561089c57600080fd5b506103c860115481565b3480156108b257600080fd5b5061043f6108c13660046129c4565b61151b565b3480156108d257600080fd5b5061041d6108e1366004612a6c565b611602565b3480156108f257600080fd5b506105d87f000000000000000000000000000000000000000000000000000000000000000081565b34801561092657600080fd5b5061043f6109353660046129c4565b611692565b34801561094657600080fd5b506103c8600b5481565b34801561095c57600080fd5b506103c860095481565b34801561097257600080fd5b5061041d6116a9565b34801561098757600080fd5b506103c860085481565b34801561099d57600080fd5b5061041d6109ac366004612aa5565b611724565b3480156109bd57600080fd5b506103c860145481565b3480156109d357600080fd5b506103c8600a5481565b3480156109e957600080fd5b506103c860195481565b3480156109ff57600080fd5b506103c8600e5481565b348015610a1557600080fd5b506017546105d8906001600160a01b031681565b348015610a3557600080fd5b506105d87f000000000000000000000000000000000000000000000000000000000000000081565b348015610a6957600080fd5b5061043f610a783660046129a7565b6001600160a01b031660009081526004602052604090205460ff1690565b348015610aa257600080fd5b506103c8610ab1366004612a6c565b6001600160a01b039182166000908152601c6020908152604080832093909416825291909152205490565b348015610ae857600080fd5b5061041d610af73660046129a7565b611813565b348015610b0857600080fd5b506015546105d8906001600160a01b031681565b348015610b2857600080fd5b5061041d610b37366004612aee565b611841565b348015610b4857600080fd5b506105d87f000000000000000000000000000000000000000000000000000000000000000081565b348015610b7c57600080fd5b506103c860135481565b606060008054610b9590612b1c565b80601f0160208091040260200160405190810160405280929190818152602001828054610bc190612b1c565b8015610c0e5780601f10610be357610100808354040283529160200191610c0e565b820191906000526020600020905b815481529060010190602001808311610bf157829003601f168201915b5050505050905090565b610c3160025461010090046001600160a01b0316331490565b610c3a57600080fd5b604051630710fb4560e01b81526001600160a01b0382811660048301527f00000000000000000000000000000000000000000000000000000000000000001690630710fb4590602401600060405180830381600087803b158015610c9d57600080fd5b505af1158015610cb1573d6000803e3d6000fd5b5050506001600160a01b039091166000908152600460205260409020805460ff1916600117905550565b336000818152601c602090815260408083206001600160a01b038716808552925280832085905551919290917f8c5be1e5ebec7d5bd14f71427d1e84f3dd0314c0f7b2291e5b200ac8c7c3b92590610d369086815260200190565b60405180910390a35060015b92915050565b6001600160a01b0383166000908152601c602090815260408083203384529091528120546fffffffffffffffffffffffffffffffff14610e03576040805180820182526016815275496e73756666696369656e7420416c6c6f77616e636560501b6020808301919091526001600160a01b0387166000908152601c82528381203382529091529190912054610dde918490611a18565b6001600160a01b0385166000908152601c602090815260408083203384529091529020555b610e0e848484611a52565b50600190505b9392505050565b610e3460025461010090046001600160a01b0316331490565b610e3d57600080fd5b6040516316a4744b60e11b815260048101839052602481018290527f00000000000000000000000000000000000000000000000000000000000000006001600160a01b031690632d48e896906044015b600060405180830381600087803b158015610ea757600080fd5b505af1158015610ebb573d6000803e3d6000fd5b505050505050565b610edc60025461010090046001600160a01b0316331490565b610ee557600080fd5b600380546001600160a01b0319166001600160a01b0392909216919091179055565b336000908152601c602090815260408083206001600160a01b0386168452909152812054610f3590836119b9565b336000818152601c602090815260408083206001600160a01b038916808552908352928190208590555193845290927f8c5be1e5ebec7d5bd14f71427d1e84f3dd0314c0f7b2291e5b200ac8c7c3b9259101610d36565b610fa560025461010090046001600160a01b0316331490565b610fae57600080fd5b604051339082156108fc029083906000818181858888f19350505050158015610fdb573d6000803e3d6000fd5b5050565b6000610ffa60025461010090046001600160a01b0316331490565b61100357600080fd5b6040516370a0823160e01b81523060048201526000906001600160a01b038516906370a0823190602401602060405180830381865afa15801561104a573d6000803e3d6000fd5b505050506040513d601f19601f8201168201806040525081019061106e9190612b56565b60405163a9059cbb60e01b81526001600160a01b038581166004830152602482018390529192509085169063a9059cbb906044016020604051808303816000875af11580156110c1573d6000803e3d6000fd5b505050506040513d601f19601f820116820180604052508101906110e59190612b6f565b949350505050565b61110660025461010090046001600160a01b0316331490565b61110f57600080fd5b600e8590556008839055600a849055600c82905560068190556111408161113a848188818b8a6119b9565b906119b9565b601081905560fa101561119a5760405162461bcd60e51b815260206004820152601d60248201527f4d757374206b656570206665657320617420323525206f72206c65737300000060448201526064015b60405180910390fd5b604080518681526020810185905290810185905260608101839052608081018290527f1385f2c2c567967bc821bdf21935668a3c71ef526d329ed34bba1d574333b7ad9060a0015b60405180910390a15050505050565b61120a60025461010090046001600160a01b0316331490565b61121357600080fd5b60018110156112825760405162461bcd60e51b815260206004820152603560248201527f4d61782077616c6c6574206d7573742062652067726561746572207468616e20604482015274302e303125206f6620546f74616c20537570706c7960581b6064820152608401611191565b6127106112af7f000000000000000000000000000000000000000000000000000000000000000083612ba2565b6112b99190612bb9565b60135550565b6112d860025461010090046001600160a01b0316331490565b6112e157600080fd5b6002546040516101009091046001600160a01b0316907ff8df31144d9c2f0f6b59d69b8b98abd5459d07f2742c4df920b25aae33c6482090600090a260028054610100600160a81b0319169055565b61134960025461010090046001600160a01b0316331490565b61135257600080fd5b60198190556040518181527f724662b0107aa55ae3d489082ef31ea9f1ca77f7300160c5355db1b279dc387f9060200160405180910390a150565b6113a660025461010090046001600160a01b0316331490565b6113af57600080fd5b6001600160a01b03166000908152600460205260409020805460ff19166001179055565b6113ec60025461010090046001600160a01b0316331490565b6113f557600080fd5b604051638aee812760e01b81526001600160a01b0382811660048301527f00000000000000000000000000000000000000000000000000000000000000001690638aee812790602401600060405180830381600087803b15801561145857600080fd5b505af115801561146c573d6000803e3d6000fd5b5050600580546001600160a01b0319166001600160a01b0394909416939093179092555050565b606060018054610b9590612b1c565b6114bb60025461010090046001600160a01b0316331490565b6114c457600080fd5b620b71b081106115165760405162461bcd60e51b815260206004820152601d60248201527f476173206d757374206265206c6f776572207468616e203735303030300000006044820152606401611191565b601855565b336000908152601c602090815260408083206001600160a01b038616845290915281205480831061156f57336000908152601c602090815260408083206001600160a01b038816845290915281205561159e565b6115798184611f40565b336000908152601c602090815260408083206001600160a01b03891684529091529020555b336000818152601c602090815260408083206001600160a01b038916808552908352928190205490519081529192917f8c5be1e5ebec7d5bd14f71427d1e84f3dd0314c0f7b2291e5b200ac8c7c3b925910160405180910390a35060019392505050565b61161b60025461010090046001600160a01b0316331490565b61162457600080fd5b601580546001600160a01b038481166001600160a01b03199283168117909355601680549185169190921681179091556040805192835260208301919091527f71aa1fc168f4b314943f7510c82f58650f0fcdf4ec4bb48f62cf4d7ad0aeed35910160405180910390a15050565b600061169f338484611a52565b5060019392505050565b6116c260025461010090046001600160a01b0316331490565b6116cb57600080fd5b601a805461ff00191661010090811791829055426012556040517fb9bbb15e341600c8d067a0cadeba219905d5ba6d422b193c9c32265d26fc51c89261171a92900460ff161515815260200190565b60405180910390a1565b61173d60025461010090046001600160a01b0316331490565b61174657600080fd5b600f8590556009839055600b849055600d82905560078190556117718161113a848188818b8a6119b9565b60105560115460fa10156117c75760405162461bcd60e51b815260206004820152601d60248201527f4d757374206b656570206665657320617420323525206f72206c6573730000006044820152606401611191565b604080518681526020810185905290810185905260608101839052608081018290527ffdd7c66a68b70fa92b44bc177e5154fe4ae8a19e8fc2920396a5ea2db9a783329060a0016111e2565b61182c60025461010090046001600160a01b0316331490565b61183557600080fd5b61183e81611f82565b50565b61185a60025461010090046001600160a01b0316331490565b61186357600080fd5b6001600160a01b03821630148015906118ae57507f00000000000000000000000000000000000000000000000000000000000000006001600160a01b0316826001600160a01b031614155b6118b757600080fd5b6001600160a01b0382166000908152601b60205260409020805460ff1916821580159190911790915561193957604051630a5b654b60e11b81526001600160a01b038381166004830152600060248301527f000000000000000000000000000000000000000000000000000000000000000016906314b6ca9690604401610e8d565b7f00000000000000000000000000000000000000000000000000000000000000006001600160a01b03166314b6ca9683611988856001600160a01b03166000908152601d602052604090205490565b6040516001600160e01b031960e085901b1681526001600160a01b0390921660048301526024820152604401610e8d565b6000806119c68385612bdb565b905083811015610e145760405162461bcd60e51b815260206004820152601b60248201527f536166654d6174683a206164646974696f6e206f766572666c6f7700000000006044820152606401611191565b60008184841115611a3c5760405162461bcd60e51b81526004016111919190612944565b506000611a498486612bee565b95945050505050565b60007f00000000000000000000000000000000000000000000000000000000000000006001600160a01b0316836001600160a01b031614611b33576001600160a01b03831660009081526004602052604090205460ff16611b33576013546001600160a01b0384166000908152601d6020526040902054611ad4908490612bdb565b1115611b335760405162461bcd60e51b815260206004820152602860248201527f7472616e73616374696f6e20776f756c6420657863656564206d61782077616c6044820152676c65742073697a6560c01b6064820152608401611191565b6001600160a01b03841660009081526004602052604090205460ff16611bbd57601454821115611bbd5760405162461bcd60e51b815260206004820152602f60248201527f5472616e73616374696f6e20776f756c6420657863656564206d61782074726160448201526e1b9cd858dd1a5bdb88185b5bdd5b9d608a1b6064820152608401611191565b601a54610100900460ff16611c14576001600160a01b03841660009081526004602052604090205460ff1680611c0b57506001600160a01b03831660009081526004602052604090205460ff165b611c1457600080fd5b601a5460ff1615611c3157611c2a848484611ffc565b9050610e14565b611c39612071565b15611c4657611c466120b5565b6001600160a01b0384166000908152601d6020526040902054611c699083611f40565b6001600160a01b0385166000908152601d6020526040812091909155611c8f8585612645565b611c995782611ca4565b611ca4858585612704565b6001600160a01b0385166000908152601d6020526040902054909150611cca90826119b9565b6001600160a01b038086166000908152601d60209081526040808320949094559188168152601b909152205460ff16611da5577f00000000000000000000000000000000000000000000000000000000000000006001600160a01b03166314b6ca9686611d4c886001600160a01b03166000908152601d602052604090205490565b6040516001600160e01b031960e085901b1681526001600160a01b0390921660048301526024820152604401600060405180830381600087803b158015611d9257600080fd5b505af1925050508015611da3575060015b505b6001600160a01b0384166000908152601b602052604090205460ff16611e6d577f00000000000000000000000000000000000000000000000000000000000000006001600160a01b03166314b6ca9685611e14876001600160a01b03166000908152601d602052604090205490565b6040516001600160e01b031960e085901b1681526001600160a01b0390921660048301526024820152604401600060405180830381600087803b158015611e5a57600080fd5b505af1925050508015611e6b575060015b505b6018546040516001624d3b8760e01b0319815260048101919091527f00000000000000000000000000000000000000000000000000000000000000006001600160a01b03169063ffb2c47990602401600060405180830381600087803b158015611ed657600080fd5b505af1925050508015611ee7575060015b50836001600160a01b0316856001600160a01b03167fddf252ad1be2c89b69c2b068fc378daa952ba7f163c4a11628f55a4df523b3ef83604051611f2d91815260200190565b60405180910390a3506001949350505050565b6000610e1483836040518060400160405280601e81526020017f536166654d6174683a207375627472616374696f6e206f766572666c6f770000815250611a18565b6001600160a01b038116611f9557600080fd5b6002546040516001600160a01b0380841692610100900416907f8be0079c531659141344cd1fd0a4f28419497f9722a3daafe3b4186f6b6457e090600090a3600280546001600160a01b0390921661010002610100600160a81b0319909216919091179055565b6001600160a01b0383166000908152601d602052604081205461201f9083611f40565b6001600160a01b038086166000908152601d6020526040808220939093559085168152205461204e90836119b9565b6001600160a01b0384166000908152601d60205260409020555060019392505050565b601a5460009060ff161580156120b05750336001600160a01b037f00000000000000000000000000000000000000000000000000000000000000001614155b905090565b601a805460ff191660011790556010546011546000916120d591906119b9565b9050806000036120e3575060015b306000908152601d60205260408120549050600061212760026121218561212161211a600f54600e546119b990919063ffffffff16565b8790612857565b906128d9565b905060006121358383611f40565b9050806000036121485750505050612639565b306000908152601c602090815260408083207f00000000000000000000000000000000000000000000000000000000000000006001600160a01b0316845282528083208490558051600280825260608201835290929091908301908036833701905050905030816000815181106121c1576121c1612c01565b60200260200101906001600160a01b031690816001600160a01b0316815250507f00000000000000000000000000000000000000000000000000000000000000006001600160a01b031663ad5c46486040518163ffffffff1660e01b8152600401602060405180830381865afa15801561223f573d6000803e3d6000fd5b505050506040513d601f19601f820116820180604052508101906122639190612c17565b8160018151811061227657612276612c01565b6001600160a01b03928316602091820292909201015260405163791ac94760e01b81527f00000000000000000000000000000000000000000000000000000000000000009091169063791ac947906122db908590600090869030904290600401612c34565b600060405180830381600087803b1580156122f557600080fd5b505af1925050508015612306575060015b506000479050600061233160026121218961212161211a600f54600e546119b990919063ffffffff16565b9050600061235a88612121612353600d54600c546119b990919063ffffffff16565b8690612857565b905060006123888961212161211a600b5461113a600b5461113a6009546008546119b990919063ffffffff16565b905060006123a461239d8361113a87876119b9565b8690611f40565b905060007f00000000000000000000000000000000000000000000000000000000000000006001600160a01b031663d0e30db0846040518263ffffffff1660e01b81526004016000604051808303818588803b15801561240357600080fd5b505af193505050508015612415575060015b1561241e575060015b306000818152601c602090815260408083206001600160a01b037f00000000000000000000000000000000000000000000000000000000000000008116808652919093528184208e9055601554915163f305d71960e01b81526004810195909552602485018e90526044850184905260648501939093521660848301524260a48301529063f305d71990879060c40160606040518083038185885af1935050505080156124e8575060408051601f3d908101601f191682019092526124e591810190612ca5565b60015b156124f1575050505b6015546040516000916001600160a01b03169084908381818185875af1925050503d806000811461253e576040519150601f19603f3d011682016040523d82523d6000602084013e612543565b606091505b505090508061258e5760405162461bcd60e51b8152602060048201526017602482015276155d1a5b1a5d1e481d1c985b9cd9995c8819985a5b1959604a1b6044820152606401611191565b6016546040516000916001600160a01b03169087908381818185875af1925050503d80600081146125db576040519150601f19603f3d011682016040523d82523d6000602084013e6125e0565b606091505b505090508061262b5760405162461bcd60e51b8152602060048201526017602482015276155d1a5b1a5d1e481d1c985b9cd9995c8819985a5b1959604a1b6044820152606401611191565b505050505050505050505050505b601a805460ff19169055565b6000826001600160a01b03167f00000000000000000000000000000000000000000000000000000000000000006001600160a01b031614806126b85750816001600160a01b03167f00000000000000000000000000000000000000000000000000000000000000006001600160a01b0316145b8015610e1457506001600160a01b03831660009081526004602052604090205460ff161580610e145750506001600160a01b031660009081526004602052604090205460ff1615919050565b601054600854600a54600c54600e5460065460009594939291906001600160a01b037f00000000000000000000000000000000000000000000000000000000000000008116908a16036127705760115495506009549450600b549350600d549250600f54915060075490505b60006127826103e86121218b8a612857565b6001600160a01b038c1660009081526004602052604090205490915060ff16806127c457506001600160a01b038a1660009081526004602052604090205460ff165b156127cd575060005b306000908152601d60205260409020546127e790826119b9565b306000908152601d6020526040902055801561283e5760405181815230906001600160a01b038d16907fddf252ad1be2c89b69c2b068fc378daa952ba7f163c4a11628f55a4df523b3ef9060200160405180910390a35b6128488982611f40565b9b9a5050505050505050505050565b60008260000361286957506000610d42565b60006128758385612ba2565b9050826128828583612bb9565b14610e145760405162461bcd60e51b815260206004820152602160248201527f536166654d6174683a206d756c7469706c69636174696f6e206f766572666c6f6044820152607760f81b6064820152608401611191565b6000610e1483836040518060400160405280601a81526020017f536166654d6174683a206469766973696f6e206279207a65726f000000000000815250600081836129375760405162461bcd60e51b81526004016111919190612944565b506000611a498486612bb9565b600060208083528351808285015260005b8181101561297157858101830151858201604001528201612955565b506000604082860101526040601f19601f8301168501019250505092915050565b6001600160a01b038116811461183e57600080fd5b6000602082840312156129b957600080fd5b8135610e1481612992565b600080604083850312156129d757600080fd5b82356129e281612992565b946020939093013593505050565b600080600060608486031215612a0557600080fd5b8335612a1081612992565b92506020840135612a2081612992565b929592945050506040919091013590565b60008060408385031215612a4457600080fd5b50508035926020909101359150565b600060208284031215612a6557600080fd5b5035919050565b60008060408385031215612a7f57600080fd5b8235612a8a81612992565b91506020830135612a9a81612992565b809150509250929050565b600080600080600060a08688031215612abd57600080fd5b505083359560208501359550604085013594606081013594506080013592509050565b801515811461183e57600080fd5b60008060408385031215612b0157600080fd5b8235612b0c81612992565b91506020830135612a9a81612ae0565b600181811c90821680612b3057607f821691505b602082108103612b5057634e487b7160e01b600052602260045260246000fd5b50919050565b600060208284031215612b6857600080fd5b5051919050565b600060208284031215612b8157600080fd5b8151610e1481612ae0565b634e487b7160e01b600052601160045260246000fd5b8082028115828204841417610d4257610d42612b8c565b600082612bd657634e487b7160e01b600052601260045260246000fd5b500490565b80820180821115610d4257610d42612b8c565b81810381811115610d4257610d42612b8c565b634e487b7160e01b600052603260045260246000fd5b600060208284031215612c2957600080fd5b8151610e1481612992565b600060a082018783526020878185015260a0604085015281875180845260c086019150828901935060005b81811015612c845784516001600160a01b031683529383019391830191600101612c5f565b50506001600160a01b03969096166060850152505050608001529392505050565b600080600060608486031215612cba57600080fd5b835192506020840151915060408401519050925092509256fea2646970667358221220df8778ef56dc8045bdeb403a3e6459c233e498bad06acdeb0535006ef211429d64736f6c634300081200336080604052600180546001600160a01b03191673496af7721811482f18d5f92c07718572b3dd309d179055603c601055670de0b6b3a7640000601155606460125534801561004c57600080fd5b5060405161152a38038061152a83398101604081905261006b916100c5565b6001600160a01b0381166100935773581fa0ee5a68a1fe7c8ad1eb2bfdd9cf66d3d923610095565b805b600280546001600160a01b03929092166001600160a01b03199283161790556000805490911633179055506100f5565b6000602082840312156100d757600080fd5b81516001600160a01b03811681146100ee57600080fd5b9392505050565b611426806101046000396000f3fe6080604052600436106101855760003560e01c80638aee8127116100d1578063e2d2e2191161008a578063f0fc6bca11610064578063f0fc6bca14610462578063f9d20e2214610477578063ffb2c47914610495578063ffd49c84146104b557600080fd5b8063e2d2e21914610416578063ecd0c0c31461042c578063efca2eed1461044c57600080fd5b80638aee812714610325578063997664d714610345578063be8cbee21461035b578063cb39c7f01461037b578063ce7c2ac214610391578063d0e30db01461040e57600080fd5b806328fd31981161013e5780634fab0ae8116101185780634fab0ae8146102a15780636c898a8f146102b75780637e164cff146102cd57806384ec884f1461030557600080fd5b806328fd31981461024b5780632d48e8961461026b5780633a98ef391461028b57600080fd5b80630710fb451461019157806311ce023d146101b35780631416bce1146101e957806314b6ca96146101ff5780631c882e3e1461021f57806326987b601461023557600080fd5b3661018c57005b600080fd5b34801561019d57600080fd5b506101b16101ac3660046111a2565b6104cb565b005b3480156101bf57600080fd5b506101d66ec097ce7bc90715b34b9f100000000081565b6040519081526020015b60405180910390f35b3480156101f557600080fd5b506101d6600d5481565b34801561020b57600080fd5b506101b161021a3660046111bf565b610504565b34801561022b57600080fd5b506101d6600e5481565b34801561024157600080fd5b506101d6600f5481565b34801561025757600080fd5b506101d66102663660046111a2565b6106b3565b34801561027757600080fd5b506101b16102863660046111eb565b61073e565b34801561029757600080fd5b506101d660085481565b3480156102ad57600080fd5b506101d660115481565b3480156102c357600080fd5b506101d6600c5481565b3480156102d957600080fd5b506001546102ed906001600160a01b031681565b6040516001600160a01b0390911681526020016101e0565b34801561031157600080fd5b506101b161032036600461120d565b610760565b34801561033157600080fd5b506101b16103403660046111a2565b61077c565b34801561035157600080fd5b506101d660095481565b34801561036757600080fd5b506101d66103763660046111a2565b6107b5565b34801561038757600080fd5b506101d660125481565b34801561039d57600080fd5b506103e16103ac3660046111a2565b600760205260009081526040902080546001820154600283015460038401546004850154600590950154939492939192909186565b604080519687526020870195909552938501929092526060840152608083015260a082015260c0016101e0565b6101b161082e565b34801561042257600080fd5b506101d6600b5481565b34801561043857600080fd5b506000546102ed906001600160a01b031681565b34801561045857600080fd5b506101d6600a5481565b34801561046e57600080fd5b506101b1610b20565b34801561048357600080fd5b506003546001600160a01b03166102ed565b3480156104a157600080fd5b506101b16104b036600461120d565b610b2b565b3480156104c157600080fd5b506101d660105481565b6000546001600160a01b031633146104e257600080fd5b600380546001600160a01b0319166001600160a01b0392909216919091179055565b6000546001600160a01b0316331461051b57600080fd5b6012546001600160a01b03831660009081526007602052604090205411156105465761054682610c18565b60008111801561056c57506001600160a01b038216600090815260076020526040902054155b156105d257600480546001600160a01b0384166000818152600560205260408120839055600183018455929092527f8a35acfbc15ff81a39ae7d344fd709f28e8600b4aa8c65c6b64bfe7fe36bd19b0180546001600160a01b0319169091179055610605565b801580156105f757506001600160a01b03821660009081526007602052604090205415155b156106055761060582610e01565b6001600160a01b03821660009081526007602052604090205460085461063691839161063091610f16565b90610f61565b6008556001600160a01b038216600090815260076020526040902081815560010181905561066381610fc5565b6001600160a01b038316600090815260076020526040902060028101919091556001015461069090610fef565b6001600160a01b0390921660009081526007602052604090206004019190915550565b6001600160a01b03811660009081526007602052604081205481036106da57506000919050565b6001600160a01b0382166000908152600760205260408120546106fc90610fc5565b6001600160a01b03841660009081526007602052604090206002015490915080821161072c575060009392505050565b6107368282610f16565b949350505050565b6000546001600160a01b0316331461075557600080fd5b601091909155601155565b6000546001600160a01b0316331461077757600080fd5b601255565b6000546001600160a01b0316331461079357600080fd5b600180546001600160a01b0319166001600160a01b0392909216919091179055565b6001600160a01b03811660009081526007602052604081205481036107dc57506000919050565b6001600160a01b0382166000908152600760205260408120546107fe90610fef565b6001600160a01b03841660009081526007602052604090206004015490915080821161072c575060009392505050565b6001546040516370a0823160e01b81523060048201526000916001600160a01b0316906370a0823190602401602060405180830381865afa158015610877573d6000803e3d6000fd5b505050506040513d601f19601f8201168201806040525081019061089b9190611226565b905060006108a93447611255565b905060006108b8346002611019565b60408051600280825260608201835292935060009290916020830190803683375050600254604080516315ab88c960e31b815290519394506001600160a01b039091169263ad5c4648925060048083019260209291908290030181865afa158015610927573d6000803e3d6000fd5b505050506040513d601f19601f8201168201806040525081019061094b9190611268565b8160008151811061095e5761095e611285565b6001600160a01b039283166020918202929092010152600180548351921691839190811061098e5761098e611285565b6001600160a01b03928316602091820292909201015260025460405163b6f9de9560e01b815291169063b6f9de959084906109d49060009086903090429060040161129b565b6000604051808303818588803b1580156109ed57600080fd5b505af1158015610a01573d6000803e3d6000fd5b50506001546040516370a0823160e01b815230600482015260009450610a8193508892506001600160a01b03909116906370a0823190602401602060405180830381865afa158015610a57573d6000803e3d6000fd5b505050506040513d601f19601f82011682018060405250810190610a7b9190611226565b90610f16565b90506000610a8f4786610f16565b600c54909150610a9f9083610f61565b600c55600854610ad590610acc90610ac66ec097ce7bc90715b34b9f10000000008661105b565b90611019565b600e5490610f61565b600e55600954610ae59082610f61565b600955600854610b1590610b0c90610ac66ec097ce7bc90715b34b9f10000000008561105b565b600b5490610f61565b600b55505050505050565b610b2933610c18565b565b6004546000819003610b3b575050565b6000805a905060005b8483108015610b5257508381105b15610c115783600f5410610b66576000600f555b610b986004600f5481548110610b7e57610b7e611285565b6000918252602090912001546001600160a01b03166110dd565b15610bcf57610bcf6004600f5481548110610bb557610bb5611285565b6000918252602090912001546001600160a01b0316610c18565b610be4610bdd5a8490610f16565b8490610f61565b92505a600f80549193506000610bf983611305565b91905055508080610c0990611305565b915050610b44565b5050505050565b6001600160a01b0381166000908152600760205260408120549003610c3a5750565b6000610c45826106b3565b90508015610dfd576000610c58836107b5565b600a54909150610c689083610f61565b600a55600d54610c789082610f61565b600d5560015460405163a9059cbb60e01b81526001600160a01b038581166004830152602482018490529091169063a9059cbb906044016020604051808303816000875af1158015610cce573d6000803e3d6000fd5b505050506040513d601f19601f82011682018060405250810190610cf2919061131e565b506040516001600160a01b0384169083156108fc029084906000818181858888f19350505050158015610d29573d6000803e3d6000fd5b506001600160a01b03831660009081526006602090815260408083204290556007909152902060030154610d5d9083610f61565b6001600160a01b0384166000908152600760205260409020600381019190915554610d8790610fc5565b6001600160a01b0384166000908152600760205260409020600281019190915560050154610db59082610f61565b6001600160a01b0384166000908152600760205260409020600581019190915554610ddf90610fef565b6001600160a01b038416600090815260076020526040902060040155505b5050565b60048054610e1190600190611255565b81548110610e2157610e21611285565b60009182526020808320909101546001600160a01b0384811684526005909252604090922054600480549290931692918110610e5f57610e5f611285565b600091825260208083209190910180546001600160a01b0319166001600160a01b03948516179055918316815260059182905260408120546004805491939291610eab90600190611255565b81548110610ebb57610ebb611285565b60009182526020808320909101546001600160a01b031683528201929092526040019020556004805480610ef157610ef1611340565b600082815260209020810160001990810180546001600160a01b031916905501905550565b6000610f5883836040518060400160405280601e81526020017f536166654d6174683a207375627472616374696f6e206f766572666c6f770000815250611122565b90505b92915050565b600080610f6e8385611356565b905083811015610f585760405162461bcd60e51b815260206004820152601b60248201527f536166654d6174683a206164646974696f6e206f766572666c6f77000000000060448201526064015b60405180910390fd5b6000610f5b6ec097ce7bc90715b34b9f1000000000610ac6600b548561105b90919063ffffffff16565b6000610f5b6ec097ce7bc90715b34b9f1000000000610ac6600e548561105b90919063ffffffff16565b6000610f5883836040518060400160405280601a81526020017f536166654d6174683a206469766973696f6e206279207a65726f00000000000081525061115c565b60008260000361106d57506000610f5b565b60006110798385611369565b9050826110868583611380565b14610f585760405162461bcd60e51b815260206004820152602160248201527f536166654d6174683a206d756c7469706c69636174696f6e206f766572666c6f6044820152607760f81b6064820152608401610fbc565b6010546001600160a01b038216600090815260066020526040812054909142916111079190611356565b108015610f5b575060115461111b836106b3565b1192915050565b600081848411156111465760405162461bcd60e51b8152600401610fbc91906113a2565b5060006111538486611255565b95945050505050565b6000818361117d5760405162461bcd60e51b8152600401610fbc91906113a2565b5060006111538486611380565b6001600160a01b038116811461119f57600080fd5b50565b6000602082840312156111b457600080fd5b8135610f588161118a565b600080604083850312156111d257600080fd5b82356111dd8161118a565b946020939093013593505050565b600080604083850312156111fe57600080fd5b50508035926020909101359150565b60006020828403121561121f57600080fd5b5035919050565b60006020828403121561123857600080fd5b5051919050565b634e487b7160e01b600052601160045260246000fd5b81810381811115610f5b57610f5b61123f565b60006020828403121561127a57600080fd5b8151610f588161118a565b634e487b7160e01b600052603260045260246000fd5b600060808201868352602060808185015281875180845260a086019150828901935060005b818110156112e55784516001600160a01b0316835293830193918301916001016112c0565b50506001600160a01b039690961660408501525050506060015292915050565b6000600182016113175761131761123f565b5060010190565b60006020828403121561133057600080fd5b81518015158114610f5857600080fd5b634e487b7160e01b600052603160045260246000fd5b80820180821115610f5b57610f5b61123f565b8082028115828204841417610f5b57610f5b61123f565b60008261139d57634e487b7160e01b600052601260045260246000fd5b500490565b600060208083528351808285015260005b818110156113cf578581018301518582016040015282016113b3565b506000604082860101526040601f19601f830116850101925050509291505056fea2646970667358221220fa691d048c2cd9d836fb5d677a21c9dc9f57848ab0ece71afe7d26b64313c59764736f6c63430008120033",
			"opcodes": "PUSH2 0x120 PUSH1 0x40 MSTORE PUSH1 0x5 DUP1 SLOAD PUSH20 0x496AF7721811482F18D5F92C07718572B3DD309D PUSH1 0x1 PUSH1 0x1 PUSH1 0xA0 SHL SUB NOT SWAP1 SWAP2 AND OR SWAP1 SSTORE PUSH1 0xA PUSH1 0x6 DUP2 SWAP1 SSTORE PUSH1 0x1E PUSH1 0x7 SSTORE PUSH1 0x14 PUSH1 0x8 DUP2 SWAP1 SSTORE PUSH1 0x9 DUP2 SWAP1 SSTORE DUP1 DUP3 SSTORE PUSH1 0xB DUP2 SWAP1 SSTORE PUSH1 0xC DUP2 SWAP1 SSTORE PUSH1 0xD DUP2 SWAP1 SSTORE PUSH1 0xE DUP3 SWAP1 SSTORE PUSH1 0xF DUP3 SWAP1 SSTORE PUSH3 0x97 SWAP2 SWAP1 PUSH3 0x83 SWAP1 DUP2 DUP2 DUP2 DUP6 DUP3 PUSH3 0x538 PUSH1 0x20 SWAP1 DUP2 SHL PUSH3 0x19B9 OR SWAP1 SHR JUMP JUMPDEST PUSH3 0x538 PUSH1 0x20 SHL PUSH3 0x19B9 OR SWAP1 SWAP2 SWAP1 PUSH1 0x20 SHR JUMP JUMPDEST PUSH1 0x10 SSTORE PUSH3 0xCD PUSH1 0xF SLOAD PUSH3 0x83 PUSH1 0xD SLOAD PUSH3 0x83 PUSH1 0xB SLOAD PUSH3 0x83 PUSH1 0x9 SLOAD PUSH1 0x7 SLOAD PUSH3 0x538 PUSH1 0x20 SHL PUSH3 0x19B9 OR SWAP1 SWAP2 SWAP1 PUSH1 0x20 SHR JUMP JUMPDEST PUSH1 0x11 SSTORE PUSH3 0xDE PUSH1 0x12 PUSH1 0xA PUSH3 0x6C8 JUMP JUMPDEST PUSH3 0xEE SWAP1 PUSH4 0x3B9ACA00 PUSH3 0x6DD JUMP JUMPDEST PUSH1 0xA0 MSTORE PUSH3 0x7A120 PUSH1 0x18 SSTORE PUSH1 0x64 PUSH1 0x19 SSTORE PUSH1 0x1A DUP1 SLOAD PUSH2 0xFFFF NOT AND SWAP1 SSTORE CALLVALUE DUP1 ISZERO PUSH3 0x115 JUMPI PUSH1 0x0 DUP1 REVERT JUMPDEST POP PUSH1 0x40 MLOAD DUP1 PUSH1 0x40 ADD PUSH1 0x40 MSTORE DUP1 PUSH1 0x7 DUP2 MSTORE PUSH1 0x20 ADD PUSH7 0x414E554E414B49 PUSH1 0xC8 SHL DUP2 MSTORE POP PUSH1 0x40 MLOAD DUP1 PUSH1 0x40 ADD PUSH1 0x40 MSTORE DUP1 PUSH1 0x3 DUP2 MSTORE PUSH1 0x20 ADD PUSH3 0x414E55 PUSH1 0xE8 SHL DUP2 MSTORE POP PUSH1 0x12 DUP3 PUSH1 0x0 SWAP1 DUP2 PUSH3 0x165 SWAP2 SWAP1 PUSH3 0x79C JUMP JUMPDEST POP PUSH1 0x1 PUSH3 0x174 DUP4 DUP3 PUSH3 0x79C JUMP JUMPDEST POP PUSH1 0x2 DUP1 SLOAD PUSH1 0xFF SWAP3 SWAP1 SWAP3 AND PUSH1 0x1 PUSH1 0x1 PUSH1 0xA8 SHL SUB NOT SWAP1 SWAP3 AND SWAP2 SWAP1 SWAP2 OR PUSH2 0x100 CALLER MUL OR SWAP1 SSTORE POP POP PUSH20 0x581FA0EE5A68A1FE7C8AD1EB2BFDD9CF66D3D923 PUSH1 0x80 DUP2 SWAP1 MSTORE PUSH1 0x40 DUP1 MLOAD PUSH4 0xC45A0155 PUSH1 0xE0 SHL DUP2 MSTORE SWAP1 MLOAD PUSH4 0xC45A0155 SWAP2 PUSH1 0x4 DUP1 DUP3 ADD SWAP3 PUSH1 0x20 SWAP3 SWAP1 SWAP2 SWAP1 DUP3 SWAP1 SUB ADD DUP2 DUP7 GAS STATICCALL ISZERO DUP1 ISZERO PUSH3 0x1EF JUMPI RETURNDATASIZE PUSH1 0x0 DUP1 RETURNDATACOPY RETURNDATASIZE PUSH1 0x0 REVERT JUMPDEST POP POP POP POP PUSH1 0x40 MLOAD RETURNDATASIZE PUSH1 0x1F NOT PUSH1 0x1F DUP3 ADD AND DUP3 ADD DUP1 PUSH1 0x40 MSTORE POP DUP2 ADD SWAP1 PUSH3 0x215 SWAP2 SWAP1 PUSH3 0x868 JUMP JUMPDEST PUSH1 0x1 PUSH1 0x1 PUSH1 0xA0 SHL SUB AND PUSH4 0xC9C65396 PUSH1 0x80 MLOAD PUSH1 0x1 PUSH1 0x1 PUSH1 0xA0 SHL SUB AND PUSH4 0xAD5C4648 PUSH1 0x40 MLOAD DUP2 PUSH4 0xFFFFFFFF AND PUSH1 0xE0 SHL DUP2 MSTORE PUSH1 0x4 ADD PUSH1 0x20 PUSH1 0x40 MLOAD DUP1 DUP4 SUB DUP2 DUP7 GAS STATICCALL ISZERO DUP1 ISZERO PUSH3 0x264 JUMPI RETURNDATASIZE PUSH1 0x0 DUP1 RETURNDATACOPY RETURNDATASIZE PUSH1 0x0 REVERT JUMPDEST POP POP POP POP PUSH1 0x40 MLOAD RETURNDATASIZE PUSH1 0x1F NOT PUSH1 0x1F DUP3 ADD AND DUP3 ADD DUP1 PUSH1 0x40 MSTORE POP DUP2 ADD SWAP1 PUSH3 0x28A SWAP2 SWAP1 PUSH3 0x868 JUMP JUMPDEST PUSH1 0x40 MLOAD PUSH1 0x1 PUSH1 0x1 PUSH1 0xE0 SHL SUB NOT PUSH1 0xE0 DUP5 SWAP1 SHL AND DUP2 MSTORE PUSH1 0x1 PUSH1 0x1 PUSH1 0xA0 SHL SUB SWAP1 SWAP2 AND PUSH1 0x4 DUP3 ADD MSTORE ADDRESS PUSH1 0x24 DUP3 ADD MSTORE PUSH1 0x44 ADD PUSH1 0x20 PUSH1 0x40 MLOAD DUP1 DUP4 SUB DUP2 PUSH1 0x0 DUP8 GAS CALL ISZERO DUP1 ISZERO PUSH3 0x2D7 JUMPI RETURNDATASIZE PUSH1 0x0 DUP1 RETURNDATACOPY RETURNDATASIZE PUSH1 0x0 REVERT JUMPDEST POP POP POP POP PUSH1 0x40 MLOAD RETURNDATASIZE PUSH1 0x1F NOT PUSH1 0x1F DUP3 ADD AND DUP3 ADD DUP1 PUSH1 0x40 MSTORE POP DUP2 ADD SWAP1 PUSH3 0x2FD SWAP2 SWAP1 PUSH3 0x868 JUMP JUMPDEST PUSH1 0x1 PUSH1 0x1 PUSH1 0xA0 SHL SUB AND PUSH2 0x100 DUP2 SWAP1 MSTORE PUSH1 0x16 DUP1 SLOAD PUSH20 0x76C84DDAD3D381E748BF958B8B2FCBF050E4ED69 PUSH1 0x1 PUSH1 0x1 PUSH1 0xA0 SHL SUB NOT SWAP2 DUP3 AND DUP2 OR SWAP1 SWAP3 SSTORE PUSH1 0x15 DUP1 SLOAD DUP3 AND SWAP1 SWAP3 OR SWAP1 SWAP2 SSTORE PUSH1 0x3 DUP1 SLOAD SWAP1 SWAP2 AND SWAP1 SWAP2 OR SWAP1 SSTORE PUSH1 0x40 MLOAD PUSH20 0x581FA0EE5A68A1FE7C8AD1EB2BFDD9CF66D3D923 SWAP1 PUSH3 0x372 SWAP1 PUSH3 0x5A7 JUMP JUMPDEST PUSH1 0x1 PUSH1 0x1 PUSH1 0xA0 SHL SUB SWAP1 SWAP2 AND DUP2 MSTORE PUSH1 0x20 ADD PUSH1 0x40 MLOAD DUP1 SWAP2 SUB SWAP1 PUSH1 0x0 CREATE DUP1 ISZERO DUP1 ISZERO PUSH3 0x39F JUMPI RETURNDATASIZE PUSH1 0x0 DUP1 RETURNDATACOPY RETURNDATASIZE PUSH1 0x0 REVERT JUMPDEST POP PUSH1 0x1 PUSH1 0x1 PUSH1 0xA0 SHL SUB SWAP1 DUP2 AND PUSH1 0xC0 DUP2 SWAP1 MSTORE PUSH1 0xE0 MSTORE CALLER PUSH1 0x0 SWAP1 DUP2 MSTORE PUSH1 0x1B PUSH1 0x20 MSTORE PUSH1 0x40 DUP1 DUP3 KECCAK256 DUP1 SLOAD PUSH1 0x1 PUSH1 0xFF NOT SWAP2 DUP3 AND DUP2 OR SWAP1 SWAP3 SSTORE PUSH2 0x100 MLOAD DUP6 AND DUP5 MSTORE DUP3 DUP5 KECCAK256 DUP1 SLOAD DUP3 AND DUP4 OR SWAP1 SSTORE ADDRESS DUP5 MSTORE DUP3 DUP5 KECCAK256 DUP1 SLOAD DUP3 AND DUP4 OR SWAP1 SSTORE PUSH32 0x6790D4910A095E0E04C8DAA388834616A295BAC3F59038957B6D0B93A2D21684 DUP1 SLOAD DUP3 AND DUP4 OR SWAP1 SSTORE PUSH32 0x584F46C60AF19681376031579ADB04A2416E54EE5505351C2A8435E3766026EA DUP1 SLOAD DUP3 AND DUP4 OR SWAP1 SSTORE PUSH1 0x15 SLOAD SWAP1 SWAP5 AND DUP4 MSTORE SWAP2 KECCAK256 DUP1 SLOAD SWAP1 SWAP3 AND OR SWAP1 SSTORE TIMESTAMP PUSH1 0x12 SSTORE PUSH1 0xA0 MLOAD PUSH1 0x64 SWAP1 PUSH3 0x46E SWAP1 PUSH1 0x2 PUSH3 0x6DD JUMP JUMPDEST PUSH3 0x47A SWAP2 SWAP1 PUSH3 0x893 JUMP JUMPDEST PUSH1 0x13 SSTORE PUSH1 0xA0 MLOAD PUSH1 0x64 SWAP1 PUSH3 0x490 SWAP1 PUSH1 0x1 PUSH3 0x6DD JUMP JUMPDEST PUSH3 0x49C SWAP2 SWAP1 PUSH3 0x893 JUMP JUMPDEST PUSH1 0x14 SSTORE PUSH1 0x15 SLOAD PUSH1 0x1 PUSH1 0x1 PUSH1 0xA0 SHL SUB AND PUSH1 0x0 SWAP1 DUP2 MSTORE PUSH1 0x4 PUSH1 0x20 SWAP1 DUP2 MSTORE PUSH1 0x40 DUP1 DUP4 KECCAK256 DUP1 SLOAD PUSH1 0x1 PUSH1 0xFF NOT SWAP2 DUP3 AND DUP2 OR SWAP1 SWAP3 SSTORE ADDRESS DUP6 MSTORE DUP3 DUP6 KECCAK256 DUP1 SLOAD DUP3 AND DUP4 OR SWAP1 SSTORE CALLER DUP1 DUP7 MSTORE DUP4 DUP7 KECCAK256 DUP1 SLOAD SWAP1 SWAP3 AND SWAP1 SWAP3 OR SWAP1 SSTORE PUSH1 0xA0 MLOAD SWAP2 MLOAD SWAP2 DUP3 MSTORE SWAP3 SWAP2 PUSH32 0xDDF252AD1BE2C89B69C2B068FC378DAA952BA7F163C4A11628F55A4DF523B3EF SWAP2 ADD PUSH1 0x40 MLOAD DUP1 SWAP2 SUB SWAP1 LOG3 PUSH1 0xA0 MLOAD CALLER PUSH1 0x0 SWAP1 DUP2 MSTORE PUSH1 0x1D PUSH1 0x20 MSTORE PUSH1 0x40 SWAP1 KECCAK256 SSTORE PUSH3 0x8CC JUMP JUMPDEST PUSH1 0x0 DUP1 PUSH3 0x547 DUP4 DUP6 PUSH3 0x8B6 JUMP JUMPDEST SWAP1 POP DUP4 DUP2 LT ISZERO PUSH3 0x59E JUMPI PUSH1 0x40 MLOAD PUSH3 0x461BCD PUSH1 0xE5 SHL DUP2 MSTORE PUSH1 0x20 PUSH1 0x4 DUP3 ADD MSTORE PUSH1 0x1B PUSH1 0x24 DUP3 ADD MSTORE PUSH32 0x536166654D6174683A206164646974696F6E206F766572666C6F770000000000 PUSH1 0x44 DUP3 ADD MSTORE PUSH1 0x64 ADD PUSH1 0x40 MLOAD DUP1 SWAP2 SUB SWAP1 REVERT JUMPDEST SWAP1 POP JUMPDEST SWAP3 SWAP2 POP POP JUMP JUMPDEST PUSH2 0x152A DUP1 PUSH3 0x36A6 DUP4 CODECOPY ADD SWAP1 JUMP JUMPDEST PUSH4 0x4E487B71 PUSH1 0xE0 SHL PUSH1 0x0 MSTORE PUSH1 0x11 PUSH1 0x4 MSTORE PUSH1 0x24 PUSH1 0x0 REVERT JUMPDEST PUSH1 0x1 DUP2 DUP2 JUMPDEST DUP1 DUP6 GT ISZERO PUSH3 0x60C JUMPI DUP2 PUSH1 0x0 NOT DIV DUP3 GT ISZERO PUSH3 0x5F0 JUMPI PUSH3 0x5F0 PUSH3 0x5B5 JUMP JUMPDEST DUP1 DUP6 AND ISZERO PUSH3 0x5FE JUMPI SWAP2 DUP2 MUL SWAP2 JUMPDEST SWAP4 DUP5 SHR SWAP4 SWAP1 DUP1 MUL SWAP1 PUSH3 0x5D0 JUMP JUMPDEST POP SWAP3 POP SWAP3 SWAP1 POP JUMP JUMPDEST PUSH1 0x0 DUP3 PUSH3 0x625 JUMPI POP PUSH1 0x1 PUSH3 0x5A1 JUMP JUMPDEST DUP2 PUSH3 0x634 JUMPI POP PUSH1 0x0 PUSH3 0x5A1 JUMP JUMPDEST DUP2 PUSH1 0x1 DUP2 EQ PUSH3 0x64D JUMPI PUSH1 0x2 DUP2 EQ PUSH3 0x658 JUMPI PUSH3 0x678 JUMP JUMPDEST PUSH1 0x1 SWAP2 POP POP PUSH3 0x5A1 JUMP JUMPDEST PUSH1 0xFF DUP5 GT ISZERO PUSH3 0x66C JUMPI PUSH3 0x66C PUSH3 0x5B5 JUMP JUMPDEST POP POP PUSH1 0x1 DUP3 SHL PUSH3 0x5A1 JUMP JUMPDEST POP PUSH1 0x20 DUP4 LT PUSH2 0x133 DUP4 LT AND PUSH1 0x4E DUP5 LT PUSH1 0xB DUP5 LT AND OR ISZERO PUSH3 0x69D JUMPI POP DUP2 DUP2 EXP PUSH3 0x5A1 JUMP JUMPDEST PUSH3 0x6A9 DUP4 DUP4 PUSH3 0x5CB JUMP JUMPDEST DUP1 PUSH1 0x0 NOT DIV DUP3 GT ISZERO PUSH3 0x6C0 JUMPI PUSH3 0x6C0 PUSH3 0x5B5 JUMP JUMPDEST MUL SWAP4 SWAP3 POP POP POP JUMP JUMPDEST PUSH1 0x0 PUSH3 0x6D6 DUP4 DUP4 PUSH3 0x614 JUMP JUMPDEST SWAP4 SWAP3 POP POP POP JUMP JUMPDEST DUP1 DUP3 MUL DUP2 ISZERO DUP3 DUP3 DIV DUP5 EQ OR PUSH3 0x5A1 JUMPI PUSH3 0x5A1 PUSH3 0x5B5 JUMP JUMPDEST PUSH4 0x4E487B71 PUSH1 0xE0 SHL PUSH1 0x0 MSTORE PUSH1 0x41 PUSH1 0x4 MSTORE PUSH1 0x24 PUSH1 0x0 REVERT JUMPDEST PUSH1 0x1 DUP2 DUP2 SHR SWAP1 DUP3 AND DUP1 PUSH3 0x722 JUMPI PUSH1 0x7F DUP3 AND SWAP2 POP JUMPDEST PUSH1 0x20 DUP3 LT DUP2 SUB PUSH3 0x743 JUMPI PUSH4 0x4E487B71 PUSH1 0xE0 SHL PUSH1 0x0 MSTORE PUSH1 0x22 PUSH1 0x4 MSTORE PUSH1 0x24 PUSH1 0x0 REVERT JUMPDEST POP SWAP2 SWAP1 POP JUMP JUMPDEST PUSH1 0x1F DUP3 GT ISZERO PUSH3 0x797 JUMPI PUSH1 0x0 DUP2 DUP2 MSTORE PUSH1 0x20 DUP2 KECCAK256 PUSH1 0x1F DUP6 ADD PUSH1 0x5 SHR DUP2 ADD PUSH1 0x20 DUP7 LT ISZERO PUSH3 0x772 JUMPI POP DUP1 JUMPDEST PUSH1 0x1F DUP6 ADD PUSH1 0x5 SHR DUP3 ADD SWAP2 POP JUMPDEST DUP2 DUP2 LT ISZERO PUSH3 0x793 JUMPI DUP3 DUP2 SSTORE PUSH1 0x1 ADD PUSH3 0x77E JUMP JUMPDEST POP POP POP JUMPDEST POP POP POP JUMP JUMPDEST DUP2 MLOAD PUSH1 0x1 PUSH1 0x1 PUSH1 0x40 SHL SUB DUP2 GT ISZERO PUSH3 0x7B8 JUMPI PUSH3 0x7B8 PUSH3 0x6F7 JUMP JUMPDEST PUSH3 0x7D0 DUP2 PUSH3 0x7C9 DUP5 SLOAD PUSH3 0x70D JUMP JUMPDEST DUP5 PUSH3 0x749 JUMP JUMPDEST PUSH1 0x20 DUP1 PUSH1 0x1F DUP4 GT PUSH1 0x1 DUP2 EQ PUSH3 0x808 JUMPI PUSH1 0x0 DUP5 ISZERO PUSH3 0x7EF JUMPI POP DUP6 DUP4 ADD MLOAD JUMPDEST PUSH1 0x0 NOT PUSH1 0x3 DUP7 SWAP1 SHL SHR NOT AND PUSH1 0x1 DUP6 SWAP1 SHL OR DUP6 SSTORE PUSH3 0x793 JUMP JUMPDEST PUSH1 0x0 DUP6 DUP2 MSTORE PUSH1 0x20 DUP2 KECCAK256 PUSH1 0x1F NOT DUP7 AND SWAP2 JUMPDEST DUP3 DUP2 LT ISZERO PUSH3 0x839 JUMPI DUP9 DUP7 ADD MLOAD DUP3 SSTORE SWAP5 DUP5 ADD SWAP5 PUSH1 0x1 SWAP1 SWAP2 ADD SWAP1 DUP5 ADD PUSH3 0x818 JUMP JUMPDEST POP DUP6 DUP3 LT ISZERO PUSH3 0x858 JUMPI DUP8 DUP6 ADD MLOAD PUSH1 0x0 NOT PUSH1 0x3 DUP9 SWAP1 SHL PUSH1 0xF8 AND SHR NOT AND DUP2 SSTORE JUMPDEST POP POP POP POP POP PUSH1 0x1 SWAP1 DUP2 SHL ADD SWAP1 SSTORE POP JUMP JUMPDEST PUSH1 0x0 PUSH1 0x20 DUP3 DUP5 SUB SLT ISZERO PUSH3 0x87B JUMPI PUSH1 0x0 DUP1 REVERT JUMPDEST DUP2 MLOAD PUSH1 0x1 PUSH1 0x1 PUSH1 0xA0 SHL SUB DUP2 AND DUP2 EQ PUSH3 0x59E JUMPI PUSH1 0x0 DUP1 REVERT JUMPDEST PUSH1 0x0 DUP3 PUSH3 0x8B1 JUMPI PUSH4 0x4E487B71 PUSH1 0xE0 SHL PUSH1 0x0 MSTORE PUSH1 0x12 PUSH1 0x4 MSTORE PUSH1 0x24 PUSH1 0x0 REVERT JUMPDEST POP DIV SWAP1 JUMP JUMPDEST DUP1 DUP3 ADD DUP1 DUP3 GT ISZERO PUSH3 0x5A1 JUMPI PUSH3 0x5A1 PUSH3 0x5B5 JUMP JUMPDEST PUSH1 0x80 MLOAD PUSH1 0xA0 MLOAD PUSH1 0xC0 MLOAD PUSH1 0xE0 MLOAD PUSH2 0x100 MLOAD PUSH2 0x2D09 PUSH3 0x99D PUSH1 0x0 CODECOPY PUSH1 0x0 DUP2 DUP2 PUSH2 0x8F8 ADD MSTORE DUP2 DUP2 PUSH2 0x1879 ADD MSTORE DUP2 DUP2 PUSH2 0x1A56 ADD MSTORE DUP2 DUP2 PUSH2 0x208D ADD MSTORE DUP2 DUP2 PUSH2 0x2653 ADD MSTORE DUP2 DUP2 PUSH2 0x268E ADD MSTORE PUSH2 0x2728 ADD MSTORE PUSH1 0x0 PUSH2 0xA3B ADD MSTORE PUSH1 0x0 DUP2 DUP2 PUSH2 0xC59 ADD MSTORE DUP2 DUP2 PUSH2 0xE5A ADD MSTORE DUP2 DUP2 PUSH2 0x1414 ADD MSTORE DUP2 DUP2 PUSH2 0x190A ADD MSTORE DUP2 DUP2 PUSH2 0x193B ADD MSTORE DUP2 DUP2 PUSH2 0x1CFF ADD MSTORE DUP2 DUP2 PUSH2 0x1DC7 ADD MSTORE DUP2 DUP2 PUSH2 0x1E8A ADD MSTORE PUSH2 0x23AA ADD MSTORE PUSH1 0x0 DUP2 DUP2 PUSH2 0x4A9 ADD MSTORE DUP2 DUP2 PUSH2 0x596 ADD MSTORE PUSH2 0x128A ADD MSTORE PUSH1 0x0 DUP2 DUP2 PUSH2 0xB4E ADD MSTORE DUP2 DUP2 PUSH2 0x215C ADD MSTORE DUP2 DUP2 PUSH2 0x21E3 ADD MSTORE DUP2 DUP2 PUSH2 0x229B ADD MSTORE PUSH2 0x243A ADD MSTORE PUSH2 0x2D09 PUSH1 0x0 RETURN INVALID PUSH1 0x80 PUSH1 0x40 MSTORE PUSH1 0x4 CALLDATASIZE LT PUSH2 0x3A6 JUMPI PUSH1 0x0 CALLDATALOAD PUSH1 0xE0 SHR DUP1 PUSH4 0x84EC884F GT PUSH2 0x1E7 JUMPI DUP1 PUSH4 0xACB7F0F1 GT PUSH2 0x10D JUMPI DUP1 PUSH4 0xCE25A738 GT PUSH2 0xA0 JUMPI DUP1 PUSH4 0xF51D72E9 GT PUSH2 0x6F JUMPI DUP1 PUSH4 0xF51D72E9 EQ PUSH2 0xAFC JUMPI DUP1 PUSH4 0xF708A64F EQ PUSH2 0xB1C JUMPI DUP1 PUSH4 0xF887EA40 EQ PUSH2 0xB3C JUMPI DUP1 PUSH4 0xF8B45B05 EQ PUSH2 0xB70 JUMPI PUSH1 0x0 DUP1 REVERT JUMPDEST DUP1 PUSH4 0xCE25A738 EQ PUSH2 0xA29 JUMPI DUP1 PUSH4 0xD4399790 EQ PUSH2 0xA5D JUMPI DUP1 PUSH4 0xDD62ED3E EQ PUSH2 0xA96 JUMPI DUP1 PUSH4 0xF2FDE38B EQ PUSH2 0xADC JUMPI PUSH1 0x0 DUP1 REVERT JUMPDEST DUP1 PUSH4 0xCA3202C9 GT PUSH2 0xDC JUMPI DUP1 PUSH4 0xCA3202C9 EQ PUSH2 0x9C7 JUMPI DUP1 PUSH4 0xCB39C7F0 EQ PUSH2 0x9DD JUMPI DUP1 PUSH4 0xCCB61358 EQ PUSH2 0x9F3 JUMPI DUP1 PUSH4 0xCDADC8C7 EQ PUSH2 0xA09 JUMPI PUSH1 0x0 DUP1 REVERT JUMPDEST DUP1 PUSH4 0xACB7F0F1 EQ PUSH2 0x966 JUMPI DUP1 PUSH4 0xAEFDE9F2 EQ PUSH2 0x97B JUMPI DUP1 PUSH4 0xC1CF53C4 EQ PUSH2 0x991 JUMPI DUP1 PUSH4 0xC3F70B52 EQ PUSH2 0x9B1 JUMPI PUSH1 0x0 DUP1 REVERT JUMPDEST DUP1 PUSH4 0x9D1944F5 GT PUSH2 0x185 JUMPI DUP1 PUSH4 0xA8AA1B31 GT PUSH2 0x154 JUMPI DUP1 PUSH4 0xA8AA1B31 EQ PUSH2 0x8E6 JUMPI DUP1 PUSH4 0xA9059CBB EQ PUSH2 0x91A JUMPI DUP1 PUSH4 0xA9464061 EQ PUSH2 0x93A JUMPI DUP1 PUSH4 0xAC3A5EE3 EQ PUSH2 0x950 JUMPI PUSH1 0x0 DUP1 REVERT JUMPDEST DUP1 PUSH4 0x9D1944F5 EQ PUSH2 0x870 JUMPI DUP1 PUSH4 0x9D9241EC EQ PUSH2 0x890 JUMPI DUP1 PUSH4 0xA457C2D7 EQ PUSH2 0x8A6 JUMPI DUP1 PUSH4 0xA4B45C00 EQ PUSH2 0x8C6 JUMPI PUSH1 0x0 DUP1 REVERT JUMPDEST DUP1 PUSH4 0x8AEE8127 GT PUSH2 0x1C1 JUMPI DUP1 PUSH4 0x8AEE8127 EQ PUSH2 0x7F2 JUMPI DUP1 PUSH4 0x8DA5CB5B EQ PUSH2 0x812 JUMPI DUP1 PUSH4 0x8F32D59B EQ PUSH2 0x835 JUMPI DUP1 PUSH4 0x95D89B41 EQ PUSH2 0x85B JUMPI PUSH1 0x0 DUP1 REVERT JUMPDEST DUP1 PUSH4 0x84EC884F EQ PUSH2 0x79C JUMPI DUP1 PUSH4 0x854CFF2F EQ PUSH2 0x7BC JUMPI DUP1 PUSH4 0x8933D8EC EQ PUSH2 0x7DC JUMPI PUSH1 0x0 DUP1 REVERT JUMPDEST DUP1 PUSH4 0x40C637D3 GT PUSH2 0x2CC JUMPI DUP1 PUSH4 0x5821D4A0 GT PUSH2 0x26A JUMPI DUP1 PUSH4 0x715018A6 GT PUSH2 0x239 JUMPI DUP1 PUSH4 0x715018A6 EQ PUSH2 0x738 JUMPI DUP1 PUSH4 0x7571A0FA EQ PUSH2 0x74D JUMPI DUP1 PUSH4 0x7E164CFF EQ PUSH2 0x763 JUMPI DUP1 PUSH4 0x83B4AC68 EQ PUSH2 0x783 JUMPI PUSH1 0x0 DUP1 REVERT JUMPDEST DUP1 PUSH4 0x5821D4A0 EQ PUSH2 0x6B6 JUMPI DUP1 PUSH4 0x59B107B9 EQ PUSH2 0x6CC JUMPI DUP1 PUSH4 0x5D0044CA EQ PUSH2 0x6E2 JUMPI DUP1 PUSH4 0x70A08231 EQ PUSH2 0x702 JUMPI PUSH1 0x0 DUP1 REVERT JUMPDEST DUP1 PUSH4 0x4707D000 GT PUSH2 0x2A6 JUMPI DUP1 PUSH4 0x4707D000 EQ PUSH2 0x640 JUMPI DUP1 PUSH4 0x47A28B79 EQ PUSH2 0x660 JUMPI DUP1 PUSH4 0x4A7E73D3 EQ PUSH2 0x680 JUMPI DUP1 PUSH4 0x4D709ADF EQ PUSH2 0x696 JUMPI PUSH1 0x0 DUP1 REVERT JUMPDEST DUP1 PUSH4 0x40C637D3 EQ PUSH2 0x5B8 JUMPI DUP1 PUSH4 0x4355855A EQ PUSH2 0x5F0 JUMPI DUP1 PUSH4 0x441B1D30 EQ PUSH2 0x620 JUMPI PUSH1 0x0 DUP1 REVERT JUMPDEST DUP1 PUSH4 0x18160DDD GT PUSH2 0x344 JUMPI DUP1 PUSH4 0x2F34D282 GT PUSH2 0x313 JUMPI DUP1 PUSH4 0x2F34D282 EQ PUSH2 0x522 JUMPI DUP1 PUSH4 0x313CE567 EQ PUSH2 0x542 JUMPI DUP1 PUSH4 0x39509351 EQ PUSH2 0x564 JUMPI DUP1 PUSH4 0x3EAAF86B EQ PUSH2 0x584 JUMPI PUSH1 0x0 DUP1 REVERT JUMPDEST DUP1 PUSH4 0x18160DDD EQ PUSH2 0x49A JUMPI DUP1 PUSH4 0x23B872DD EQ PUSH2 0x4CD JUMPI DUP1 PUSH4 0x2D48E896 EQ PUSH2 0x4ED JUMPI DUP1 PUSH4 0x2E0F2625 EQ PUSH2 0x50D JUMPI PUSH1 0x0 DUP1 REVERT JUMPDEST DUP1 PUSH4 0x95EA7B3 GT PUSH2 0x380 JUMPI DUP1 PUSH4 0x95EA7B3 EQ PUSH2 0x41F JUMPI DUP1 PUSH4 0x99D0D30 EQ PUSH2 0x44F JUMPI DUP1 PUSH4 0x9AFB3CE EQ PUSH2 0x465 JUMPI DUP1 PUSH4 0x180B0D7E EQ PUSH2 0x484 JUMPI PUSH1 0x0 DUP1 REVERT JUMPDEST DUP1 PUSH4 0x345E353 EQ PUSH2 0x3B2 JUMPI DUP1 PUSH4 0x6FDDE03 EQ PUSH2 0x3DB JUMPI DUP1 PUSH4 0x710FB45 EQ PUSH2 0x3FD JUMPI PUSH1 0x0 DUP1 REVERT JUMPDEST CALLDATASIZE PUSH2 0x3AD JUMPI STOP JUMPDEST PUSH1 0x0 DUP1 REVERT JUMPDEST CALLVALUE DUP1 ISZERO PUSH2 0x3BE JUMPI PUSH1 0x0 DUP1 REVERT JUMPDEST POP PUSH2 0x3C8 PUSH1 0x12 SLOAD DUP2 JUMP JUMPDEST PUSH1 0x40 MLOAD SWAP1 DUP2 MSTORE PUSH1 0x20 ADD JUMPDEST PUSH1 0x40 MLOAD DUP1 SWAP2 SUB SWAP1 RETURN JUMPDEST CALLVALUE DUP1 ISZERO PUSH2 0x3E7 JUMPI PUSH1 0x0 DUP1 REVERT JUMPDEST POP PUSH2 0x3F0 PUSH2 0xB86 JUMP JUMPDEST PUSH1 0x40 MLOAD PUSH2 0x3D2 SWAP2 SWAP1 PUSH2 0x2944 JUMP JUMPDEST CALLVALUE DUP1 ISZERO PUSH2 0x409 JUMPI PUSH1 0x0 DUP1 REVERT JUMPDEST POP PUSH2 0x41D PUSH2 0x418 CALLDATASIZE PUSH1 0x4 PUSH2 0x29A7 JUMP JUMPDEST PUSH2 0xC18 JUMP JUMPDEST STOP JUMPDEST CALLVALUE DUP1 ISZERO PUSH2 0x42B JUMPI PUSH1 0x0 DUP1 REVERT JUMPDEST POP PUSH2 0x43F PUSH2 0x43A CALLDATASIZE PUSH1 0x4 PUSH2 0x29C4 JUMP JUMPDEST PUSH2 0xCDB JUMP JUMPDEST PUSH1 0x40 MLOAD SWAP1 ISZERO ISZERO DUP2 MSTORE PUSH1 0x20 ADD PUSH2 0x3D2 JUMP JUMPDEST CALLVALUE DUP1 ISZERO PUSH2 0x45B JUMPI PUSH1 0x0 DUP1 REVERT JUMPDEST POP PUSH2 0x3C8 PUSH1 0xF SLOAD DUP2 JUMP JUMPDEST CALLVALUE DUP1 ISZERO PUSH2 0x471 JUMPI PUSH1 0x0 DUP1 REVERT JUMPDEST POP PUSH1 0x1A SLOAD PUSH2 0x43F SWAP1 PUSH2 0x100 SWAP1 DIV PUSH1 0xFF AND DUP2 JUMP JUMPDEST CALLVALUE DUP1 ISZERO PUSH2 0x490 JUMPI PUSH1 0x0 DUP1 REVERT JUMPDEST POP PUSH2 0x3C8 PUSH2 0x3E8 DUP2 JUMP JUMPDEST CALLVALUE DUP1 ISZERO PUSH2 0x4A6 JUMPI PUSH1 0x0 DUP1 REVERT JUMPDEST POP PUSH32 0x0 PUSH2 0x3C8 JUMP JUMPDEST CALLVALUE DUP1 ISZERO PUSH2 0x4D9 JUMPI PUSH1 0x0 DUP1 REVERT JUMPDEST POP PUSH2 0x43F PUSH2 0x4E8 CALLDATASIZE PUSH1 0x4 PUSH2 0x29F0 JUMP JUMPDEST PUSH2 0xD48 JUMP JUMPDEST CALLVALUE DUP1 ISZERO PUSH2 0x4F9 JUMPI PUSH1 0x0 DUP1 REVERT JUMPDEST POP PUSH2 0x41D PUSH2 0x508 CALLDATASIZE PUSH1 0x4 PUSH2 0x2A31 JUMP JUMPDEST PUSH2 0xE1B JUMP JUMPDEST CALLVALUE DUP1 ISZERO PUSH2 0x519 JUMPI PUSH1 0x0 DUP1 REVERT JUMPDEST POP PUSH2 0x3C8 PUSH1 0x12 DUP2 JUMP JUMPDEST CALLVALUE DUP1 ISZERO PUSH2 0x52E JUMPI PUSH1 0x0 DUP1 REVERT JUMPDEST POP PUSH2 0x41D PUSH2 0x53D CALLDATASIZE PUSH1 0x4 PUSH2 0x29A7 JUMP JUMPDEST PUSH2 0xEC3 JUMP JUMPDEST CALLVALUE DUP1 ISZERO PUSH2 0x54E JUMPI PUSH1 0x0 DUP1 REVERT JUMPDEST POP PUSH1 0x2 SLOAD PUSH1 0x40 MLOAD PUSH1 0xFF SWAP1 SWAP2 AND DUP2 MSTORE PUSH1 0x20 ADD PUSH2 0x3D2 JUMP JUMPDEST CALLVALUE DUP1 ISZERO PUSH2 0x570 JUMPI PUSH1 0x0 DUP1 REVERT JUMPDEST POP PUSH2 0x43F PUSH2 0x57F CALLDATASIZE PUSH1 0x4 PUSH2 0x29C4 JUMP JUMPDEST PUSH2 0xF07 JUMP JUMPDEST CALLVALUE DUP1 ISZERO PUSH2 0x590 JUMPI PUSH1 0x0 DUP1 REVERT JUMPDEST POP PUSH2 0x3C8 PUSH32 0x0 DUP2 JUMP JUMPDEST CALLVALUE DUP1 ISZERO PUSH2 0x5C4 JUMPI PUSH1 0x0 DUP1 REVERT JUMPDEST POP PUSH1 0x16 SLOAD PUSH2 0x5D8 SWAP1 PUSH1 0x1 PUSH1 0x1 PUSH1 0xA0 SHL SUB AND DUP2 JUMP JUMPDEST PUSH1 0x40 MLOAD PUSH1 0x1 PUSH1 0x1 PUSH1 0xA0 SHL SUB SWAP1 SWAP2 AND DUP2 MSTORE PUSH1 0x20 ADD PUSH2 0x3D2 JUMP JUMPDEST CALLVALUE DUP1 ISZERO PUSH2 0x5FC JUMPI PUSH1 0x0 DUP1 REVERT JUMPDEST POP PUSH2 0x43F PUSH2 0x60B CALLDATASIZE PUSH1 0x4 PUSH2 0x29A7 JUMP JUMPDEST PUSH1 0x1B PUSH1 0x20 MSTORE PUSH1 0x0 SWAP1 DUP2 MSTORE PUSH1 0x40 SWAP1 KECCAK256 SLOAD PUSH1 0xFF AND DUP2 JUMP JUMPDEST CALLVALUE DUP1 ISZERO PUSH2 0x62C JUMPI PUSH1 0x0 DUP1 REVERT JUMPDEST POP PUSH2 0x41D PUSH2 0x63B CALLDATASIZE PUSH1 0x4 PUSH2 0x2A53 JUMP JUMPDEST PUSH2 0xF8C JUMP JUMPDEST CALLVALUE DUP1 ISZERO PUSH2 0x64C JUMPI PUSH1 0x0 DUP1 REVERT JUMPDEST POP PUSH2 0x43F PUSH2 0x65B CALLDATASIZE PUSH1 0x4 PUSH2 0x2A6C JUMP JUMPDEST PUSH2 0xFDF JUMP JUMPDEST CALLVALUE DUP1 ISZERO PUSH2 0x66C JUMPI PUSH1 0x0 DUP1 REVERT JUMPDEST POP PUSH2 0x41D PUSH2 0x67B CALLDATASIZE PUSH1 0x4 PUSH2 0x2AA5 JUMP JUMPDEST PUSH2 0x10ED JUMP JUMPDEST CALLVALUE DUP1 ISZERO PUSH2 0x68C JUMPI PUSH1 0x0 DUP1 REVERT JUMPDEST POP PUSH2 0x3C8 PUSH1 0x7 SLOAD DUP2 JUMP JUMPDEST CALLVALUE DUP1 ISZERO PUSH2 0x6A2 JUMPI PUSH1 0x0 DUP1 REVERT JUMPDEST POP PUSH1 0x3 SLOAD PUSH2 0x5D8 SWAP1 PUSH1 0x1 PUSH1 0x1 PUSH1 0xA0 SHL SUB AND DUP2 JUMP JUMPDEST CALLVALUE DUP1 ISZERO PUSH2 0x6C2 JUMPI PUSH1 0x0 DUP1 REVERT JUMPDEST POP PUSH2 0x3C8 PUSH1 0x6 SLOAD DUP2 JUMP JUMPDEST CALLVALUE DUP1 ISZERO PUSH2 0x6D8 JUMPI PUSH1 0x0 DUP1 REVERT JUMPDEST POP PUSH2 0x3C8 PUSH1 0x10 SLOAD DUP2 JUMP JUMPDEST CALLVALUE DUP1 ISZERO PUSH2 0x6EE JUMPI PUSH1 0x0 DUP1 REVERT JUMPDEST POP PUSH2 0x41D PUSH2 0x6FD CALLDATASIZE PUSH1 0x4 PUSH2 0x2A53 JUMP JUMPDEST PUSH2 0x11F1 JUMP JUMPDEST CALLVALUE DUP1 ISZERO PUSH2 0x70E JUMPI PUSH1 0x0 DUP1 REVERT JUMPDEST POP PUSH2 0x3C8 PUSH2 0x71D CALLDATASIZE PUSH1 0x4 PUSH2 0x29A7 JUMP JUMPDEST PUSH1 0x1 PUSH1 0x1 PUSH1 0xA0 SHL SUB AND PUSH1 0x0 SWAP1 DUP2 MSTORE PUSH1 0x1D PUSH1 0x20 MSTORE PUSH1 0x40 SWAP1 KECCAK256 SLOAD SWAP1 JUMP JUMPDEST CALLVALUE DUP1 ISZERO PUSH2 0x744 JUMPI PUSH1 0x0 DUP1 REVERT JUMPDEST POP PUSH2 0x41D PUSH2 0x12BF JUMP JUMPDEST CALLVALUE DUP1 ISZERO PUSH2 0x759 JUMPI PUSH1 0x0 DUP1 REVERT JUMPDEST POP PUSH2 0x3C8 PUSH1 0xD SLOAD DUP2 JUMP JUMPDEST CALLVALUE DUP1 ISZERO PUSH2 0x76F JUMPI PUSH1 0x0 DUP1 REVERT JUMPDEST POP PUSH1 0x5 SLOAD PUSH2 0x5D8 SWAP1 PUSH1 0x1 PUSH1 0x1 PUSH1 0xA0 SHL SUB AND DUP2 JUMP JUMPDEST CALLVALUE DUP1 ISZERO PUSH2 0x78F JUMPI PUSH1 0x0 DUP1 REVERT JUMPDEST POP PUSH1 0x1A SLOAD PUSH1 0xFF AND ISZERO PUSH2 0x43F JUMP JUMPDEST CALLVALUE DUP1 ISZERO PUSH2 0x7A8 JUMPI PUSH1 0x0 DUP1 REVERT JUMPDEST POP PUSH2 0x41D PUSH2 0x7B7 CALLDATASIZE PUSH1 0x4 PUSH2 0x2A53 JUMP JUMPDEST PUSH2 0x1330 JUMP JUMPDEST CALLVALUE DUP1 ISZERO PUSH2 0x7C8 JUMPI PUSH1 0x0 DUP1 REVERT JUMPDEST POP PUSH2 0x41D PUSH2 0x7D7 CALLDATASIZE PUSH1 0x4 PUSH2 0x29A7 JUMP JUMPDEST PUSH2 0x138D JUMP JUMPDEST CALLVALUE DUP1 ISZERO PUSH2 0x7E8 JUMPI PUSH1 0x0 DUP1 REVERT JUMPDEST POP PUSH2 0x3C8 PUSH1 0xC SLOAD DUP2 JUMP JUMPDEST CALLVALUE DUP1 ISZERO PUSH2 0x7FE JUMPI PUSH1 0x0 DUP1 REVERT JUMPDEST POP PUSH2 0x41D PUSH2 0x80D CALLDATASIZE PUSH1 0x4 PUSH2 0x29A7 JUMP JUMPDEST PUSH2 0x13D3 JUMP JUMPDEST CALLVALUE DUP1 ISZERO PUSH2 0x81E JUMPI PUSH1 0x0 DUP1 REVERT JUMPDEST POP PUSH1 0x2 SLOAD PUSH2 0x100 SWAP1 DIV PUSH1 0x1 PUSH1 0x1 PUSH1 0xA0 SHL SUB AND PUSH2 0x5D8 JUMP JUMPDEST CALLVALUE DUP1 ISZERO PUSH2 0x841 JUMPI PUSH1 0x0 DUP1 REVERT JUMPDEST POP PUSH2 0x43F PUSH1 0x2 SLOAD PUSH2 0x100 SWAP1 DIV PUSH1 0x1 PUSH1 0x1 PUSH1 0xA0 SHL SUB AND CALLER EQ SWAP1 JUMP JUMPDEST CALLVALUE DUP1 ISZERO PUSH2 0x867 JUMPI PUSH1 0x0 DUP1 REVERT JUMPDEST POP PUSH2 0x3F0 PUSH2 0x1493 JUMP JUMPDEST CALLVALUE DUP1 ISZERO PUSH2 0x87C JUMPI PUSH1 0x0 DUP1 REVERT JUMPDEST POP PUSH2 0x41D PUSH2 0x88B CALLDATASIZE PUSH1 0x4 PUSH2 0x2A53 JUMP JUMPDEST PUSH2 0x14A2 JUMP JUMPDEST CALLVALUE DUP1 ISZERO PUSH2 0x89C JUMPI PUSH1 0x0 DUP1 REVERT JUMPDEST POP PUSH2 0x3C8 PUSH1 0x11 SLOAD DUP2 JUMP JUMPDEST CALLVALUE DUP1 ISZERO PUSH2 0x8B2 JUMPI PUSH1 0x0 DUP1 REVERT JUMPDEST POP PUSH2 0x43F PUSH2 0x8C1 CALLDATASIZE PUSH1 0x4 PUSH2 0x29C4 JUMP JUMPDEST PUSH2 0x151B JUMP JUMPDEST CALLVALUE DUP1 ISZERO PUSH2 0x8D2 JUMPI PUSH1 0x0 DUP1 REVERT JUMPDEST POP PUSH2 0x41D PUSH2 0x8E1 CALLDATASIZE PUSH1 0x4 PUSH2 0x2A6C JUMP JUMPDEST PUSH2 0x1602 JUMP JUMPDEST CALLVALUE DUP1 ISZERO PUSH2 0x8F2 JUMPI PUSH1 0x0 DUP1 REVERT JUMPDEST POP PUSH2 0x5D8 PUSH32 0x0 DUP2 JUMP JUMPDEST CALLVALUE DUP1 ISZERO PUSH2 0x926 JUMPI PUSH1 0x0 DUP1 REVERT JUMPDEST POP PUSH2 0x43F PUSH2 0x935 CALLDATASIZE PUSH1 0x4 PUSH2 0x29C4 JUMP JUMPDEST PUSH2 0x1692 JUMP JUMPDEST CALLVALUE DUP1 ISZERO PUSH2 0x946 JUMPI PUSH1 0x0 DUP1 REVERT JUMPDEST POP PUSH2 0x3C8 PUSH1 0xB SLOAD DUP2 JUMP JUMPDEST CALLVALUE DUP1 ISZERO PUSH2 0x95C JUMPI PUSH1 0x0 DUP1 REVERT JUMPDEST POP PUSH2 0x3C8 PUSH1 0x9 SLOAD DUP2 JUMP JUMPDEST CALLVALUE DUP1 ISZERO PUSH2 0x972 JUMPI PUSH1 0x0 DUP1 REVERT JUMPDEST POP PUSH2 0x41D PUSH2 0x16A9 JUMP JUMPDEST CALLVALUE DUP1 ISZERO PUSH2 0x987 JUMPI PUSH1 0x0 DUP1 REVERT JUMPDEST POP PUSH2 0x3C8 PUSH1 0x8 SLOAD DUP2 JUMP JUMPDEST CALLVALUE DUP1 ISZERO PUSH2 0x99D JUMPI PUSH1 0x0 DUP1 REVERT JUMPDEST POP PUSH2 0x41D PUSH2 0x9AC CALLDATASIZE PUSH1 0x4 PUSH2 0x2AA5 JUMP JUMPDEST PUSH2 0x1724 JUMP JUMPDEST CALLVALUE DUP1 ISZERO PUSH2 0x9BD JUMPI PUSH1 0x0 DUP1 REVERT JUMPDEST POP PUSH2 0x3C8 PUSH1 0x14 SLOAD DUP2 JUMP JUMPDEST CALLVALUE DUP1 ISZERO PUSH2 0x9D3 JUMPI PUSH1 0x0 DUP1 REVERT JUMPDEST POP PUSH2 0x3C8 PUSH1 0xA SLOAD DUP2 JUMP JUMPDEST CALLVALUE DUP1 ISZERO PUSH2 0x9E9 JUMPI PUSH1 0x0 DUP1 REVERT JUMPDEST POP PUSH2 0x3C8 PUSH1 0x19 SLOAD DUP2 JUMP JUMPDEST CALLVALUE DUP1 ISZERO PUSH2 0x9FF JUMPI PUSH1 0x0 DUP1 REVERT JUMPDEST POP PUSH2 0x3C8 PUSH1 0xE SLOAD DUP2 JUMP JUMPDEST CALLVALUE DUP1 ISZERO PUSH2 0xA15 JUMPI PUSH1 0x0 DUP1 REVERT JUMPDEST POP PUSH1 0x17 SLOAD PUSH2 0x5D8 SWAP1 PUSH1 0x1 PUSH1 0x1 PUSH1 0xA0 SHL SUB AND DUP2 JUMP JUMPDEST CALLVALUE DUP1 ISZERO PUSH2 0xA35 JUMPI PUSH1 0x0 DUP1 REVERT JUMPDEST POP PUSH2 0x5D8 PUSH32 0x0 DUP2 JUMP JUMPDEST CALLVALUE DUP1 ISZERO PUSH2 0xA69 JUMPI PUSH1 0x0 DUP1 REVERT JUMPDEST POP PUSH2 0x43F PUSH2 0xA78 CALLDATASIZE PUSH1 0x4 PUSH2 0x29A7 JUMP JUMPDEST PUSH1 0x1 PUSH1 0x1 PUSH1 0xA0 SHL SUB AND PUSH1 0x0 SWAP1 DUP2 MSTORE PUSH1 0x4 PUSH1 0x20 MSTORE PUSH1 0x40 SWAP1 KECCAK256 SLOAD PUSH1 0xFF AND SWAP1 JUMP JUMPDEST CALLVALUE DUP1 ISZERO PUSH2 0xAA2 JUMPI PUSH1 0x0 DUP1 REVERT JUMPDEST POP PUSH2 0x3C8 PUSH2 0xAB1 CALLDATASIZE PUSH1 0x4 PUSH2 0x2A6C JUMP JUMPDEST PUSH1 0x1 PUSH1 0x1 PUSH1 0xA0 SHL SUB SWAP2 DUP3 AND PUSH1 0x0 SWAP1 DUP2 MSTORE PUSH1 0x1C PUSH1 0x20 SWAP1 DUP2 MSTORE PUSH1 0x40 DUP1 DUP4 KECCAK256 SWAP4 SWAP1 SWAP5 AND DUP3 MSTORE SWAP2 SWAP1 SWAP2 MSTORE KECCAK256 SLOAD SWAP1 JUMP JUMPDEST CALLVALUE DUP1 ISZERO PUSH2 0xAE8 JUMPI PUSH1 0x0 DUP1 REVERT JUMPDEST POP PUSH2 0x41D PUSH2 0xAF7 CALLDATASIZE PUSH1 0x4 PUSH2 0x29A7 JUMP JUMPDEST PUSH2 0x1813 JUMP JUMPDEST CALLVALUE DUP1 ISZERO PUSH2 0xB08 JUMPI PUSH1 0x0 DUP1 REVERT JUMPDEST POP PUSH1 0x15 SLOAD PUSH2 0x5D8 SWAP1 PUSH1 0x1 PUSH1 0x1 PUSH1 0xA0 SHL SUB AND DUP2 JUMP JUMPDEST CALLVALUE DUP1 ISZERO PUSH2 0xB28 JUMPI PUSH1 0x0 DUP1 REVERT JUMPDEST POP PUSH2 0x41D PUSH2 0xB37 CALLDATASIZE PUSH1 0x4 PUSH2 0x2AEE JUMP JUMPDEST PUSH2 0x1841 JUMP JUMPDEST CALLVALUE DUP1 ISZERO PUSH2 0xB48 JUMPI PUSH1 0x0 DUP1 REVERT JUMPDEST POP PUSH2 0x5D8 PUSH32 0x0 DUP2 JUMP JUMPDEST CALLVALUE DUP1 ISZERO PUSH2 0xB7C JUMPI PUSH1 0x0 DUP1 REVERT JUMPDEST POP PUSH2 0x3C8 PUSH1 0x13 SLOAD DUP2 JUMP JUMPDEST PUSH1 0x60 PUSH1 0x0 DUP1 SLOAD PUSH2 0xB95 SWAP1 PUSH2 0x2B1C JUMP JUMPDEST DUP1 PUSH1 0x1F ADD PUSH1 0x20 DUP1 SWAP2 DIV MUL PUSH1 0x20 ADD PUSH1 0x40 MLOAD SWAP1 DUP2 ADD PUSH1 0x40 MSTORE DUP1 SWAP3 SWAP2 SWAP1 DUP2 DUP2 MSTORE PUSH1 0x20 ADD DUP3 DUP1 SLOAD PUSH2 0xBC1 SWAP1 PUSH2 0x2B1C JUMP JUMPDEST DUP1 ISZERO PUSH2 0xC0E JUMPI DUP1 PUSH1 0x1F LT PUSH2 0xBE3 JUMPI PUSH2 0x100 DUP1 DUP4 SLOAD DIV MUL DUP4 MSTORE SWAP2 PUSH1 0x20 ADD SWAP2 PUSH2 0xC0E JUMP JUMPDEST DUP3 ADD SWAP2 SWAP1 PUSH1 0x0 MSTORE PUSH1 0x20 PUSH1 0x0 KECCAK256 SWAP1 JUMPDEST DUP2 SLOAD DUP2 MSTORE SWAP1 PUSH1 0x1 ADD SWAP1 PUSH1 0x20 ADD DUP1 DUP4 GT PUSH2 0xBF1 JUMPI DUP3 SWAP1 SUB PUSH1 0x1F AND DUP3 ADD SWAP2 JUMPDEST POP POP POP POP POP SWAP1 POP SWAP1 JUMP JUMPDEST PUSH2 0xC31 PUSH1 0x2 SLOAD PUSH2 0x100 SWAP1 DIV PUSH1 0x1 PUSH1 0x1 PUSH1 0xA0 SHL SUB AND CALLER EQ SWAP1 JUMP JUMPDEST PUSH2 0xC3A JUMPI PUSH1 0x0 DUP1 REVERT JUMPDEST PUSH1 0x40 MLOAD PUSH4 0x710FB45 PUSH1 0xE0 SHL DUP2 MSTORE PUSH1 0x1 PUSH1 0x1 PUSH1 0xA0 SHL SUB DUP3 DUP2 AND PUSH1 0x4 DUP4 ADD MSTORE PUSH32 0x0 AND SWAP1 PUSH4 0x710FB45 SWAP1 PUSH1 0x24 ADD PUSH1 0x0 PUSH1 0x40 MLOAD DUP1 DUP4 SUB DUP2 PUSH1 0x0 DUP8 DUP1 EXTCODESIZE ISZERO DUP1 ISZERO PUSH2 0xC9D JUMPI PUSH1 0x0 DUP1 REVERT JUMPDEST POP GAS CALL ISZERO DUP1 ISZERO PUSH2 0xCB1 JUMPI RETURNDATASIZE PUSH1 0x0 DUP1 RETURNDATACOPY RETURNDATASIZE PUSH1 0x0 REVERT JUMPDEST POP POP POP PUSH1 0x1 PUSH1 0x1 PUSH1 0xA0 SHL SUB SWAP1 SWAP2 AND PUSH1 0x0 SWAP1 DUP2 MSTORE PUSH1 0x4 PUSH1 0x20 MSTORE PUSH1 0x40 SWAP1 KECCAK256 DUP1 SLOAD PUSH1 0xFF NOT AND PUSH1 0x1 OR SWAP1 SSTORE POP JUMP JUMPDEST CALLER PUSH1 0x0 DUP2 DUP2 MSTORE PUSH1 0x1C PUSH1 0x20 SWAP1 DUP2 MSTORE PUSH1 0x40 DUP1 DUP4 KECCAK256 PUSH1 0x1 PUSH1 0x1 PUSH1 0xA0 SHL SUB DUP8 AND DUP1 DUP6 MSTORE SWAP3 MSTORE DUP1 DUP4 KECCAK256 DUP6 SWAP1 SSTORE MLOAD SWAP2 SWAP3 SWAP1 SWAP2 PUSH32 0x8C5BE1E5EBEC7D5BD14F71427D1E84F3DD0314C0F7B2291E5B200AC8C7C3B925 SWAP1 PUSH2 0xD36 SWAP1 DUP7 DUP2 MSTORE PUSH1 0x20 ADD SWAP1 JUMP JUMPDEST PUSH1 0x40 MLOAD DUP1 SWAP2 SUB SWAP1 LOG3 POP PUSH1 0x1 JUMPDEST SWAP3 SWAP2 POP POP JUMP JUMPDEST PUSH1 0x1 PUSH1 0x1 PUSH1 0xA0 SHL SUB DUP4 AND PUSH1 0x0 SWAP1 DUP2 MSTORE PUSH1 0x1C PUSH1 0x20 SWAP1 DUP2 MSTORE PUSH1 0x40 DUP1 DUP4 KECCAK256 CALLER DUP5 MSTORE SWAP1 SWAP2 MSTORE DUP2 KECCAK256 SLOAD PUSH16 0xFFFFFFFFFFFFFFFFFFFFFFFFFFFFFFFF EQ PUSH2 0xE03 JUMPI PUSH1 0x40 DUP1 MLOAD DUP1 DUP3 ADD DUP3 MSTORE PUSH1 0x16 DUP2 MSTORE PUSH22 0x496E73756666696369656E7420416C6C6F77616E6365 PUSH1 0x50 SHL PUSH1 0x20 DUP1 DUP4 ADD SWAP2 SWAP1 SWAP2 MSTORE PUSH1 0x1 PUSH1 0x1 PUSH1 0xA0 SHL SUB DUP8 AND PUSH1 0x0 SWAP1 DUP2 MSTORE PUSH1 0x1C DUP3 MSTORE DUP4 DUP2 KECCAK256 CALLER DUP3 MSTORE SWAP1 SWAP2 MSTORE SWAP2 SWAP1 SWAP2 KECCAK256 SLOAD PUSH2 0xDDE SWAP2 DUP5 SWAP1 PUSH2 0x1A18 JUMP JUMPDEST PUSH1 0x1 PUSH1 0x1 PUSH1 0xA0 SHL SUB DUP6 AND PUSH1 0x0 SWAP1 DUP2 MSTORE PUSH1 0x1C PUSH1 0x20 SWAP1 DUP2 MSTORE PUSH1 0x40 DUP1 DUP4 KECCAK256 CALLER DUP5 MSTORE SWAP1 SWAP2 MSTORE SWAP1 KECCAK256 SSTORE JUMPDEST PUSH2 0xE0E DUP5 DUP5 DUP5 PUSH2 0x1A52 JUMP JUMPDEST POP PUSH1 0x1 SWAP1 POP JUMPDEST SWAP4 SWAP3 POP POP POP JUMP JUMPDEST PUSH2 0xE34 PUSH1 0x2 SLOAD PUSH2 0x100 SWAP1 DIV PUSH1 0x1 PUSH1 0x1 PUSH1 0xA0 SHL SUB AND CALLER EQ SWAP1 JUMP JUMPDEST PUSH2 0xE3D JUMPI PUSH1 0x0 DUP1 REVERT JUMPDEST PUSH1 0x40 MLOAD PUSH4 0x16A4744B PUSH1 0xE1 SHL DUP2 MSTORE PUSH1 0x4 DUP2 ADD DUP4 SWAP1 MSTORE PUSH1 0x24 DUP2 ADD DUP3 SWAP1 MSTORE PUSH32 0x0 PUSH1 0x1 PUSH1 0x1 PUSH1 0xA0 SHL SUB AND SWAP1 PUSH4 0x2D48E896 SWAP1 PUSH1 0x44 ADD JUMPDEST PUSH1 0x0 PUSH1 0x40 MLOAD DUP1 DUP4 SUB DUP2 PUSH1 0x0 DUP8 DUP1 EXTCODESIZE ISZERO DUP1 ISZERO PUSH2 0xEA7 JUMPI PUSH1 0x0 DUP1 REVERT JUMPDEST POP GAS CALL ISZERO DUP1 ISZERO PUSH2 0xEBB JUMPI RETURNDATASIZE PUSH1 0x0 DUP1 RETURNDATACOPY RETURNDATASIZE PUSH1 0x0 REVERT JUMPDEST POP POP POP POP POP POP JUMP JUMPDEST PUSH2 0xEDC PUSH1 0x2 SLOAD PUSH2 0x100 SWAP1 DIV PUSH1 0x1 PUSH1 0x1 PUSH1 0xA0 SHL SUB AND CALLER EQ SWAP1 JUMP JUMPDEST PUSH2 0xEE5 JUMPI PUSH1 0x0 DUP1 REVERT JUMPDEST PUSH1 0x3 DUP1 SLOAD PUSH1 0x1 PUSH1 0x1 PUSH1 0xA0 SHL SUB NOT AND PUSH1 0x1 PUSH1 0x1 PUSH1 0xA0 SHL SUB SWAP3 SWAP1 SWAP3 AND SWAP2 SWAP1 SWAP2 OR SWAP1 SSTORE JUMP JUMPDEST CALLER PUSH1 0x0 SWAP1 DUP2 MSTORE PUSH1 0x1C PUSH1 0x20 SWAP1 DUP2 MSTORE PUSH1 0x40 DUP1 DUP4 KECCAK256 PUSH1 0x1 PUSH1 0x1 PUSH1 0xA0 SHL SUB DUP7 AND DUP5 MSTORE SWAP1 SWAP2 MSTORE DUP2 KECCAK256 SLOAD PUSH2 0xF35 SWAP1 DUP4 PUSH2 0x19B9 JUMP JUMPDEST CALLER PUSH1 0x0 DUP2 DUP2 MSTORE PUSH1 0x1C PUSH1 0x20 SWAP1 DUP2 MSTORE PUSH1 0x40 DUP1 DUP4 KECCAK256 PUSH1 0x1 PUSH1 0x1 PUSH1 0xA0 SHL SUB DUP10 AND DUP1 DUP6 MSTORE SWAP1 DUP4 MSTORE SWAP3 DUP2 SWAP1 KECCAK256 DUP6 SWAP1 SSTORE MLOAD SWAP4 DUP5 MSTORE SWAP1 SWAP3 PUSH32 0x8C5BE1E5EBEC7D5BD14F71427D1E84F3DD0314C0F7B2291E5B200AC8C7C3B925 SWAP2 ADD PUSH2 0xD36 JUMP JUMPDEST PUSH2 0xFA5 PUSH1 0x2 SLOAD PUSH2 0x100 SWAP1 DIV PUSH1 0x1 PUSH1 0x1 PUSH1 0xA0 SHL SUB AND CALLER EQ SWAP1 JUMP JUMPDEST PUSH2 0xFAE JUMPI PUSH1 0x0 DUP1 REVERT JUMPDEST PUSH1 0x40 MLOAD CALLER SWAP1 DUP3 ISZERO PUSH2 0x8FC MUL SWAP1 DUP4 SWAP1 PUSH1 0x0 DUP2 DUP2 DUP2 DUP6 DUP9 DUP9 CALL SWAP4 POP POP POP POP ISZERO DUP1 ISZERO PUSH2 0xFDB JUMPI RETURNDATASIZE PUSH1 0x0 DUP1 RETURNDATACOPY RETURNDATASIZE PUSH1 0x0 REVERT JUMPDEST POP POP JUMP JUMPDEST PUSH1 0x0 PUSH2 0xFFA PUSH1 0x2 SLOAD PUSH2 0x100 SWAP1 DIV PUSH1 0x1 PUSH1 0x1 PUSH1 0xA0 SHL SUB AND CALLER EQ SWAP1 JUMP JUMPDEST PUSH2 0x1003 JUMPI PUSH1 0x0 DUP1 REVERT JUMPDEST PUSH1 0x40 MLOAD PUSH4 0x70A08231 PUSH1 0xE0 SHL DUP2 MSTORE ADDRESS PUSH1 0x4 DUP3 ADD MSTORE PUSH1 0x0 SWAP1 PUSH1 0x1 PUSH1 0x1 PUSH1 0xA0 SHL SUB DUP6 AND SWAP1 PUSH4 0x70A08231 SWAP1 PUSH1 0x24 ADD PUSH1 0x20 PUSH1 0x40 MLOAD DUP1 DUP4 SUB DUP2 DUP7 GAS STATICCALL ISZERO DUP1 ISZERO PUSH2 0x104A JUMPI RETURNDATASIZE PUSH1 0x0 DUP1 RETURNDATACOPY RETURNDATASIZE PUSH1 0x0 REVERT JUMPDEST POP POP POP POP PUSH1 0x40 MLOAD RETURNDATASIZE PUSH1 0x1F NOT PUSH1 0x1F DUP3 ADD AND DUP3 ADD DUP1 PUSH1 0x40 MSTORE POP DUP2 ADD SWAP1 PUSH2 0x106E SWAP2 SWAP1 PUSH2 0x2B56 JUMP JUMPDEST PUSH1 0x40 MLOAD PUSH4 0xA9059CBB PUSH1 0xE0 SHL DUP2 MSTORE PUSH1 0x1 PUSH1 0x1 PUSH1 0xA0 SHL SUB DUP6 DUP2 AND PUSH1 0x4 DUP4 ADD MSTORE PUSH1 0x24 DUP3 ADD DUP4 SWAP1 MSTORE SWAP2 SWAP3 POP SWAP1 DUP6 AND SWAP1 PUSH4 0xA9059CBB SWAP1 PUSH1 0x44 ADD PUSH1 0x20 PUSH1 0x40 MLOAD DUP1 DUP4 SUB DUP2 PUSH1 0x0 DUP8 GAS CALL ISZERO DUP1 ISZERO PUSH2 0x10C1 JUMPI RETURNDATASIZE PUSH1 0x0 DUP1 RETURNDATACOPY RETURNDATASIZE PUSH1 0x0 REVERT JUMPDEST POP POP POP POP PUSH1 0x40 MLOAD RETURNDATASIZE PUSH1 0x1F NOT PUSH1 0x1F DUP3 ADD AND DUP3 ADD DUP1 PUSH1 0x40 MSTORE POP DUP2 ADD SWAP1 PUSH2 0x10E5 SWAP2 SWAP1 PUSH2 0x2B6F JUMP JUMPDEST SWAP5 SWAP4 POP POP POP POP JUMP JUMPDEST PUSH2 0x1106 PUSH1 0x2 SLOAD PUSH2 0x100 SWAP1 DIV PUSH1 0x1 PUSH1 0x1 PUSH1 0xA0 SHL SUB AND CALLER EQ SWAP1 JUMP JUMPDEST PUSH2 0x110F JUMPI PUSH1 0x0 DUP1 REVERT JUMPDEST PUSH1 0xE DUP6 SWAP1 SSTORE PUSH1 0x8 DUP4 SWAP1 SSTORE PUSH1 0xA DUP5 SWAP1 SSTORE PUSH1 0xC DUP3 SWAP1 SSTORE PUSH1 0x6 DUP2 SWAP1 SSTORE PUSH2 0x1140 DUP2 PUSH2 0x113A DUP5 DUP2 DUP9 DUP2 DUP12 DUP11 PUSH2 0x19B9 JUMP JUMPDEST SWAP1 PUSH2 0x19B9 JUMP JUMPDEST PUSH1 0x10 DUP2 SWAP1 SSTORE PUSH1 0xFA LT ISZERO PUSH2 0x119A JUMPI PUSH1 0x40 MLOAD PUSH3 0x461BCD PUSH1 0xE5 SHL DUP2 MSTORE PUSH1 0x20 PUSH1 0x4 DUP3 ADD MSTORE PUSH1 0x1D PUSH1 0x24 DUP3 ADD MSTORE PUSH32 0x4D757374206B656570206665657320617420323525206F72206C657373000000 PUSH1 0x44 DUP3 ADD MSTORE PUSH1 0x64 ADD JUMPDEST PUSH1 0x40 MLOAD DUP1 SWAP2 SUB SWAP1 REVERT JUMPDEST PUSH1 0x40 DUP1 MLOAD DUP7 DUP2 MSTORE PUSH1 0x20 DUP2 ADD DUP6 SWAP1 MSTORE SWAP1 DUP2 ADD DUP6 SWAP1 MSTORE PUSH1 0x60 DUP2 ADD DUP4 SWAP1 MSTORE PUSH1 0x80 DUP2 ADD DUP3 SWAP1 MSTORE PUSH32 0x1385F2C2C567967BC821BDF21935668A3C71EF526D329ED34BBA1D574333B7AD SWAP1 PUSH1 0xA0 ADD JUMPDEST PUSH1 0x40 MLOAD DUP1 SWAP2 SUB SWAP1 LOG1 POP POP POP POP POP JUMP JUMPDEST PUSH2 0x120A PUSH1 0x2 SLOAD PUSH2 0x100 SWAP1 DIV PUSH1 0x1 PUSH1 0x1 PUSH1 0xA0 SHL SUB AND CALLER EQ SWAP1 JUMP JUMPDEST PUSH2 0x1213 JUMPI PUSH1 0x0 DUP1 REVERT JUMPDEST PUSH1 0x1 DUP2 LT ISZERO PUSH2 0x1282 JUMPI PUSH1 0x40 MLOAD PUSH3 0x461BCD PUSH1 0xE5 SHL DUP2 MSTORE PUSH1 0x20 PUSH1 0x4 DUP3 ADD MSTORE PUSH1 0x35 PUSH1 0x24 DUP3 ADD MSTORE PUSH32 0x4D61782077616C6C6574206D7573742062652067726561746572207468616E20 PUSH1 0x44 DUP3 ADD MSTORE PUSH21 0x302E303125206F6620546F74616C20537570706C79 PUSH1 0x58 SHL PUSH1 0x64 DUP3 ADD MSTORE PUSH1 0x84 ADD PUSH2 0x1191 JUMP JUMPDEST PUSH2 0x2710 PUSH2 0x12AF PUSH32 0x0 DUP4 PUSH2 0x2BA2 JUMP JUMPDEST PUSH2 0x12B9 SWAP2 SWAP1 PUSH2 0x2BB9 JUMP JUMPDEST PUSH1 0x13 SSTORE POP JUMP JUMPDEST PUSH2 0x12D8 PUSH1 0x2 SLOAD PUSH2 0x100 SWAP1 DIV PUSH1 0x1 PUSH1 0x1 PUSH1 0xA0 SHL SUB AND CALLER EQ SWAP1 JUMP JUMPDEST PUSH2 0x12E1 JUMPI PUSH1 0x0 DUP1 REVERT JUMPDEST PUSH1 0x2 SLOAD PUSH1 0x40 MLOAD PUSH2 0x100 SWAP1 SWAP2 DIV PUSH1 0x1 PUSH1 0x1 PUSH1 0xA0 SHL SUB AND SWAP1 PUSH32 0xF8DF31144D9C2F0F6B59D69B8B98ABD5459D07F2742C4DF920B25AAE33C64820 SWAP1 PUSH1 0x0 SWAP1 LOG2 PUSH1 0x2 DUP1 SLOAD PUSH2 0x100 PUSH1 0x1 PUSH1 0xA8 SHL SUB NOT AND SWAP1 SSTORE JUMP JUMPDEST PUSH2 0x1349 PUSH1 0x2 SLOAD PUSH2 0x100 SWAP1 DIV PUSH1 0x1 PUSH1 0x1 PUSH1 0xA0 SHL SUB AND CALLER EQ SWAP1 JUMP JUMPDEST PUSH2 0x1352 JUMPI PUSH1 0x0 DUP1 REVERT JUMPDEST PUSH1 0x19 DUP2 SWAP1 SSTORE PUSH1 0x40 MLOAD DUP2 DUP2 MSTORE PUSH32 0x724662B0107AA55AE3D489082EF31EA9F1CA77F7300160C5355DB1B279DC387F SWAP1 PUSH1 0x20 ADD PUSH1 0x40 MLOAD DUP1 SWAP2 SUB SWAP1 LOG1 POP JUMP JUMPDEST PUSH2 0x13A6 PUSH1 0x2 SLOAD PUSH2 0x100 SWAP1 DIV PUSH1 0x1 PUSH1 0x1 PUSH1 0xA0 SHL SUB AND CALLER EQ SWAP1 JUMP JUMPDEST PUSH2 0x13AF JUMPI PUSH1 0x0 DUP1 REVERT JUMPDEST PUSH1 0x1 PUSH1 0x1 PUSH1 0xA0 SHL SUB AND PUSH1 0x0 SWAP1 DUP2 MSTORE PUSH1 0x4 PUSH1 0x20 MSTORE PUSH1 0x40 SWAP1 KECCAK256 DUP1 SLOAD PUSH1 0xFF NOT AND PUSH1 0x1 OR SWAP1 SSTORE JUMP JUMPDEST PUSH2 0x13EC PUSH1 0x2 SLOAD PUSH2 0x100 SWAP1 DIV PUSH1 0x1 PUSH1 0x1 PUSH1 0xA0 SHL SUB AND CALLER EQ SWAP1 JUMP JUMPDEST PUSH2 0x13F5 JUMPI PUSH1 0x0 DUP1 REVERT JUMPDEST PUSH1 0x40 MLOAD PUSH4 0x8AEE8127 PUSH1 0xE0 SHL DUP2 MSTORE PUSH1 0x1 PUSH1 0x1 PUSH1 0xA0 SHL SUB DUP3 DUP2 AND PUSH1 0x4 DUP4 ADD MSTORE PUSH32 0x0 AND SWAP1 PUSH4 0x8AEE8127 SWAP1 PUSH1 0x24 ADD PUSH1 0x0 PUSH1 0x40 MLOAD DUP1 DUP4 SUB DUP2 PUSH1 0x0 DUP8 DUP1 EXTCODESIZE ISZERO DUP1 ISZERO PUSH2 0x1458 JUMPI PUSH1 0x0 DUP1 REVERT JUMPDEST POP GAS CALL ISZERO DUP1 ISZERO PUSH2 0x146C JUMPI RETURNDATASIZE PUSH1 0x0 DUP1 RETURNDATACOPY RETURNDATASIZE PUSH1 0x0 REVERT JUMPDEST POP POP PUSH1 0x5 DUP1 SLOAD PUSH1 0x1 PUSH1 0x1 PUSH1 0xA0 SHL SUB NOT AND PUSH1 0x1 PUSH1 0x1 PUSH1 0xA0 SHL SUB SWAP5 SWAP1 SWAP5 AND SWAP4 SWAP1 SWAP4 OR SWAP1 SWAP3 SSTORE POP POP JUMP JUMPDEST PUSH1 0x60 PUSH1 0x1 DUP1 SLOAD PUSH2 0xB95 SWAP1 PUSH2 0x2B1C JUMP JUMPDEST PUSH2 0x14BB PUSH1 0x2 SLOAD PUSH2 0x100 SWAP1 DIV PUSH1 0x1 PUSH1 0x1 PUSH1 0xA0 SHL SUB AND CALLER EQ SWAP1 JUMP JUMPDEST PUSH2 0x14C4 JUMPI PUSH1 0x0 DUP1 REVERT JUMPDEST PUSH3 0xB71B0 DUP2 LT PUSH2 0x1516 JUMPI PUSH1 0x40 MLOAD PUSH3 0x461BCD PUSH1 0xE5 SHL DUP2 MSTORE PUSH1 0x20 PUSH1 0x4 DUP3 ADD MSTORE PUSH1 0x1D PUSH1 0x24 DUP3 ADD MSTORE PUSH32 0x476173206D757374206265206C6F776572207468616E20373530303030000000 PUSH1 0x44 DUP3 ADD MSTORE PUSH1 0x64 ADD PUSH2 0x1191 JUMP JUMPDEST PUSH1 0x18 SSTORE JUMP JUMPDEST CALLER PUSH1 0x0 SWAP1 DUP2 MSTORE PUSH1 0x1C PUSH1 0x20 SWAP1 DUP2 MSTORE PUSH1 0x40 DUP1 DUP4 KECCAK256 PUSH1 0x1 PUSH1 0x1 PUSH1 0xA0 SHL SUB DUP7 AND DUP5 MSTORE SWAP1 SWAP2 MSTORE DUP2 KECCAK256 SLOAD DUP1 DUP4 LT PUSH2 0x156F JUMPI CALLER PUSH1 0x0 SWAP1 DUP2 MSTORE PUSH1 0x1C PUSH1 0x20 SWAP1 DUP2 MSTORE PUSH1 0x40 DUP1 DUP4 KECCAK256 PUSH1 0x1 PUSH1 0x1 PUSH1 0xA0 SHL SUB DUP9 AND DUP5 MSTORE SWAP1 SWAP2 MSTORE DUP2 KECCAK256 SSTORE PUSH2 0x159E JUMP JUMPDEST PUSH2 0x1579 DUP2 DUP5 PUSH2 0x1F40 JUMP JUMPDEST CALLER PUSH1 0x0 SWAP1 DUP2 MSTORE PUSH1 0x1C PUSH1 0x20 SWAP1 DUP2 MSTORE PUSH1 0x40 DUP1 DUP4 KECCAK256 PUSH1 0x1 PUSH1 0x1 PUSH1 0xA0 SHL SUB DUP10 AND DUP5 MSTORE SWAP1 SWAP2 MSTORE SWAP1 KECCAK256 SSTORE JUMPDEST CALLER PUSH1 0x0 DUP2 DUP2 MSTORE PUSH1 0x1C PUSH1 0x20 SWAP1 DUP2 MSTORE PUSH1 0x40 DUP1 DUP4 KECCAK256 PUSH1 0x1 PUSH1 0x1 PUSH1 0xA0 SHL SUB DUP10 AND DUP1 DUP6 MSTORE SWAP1 DUP4 MSTORE SWAP3 DUP2 SWAP1 KECCAK256 SLOAD SWAP1 MLOAD SWAP1 DUP2 MSTORE SWAP2 SWAP3 SWAP2 PUSH32 0x8C5BE1E5EBEC7D5BD14F71427D1E84F3DD0314C0F7B2291E5B200AC8C7C3B925 SWAP2 ADD PUSH1 0x40 MLOAD DUP1 SWAP2 SUB SWAP1 LOG3 POP PUSH1 0x1 SWAP4 SWAP3 POP POP POP JUMP JUMPDEST PUSH2 0x161B PUSH1 0x2 SLOAD PUSH2 0x100 SWAP1 DIV PUSH1 0x1 PUSH1 0x1 PUSH1 0xA0 SHL SUB AND CALLER EQ SWAP1 JUMP JUMPDEST PUSH2 0x1624 JUMPI PUSH1 0x0 DUP1 REVERT JUMPDEST PUSH1 0x15 DUP1 SLOAD PUSH1 0x1 PUSH1 0x1 PUSH1 0xA0 SHL SUB DUP5 DUP2 AND PUSH1 0x1 PUSH1 0x1 PUSH1 0xA0 SHL SUB NOT SWAP3 DUP4 AND DUP2 OR SWAP1 SWAP4 SSTORE PUSH1 0x16 DUP1 SLOAD SWAP2 DUP6 AND SWAP2 SWAP1 SWAP3 AND DUP2 OR SWAP1 SWAP2 SSTORE PUSH1 0x40 DUP1 MLOAD SWAP3 DUP4 MSTORE PUSH1 0x20 DUP4 ADD SWAP2 SWAP1 SWAP2 MSTORE PUSH32 0x71AA1FC168F4B314943F7510C82F58650F0FCDF4EC4BB48F62CF4D7AD0AEED35 SWAP2 ADD PUSH1 0x40 MLOAD DUP1 SWAP2 SUB SWAP1 LOG1 POP POP JUMP JUMPDEST PUSH1 0x0 PUSH2 0x169F CALLER DUP5 DUP5 PUSH2 0x1A52 JUMP JUMPDEST POP PUSH1 0x1 SWAP4 SWAP3 POP POP POP JUMP JUMPDEST PUSH2 0x16C2 PUSH1 0x2 SLOAD PUSH2 0x100 SWAP1 DIV PUSH1 0x1 PUSH1 0x1 PUSH1 0xA0 SHL SUB AND CALLER EQ SWAP1 JUMP JUMPDEST PUSH2 0x16CB JUMPI PUSH1 0x0 DUP1 REVERT JUMPDEST PUSH1 0x1A DUP1 SLOAD PUSH2 0xFF00 NOT AND PUSH2 0x100 SWAP1 DUP2 OR SWAP2 DUP3 SWAP1 SSTORE TIMESTAMP PUSH1 0x12 SSTORE PUSH1 0x40 MLOAD PUSH32 0xB9BBB15E341600C8D067A0CADEBA219905D5BA6D422B193C9C32265D26FC51C8 SWAP3 PUSH2 0x171A SWAP3 SWAP1 DIV PUSH1 0xFF AND ISZERO ISZERO DUP2 MSTORE PUSH1 0x20 ADD SWAP1 JUMP JUMPDEST PUSH1 0x40 MLOAD DUP1 SWAP2 SUB SWAP1 LOG1 JUMP JUMPDEST PUSH2 0x173D PUSH1 0x2 SLOAD PUSH2 0x100 SWAP1 DIV PUSH1 0x1 PUSH1 0x1 PUSH1 0xA0 SHL SUB AND CALLER EQ SWAP1 JUMP JUMPDEST PUSH2 0x1746 JUMPI PUSH1 0x0 DUP1 REVERT JUMPDEST PUSH1 0xF DUP6 SWAP1 SSTORE PUSH1 0x9 DUP4 SWAP1 SSTORE PUSH1 0xB DUP5 SWAP1 SSTORE PUSH1 0xD DUP3 SWAP1 SSTORE PUSH1 0x7 DUP2 SWAP1 SSTORE PUSH2 0x1771 DUP2 PUSH2 0x113A DUP5 DUP2 DUP9 DUP2 DUP12 DUP11 PUSH2 0x19B9 JUMP JUMPDEST PUSH1 0x10 SSTORE PUSH1 0x11 SLOAD PUSH1 0xFA LT ISZERO PUSH2 0x17C7 JUMPI PUSH1 0x40 MLOAD PUSH3 0x461BCD PUSH1 0xE5 SHL DUP2 MSTORE PUSH1 0x20 PUSH1 0x4 DUP3 ADD MSTORE PUSH1 0x1D PUSH1 0x24 DUP3 ADD MSTORE PUSH32 0x4D757374206B656570206665657320617420323525206F72206C657373000000 PUSH1 0x44 DUP3 ADD MSTORE PUSH1 0x64 ADD PUSH2 0x1191 JUMP JUMPDEST PUSH1 0x40 DUP1 MLOAD DUP7 DUP2 MSTORE PUSH1 0x20 DUP2 ADD DUP6 SWAP1 MSTORE SWAP1 DUP2 ADD DUP6 SWAP1 MSTORE PUSH1 0x60 DUP2 ADD DUP4 SWAP1 MSTORE PUSH1 0x80 DUP2 ADD DUP3 SWAP1 MSTORE PUSH32 0xFDD7C66A68B70FA92B44BC177E5154FE4AE8A19E8FC2920396A5EA2DB9A78332 SWAP1 PUSH1 0xA0 ADD PUSH2 0x11E2 JUMP JUMPDEST PUSH2 0x182C PUSH1 0x2 SLOAD PUSH2 0x100 SWAP1 DIV PUSH1 0x1 PUSH1 0x1 PUSH1 0xA0 SHL SUB AND CALLER EQ SWAP1 JUMP JUMPDEST PUSH2 0x1835 JUMPI PUSH1 0x0 DUP1 REVERT JUMPDEST PUSH2 0x183E DUP2 PUSH2 0x1F82 JUMP JUMPDEST POP JUMP JUMPDEST PUSH2 0x185A PUSH1 0x2 SLOAD PUSH2 0x100 SWAP1 DIV PUSH1 0x1 PUSH1 0x1 PUSH1 0xA0 SHL SUB AND CALLER EQ SWAP1 JUMP JUMPDEST PUSH2 0x1863 JUMPI PUSH1 0x0 DUP1 REVERT JUMPDEST PUSH1 0x1 PUSH1 0x1 PUSH1 0xA0 SHL SUB DUP3 AND ADDRESS EQ DUP1 ISZERO SWAP1 PUSH2 0x18AE JUMPI POP PUSH32 0x0 PUSH1 0x1 PUSH1 0x1 PUSH1 0xA0 SHL SUB AND DUP3 PUSH1 0x1 PUSH1 0x1 PUSH1 0xA0 SHL SUB AND EQ ISZERO JUMPDEST PUSH2 0x18B7 JUMPI PUSH1 0x0 DUP1 REVERT JUMPDEST PUSH1 0x1 PUSH1 0x1 PUSH1 0xA0 SHL SUB DUP3 AND PUSH1 0x0 SWAP1 DUP2 MSTORE PUSH1 0x1B PUSH1 0x20 MSTORE PUSH1 0x40 SWAP1 KECCAK256 DUP1 SLOAD PUSH1 0xFF NOT AND DUP3 ISZERO DUP1 ISZERO SWAP2 SWAP1 SWAP2 OR SWAP1 SWAP2 SSTORE PUSH2 0x1939 JUMPI PUSH1 0x40 MLOAD PUSH4 0xA5B654B PUSH1 0xE1 SHL DUP2 MSTORE PUSH1 0x1 PUSH1 0x1 PUSH1 0xA0 SHL SUB DUP4 DUP2 AND PUSH1 0x4 DUP4 ADD MSTORE PUSH1 0x0 PUSH1 0x24 DUP4 ADD MSTORE PUSH32 0x0 AND SWAP1 PUSH4 0x14B6CA96 SWAP1 PUSH1 0x44 ADD PUSH2 0xE8D JUMP JUMPDEST PUSH32 0x0 PUSH1 0x1 PUSH1 0x1 PUSH1 0xA0 SHL SUB AND PUSH4 0x14B6CA96 DUP4 PUSH2 0x1988 DUP6 PUSH1 0x1 PUSH1 0x1 PUSH1 0xA0 SHL SUB AND PUSH1 0x0 SWAP1 DUP2 MSTORE PUSH1 0x1D PUSH1 0x20 MSTORE PUSH1 0x40 SWAP1 KECCAK256 SLOAD SWAP1 JUMP JUMPDEST PUSH1 0x40 MLOAD PUSH1 0x1 PUSH1 0x1 PUSH1 0xE0 SHL SUB NOT PUSH1 0xE0 DUP6 SWAP1 SHL AND DUP2 MSTORE PUSH1 0x1 PUSH1 0x1 PUSH1 0xA0 SHL SUB SWAP1 SWAP3 AND PUSH1 0x4 DUP4 ADD MSTORE PUSH1 0x24 DUP3 ADD MSTORE PUSH1 0x44 ADD PUSH2 0xE8D JUMP JUMPDEST PUSH1 0x0 DUP1 PUSH2 0x19C6 DUP4 DUP6 PUSH2 0x2BDB JUMP JUMPDEST SWAP1 POP DUP4 DUP2 LT ISZERO PUSH2 0xE14 JUMPI PUSH1 0x40 MLOAD PUSH3 0x461BCD PUSH1 0xE5 SHL DUP2 MSTORE PUSH1 0x20 PUSH1 0x4 DUP3 ADD MSTORE PUSH1 0x1B PUSH1 0x24 DUP3 ADD MSTORE PUSH32 0x536166654D6174683A206164646974696F6E206F766572666C6F770000000000 PUSH1 0x44 DUP3 ADD MSTORE PUSH1 0x64 ADD PUSH2 0x1191 JUMP JUMPDEST PUSH1 0x0 DUP2 DUP5 DUP5 GT ISZERO PUSH2 0x1A3C JUMPI PUSH1 0x40 MLOAD PUSH3 0x461BCD PUSH1 0xE5 SHL DUP2 MSTORE PUSH1 0x4 ADD PUSH2 0x1191 SWAP2 SWAP1 PUSH2 0x2944 JUMP JUMPDEST POP PUSH1 0x0 PUSH2 0x1A49 DUP5 DUP7 PUSH2 0x2BEE JUMP JUMPDEST SWAP6 SWAP5 POP POP POP POP POP JUMP JUMPDEST PUSH1 0x0 PUSH32 0x0 PUSH1 0x1 PUSH1 0x1 PUSH1 0xA0 SHL SUB AND DUP4 PUSH1 0x1 PUSH1 0x1 PUSH1 0xA0 SHL SUB AND EQ PUSH2 0x1B33 JUMPI PUSH1 0x1 PUSH1 0x1 PUSH1 0xA0 SHL SUB DUP4 AND PUSH1 0x0 SWAP1 DUP2 MSTORE PUSH1 0x4 PUSH1 0x20 MSTORE PUSH1 0x40 SWAP1 KECCAK256 SLOAD PUSH1 0xFF AND PUSH2 0x1B33 JUMPI PUSH1 0x13 SLOAD PUSH1 0x1 PUSH1 0x1 PUSH1 0xA0 SHL SUB DUP5 AND PUSH1 0x0 SWAP1 DUP2 MSTORE PUSH1 0x1D PUSH1 0x20 MSTORE PUSH1 0x40 SWAP1 KECCAK256 SLOAD PUSH2 0x1AD4 SWAP1 DUP5 SWAP1 PUSH2 0x2BDB JUMP JUMPDEST GT ISZERO PUSH2 0x1B33 JUMPI PUSH1 0x40 MLOAD PUSH3 0x461BCD PUSH1 0xE5 SHL DUP2 MSTORE PUSH1 0x20 PUSH1 0x4 DUP3 ADD MSTORE PUSH1 0x28 PUSH1 0x24 DUP3 ADD MSTORE PUSH32 0x7472616E73616374696F6E20776F756C6420657863656564206D61782077616C PUSH1 0x44 DUP3 ADD MSTORE PUSH8 0x6C65742073697A65 PUSH1 0xC0 SHL PUSH1 0x64 DUP3 ADD MSTORE PUSH1 0x84 ADD PUSH2 0x1191 JUMP JUMPDEST PUSH1 0x1 PUSH1 0x1 PUSH1 0xA0 SHL SUB DUP5 AND PUSH1 0x0 SWAP1 DUP2 MSTORE PUSH1 0x4 PUSH1 0x20 MSTORE PUSH1 0x40 SWAP1 KECCAK256 SLOAD PUSH1 0xFF AND PUSH2 0x1BBD JUMPI PUSH1 0x14 SLOAD DUP3 GT ISZERO PUSH2 0x1BBD JUMPI PUSH1 0x40 MLOAD PUSH3 0x461BCD PUSH1 0xE5 SHL DUP2 MSTORE PUSH1 0x20 PUSH1 0x4 DUP3 ADD MSTORE PUSH1 0x2F PUSH1 0x24 DUP3 ADD MSTORE PUSH32 0x5472616E73616374696F6E20776F756C6420657863656564206D617820747261 PUSH1 0x44 DUP3 ADD MSTORE PUSH15 0x1B9CD858DD1A5BDB88185B5BDD5B9D PUSH1 0x8A SHL PUSH1 0x64 DUP3 ADD MSTORE PUSH1 0x84 ADD PUSH2 0x1191 JUMP JUMPDEST PUSH1 0x1A SLOAD PUSH2 0x100 SWAP1 DIV PUSH1 0xFF AND PUSH2 0x1C14 JUMPI PUSH1 0x1 PUSH1 0x1 PUSH1 0xA0 SHL SUB DUP5 AND PUSH1 0x0 SWAP1 DUP2 MSTORE PUSH1 0x4 PUSH1 0x20 MSTORE PUSH1 0x40 SWAP1 KECCAK256 SLOAD PUSH1 0xFF AND DUP1 PUSH2 0x1C0B JUMPI POP PUSH1 0x1 PUSH1 0x1 PUSH1 0xA0 SHL SUB DUP4 AND PUSH1 0x0 SWAP1 DUP2 MSTORE PUSH1 0x4 PUSH1 0x20 MSTORE PUSH1 0x40 SWAP1 KECCAK256 SLOAD PUSH1 0xFF AND JUMPDEST PUSH2 0x1C14 JUMPI PUSH1 0x0 DUP1 REVERT JUMPDEST PUSH1 0x1A SLOAD PUSH1 0xFF AND ISZERO PUSH2 0x1C31 JUMPI PUSH2 0x1C2A DUP5 DUP5 DUP5 PUSH2 0x1FFC JUMP JUMPDEST SWAP1 POP PUSH2 0xE14 JUMP JUMPDEST PUSH2 0x1C39 PUSH2 0x2071 JUMP JUMPDEST ISZERO PUSH2 0x1C46 JUMPI PUSH2 0x1C46 PUSH2 0x20B5 JUMP JUMPDEST PUSH1 0x1 PUSH1 0x1 PUSH1 0xA0 SHL SUB DUP5 AND PUSH1 0x0 SWAP1 DUP2 MSTORE PUSH1 0x1D PUSH1 0x20 MSTORE PUSH1 0x40 SWAP1 KECCAK256 SLOAD PUSH2 0x1C69 SWAP1 DUP4 PUSH2 0x1F40 JUMP JUMPDEST PUSH1 0x1 PUSH1 0x1 PUSH1 0xA0 SHL SUB DUP6 AND PUSH1 0x0 SWAP1 DUP2 MSTORE PUSH1 0x1D PUSH1 0x20 MSTORE PUSH1 0x40 DUP2 KECCAK256 SWAP2 SWAP1 SWAP2 SSTORE PUSH2 0x1C8F DUP6 DUP6 PUSH2 0x2645 JUMP JUMPDEST PUSH2 0x1C99 JUMPI DUP3 PUSH2 0x1CA4 JUMP JUMPDEST PUSH2 0x1CA4 DUP6 DUP6 DUP6 PUSH2 0x2704 JUMP JUMPDEST PUSH1 0x1 PUSH1 0x1 PUSH1 0xA0 SHL SUB DUP6 AND PUSH1 0x0 SWAP1 DUP2 MSTORE PUSH1 0x1D PUSH1 0x20 MSTORE PUSH1 0x40 SWAP1 KECCAK256 SLOAD SWAP1 SWAP2 POP PUSH2 0x1CCA SWAP1 DUP3 PUSH2 0x19B9 JUMP JUMPDEST PUSH1 0x1 PUSH1 0x1 PUSH1 0xA0 SHL SUB DUP1 DUP7 AND PUSH1 0x0 SWAP1 DUP2 MSTORE PUSH1 0x1D PUSH1 0x20 SWAP1 DUP2 MSTORE PUSH1 0x40 DUP1 DUP4 KECCAK256 SWAP5 SWAP1 SWAP5 SSTORE SWAP2 DUP9 AND DUP2 MSTORE PUSH1 0x1B SWAP1 SWAP2 MSTORE KECCAK256 SLOAD PUSH1 0xFF AND PUSH2 0x1DA5 JUMPI PUSH32 0x0 PUSH1 0x1 PUSH1 0x1 PUSH1 0xA0 SHL SUB AND PUSH4 0x14B6CA96 DUP7 PUSH2 0x1D4C DUP9 PUSH1 0x1 PUSH1 0x1 PUSH1 0xA0 SHL SUB AND PUSH1 0x0 SWAP1 DUP2 MSTORE PUSH1 0x1D PUSH1 0x20 MSTORE PUSH1 0x40 SWAP1 KECCAK256 SLOAD SWAP1 JUMP JUMPDEST PUSH1 0x40 MLOAD PUSH1 0x1 PUSH1 0x1 PUSH1 0xE0 SHL SUB NOT PUSH1 0xE0 DUP6 SWAP1 SHL AND DUP2 MSTORE PUSH1 0x1 PUSH1 0x1 PUSH1 0xA0 SHL SUB SWAP1 SWAP3 AND PUSH1 0x4 DUP4 ADD MSTORE PUSH1 0x24 DUP3 ADD MSTORE PUSH1 0x44 ADD PUSH1 0x0 PUSH1 0x40 MLOAD DUP1 DUP4 SUB DUP2 PUSH1 0x0 DUP8 DUP1 EXTCODESIZE ISZERO DUP1 ISZERO PUSH2 0x1D92 JUMPI PUSH1 0x0 DUP1 REVERT JUMPDEST POP GAS CALL SWAP3 POP POP POP DUP1 ISZERO PUSH2 0x1DA3 JUMPI POP PUSH1 0x1 JUMPDEST POP JUMPDEST PUSH1 0x1 PUSH1 0x1 PUSH1 0xA0 SHL SUB DUP5 AND PUSH1 0x0 SWAP1 DUP2 MSTORE PUSH1 0x1B PUSH1 0x20 MSTORE PUSH1 0x40 SWAP1 KECCAK256 SLOAD PUSH1 0xFF AND PUSH2 0x1E6D JUMPI PUSH32 0x0 PUSH1 0x1 PUSH1 0x1 PUSH1 0xA0 SHL SUB AND PUSH4 0x14B6CA96 DUP6 PUSH2 0x1E14 DUP8 PUSH1 0x1 PUSH1 0x1 PUSH1 0xA0 SHL SUB AND PUSH1 0x0 SWAP1 DUP2 MSTORE PUSH1 0x1D PUSH1 0x20 MSTORE PUSH1 0x40 SWAP1 KECCAK256 SLOAD SWAP1 JUMP JUMPDEST PUSH1 0x40 MLOAD PUSH1 0x1 PUSH1 0x1 PUSH1 0xE0 SHL SUB NOT PUSH1 0xE0 DUP6 SWAP1 SHL AND DUP2 MSTORE PUSH1 0x1 PUSH1 0x1 PUSH1 0xA0 SHL SUB SWAP1 SWAP3 AND PUSH1 0x4 DUP4 ADD MSTORE PUSH1 0x24 DUP3 ADD MSTORE PUSH1 0x44 ADD PUSH1 0x0 PUSH1 0x40 MLOAD DUP1 DUP4 SUB DUP2 PUSH1 0x0 DUP8 DUP1 EXTCODESIZE ISZERO DUP1 ISZERO PUSH2 0x1E5A JUMPI PUSH1 0x0 DUP1 REVERT JUMPDEST POP GAS CALL SWAP3 POP POP POP DUP1 ISZERO PUSH2 0x1E6B JUMPI POP PUSH1 0x1 JUMPDEST POP JUMPDEST PUSH1 0x18 SLOAD PUSH1 0x40 MLOAD PUSH1 0x1 PUSH3 0x4D3B87 PUSH1 0xE0 SHL SUB NOT DUP2 MSTORE PUSH1 0x4 DUP2 ADD SWAP2 SWAP1 SWAP2 MSTORE PUSH32 0x0 PUSH1 0x1 PUSH1 0x1 PUSH1 0xA0 SHL SUB AND SWAP1 PUSH4 0xFFB2C479 SWAP1 PUSH1 0x24 ADD PUSH1 0x0 PUSH1 0x40 MLOAD DUP1 DUP4 SUB DUP2 PUSH1 0x0 DUP8 DUP1 EXTCODESIZE ISZERO DUP1 ISZERO PUSH2 0x1ED6 JUMPI PUSH1 0x0 DUP1 REVERT JUMPDEST POP GAS CALL SWAP3 POP POP POP DUP1 ISZERO PUSH2 0x1EE7 JUMPI POP PUSH1 0x1 JUMPDEST POP DUP4 PUSH1 0x1 PUSH1 0x1 PUSH1 0xA0 SHL SUB AND DUP6 PUSH1 0x1 PUSH1 0x1 PUSH1 0xA0 SHL SUB AND PUSH32 0xDDF252AD1BE2C89B69C2B068FC378DAA952BA7F163C4A11628F55A4DF523B3EF DUP4 PUSH1 0x40 MLOAD PUSH2 0x1F2D SWAP2 DUP2 MSTORE PUSH1 0x20 ADD SWAP1 JUMP JUMPDEST PUSH1 0x40 MLOAD DUP1 SWAP2 SUB SWAP1 LOG3 POP PUSH1 0x1 SWAP5 SWAP4 POP POP POP POP JUMP JUMPDEST PUSH1 0x0 PUSH2 0xE14 DUP4 DUP4 PUSH1 0x40 MLOAD DUP1 PUSH1 0x40 ADD PUSH1 0x40 MSTORE DUP1 PUSH1 0x1E DUP2 MSTORE PUSH1 0x20 ADD PUSH32 0x536166654D6174683A207375627472616374696F6E206F766572666C6F770000 DUP2 MSTORE POP PUSH2 0x1A18 JUMP JUMPDEST PUSH1 0x1 PUSH1 0x1 PUSH1 0xA0 SHL SUB DUP2 AND PUSH2 0x1F95 JUMPI PUSH1 0x0 DUP1 REVERT JUMPDEST PUSH1 0x2 SLOAD PUSH1 0x40 MLOAD PUSH1 0x1 PUSH1 0x1 PUSH1 0xA0 SHL SUB DUP1 DUP5 AND SWAP3 PUSH2 0x100 SWAP1 DIV AND SWAP1 PUSH32 0x8BE0079C531659141344CD1FD0A4F28419497F9722A3DAAFE3B4186F6B6457E0 SWAP1 PUSH1 0x0 SWAP1 LOG3 PUSH1 0x2 DUP1 SLOAD PUSH1 0x1 PUSH1 0x1 PUSH1 0xA0 SHL SUB SWAP1 SWAP3 AND PUSH2 0x100 MUL PUSH2 0x100 PUSH1 0x1 PUSH1 0xA8 SHL SUB NOT SWAP1 SWAP3 AND SWAP2 SWAP1 SWAP2 OR SWAP1 SSTORE JUMP JUMPDEST PUSH1 0x1 PUSH1 0x1 PUSH1 0xA0 SHL SUB DUP4 AND PUSH1 0x0 SWAP1 DUP2 MSTORE PUSH1 0x1D PUSH1 0x20 MSTORE PUSH1 0x40 DUP2 KECCAK256 SLOAD PUSH2 0x201F SWAP1 DUP4 PUSH2 0x1F40 JUMP JUMPDEST PUSH1 0x1 PUSH1 0x1 PUSH1 0xA0 SHL SUB DUP1 DUP7 AND PUSH1 0x0 SWAP1 DUP2 MSTORE PUSH1 0x1D PUSH1 0x20 MSTORE PUSH1 0x40 DUP1 DUP3 KECCAK256 SWAP4 SWAP1 SWAP4 SSTORE SWAP1 DUP6 AND DUP2 MSTORE KECCAK256 SLOAD PUSH2 0x204E SWAP1 DUP4 PUSH2 0x19B9 JUMP JUMPDEST PUSH1 0x1 PUSH1 0x1 PUSH1 0xA0 SHL SUB DUP5 AND PUSH1 0x0 SWAP1 DUP2 MSTORE PUSH1 0x1D PUSH1 0x20 MSTORE PUSH1 0x40 SWAP1 KECCAK256 SSTORE POP PUSH1 0x1 SWAP4 SWAP3 POP POP POP JUMP JUMPDEST PUSH1 0x1A SLOAD PUSH1 0x0 SWAP1 PUSH1 0xFF AND ISZERO DUP1 ISZERO PUSH2 0x20B0 JUMPI POP CALLER PUSH1 0x1 PUSH1 0x1 PUSH1 0xA0 SHL SUB PUSH32 0x0 AND EQ ISZERO JUMPDEST SWAP1 POP SWAP1 JUMP JUMPDEST PUSH1 0x1A DUP1 SLOAD PUSH1 0xFF NOT AND PUSH1 0x1 OR SWAP1 SSTORE PUSH1 0x10 SLOAD PUSH1 0x11 SLOAD PUSH1 0x0 SWAP2 PUSH2 0x20D5 SWAP2 SWAP1 PUSH2 0x19B9 JUMP JUMPDEST SWAP1 POP DUP1 PUSH1 0x0 SUB PUSH2 0x20E3 JUMPI POP PUSH1 0x1 JUMPDEST ADDRESS PUSH1 0x0 SWAP1 DUP2 MSTORE PUSH1 0x1D PUSH1 0x20 MSTORE PUSH1 0x40 DUP2 KECCAK256 SLOAD SWAP1 POP PUSH1 0x0 PUSH2 0x2127 PUSH1 0x2 PUSH2 0x2121 DUP6 PUSH2 0x2121 PUSH2 0x211A PUSH1 0xF SLOAD PUSH1 0xE SLOAD PUSH2 0x19B9 SWAP1 SWAP2 SWAP1 PUSH4 0xFFFFFFFF AND JUMP JUMPDEST DUP8 SWAP1 PUSH2 0x2857 JUMP JUMPDEST SWAP1 PUSH2 0x28D9 JUMP JUMPDEST SWAP1 POP PUSH1 0x0 PUSH2 0x2135 DUP4 DUP4 PUSH2 0x1F40 JUMP JUMPDEST SWAP1 POP DUP1 PUSH1 0x0 SUB PUSH2 0x2148 JUMPI POP POP POP POP PUSH2 0x2639 JUMP JUMPDEST ADDRESS PUSH1 0x0 SWAP1 DUP2 MSTORE PUSH1 0x1C PUSH1 0x20 SWAP1 DUP2 MSTORE PUSH1 0x40 DUP1 DUP4 KECCAK256 PUSH32 0x0 PUSH1 0x1 PUSH1 0x1 PUSH1 0xA0 SHL SUB AND DUP5 MSTORE DUP3 MSTORE DUP1 DUP4 KECCAK256 DUP5 SWAP1 SSTORE DUP1 MLOAD PUSH1 0x2 DUP1 DUP3 MSTORE PUSH1 0x60 DUP3 ADD DUP4 MSTORE SWAP1 SWAP3 SWAP1 SWAP2 SWAP1 DUP4 ADD SWAP1 DUP1 CALLDATASIZE DUP4 CALLDATACOPY ADD SWAP1 POP POP SWAP1 POP ADDRESS DUP2 PUSH1 0x0 DUP2 MLOAD DUP2 LT PUSH2 0x21C1 JUMPI PUSH2 0x21C1 PUSH2 0x2C01 JUMP JUMPDEST PUSH1 0x20 MUL PUSH1 0x20 ADD ADD SWAP1 PUSH1 0x1 PUSH1 0x1 PUSH1 0xA0 SHL SUB AND SWAP1 DUP2 PUSH1 0x1 PUSH1 0x1 PUSH1 0xA0 SHL SUB AND DUP2 MSTORE POP POP PUSH32 0x0 PUSH1 0x1 PUSH1 0x1 PUSH1 0xA0 SHL SUB AND PUSH4 0xAD5C4648 PUSH1 0x40 MLOAD DUP2 PUSH4 0xFFFFFFFF AND PUSH1 0xE0 SHL DUP2 MSTORE PUSH1 0x4 ADD PUSH1 0x20 PUSH1 0x40 MLOAD DUP1 DUP4 SUB DUP2 DUP7 GAS STATICCALL ISZERO DUP1 ISZERO PUSH2 0x223F JUMPI RETURNDATASIZE PUSH1 0x0 DUP1 RETURNDATACOPY RETURNDATASIZE PUSH1 0x0 REVERT JUMPDEST POP POP POP POP PUSH1 0x40 MLOAD RETURNDATASIZE PUSH1 0x1F NOT PUSH1 0x1F DUP3 ADD AND DUP3 ADD DUP1 PUSH1 0x40 MSTORE POP DUP2 ADD SWAP1 PUSH2 0x2263 SWAP2 SWAP1 PUSH2 0x2C17 JUMP JUMPDEST DUP2 PUSH1 0x1 DUP2 MLOAD DUP2 LT PUSH2 0x2276 JUMPI PUSH2 0x2276 PUSH2 0x2C01 JUMP JUMPDEST PUSH1 0x1 PUSH1 0x1 PUSH1 0xA0 SHL SUB SWAP3 DUP4 AND PUSH1 0x20 SWAP2 DUP3 MUL SWAP3 SWAP1 SWAP3 ADD ADD MSTORE PUSH1 0x40 MLOAD PUSH4 0x791AC947 PUSH1 0xE0 SHL DUP2 MSTORE PUSH32 0x0 SWAP1 SWAP2 AND SWAP1 PUSH4 0x791AC947 SWAP1 PUSH2 0x22DB SWAP1 DUP6 SWAP1 PUSH1 0x0 SWAP1 DUP7 SWAP1 ADDRESS SWAP1 TIMESTAMP SWAP1 PUSH1 0x4 ADD PUSH2 0x2C34 JUMP JUMPDEST PUSH1 0x0 PUSH1 0x40 MLOAD DUP1 DUP4 SUB DUP2 PUSH1 0x0 DUP8 DUP1 EXTCODESIZE ISZERO DUP1 ISZERO PUSH2 0x22F5 JUMPI PUSH1 0x0 DUP1 REVERT JUMPDEST POP GAS CALL SWAP3 POP POP POP DUP1 ISZERO PUSH2 0x2306 JUMPI POP PUSH1 0x1 JUMPDEST POP PUSH1 0x0 SELFBALANCE SWAP1 POP PUSH1 0x0 PUSH2 0x2331 PUSH1 0x2 PUSH2 0x2121 DUP10 PUSH2 0x2121 PUSH2 0x211A PUSH1 0xF SLOAD PUSH1 0xE SLOAD PUSH2 0x19B9 SWAP1 SWAP2 SWAP1 PUSH4 0xFFFFFFFF AND JUMP JUMPDEST SWAP1 POP PUSH1 0x0 PUSH2 0x235A DUP9 PUSH2 0x2121 PUSH2 0x2353 PUSH1 0xD SLOAD PUSH1 0xC SLOAD PUSH2 0x19B9 SWAP1 SWAP2 SWAP1 PUSH4 0xFFFFFFFF AND JUMP JUMPDEST DUP7 SWAP1 PUSH2 0x2857 JUMP JUMPDEST SWAP1 POP PUSH1 0x0 PUSH2 0x2388 DUP10 PUSH2 0x2121 PUSH2 0x211A PUSH1 0xB SLOAD PUSH2 0x113A PUSH1 0xB SLOAD PUSH2 0x113A PUSH1 0x9 SLOAD PUSH1 0x8 SLOAD PUSH2 0x19B9 SWAP1 SWAP2 SWAP1 PUSH4 0xFFFFFFFF AND JUMP JUMPDEST SWAP1 POP PUSH1 0x0 PUSH2 0x23A4 PUSH2 0x239D DUP4 PUSH2 0x113A DUP8 DUP8 PUSH2 0x19B9 JUMP JUMPDEST DUP7 SWAP1 PUSH2 0x1F40 JUMP JUMPDEST SWAP1 POP PUSH1 0x0 PUSH32 0x0 PUSH1 0x1 PUSH1 0x1 PUSH1 0xA0 SHL SUB AND PUSH4 0xD0E30DB0 DUP5 PUSH1 0x40 MLOAD DUP3 PUSH4 0xFFFFFFFF AND PUSH1 0xE0 SHL DUP2 MSTORE PUSH1 0x4 ADD PUSH1 0x0 PUSH1 0x40 MLOAD DUP1 DUP4 SUB DUP2 DUP6 DUP9 DUP1 EXTCODESIZE ISZERO DUP1 ISZERO PUSH2 0x2403 JUMPI PUSH1 0x0 DUP1 REVERT JUMPDEST POP GAS CALL SWAP4 POP POP POP POP DUP1 ISZERO PUSH2 0x2415 JUMPI POP PUSH1 0x1 JUMPDEST ISZERO PUSH2 0x241E JUMPI POP PUSH1 0x1 JUMPDEST ADDRESS PUSH1 0x0 DUP2 DUP2 MSTORE PUSH1 0x1C PUSH1 0x20 SWAP1 DUP2 MSTORE PUSH1 0x40 DUP1 DUP4 KECCAK256 PUSH1 0x1 PUSH1 0x1 PUSH1 0xA0 SHL SUB PUSH32 0x0 DUP2 AND DUP1 DUP7 MSTORE SWAP2 SWAP1 SWAP4 MSTORE DUP2 DUP5 KECCAK256 DUP15 SWAP1 SSTORE PUSH1 0x15 SLOAD SWAP2 MLOAD PUSH4 0xF305D719 PUSH1 0xE0 SHL DUP2 MSTORE PUSH1 0x4 DUP2 ADD SWAP6 SWAP1 SWAP6 MSTORE PUSH1 0x24 DUP6 ADD DUP15 SWAP1 MSTORE PUSH1 0x44 DUP6 ADD DUP5 SWAP1 MSTORE PUSH1 0x64 DUP6 ADD SWAP4 SWAP1 SWAP4 MSTORE AND PUSH1 0x84 DUP4 ADD MSTORE TIMESTAMP PUSH1 0xA4 DUP4 ADD MSTORE SWAP1 PUSH4 0xF305D719 SWAP1 DUP8 SWAP1 PUSH1 0xC4 ADD PUSH1 0x60 PUSH1 0x40 MLOAD DUP1 DUP4 SUB DUP2 DUP6 DUP9 GAS CALL SWAP4 POP POP POP POP DUP1 ISZERO PUSH2 0x24E8 JUMPI POP PUSH1 0x40 DUP1 MLOAD PUSH1 0x1F RETURNDATASIZE SWAP1 DUP2 ADD PUSH1 0x1F NOT AND DUP3 ADD SWAP1 SWAP3 MSTORE PUSH2 0x24E5 SWAP2 DUP2 ADD SWAP1 PUSH2 0x2CA5 JUMP JUMPDEST PUSH1 0x1 JUMPDEST ISZERO PUSH2 0x24F1 JUMPI POP POP POP JUMPDEST PUSH1 0x15 SLOAD PUSH1 0x40 MLOAD PUSH1 0x0 SWAP2 PUSH1 0x1 PUSH1 0x1 PUSH1 0xA0 SHL SUB AND SWAP1 DUP5 SWAP1 DUP4 DUP2 DUP2 DUP2 DUP6 DUP8 GAS CALL SWAP3 POP POP POP RETURNDATASIZE DUP1 PUSH1 0x0 DUP2 EQ PUSH2 0x253E JUMPI PUSH1 0x40 MLOAD SWAP2 POP PUSH1 0x1F NOT PUSH1 0x3F RETURNDATASIZE ADD AND DUP3 ADD PUSH1 0x40 MSTORE RETURNDATASIZE DUP3 MSTORE RETURNDATASIZE PUSH1 0x0 PUSH1 0x20 DUP5 ADD RETURNDATACOPY PUSH2 0x2543 JUMP JUMPDEST PUSH1 0x60 SWAP2 POP JUMPDEST POP POP SWAP1 POP DUP1 PUSH2 0x258E JUMPI PUSH1 0x40 MLOAD PUSH3 0x461BCD PUSH1 0xE5 SHL DUP2 MSTORE PUSH1 0x20 PUSH1 0x4 DUP3 ADD MSTORE PUSH1 0x17 PUSH1 0x24 DUP3 ADD MSTORE PUSH23 0x155D1A5B1A5D1E481D1C985B9CD9995C8819985A5B1959 PUSH1 0x4A SHL PUSH1 0x44 DUP3 ADD MSTORE PUSH1 0x64 ADD PUSH2 0x1191 JUMP JUMPDEST PUSH1 0x16 SLOAD PUSH1 0x40 MLOAD PUSH1 0x0 SWAP2 PUSH1 0x1 PUSH1 0x1 PUSH1 0xA0 SHL SUB AND SWAP1 DUP8 SWAP1 DUP4 DUP2 DUP2 DUP2 DUP6 DUP8 GAS CALL SWAP3 POP POP POP RETURNDATASIZE DUP1 PUSH1 0x0 DUP2 EQ PUSH2 0x25DB JUMPI PUSH1 0x40 MLOAD SWAP2 POP PUSH1 0x1F NOT PUSH1 0x3F RETURNDATASIZE ADD AND DUP3 ADD PUSH1 0x40 MSTORE RETURNDATASIZE DUP3 MSTORE RETURNDATASIZE PUSH1 0x0 PUSH1 0x20 DUP5 ADD RETURNDATACOPY PUSH2 0x25E0 JUMP JUMPDEST PUSH1 0x60 SWAP2 POP JUMPDEST POP POP SWAP1 POP DUP1 PUSH2 0x262B JUMPI PUSH1 0x40 MLOAD PUSH3 0x461BCD PUSH1 0xE5 SHL DUP2 MSTORE PUSH1 0x20 PUSH1 0x4 DUP3 ADD MSTORE PUSH1 0x17 PUSH1 0x24 DUP3 ADD MSTORE PUSH23 0x155D1A5B1A5D1E481D1C985B9CD9995C8819985A5B1959 PUSH1 0x4A SHL PUSH1 0x44 DUP3 ADD MSTORE PUSH1 0x64 ADD PUSH2 0x1191 JUMP JUMPDEST POP POP POP POP POP POP POP POP POP POP POP POP POP JUMPDEST PUSH1 0x1A DUP1 SLOAD PUSH1 0xFF NOT AND SWAP1 SSTORE JUMP JUMPDEST PUSH1 0x0 DUP3 PUSH1 0x1 PUSH1 0x1 PUSH1 0xA0 SHL SUB AND PUSH32 0x0 PUSH1 0x1 PUSH1 0x1 PUSH1 0xA0 SHL SUB AND EQ DUP1 PUSH2 0x26B8 JUMPI POP DUP2 PUSH1 0x1 PUSH1 0x1 PUSH1 0xA0 SHL SUB AND PUSH32 0x0 PUSH1 0x1 PUSH1 0x1 PUSH1 0xA0 SHL SUB AND EQ JUMPDEST DUP1 ISZERO PUSH2 0xE14 JUMPI POP PUSH1 0x1 PUSH1 0x1 PUSH1 0xA0 SHL SUB DUP4 AND PUSH1 0x0 SWAP1 DUP2 MSTORE PUSH1 0x4 PUSH1 0x20 MSTORE PUSH1 0x40 SWAP1 KECCAK256 SLOAD PUSH1 0xFF AND ISZERO DUP1 PUSH2 0xE14 JUMPI POP POP PUSH1 0x1 PUSH1 0x1 PUSH1 0xA0 SHL SUB AND PUSH1 0x0 SWAP1 DUP2 MSTORE PUSH1 0x4 PUSH1 0x20 MSTORE PUSH1 0x40 SWAP1 KECCAK256 SLOAD PUSH1 0xFF AND ISZERO SWAP2 SWAP1 POP JUMP JUMPDEST PUSH1 0x10 SLOAD PUSH1 0x8 SLOAD PUSH1 0xA SLOAD PUSH1 0xC SLOAD PUSH1 0xE SLOAD PUSH1 0x6 SLOAD PUSH1 0x0 SWAP6 SWAP5 SWAP4 SWAP3 SWAP2 SWAP1 PUSH1 0x1 PUSH1 0x1 PUSH1 0xA0 SHL SUB PUSH32 0x0 DUP2 AND SWAP1 DUP11 AND SUB PUSH2 0x2770 JUMPI PUSH1 0x11 SLOAD SWAP6 POP PUSH1 0x9 SLOAD SWAP5 POP PUSH1 0xB SLOAD SWAP4 POP PUSH1 0xD SLOAD SWAP3 POP PUSH1 0xF SLOAD SWAP2 POP PUSH1 0x7 SLOAD SWAP1 POP JUMPDEST PUSH1 0x0 PUSH2 0x2782 PUSH2 0x3E8 PUSH2 0x2121 DUP12 DUP11 PUSH2 0x2857 JUMP JUMPDEST PUSH1 0x1 PUSH1 0x1 PUSH1 0xA0 SHL SUB DUP13 AND PUSH1 0x0 SWAP1 DUP2 MSTORE PUSH1 0x4 PUSH1 0x20 MSTORE PUSH1 0x40 SWAP1 KECCAK256 SLOAD SWAP1 SWAP2 POP PUSH1 0xFF AND DUP1 PUSH2 0x27C4 JUMPI POP PUSH1 0x1 PUSH1 0x1 PUSH1 0xA0 SHL SUB DUP11 AND PUSH1 0x0 SWAP1 DUP2 MSTORE PUSH1 0x4 PUSH1 0x20 MSTORE PUSH1 0x40 SWAP1 KECCAK256 SLOAD PUSH1 0xFF AND JUMPDEST ISZERO PUSH2 0x27CD JUMPI POP PUSH1 0x0 JUMPDEST ADDRESS PUSH1 0x0 SWAP1 DUP2 MSTORE PUSH1 0x1D PUSH1 0x20 MSTORE PUSH1 0x40 SWAP1 KECCAK256 SLOAD PUSH2 0x27E7 SWAP1 DUP3 PUSH2 0x19B9 JUMP JUMPDEST ADDRESS PUSH1 0x0 SWAP1 DUP2 MSTORE PUSH1 0x1D PUSH1 0x20 MSTORE PUSH1 0x40 SWAP1 KECCAK256 SSTORE DUP1 ISZERO PUSH2 0x283E JUMPI PUSH1 0x40 MLOAD DUP2 DUP2 MSTORE ADDRESS SWAP1 PUSH1 0x1 PUSH1 0x1 PUSH1 0xA0 SHL SUB DUP14 AND SWAP1 PUSH32 0xDDF252AD1BE2C89B69C2B068FC378DAA952BA7F163C4A11628F55A4DF523B3EF SWAP1 PUSH1 0x20 ADD PUSH1 0x40 MLOAD DUP1 SWAP2 SUB SWAP1 LOG3 JUMPDEST PUSH2 0x2848 DUP10 DUP3 PUSH2 0x1F40 JUMP JUMPDEST SWAP12 SWAP11 POP POP POP POP POP POP POP POP POP POP POP JUMP JUMPDEST PUSH1 0x0 DUP3 PUSH1 0x0 SUB PUSH2 0x2869 JUMPI POP PUSH1 0x0 PUSH2 0xD42 JUMP JUMPDEST PUSH1 0x0 PUSH2 0x2875 DUP4 DUP6 PUSH2 0x2BA2 JUMP JUMPDEST SWAP1 POP DUP3 PUSH2 0x2882 DUP6 DUP4 PUSH2 0x2BB9 JUMP JUMPDEST EQ PUSH2 0xE14 JUMPI PUSH1 0x40 MLOAD PUSH3 0x461BCD PUSH1 0xE5 SHL DUP2 MSTORE PUSH1 0x20 PUSH1 0x4 DUP3 ADD MSTORE PUSH1 0x21 PUSH1 0x24 DUP3 ADD MSTORE PUSH32 0x536166654D6174683A206D756C7469706C69636174696F6E206F766572666C6F PUSH1 0x44 DUP3 ADD MSTORE PUSH1 0x77 PUSH1 0xF8 SHL PUSH1 0x64 DUP3 ADD MSTORE PUSH1 0x84 ADD PUSH2 0x1191 JUMP JUMPDEST PUSH1 0x0 PUSH2 0xE14 DUP4 DUP4 PUSH1 0x40 MLOAD DUP1 PUSH1 0x40 ADD PUSH1 0x40 MSTORE DUP1 PUSH1 0x1A DUP2 MSTORE PUSH1 0x20 ADD PUSH32 0x536166654D6174683A206469766973696F6E206279207A65726F000000000000 DUP2 MSTORE POP PUSH1 0x0 DUP2 DUP4 PUSH2 0x2937 JUMPI PUSH1 0x40 MLOAD PUSH3 0x461BCD PUSH1 0xE5 SHL DUP2 MSTORE PUSH1 0x4 ADD PUSH2 0x1191 SWAP2 SWAP1 PUSH2 0x2944 JUMP JUMPDEST POP PUSH1 0x0 PUSH2 0x1A49 DUP5 DUP7 PUSH2 0x2BB9 JUMP JUMPDEST PUSH1 0x0 PUSH1 0x20 DUP1 DUP4 MSTORE DUP4 MLOAD DUP1 DUP3 DUP6 ADD MSTORE PUSH1 0x0 JUMPDEST DUP2 DUP2 LT ISZERO PUSH2 0x2971 JUMPI DUP6 DUP2 ADD DUP4 ADD MLOAD DUP6 DUP3 ADD PUSH1 0x40 ADD MSTORE DUP3 ADD PUSH2 0x2955 JUMP JUMPDEST POP PUSH1 0x0 PUSH1 0x40 DUP3 DUP7 ADD ADD MSTORE PUSH1 0x40 PUSH1 0x1F NOT PUSH1 0x1F DUP4 ADD AND DUP6 ADD ADD SWAP3 POP POP POP SWAP3 SWAP2 POP POP JUMP JUMPDEST PUSH1 0x1 PUSH1 0x1 PUSH1 0xA0 SHL SUB DUP2 AND DUP2 EQ PUSH2 0x183E JUMPI PUSH1 0x0 DUP1 REVERT JUMPDEST PUSH1 0x0 PUSH1 0x20 DUP3 DUP5 SUB SLT ISZERO PUSH2 0x29B9 JUMPI PUSH1 0x0 DUP1 REVERT JUMPDEST DUP2 CALLDATALOAD PUSH2 0xE14 DUP2 PUSH2 0x2992 JUMP JUMPDEST PUSH1 0x0 DUP1 PUSH1 0x40 DUP4 DUP6 SUB SLT ISZERO PUSH2 0x29D7 JUMPI PUSH1 0x0 DUP1 REVERT JUMPDEST DUP3 CALLDATALOAD PUSH2 0x29E2 DUP2 PUSH2 0x2992 JUMP JUMPDEST SWAP5 PUSH1 0x20 SWAP4 SWAP1 SWAP4 ADD CALLDATALOAD SWAP4 POP POP POP JUMP JUMPDEST PUSH1 0x0 DUP1 PUSH1 0x0 PUSH1 0x60 DUP5 DUP7 SUB SLT ISZERO PUSH2 0x2A05 JUMPI PUSH1 0x0 DUP1 REVERT JUMPDEST DUP4 CALLDATALOAD PUSH2 0x2A10 DUP2 PUSH2 0x2992 JUMP JUMPDEST SWAP3 POP PUSH1 0x20 DUP5 ADD CALLDATALOAD PUSH2 0x2A20 DUP2 PUSH2 0x2992 JUMP JUMPDEST SWAP3 SWAP6 SWAP3 SWAP5 POP POP POP PUSH1 0x40 SWAP2 SWAP1 SWAP2 ADD CALLDATALOAD SWAP1 JUMP JUMPDEST PUSH1 0x0 DUP1 PUSH1 0x40 DUP4 DUP6 SUB SLT ISZERO PUSH2 0x2A44 JUMPI PUSH1 0x0 DUP1 REVERT JUMPDEST POP POP DUP1 CALLDATALOAD SWAP3 PUSH1 0x20 SWAP1 SWAP2 ADD CALLDATALOAD SWAP2 POP JUMP JUMPDEST PUSH1 0x0 PUSH1 0x20 DUP3 DUP5 SUB SLT ISZERO PUSH2 0x2A65 JUMPI PUSH1 0x0 DUP1 REVERT JUMPDEST POP CALLDATALOAD SWAP2 SWAP1 POP JUMP JUMPDEST PUSH1 0x0 DUP1 PUSH1 0x40 DUP4 DUP6 SUB SLT ISZERO PUSH2 0x2A7F JUMPI PUSH1 0x0 DUP1 REVERT JUMPDEST DUP3 CALLDATALOAD PUSH2 0x2A8A DUP2 PUSH2 0x2992 JUMP JUMPDEST SWAP2 POP PUSH1 0x20 DUP4 ADD CALLDATALOAD PUSH2 0x2A9A DUP2 PUSH2 0x2992 JUMP JUMPDEST DUP1 SWAP2 POP POP SWAP3 POP SWAP3 SWAP1 POP JUMP JUMPDEST PUSH1 0x0 DUP1 PUSH1 0x0 DUP1 PUSH1 0x0 PUSH1 0xA0 DUP7 DUP9 SUB SLT ISZERO PUSH2 0x2ABD JUMPI PUSH1 0x0 DUP1 REVERT JUMPDEST POP POP DUP4 CALLDATALOAD SWAP6 PUSH1 0x20 DUP6 ADD CALLDATALOAD SWAP6 POP PUSH1 0x40 DUP6 ADD CALLDATALOAD SWAP5 PUSH1 0x60 DUP2 ADD CALLDATALOAD SWAP5 POP PUSH1 0x80 ADD CALLDATALOAD SWAP3 POP SWAP1 POP JUMP JUMPDEST DUP1 ISZERO ISZERO DUP2 EQ PUSH2 0x183E JUMPI PUSH1 0x0 DUP1 REVERT JUMPDEST PUSH1 0x0 DUP1 PUSH1 0x40 DUP4 DUP6 SUB SLT ISZERO PUSH2 0x2B01 JUMPI PUSH1 0x0 DUP1 REVERT JUMPDEST DUP3 CALLDATALOAD PUSH2 0x2B0C DUP2 PUSH2 0x2992 JUMP JUMPDEST SWAP2 POP PUSH1 0x20 DUP4 ADD CALLDATALOAD PUSH2 0x2A9A DUP2 PUSH2 0x2AE0 JUMP JUMPDEST PUSH1 0x1 DUP2 DUP2 SHR SWAP1 DUP3 AND DUP1 PUSH2 0x2B30 JUMPI PUSH1 0x7F DUP3 AND SWAP2 POP JUMPDEST PUSH1 0x20 DUP3 LT DUP2 SUB PUSH2 0x2B50 JUMPI PUSH4 0x4E487B71 PUSH1 0xE0 SHL PUSH1 0x0 MSTORE PUSH1 0x22 PUSH1 0x4 MSTORE PUSH1 0x24 PUSH1 0x0 REVERT JUMPDEST POP SWAP2 SWAP1 POP JUMP JUMPDEST PUSH1 0x0 PUSH1 0x20 DUP3 DUP5 SUB SLT ISZERO PUSH2 0x2B68 JUMPI PUSH1 0x0 DUP1 REVERT JUMPDEST POP MLOAD SWAP2 SWAP1 POP JUMP JUMPDEST PUSH1 0x0 PUSH1 0x20 DUP3 DUP5 SUB SLT ISZERO PUSH2 0x2B81 JUMPI PUSH1 0x0 DUP1 REVERT JUMPDEST DUP2 MLOAD PUSH2 0xE14 DUP2 PUSH2 0x2AE0 JUMP JUMPDEST PUSH4 0x4E487B71 PUSH1 0xE0 SHL PUSH1 0x0 MSTORE PUSH1 0x11 PUSH1 0x4 MSTORE PUSH1 0x24 PUSH1 0x0 REVERT JUMPDEST DUP1 DUP3 MUL DUP2 ISZERO DUP3 DUP3 DIV DUP5 EQ OR PUSH2 0xD42 JUMPI PUSH2 0xD42 PUSH2 0x2B8C JUMP JUMPDEST PUSH1 0x0 DUP3 PUSH2 0x2BD6 JUMPI PUSH4 0x4E487B71 PUSH1 0xE0 SHL PUSH1 0x0 MSTORE PUSH1 0x12 PUSH1 0x4 MSTORE PUSH1 0x24 PUSH1 0x0 REVERT JUMPDEST POP DIV SWAP1 JUMP JUMPDEST DUP1 DUP3 ADD DUP1 DUP3 GT ISZERO PUSH2 0xD42 JUMPI PUSH2 0xD42 PUSH2 0x2B8C JUMP JUMPDEST DUP2 DUP2 SUB DUP2 DUP2 GT ISZERO PUSH2 0xD42 JUMPI PUSH2 0xD42 PUSH2 0x2B8C JUMP JUMPDEST PUSH4 0x4E487B71 PUSH1 0xE0 SHL PUSH1 0x0 MSTORE PUSH1 0x32 PUSH1 0x4 MSTORE PUSH1 0x24 PUSH1 0x0 REVERT JUMPDEST PUSH1 0x0 PUSH1 0x20 DUP3 DUP5 SUB SLT ISZERO PUSH2 0x2C29 JUMPI PUSH1 0x0 DUP1 REVERT JUMPDEST DUP2 MLOAD PUSH2 0xE14 DUP2 PUSH2 0x2992 JUMP JUMPDEST PUSH1 0x0 PUSH1 0xA0 DUP3 ADD DUP8 DUP4 MSTORE PUSH1 0x20 DUP8 DUP2 DUP6 ADD MSTORE PUSH1 0xA0 PUSH1 0x40 DUP6 ADD MSTORE DUP2 DUP8 MLOAD DUP1 DUP5 MSTORE PUSH1 0xC0 DUP7 ADD SWAP2 POP DUP3 DUP10 ADD SWAP4 POP PUSH1 0x0 JUMPDEST DUP2 DUP2 LT ISZERO PUSH2 0x2C84 JUMPI DUP5 MLOAD PUSH1 0x1 PUSH1 0x1 PUSH1 0xA0 SHL SUB AND DUP4 MSTORE SWAP4 DUP4 ADD SWAP4 SWAP2 DUP4 ADD SWAP2 PUSH1 0x1 ADD PUSH2 0x2C5F JUMP JUMPDEST POP POP PUSH1 0x1 PUSH1 0x1 PUSH1 0xA0 SHL SUB SWAP7 SWAP1 SWAP7 AND PUSH1 0x60 DUP6 ADD MSTORE POP POP POP PUSH1 0x80 ADD MSTORE SWAP4 SWAP3 POP POP POP JUMP JUMPDEST PUSH1 0x0 DUP1 PUSH1 0x0 PUSH1 0x60 DUP5 DUP7 SUB SLT ISZERO PUSH2 0x2CBA JUMPI PUSH1 0x0 DUP1 REVERT JUMPDEST DUP4 MLOAD SWAP3 POP PUSH1 0x20 DUP5 ADD MLOAD SWAP2 POP PUSH1 0x40 DUP5 ADD MLOAD SWAP1 POP SWAP3 POP SWAP3 POP SWAP3 JUMP INVALID LOG2 PUSH5 0x6970667358 0x22 SLT KECCAK256 0xDF DUP8 PUSH25 0xEF56DC8045BDEB403A3E6459C233E498BAD06ACDEB0535006E CALLCODE GT TIMESTAMP SWAP14 PUSH5 0x736F6C6343 STOP ADDMOD SLT STOP CALLER PUSH1 0x80 PUSH1 0x40 MSTORE PUSH1 0x1 DUP1 SLOAD PUSH1 0x1 PUSH1 0x1 PUSH1 0xA0 SHL SUB NOT AND PUSH20 0x496AF7721811482F18D5F92C07718572B3DD309D OR SWAP1 SSTORE PUSH1 0x3C PUSH1 0x10 SSTORE PUSH8 0xDE0B6B3A7640000 PUSH1 0x11 SSTORE PUSH1 0x64 PUSH1 0x12 SSTORE CALLVALUE DUP1 ISZERO PUSH2 0x4C JUMPI PUSH1 0x0 DUP1 REVERT JUMPDEST POP PUSH1 0x40 MLOAD PUSH2 0x152A CODESIZE SUB DUP1 PUSH2 0x152A DUP4 CODECOPY DUP2 ADD PUSH1 0x40 DUP2 SWAP1 MSTORE PUSH2 0x6B SWAP2 PUSH2 0xC5 JUMP JUMPDEST PUSH1 0x1 PUSH1 0x1 PUSH1 0xA0 SHL SUB DUP2 AND PUSH2 0x93 JUMPI PUSH20 0x581FA0EE5A68A1FE7C8AD1EB2BFDD9CF66D3D923 PUSH2 0x95 JUMP JUMPDEST DUP1 JUMPDEST PUSH1 0x2 DUP1 SLOAD PUSH1 0x1 PUSH1 0x1 PUSH1 0xA0 SHL SUB SWAP3 SWAP1 SWAP3 AND PUSH1 0x1 PUSH1 0x1 PUSH1 0xA0 SHL SUB NOT SWAP3 DUP4 AND OR SWAP1 SSTORE PUSH1 0x0 DUP1 SLOAD SWAP1 SWAP2 AND CALLER OR SWAP1 SSTORE POP PUSH2 0xF5 JUMP JUMPDEST PUSH1 0x0 PUSH1 0x20 DUP3 DUP5 SUB SLT ISZERO PUSH2 0xD7 JUMPI PUSH1 0x0 DUP1 REVERT JUMPDEST DUP2 MLOAD PUSH1 0x1 PUSH1 0x1 PUSH1 0xA0 SHL SUB DUP2 AND DUP2 EQ PUSH2 0xEE JUMPI PUSH1 0x0 DUP1 REVERT JUMPDEST SWAP4 SWAP3 POP POP POP JUMP JUMPDEST PUSH2 0x1426 DUP1 PUSH2 0x104 PUSH1 0x0 CODECOPY PUSH1 0x0 RETURN INVALID PUSH1 0x80 PUSH1 0x40 MSTORE PUSH1 0x4 CALLDATASIZE LT PUSH2 0x185 JUMPI PUSH1 0x0 CALLDATALOAD PUSH1 0xE0 SHR DUP1 PUSH4 0x8AEE8127 GT PUSH2 0xD1 JUMPI DUP1 PUSH4 0xE2D2E219 GT PUSH2 0x8A JUMPI DUP1 PUSH4 0xF0FC6BCA GT PUSH2 0x64 JUMPI DUP1 PUSH4 0xF0FC6BCA EQ PUSH2 0x462 JUMPI DUP1 PUSH4 0xF9D20E22 EQ PUSH2 0x477 JUMPI DUP1 PUSH4 0xFFB2C479 EQ PUSH2 0x495 JUMPI DUP1 PUSH4 0xFFD49C84 EQ PUSH2 0x4B5 JUMPI PUSH1 0x0 DUP1 REVERT JUMPDEST DUP1 PUSH4 0xE2D2E219 EQ PUSH2 0x416 JUMPI DUP1 PUSH4 0xECD0C0C3 EQ PUSH2 0x42C JUMPI DUP1 PUSH4 0xEFCA2EED EQ PUSH2 0x44C JUMPI PUSH1 0x0 DUP1 REVERT JUMPDEST DUP1 PUSH4 0x8AEE8127 EQ PUSH2 0x325 JUMPI DUP1 PUSH4 0x997664D7 EQ PUSH2 0x345 JUMPI DUP1 PUSH4 0xBE8CBEE2 EQ PUSH2 0x35B JUMPI DUP1 PUSH4 0xCB39C7F0 EQ PUSH2 0x37B JUMPI DUP1 PUSH4 0xCE7C2AC2 EQ PUSH2 0x391 JUMPI DUP1 PUSH4 0xD0E30DB0 EQ PUSH2 0x40E JUMPI PUSH1 0x0 DUP1 REVERT JUMPDEST DUP1 PUSH4 0x28FD3198 GT PUSH2 0x13E JUMPI DUP1 PUSH4 0x4FAB0AE8 GT PUSH2 0x118 JUMPI DUP1 PUSH4 0x4FAB0AE8 EQ PUSH2 0x2A1 JUMPI DUP1 PUSH4 0x6C898A8F EQ PUSH2 0x2B7 JUMPI DUP1 PUSH4 0x7E164CFF EQ PUSH2 0x2CD JUMPI DUP1 PUSH4 0x84EC884F EQ PUSH2 0x305 JUMPI PUSH1 0x0 DUP1 REVERT JUMPDEST DUP1 PUSH4 0x28FD3198 EQ PUSH2 0x24B JUMPI DUP1 PUSH4 0x2D48E896 EQ PUSH2 0x26B JUMPI DUP1 PUSH4 0x3A98EF39 EQ PUSH2 0x28B JUMPI PUSH1 0x0 DUP1 REVERT JUMPDEST DUP1 PUSH4 0x710FB45 EQ PUSH2 0x191 JUMPI DUP1 PUSH4 0x11CE023D EQ PUSH2 0x1B3 JUMPI DUP1 PUSH4 0x1416BCE1 EQ PUSH2 0x1E9 JUMPI DUP1 PUSH4 0x14B6CA96 EQ PUSH2 0x1FF JUMPI DUP1 PUSH4 0x1C882E3E EQ PUSH2 0x21F JUMPI DUP1 PUSH4 0x26987B60 EQ PUSH2 0x235 JUMPI PUSH1 0x0 DUP1 REVERT JUMPDEST CALLDATASIZE PUSH2 0x18C JUMPI STOP JUMPDEST PUSH1 0x0 DUP1 REVERT JUMPDEST CALLVALUE DUP1 ISZERO PUSH2 0x19D JUMPI PUSH1 0x0 DUP1 REVERT JUMPDEST POP PUSH2 0x1B1 PUSH2 0x1AC CALLDATASIZE PUSH1 0x4 PUSH2 0x11A2 JUMP JUMPDEST PUSH2 0x4CB JUMP JUMPDEST STOP JUMPDEST CALLVALUE DUP1 ISZERO PUSH2 0x1BF JUMPI PUSH1 0x0 DUP1 REVERT JUMPDEST POP PUSH2 0x1D6 PUSH15 0xC097CE7BC90715B34B9F1000000000 DUP2 JUMP JUMPDEST PUSH1 0x40 MLOAD SWAP1 DUP2 MSTORE PUSH1 0x20 ADD JUMPDEST PUSH1 0x40 MLOAD DUP1 SWAP2 SUB SWAP1 RETURN JUMPDEST CALLVALUE DUP1 ISZERO PUSH2 0x1F5 JUMPI PUSH1 0x0 DUP1 REVERT JUMPDEST POP PUSH2 0x1D6 PUSH1 0xD SLOAD DUP2 JUMP JUMPDEST CALLVALUE DUP1 ISZERO PUSH2 0x20B JUMPI PUSH1 0x0 DUP1 REVERT JUMPDEST POP PUSH2 0x1B1 PUSH2 0x21A CALLDATASIZE PUSH1 0x4 PUSH2 0x11BF JUMP JUMPDEST PUSH2 0x504 JUMP JUMPDEST CALLVALUE DUP1 ISZERO PUSH2 0x22B JUMPI PUSH1 0x0 DUP1 REVERT JUMPDEST POP PUSH2 0x1D6 PUSH1 0xE SLOAD DUP2 JUMP JUMPDEST CALLVALUE DUP1 ISZERO PUSH2 0x241 JUMPI PUSH1 0x0 DUP1 REVERT JUMPDEST POP PUSH2 0x1D6 PUSH1 0xF SLOAD DUP2 JUMP JUMPDEST CALLVALUE DUP1 ISZERO PUSH2 0x257 JUMPI PUSH1 0x0 DUP1 REVERT JUMPDEST POP PUSH2 0x1D6 PUSH2 0x266 CALLDATASIZE PUSH1 0x4 PUSH2 0x11A2 JUMP JUMPDEST PUSH2 0x6B3 JUMP JUMPDEST CALLVALUE DUP1 ISZERO PUSH2 0x277 JUMPI PUSH1 0x0 DUP1 REVERT JUMPDEST POP PUSH2 0x1B1 PUSH2 0x286 CALLDATASIZE PUSH1 0x4 PUSH2 0x11EB JUMP JUMPDEST PUSH2 0x73E JUMP JUMPDEST CALLVALUE DUP1 ISZERO PUSH2 0x297 JUMPI PUSH1 0x0 DUP1 REVERT JUMPDEST POP PUSH2 0x1D6 PUSH1 0x8 SLOAD DUP2 JUMP JUMPDEST CALLVALUE DUP1 ISZERO PUSH2 0x2AD JUMPI PUSH1 0x0 DUP1 REVERT JUMPDEST POP PUSH2 0x1D6 PUSH1 0x11 SLOAD DUP2 JUMP JUMPDEST CALLVALUE DUP1 ISZERO PUSH2 0x2C3 JUMPI PUSH1 0x0 DUP1 REVERT JUMPDEST POP PUSH2 0x1D6 PUSH1 0xC SLOAD DUP2 JUMP JUMPDEST CALLVALUE DUP1 ISZERO PUSH2 0x2D9 JUMPI PUSH1 0x0 DUP1 REVERT JUMPDEST POP PUSH1 0x1 SLOAD PUSH2 0x2ED SWAP1 PUSH1 0x1 PUSH1 0x1 PUSH1 0xA0 SHL SUB AND DUP2 JUMP JUMPDEST PUSH1 0x40 MLOAD PUSH1 0x1 PUSH1 0x1 PUSH1 0xA0 SHL SUB SWAP1 SWAP2 AND DUP2 MSTORE PUSH1 0x20 ADD PUSH2 0x1E0 JUMP JUMPDEST CALLVALUE DUP1 ISZERO PUSH2 0x311 JUMPI PUSH1 0x0 DUP1 REVERT JUMPDEST POP PUSH2 0x1B1 PUSH2 0x320 CALLDATASIZE PUSH1 0x4 PUSH2 0x120D JUMP JUMPDEST PUSH2 0x760 JUMP JUMPDEST CALLVALUE DUP1 ISZERO PUSH2 0x331 JUMPI PUSH1 0x0 DUP1 REVERT JUMPDEST POP PUSH2 0x1B1 PUSH2 0x340 CALLDATASIZE PUSH1 0x4 PUSH2 0x11A2 JUMP JUMPDEST PUSH2 0x77C JUMP JUMPDEST CALLVALUE DUP1 ISZERO PUSH2 0x351 JUMPI PUSH1 0x0 DUP1 REVERT JUMPDEST POP PUSH2 0x1D6 PUSH1 0x9 SLOAD DUP2 JUMP JUMPDEST CALLVALUE DUP1 ISZERO PUSH2 0x367 JUMPI PUSH1 0x0 DUP1 REVERT JUMPDEST POP PUSH2 0x1D6 PUSH2 0x376 CALLDATASIZE PUSH1 0x4 PUSH2 0x11A2 JUMP JUMPDEST PUSH2 0x7B5 JUMP JUMPDEST CALLVALUE DUP1 ISZERO PUSH2 0x387 JUMPI PUSH1 0x0 DUP1 REVERT JUMPDEST POP PUSH2 0x1D6 PUSH1 0x12 SLOAD DUP2 JUMP JUMPDEST CALLVALUE DUP1 ISZERO PUSH2 0x39D JUMPI PUSH1 0x0 DUP1 REVERT JUMPDEST POP PUSH2 0x3E1 PUSH2 0x3AC CALLDATASIZE PUSH1 0x4 PUSH2 0x11A2 JUMP JUMPDEST PUSH1 0x7 PUSH1 0x20 MSTORE PUSH1 0x0 SWAP1 DUP2 MSTORE PUSH1 0x40 SWAP1 KECCAK256 DUP1 SLOAD PUSH1 0x1 DUP3 ADD SLOAD PUSH1 0x2 DUP4 ADD SLOAD PUSH1 0x3 DUP5 ADD SLOAD PUSH1 0x4 DUP6 ADD SLOAD PUSH1 0x5 SWAP1 SWAP6 ADD SLOAD SWAP4 SWAP5 SWAP3 SWAP4 SWAP2 SWAP3 SWAP1 SWAP2 DUP7 JUMP JUMPDEST PUSH1 0x40 DUP1 MLOAD SWAP7 DUP8 MSTORE PUSH1 0x20 DUP8 ADD SWAP6 SWAP1 SWAP6 MSTORE SWAP4 DUP6 ADD SWAP3 SWAP1 SWAP3 MSTORE PUSH1 0x60 DUP5 ADD MSTORE PUSH1 0x80 DUP4 ADD MSTORE PUSH1 0xA0 DUP3 ADD MSTORE PUSH1 0xC0 ADD PUSH2 0x1E0 JUMP JUMPDEST PUSH2 0x1B1 PUSH2 0x82E JUMP JUMPDEST CALLVALUE DUP1 ISZERO PUSH2 0x422 JUMPI PUSH1 0x0 DUP1 REVERT JUMPDEST POP PUSH2 0x1D6 PUSH1 0xB SLOAD DUP2 JUMP JUMPDEST CALLVALUE DUP1 ISZERO PUSH2 0x438 JUMPI PUSH1 0x0 DUP1 REVERT JUMPDEST POP PUSH1 0x0 SLOAD PUSH2 0x2ED SWAP1 PUSH1 0x1 PUSH1 0x1 PUSH1 0xA0 SHL SUB AND DUP2 JUMP JUMPDEST CALLVALUE DUP1 ISZERO PUSH2 0x458 JUMPI PUSH1 0x0 DUP1 REVERT JUMPDEST POP PUSH2 0x1D6 PUSH1 0xA SLOAD DUP2 JUMP JUMPDEST CALLVALUE DUP1 ISZERO PUSH2 0x46E JUMPI PUSH1 0x0 DUP1 REVERT JUMPDEST POP PUSH2 0x1B1 PUSH2 0xB20 JUMP JUMPDEST CALLVALUE DUP1 ISZERO PUSH2 0x483 JUMPI PUSH1 0x0 DUP1 REVERT JUMPDEST POP PUSH1 0x3 SLOAD PUSH1 0x1 PUSH1 0x1 PUSH1 0xA0 SHL SUB AND PUSH2 0x2ED JUMP JUMPDEST CALLVALUE DUP1 ISZERO PUSH2 0x4A1 JUMPI PUSH1 0x0 DUP1 REVERT JUMPDEST POP PUSH2 0x1B1 PUSH2 0x4B0 CALLDATASIZE PUSH1 0x4 PUSH2 0x120D JUMP JUMPDEST PUSH2 0xB2B JUMP JUMPDEST CALLVALUE DUP1 ISZERO PUSH2 0x4C1 JUMPI PUSH1 0x0 DUP1 REVERT JUMPDEST POP PUSH2 0x1D6 PUSH1 0x10 SLOAD DUP2 JUMP JUMPDEST PUSH1 0x0 SLOAD PUSH1 0x1 PUSH1 0x1 PUSH1 0xA0 SHL SUB AND CALLER EQ PUSH2 0x4E2 JUMPI PUSH1 0x0 DUP1 REVERT JUMPDEST PUSH1 0x3 DUP1 SLOAD PUSH1 0x1 PUSH1 0x1 PUSH1 0xA0 SHL SUB NOT AND PUSH1 0x1 PUSH1 0x1 PUSH1 0xA0 SHL SUB SWAP3 SWAP1 SWAP3 AND SWAP2 SWAP1 SWAP2 OR SWAP1 SSTORE JUMP JUMPDEST PUSH1 0x0 SLOAD PUSH1 0x1 PUSH1 0x1 PUSH1 0xA0 SHL SUB AND CALLER EQ PUSH2 0x51B JUMPI PUSH1 0x0 DUP1 REVERT JUMPDEST PUSH1 0x12 SLOAD PUSH1 0x1 PUSH1 0x1 PUSH1 0xA0 SHL SUB DUP4 AND PUSH1 0x0 SWAP1 DUP2 MSTORE PUSH1 0x7 PUSH1 0x20 MSTORE PUSH1 0x40 SWAP1 KECCAK256 SLOAD GT ISZERO PUSH2 0x546 JUMPI PUSH2 0x546 DUP3 PUSH2 0xC18 JUMP JUMPDEST PUSH1 0x0 DUP2 GT DUP1 ISZERO PUSH2 0x56C JUMPI POP PUSH1 0x1 PUSH1 0x1 PUSH1 0xA0 SHL SUB DUP3 AND PUSH1 0x0 SWAP1 DUP2 MSTORE PUSH1 0x7 PUSH1 0x20 MSTORE PUSH1 0x40 SWAP1 KECCAK256 SLOAD ISZERO JUMPDEST ISZERO PUSH2 0x5D2 JUMPI PUSH1 0x4 DUP1 SLOAD PUSH1 0x1 PUSH1 0x1 PUSH1 0xA0 SHL SUB DUP5 AND PUSH1 0x0 DUP2 DUP2 MSTORE PUSH1 0x5 PUSH1 0x20 MSTORE PUSH1 0x40 DUP2 KECCAK256 DUP4 SWAP1 SSTORE PUSH1 0x1 DUP4 ADD DUP5 SSTORE SWAP3 SWAP1 SWAP3 MSTORE PUSH32 0x8A35ACFBC15FF81A39AE7D344FD709F28E8600B4AA8C65C6B64BFE7FE36BD19B ADD DUP1 SLOAD PUSH1 0x1 PUSH1 0x1 PUSH1 0xA0 SHL SUB NOT AND SWAP1 SWAP2 OR SWAP1 SSTORE PUSH2 0x605 JUMP JUMPDEST DUP1 ISZERO DUP1 ISZERO PUSH2 0x5F7 JUMPI POP PUSH1 0x1 PUSH1 0x1 PUSH1 0xA0 SHL SUB DUP3 AND PUSH1 0x0 SWAP1 DUP2 MSTORE PUSH1 0x7 PUSH1 0x20 MSTORE PUSH1 0x40 SWAP1 KECCAK256 SLOAD ISZERO ISZERO JUMPDEST ISZERO PUSH2 0x605 JUMPI PUSH2 0x605 DUP3 PUSH2 0xE01 JUMP JUMPDEST PUSH1 0x1 PUSH1 0x1 PUSH1 0xA0 SHL SUB DUP3 AND PUSH1 0x0 SWAP1 DUP2 MSTORE PUSH1 0x7 PUSH1 0x20 MSTORE PUSH1 0x40 SWAP1 KECCAK256 SLOAD PUSH1 0x8 SLOAD PUSH2 0x636 SWAP2 DUP4 SWAP2 PUSH2 0x630 SWAP2 PUSH2 0xF16 JUMP JUMPDEST SWAP1 PUSH2 0xF61 JUMP JUMPDEST PUSH1 0x8 SSTORE PUSH1 0x1 PUSH1 0x1 PUSH1 0xA0 SHL SUB DUP3 AND PUSH1 0x0 SWAP1 DUP2 MSTORE PUSH1 0x7 PUSH1 0x20 MSTORE PUSH1 0x40 SWAP1 KECCAK256 DUP2 DUP2 SSTORE PUSH1 0x1 ADD DUP2 SWAP1 SSTORE PUSH2 0x663 DUP2 PUSH2 0xFC5 JUMP JUMPDEST PUSH1 0x1 PUSH1 0x1 PUSH1 0xA0 SHL SUB DUP4 AND PUSH1 0x0 SWAP1 DUP2 MSTORE PUSH1 0x7 PUSH1 0x20 MSTORE PUSH1 0x40 SWAP1 KECCAK256 PUSH1 0x2 DUP2 ADD SWAP2 SWAP1 SWAP2 SSTORE PUSH1 0x1 ADD SLOAD PUSH2 0x690 SWAP1 PUSH2 0xFEF JUMP JUMPDEST PUSH1 0x1 PUSH1 0x1 PUSH1 0xA0 SHL SUB SWAP1 SWAP3 AND PUSH1 0x0 SWAP1 DUP2 MSTORE PUSH1 0x7 PUSH1 0x20 MSTORE PUSH1 0x40 SWAP1 KECCAK256 PUSH1 0x4 ADD SWAP2 SWAP1 SWAP2 SSTORE POP JUMP JUMPDEST PUSH1 0x1 PUSH1 0x1 PUSH1 0xA0 SHL SUB DUP2 AND PUSH1 0x0 SWAP1 DUP2 MSTORE PUSH1 0x7 PUSH1 0x20 MSTORE PUSH1 0x40 DUP2 KECCAK256 SLOAD DUP2 SUB PUSH2 0x6DA JUMPI POP PUSH1 0x0 SWAP2 SWAP1 POP JUMP JUMPDEST PUSH1 0x1 PUSH1 0x1 PUSH1 0xA0 SHL SUB DUP3 AND PUSH1 0x0 SWAP1 DUP2 MSTORE PUSH1 0x7 PUSH1 0x20 MSTORE PUSH1 0x40 DUP2 KECCAK256 SLOAD PUSH2 0x6FC SWAP1 PUSH2 0xFC5 JUMP JUMPDEST PUSH1 0x1 PUSH1 0x1 PUSH1 0xA0 SHL SUB DUP5 AND PUSH1 0x0 SWAP1 DUP2 MSTORE PUSH1 0x7 PUSH1 0x20 MSTORE PUSH1 0x40 SWAP1 KECCAK256 PUSH1 0x2 ADD SLOAD SWAP1 SWAP2 POP DUP1 DUP3 GT PUSH2 0x72C JUMPI POP PUSH1 0x0 SWAP4 SWAP3 POP POP POP JUMP JUMPDEST PUSH2 0x736 DUP3 DUP3 PUSH2 0xF16 JUMP JUMPDEST SWAP5 SWAP4 POP POP POP POP JUMP JUMPDEST PUSH1 0x0 SLOAD PUSH1 0x1 PUSH1 0x1 PUSH1 0xA0 SHL SUB AND CALLER EQ PUSH2 0x755 JUMPI PUSH1 0x0 DUP1 REVERT JUMPDEST PUSH1 0x10 SWAP2 SWAP1 SWAP2 SSTORE PUSH1 0x11 SSTORE JUMP JUMPDEST PUSH1 0x0 SLOAD PUSH1 0x1 PUSH1 0x1 PUSH1 0xA0 SHL SUB AND CALLER EQ PUSH2 0x777 JUMPI PUSH1 0x0 DUP1 REVERT JUMPDEST PUSH1 0x12 SSTORE JUMP JUMPDEST PUSH1 0x0 SLOAD PUSH1 0x1 PUSH1 0x1 PUSH1 0xA0 SHL SUB AND CALLER EQ PUSH2 0x793 JUMPI PUSH1 0x0 DUP1 REVERT JUMPDEST PUSH1 0x1 DUP1 SLOAD PUSH1 0x1 PUSH1 0x1 PUSH1 0xA0 SHL SUB NOT AND PUSH1 0x1 PUSH1 0x1 PUSH1 0xA0 SHL SUB SWAP3 SWAP1 SWAP3 AND SWAP2 SWAP1 SWAP2 OR SWAP1 SSTORE JUMP JUMPDEST PUSH1 0x1 PUSH1 0x1 PUSH1 0xA0 SHL SUB DUP2 AND PUSH1 0x0 SWAP1 DUP2 MSTORE PUSH1 0x7 PUSH1 0x20 MSTORE PUSH1 0x40 DUP2 KECCAK256 SLOAD DUP2 SUB PUSH2 0x7DC JUMPI POP PUSH1 0x0 SWAP2 SWAP1 POP JUMP JUMPDEST PUSH1 0x1 PUSH1 0x1 PUSH1 0xA0 SHL SUB DUP3 AND PUSH1 0x0 SWAP1 DUP2 MSTORE PUSH1 0x7 PUSH1 0x20 MSTORE PUSH1 0x40 DUP2 KECCAK256 SLOAD PUSH2 0x7FE SWAP1 PUSH2 0xFEF JUMP JUMPDEST PUSH1 0x1 PUSH1 0x1 PUSH1 0xA0 SHL SUB DUP5 AND PUSH1 0x0 SWAP1 DUP2 MSTORE PUSH1 0x7 PUSH1 0x20 MSTORE PUSH1 0x40 SWAP1 KECCAK256 PUSH1 0x4 ADD SLOAD SWAP1 SWAP2 POP DUP1 DUP3 GT PUSH2 0x72C JUMPI POP PUSH1 0x0 SWAP4 SWAP3 POP POP POP JUMP JUMPDEST PUSH1 0x1 SLOAD PUSH1 0x40 MLOAD PUSH4 0x70A08231 PUSH1 0xE0 SHL DUP2 MSTORE ADDRESS PUSH1 0x4 DUP3 ADD MSTORE PUSH1 0x0 SWAP2 PUSH1 0x1 PUSH1 0x1 PUSH1 0xA0 SHL SUB AND SWAP1 PUSH4 0x70A08231 SWAP1 PUSH1 0x24 ADD PUSH1 0x20 PUSH1 0x40 MLOAD DUP1 DUP4 SUB DUP2 DUP7 GAS STATICCALL ISZERO DUP1 ISZERO PUSH2 0x877 JUMPI RETURNDATASIZE PUSH1 0x0 DUP1 RETURNDATACOPY RETURNDATASIZE PUSH1 0x0 REVERT JUMPDEST POP POP POP POP PUSH1 0x40 MLOAD RETURNDATASIZE PUSH1 0x1F NOT PUSH1 0x1F DUP3 ADD AND DUP3 ADD DUP1 PUSH1 0x40 MSTORE POP DUP2 ADD SWAP1 PUSH2 0x89B SWAP2 SWAP1 PUSH2 0x1226 JUMP JUMPDEST SWAP1 POP PUSH1 0x0 PUSH2 0x8A9 CALLVALUE SELFBALANCE PUSH2 0x1255 JUMP JUMPDEST SWAP1 POP PUSH1 0x0 PUSH2 0x8B8 CALLVALUE PUSH1 0x2 PUSH2 0x1019 JUMP JUMPDEST PUSH1 0x40 DUP1 MLOAD PUSH1 0x2 DUP1 DUP3 MSTORE PUSH1 0x60 DUP3 ADD DUP4 MSTORE SWAP3 SWAP4 POP PUSH1 0x0 SWAP3 SWAP1 SWAP2 PUSH1 0x20 DUP4 ADD SWAP1 DUP1 CALLDATASIZE DUP4 CALLDATACOPY POP POP PUSH1 0x2 SLOAD PUSH1 0x40 DUP1 MLOAD PUSH4 0x15AB88C9 PUSH1 0xE3 SHL DUP2 MSTORE SWAP1 MLOAD SWAP4 SWAP5 POP PUSH1 0x1 PUSH1 0x1 PUSH1 0xA0 SHL SUB SWAP1 SWAP2 AND SWAP3 PUSH4 0xAD5C4648 SWAP3 POP PUSH1 0x4 DUP1 DUP4 ADD SWAP3 PUSH1 0x20 SWAP3 SWAP2 SWAP1 DUP3 SWAP1 SUB ADD DUP2 DUP7 GAS STATICCALL ISZERO DUP1 ISZERO PUSH2 0x927 JUMPI RETURNDATASIZE PUSH1 0x0 DUP1 RETURNDATACOPY RETURNDATASIZE PUSH1 0x0 REVERT JUMPDEST POP POP POP POP PUSH1 0x40 MLOAD RETURNDATASIZE PUSH1 0x1F NOT PUSH1 0x1F DUP3 ADD AND DUP3 ADD DUP1 PUSH1 0x40 MSTORE POP DUP2 ADD SWAP1 PUSH2 0x94B SWAP2 SWAP1 PUSH2 0x1268 JUMP JUMPDEST DUP2 PUSH1 0x0 DUP2 MLOAD DUP2 LT PUSH2 0x95E JUMPI PUSH2 0x95E PUSH2 0x1285 JUMP JUMPDEST PUSH1 0x1 PUSH1 0x1 PUSH1 0xA0 SHL SUB SWAP3 DUP4 AND PUSH1 0x20 SWAP2 DUP3 MUL SWAP3 SWAP1 SWAP3 ADD ADD MSTORE PUSH1 0x1 DUP1 SLOAD DUP4 MLOAD SWAP3 AND SWAP2 DUP4 SWAP2 SWAP1 DUP2 LT PUSH2 0x98E JUMPI PUSH2 0x98E PUSH2 0x1285 JUMP JUMPDEST PUSH1 0x1 PUSH1 0x1 PUSH1 0xA0 SHL SUB SWAP3 DUP4 AND PUSH1 0x20 SWAP2 DUP3 MUL SWAP3 SWAP1 SWAP3 ADD ADD MSTORE PUSH1 0x2 SLOAD PUSH1 0x40 MLOAD PUSH4 0xB6F9DE95 PUSH1 0xE0 SHL DUP2 MSTORE SWAP2 AND SWAP1 PUSH4 0xB6F9DE95 SWAP1 DUP5 SWAP1 PUSH2 0x9D4 SWAP1 PUSH1 0x0 SWAP1 DUP7 SWAP1 ADDRESS SWAP1 TIMESTAMP SWAP1 PUSH1 0x4 ADD PUSH2 0x129B JUMP JUMPDEST PUSH1 0x0 PUSH1 0x40 MLOAD DUP1 DUP4 SUB DUP2 DUP6 DUP9 DUP1 EXTCODESIZE ISZERO DUP1 ISZERO PUSH2 0x9ED JUMPI PUSH1 0x0 DUP1 REVERT JUMPDEST POP GAS CALL ISZERO DUP1 ISZERO PUSH2 0xA01 JUMPI RETURNDATASIZE PUSH1 0x0 DUP1 RETURNDATACOPY RETURNDATASIZE PUSH1 0x0 REVERT JUMPDEST POP POP PUSH1 0x1 SLOAD PUSH1 0x40 MLOAD PUSH4 0x70A08231 PUSH1 0xE0 SHL DUP2 MSTORE ADDRESS PUSH1 0x4 DUP3 ADD MSTORE PUSH1 0x0 SWAP5 POP PUSH2 0xA81 SWAP4 POP DUP9 SWAP3 POP PUSH1 0x1 PUSH1 0x1 PUSH1 0xA0 SHL SUB SWAP1 SWAP2 AND SWAP1 PUSH4 0x70A08231 SWAP1 PUSH1 0x24 ADD PUSH1 0x20 PUSH1 0x40 MLOAD DUP1 DUP4 SUB DUP2 DUP7 GAS STATICCALL ISZERO DUP1 ISZERO PUSH2 0xA57 JUMPI RETURNDATASIZE PUSH1 0x0 DUP1 RETURNDATACOPY RETURNDATASIZE PUSH1 0x0 REVERT JUMPDEST POP POP POP POP PUSH1 0x40 MLOAD RETURNDATASIZE PUSH1 0x1F NOT PUSH1 0x1F DUP3 ADD AND DUP3 ADD DUP1 PUSH1 0x40 MSTORE POP DUP2 ADD SWAP1 PUSH2 0xA7B SWAP2 SWAP1 PUSH2 0x1226 JUMP JUMPDEST SWAP1 PUSH2 0xF16 JUMP JUMPDEST SWAP1 POP PUSH1 0x0 PUSH2 0xA8F SELFBALANCE DUP7 PUSH2 0xF16 JUMP JUMPDEST PUSH1 0xC SLOAD SWAP1 SWAP2 POP PUSH2 0xA9F SWAP1 DUP4 PUSH2 0xF61 JUMP JUMPDEST PUSH1 0xC SSTORE PUSH1 0x8 SLOAD PUSH2 0xAD5 SWAP1 PUSH2 0xACC SWAP1 PUSH2 0xAC6 PUSH15 0xC097CE7BC90715B34B9F1000000000 DUP7 PUSH2 0x105B JUMP JUMPDEST SWAP1 PUSH2 0x1019 JUMP JUMPDEST PUSH1 0xE SLOAD SWAP1 PUSH2 0xF61 JUMP JUMPDEST PUSH1 0xE SSTORE PUSH1 0x9 SLOAD PUSH2 0xAE5 SWAP1 DUP3 PUSH2 0xF61 JUMP JUMPDEST PUSH1 0x9 SSTORE PUSH1 0x8 SLOAD PUSH2 0xB15 SWAP1 PUSH2 0xB0C SWAP1 PUSH2 0xAC6 PUSH15 0xC097CE7BC90715B34B9F1000000000 DUP6 PUSH2 0x105B JUMP JUMPDEST PUSH1 0xB SLOAD SWAP1 PUSH2 0xF61 JUMP JUMPDEST PUSH1 0xB SSTORE POP POP POP POP POP POP JUMP JUMPDEST PUSH2 0xB29 CALLER PUSH2 0xC18 JUMP JUMPDEST JUMP JUMPDEST PUSH1 0x4 SLOAD PUSH1 0x0 DUP2 SWAP1 SUB PUSH2 0xB3B JUMPI POP POP JUMP JUMPDEST PUSH1 0x0 DUP1 GAS SWAP1 POP PUSH1 0x0 JUMPDEST DUP5 DUP4 LT DUP1 ISZERO PUSH2 0xB52 JUMPI POP DUP4 DUP2 LT JUMPDEST ISZERO PUSH2 0xC11 JUMPI DUP4 PUSH1 0xF SLOAD LT PUSH2 0xB66 JUMPI PUSH1 0x0 PUSH1 0xF SSTORE JUMPDEST PUSH2 0xB98 PUSH1 0x4 PUSH1 0xF SLOAD DUP2 SLOAD DUP2 LT PUSH2 0xB7E JUMPI PUSH2 0xB7E PUSH2 0x1285 JUMP JUMPDEST PUSH1 0x0 SWAP2 DUP3 MSTORE PUSH1 0x20 SWAP1 SWAP2 KECCAK256 ADD SLOAD PUSH1 0x1 PUSH1 0x1 PUSH1 0xA0 SHL SUB AND PUSH2 0x10DD JUMP JUMPDEST ISZERO PUSH2 0xBCF JUMPI PUSH2 0xBCF PUSH1 0x4 PUSH1 0xF SLOAD DUP2 SLOAD DUP2 LT PUSH2 0xBB5 JUMPI PUSH2 0xBB5 PUSH2 0x1285 JUMP JUMPDEST PUSH1 0x0 SWAP2 DUP3 MSTORE PUSH1 0x20 SWAP1 SWAP2 KECCAK256 ADD SLOAD PUSH1 0x1 PUSH1 0x1 PUSH1 0xA0 SHL SUB AND PUSH2 0xC18 JUMP JUMPDEST PUSH2 0xBE4 PUSH2 0xBDD GAS DUP5 SWAP1 PUSH2 0xF16 JUMP JUMPDEST DUP5 SWAP1 PUSH2 0xF61 JUMP JUMPDEST SWAP3 POP GAS PUSH1 0xF DUP1 SLOAD SWAP2 SWAP4 POP PUSH1 0x0 PUSH2 0xBF9 DUP4 PUSH2 0x1305 JUMP JUMPDEST SWAP2 SWAP1 POP SSTORE POP DUP1 DUP1 PUSH2 0xC09 SWAP1 PUSH2 0x1305 JUMP JUMPDEST SWAP2 POP POP PUSH2 0xB44 JUMP JUMPDEST POP POP POP POP POP JUMP JUMPDEST PUSH1 0x1 PUSH1 0x1 PUSH1 0xA0 SHL SUB DUP2 AND PUSH1 0x0 SWAP1 DUP2 MSTORE PUSH1 0x7 PUSH1 0x20 MSTORE PUSH1 0x40 DUP2 KECCAK256 SLOAD SWAP1 SUB PUSH2 0xC3A JUMPI POP JUMP JUMPDEST PUSH1 0x0 PUSH2 0xC45 DUP3 PUSH2 0x6B3 JUMP JUMPDEST SWAP1 POP DUP1 ISZERO PUSH2 0xDFD JUMPI PUSH1 0x0 PUSH2 0xC58 DUP4 PUSH2 0x7B5 JUMP JUMPDEST PUSH1 0xA SLOAD SWAP1 SWAP2 POP PUSH2 0xC68 SWAP1 DUP4 PUSH2 0xF61 JUMP JUMPDEST PUSH1 0xA SSTORE PUSH1 0xD SLOAD PUSH2 0xC78 SWAP1 DUP3 PUSH2 0xF61 JUMP JUMPDEST PUSH1 0xD SSTORE PUSH1 0x1 SLOAD PUSH1 0x40 MLOAD PUSH4 0xA9059CBB PUSH1 0xE0 SHL DUP2 MSTORE PUSH1 0x1 PUSH1 0x1 PUSH1 0xA0 SHL SUB DUP6 DUP2 AND PUSH1 0x4 DUP4 ADD MSTORE PUSH1 0x24 DUP3 ADD DUP5 SWAP1 MSTORE SWAP1 SWAP2 AND SWAP1 PUSH4 0xA9059CBB SWAP1 PUSH1 0x44 ADD PUSH1 0x20 PUSH1 0x40 MLOAD DUP1 DUP4 SUB DUP2 PUSH1 0x0 DUP8 GAS CALL ISZERO DUP1 ISZERO PUSH2 0xCCE JUMPI RETURNDATASIZE PUSH1 0x0 DUP1 RETURNDATACOPY RETURNDATASIZE PUSH1 0x0 REVERT JUMPDEST POP POP POP POP PUSH1 0x40 MLOAD RETURNDATASIZE PUSH1 0x1F NOT PUSH1 0x1F DUP3 ADD AND DUP3 ADD DUP1 PUSH1 0x40 MSTORE POP DUP2 ADD SWAP1 PUSH2 0xCF2 SWAP2 SWAP1 PUSH2 0x131E JUMP JUMPDEST POP PUSH1 0x40 MLOAD PUSH1 0x1 PUSH1 0x1 PUSH1 0xA0 SHL SUB DUP5 AND SWAP1 DUP4 ISZERO PUSH2 0x8FC MUL SWAP1 DUP5 SWAP1 PUSH1 0x0 DUP2 DUP2 DUP2 DUP6 DUP9 DUP9 CALL SWAP4 POP POP POP POP ISZERO DUP1 ISZERO PUSH2 0xD29 JUMPI RETURNDATASIZE PUSH1 0x0 DUP1 RETURNDATACOPY RETURNDATASIZE PUSH1 0x0 REVERT JUMPDEST POP PUSH1 0x1 PUSH1 0x1 PUSH1 0xA0 SHL SUB DUP4 AND PUSH1 0x0 SWAP1 DUP2 MSTORE PUSH1 0x6 PUSH1 0x20 SWAP1 DUP2 MSTORE PUSH1 0x40 DUP1 DUP4 KECCAK256 TIMESTAMP SWAP1 SSTORE PUSH1 0x7 SWAP1 SWAP2 MSTORE SWAP1 KECCAK256 PUSH1 0x3 ADD SLOAD PUSH2 0xD5D SWAP1 DUP4 PUSH2 0xF61 JUMP JUMPDEST PUSH1 0x1 PUSH1 0x1 PUSH1 0xA0 SHL SUB DUP5 AND PUSH1 0x0 SWAP1 DUP2 MSTORE PUSH1 0x7 PUSH1 0x20 MSTORE PUSH1 0x40 SWAP1 KECCAK256 PUSH1 0x3 DUP2 ADD SWAP2 SWAP1 SWAP2 SSTORE SLOAD PUSH2 0xD87 SWAP1 PUSH2 0xFC5 JUMP JUMPDEST PUSH1 0x1 PUSH1 0x1 PUSH1 0xA0 SHL SUB DUP5 AND PUSH1 0x0 SWAP1 DUP2 MSTORE PUSH1 0x7 PUSH1 0x20 MSTORE PUSH1 0x40 SWAP1 KECCAK256 PUSH1 0x2 DUP2 ADD SWAP2 SWAP1 SWAP2 SSTORE PUSH1 0x5 ADD SLOAD PUSH2 0xDB5 SWAP1 DUP3 PUSH2 0xF61 JUMP JUMPDEST PUSH1 0x1 PUSH1 0x1 PUSH1 0xA0 SHL SUB DUP5 AND PUSH1 0x0 SWAP1 DUP2 MSTORE PUSH1 0x7 PUSH1 0x20 MSTORE PUSH1 0x40 SWAP1 KECCAK256 PUSH1 0x5 DUP2 ADD SWAP2 SWAP1 SWAP2 SSTORE SLOAD PUSH2 0xDDF SWAP1 PUSH2 0xFEF JUMP JUMPDEST PUSH1 0x1 PUSH1 0x1 PUSH1 0xA0 SHL SUB DUP5 AND PUSH1 0x0 SWAP1 DUP2 MSTORE PUSH1 0x7 PUSH1 0x20 MSTORE PUSH1 0x40 SWAP1 KECCAK256 PUSH1 0x4 ADD SSTORE POP JUMPDEST POP POP JUMP JUMPDEST PUSH1 0x4 DUP1 SLOAD PUSH2 0xE11 SWAP1 PUSH1 0x1 SWAP1 PUSH2 0x1255 JUMP JUMPDEST DUP2 SLOAD DUP2 LT PUSH2 0xE21 JUMPI PUSH2 0xE21 PUSH2 0x1285 JUMP JUMPDEST PUSH1 0x0 SWAP2 DUP3 MSTORE PUSH1 0x20 DUP1 DUP4 KECCAK256 SWAP1 SWAP2 ADD SLOAD PUSH1 0x1 PUSH1 0x1 PUSH1 0xA0 SHL SUB DUP5 DUP2 AND DUP5 MSTORE PUSH1 0x5 SWAP1 SWAP3 MSTORE PUSH1 0x40 SWAP1 SWAP3 KECCAK256 SLOAD PUSH1 0x4 DUP1 SLOAD SWAP3 SWAP1 SWAP4 AND SWAP3 SWAP2 DUP2 LT PUSH2 0xE5F JUMPI PUSH2 0xE5F PUSH2 0x1285 JUMP JUMPDEST PUSH1 0x0 SWAP2 DUP3 MSTORE PUSH1 0x20 DUP1 DUP4 KECCAK256 SWAP2 SWAP1 SWAP2 ADD DUP1 SLOAD PUSH1 0x1 PUSH1 0x1 PUSH1 0xA0 SHL SUB NOT AND PUSH1 0x1 PUSH1 0x1 PUSH1 0xA0 SHL SUB SWAP5 DUP6 AND OR SWAP1 SSTORE SWAP2 DUP4 AND DUP2 MSTORE PUSH1 0x5 SWAP2 DUP3 SWAP1 MSTORE PUSH1 0x40 DUP2 KECCAK256 SLOAD PUSH1 0x4 DUP1 SLOAD SWAP2 SWAP4 SWAP3 SWAP2 PUSH2 0xEAB SWAP1 PUSH1 0x1 SWAP1 PUSH2 0x1255 JUMP JUMPDEST DUP2 SLOAD DUP2 LT PUSH2 0xEBB JUMPI PUSH2 0xEBB PUSH2 0x1285 JUMP JUMPDEST PUSH1 0x0 SWAP2 DUP3 MSTORE PUSH1 0x20 DUP1 DUP4 KECCAK256 SWAP1 SWAP2 ADD SLOAD PUSH1 0x1 PUSH1 0x1 PUSH1 0xA0 SHL SUB AND DUP4 MSTORE DUP3 ADD SWAP3 SWAP1 SWAP3 MSTORE PUSH1 0x40 ADD SWAP1 KECCAK256 SSTORE PUSH1 0x4 DUP1 SLOAD DUP1 PUSH2 0xEF1 JUMPI PUSH2 0xEF1 PUSH2 0x1340 JUMP JUMPDEST PUSH1 0x0 DUP3 DUP2 MSTORE PUSH1 0x20 SWAP1 KECCAK256 DUP2 ADD PUSH1 0x0 NOT SWAP1 DUP2 ADD DUP1 SLOAD PUSH1 0x1 PUSH1 0x1 PUSH1 0xA0 SHL SUB NOT AND SWAP1 SSTORE ADD SWAP1 SSTORE POP JUMP JUMPDEST PUSH1 0x0 PUSH2 0xF58 DUP4 DUP4 PUSH1 0x40 MLOAD DUP1 PUSH1 0x40 ADD PUSH1 0x40 MSTORE DUP1 PUSH1 0x1E DUP2 MSTORE PUSH1 0x20 ADD PUSH32 0x536166654D6174683A207375627472616374696F6E206F766572666C6F770000 DUP2 MSTORE POP PUSH2 0x1122 JUMP JUMPDEST SWAP1 POP JUMPDEST SWAP3 SWAP2 POP POP JUMP JUMPDEST PUSH1 0x0 DUP1 PUSH2 0xF6E DUP4 DUP6 PUSH2 0x1356 JUMP JUMPDEST SWAP1 POP DUP4 DUP2 LT ISZERO PUSH2 0xF58 JUMPI PUSH1 0x40 MLOAD PUSH3 0x461BCD PUSH1 0xE5 SHL DUP2 MSTORE PUSH1 0x20 PUSH1 0x4 DUP3 ADD MSTORE PUSH1 0x1B PUSH1 0x24 DUP3 ADD MSTORE PUSH32 0x536166654D6174683A206164646974696F6E206F766572666C6F770000000000 PUSH1 0x44 DUP3 ADD MSTORE PUSH1 0x64 ADD JUMPDEST PUSH1 0x40 MLOAD DUP1 SWAP2 SUB SWAP1 REVERT JUMPDEST PUSH1 0x0 PUSH2 0xF5B PUSH15 0xC097CE7BC90715B34B9F1000000000 PUSH2 0xAC6 PUSH1 0xB SLOAD DUP6 PUSH2 0x105B SWAP1 SWAP2 SWAP1 PUSH4 0xFFFFFFFF AND JUMP JUMPDEST PUSH1 0x0 PUSH2 0xF5B PUSH15 0xC097CE7BC90715B34B9F1000000000 PUSH2 0xAC6 PUSH1 0xE SLOAD DUP6 PUSH2 0x105B SWAP1 SWAP2 SWAP1 PUSH4 0xFFFFFFFF AND JUMP JUMPDEST PUSH1 0x0 PUSH2 0xF58 DUP4 DUP4 PUSH1 0x40 MLOAD DUP1 PUSH1 0x40 ADD PUSH1 0x40 MSTORE DUP1 PUSH1 0x1A DUP2 MSTORE PUSH1 0x20 ADD PUSH32 0x536166654D6174683A206469766973696F6E206279207A65726F000000000000 DUP2 MSTORE POP PUSH2 0x115C JUMP JUMPDEST PUSH1 0x0 DUP3 PUSH1 0x0 SUB PUSH2 0x106D JUMPI POP PUSH1 0x0 PUSH2 0xF5B JUMP JUMPDEST PUSH1 0x0 PUSH2 0x1079 DUP4 DUP6 PUSH2 0x1369 JUMP JUMPDEST SWAP1 POP DUP3 PUSH2 0x1086 DUP6 DUP4 PUSH2 0x1380 JUMP JUMPDEST EQ PUSH2 0xF58 JUMPI PUSH1 0x40 MLOAD PUSH3 0x461BCD PUSH1 0xE5 SHL DUP2 MSTORE PUSH1 0x20 PUSH1 0x4 DUP3 ADD MSTORE PUSH1 0x21 PUSH1 0x24 DUP3 ADD MSTORE PUSH32 0x536166654D6174683A206D756C7469706C69636174696F6E206F766572666C6F PUSH1 0x44 DUP3 ADD MSTORE PUSH1 0x77 PUSH1 0xF8 SHL PUSH1 0x64 DUP3 ADD MSTORE PUSH1 0x84 ADD PUSH2 0xFBC JUMP JUMPDEST PUSH1 0x10 SLOAD PUSH1 0x1 PUSH1 0x1 PUSH1 0xA0 SHL SUB DUP3 AND PUSH1 0x0 SWAP1 DUP2 MSTORE PUSH1 0x6 PUSH1 0x20 MSTORE PUSH1 0x40 DUP2 KECCAK256 SLOAD SWAP1 SWAP2 TIMESTAMP SWAP2 PUSH2 0x1107 SWAP2 SWAP1 PUSH2 0x1356 JUMP JUMPDEST LT DUP1 ISZERO PUSH2 0xF5B JUMPI POP PUSH1 0x11 SLOAD PUSH2 0x111B DUP4 PUSH2 0x6B3 JUMP JUMPDEST GT SWAP3 SWAP2 POP POP JUMP JUMPDEST PUSH1 0x0 DUP2 DUP5 DUP5 GT ISZERO PUSH2 0x1146 JUMPI PUSH1 0x40 MLOAD PUSH3 0x461BCD PUSH1 0xE5 SHL DUP2 MSTORE PUSH1 0x4 ADD PUSH2 0xFBC SWAP2 SWAP1 PUSH2 0x13A2 JUMP JUMPDEST POP PUSH1 0x0 PUSH2 0x1153 DUP5 DUP7 PUSH2 0x1255 JUMP JUMPDEST SWAP6 SWAP5 POP POP POP POP POP JUMP JUMPDEST PUSH1 0x0 DUP2 DUP4 PUSH2 0x117D JUMPI PUSH1 0x40 MLOAD PUSH3 0x461BCD PUSH1 0xE5 SHL DUP2 MSTORE PUSH1 0x4 ADD PUSH2 0xFBC SWAP2 SWAP1 PUSH2 0x13A2 JUMP JUMPDEST POP PUSH1 0x0 PUSH2 0x1153 DUP5 DUP7 PUSH2 0x1380 JUMP JUMPDEST PUSH1 0x1 PUSH1 0x1 PUSH1 0xA0 SHL SUB DUP2 AND DUP2 EQ PUSH2 0x119F JUMPI PUSH1 0x0 DUP1 REVERT JUMPDEST POP JUMP JUMPDEST PUSH1 0x0 PUSH1 0x20 DUP3 DUP5 SUB SLT ISZERO PUSH2 0x11B4 JUMPI PUSH1 0x0 DUP1 REVERT JUMPDEST DUP2 CALLDATALOAD PUSH2 0xF58 DUP2 PUSH2 0x118A JUMP JUMPDEST PUSH1 0x0 DUP1 PUSH1 0x40 DUP4 DUP6 SUB SLT ISZERO PUSH2 0x11D2 JUMPI PUSH1 0x0 DUP1 REVERT JUMPDEST DUP3 CALLDATALOAD PUSH2 0x11DD DUP2 PUSH2 0x118A JUMP JUMPDEST SWAP5 PUSH1 0x20 SWAP4 SWAP1 SWAP4 ADD CALLDATALOAD SWAP4 POP POP POP JUMP JUMPDEST PUSH1 0x0 DUP1 PUSH1 0x40 DUP4 DUP6 SUB SLT ISZERO PUSH2 0x11FE JUMPI PUSH1 0x0 DUP1 REVERT JUMPDEST POP POP DUP1 CALLDATALOAD SWAP3 PUSH1 0x20 SWAP1 SWAP2 ADD CALLDATALOAD SWAP2 POP JUMP JUMPDEST PUSH1 0x0 PUSH1 0x20 DUP3 DUP5 SUB SLT ISZERO PUSH2 0x121F JUMPI PUSH1 0x0 DUP1 REVERT JUMPDEST POP CALLDATALOAD SWAP2 SWAP1 POP JUMP JUMPDEST PUSH1 0x0 PUSH1 0x20 DUP3 DUP5 SUB SLT ISZERO PUSH2 0x1238 JUMPI PUSH1 0x0 DUP1 REVERT JUMPDEST POP MLOAD SWAP2 SWAP1 POP JUMP JUMPDEST PUSH4 0x4E487B71 PUSH1 0xE0 SHL PUSH1 0x0 MSTORE PUSH1 0x11 PUSH1 0x4 MSTORE PUSH1 0x24 PUSH1 0x0 REVERT JUMPDEST DUP2 DUP2 SUB DUP2 DUP2 GT ISZERO PUSH2 0xF5B JUMPI PUSH2 0xF5B PUSH2 0x123F JUMP JUMPDEST PUSH1 0x0 PUSH1 0x20 DUP3 DUP5 SUB SLT ISZERO PUSH2 0x127A JUMPI PUSH1 0x0 DUP1 REVERT JUMPDEST DUP2 MLOAD PUSH2 0xF58 DUP2 PUSH2 0x118A JUMP JUMPDEST PUSH4 0x4E487B71 PUSH1 0xE0 SHL PUSH1 0x0 MSTORE PUSH1 0x32 PUSH1 0x4 MSTORE PUSH1 0x24 PUSH1 0x0 REVERT JUMPDEST PUSH1 0x0 PUSH1 0x80 DUP3 ADD DUP7 DUP4 MSTORE PUSH1 0x20 PUSH1 0x80 DUP2 DUP6 ADD MSTORE DUP2 DUP8 MLOAD DUP1 DUP5 MSTORE PUSH1 0xA0 DUP7 ADD SWAP2 POP DUP3 DUP10 ADD SWAP4 POP PUSH1 0x0 JUMPDEST DUP2 DUP2 LT ISZERO PUSH2 0x12E5 JUMPI DUP5 MLOAD PUSH1 0x1 PUSH1 0x1 PUSH1 0xA0 SHL SUB AND DUP4 MSTORE SWAP4 DUP4 ADD SWAP4 SWAP2 DUP4 ADD SWAP2 PUSH1 0x1 ADD PUSH2 0x12C0 JUMP JUMPDEST POP POP PUSH1 0x1 PUSH1 0x1 PUSH1 0xA0 SHL SUB SWAP7 SWAP1 SWAP7 AND PUSH1 0x40 DUP6 ADD MSTORE POP POP POP PUSH1 0x60 ADD MSTORE SWAP3 SWAP2 POP POP JUMP JUMPDEST PUSH1 0x0 PUSH1 0x1 DUP3 ADD PUSH2 0x1317 JUMPI PUSH2 0x1317 PUSH2 0x123F JUMP JUMPDEST POP PUSH1 0x1 ADD SWAP1 JUMP JUMPDEST PUSH1 0x0 PUSH1 0x20 DUP3 DUP5 SUB SLT ISZERO PUSH2 0x1330 JUMPI PUSH1 0x0 DUP1 REVERT JUMPDEST DUP2 MLOAD DUP1 ISZERO ISZERO DUP2 EQ PUSH2 0xF58 JUMPI PUSH1 0x0 DUP1 REVERT JUMPDEST PUSH4 0x4E487B71 PUSH1 0xE0 SHL PUSH1 0x0 MSTORE PUSH1 0x31 PUSH1 0x4 MSTORE PUSH1 0x24 PUSH1 0x0 REVERT JUMPDEST DUP1 DUP3 ADD DUP1 DUP3 GT ISZERO PUSH2 0xF5B JUMPI PUSH2 0xF5B PUSH2 0x123F JUMP JUMPDEST DUP1 DUP3 MUL DUP2 ISZERO DUP3 DUP3 DIV DUP5 EQ OR PUSH2 0xF5B JUMPI PUSH2 0xF5B PUSH2 0x123F JUMP JUMPDEST PUSH1 0x0 DUP3 PUSH2 0x139D JUMPI PUSH4 0x4E487B71 PUSH1 0xE0 SHL PUSH1 0x0 MSTORE PUSH1 0x12 PUSH1 0x4 MSTORE PUSH1 0x24 PUSH1 0x0 REVERT JUMPDEST POP DIV SWAP1 JUMP JUMPDEST PUSH1 0x0 PUSH1 0x20 DUP1 DUP4 MSTORE DUP4 MLOAD DUP1 DUP3 DUP6 ADD MSTORE PUSH1 0x0 JUMPDEST DUP2 DUP2 LT ISZERO PUSH2 0x13CF JUMPI DUP6 DUP2 ADD DUP4 ADD MLOAD DUP6 DUP3 ADD PUSH1 0x40 ADD MSTORE DUP3 ADD PUSH2 0x13B3 JUMP JUMPDEST POP PUSH1 0x0 PUSH1 0x40 DUP3 DUP7 ADD ADD MSTORE PUSH1 0x40 PUSH1 0x1F NOT PUSH1 0x1F DUP4 ADD AND DUP6 ADD ADD SWAP3 POP POP POP SWAP3 SWAP2 POP POP JUMP INVALID LOG2 PUSH5 0x6970667358 0x22 SLT KECCAK256 STATICCALL PUSH10 0x1D048C2CD9D836FB5D67 PUSH27 0x21C9DC9F57848AB0ECE71AFE7D26B64313C59764736F6C63430008 SLT STOP CALLER "
		},
		"gasEstimates": {
			"creation": {
				"codeDepositCost": "2305800",
				"executionCost": "infinite",
				"totalCost": "infinite"
			},
			"external": {
				"DECIMALS()": "319",
				"DividendReceiver()": "infinite",
				"SAFUMAXX()": "2448",
				"_swapEnabled()": "2434",
				"_swapEnabledTime()": "2354",
				"_totalSupply()": "infinite",
				"allowance(address,address)": "infinite",
				"approve(address,uint256)": "24563",
				"balanceOf(address)": "2654",
				"checkFeeExempt(address)": "2632",
				"decimals()": "2379",
				"decreaseAllowance(address,uint256)": "infinite",
				"feeDenominator()": "319",
				"increaseAllowance(address,uint256)": "infinite",
				"isDividendExempt(address)": "2616",
				"isNotInSwap()": "2440",
				"isOwner()": "2447",
				"liquidityBuyFee()": "2395",
				"liquiditySellFee()": "2375",
				"maxTransaction()": "2418",
				"maxWallet()": "2416",
				"minSharesRequired()": "2373",
				"name()": "infinite",
				"nftReceiver()": "2406",
				"nftRewardBuyFee()": "2397",
				"nftRewardSellFee()": "2373",
				"owner()": "2432",
				"pair()": "infinite",
				"pairContract()": "2471",
				"renounceOwnership()": "29888",
				"rescueBNB(uint256)": "infinite",
				"rescueToken(address,address)": "infinite",
				"rewardDividendBuyFee()": "2374",
				"rewardDividendSellFee()": "2417",
				"router()": "infinite",
				"safuRewardBuyFee()": "2351",
				"safuRewardSellFee()": "2395",
				"selllessSwap()": "2470",
				"setBuyFees(uint256,uint256,uint256,uint256,uint256)": "infinite",
				"setDistributionCriteria(uint256,uint256)": "infinite",
				"setDistributorSettings(uint256)": "24581",
				"setEnableSwap()": "49811",
				"setFeeReceivers(address,address)": "infinite",
				"setIsDividendExempt(address,bool)": "infinite",
				"setLP(address)": "26799",
				"setMaxWallet(uint256)": "infinite",
				"setMinimumSharesRequired(uint256)": "25624",
				"setRewardToken(address)": "infinite",
				"setSellFees(uint256,uint256,uint256,uint256,uint256)": "infinite",
				"setSelllessSwapAddress(address)": "infinite",
				"setWhitelist(address)": "26861",
				"symbol()": "infinite",
				"totalBuyFee()": "2374",
				"totalSellFee()": "2374",
				"totalSupply()": "infinite",
				"transfer(address,uint256)": "infinite",
				"transferFrom(address,address,uint256)": "infinite",
				"transferOwnership(address)": "infinite",
				"utilityBuyFee()": "2352",
				"utilityReceiver()": "2403",
				"utilitySellFee()": "2396"
			},
			"internal": {
				"_basicTransfer(address,address,uint256)": "infinite",
				"_transferFrom(address,address,uint256)": "infinite",
				"shouldSwapBack()": "infinite",
				"shouldTakeFee(address,address)": "infinite",
				"swapBack()": "infinite",
				"takeFee(address,address,uint256)": "infinite"
			}
		},
		"methodIdentifiers": {
			"DECIMALS()": "2e0f2625",
			"DividendReceiver()": "ce25a738",
			"SAFUMAXX()": "7e164cff",
			"_swapEnabled()": "09afb3ce",
			"_swapEnabledTime()": "0345e353",
			"_totalSupply()": "3eaaf86b",
			"allowance(address,address)": "dd62ed3e",
			"approve(address,uint256)": "095ea7b3",
			"balanceOf(address)": "70a08231",
			"checkFeeExempt(address)": "d4399790",
			"decimals()": "313ce567",
			"decreaseAllowance(address,uint256)": "a457c2d7",
			"feeDenominator()": "180b0d7e",
			"increaseAllowance(address,uint256)": "39509351",
			"isDividendExempt(address)": "4355855a",
			"isNotInSwap()": "83b4ac68",
			"isOwner()": "8f32d59b",
			"liquidityBuyFee()": "ccb61358",
			"liquiditySellFee()": "099d0d30",
			"maxTransaction()": "c3f70b52",
			"maxWallet()": "f8b45b05",
			"minSharesRequired()": "cb39c7f0",
			"name()": "06fdde03",
			"nftReceiver()": "40c637d3",
			"nftRewardBuyFee()": "8933d8ec",
			"nftRewardSellFee()": "7571a0fa",
			"owner()": "8da5cb5b",
			"pair()": "a8aa1b31",
			"pairContract()": "4d709adf",
			"renounceOwnership()": "715018a6",
			"rescueBNB(uint256)": "441b1d30",
			"rescueToken(address,address)": "4707d000",
			"rewardDividendBuyFee()": "aefde9f2",
			"rewardDividendSellFee()": "ac3a5ee3",
			"router()": "f887ea40",
			"safuRewardBuyFee()": "ca3202c9",
			"safuRewardSellFee()": "a9464061",
			"selllessSwap()": "cdadc8c7",
			"setBuyFees(uint256,uint256,uint256,uint256,uint256)": "47a28b79",
			"setDistributionCriteria(uint256,uint256)": "2d48e896",
			"setDistributorSettings(uint256)": "9d1944f5",
			"setEnableSwap()": "acb7f0f1",
			"setFeeReceivers(address,address)": "a4b45c00",
			"setIsDividendExempt(address,bool)": "f708a64f",
			"setLP(address)": "2f34d282",
			"setMaxWallet(uint256)": "5d0044ca",
			"setMinimumSharesRequired(uint256)": "84ec884f",
			"setRewardToken(address)": "8aee8127",
			"setSellFees(uint256,uint256,uint256,uint256,uint256)": "c1cf53c4",
			"setSelllessSwapAddress(address)": "0710fb45",
			"setWhitelist(address)": "854cff2f",
			"symbol()": "95d89b41",
			"totalBuyFee()": "59b107b9",
			"totalSellFee()": "9d9241ec",
			"totalSupply()": "18160ddd",
			"transfer(address,uint256)": "a9059cbb",
			"transferFrom(address,address,uint256)": "23b872dd",
			"transferOwnership(address)": "f2fde38b",
			"utilityBuyFee()": "5821d4a0",
			"utilityReceiver()": "f51d72e9",
			"utilitySellFee()": "4a7e73d3"
		}
	},
	"abi": [
		{
			"inputs": [],
			"stateMutability": "nonpayable",
			"type": "constructor"
		},
		{
			"anonymous": false,
			"inputs": [
				{
					"indexed": true,
					"internalType": "address",
					"name": "owner",
					"type": "address"
				},
				{
					"indexed": true,
					"internalType": "address",
					"name": "spender",
					"type": "address"
				},
				{
					"indexed": false,
					"internalType": "uint256",
					"name": "value",
					"type": "uint256"
				}
			],
			"name": "Approval",
			"type": "event"
		},
		{
			"anonymous": false,
			"inputs": [
				{
					"indexed": false,
					"internalType": "address",
					"name": "utilityReceiver",
					"type": "address"
				},
				{
					"indexed": false,
					"internalType": "address",
					"name": "buybackReceiver",
					"type": "address"
				}
			],
			"name": "FeeReceiversChanged",
			"type": "event"
		},
		{
			"anonymous": false,
			"inputs": [
				{
					"indexed": false,
					"internalType": "uint256",
					"name": "liquidityBuyFee",
					"type": "uint256"
				},
				{
					"indexed": false,
					"internalType": "uint256",
					"name": "rewardDividendBuyFee",
					"type": "uint256"
				},
				{
					"indexed": false,
					"internalType": "uint256",
					"name": "safuRewardBuyFee",
					"type": "uint256"
				},
				{
					"indexed": false,
					"internalType": "uint256",
					"name": "nftRewardBuyFee",
					"type": "uint256"
				},
				{
					"indexed": false,
					"internalType": "uint256",
					"name": "utilityBuyFee",
					"type": "uint256"
				}
			],
			"name": "FeesChanged",
			"type": "event"
		},
		{
			"anonymous": false,
			"inputs": [
				{
					"indexed": true,
					"internalType": "address",
					"name": "previousOwner",
					"type": "address"
				}
			],
			"name": "OwnershipRenounced",
			"type": "event"
		},
		{
			"anonymous": false,
			"inputs": [
				{
					"indexed": true,
					"internalType": "address",
					"name": "previousOwner",
					"type": "address"
				},
				{
					"indexed": true,
					"internalType": "address",
					"name": "newOwner",
					"type": "address"
				}
			],
			"name": "OwnershipTransferred",
			"type": "event"
		},
		{
			"anonymous": false,
			"inputs": [
				{
					"indexed": false,
					"internalType": "uint256",
					"name": "liquiditySellFee",
					"type": "uint256"
				},
				{
					"indexed": false,
					"internalType": "uint256",
					"name": "rewardDividendSellFee",
					"type": "uint256"
				},
				{
					"indexed": false,
					"internalType": "uint256",
					"name": "safuRewardSellFee",
					"type": "uint256"
				},
				{
					"indexed": false,
					"internalType": "uint256",
					"name": "nftRewardSellFee",
					"type": "uint256"
				},
				{
					"indexed": false,
					"internalType": "uint256",
					"name": "utilitySellFee",
					"type": "uint256"
				}
			],
			"name": "SellFeesChanged",
			"type": "event"
		},
		{
			"anonymous": false,
			"inputs": [
				{
					"indexed": false,
					"internalType": "bool",
					"name": "swapEnabled",
					"type": "bool"
				}
			],
			"name": "SwapEnabled",
			"type": "event"
		},
		{
			"anonymous": false,
			"inputs": [
				{
					"indexed": true,
					"internalType": "address",
					"name": "from",
					"type": "address"
				},
				{
					"indexed": true,
					"internalType": "address",
					"name": "to",
					"type": "address"
				},
				{
					"indexed": false,
					"internalType": "uint256",
					"name": "value",
					"type": "uint256"
				}
			],
			"name": "Transfer",
			"type": "event"
		},
		{
			"anonymous": false,
			"inputs": [
				{
					"indexed": false,
					"internalType": "uint256",
					"name": "minSharesRequired",
					"type": "uint256"
				}
			],
			"name": "minShresRequiredChanged",
			"type": "event"
		},
		{
			"inputs": [],
			"name": "DECIMALS",
			"outputs": [
				{
					"internalType": "uint256",
					"name": "",
					"type": "uint256"
				}
			],
			"stateMutability": "view",
			"type": "function"
		},
		{
			"inputs": [],
			"name": "DividendReceiver",
			"outputs": [
				{
					"internalType": "address payable",
					"name": "",
					"type": "address"
				}
			],
			"stateMutability": "view",
			"type": "function"
		},
		{
			"inputs": [],
			"name": "SAFUMAXX",
			"outputs": [
				{
					"internalType": "contract IERC20",
					"name": "",
					"type": "address"
				}
			],
			"stateMutability": "view",
			"type": "function"
		},
		{
			"inputs": [],
			"name": "_swapEnabled",
			"outputs": [
				{
					"internalType": "bool",
					"name": "",
					"type": "bool"
				}
			],
			"stateMutability": "view",
			"type": "function"
		},
		{
			"inputs": [],
			"name": "_swapEnabledTime",
			"outputs": [
				{
					"internalType": "uint256",
					"name": "",
					"type": "uint256"
				}
			],
			"stateMutability": "view",
			"type": "function"
		},
		{
			"inputs": [],
			"name": "_totalSupply",
			"outputs": [
				{
					"internalType": "uint256",
					"name": "",
					"type": "uint256"
				}
			],
			"stateMutability": "view",
			"type": "function"
		},
		{
			"inputs": [
				{
					"internalType": "address",
					"name": "owner_",
					"type": "address"
				},
				{
					"internalType": "address",
					"name": "spender",
					"type": "address"
				}
			],
			"name": "allowance",
			"outputs": [
				{
					"internalType": "uint256",
					"name": "",
					"type": "uint256"
				}
			],
			"stateMutability": "view",
			"type": "function"
		},
		{
			"inputs": [
				{
					"internalType": "address",
					"name": "spender",
					"type": "address"
				},
				{
					"internalType": "uint256",
					"name": "value",
					"type": "uint256"
				}
			],
			"name": "approve",
			"outputs": [
				{
					"internalType": "bool",
					"name": "",
					"type": "bool"
				}
			],
			"stateMutability": "nonpayable",
			"type": "function"
		},
		{
			"inputs": [
				{
					"internalType": "address",
					"name": "account",
					"type": "address"
				}
			],
			"name": "balanceOf",
			"outputs": [
				{
					"internalType": "uint256",
					"name": "",
					"type": "uint256"
				}
			],
			"stateMutability": "view",
			"type": "function"
		},
		{
			"inputs": [
				{
					"internalType": "address",
					"name": "_addr",
					"type": "address"
				}
			],
			"name": "checkFeeExempt",
			"outputs": [
				{
					"internalType": "bool",
					"name": "",
					"type": "bool"
				}
			],
			"stateMutability": "view",
			"type": "function"
		},
		{
			"inputs": [],
			"name": "decimals",
			"outputs": [
				{
					"internalType": "uint8",
					"name": "",
					"type": "uint8"
				}
			],
			"stateMutability": "view",
			"type": "function"
		},
		{
			"inputs": [
				{
					"internalType": "address",
					"name": "spender",
					"type": "address"
				},
				{
					"internalType": "uint256",
					"name": "subtractedValue",
					"type": "uint256"
				}
			],
			"name": "decreaseAllowance",
			"outputs": [
				{
					"internalType": "bool",
					"name": "",
					"type": "bool"
				}
			],
			"stateMutability": "nonpayable",
			"type": "function"
		},
		{
			"inputs": [],
			"name": "feeDenominator",
			"outputs": [
				{
					"internalType": "uint256",
					"name": "",
					"type": "uint256"
				}
			],
			"stateMutability": "view",
			"type": "function"
		},
		{
			"inputs": [
				{
					"internalType": "address",
					"name": "spender",
					"type": "address"
				},
				{
					"internalType": "uint256",
					"name": "addedValue",
					"type": "uint256"
				}
			],
			"name": "increaseAllowance",
			"outputs": [
				{
					"internalType": "bool",
					"name": "",
					"type": "bool"
				}
			],
			"stateMutability": "nonpayable",
			"type": "function"
		},
		{
			"inputs": [
				{
					"internalType": "address",
					"name": "",
					"type": "address"
				}
			],
			"name": "isDividendExempt",
			"outputs": [
				{
					"internalType": "bool",
					"name": "",
					"type": "bool"
				}
			],
			"stateMutability": "view",
			"type": "function"
		},
		{
			"inputs": [],
			"name": "isNotInSwap",
			"outputs": [
				{
					"internalType": "bool",
					"name": "",
					"type": "bool"
				}
			],
			"stateMutability": "view",
			"type": "function"
		},
		{
			"inputs": [],
			"name": "isOwner",
			"outputs": [
				{
					"internalType": "bool",
					"name": "",
					"type": "bool"
				}
			],
			"stateMutability": "view",
			"type": "function"
		},
		{
			"inputs": [],
			"name": "liquidityBuyFee",
			"outputs": [
				{
					"internalType": "uint256",
					"name": "",
					"type": "uint256"
				}
			],
			"stateMutability": "view",
			"type": "function"
		},
		{
			"inputs": [],
			"name": "liquiditySellFee",
			"outputs": [
				{
					"internalType": "uint256",
					"name": "",
					"type": "uint256"
				}
			],
			"stateMutability": "view",
			"type": "function"
		},
		{
			"inputs": [],
			"name": "maxTransaction",
			"outputs": [
				{
					"internalType": "uint256",
					"name": "",
					"type": "uint256"
				}
			],
			"stateMutability": "view",
			"type": "function"
		},
		{
			"inputs": [],
			"name": "maxWallet",
			"outputs": [
				{
					"internalType": "uint256",
					"name": "",
					"type": "uint256"
				}
			],
			"stateMutability": "view",
			"type": "function"
		},
		{
			"inputs": [],
			"name": "minSharesRequired",
			"outputs": [
				{
					"internalType": "uint256",
					"name": "",
					"type": "uint256"
				}
			],
			"stateMutability": "view",
			"type": "function"
		},
		{
			"inputs": [],
			"name": "name",
			"outputs": [
				{
					"internalType": "string",
					"name": "",
					"type": "string"
				}
			],
			"stateMutability": "view",
			"type": "function"
		},
		{
			"inputs": [],
			"name": "nftReceiver",
			"outputs": [
				{
					"internalType": "address payable",
					"name": "",
					"type": "address"
				}
			],
			"stateMutability": "view",
			"type": "function"
		},
		{
			"inputs": [],
			"name": "nftRewardBuyFee",
			"outputs": [
				{
					"internalType": "uint256",
					"name": "",
					"type": "uint256"
				}
			],
			"stateMutability": "view",
			"type": "function"
		},
		{
			"inputs": [],
			"name": "nftRewardSellFee",
			"outputs": [
				{
					"internalType": "uint256",
					"name": "",
					"type": "uint256"
				}
			],
			"stateMutability": "view",
			"type": "function"
		},
		{
			"inputs": [],
			"name": "owner",
			"outputs": [
				{
					"internalType": "address",
					"name": "",
					"type": "address"
				}
			],
			"stateMutability": "view",
			"type": "function"
		},
		{
			"inputs": [],
			"name": "pair",
			"outputs": [
				{
					"internalType": "address",
					"name": "",
					"type": "address"
				}
			],
			"stateMutability": "view",
			"type": "function"
		},
		{
			"inputs": [],
			"name": "pairContract",
			"outputs": [
				{
					"internalType": "contract IUniswapV2Pair",
					"name": "",
					"type": "address"
				}
			],
			"stateMutability": "view",
			"type": "function"
		},
		{
			"inputs": [],
			"name": "renounceOwnership",
			"outputs": [],
			"stateMutability": "nonpayable",
			"type": "function"
		},
		{
			"inputs": [
				{
					"internalType": "uint256",
					"name": "amount",
					"type": "uint256"
				}
			],
			"name": "rescueBNB",
			"outputs": [],
			"stateMutability": "nonpayable",
			"type": "function"
		},
		{
			"inputs": [
				{
					"internalType": "address",
					"name": "tokenAddress",
					"type": "address"
				},
				{
					"internalType": "address",
					"name": "to",
					"type": "address"
				}
			],
			"name": "rescueToken",
			"outputs": [
				{
					"internalType": "bool",
					"name": "success",
					"type": "bool"
				}
			],
			"stateMutability": "nonpayable",
			"type": "function"
		},
		{
			"inputs": [],
			"name": "rewardDividendBuyFee",
			"outputs": [
				{
					"internalType": "uint256",
					"name": "",
					"type": "uint256"
				}
			],
			"stateMutability": "view",
			"type": "function"
		},
		{
			"inputs": [],
			"name": "rewardDividendSellFee",
			"outputs": [
				{
					"internalType": "uint256",
					"name": "",
					"type": "uint256"
				}
			],
			"stateMutability": "view",
			"type": "function"
		},
		{
			"inputs": [],
			"name": "router",
			"outputs": [
				{
					"internalType": "contract IUniswapV2Router02",
					"name": "",
					"type": "address"
				}
			],
			"stateMutability": "view",
			"type": "function"
		},
		{
			"inputs": [],
			"name": "safuRewardBuyFee",
			"outputs": [
				{
					"internalType": "uint256",
					"name": "",
					"type": "uint256"
				}
			],
			"stateMutability": "view",
			"type": "function"
		},
		{
			"inputs": [],
			"name": "safuRewardSellFee",
			"outputs": [
				{
					"internalType": "uint256",
					"name": "",
					"type": "uint256"
				}
			],
			"stateMutability": "view",
			"type": "function"
		},
		{
			"inputs": [],
			"name": "selllessSwap",
			"outputs": [
				{
					"internalType": "address",
					"name": "",
					"type": "address"
				}
			],
			"stateMutability": "view",
			"type": "function"
		},
		{
			"inputs": [
				{
					"internalType": "uint256",
					"name": "_liquidityFee",
					"type": "uint256"
				},
				{
					"internalType": "uint256",
					"name": "_safuRewardFee",
					"type": "uint256"
				},
				{
					"internalType": "uint256",
					"name": "_rewardFee",
					"type": "uint256"
				},
				{
					"internalType": "uint256",
					"name": "_nftRewardFee",
					"type": "uint256"
				},
				{
					"internalType": "uint256",
					"name": "_utilityFee",
					"type": "uint256"
				}
			],
			"name": "setBuyFees",
			"outputs": [],
			"stateMutability": "nonpayable",
			"type": "function"
		},
		{
			"inputs": [
				{
					"internalType": "uint256",
					"name": "_minPeriod",
					"type": "uint256"
				},
				{
					"internalType": "uint256",
					"name": "_minDistribution",
					"type": "uint256"
				}
			],
			"name": "setDistributionCriteria",
			"outputs": [],
			"stateMutability": "nonpayable",
			"type": "function"
		},
		{
			"inputs": [
				{
					"internalType": "uint256",
					"name": "gas",
					"type": "uint256"
				}
			],
			"name": "setDistributorSettings",
			"outputs": [],
			"stateMutability": "nonpayable",
			"type": "function"
		},
		{
			"inputs": [],
			"name": "setEnableSwap",
			"outputs": [],
			"stateMutability": "nonpayable",
			"type": "function"
		},
		{
			"inputs": [
				{
					"internalType": "address",
					"name": "_utilityReceiver",
					"type": "address"
				},
				{
					"internalType": "address",
					"name": "_nftReceiver",
					"type": "address"
				}
			],
			"name": "setFeeReceivers",
			"outputs": [],
			"stateMutability": "nonpayable",
			"type": "function"
		},
		{
			"inputs": [
				{
					"internalType": "address",
					"name": "holder",
					"type": "address"
				},
				{
					"internalType": "bool",
					"name": "exempt",
					"type": "bool"
				}
			],
			"name": "setIsDividendExempt",
			"outputs": [],
			"stateMutability": "nonpayable",
			"type": "function"
		},
		{
			"inputs": [
				{
					"internalType": "address",
					"name": "_address",
					"type": "address"
				}
			],
			"name": "setLP",
			"outputs": [],
			"stateMutability": "nonpayable",
			"type": "function"
		},
		{
			"inputs": [
				{
					"internalType": "uint256",
					"name": "_maxWallet",
					"type": "uint256"
				}
			],
			"name": "setMaxWallet",
			"outputs": [],
			"stateMutability": "nonpayable",
			"type": "function"
		},
		{
			"inputs": [
				{
					"internalType": "uint256",
					"name": "_minSharesRequired",
					"type": "uint256"
				}
			],
			"name": "setMinimumSharesRequired",
			"outputs": [],
			"stateMutability": "nonpayable",
			"type": "function"
		},
		{
			"inputs": [
				{
					"internalType": "address",
					"name": "_reward",
					"type": "address"
				}
			],
			"name": "setRewardToken",
			"outputs": [],
			"stateMutability": "nonpayable",
			"type": "function"
		},
		{
			"inputs": [
				{
					"internalType": "uint256",
					"name": "_liquidityFee",
					"type": "uint256"
				},
				{
					"internalType": "uint256",
					"name": "_safuRewardFee",
					"type": "uint256"
				},
				{
					"internalType": "uint256",
					"name": "_rewardFee",
					"type": "uint256"
				},
				{
					"internalType": "uint256",
					"name": "_nftRewardFee",
					"type": "uint256"
				},
				{
					"internalType": "uint256",
					"name": "_utilityFee",
					"type": "uint256"
				}
			],
			"name": "setSellFees",
			"outputs": [],
			"stateMutability": "nonpayable",
			"type": "function"
		},
		{
			"inputs": [
				{
					"internalType": "address",
					"name": "_selllessSwap",
					"type": "address"
				}
			],
			"name": "setSelllessSwapAddress",
			"outputs": [],
			"stateMutability": "nonpayable",
			"type": "function"
		},
		{
			"inputs": [
				{
					"internalType": "address",
					"name": "_addr",
					"type": "address"
				}
			],
			"name": "setWhitelist",
			"outputs": [],
			"stateMutability": "nonpayable",
			"type": "function"
		},
		{
			"inputs": [],
			"name": "symbol",
			"outputs": [
				{
					"internalType": "string",
					"name": "",
					"type": "string"
				}
			],
			"stateMutability": "view",
			"type": "function"
		},
		{
			"inputs": [],
			"name": "totalBuyFee",
			"outputs": [
				{
					"internalType": "uint256",
					"name": "",
					"type": "uint256"
				}
			],
			"stateMutability": "view",
			"type": "function"
		},
		{
			"inputs": [],
			"name": "totalSellFee",
			"outputs": [
				{
					"internalType": "uint256",
					"name": "",
					"type": "uint256"
				}
			],
			"stateMutability": "view",
			"type": "function"
		},
		{
			"inputs": [],
			"name": "totalSupply",
			"outputs": [
				{
					"internalType": "uint256",
					"name": "",
					"type": "uint256"
				}
			],
			"stateMutability": "view",
			"type": "function"
		},
		{
			"inputs": [
				{
					"internalType": "address",
					"name": "to",
					"type": "address"
				},
				{
					"internalType": "uint256",
					"name": "value",
					"type": "uint256"
				}
			],
			"name": "transfer",
			"outputs": [
				{
					"internalType": "bool",
					"name": "",
					"type": "bool"
				}
			],
			"stateMutability": "nonpayable",
			"type": "function"
		},
		{
			"inputs": [
				{
					"internalType": "address",
					"name": "from",
					"type": "address"
				},
				{
					"internalType": "address",
					"name": "to",
					"type": "address"
				},
				{
					"internalType": "uint256",
					"name": "value",
					"type": "uint256"
				}
			],
			"name": "transferFrom",
			"outputs": [
				{
					"internalType": "bool",
					"name": "",
					"type": "bool"
				}
			],
			"stateMutability": "nonpayable",
			"type": "function"
		},
		{
			"inputs": [
				{
					"internalType": "address",
					"name": "newOwner",
					"type": "address"
				}
			],
			"name": "transferOwnership",
			"outputs": [],
			"stateMutability": "nonpayable",
			"type": "function"
		},
		{
			"inputs": [],
			"name": "utilityBuyFee",
			"outputs": [
				{
					"internalType": "uint256",
					"name": "",
					"type": "uint256"
				}
			],
			"stateMutability": "view",
			"type": "function"
		},
		{
			"inputs": [],
			"name": "utilityReceiver",
			"outputs": [
				{
					"internalType": "address payable",
					"name": "",
					"type": "address"
				}
			],
			"stateMutability": "view",
			"type": "function"
		},
		{
			"inputs": [],
			"name": "utilitySellFee",
			"outputs": [
				{
					"internalType": "uint256",
					"name": "",
					"type": "uint256"
				}
			],
			"stateMutability": "view",
			"type": "function"
		},
		{
			"stateMutability": "payable",
			"type": "receive"
		}
	]
}